:020000040800F2
:10000000480E0020694F0008C91D0008CB1D0008DC
:10001000CD1D0008CF1D0008D11D00080000000004
:10002000000000000000000000000000D31D0008D8
:10003000D51D000800000000D71D0008D91D0008CC
:10004000834F0008834F0008834F0008834F000848
:10005000834F0008834F0008834F0008834F000838
:10006000834F0008834F0008834F0008834F000828
:10007000834F0008834F0008834F0008834F000818
:10008000834F0008834F0008834F0008834F000808
:10009000834F0008834F0008834F0008F71D0008B6
:1000A000834F0008834F0008834F0008834F0008E8
:1000B000834F0008834F0008834F0008834F0008D8
:1000C000834F0008834F0008834F0008834F0008C8
:1000D000834F0008834F0008834F0008834F0008B8
:1000E000391E0008834F0008834F0008834F000823
:1000F000834F0008834F0008834F0008834F000898
:10010000834F0008834F0008834F0008834F000887
:10011000834F0008834F0008834F0008834F000877
:10012000834F0008834F0008834F0008834F000867
:10013000834F0008834F0008834F0008834F000857
:10014000834F0008834F0008834F0008834F000847
:10015000834F0008834F0008834F0008834F000837
:10016000834F0008834F0008834F0008834F000827
:10017000834F0008834F0008834F0008834F000817
:10018000834F0008834F000800F002F800F078F871
:100190000AA090E8000C82448344AAF10107DA45E2
:1001A00001D100F06DF8AFF2090EBAE80F0013F0BC
:1001B000010F18BFFB1A43F00103184774710000C8
:1001C000947100000A444FF0000C10F8013B13F04A
:1001D000070408BF10F8014B1D1108BF10F8015BA0
:1001E000641E05D010F8016B641E01F8016BF9D193
:1001F00013F0080F1EBF10F8014BAD1C0C1B09D1EA
:100200006D1E58BF01F801CBFAD505E014F8016B5B
:1002100001F8016B6D1EF9D59142D6D370470000ED
:100220000023002400250026103A28BF78C1FBD8FF
:10023000520728BF30C148BF0B607047662906F0DF
:10024000D887642905F00080632905F0DD847329CF
:1002500005F0E284002070471FB506F0C0FF05F0EE
:100260000BFD04000020002106F064FC401C6060CF
:100270000020002106F048FCE0601FBD10B510BD55
:1002800005F050FE1146FFF7E7FF01F036FC06F0DF
:1002900053F803B4FFF7F2FF03BC01F0CBFF0000FB
:1002A0002749084327490860704770B50F23C27873
:1002B000017801254FF0E026E2B1224A126802F4EB
:1002C000E062C2F5E062C2F30722C2F10404D34047
:1002D0004278A24084781C401B4B14432201CA542C
:1002E000007800F01F018D40400906EB8000C0F847
:1002F000005170BD01F01F008540480906EB8000E9
:10030000C0F8805170BD114A114001430D48001FD3
:10031000016070470B4A121D0029116801D001438A
:1003200000E08143116070474FF0E0210428086924
:1003300003D020F004000861704740F00400FAE7A1
:100340000000FA050CED00E000E400E080FFFF1F74
:1003500010B501210C02204600F07DFC2046BDE8CE
:100360001040002100F077BC30B54268C44B0C79D6
:100370001A400B6842EA0422134343608268C14B6F
:100380004D791A40D1E9034323438C6844EA45047C
:10039000234313438360C26A097D22F47002491E1D
:1003A000C9B242EA0151C16230BD00210160017150
:1003B00041718160C1600161012101757047B24BDB
:1003C00010B51A68B1490A40D0E900142143D0E9B8
:1003D0000240044321431143196010BD0021016014
:1003E00041608160C16070470029816802D041F09E
:1003F000010101E021F00101816070474268A44BD6
:100400001A400A4342607047416282627047426804
:1004100022F01F020A43426070479E490028D1F82B
:10042000040302D040F4000001E020F40000C1F811
:100430000403704797490028D1F8040302D040F420
:10044000800001E020F48000C1F80403704770B51B
:10045000072609290AD9C568A1F10A0404EB440456
:10046000A640B543A3401D43C56007E0056901EB05
:100470004104A640B543A3401D4305611F23072A3D
:1004800009D2446B521E02EB820293409C4391407E
:100490000C43446370BD0D2A09D2046BD21F02EBDA
:1004A000820293409C4391400C43046370BDC46A34
:1004B0000D3A02EB820293409C4391400C43C4628C
:1004C00070BD816841F08041816070470146002025
:1004D0008968490200D5012070470029816802D04F
:1004E00041F4806101E021F480618160704700295E
:1004F000816802D041F0020101E021F00201816037
:1005000070474268491E22F4604242EA413141602C
:1005100070470029416802D041F4006101E021F4F4
:10052000006141607047C06C80B270475648001D42
:10053000006870470029816802D041F4807101E0B1
:1005400021F48071816070470029816802D041F4F4
:10055000007101E021F40071816070474D4900286D
:10056000D1F8040302D040F4005001E020F4005020
:10057000C1F80403704770B5072609290AD9C56870
:10058000A1F10A0404EB4404A640B543A3401D4373
:10059000C56007E0056901EB4104A640B543A340EF
:1005A0001D430561836BC3F30154121B921C02EBC4
:1005B00082021F249440A34391400B43836370BD88
:1005C000826B491E22F4401242EA01518163704756
:1005D00042507047826822F470220A43826070475A
:1005E000826822F440120A4382607047816841F4B5
:1005F000800181607047014600208968490200D56A
:10060000012070470029416802D041F4806101E077
:1006100021F48061416070470029416802D041F4B3
:10062000805101E021F48051416070470844806AA4
:1006300080B2704701238B4041680AB1194300E042
:100640009943416070470246002012680A4200D078
:1006500001207047C9430160704730B50246002051
:1006600054680B0A01258D4011682C40194202D0B4
:10067000002C00D0012030BD6FEA112101607047CD
:10068000FFFEFFFCFDF7FFC004230140E030FCFF4C
:10069000FFFD3FFF00200140374900200860091D91
:1006A0000860091D0860091D08603349334814318A
:1006B0000860704730B5304A8379016853B31368D6
:1006C0008B431360111D0B680468A3430B60017911
:1006D00011440B68046823430B60274B08331968E7
:1006E0000468A14319601C1D21680568A9432160A5
:1006F0004179102905D011440A68006802430A6054
:1007000030BD19680268114319602168006801430F
:10071000216030BD0079104402688A43026030BD18
:100720000021016001710C224271817170471249F0
:1007300010310A6802430A60704701460E4A0020E1
:10074000143212680A4200D0012070470A4914315D
:1007500008607047084A014600201268064B0A40AC
:1007600014331B680B4202D0002A00D001207047CE
:100770000149143108607047003C0140FFFF7F00D1
:100780006F4910B5884206D10121084600F03BFAB6
:10079000002101204FE06B49884206D1012102204F
:1007A00000F031FA0021022045E06749884206D175
:1007B0000121042000F027FA002104203BE06349D6
:1007C000884206D10121082000F01DFA00210820EE
:1007D00031E05F49884206D10121102000F013FA70
:1007E0000021102027E05B49884206D1012120200A
:1007F00000F009FA002120201DE05749884206D167
:100800000121402000F0FFF90021402013E053496E
:10081000884206D10121802000F0F5F900218020D6
:1008200009E04F4988420AD184150121204600F091
:10083000EAF900212046BDE8104000F0E4B910BDFF
:10084000F0B5002201274FF0030C0B6807FA02F500
:100850002B40AB422CD1066853000CFA03F4A6439C
:1008600006600E79D0F800E09E4046EA0E0606606B
:100870000E79012E01D0022E12D18668A643866021
:100880004E79D0F808E09E4046EA0E06866046683B
:10089000AE43466045688E799640B6B235434560B2
:1008A000C568A543C560CC799C40C3681C43C4603F
:1008B000521C102AC9D3F0BD4FF6FF710160002110
:1008C000017141718171C171704741F48032C2611F
:1008D000C161C261C169C0697047024600201269E6
:1008E0000A4200D001207047006980B2704702467A
:1008F000002052690A4200D001207047406980B24E
:10090000704701837047418370470AB10183704784
:10091000418370474161704742694A404261704774
:100920004B07DB0E9A40C90810B500EB8100016A45
:100930000F249C40A1430162016A1143016210BD72
:10094000000002400004024000080240000C024087
:10095000001002400014024000180240001C024037
:1009600000200240E948016841F001010160E74AC6
:100970000021083211600268E54B1A400260031D35
:10098000E44A1A60026822F480220260DF480C30D8
:1009900001607047DD490022891C0A7008707047A9
:1009A00002460020510901290CD002290CD0D74958
:1009B0007431096802F01F02012393400B4200D0FA
:1009C00001207047D149F4E7D0497031F1E730B5E3
:1009D00000244FF4A0653120FFF7E2FF641CAC4215
:1009E00001D00028F7D03120FFF7DAFF002800D02F
:1009F000012030BDC54A116821F0F80141EAC0006C
:100A000010607047C44908607047C04900227031C7
:100A10000A700A70012802D0042801D1052008704C
:100A20007047BE490860704741EA82115A0810B504
:100A3000BB4B029C03EB02421143014341EA0460B9
:100A4000B249091D086010BDB349086670478001AE
:100A500040EA0170AD49843108607047AE4988664C
:100A60007047AD49C8647047A84B08331A680843FB
:100A700022F0EC62104318607047A44B08331A68E8
:100A8000084322F078421043186070479F4A0832AA
:100A9000116821F003010143116070479B48083041
:100AA000006800F00C007047984A0832116821F085
:100AB000F001014311607047944A0832116821F433
:100AC000E051014311607047904A0832116821F4E7
:100AD000604141EAC0001060704770B58B4B08332D
:100AE0001968904C11F00C0104D06610042903D051
:100AF000082903D004601BE0066019E0834A121D38
:100B00001168C1F38055116801F03F0115B1B6FBC2
:100B1000F1F101E0B4FBF1F114681268C4F3881438
:100B20006143C2F30142521C5200B1FBF2F1016079
:100B300019687D4A01F0F0010909545C0168E1403F
:100B400041601C6804F4E054A40A145D21FA04F422
:100B500084601B6803F460435B0BD25CD140C160CE
:100B600070BDC0F30121032908D1684B083319680F
:100B70006E4A21F4F81102400A431A606349703149
:100B80000A68C0F30B0002430A60704763494439A6
:100B900008607047614940390860704764490860DF
:100BA00070475A4A30320029116801D0014300E0F1
:100BB000814311607047554A34320029116801D0D1
:100BC000014300E0814311607047504A38320029E8
:100BD000116801D0014300E08143116070474B4A26
:100BE00040320029116801D0014300E081431160C7
:100BF0007047464A44320029116801D0014300E0A1
:100C0000814311607047414A10320029116801D0B8
:100C1000014300E08143116070473C4A14320029CF
:100C2000116801D0014300E0814311607047374AE9
:100C300018320029116801D0014300E0814311609E
:100C40007047324A20320029116801D0014300E088
:100C50008143116070472D4A24320029116801D068
:100C6000014300E0814311607047284A5032002957
:100C7000116801D0014300E0814311607047234AAD
:100C800054320029116801D0014300E08143116012
:100C900070471E4A58320029116801D0014300E014
:100CA000814311607047194A60320029116801D0F0
:100CB000014300E0814311607047144A6432002907
:100CC000116801D0014300E08143116070470F4A71
:100CD0000D320029117801D0014300E081431170E9
:100CE00070470A487430016841F0807101607047B4
:100CF0000146064A00200C3212680A4200D0012048
:100D0000704702490E3108707047000000380240F9
:100D1000FFFFF6FE1030002400004742800E4742DD
:100D20000000FFFF0024F40000000020FFFCFF0F84
:100D30005C01474210B501218C032046FFF78BFF71
:100D40002046BDE810400021FFF785BF114908602B
:100D5000704710B58A0721F00304120F0F230D49C5
:100D60009340083121440C689C430C600B68904010
:100D700003430B6010BD08490860704707490860CD
:100D800070470449002020310968C90500D50120B9
:100D90007047000000380140DC0027420004274271
:100DA000FE4910B5884206D101210846FFF753FFDE
:100DB000002101205BE0B0F1804F09D0F849884262
:100DC0000DD101210220FFF73CFF0021022070E03D
:100DD00001210846FFF735FF0021012069E0F149B4
:100DE000884206D101210420FFF72BFF00210420B7
:100DF0005FE0ED49884206D101210820FFF721FF7D
:100E00000021082055E0E949884206D1012110203F
:100E1000FFF717FF002110204BE0E549884206D17B
:100E200001212020FFF70DFF0021202041E0E149B2
:100E3000884206D101210220FFF70DFF0021022088
:100E400015E0DD49884202D101210C040AE0DB49AA
:100E5000884202D101214C0404E0D94988420AD1D8
:100E600001218C042046FFF7F6FE00212046BDE854
:100E70001040FFF7F0BED349884206D1012140203F
:100E8000FFF7DFFE0021402013E0CF49884206D162
:100E900001218020FFF7D5FE0021802009E0CB4909
:100EA00088420AD1841501212046FFF7CAFE00219D
:100EB0002046BDE81040FFF7C4BE10BD30B5028823
:100EC000B64CBC4DA0420DD0A8420BD0B0F1804F23
:100ED00008D0B34B984205D0B24B984202D0B24BE7
:100EE000984203D122F070034A881A43AF4B9842CC
:100EF00006D0AF4B984203D022F440730A891A43BC
:100F000002804A68C2620A880285A04201D0A842D3
:100F100001D1897A01860121818230BD4FF0FF31F4
:100F2000416000210180018141808172704701850B
:100F300082827047028822F070020A430280704762
:100F400041627047C1627047406A7047008D7047C8
:100F50000029018802D041F0020101E021F00201E4
:100F6000018070470029018802D041F0040101E0AE
:100F700021F00401018070470029018802D041F06E
:100F8000800101E021F0800101807047028822F099
:100F90000802028002880A4302807047028822F415
:100FA0004072028002880A4302807047002901884B
:100FB00002D041F0010101E021F001010180704700
:100FC00030B5028C22F001020284028C8388048BEB
:100FD00022F0020224F073050C882C438D891543FE
:100FE0004A882A436D4DA84202D0724DA8420DD1C5
:100FF00022F00805CA8923F440732A4322F004052D
:101000008A882A430D8A1D434B8A2B43838004839D
:1010100089684163028430BD70B5028C22F01002F1
:101020000284028C8388048B0D8824F4E6464FF6F4
:10103000FF7404EA052535438E8922F0200204EA74
:10104000061616434A8804EA02123243534EB0424F
:1010500002D0584EB04215D122F08006CA8923F43E
:10106000406304EA0212324322F040068A8804EA0E
:10107000021232430E8A04EA86061E434B8A04EAB1
:10108000830333438380058389688163028470BD51
:1010900070B5028C22F480720284028C8388848B67
:1010A0000D8824F0730425438E894FF6FF7422F4D3
:1010B000007204EA062616434A8804EA02223243F2
:1010C000364EB04202D03B4EB04215D122F40066FB
:1010D000CA8923F4405304EA0222324322F4806690
:1010E0008A8804EA022232430E8A04EA06161E4364
:1010F0004B8A04EA03133343838085838968C16381
:10110000028470BD70B5028C22F480520284058C7A
:101110008288838B0C8823F4E6464FF6FF7303EA3C
:101120000424344325F400568D8903EA05353543FC
:101130004E8803EA06362E43184DA84202D01D4DB4
:10114000A84205D122F480450A8A03EA82122A4382
:101150008280848389680164068470BD00210180D7
:101160004180818081608181C1810182418270479B
:1011700030B50124058C00F118038C40A54305848B
:1011800031B308292CD0091FC1F34E00184401685F
:1011900048F6FF731940016001681AE00000014041
:1011A0000004004000080040000C00400010004017
:1011B0000014004000040140004001400044014090
:1011C0000048014000180040001C00400020004082
:1011D00006E04FF6FF7303EA02221143016030BDBF
:1011E00003EB510001684FF68F73194001600168ED
:1011F000F3E74163704781637047C16370470164DF
:101200007047028B22F070020A4302837047028B00
:101210004FF6FF7322F4E04203EA012111430183F8
:101220007047828B22F070020A4382837047828B60
:101230004FF6FF7322F4E04203EA01211143818358
:101240007047028B22F008020A4302837047028B28
:101250004FF6FF7322F4006203EA01211143018378
:101260007047828B22F008020A4382837047828B88
:101270004FF6FF7322F4006203EA012111438183D8
:101280007047028B22F004020A4302837047028BEC
:101290004FF6FF7322F4806203EA012111430183B8
:1012A0007047828B22F004020A4382837047828B4C
:1012B0004FF6FF7322F4806203EA01211143818318
:1012C0007047028B22F080020A4302837047028B30
:1012D0004FF6FF73C2F30E0203EA012111430183AB
:1012E0007047828B22F080020A4382837047828B90
:1012F0004FF6FF73C2F30E0203EA0121114381830B
:101300007047028C22F002020A4302847047028C6A
:1013100022F008020A4302847047028C4FF6FF73E2
:1013200022F0200203EA0111114301847047028C6C
:101330004FF6FF7322F0800203EA0111114301848A
:101340007047028C4FF6FF7322F4007203EA01210A
:10135000114301847047028C4FF6FF7322F4006240
:1013600003EA0121114301847047028C4FF6FF7399
:1013700022F4005203EA013111430184704710B591
:101380000123048C8B409C430484038C8A401343C8
:10139000038410BD10B50423048C8B409C4304844B
:1013A000038C8A401343038410BD828B22F4406275
:1013B0008283828B4FF6FF7303EA01210A43828303
:1013C0007047828B22F00C028283828B0A438283D5
:1013D0007047028B22F440620283028B4FF6FF7348
:1013E00003EA01210A4302837047F0B5048C24F01C
:1013F00010040484078B068C4FF6FF7404EA011571
:1014000027F4734704EA0331394304EA02220A430A
:1014100026F0A001294341F0100102830184F0BDB0
:10142000028B22F00C020283028B0A430283704774
:101430002DE9F0410C460E884988A288238905468B
:101440000EB3042E26D0082E2E8C4FF6FF7028D017
:1014500026F480562E84AF8B2E8C00EA022200EAFE
:10146000013127F473473A4300EA0330104326F46E
:1014700020420A4342F48051A8832984E188284607
:10148000BDE8F04191E700F061F9E1882846BDE848
:10149000F041C5E7FFF7A9FFE1882846BDE8F04124
:1014A00097E726F480762E84AF8B2E8C00EA0121FC
:1014B00000EA0310104327F0F307384326F42062B4
:1014C0000A4342F48071A8832984E1882846BDE854
:1014D000F04176E700210180418001228280C180B5
:1014E000018170472DE9F0410C46002549880746E7
:1014F000012601B90225A288012A00D102262088EE
:1015000023890028384610D0FFF76FFFE18838465E
:10151000FFF75FFF238932462946384600F016F967
:10152000E1883846BDE8F0417AE700F00FF9E1883C
:101530003846FFF775FF2389324629463846FFF7BC
:1015400054FFE1883846BDE8F04142E7406B704700
:10155000806B7047C06B7047006C704710B50A888D
:101560004B88CC881A438B8823431A430B891A4330
:101570004B8989891A430A43A0F8442010BD0021F1
:10158000018041808180C1800181418181817047DA
:10159000002930F8441F02D041F4004101E0C1F3BA
:1015A0000E01018070470029818802D041F00401BA
:1015B00001E021F00401818070470029818802D078
:1015C00041F0010101E021F0010181807047002A12
:1015D000828901D00A4300E08A4382817047818278
:1015E000704702460020128A0A4200D0012070474C
:1015F000C94301827047034600201A8A9B890A4228
:1016000003EA010302D0002B00D001207047C94338
:10161000018270471143A0F848107047002A828960
:1016200001D00A4300E08A43828170470029818803
:1016300002D041F0080101E021F0080181807047EB
:10164000018921F0070101817047028922F07002AF
:101650000A430281704700B50346FFF7F6FF188979
:1016600040F00700188100BD70B50D4611460446D4
:10167000602D4FF001020AD000F068F8294620469C
:10168000FFF7E3FF208940F00700208170BDFFF7DE
:10169000ACFEF3E730B504894FF6FF7505EA032386
:1016A0001343E4B20B432343038130BD10B504461A
:1016B000FFF7F0FF208940F07700208110BD10B5C2
:1016C0000446FFF7E7FF208940F48040208110BDE9
:1016D000828822F07002828082880A43828070476A
:1016E000028922F00702028102890A4302817047BF
:1016F000028922F08002028102890A430281704736
:1017000070B50589048B068C25F007050D434FF64F
:10171000FC410C4040F201110C434FF6FF7101EA0D
:10172000031126F02206114331430581048301840D
:1017300070BD0029818802D041F0800101E021F0D4
:10174000800181807047A0F85010704770B5048CFC
:1017500024F001040484058B048C4FF6FF7606EA1E
:101760000313134325F0F3052B4324F00A020A4325
:1017700042F001010383018470BD0000CA4910B525
:10178000884206D101211020FFF765FA00211020C0
:1017900028E0C649884202D101214C0410E0C44926
:1017A000884202D101218C040AE0C249884202D158
:1017B0000121CC0404E0C04988420AD101210C0572
:1017C0002046FFF73EFA2046BDE810400021FFF713
:1017D00038BABA49884209D101212020FFF73BFAE3
:1017E00000212020BDE81040FFF735BA10BD7FB5BD
:1017F0000446008A0D46C98820F4405001432182E6
:10180000A08941F20C618843A9882A8911436A8919
:1018100002431143A181A08A20F44071A8890843A2
:10182000A0826846FFF759F99F48844202D0A34836
:10183000844201D1039800E00298A189090400299B
:1018400000EBC00101EB0010296802DA4FEA410108
:1018500001E04FEA8101B0FBF1F06422B0FBF2F14C
:101860004FEA01114FEA11136FF018056B4300EBBB
:101870008300A3891D044FF0320306D503EBC0009B
:10188000B0FBF2F000F0070005E003EB0010B0FB46
:10189000F2F000F00F00084320817FBD4FF4165195
:1018A000016000218180C18001810C2242818181FF
:1018B000704710B5028A4C8822F470630A8822436C
:1018C0008C88C9880C4322431A43028210BD002130
:1018D000018041808180C18070470029818902D0C8
:1018E00041F4005101E021F4005181817047028BE5
:1018F00002F47F420283028B0A430283704700296D
:10190000818902D041F4004101E0C1F30E018181DF
:1019100070470029818A02D041F4006101E021F47E
:10192000006181827047C1F308018180704780881F
:10193000C0F308007047028A22F00F020282028A76
:101940000A43028270470029818902D041F00201D6
:1019500001E021F0020181817047828922F4006256
:10196000828182890A4382817047028A22F02002A2
:101970000282028A0A43028270470029018A02D049
:1019800041F4804101E021F4804101827047818966
:1019900041F00101818170470029818A02D041F024
:1019A000080101E021F0080181827047028BD2B268
:1019B0000283028B42EA0121018370470029818A58
:1019C00002D041F0200101E021F020018182704726
:1019D0000029818A02D041F0100101E021F01001BC
:1019E00081827047828A22F004028282828A0A43BC
:1019F000828270470029818A02D041F0020101E011
:101A000021F0020181827047002A828A01D00A43B4
:101A100000E08A438282704710B5C1F3421301F09F
:101A20001F040121A140012B07D0022B07D0143045
:101A3000002A026805D00A4304E00C30F8E71030B1
:101A4000F6E78A43026010BD0246002012880A426F
:101A500000D001207047C9430180704770B501F084
:101A60001F0501260024C1F3421306FA05F2012BDB
:101A70000FD0022B0FD0838A4FEA11210088134226
:101A800006FA01F600EA060001D000B10124204662
:101A900070BD8389F0E7038AEEE70A0A01219140CD
:101AA000C94301807047000000100140004400401D
:101AB00000480040004C004000500040001401402D
:101AC00010B501F047F8994CE07838B1207808B1AA
:101AD00000F004FF607808B102F0F9F920790028DD
:101AE0000AD0207808B100F0F9FE6078002803D011
:101AF000BDE8104002F0EBB910BD00F0C7F900F0EE
:101B000037FA00F09BFA4FF4165000F043FB00F058
:101B100033FD00F0EFFD00F069FD00F05BFE844D49
:101B20004FF4805421462846FEF7EDFE610028461A
:101B3000FEF7E9FEA1002846FEF7E5FEE100284693
:101B4000FEF7E1FE7B4D40212846FEF7DCFE8021BA
:101B50002846FEF7D8FE04217748FEF7D4FE21463A
:101B60002846FEF7D0FE21117448FEF7CCFEE110A6
:101B70002846FEF7C8FE4FF47A74204600F0C3F9F9
:101B80002146C82000F099FD6848012181704FF47A
:101B900061718160C821C1604FF4967141614FF459
:101BA000C87181615021C161782101623C2141628B
:101BB00064218163C1636FF0450101644621416482
:101BC0006FF09D0181649E21C1644FF4C861816200
:101BD00040F29651C162611001634163584800218F
:101BE000016044F25061416045F20821816045F690
:101BF000D811C16045F6CC31016145F6C051416153
:101C00004FF4C8418161C161016241628162C16278
:101C1000016341638163C1630A2000F074F9FBE74B
:101C200010B54FF4FA71C82000F047FD4FF47A70F8
:101C300000F069F943A003F0A9FABDE8104001F0F3
:101C400073BA10B54FF4FA71C82000F036FD4FF4A6
:101C50007A7000F058F940A003F098FA334946F240
:101C600018000861BDE8104001F0C8BB10B54FF482
:101C7000FA71C82000F021FD4FF47A7000F043F9AA
:101C80003AA003F083FA29494FF4C840086103F0F1
:101C90000DF903F04DF8BDE8104002F0B6BB10B5E9
:101CA0004FF4FA71C82000F008FD4FF47A7000F08C
:101CB0002AF9BDE8104032A003F068BA10B53548E3
:101CC0002DED028B8EB0006805F018FA41EC180B70
:101CD00000F060FD044600F061FD2F49304B0A68BA
:101CE0002E491B6809680A93CDE90B122D4A2E492B
:101CF0008DED088B12680968CDE90304CDE9051262
:101D00002A482B492B4A0068096812680092CDE9DD
:101D100001102948036829480268294801682948B0
:101D200003F034FA0EB0BDEC028B10BD1C00002095
:101D30000004024000080240000C02400000024083
:101D4000A4070020427574746F6E20302070726595
:101D5000737365640A0D0000427574746F6E2031F0
:101D600020707265737365640A0D000042757474A7
:101D70006F6E203220707265737365640A0D000007
:101D8000427574746F6E203320707265737365646E
:101D90000A0D0000EC000020740100206C010020FE
:101DA00068010020E8000020C8000020D0000020CA
:101DB000D8000020E0000020DC000020D40000203B
:101DC000CC000020F87100087047FEE7FEE7FEE750
:101DD000FEE770477047704729480168491C016059
:101DE00028490868002802DA274B00221A60401EA2
:101DF0000860FFF765BE70B52020FEF7ABFC4FF41E
:101E0000967438B1204600F07EF8FFF709FF2020D5
:101E1000FEF7AEFC4FF480752846FEF79BFC0028C9
:101E200009D0204600F06FF8FFF739FF2846BDE8DB
:101E30007040FEF79DBC70BD70B54FF4006528463C
:101E4000FEF788FC4FF4967438B1204600F05BF83A
:101E5000FFF7F7FE2846FEF78BFC4FF48055284627
:101E6000FEF778FC002809D0204600F04CF8FFF778
:101E7000FDFE2846BDE87040FEF77ABC70BD00004C
:101E8000A8000020BC0000203404004070B503F01E
:101E90000AF903F02DF932484FF47A710068B0FB6B
:101EA000F1F0401EB0F1807F16D24FF0E024606167
:101EB00066170F21304600F047F80025A56107207E
:101EC00020614FF44070FEF7EBF90021304600F03E
:101ED0003BF82448456070BDFEE74FF0E020806984
:101EE000A821B0FBF1F21F49486800EB4003C3EBA7
:101EF000C010C2EBC00000F57A7008600868704737
:101F000018484068704717494A684B689B1A8342D3
:101F1000FBD1704730B50546FFF7DFFF0446FFF7FA
:101F2000DCFF001BA842FAD130BD30B50C46054697
:101F3000FFF7D3FF001BA842FAD330BD094A53680C
:101F40005B1A8342FBD370470907090E002803DAA6
:101F500000F00F00044A00E0044A8154704700007A
:101F600080010020A400002014ED00E000E400E067
:101F70007CB501210846FEF714FE01210220FEF780
:101F800010FE01210420FEF70CFE01210820FEF7BF
:101F900008FE4FF48070009001208DF804000020AE
:101FA0008DF8060003218DF805108DF807006946AD
:101FB0001E48FEF745FC4FF490501D4D00906946B9
:101FC0002846FEF73DFC0420009069461948FEF7BC
:101FD00037FC4FF47040184E022400908DF80740F3
:101FE00069463046FEF72CFCC02000908DF8074073
:101FF00069462846FEF724FC40212846FEF783FC6C
:1020000080212846FEF77FFCE1023046FEF77BFC8C
:1020100021033046FEF777FC61033046FEF773FC80
:10202000A1033046FEF76FFC7CBD000000000240BB
:1020300000080240000C0240000402402DE9F04775
:10204000012186B08803FEF7D4FD01210720FEF7A9
:10205000A8FD00248DF8104020258DF8134003A919
:1020600049480395FEF7ECFB05210120FEF771FEC0
:1020700000958DF8044008268DF8056001258DF83F
:1020800006506846FEF716FB4FF017098DF80890CA
:102090008DF809508DF80A408DF80B5002A8FEF714
:1020A00004F9DFF8E8A08DF81040EF028DF8134036
:1020B00003A950460397FEF7C3FB0B210020FEF750
:1020C00048FE8DF804408DF8056000978DF80650A5
:1020D0006846FEF7EFFA28278DF808708DF809504A
:1020E0008DF80A408DF80B5002A8FEF7DEF88DF847
:1020F00010404FF480588DF8134003A95046CDF896
:102100000C80FEF79DFB0C210020FEF722FE8DF8CF
:1021100004408DF80560CDF800808DF806506846C3
:10212000FEF7C8FA8DF808708DF809508DF80A404E
:102130008DF80B5002A8FEF7B8F88DF810402F026A
:102140008DF8134003A912480397FEF779FB082185
:102150000220FEF7FEFD8DF804408DF80560009723
:102160008DF806506846FEF7A5FA8DF808908DF8B0
:1021700009508DF80A408DF80B5002A8FEF795F82B
:1021800006B0BDE8F08700000004024000000240F5
:102190000008024070B5064688B001210220FEF713
:1021A00000FD01211020FEF724FD6D4D07220921BD
:1021B0002846FEF7B5FB07220A212846FEF7B0FBAA
:1021C00000248DF8164001208DF8170002218DF8AB
:1021D00014104FF4C06004908DF8151004A928461F
:1021E000FEF72EFB5F4D01212846FFF788FBADF877
:1021F00008400C20ADF80A00ADF80440ADF80640E8
:10220000ADF818402815ADF81A00ADF81E4000963C
:10221000ADF80C40ADF81C4069462846FFF7E7FAD8
:1022200006A92846FFF745FB01212846FFF755FB85
:1022300008B070BD0020704770B54A4D0446C1B269
:102240002846FFF770FB80212846FFF7FDFB00289A
:10225000F9D0204670BD434801888906FCD58088A6
:10226000C0F30800704770B53E4D044680212846F3
:10227000FFF7EAFB0028F9D0A1B22846FFF753FB8D
:10228000204670BD10B538A002F080FF354C2021EB
:102290002046FFF7D9FB0028F9D02046FFF747FB7F
:1022A000C0B210BD10B539A002F070FF2D4C202136
:1022B0002046FFF7C9FB0028F9D02046FFF737FB7F
:1022C00001463AA002F062FF2046FFF730FBC0B2A1
:1022D00010BD10B537A002F059FF224C2021204636
:1022E000FFF7B2FB0028F9D02046FFF720FBA0F152
:1022F000300137A002F04AFF2046FFF718FB3038C4
:1023000010BD10B50446014686B033A001E0214659
:1023100038A002F03BFF694641A003F06FF8694620
:1023200040A002F033FF2146684603F0B3F90028CD
:10233000EDD106B010BD38B5044601463BA001E022
:10234000214641A002F022FF69464AA003F056F858
:102350001FA0009902F01AFF009AA242F0D138BDE6
:1023600000000240001001400D0A70726573732076
:10237000616E79206B657920746F20636F6E74696C
:102380006E75652E2E2E0D0A0D0A0000706C6561AB
:10239000736520656E746572206120636861726187
:1023A000637465722E2E2E0D0A00000025630D0A3F
:1023B00000000000706C6561736520656E74657265
:1023C00020612064696769742E2E2E0D0A000000BA
:1023D00025640D0A00000000507265737320257398
:1023E00020746F20436F6E74696E75652E2E2E20DB
:1023F0003A000000496E76616C696420696E707500
:10240000742C20707265737320257320746F2043C1
:102410006F6E74696E75652E2E2E203A00000000D6
:102420002573000025730D0A0000000050726573CB
:102430007320256420746F20436F6E74696E756518
:102440002E2E2E203A000000496E76616C696420C1
:10245000696E7075742C207072657373202564200A
:10246000746F20436F6E74696E75652E2E2E203A40
:1024700000000000256400001CB501210420FEF7C7
:10248000AEFB4FF47070009002208DF80400032022
:102490008DF8050000208DF80600504C8DF80700DF
:1024A00069462046FEF7CCF9022206212046FEF7B7
:1024B00037FA022207212046FEF732FA02220821CB
:1024C0002046FEF72DFA022209212046FEF728FABF
:1024D0001CBDF0B589B040F2E73006900320ADF89E
:1024E000140000263E4FADF81C60ADF8166005A93B
:1024F0003846FEF7E3FC60203A4DADF800000124B9
:10250000ADF8024028880290ADF80C606946384664
:10251000FEF756FD08213846FEF793FEADF802405F
:102520006888029069463846FEF776FD08213846ED
:10253000FEF78DFEADF80240A88802906946384645
:10254000FEF7A6FD08213846FEF78BFEADF80240E7
:10255000E888029069463846FEF7D4FD08213846DF
:10256000FEF785FE01213846FEF706FD01213846BB
:10257000FEF71CFD09B0F0BD10B5FFF77DFFBDE80B
:102580001040A6E718490968884200DD084649421C
:10259000884200DA0846124A00233432111D00280E
:1025A00002DB10600B6070471360404208607047A8
:1025B0000D490968884200DD08464942884200DA30
:1025C0000846074B00223C33191D002802DB1A6025
:1025D00008607047404218600A607047000402407B
:1025E00000080040B40000202400002030B58BB06B
:1025F00001210220FEF7F3FA4020059002208DF819
:10260000180003218DF8191000248DF81A40354D5B
:102610008DF81B0005A92846FEF712F902220621B3
:102620002846FEF77DF9952008908B20ADF81C0018
:102630002D4DADF82440ADF81E4007A92846FEF701
:102640003DFC6020ADF800000120ADF802000294CE
:10265000ADF80C4069462846FEF7B2FC0821284632
:10266000FEF7EFFD01212846FEF786FC01212846F2
:10267000FEF79CFC0BB030BD2DE9F04105461B492F
:102680008C2068430860184E95202C36306000245A
:10269000154FA04634370CE03068401CC008386045
:1026A0004620FFF730FCC7F800804620FFF72BFCE0
:1026B000641CAC42F0DBBDE8F0810B4A10B52C3253
:1026C0001368094C5B1C9B0834342360084B93FB54
:1026D000F1F18C2391FBF3F1491E1160034908606D
:1026E00010BD00000000024000040040BC000020BB
:1026F00000BD01057CB501210920FEF770FA02201A
:102700008DF8040001208DF8070048F203002E4CDC
:10271000009069462046FEF793F808212B4D009162
:1027200069462846FEF78CF8022200212046FEF773
:10273000F7F8022201212046FEF7F2F801220F21CC
:102740002046FEF7EDF8012203212846FEF7E8F8BF
:102750001F4C4FF0FF3529462046FEF7F3FB294674
:102760004FF080452846FEF7EDFB022300220321AF
:102770002046FEF7C5FF00231A4603212846FEF730
:10278000BFFF01212046FEF711FC01212846FEF77C
:102790000DFC7CBD0E482430006870474FF080402F
:1027A000406A70470A4900202431086070474FF0A2
:1027B0008041002048627047054924310860704715
:1027C0004FF0804148627047000002400004024020
:1027D000000C004070B501218CB00802FEF709FA28
:1027E000BC20032500908DF8045000248DF807408C
:1027F00069463648FEF724F8354E8DF804500095AA
:102800008DF8074069463046FEF71AF88DF80450F7
:102810003020304D00908DF8074069462846FEF77D
:102820000FF84FF48030CDE908404FF47060CDE9E7
:102830000A4008A8FDF7C3FD8DF80C4002948DF8FE
:102840000D40059406940120234C8DF81C0002A92C
:102850002046FDF789FD012240F205212046FDF7C3
:10286000E9FE01212046FDF7BFFDA1143046FEF729
:102870004AF861143046FEF746F84FF4804130467E
:10288000FEF741F84FF400413046FEF73CF8402196
:102890002846FEF738F880212846FEF734F80CB0B9
:1028A00070BD10B5134604460122FDF7D0FD204649
:1028B000FDF707FE02212046FDF7C5FE0028F9D0EE
:1028C0002046BDE81040FDF72EBE0000000002408B
:1028D0000004024000080240002001402DE9F05FA2
:1028E000AE4D042209212846FFF7DBFFAC4C042241
:1028F0000521E0602846FFF7D4FF2061042208216B
:102900002846FFF7CEFF6061042207212846FFF723
:10291000C8FFA06104220F212846FFF7C2FFE06133
:1029200004220E212846FFF7BCFF2062FFF7D5FAEC
:102930009C4E83464FF4805949463046FDF7E1FFEF
:10294000DFF86482802147464046FDF7DAFF5946AA
:102950003C20FFF7EAFA042209212846FFF7A1FFED
:10296000E1680422401AE06005212846FFF799FF3C
:102970002169401A206149463046FDF7C4FF802195
:102980003846FDF7C0FFE0680027002800DAE7605E
:102990002069002800DA27615946C820FFF7C5FAE8
:1029A0004FF4005A5146B1463046FDF7AAFF402188
:1029B00046464046FDF7A5FF59464FF4AA70FFF77B
:1029C000B4FA042208212846FFF76BFF616904224C
:1029D000401A606107212846FFF763FFA169401A8A
:1029E000A06151464846FDF78EFF40213046FDF775
:1029F0008AFF6069002800DA6761A069002800DAB0
:102A0000A761E26820684FF47A71424392FBF1F2C9
:102A1000E2602269424392FBF1F222616269424321
:102A200092FBF1F26261A269424392FBF1F0A06174
:102A3000BDE8F09F2DE9F047FFF74FFA574D81466B
:102A400004220F212846FFF72CFF554C04220E21AB
:102A5000E0612846FFF725FF524F4FF48046206281
:102A600031463846FDF74DFF4FF4004841463846A1
:102A7000FDF747FF49464FF4AA70FFF756FA0422C4
:102A80000F212846FFF70DFFE1690422401AE0619B
:102A90000E212846FFF705FF216A401A20623146C1
:102AA0003846FDF730FF41463846FDF72CFFE16917
:102AB0000020002900DAE061216A002900DA2062A2
:102AC000E26920684FF47A71424392FBF1F2E261CD
:102AD000226A424392FBF1F02062BDE8F0872DE9C3
:102AE000F04128252E4E00202C4F0446706204220F
:102AF00011463846FFF7D5FE716A641C08447062BF
:102B0000AC42F4DB4CF2503191FBF5F0726A504369
:102B1000264A104490FBF1F0C11700EB5170C01031
:102B20007062B16A0844B062BDE8F08110B5042259
:102B300003211A48FFF7B5FE194C606004F0C9F98B
:102B40009FED1B1B53EC112B04F03CF804F092F9A1
:102B5000A06010BD10B5FFF7E9FF114841F65831EC
:102B60008068884218DA04211348FDF7CAFE0E4C2B
:102B70004FF480512046FDF7C4FEA1150F48FDF724
:102B8000C0FE61152046FDF7BCFEBDE810404FF4C5
:102B90007A71C820FFF791BD10BD000000200140F0
:102BA000C0000020000402400008024008136DFA33
:102BB000AC1C5A643BDFD33F000C024000000240D3
:102BC0000D460646FC4FDFF8F4834FF47A79FFF7A1
:102BD00084F90446FFF782FE3868301AFFF7D2FC0A
:102BE000D8F80000281AFFF7E3FC21464846FFF713
:102BF0009CF9ECE7F04810B50268F148F14C4FF44D
:102C00008051036820469A4202DDFDF77AFE01E01A
:102C1000FDF779FEEC48ED49ED4A00680968884205
:102C20004FF00401104602DDFDF76BFE01E0FDF7F9
:102C30006AFEE8484FF400710268E7480068824283
:102C4000204602DDFDF75DFE01E0FDF75CFEDB489E
:102C50004FF480710268E1480368E1489A4203DD5D
:102C6000BDE81040FDF74DBEBDE81040FDF74BBE7E
:102C700070B50D460446FFF79AFDFFF793FD204619
:102C8000FFF780FC2046FFF793FC2846FFF73BF94F
:102C90000020FFF777FC0020FFF78AFC6420FFF795
:102CA00032F9FFF777FD0446FFF778FD201A70BD73
:102CB0001FB5CC490020CC4A087001211170CB49C6
:102CC0004FF0000BD94608700120CDE900B0C8488C
:102CD000CDF808B0DA460168C6485D465F46D8467A
:102CE0005C460160C448C54A0199006812684143C6
:102CF0008E1ABBF1000F40D186423EDCC0494FF036
:102D0000010BC04A81F800B000211170BE4981F862
:102D100000B02DB9022C03D0032C01D0042C26D1F5
:102D2000BA4890ED000AB8EEC00A01F016F8BDEE00
:102D3000C00A10EE100A00B20390B54890ED000AE8
:102D400001F00BF8BDEEC00A039A10EE100A01B2B2
:102D5000304601F0D8F800EE100AAE48B8EEC00ACE
:102D6000D0ED000AB4EEE00AF1EE10FA01D2A0486C
:102D700000E0A64801689F480160B9F1000F0BD13F
:102D80009D48006800EB4000C11700EB9170B6EB66
:102D9000A00F01DC4FF0010939EA0A0002D098497E
:102DA000012008700098B0BB9348006800EBD07019
:102DB000B6EB600F2FDC012000907F48804900684F
:102DC0000968884205DC7D488449006809688842B2
:102DD00000DD01257C487D4900680968884200DDE6
:102DE00001277C487C4900680968884201DD4FF072
:102DF0000108FFF785F800F00304641C012C0ED0D5
:102E0000022C0FD0032C10D0042CF2D105EA0700BD
:102E100010EA080FEDD0BAF1000F0AD013E0002D30
:102E2000E7D1F8E7002FE4D1F5E7B8F1000FE0D1E2
:102E3000F1E771480068C11700EB9170B6EBA00F85
:102E400005DC4FF0010A15B16D49002008700298A9
:102E500008B9002E0ADD58484FF4FA61006888422C
:102E600004DC5648006888427FF73CAF01984FF475
:102E70007A71401C0190C820FFF71FFC3DB16648E5
:102E80000268664801686648006800F079FE022C16
:102E900004D0032C04D0042C04D00AE0614802E0E2
:102EA000614800E0614890ED000AB8EEC00A00F009
:102EB000CDFD4FF0000BD946DA46CDF800B05D46A7
:102EC0005F46D846CDF808B00CE72DE9F05FDFF893
:102ED00060C15848DFF86081DCF80010FC2701EB86
:102EE000410300EB0312D8F80000B9463E4652F801
:102EF00020403D4602EB80020B2900DA176B0B28BD
:102F000001DAD2F80490002801DD52F8306C002973
:102F100001DD52F8045CDFF824A1E3460AEB03115B
:102F200051F8200001F05EFEDFF8148158B9601EF0
:102F3000874208D143A002F029F94E2188F80010F9
:102F40000520BDE8F09FDBF80000DFF8ECA000EB07
:102F500040013A485F4600EB0111DAF8000051F8F1
:102F6000200001F042FE50B9611E894507D139A009
:102F700002F00CF9452188F800100620E1E73868D6
:102F8000DFF8B89000EB400109EB0110DAF800100F
:102F9000BB46574650F8210001F02AFE50B9601E8A
:102FA000864267D12FA002F0F1F8532188F8001073
:102FB0000720C6E75EE00000CC000020D000002023
:102FC0008C00002000080240D40000209400002063
:102FD000000C0240D8000020980000209000002043
:102FE000000002401E0000201F00002020000020E2
:102FF0003C000020F40000202C0000206C01002088
:103000001C000020880000201D000020400000203F
:10301000EC0000203801002054000020480000206F
:10302000440000205C0000206000002064000020BC
:1030300014000020D4030020100000209401002080
:10304000740000205455524E2046524F4E54200AD0
:103050000D0000005455524E205249474854200A52
:103060000D0000005455524E204241434B200A0DA2
:1030700000000000DBF8000000EB400109EB01104C
:10308000396850F8210001F0B6FD50B9641EA54220
:1030900007D1F7A002F07AF8572188F8001008202D
:1030A0004FE7F6A002F072F800204AE72DE9F04160
:1030B000F54F002606EB4600002407EB001555F8F7
:1030C000240001F09BFD38BB55F824000B2E40F086
:1030D0000F0045F8240005DA05EB8400016B41F090
:1030E00004010163002E06DD05EB840050F8301D5D
:1030F00041F0010101600B2C05DA05EB8400416809
:1031000041F008014160002C06DD05EB840050F819
:10311000041D41F002010160641C0C2CCFDB761C05
:103120000C2EC7DBBDE8F0812DE9F04FE5B0D74CA0
:10313000D74D4FF4C871684602F085FA052000901B
:103140000026D4482E604E2126600170FFF72FFB29
:10315000FFF728FBFFF7AAFF01F068F84FF0FC0B20
:10316000DA46D9465F4601F0FBFD0024A7E0C74BD5
:10317000C948DFF81CC31A6802EB420100EB0111D9
:10318000DCF800000B2A51F8205003DA01EB80082C
:10319000D8F830B00B2803DA01EB8008D8F804A087
:1031A000002803DD01EB800C5CF8309C9846002A77
:1031B00003DD01EB800050F8047CB8A001F0E6FFCD
:1031C000D8F8000000EB4001AF4800EB0111B04817
:1031D000006851F8200001F005FD40B9AD480078C5
:1031E0004E2804D1691E8B4501D1AEA017E0A74837
:1031F000DFF89C82006800EB4001A34800EB01115E
:10320000D8F8000051F8200001F0EFFC70B9A14897
:10321000007845280AD1691E8A4507D1A5A001F08A
:10322000B5FFD8F80010641C491C39E097480068C5
:1032300000EB4001944800EB0111D8F8000051F870
:10324000200001F0D5FC78B99248007853280BD1C2
:10325000691E894508D19BA001F098FF8B48641C2A
:103260000168491E01602AE08848006800EB4001BF
:10327000854800EB0111D8F8000051F8200001F05A
:10328000BAFC80B98348007857280CD16D1EAF4234
:1032900009D190A001F07AFFD8F80010641C491EF3
:1032A000C8F800100BE08FA001F070FF934840F8C1
:1032B00026400024761CFFF708FE4DF8260001F09A
:1032C000A3FC00283FF453AF8C4D6F4645F82640D1
:1032D0000024BA4657F82430A94655F82420214640
:1032E00087A001F053FF641C072CF2DB8DA001F0D6
:1032F0004DFF31468EA001F049FF002425460126EE
:103300008E4FDFF83C8241E000B9012521468DA0B7
:1033100001F03CFF59F824108EA001F037FF5AF855
:10332000241092A001F032FF5AF82400052806D09C
:1033300006280CD0072812D0082818D01EE000F06C
:103340000DFE3E7088F8006001F0D0FB16E000F042
:1033500005FE3E7088F8006001F0E2FB0EE000F030
:10336000FDFD3E7088F8006001F0F4FB06E000F01F
:10337000F5FD3E7088F8006001F004FC82A001F0C9
:1033800005FF59F8240000F03BFE641C59F82400A6
:1033900008B1002DB8D080A001F0F8FE65B0BDE8FE
:1033A000F08F70B5394838493A4C006800EB40005E
:1033B00001EB00103649096850F8215020784E285A
:1033C00003D1284601F00EFCA0B92078452803D18E
:1033D000284601F00AFC68B92078532803D1284612
:1033E00001F006FC30B92078572805D1284601F0B5
:1033F00002FC08B1012070BD002070BD2DE9F04F26
:1034000085B000F0ABFD66490120002508706549D4
:1034100081462C460D70644908704949087063491B
:103420000D7063490D704549087000950020CDE985
:10343000015003900490FFF739FE00F0F7FE01F011
:103440008FFCDFF84CB0DFF844A01249CBF80050F5
:103450004E20CAF800500870FFF7A9F9FFF7A2F94B
:1034600054485549DFF85481006808607CE2000048
:103470005455524E204C4546540A0D00676F742037
:1034800068657265200A0D00940100201400002078
:103490001000002074000020D40300206C6F6F70B7
:1034A0000A0D00004D6F76696E67206E6F7274684A
:1034B0000A0D00004D6F76696E6720656173740AAE
:1034C0000D0000004D6F76696E6720736F7574682C
:1034D0000A0D00004D6F76696E6720776573740A78
:1034E0000D000000656C73652073746F72696E6700
:1034F0002064697374616E63650A0D001406002010
:10350000496E6465783A20256420446973743A20D2
:10351000256420446972656374696F6E3A2025647E
:10352000200A0D0066696E69736865640A0D000003
:10353000496E6465782025640A0D00002000002093
:103540001D000020696E646578203A202564200AF9
:103550000D00000064697374616E636520746F20F0
:103560006D6F76653A202564200A0D0064697265E6
:103570006374696F6E20746F206D6F766520696E5D
:103580003A202564200A0D006D6F766520666F7203
:10359000776172640A0D0000646F6E650A0D0000A9
:1035A0001C00002088000020890000201E00002050
:1035B0001F00002034000020F400002070000020D4
:1035C000FE49FF4A0968126809FB01F0841A009855
:1035D00010BB8C4226DCFB4A01200090FA4B107095
:1035E00000221A70F94A1070F94800784E2806D067
:1035F000452808D053280AD057280ED012E0DAF810
:103600000020521C06E0DBF80020521C08E0DAF82B
:103610000020521ECAF8002004E0DBF80020521EF1
:10362000CBF80020019848B901EB4100C21700EB2C
:103630009270B4EBA00F01DC0120019002980028E9
:103640007ED101EBD170B4EB600F79DC01200290E8
:10365000DAF80000564600EB4001DE485D4600EB1C
:103660000110DBF8001050F8210001F0BBFA10B196
:103670004FF4FA7709E0306800EB4001D64800EBE0
:103680000110296800EB8100076B3068B24600EB3F
:103690004001D04800EB0110296850F8210001F0EA
:1036A000A4FA10B14FF4FA760AE0DAF8000000EB61
:1036B0004001C94800EB0110296800EB8100466811
:1036C000DAF80000AB4600EB4001C24800EB011104
:1036D000286851F8200001F08BFA10B14FF4FA7508
:1036E0000CE0DAF8000000EB4001BB4800EB0111F0
:1036F000DBF8000001EB800050F8305CDAF80000E5
:1037000000EB4001B34800EB0111DBF8000051F879
:10371000200001F070FA10B14FF4FA700CE0DAF802
:10372000000000EB4001AC4800EB0111DBF80000A9
:1037300001EB800050F8040CB74207DAAF4200E01A
:103740001DE003DA874201DA052016E0BE4205DA01
:10375000AE4203DA864201DA06200EE0B54205DA0F
:10376000BD4203DA854201DA072006E0B04209DAF9
:10377000A84207DAB84205DA0820C8F80000039822
:10378000E8B390E0924D28784E280ED1DAF8000088
:1037900000EB40018F4800EB0111DBF8000051F80D
:1037A000200001F01FFA0028CED0287845280ED13D
:1037B000DAF8000000EB4001864800EB0111DBF86D
:1037C000000051F8200001F010FA0028C4D0287839
:1037D00053280ED1DAF8000000EB40017D4800EBE1
:1037E0000111DBF8000051F8200001F001FA002877
:1037F000BAD02878572810D1DAF8000000E042E06B
:1038000000EB4001734800EB0111DBF8000051F8B8
:10381000200001F0F0F90028AED0DAF800006D4D7C
:1038200000EB4000DBF8001005EB001057465E4649
:1038300050F8210001F0D6F9002885D038683168A9
:1038400000EB400005EB001050F8210001F0CDF92D
:10385000002881D03868316800EB400005EB00108B
:1038600050F8210001F0C4F90028C1D0386831684F
:1038700000EB400005EB001050F8210001F0BBF90F
:103880000028C9D07BE74D480068C11700EB917054
:10389000B4EBA00F07DC01200390FFF782FD10B10D
:1038A00048490020087000F0A5FC58B34B4E96ED37
:1038B000000AB8EEC00A00F050FABDEEC00A10EEE1
:1038C000100A05B2464890ED000A00F046FABDEE37
:1038D000C00A2A4610EE100A01B2204600F013FB7F
:1038E00000EE100A3F48B8EEC00AD0ED000AB4EE70
:1038F000E00AF1EE10FA05D331683B480160049804
:1039000018B104E039480168F7E7002C09DD3848B0
:10391000016840F6C410814203DC364909688142DF
:1039200022DD09F101094FF47A71C820FEF7C5FEC6
:10393000D8F80000052806D0062807D0072808D0A8
:10394000082809D00AE001F0D1F807E001F0E8F812
:1039500004E001F0FFF801E001F014F9002000900C
:10396000019002900390049001F04EF900283FF47A
:1039700027AE14494FF000081B4F81F8008050E03B
:103980000E49164E096896ED000A09FB01F00C4934
:10399000B8EEC00A0968441A00F0DFF9BDEEC00AAB
:1039A00010EE100A05B20E4890ED000A00F0D5F9AD
:1039B000BDEEC00A10EE100A01B21DE02C0000207E
:1039C0006C0100201C000020880000201D00002049
:1039D0007400002094010020D40300204000002047
:1039E000EC00002038010020F4000020340000200A
:1039F000CC000020D00000202A46204600F083FAA8
:103A000000EE100A0E48B8EEC00AD0ED000AB4EE7F
:103A1000E00AF1EE10FA02D20A48006800E03068CD
:103A20003860002CACDC44460020C7F80080FEF76C
:103A3000A9FD0020FEF7BCFD0348047005B0AEE40C
:103A4000380100203C0000201D0000202DE9F05F1F
:103A50003F494FF000092DED088BF0EE409A81F8B8
:103A60000090DFF8F0A0DFF8F0B03C49DAF8007021
:103A7000DBF80060C1F80090FEF742FA0546DFF877
:103A8000E080384CFEF73CFA2168401B8842F9D3AD
:103A9000DA46354DDFF8D4B09FED35AB9FED36BB40
:103AA0002C480068C01B00EE100AB8EEC00A00F0F7
:103AB0009FFADAF80000B0EE408A801B00EE100A90
:103AC000B8EEC00A00F094FA38EE009AB0EE690A37
:103AD00000F08EFA10EE100A03F010FB41EC180B08
:103AE000DBF8000003F00AFB53EC1A2B03F008FA92
:103AF00053EC182B03F004FA53EC1B2B03F062F881
:103B000003F02EF800EE100A00F05BFAB4EEC09A53
:103B1000F1EE10FA09D2F5EEC09AD8F80000F1EEF5
:103B200010FA00D340422860BAE7C5F80090FEF7CB
:103B3000E7F90546FEF7E4F92168401B8842F9D30E
:103B4000034801210170BDEC088BBDE8F09F000027
:103B50001C0000204C01002050010020F400002037
:103B60003800002058000020F800002084000020C9
:103B70001F85EB51B81E0940000000000080664020
:103B80002DE9F05F8846824620482149DFF884B05D
:103B9000D0F800900968016001201F498BF80000EF
:103BA000002017460870FEF7ABF906464FF47A740A
:103BB00013E0FEF792F9194905460968AAEB0100DE
:103BC000FEF7E0FC16490968A8EB0100FEF7F0FCDF
:103BD000FEF783F9401BA042FAD3FEF791F9801B50
:103BE000B842E6D30F480068FEF7EAFD0E480068C9
:103BF000FEF7E2FD05490020C1F8009006498BF868
:103C0000000001200870BDE8F09F000024000020A3
:103C1000280000201C0000201D000020CC000020F7
:103C2000D00000204C0100205001002030B5FD489C
:103C3000FE4C0268FC480368FD48FE499A42006851
:103C4000096803DD884201DD851AA5609A4201DD1D
:103C5000981A04E0884201DD401A00E00020A060CC
:103C600030BD70B5F14CF14D803CD4E91C104218C8
:103C7000401AC4E90420F0492B69096891FBF3F16B
:103C8000EE4B1B780BB1084603E0ED4B1B7803B9F4
:103C9000084400EE102AD4ED000AB8EEC00A30EE57
:103CA000C00AD4ED080A30EE200A84ED080A00EEBE
:103CB000100AD4ED010AE348B8EEC00A30EEC00A9B
:103CC000D4ED090A30EE200A84ED090A007878B1B3
:103CD000FFF7ACFFD5E9020190FBF1F000EE100A0E
:103CE000D4ED090AB8EEC00A30EE800A84ED090A64
:103CF00094ED080AD4ED0E0A94ED0A1AD4ED0F1AC9
:103D000060EE800A30EE411A04F1280341EE810A88
:103D1000FDEEE00A10EE902A2263D4ED090A94ED3C
:103D2000101AD4ED0B1A94ED112A21EE201A70EE20
:103D3000E11A02EE211ABDEEC11A11EE101A6163EA
:103D4000501A83EC020A1144C4E91601FEF71AFC6A
:103D5000E06DBDE87040FEF72BBCBB48D0ED000A1B
:103D6000BA48F8EEE00A60EE200A90ED000AB84882
:103D7000B8EEC00A90ED001A20EE800AC0EE010AEB
:103D80009FEDB41A80EE810A7047A84900B58039CA
:103D9000B0EE001A91ED020AD1ED000AB8EEC02A89
:103DA000DFEDAC1AF4EEC20AF1EE10FA17D291ED83
:103DB000120A20EE010AFFF7D0FFC0EE210A91EDB2
:103DC000000A70EE800AC1ED000A91ED020AB8EE19
:103DD000C01AF4EEC10AF1EE10FA1EDC21E0B8EED2
:103DE000C00AF4EEC00AF1EE10FA1ADD91ED130AE2
:103DF00020EE010AFFF7B1FFC0EE210A91ED000AA3
:103E000070EE600AC1ED000A91ED020AB8EEC01A28
:103E1000F4EEC10AF1EE10FA03D2B8EEC00A81ED59
:103E2000000A91ED030AD1ED010AB8EEC01AF4EED2
:103E3000C10AF1EE10FA11D291ED141A70EE810A56
:103E4000B8EEC01AC1ED010AF4EEC10AF1EE10FAA3
:103E500003DDB8EEC00A81ED010A00BDB8EEC01A5C
:103E6000F4EEC10AF1EE10FAF7DD91ED151A70EEDD
:103E7000C10AB8EEC01AC1ED010AF4EEC10AF1EEB2
:103E800010FAE6D300BD70B5FEF788FC674C803CA5
:103E90002066FEF77FFC226EA16E511A2167E36E49
:103EA000C4E91A20C31ACD1805EBD5756D10C4E905
:103EB0001D3511441844C4E9181008445B4900EB4F
:103EC000D07040100860E06F401BE06770BD10B517
:103ED000FFF7D9FFFFF759FFBDE81040C1E65C4886
:103EE000D0ED000A584820EE201A90ED000A5748FD
:103EF000B8EEC00AC1EE000A90ED000AB8EEC01A92
:103F000080EE810A704700B5002901DA494209B202
:103F1000002A01DA524212B2002801DC4FF00100FF
:103F200000EE100AB8EEC00AFFF7D9FF11FB01F04E
:103F300002FB12006421484300EE900AB8EEE01A3A
:103F4000C1EE000AB5EE000A20EE800ABDEEC00AFE
:103F500010EE100A002800DA404200BD10B53948C2
:103F6000002404703C4804703C4804702046FEF76E
:103F700009FB0020FEF71CFB2C489FED390A803816
:103F80002A4980ED060A80ED070A80ED000A80EDDF
:103F9000010A8460C46080ED080A80ED090A80EDA2
:103FA0000A0A80ED0B0A8466C466046644660C60E7
:103FB0004C608465C465FEF7FAFBBDE81040FEF76F
:103FC000F1BB2148D0ED000A2048F8EEE00A60EE8F
:103FD000200A90ED000A1E48B8EEC00A90ED001AC3
:103FE00060EE800A80EE810A70479FED1D0A7047DF
:103FF000B5EEC00AF1EE10FA01D2B1EE400A7047F8
:104000002DE9F05F0446FFF7A9FFDFF838C0012073
:1040100011498CF8000000250D701049DFF844901C
:10402000087021E0D40000209C0000206C010020DA
:10403000D8000020A0000020E40000208A0000201A
:104040008B0000201C000020780000207C00002055
:10405000800000200000C842880000208900002065
:10406000000000001D0000202E4989F80000DFF844
:10407000BCA00D702C492F4B2F4F0D702C498AF886
:1040800000002E4E51F8240088466043D8673868F7
:1040900003F1800B98602FE029480321006890FB12
:1040A000F1F0D96F884201DD8CF8005096ED000ADE
:1040B000B8EEC00AFFF751FEBDEEC00A10EE100ABE
:1040C00093ED000A02B2FFF748FEBDEEC00A10EE03
:1040D000100A01B2D86FFFF716FF00EE100AD3EDF9
:1040E000130AB8EEC00AB4EEE00AF1EE10FA01D2FB
:1040F000386800E030689860DBE90010091A58F869
:10410000240060438142C7DB00209D60FEF73AFA3D
:104110000020FEF74DFA89F800508AF80050BDE8FB
:10412000F09F00001E0000201F0000202000002043
:10413000A4070020EC000020340000203000002004
:104140002C0000202DE9F047DFF898944FF09008FC
:104150000026002456EA040041D006EB460109EB94
:10416000011555F8240000F03DFD074655F82400E0
:1041700000F03BFD074455F8240000F039FD0744EA
:1041800055F8240000F037FD3844032827DB55F8A4
:1041900024000B2E40F02F0045F8240005DA05EB33
:1041A0008400016B41F0040101630B2C05DA05EB7F
:1041B0008400416841F008014160002E06DD05EBF6
:1041C000840050F8301D41F001010160002C06DD33
:1041D00005EB840050F8041D41F002010160641CED
:1041E0000C2CB7DB761C0C2EB3DBB8F10108AFD575
:1041F000BDE8F087FC480178FC484E29006806D0ED
:10420000452907D0532908D0572909D00AE00528A5
:104210000AD007E0062807D004E0072804D001E010
:10422000082801D001207047002070472DE9F04197
:10423000DFF8BC839026002505EB4500002408EB41
:104240000017052D01D0062D03D1052C08D0062C12
:1042500006D02946204600F031FD401C47F82400D6
:10426000641C0C2CEDDB6D1C0C2DE5DB761EE2D501
:10427000BDE8F081F0B5DC48DE4ADF490778DF4869
:104280001678DF4A0478DF480D781368D54903EBC8
:104290004302006801EB021202EB80014E2F32D084
:1042A000452F5BD0532F7DD0572F2BD16EB152F8B5
:1042B0002060002846F0080642F8206005DD51F82D
:1042C000046C46F0020641F8046C6DB152F82050BF
:1042D000002B45F0040542F8205005DD51F8305C14
:1042E00045F0010541F8305C002C0BD052F820401D
:1042F0000B2B44F0010442F8204003DA086B40F035
:1043000004000863F0BD5EB152F820600B2B46F04C
:10431000010642F8206003DA0B6B43F004030B63E1
:104320006DB152F82030002843F0080342F82030E5
:1043300005DD51F8043C43F0020341F8043C002C35
:10434000E0D052F820300B2843F0020342F820302E
:10435000D8DA486840F008004860F0BD5EB152F815
:1043600020600B2846F0020642F8206003DA4E680F
:1043700046F008064E605DB152F820500B2B45F018
:10438000010542F8205003DA0D6B45F004050D637A
:10439000002CE2D052F82040002B44F0040442F8F4
:1043A000204000E005E0D8DD51F8300D40F001007C
:1043B00029E06EB152F82060002B46F0040642F866
:1043C000206005DD51F8303C43F0010341F8303CFA
:1043D0005DB152F820300B2843F0020342F8203040
:1043E00003DA4B6843F008034B60002CB5D052F859
:1043F0002030002843F0080342F82030ADDD51F8AA
:10440000040D40F002000860F0BD2DE9FF5FFFF7EA
:10441000A5FD7D4900207D4A0870012111707C496D
:10442000DFF8E0B1764E08700090019002900390A2
:10443000CBF800000446824630606B484E214FF0B6
:1044400001095D460170FFF789FD306800EB40010E
:10445000644800EB0110296850F8210000F0CEFB01
:1044600090B93046006800EB40015E4800EB011057
:10447000DBF8001050F8212042F0100240F8212013
:1044800064480168491C016063486449DFF85C8145
:104490000068086088E26249624A0968126809FB9C
:1044A00001F0841A009808BB8C4225DC5E4A01208A
:1044B00000905E4B107000221A705D4A10704A48DE
:1044C00000784E2806D0452808D053280AD057280F
:1044D0000DD011E04A480268521C06E0DBF80020CB
:1044E000521C07E046480268521E026004E0DBF8F6
:1044F0000020521ECBF800200198D8B901EB4100F2
:10450000C21700EB9270B4EBA00F13DC01200190F6
:104510004848026848480068824202DD364A012065
:1045200010704648026846480068824202DD334AFD
:1045300001201070BAF1000F53D101EBD170B4EB30
:10454000600F4EDC3F4840494FF0010A006809689F
:10455000884205DC3D483E4900680968884202DD22
:10456000244901200870FFF785FE254D5E46DBF8E3
:104570000000296800F0A2FB411C286800EB400203
:104580001B4800EB0210326840F82210FFF74EFE85
:10459000286800EB4001134800EB0110316850F827
:1045A000210000F01FFB10B14FF4FA7709E02868F2
:1045B00000EB40010E4800EB0110316800EB810078
:1045C000076B2868B34600EB4001064800EB011179
:1045D000306851F8200000F008FBD8B34FF4FA76A9
:1045E00044E0A0E09401002074000020700000204E
:1045F000D40300206C0000206D0000206E0000201D
:1046000014000020100000201E0000201F000020C9
:1046100020000020180000203C000020F4000020B2
:104620002C0000206C0100201C00002088000020CD
:104630001D000020D400002094000020D80000209D
:1046400098000020CC0000208C000020D00000202A
:1046500090000020FFE7286800EB4001FE4800EBD7
:104660000111DBF8000001EB80004668FB480068A0
:1046700000EB4001FA4800EB0111DBF8000051F8B3
:10468000200000F0B5FA10B14FF4FA750CE0F348D1
:10469000006800EB4001F04800EB0111DBF800007E
:1046A00001EB800050F8305CEC48006800EB400102
:1046B000EB4800EB0111DBF8000051F8200000F09E
:1046C0009AFA10B14FF4FA700CE0E448006800EB7D
:1046D0004001E14800EB0111DBF8000001EB800034
:1046E00050F8040CB74205DAAF4203DA874201DA28
:1046F000052016E0BE4205DAAE4203DA864201DA50
:1047000006200EE0B54205DABD4203DA854201DA41
:10471000072006E0B04213DAA84211DAB8420FDAF5
:104720000820C8F80000CF4E306800EBD070B4EB22
:10473000600F01DC4FF0010ACB480078F0BB8CE041
:10474000CA4D28784E280DD1C448006800EB4001BE
:10475000C34800EB0111DBF8000051F8200000F025
:1047600041FA18B12878452802D00FE0052171E000
:10477000BA48006800EB4001B94800EB0111DBF8D2
:10478000000051F8200000F030FA18B128785328C2
:1047900002D00FE006215DE0B048006800EB400168
:1047A000AF4800EB0111DBF8000051F8200000F0E9
:1047B0001FFA20B12878572803D010E050E00721D5
:1047C00048E0A648006800EB4001A54800EB011155
:1047D000DBF8000051F8200000F00DFAC0B39F4F45
:1047E0009F4DDBF8001038685E4600EB400005EB9B
:1047F000001050F8210000F0F5F900283FF478AFE0
:104800003868316800EB400005EB001050F82100DB
:1048100000F0EBF900283FF473AF3868316800EB23
:10482000400005EB001050F8210000F0E1F90028ED
:104830003FF46EAF3868316800EB400005EB0010C4
:1048400050F8210000F0D7F900283FF469AF6AE77B
:10485000FFE70821C8F8001065E7FFF7CBFC58B365
:10486000834F97ED000AB8EEC00AFFF776FABDEE67
:10487000C00A10EE100A05B27E4890ED000AFFF75C
:104880006CFABDEEC00A2A4610EE100A01B22046AC
:10489000FFF739FB00EE100A7748B8EEC00AD0EDFA
:1048A000000AB4EEE00AF1EE10FA05D33968734855
:1048B0000160029818B10BE071480168F7E73068B1
:1048C000C11700EB9170B4EBA00F07DC0120029040
:1048D0006548007810B16B4900200870039808B94A
:1048E000002C09DD6848016840F6C410814203DCF1
:1048F00066490968814257DD09F101094FF47A716F
:10490000C820FDF7DAFE0020FDF73CFE0020FDF791
:104910004FFE524F524EDBF8001038685D4600EBF8
:10492000400006EB001050F8210000F067F978B95C
:104930003868296800EB400006EB001050F8212091
:1049400042F0100240F8212051480168491C0160E2
:10495000454D287838B14F4802684F4801684F48A4
:104960000068FFF70DF9D8F80000052806D00628E2
:1049700007D0072808D0082809D00AE000F0B6F8C8
:1049800007E000F0CDF804E000F0E4F801E000F00A
:10499000F9F800204249009001900290039028709D
:1049A000087040498246087000F02EF900283FF454
:1049B00072AD324D002C3ADD2A48006800EBD07110
:1049C000B4EB610F02DA2F4A0021117009FB00F1EC
:1049D000274F354897ED000A00680C1AB8EEC00A58
:1049E000FFF7BBF9BDEEC00A10EE100A06B221486F
:1049F00090ED000AFFF7B1F9BDEEC00A324610EEA5
:104A0000100A01B22046FFF77EFA00EE100A1A489B
:104A1000B8EEC00AD0ED000AB4EEE00AF1EE10FAEA
:104A200002D21748006800E038682860C2E70B4FE0
:104A30000B4EDBF8001038685C4600EB400006EBDC
:104A4000001050F8210000F0D9F878BB386800EB6E
:104A5000400006EB00102AE0D403002014000020E0
:104A6000940100202C0000206C0000207400002025
:104A700040000020EC00002038010020F40000205D
:104A80003C0000201C000020CC000020D0000020B2
:104A9000180000205400002048000020440000209E
:104AA0006D0000206E0000206C0100200AE02168EB
:104AB00050F8212042F0100240F8212009480168F6
:104AC000491C0160002420462C60FDF75BFD00209E
:104AD000FDF76EFD04480470FFF734FBBDE8FF5F8F
:104AE00000F03EB9180000201D00002010B5394C20
:104AF00020784E2811D0572804D0452804D05328B8
:104B000004D00AE0344802E0344800E0344890ED34
:104B1000000AB8EEC00AFEF799FF4E20207010BDC3
:104B200010B52C4C20784E2806D0572806D04528A2
:104B30000DD0532804D00AE0274802E0284800E0BE
:104B4000264890ED000AB8EEC00AFEF77FFF452028
:104B5000207010BD10B51F4C20784E2804D0572867
:104B600004D0452804D00AE01D4802E01B4800E0BC
:104B7000194890ED000AB8EEC00AFEF767FF53200F
:104B8000207010BD10B5134C20784E2806D0572841
:104B90000FD0452804D0532804D00AE00F4802E083
:104BA0000F4800E00C4890ED000AB8EEC00AFEF78E
:104BB0004DFF5720207010BD4E2806D0452805D047
:104BC000532804D0572803D1DCE78FE7A8E7C1E7D3
:104BD0007047000074000020600000205C0000208E
:104BE00064000020C0F300007047C0F3400070472D
:104BF000C0F380007047C0F3C0007047C0F30010DE
:104C00007047C0F34010704745480068052801D040
:104C1000062806D14349444A0968052903D00629D4
:104C200003D000207047052811D0D432136B43F015
:104C30000C031363136843F001031360D36A43F05A
:104C40000203D362D43A062901D1052813D002F514
:104C500098720629536843F009035360536B43F07D
:104C600004035363136843F002031360A2F59872C0
:104C700001D1062813D002F59C720529136843F070
:104C800003031360136B43F004031363536843F08F
:104C900008035360A2F59C7201D106280CD0D832CB
:104CA000106B40F004001063106840F001001060C9
:104CB000506B40F0080050630120704710B51A4A4D
:104CC00001EB410102EB0112184C52F8202004EBD9
:104CD0000111C2F3000301EB80010BB1FC2000E0E5
:104CE000086BC2F340030BB1FC2300E04B68C2F336
:104CF00080040CB1FC2401E051F8304CC2F3C00236
:104D00000AB1FC2101E051F8041C834200DA184684
:104D1000844200DA2046814200DA084610BD0000D5
:104D2000100000201400002094010020D403002073
:104D30002DE9F041484F0B2505EB4500002407EB1A
:104D4000001646A056F8241000F020FA641C0C2C23
:104D5000F7DB43A000F01AFA6D1EEDD5BDE8F08137
:104D60002DE9F05FDFF8FCA0DFF8ECB0DFF8F880A9
:104D70000B2606EB460700240BEB071555F824001D
:104D8000FFF730FF08B139A000E03AA000F0FEF9CB
:104D9000641C0C2CF2DB39A000F0F8F930A000F014
:104DA000F5F9DFF8DC90002455F82400FFF723FF25
:104DB00008B134A000E034A000F0E8F9D9F8000010
:104DC000864216D131480068844212D19AF8000018
:104DD0004E2806D0452806D0532806D0572806D09E
:104DE0001FE02BA00BE02BA009E02BA007E02BA0DD
:104DF00005E055F82400FFF704FF18B128A000F0E3
:104E0000C5F90EE055F82400FFF7F8FE002808EB7E
:104E1000071050F8241001D022A000E00FA000F0ED
:104E2000B5F9641C0C2CBFDB16A000F0AFF90CA088
:104E300000F0ACF9761E9CD500240CA000F0A6F979
:104E4000641C0C2CF9DB0DA000F0A0F9BDE8F05FAC
:104E500003A000F09BB900009401002025336400FA
:104E60000A0D000074000020D40300202B2D2D2DEE
:104E7000000000002B202020000000002B0000007C
:104E8000140000207C000000200000001000002022
:104E9000205E2000203E200020762000203C2000C4
:104EA000207820002E2530326400000030B52C4AD6
:104EB000106840F00E001060506840F00C00506028
:104EC000002002EB8001401CD1F810320C2843F086
:104ED0000103C1F81032F4DB002000EB400102EBCB
:104EE0000111401CCB6A0C2843F00203CB62F4DBB7
:104EF000002052F8201041F0040142F82010401C1C
:104F00000C28F6DB002000EB400102EB0111401CF5
:104F10000B680C2843F008030B60F4DB0A20114CEB
:104F2000002202EB4203002104EB0313052943F89E
:104F3000210001DA401E03E08D1F052D00D2401C28
:104F4000491C0C29F2DB052A01DA401E03E0911FFF
:104F5000052900D2401C521C0C2AE2DB30BD0000A7
:104F600094010020D40300200948804709480047E5
:104F7000FEE7FEE7FEE7FEE7FEE7FEE7FEE7FEE709
:104F8000FEE7FEE704480549054A064B7047000066
:104F9000A75000088901000848080020480E00209A
:104FA000480A0020480A0020F0B56C4A0020116829
:104FB00041F4803111604FF4A063116800F10100E9
:104FC00011F4003F01D19842F7D11068674E810378
:104FD000634CDFF890E1644DDFF894C140F205675F
:104FE00006F104002BD5216841F080512160DEF8E4
:104FF000001041F48041CEF80010016801600168A2
:1050000041F400410160016841F4A0510160356044
:10501000116841F08071116011688901FCD5CCF8EC
:105020000070016821F003010160016841F0020194
:1050300001600168C1F381010229FAD1F0BD116854
:105040004C4B19401160116841F001011160216859
:1050500041F080512160DEF8001041F48041CEF82B
:10506000001001680160016841F4004101600168BD
:1050700041F4A05101603560116841F08071116008
:1050800011688901FCD5CCF80070016821F003019A
:105090000160016841F0020101600168C1F3810112
:1050A0000229FAD1F0BD344810B5016841F470010D
:1050B00001602A48016841F0010101602B4A00218A
:1050C000121D116002682B4B1A400260031D2B4A0F
:1050D0001A60026822F480220260244808300160CD
:1050E000FFF762FF24494FF000608039086010BD6F
:1050F00070B51E4D2D1D2868214B224910F00C0063
:1051000004D05E10042803D0082803D00B601AE0F6
:105110000E6018E0154A1068C0F38054106800F063
:105120003F0014B1B6FBF0F001E0B3FBF0F0136800
:105130001268C3F388135843C2F30142521C520051
:10514000B0FBF2F0086028680E4AC0F30310121D8D
:10515000105C0A68C2400A6070BD0000003802405E
:1051600040380240007000401054000704380240EC
:10517000003C0240FFFFF6FE88ED00E01030002406
:105180000024F40080010020704700000FB404499F
:1051900010B503AA029800F043FD10BC5DF814FBA3
:1051A000AC00002070B5044685690068C10601D5D1
:1051B000302600E02026C00708D070BDD4E90121C8
:1051C00030469047206A00F1010020626D1EF5D53F
:1051D00070BD70B5044685690078C00708D170BD00
:1051E000D4E9012120209047206A00F101002062CB
:1051F0006D1EF5D570BD70B50C460546012A05D06B
:105200002878800600D5EA69002302E0012305E042
:105210005B1C934202D2E05C0028F9D1A869E61831
:10522000C01AA861286A184428622846FFF7BAFF06
:1052300004E0D5E9012114F8010B9047B442F8D3FA
:105240002846FFF7C6FF70BD2DE9F0410646002451
:1052500010687529314616A511D0AFF300800028DB
:1052600003DAC0F1000013A507E031688A0701D511
:1052700011A502E0490704D510A5012401E0AFF310
:10528000008000210A2306F1240707E0B0FBF3F2B7
:1052900003FB1200303078541046491C0028F5D129
:1052A00023462A463046BDE8F04100F037BA0000F8
:1052B000000000002D0000002B0000002000000076
:1052C0002DE9F05F894604464FF0000ADFF828B167
:1052D000FB44C0F820A02046E168884700287CD025
:1052E000252806D0D4E901219047206A401C20627D
:1052F000F1E700255F462046E168884720280646FA
:1053000008DB312E06D207EB060010F8200C08B19E
:105310000543F0E7A80701D525F00405C4F81CA053
:105320000027C4F818A02A2E09D0304601F0E5FB6A
:1053300038B304EB8708303EC8F8186019E059F814
:10534000041B204604EB87029161E1688847012F26
:10535000064618D1E069002820DA25F020051DE076
:10536000D8F8180000EB800006EB40003038C8F891
:1053700018002046E1688847064601F0BEFB002879
:10538000EED1012F0AD02E2E08D12046E1688847A1
:105390007F1C0646022F45F02005C4DBA0690028CB
:1053A00003DA404245F00105A061E80701D025F08D
:1053B000100596B1A6F14100192802D8203645F40F
:1053C00000654A463146204625604D46FAF736FFCD
:1053D00060B1012807D0ED1D00E009E025F00700CD
:1053E00000F1080977E705F1040974E7304679E729
:1053F000206ABDE8F09F0000B41F00000FB400B5A4
:1054000089B00BA86A46009003480A9900F028FC6E
:1054100009B05DF814FB0000B00000202DE9FF5F2B
:105420001D464FF0FF3B91464FF000085F46D5E91F
:105430000146A96901987F1C8847296A82468847E6
:105440000028F6D11AF101000CD0002E24F4C0641B
:1054500019DD600614D5BAF12B0F09D0BAF12D0F62
:105460000ED103E0584604B0BDE8F09F44F48064D8
:10547000A96901987F1C8847761E8246002E02DDAE
:10548000BAF1300F03D0B9F1000F26D032E0A9698C
:10549000761E01987F1C44F400748847002E8246D3
:1054A00005DDBAF1780F06D0BAF1580F03D0B9F183
:1054B000000F10D01EE0B9F1000F02D0B9F1100FAB
:1054C00018D1A969761E01987F1C24F400748847BE
:1054D0008246102002E0082000E00A20814609E010
:1054E000A96908FB0908761E01987F1C44F4007422
:1054F00088478246002E05DD4946504600F0A2FB53
:105500000028EDDAE96901988847A00502D46FF018
:105510000100A8E7E00727D1600614D5600502D591
:10552000C8F1000000E04046296801F104022A6049
:105530000968220501D5087016E0220701D5088008
:1055400012E0086010E0286800F10401296000689A
:10555000210502D580F8008006E0210702D5A0F8D9
:10556000008001E0C0F8008038467CE72DE9FF5F4D
:105570004FF000089946144646469169D2E901A7C2
:10558000DDF838B001988847054659EA0B0005D088
:1055900009E0A1690198761C88470546216A2846DA
:1055A00088470028F5D1681C03D05FEACA7005D08F
:1055B00015E04FF0FF3004B0BDE8F09F2068011DFA
:1055C0002160D0F800800AE05FEACA7001D108F8D3
:1055D000015BA1697F1E0198761C88470546002F54
:1055E0001ADD681C18D0B9F1000F0DD0E81705EBD3
:1055F000D060421120F01F0059F822102A1A012011
:1056000090400142E0D107E0BBF1000FDCD1284619
:10561000216A88470028D7D0E169019888470AF0B5
:10562000010050EA0B0002D1002188F80010A068A8
:10563000B84203DDBBF1000F03D017B16FF00100DA
:10564000B9E73046B7E74FF0000200B5134694467D
:105650009646203922BFA0E80C50A0E80C50B1F1CA
:105660002001BFF4F7AF090728BFA0E80C5048BFDE
:105670000CC05DF804EB890028BF40F8042B08BF7C
:10568000704748BF20F8022B11F0804F18BF00F878
:10569000012B70474FF0013C50F8042B51F8043BAC
:1056A0009A4221D1A2EB0C03934313EACC1317D1F6
:1056B00050F8042B51F8043B9A4215D1A2EB0C038D
:1056C000934313EACC130BD150F8042B51F8043B4D
:1056D0009A4209D1A2EB0C03934313EACC13DBD01B
:1056E0004FF00000704700BFD01A01BAB1FA81F143
:1056F00001F0180122FA01F0CB40C1F12001DBB228
:10570000C0B2C01A2CFA01F3D11A914311EAC311A5
:10571000E6D1704770477047704770472DE9F047F2
:105720000D4699469246044600F124080168880611
:1057300004D5E06921F01001216000E00120A842B9
:1057400002DDA0EB050700E00027A16907EB0502D9
:1057500002EB0900A1EB0000A0612078C00602D492
:105760002046FFF71FFD002608E0D4E901211AF8C2
:1057700006009047206A401C761C20624E45F4DBF0
:105780002078C0060AD52046FFF70CFD06E0D4E9D4
:10579000012130209047206A401C2062381EA7F16A
:1057A0000107F4DC07E0D4E9012118F8050090476F
:1057B000206A401C2062281EA5F10105F3DC20466A
:1057C000FFF707FD2078000602D50220BDE8F0872C
:1057D0000120FBE770472DE9FF4F0C461E464FF0B6
:1057E000FF378BB0D2E90001DDF860800A908A466D
:1057F000C1F30A5505B93D46002108464FF00000A7
:10580000BAF1000F00F4400005DA00EB80004FF41D
:10581000400101EA50004FEA9059B9F1010F00DD53
:10582000B9460A9850EA4A000ED044F61050A5F244
:10583000FF3545432F14B8F1000F1ED07542291EC5
:105840001EDDC9F100021CE0B8F1010F4FF00000AD
:1058500001D0302103E0F24305E02154401CB04266
:10586000FBDB30460022002121540B99C1F808804F
:10587000C1E900200FB0BDE8F08FBD1B6D1CDEE755
:105880004A4600DA694206A800F0AEFA06AB07CB3A
:1058900003AB07C350460A9900F05CFD8DE8070092
:1058A000A0F500501F3800900398002D09DD42F24A
:1058B0001F014A46084403A90390684600F0BBFF55
:1058C00008E0A0F500504A461F3803A90390684637
:1058D00000F0C5FF8DE807000004000C03D04FF076
:1058E000FF30410800E01046B8F1000F03D000225D
:1058F000009215461FE0751E06D400F0C1F902F1B2
:10590000300262556D1EF8D5B3460122084302D01D
:1059100000227F1C04E02078302801D100227F1E65
:10592000002A099787D01DE0112D07DA00F0A8F9A9
:10593000303262556D1C50EA0102F5D108430FD197
:105940000021681E05E0235C625C6354491C2254FC
:10595000401E8142F7DBAB46A81B401E099001E0C8
:10596000009848B1002004F80B000B98099AC0F881
:105970000880C0E9002B7DE711264FF000085AE7A8
:105980002DE9F04F88460446D21D22F0070191B060
:10599000D1E90001CDE90A0101F097F802460B9820
:1059A000C00F01D02D2007E02068810701D52B20F2
:1059B00002E0202101EAC000032A099001D0072A51
:1059C00005DB03464146204600F0B8F90FE1207898
:1059D000800601D5E06900E00620B8F1650F814638
:1059E00006D0B8F1660F18D0B8F1670F72D132E067
:1059F0000020B9F1110F009001DB112301E009F142
:105A000001030AAA01A90CA8FFF7E5FEDDE90C7065
:105A1000002609F10105834648E001204B4600902D
:105A20004FF000470AAA01A90CA8FFF7D4FEDDE950
:105A30000DB00C995D46002618B909F1010001EB83
:105A40000005B9EB050003D4C0F1FF3609F10105EB
:105A5000A5EB09002BE0B9F1010F01DA4FF00109C4
:105A60000020B9F1110F0090484601DD112300E03C
:105A700003460AAA01A90CA8FFF7ADFEDDE90C70E8
:105A80004D4600268346207800070AD4AB4500DA4D
:105A90005D4601A8012D04DD411911F8011C3029D2
:105AA00007D04F4502DA17F1040F04DA01208246CD
:105AB00010E06D1EEEE7002F02DCED1B3E4403E01C
:105AC000781CA84200DD0546A7EB060000F1010A9C
:105AD0004FF000472078000703D4AA4501DB4FF0C0
