:020000040800F2
:10000000700700202D2F0008511E0008531E000805
:10001000551E0008571E0008591E00080000000069
:100020000000000000000000000000005B1E00084F
:100030005D1E0008000000005F1E0008611E000831
:10004000472F0008472F0008472F0008472F0008B8
:10005000472F0008472F0008472F0008472F0008A8
:10006000472F0008472F0008472F0008472F000898
:10007000472F0008472F0008472F0008472F000888
:10008000472F0008472F0008472F0008472F000878
:10009000472F0008472F0008472F00087F1E000841
:1000A000472F0008472F0008472F0008472F000858
:1000B000472F0008472F0008472F0008472F000848
:1000C000472F0008472F0008472F0008472F000838
:1000D000472F0008472F0008472F0008472F000828
:1000E000C11E0008472F0008472F0008472F0008AF
:1000F000472F0008472F0008472F0008472F000808
:10010000472F0008472F0008472F0008472F0008F7
:10011000472F0008472F0008472F0008472F0008E7
:10012000472F0008472F0008472F0008472F0008D7
:10013000472F0008472F0008472F0008472F0008C7
:10014000472F0008472F0008472F0008472F0008B7
:10015000472F0008472F0008472F0008472F0008A7
:10016000472F0008472F0008472F0008472F000897
:10017000472F0008472F0008472F0008472F000887
:10018000472F0008472F000800F002F800F050F851
:100190000AA090E8000C82448344AAF10107DA45E2
:1001A00001D100F045F8AFF2090EBAE80F0013F0E4
:1001B000010F18BFFB1A43F001031847EC4300007E
:1001C0000C440000103A24BF78C878C1FAD852070E
:1001D00024BF30C830C144BF04680C6070470000C1
:1001E0000023002400250026103A28BF78C1FBD840
:1001F000520728BF30C148BF0B607047642903F025
:100200000580632903F09682732903F09B82002006
:1002100070471FB504F088F903F036FD0400002094
:10022000002103F03DFD401C60601FBD10B510BDF6
:1002300003F00EFB1146FFF7ECFF01F071FD03F038
:1002400011FD03B4FFF7F2FF03BC02F037F8000022
:100250002749084327490860704770B50F23C278C3
:10026000017801254FF0E026E2B1224A126802F43B
:10027000E062C2F5E062C2F30722C2F10404D34097
:100280004278A24084781C401B4B14432201CA547C
:10029000007800F01F018D40400906EB8000C0F897
:1002A000005170BD01F01F008540480906EB800039
:1002B000C0F8805170BD114A114001430D48001F24
:1002C000016070470B4A121D0029116801D00143DB
:1002D00000E08143116070474FF0E0210428086975
:1002E00003D020F004000861704740F00400FAE7F2
:1002F0000000FA050CED00E000E400E080FFFF1FC5
:1003000010B501210C02204600F07DFC2046BDE81E
:100310001040002100F077BC30B54268C44B0C7926
:100320001A400B6842EA0422134343608268C14BBF
:100330004D791A40D1E9034323438C6844EA4504CC
:10034000234313438360C26A097D22F47002491E6D
:10035000C9B242EA0151C16230BD002101600171A0
:1003600041718160C1600161012101757047B24B2B
:1003700010B51A68B1490A40D0E900142143D0E908
:100380000240044321431143196010BD0021016064
:1003900041608160C16070470029816802D041F0EE
:1003A000010101E021F00101816070474268A44B26
:1003B0001A400A4342607047416282627047426855
:1003C00022F01F020A43426070479E490028D1F87C
:1003D000040302D040F4000001E020F40000C1F862
:1003E0000403704797490028D1F8040302D040F471
:1003F000800001E020F48000C1F80403704770B56C
:10040000072609290AD9C568A1F10A0404EB4404A6
:10041000A640B543A3401D43C56007E0056901EB55
:100420004104A640B543A3401D4305611F23072A8D
:1004300009D2446B521E02EB820293409C439140CE
:100440000C43446370BD0D2A09D2046BD21F02EB2A
:10045000820293409C4391400C43046370BDC46A84
:100460000D3A02EB820293409C4391400C43C462DC
:1004700070BD816841F08041816070470146002075
:100480008968490200D5012070470029816802D09F
:1004900041F4806101E021F48061816070470029AE
:1004A000816802D041F0020101E021F00201816087
:1004B00070474268491E22F4604242EA413141607D
:1004C00070470029416802D041F4006101E021F445
:1004D000006141607047C06C80B270475648001D93
:1004E000006870470029816802D041F4807101E002
:1004F00021F48071816070470029816802D041F445
:10050000007101E021F40071816070474D490028BD
:10051000D1F8040302D040F4005001E020F4005070
:10052000C1F80403704770B5072609290AD9C568C0
:10053000A1F10A0404EB4404A640B543A3401D43C3
:10054000C56007E0056901EB4104A640B543A3403F
:100550001D430561836BC3F30154121B921C02EB14
:1005600082021F249440A34391400B43836370BDD8
:10057000826B491E22F4401242EA015181637047A6
:1005800042507047826822F470220A4382607047AA
:10059000826822F440120A4382607047816841F405
:1005A000800181607047014600208968490200D5BA
:1005B000012070470029416802D041F4806101E0C8
:1005C00021F48061416070470029416802D041F404
:1005D000805101E021F48051416070470844806AF5
:1005E00080B2704701238B4041680AB1194300E093
:1005F0009943416070470246002012680A4200D0C9
:1006000001207047C9430160704730B502460020A1
:1006100054680B0A01258D4011682C40194202D004
:10062000002C00D0012030BD6FEA1121016070471D
:10063000FFFEFFFCFDF7FFC004230140E030FCFF9C
:10064000FFFD3FFF00200140374900200860091DE1
:100650000860091D0860091D0860334933481431DA
:100660000860704730B5304A8379016853B3136826
:100670008B431360111D0B680468A3430B60017961
:1006800011440B68046823430B60274B0833196837
:100690000468A14319601C1D21680568A9432160F5
:1006A0004179102905D011440A68006802430A60A4
:1006B00030BD196802681143196021680068014360
:1006C000216030BD0079104402688A43026030BD69
:1006D0000021016001710C22427181717047124941
:1006E00010310A6802430A60704701460E4A002032
:1006F000143212680A4200D0012070470A491431AE
:1007000008607047084A014600201268064B0A40FC
:1007100014331B680B4202D0002A00D0012070471E
:100720000149143108607047003C0140FFFF7F0021
:100730006F4910B5884206D10121084600F03BFA06
:10074000002101204FE06B49884206D1012102209F
:1007500000F031FA0021022045E06749884206D1C5
:100760000121042000F027FA002104203BE0634926
:10077000884206D10121082000F01DFA002108203E
:1007800031E05F49884206D10121102000F013FAC0
:100790000021102027E05B49884206D1012120205A
:1007A00000F009FA002120201DE05749884206D1B7
:1007B0000121402000F0FFF90021402013E05349BF
:1007C000884206D10121802000F0F5F90021802027
:1007D00009E04F4988420AD184150121204600F0E2
:1007E000EAF900212046BDE8104000F0E4B910BD50
:1007F000F0B5002201274FF0030C0B6807FA02F551
:100800002B40AB422CD1066853000CFA03F4A643EC
:1008100006600E79D0F800E09E4046EA0E060660BB
:100820000E79012E01D0022E12D18668A643866071
:100830004E79D0F808E09E4046EA0E06866046688B
:10084000AE43466045688E799640B6B23543456002
:10085000C568A543C560CC799C40C3681C43C4608F
:10086000521C102AC9D3F0BD4FF6FF710160002160
:10087000017141718171C171704741F48032C2616F
:10088000C161C261C169C069704702460020126936
:100890000A4200D001207047006980B270470246CA
:1008A000002052690A4200D001207047406980B29E
:1008B000704701837047418370470AB101837047D5
:1008C000418370474161704742694A4042617047C5
:1008D0004B07DB0E9A40C90810B500EB8100016A96
:1008E0000F249C40A1430162016A1143016210BDC3
:1008F000000002400004024000080240000C0240D8
:10090000001002400014024000180240001C024087
:1009100000200240E948016841F001010160E74A16
:100920000021083211600268E54B1A400260031D85
:10093000E44A1A60026822F480220260DF480C3028
:1009400001607047DD490022891C0A7008707047F9
:1009500002460020510901290CD002290CD0D749A8
:100960007431096802F01F02012393400B4200D04A
:1009700001207047D149F4E7D0497031F1E730B533
:1009800000244FF4A0653120FFF7E2FF641CAC4265
:1009900001D00028F7D03120FFF7DAFF002800D07F
:1009A000012030BDC54A116821F0F80141EAC000BC
:1009B00010607047C44908607047C0490022703118
:1009C0000A700A70012802D0042801D1052008709D
:1009D0007047BE490860704741EA82115A0810B555
:1009E000BB4B029C03EB02421143014341EA04600A
:1009F000B249091D086010BDB349086670478001FF
:100A000040EA0170AD49843108607047AE4988669C
:100A10007047AD49C8647047A84B08331A6808434B
:100A200022F0EC62104318607047A44B08331A6838
:100A3000084322F078421043186070479F4A0832FA
:100A4000116821F003010143116070479B48083091
:100A5000006800F00C007047984A0832116821F0D5
:100A6000F001014311607047944A0832116821F483
:100A7000E051014311607047904A0832116821F437
:100A8000604141EAC0001060704770B58B4B08337D
:100A90001968904C11F00C0104D06610042903D0A1
:100AA000082903D004601BE0066019E0834A121D88
:100AB0001168C1F38055116801F03F0115B1B6FB13
:100AC000F1F101E0B4FBF1F114681268C4F3881489
:100AD0006143C2F30142521C5200B1FBF2F10160CA
:100AE00019687D4A01F0F0010909545C0168E14090
:100AF00041601C6804F4E054A40A145D21FA04F473
:100B000084601B6803F460435B0BD25CD140C1601E
:100B100070BDC0F30121032908D1684B083319685F
:100B20006E4A21F4F81102400A431A606349703199
:100B30000A68C0F30B0002430A60704763494439F6
:100B4000086070476149403908607047644908602F
:100B500070475A4A30320029116801D0014300E041
:100B6000814311607047554A34320029116801D021
:100B7000014300E0814311607047504A3832002938
:100B8000116801D0014300E08143116070474B4A76
:100B900040320029116801D0014300E08143116017
:100BA0007047464A44320029116801D0014300E0F1
:100BB000814311607047414A10320029116801D009
:100BC000014300E08143116070473C4A1432002920
:100BD000116801D0014300E0814311607047374A3A
:100BE00018320029116801D0014300E081431160EF
:100BF0007047324A20320029116801D0014300E0D9
:100C00008143116070472D4A24320029116801D0B8
:100C1000014300E0814311607047284A50320029A7
:100C2000116801D0014300E0814311607047234AFD
:100C300054320029116801D0014300E08143116062
:100C400070471E4A58320029116801D0014300E064
:100C5000814311607047194A60320029116801D040
:100C6000014300E0814311607047144A6432002957
:100C7000116801D0014300E08143116070470F4AC1
:100C80000D320029117801D0014300E08143117039
:100C900070470A487430016841F080710160704704
:100CA0000146064A00200C3212680A4200D0012098
:100CB000704702490E31087070470000003802404A
:100CC000FFFFF6FE1030002400004742800E47422E
:100CD0000000FFFF0024F40000000020FFFCFF0FD5
:100CE0005C01474210B501218C032046FFF78BFFC2
:100CF0002046BDE810400021FFF785BF114908607C
:100D0000704710B58A0721F00304120F0F230D4915
:100D10009340083121440C689C430C600B68904060
:100D200003430B6010BD084908607047074908601D
:100D300070470449002020310968C90500D5012009
:100D40007047000000380140DC00274200042742C1
:100D5000FE4910B5884206D101210846FFF753FF2E
:100D6000002101205BE0B0F1804F09D0F8498842B2
:100D70000DD101210220FFF73CFF0021022070E08D
:100D800001210846FFF735FF0021012069E0F14904
:100D9000884206D101210420FFF72BFF0021042007
:100DA0005FE0ED49884206D101210820FFF721FFCD
:100DB0000021082055E0E949884206D10121102090
:100DC000FFF717FF002110204BE0E549884206D1CC
:100DD00001212020FFF70DFF0021202041E0E14903
:100DE000884206D101210220FFF70DFF00210220D9
:100DF00015E0DD49884202D101210C040AE0DB49FB
:100E0000884202D101214C0404E0D94988420AD128
:100E100001218C042046FFF7F6FE00212046BDE8A4
:100E20001040FFF7F0BED349884206D1012140208F
:100E3000FFF7DFFE0021402013E0CF49884206D1B2
:100E400001218020FFF7D5FE0021802009E0CB4959
:100E500088420AD1841501212046FFF7CAFE0021ED
:100E60002046BDE81040FFF7C4BE10BD30B5028873
:100E7000B64CBC4DA0420DD0A8420BD0B0F1804F73
:100E800008D0B34B984205D0B24B984202D0B24B37
:100E9000984203D122F070034A881A43AF4B98421C
:100EA00006D0AF4B984203D022F440730A891A430C
:100EB00002804A68C2620A880285A04201D0A84224
:100EC00001D1897A01860121818230BD4FF0FF3145
:100ED000416000210180018141808172704701855C
:100EE00082827047028822F070020A4302807047B3
:100EF00041627047C1627047406A7047008D704719
:100F00000029018802D041F0020101E021F0020134
:100F1000018070470029018802D041F0040101E0FE
:100F200021F00401018070470029018802D041F0BE
:100F3000800101E021F0800101807047028822F0E9
:100F40000802028002880A4302807047028822F465
:100F50004072028002880A4302807047002901889B
:100F600002D041F0010101E021F001010180704750
:100F700030B5028C22F001020284028C8388048B3B
:100F800022F0020224F073050C882C438D8915434E
:100F90004A882A436D4DA84202D0724DA8420DD115
:100FA00022F00805CA8923F440732A4322F004057D
:100FB0008A882A430D8A1D434B8A2B4383800483EE
:100FC00089684163028430BD70B5028C22F0100242
:100FD0000284028C8388048B0D8824F4E6464FF645
:100FE000FF7404EA052535438E8922F0200204EAC5
:100FF000061616434A8804EA02123243534EB042A0
:1010000002D0584EB04215D122F08006CA8923F48E
:10101000406304EA0212324322F040068A8804EA5E
:10102000021232430E8A04EA86061E434B8A04EA01
:10103000830333438380058389688163028470BDA1
:1010400070B5028C22F480720284028C8388848BB7
:101050000D8824F0730425438E894FF6FF7422F423
:10106000007204EA062616434A8804EA0222324342
:10107000364EB04202D03B4EB04215D122F400664B
:10108000CA8923F4405304EA0222324322F48066E0
:101090008A8804EA022232430E8A04EA06161E43B4
:1010A0004B8A04EA03133343838085838968C163D1
:1010B000028470BD70B5028C22F480520284058CCB
:1010C0008288838B0C8823F4E6464FF6FF7303EA8D
:1010D0000424344325F400568D8903EA053535434D
:1010E0004E8803EA06362E43184DA84202D01D4D05
:1010F000A84205D122F480450A8A03EA82122A43D3
:101100008280848389680164068470BD0021018027
:101110004180818081608181C181018241827047EB
:1011200030B50124058C00F118038C40A5430584DB
:1011300031B308292CD0091FC1F34E0018440168AF
:1011400048F6FF731940016001681AE00000014091
:101150000004004000080040000C00400010004067
:1011600000140040000401400040014000440140E0
:101170000048014000180040001C004000200040D2
:1011800006E04FF6FF7303EA02221143016030BD0F
:1011900003EB510001684FF68F731940016001683D
:1011A000F3E74163704781637047C163704701642F
:1011B0007047028B22F070020A4302837047028B51
:1011C0004FF6FF7322F4E04203EA01211143018349
:1011D0007047828B22F070020A4382837047828BB1
:1011E0004FF6FF7322F4E04203EA012111438183A9
:1011F0007047028B22F008020A4302837047028B79
:101200004FF6FF7322F4006203EA012111430183C8
:101210007047828B22F008020A4382837047828BD8
:101220004FF6FF7322F4006203EA01211143818328
:101230007047028B22F004020A4302837047028B3C
:101240004FF6FF7322F4806203EA01211143018308
:101250007047828B22F004020A4382837047828B9C
:101260004FF6FF7322F4806203EA01211143818368
:101270007047028B22F080020A4302837047028B80
:101280004FF6FF73C2F30E0203EA012111430183FB
:101290007047828B22F080020A4382837047828BE0
:1012A0004FF6FF73C2F30E0203EA0121114381835B
:1012B0007047028C22F002020A4302847047028CBB
:1012C00022F008020A4302847047028C4FF6FF7333
:1012D00022F0200203EA0111114301847047028CBD
:1012E0004FF6FF7322F0800203EA011111430184DB
:1012F0007047028C4FF6FF7322F4007203EA01215B
:10130000114301847047028C4FF6FF7322F4006290
:1013100003EA0121114301847047028C4FF6FF73E9
:1013200022F4005203EA013111430184704710B5E1
:101330000123048C8B409C430484038C8A40134318
:10134000038410BD10B50423048C8B409C4304849B
:10135000038C8A401343038410BD828B22F44062C5
:101360008283828B4FF6FF7303EA01210A43828353
:101370007047828B22F00C028283828B0A43828325
:101380007047028B22F440620283028B4FF6FF7398
:1013900003EA01210A4302837047F0B5048C24F06C
:1013A00010040484078B068C4FF6FF7404EA0115C1
:1013B00027F4734704EA0331394304EA02220A435B
:1013C00026F0A001294341F0100102830184F0BD01
:1013D000028B22F00C020283028B0A4302837047C5
:1013E0002DE9F0410C460E884988A28823890546DC
:1013F0000EB3042E26D0082E2E8C4FF6FF7028D068
:1014000026F480562E84AF8B2E8C00EA022200EA4E
:10141000013127F473473A4300EA0330104326F4BE
:1014200020420A4342F48051A8832984E188284657
:10143000BDE8F04191E700F061F9E1882846BDE898
:10144000F041C5E7FFF7A9FFE1882846BDE8F04174
:1014500097E726F480762E84AF8B2E8C00EA01214C
:1014600000EA0310104327F0F307384326F4206204
:101470000A4342F48071A8832984E1882846BDE8A4
:10148000F04176E700210180418001228280C18005
:10149000018170472DE9F0410C4600254988074637
:1014A000012601B90225A288012A00D1022620883E
:1014B00023890028384610D0FFF76FFFE1883846AF
:1014C000FFF75FFF238932462946384600F016F9B8
:1014D000E1883846BDE8F0417AE700F00FF9E1888D
:1014E0003846FFF775FF2389324629463846FFF70D
:1014F00054FFE1883846BDE8F04142E7406B704751
:10150000806B7047C06B7047006C704710B50A88DD
:101510004B88CC881A438B8823431A430B891A4380
:101520004B8989891A430A43A0F8442010BD002141
:10153000018041808180C18001814181818170472A
:10154000002930F8441F02D041F4004101E0C1F30A
:101550000E01018070470029818802D041F004010A
:1015600001E021F00401818070470029818802D0C8
:1015700041F0010101E021F0010181807047002A62
:10158000828901D00A4300E08A43828170478182C8
:10159000704702460020128A0A4200D0012070479C
:1015A000C94301827047034600201A8A9B890A4278
:1015B00003EA010302D0002B00D001207047C94389
:1015C000018270471143A0F848107047002A8289B1
:1015D00001D00A4300E08A43828170470029818854
:1015E00002D041F0080101E021F00801818070473C
:1015F000018921F0070101817047028922F0700200
:101600000A430281704700B50346FFF7F6FF1889C9
:1016100040F00700188100BD70B50D461146044624
:10162000602D4FF001020AD000F068F829462046EC
:10163000FFF7E3FF208940F00700208170BDFFF72E
:10164000ACFEF3E730B504894FF6FF7505EA0323D6
:101650001343E4B20B432343038130BD10B504466A
:10166000FFF7F0FF208940F07700208110BD10B512
:101670000446FFF7E7FF208940F48040208110BD39
:10168000828822F07002828082880A4382807047BA
:10169000028922F00702028102890A43028170470F
:1016A000028922F08002028102890A430281704786
:1016B00070B50589048B068C25F007050D434FF6A0
:1016C000FC410C4040F201110C434FF6FF7101EA5E
:1016D000031126F02206114331430581048301845E
:1016E00070BD0029818802D041F0800101E021F025
:1016F000800181807047A0F85010704770B5048C4D
:1017000024F001040484058B048C4FF6FF7606EA6E
:101710000313134325F0F3052B4324F00A020A4375
:1017200042F001010383018470BD0000CA4910B575
:10173000884206D101211020FFF765FA0021102010
:1017400028E0C649884202D101214C0410E0C44976
:10175000884202D101218C040AE0C249884202D1A8
:101760000121CC0404E0C04988420AD101210C05C2
:101770002046FFF73EFA2046BDE810400021FFF763
:1017800038BABA49884209D101212020FFF73BFA33
:1017900000212020BDE81040FFF735BA10BD7FB50D
:1017A0000446008A0D46C98820F440500143218236
:1017B000A08941F20C618843A9882A8911436A896A
:1017C00002431143A181A08A20F44071A8890843F3
:1017D000A0826846FFF759F99F48844202D0A34887
:1017E000844201D1039800E00298A18909040029EC
:1017F00000EBC00101EB0010296802DA4FEA410159
:1018000001E04FEA8101B0FBF1F06422B0FBF2F19C
:101810004FEA01114FEA11136FF018056B4300EB0B
:101820008300A3891D044FF0320306D503EBC000EB
:10183000B0FBF2F000F0070005E003EB0010B0FB96
:10184000F2F000F00F00084320817FBD4FF41651E5
:10185000016000218180C18001810C22428181814F
:10186000704710B5028A4C8822F470630A882243BC
:101870008C88C9880C4322431A43028210BD002180
:10188000018041808180C18070470029818902D018
:1018900041F4005101E021F4005181817047028B35
:1018A00002F47F420283028B0A43028370470029BD
:1018B000818902D041F4004101E0C1F30E01818130
:1018C00070470029818A02D041F4006101E021F4CF
:1018D000006181827047C1F3080181807047808870
:1018E000C0F308007047028A22F00F020282028AC7
:1018F0000A43028270470029818902D041F0020127
:1019000001E021F0020181817047828922F40062A6
:10191000828182890A4382817047028A22F02002F2
:101920000282028A0A43028270470029018A02D099
:1019300041F4804101E021F48041018270478189B6
:1019400041F00101818170470029818A02D041F074
:10195000080101E021F0080181827047028BD2B2B8
:101960000283028B42EA0121018370470029818AA8
:1019700002D041F0200101E021F020018182704776
:101980000029818A02D041F0100101E021F010010C
:1019900081827047828A22F004028282828A0A430C
:1019A000828270470029818A02D041F0020101E061
:1019B00021F0020181827047002A828A01D00A4305
:1019C00000E08A438282704710B5C1F3421301F0F0
:1019D0001F040121A140012B07D0022B07D0143096
:1019E000002A026805D00A4304E00C30F8E7103002
:1019F000F6E78A43026010BD0246002012880A42C0
:101A000000D001207047C9430180704770B501F0D4
:101A10001F0501260024C1F3421306FA05F2012B2B
:101A20000FD0022B0FD0838A4FEA11210088134276
:101A300006FA01F600EA060001D000B101242046B2
:101A400070BD8389F0E7038AEEE70A0A012191401D
:101A5000C94301807047000000100140004400406D
:101A600000480040004C004000500040001401407D
:101A70002DE9F04701F0B3F801F076F8E14C0126CA
:101A80000025E07820B300F065FF01F093F9A0791C
:101A9000A178084208D0E06B6061206A6064206C25
:101AA00020626671E57013E0206938B1E068C0F12A
:101AB000320000F0ABFDE068323007E0E168A06979
:101AC000401A00F0A3FDE168E069084400F0B4FDAD
:101AD000A079A8B900F0ABFE074600F09FFE38449D
:101AE000B0F5C87F0CDDC848A671616A00688842FD
:101AF00000DD2670C548A16A0068884200DD667076
:101B0000E079E0B900F093FE074600F087FE384424
:101B1000B0F5487F13DDBE48E671E16A006888428F
:101B200005DDBC48216B0068884200DDA670607846
:101B300068B3207868B3A07868B30320206100F010
:101B400076FE074600F06AFE3844B0F5966F00DD79
:101B5000667200F06CFE074600F060FE3844AF4F3E
:101B6000DFF8B49207F11008B0F5C86F31DB4FF41D
:101B70007A61C82000F0E5FDA07870B1E06B60618B
:101B8000206A6064206C20626671E57012E00220B9
:101B9000D4E72661D3E72561D1E7206950B1C9F8C0
:101BA000005057F82010616158F8200020626571DC
:101BB000E570267100F03FFE00F034FE01F045F9BB
:101BC00025706570A570A571E57165722572BDE817
:101BD000F0876079A8B100F0BDFE6069002805DDDE
:101BE000401E6061BDE8F04701F086B9206957F8F2
:101BF0002010616158F8200020626571E57026713F
:101C0000E5E720790028E2D06069002806DD401E63
:101C100060612069BDE8F04701F03AB900F00BFEC1
:101C200000F000FE01F011F925706570A570A57136
:101C3000E5716572257225712561C9F80050E6705D
:101C4000C5E730B589B000F0E9FD044600F0EFFDCE
:101C50006C49714D3431724B06C92D681B68CDE952
:101C60000712CDE905356B49684A09681268CDE964
:101C700002106C4804940192006800906A4803685E
:101C80006148026862480168684801F061FA09B079
:101C900030BD4FF49671C82000F053FD4FF47A70B8
:101CA00000F075F95C490020086000F053FE01F077
:101CB00006F8FFF7C6FF0A2000F069F9F5E710B54E
:101CC0004FF4C871C82000F03CFD4FF47A742046F0
:101CD00000F05DF900F0AFFD00F0A4FD4E4A0021D8
:101CE0002046116000F053F946490120C87010BD2C
:101CF00010B54FF4FA71C82000F023FDBDE8104084
:101D00004FF47A7000F043B910B54FF41671C82043
:101D100000F017FDBDE810404FF47A7000F037B9BD
:101D200000F0F8F800F068F900F0CCF94FF4165024
:101D300000F074FA00F064FC00F020FD00F09AFC62
:101D400000F084FD04213A48FEF7B5FD394C4FF40C
:101D5000805529462046FEF7AEFDA1153648FEF710
:101D6000AAFD61152046FEF7A6FD2946334D2846FB
:101D7000FEF7A1FD4FF400512846FEF79CFD4FF4FD
:101D800080412846FEF797FD4FF400412846FEF7B4
:101D900092FD40212046FEF78EFD80212046FEF771
:101DA0008AFD4FF47A74204600F0F1F84FF4C871C0
:101DB000C82000F0C6FC19499FED210A1039174AC6
:101DC00081ED010A661001F12000C823566000F180
:101DD00010051C4F43606F6081ED020A966042F26D
:101DE000283683609FED180AAE6081ED030AD46047
:101DF000C3601648E860FFF724FF642000F0C7F8CE
:101E0000F9E700001C000020A4000020A80000202A
:101E10009C000020A0000020B8000020E00000206E
:101E200098000020B0000020AC00002034450008DD
:101E3000000C024000080240000002400004024082
:101E4000CDCCCC3C68DEFFFF8FC2753CF4B6FFFF03
:101E50007047FEE7FEE7FEE7FEE770477047704712
:101E600029480168491C016028490868002802DAED
:101E7000274B00221A60401E0860FFF7F9BD70B5BD
:101E80002020FEF73FFC4FF4967438B1204600F056
:101E90007EF8FFF7FEFE2020FEF742FC4FF480752F
:101EA0002846FEF72FFC002809D0204600F06FF8E6
:101EB000FFF72AFF2846BDE87040FEF731BC70BD31
:101EC00070B54FF400652846FEF71CFC4FF496747D
:101ED00038B1204600F05BF8FFF7F1FE2846FEF728
:101EE0001FFC4FF480552846FEF70CFC002809D053
:101EF000204600F04CF8FFF7FBFE2846BDE8704096
:101F0000FEF70EBC70BD0000780000208C000020A1
:101F10003404004070B501F0A8F801F0CBF8324865
:101F20004FF47A710068B0FBF1F0401EB0F1807F91
:101F300016D24FF0E024606166170F21304600F0A2
:101F400047F80025A561072020614FF44070FEF797
:101F50007FF90021304600F03BF82448456070BD11
:101F6000FEE74FF0E0208069A821B0FBF1F21F49A5
:101F7000486800EB4003C3EBC010C2EBC00000F5A3
:101F80007A700860086870471848406870471749B9
:101F90004A684B689B1A8342FBD1704730B50546AF
:101FA000FFF7DFFF0446FFF7DCFF001BA842FAD172
:101FB00030BD30B50C460546FFF7D3FF001BA842E5
:101FC000FAD330BD094A53685B1A8342FBD370478A
:101FD0000907090E002803DA00F00F00044A00E0A8
:101FE000044A815470470000BC00002074000020A7
:101FF00014ED00E000E400E07CB501210846FEF7A6
:10200000A8FD01210220FEF7A4FD01210420FEF716
:10201000A0FD01210820FEF79CFD4FF48070009088
:1020200001208DF8040000208DF8060003218DF8B2
:1020300005108DF8070069461E48FEF7D9FB4FF4DE
:1020400090501D4D009069462846FEF7D1FB0420B4
:10205000009069461948FEF7CBFB4FF47040184ECC
:10206000022400908DF8074069463046FEF7C0FB19
:10207000C02000908DF8074069462846FEF7B8FB5F
:1020800040212846FEF717FC80212846FEF713FC66
:10209000E1023046FEF70FFC21033046FEF70BFC51
:1020A00061033046FEF707FCA1033046FEF703FC50
:1020B0007CBD00000000024000080240000C02400D
:1020C000000402402DE9F047012186B08803FEF7A5
:1020D00068FD01210720FEF73CFD00248DF810402B
:1020E00020258DF8134003A949480395FEF780FB8E
:1020F00005210120FEF705FE00958DF80440082615
:102100008DF8056001258DF806506846FEF7AAFA9D
:102110004FF017098DF808908DF809508DF80A4096
:102120008DF80B5002A8FEF798F8DFF8E8A08DF8BC
:102130001040EF028DF8134003A950460397FEF7B5
:1021400057FB0B210020FEF7DCFD8DF804408DF8D5
:10215000056000978DF806506846FEF783FA282739
:102160008DF808708DF809508DF80A408DF80B50E5
:1021700002A8FEF772F88DF810404FF480588DF8E1
:10218000134003A95046CDF80C80FEF731FB0C211B
:102190000020FEF7B6FD8DF804408DF80560CDF8FF
:1021A00000808DF806506846FEF75CFA8DF80870DE
:1021B0008DF809508DF80A408DF80B5002A8FEF7F3
:1021C0004CF88DF810402F028DF8134003A91248E7
:1021D0000397FEF70DFB08210220FEF792FD8DF814
:1021E00004408DF8056000978DF806506846FEF7AC
:1021F00039FA8DF808908DF809508DF80A408DF85D
:102200000B5002A8FEF729F806B0BDE8F0870000E1
:1022100000040240000002400008024070B506467B
:1022200088B001210220FEF794FC01211020FEF766
:10223000B8FC6D4D072209212846FEF749FB07220D
:102240000A212846FEF744FB00248DF816400120A1
:102250008DF8170002218DF814104FF4C06004901F
:102260008DF8151004A92846FEF7C2FA5F4D01212A
:102270002846FFF71CFBADF808400C20ADF80A001B
:10228000ADF80440ADF80640ADF818402815ADF89B
:102290001A00ADF81E400096ADF80C40ADF81C4099
:1022A00069462846FFF77BFA06A92846FFF7D9FAC0
:1022B00001212846FFF7E9FA08B070BD00207047F9
:1022C00070B54A4D0446C1B22846FFF704FB802191
:1022D0002846FFF791FB0028F9D0204670BD4348FF
:1022E00001888906FCD58088C0F30800704770B566
:1022F0003E4D044680212846FFF77EFB0028F9D09A
:10230000A1B22846FFF7E7FA204670BD10B538A005
:1023100000F01EFF354C20212046FFF76DFB002802
:10232000F9D02046FFF7DBFAC0B210BD10B539A0D6
:1023300000F00EFF2D4C20212046FFF75DFB00280A
:10234000F9D02046FFF7CBFA01463AA000F000FF93
:102350002046FFF7C4FAC0B210BD10B537A000F098
:10236000F7FE224C20212046FFF746FB0028F9D03B
:102370002046FFF7B4FAA0F1300137A000F0E8FEE4
:102380002046FFF7ACFA303810BD10B504460146C0
:1023900086B033A001E0214638A000F0D9FE69469E
:1023A00041A000F0F7FF694640A000F0D1FE2146B1
:1023B000684601F015F90028EDD106B010BD38B51A
:1023C000044601463BA001E0214641A000F0C0FECA
:1023D00069464AA000F0DEFF1FA0009900F0B8FE99
:1023E000009AA242F0D138BD000002400010014026
:1023F0000D0A707265737320616E79206B657920A8
:10240000746F20636F6E74696E75652E2E2E0D0AC3
:102410000D0A0000706C6561736520656E746572ED
:102420002061206368617261637465722E2E2E0DC7
:102430000A00000025630D0A00000000706C656151
:10244000736520656E7465722061206469676974C4
:102450002E2E2E0D0A00000025640D0A000000003B
:10246000507265737320257320746F20436F6E74F0
:10247000696E75652E2E2E203A000000496E766139
:102480006C696420696E7075742C2070726573734A
:1024900020257320746F20436F6E74696E75652EEE
:1024A0002E2E203A000000002573000025730D0A2F
:1024B00000000000507265737320256420746F2043
:1024C000436F6E74696E75652E2E2E203A000000E3
:1024D000496E76616C696420696E7075742C207029
:1024E0007265737320256420746F20436F6E746966
:1024F0006E75652E2E2E203A000000002564000027
:102500001CB501210420FEF742FB4FF470700090CF
:1025100002208DF8040003208DF8050000208DF8BE
:102520000600504C8DF8070069462046FEF760F91A
:10253000022206212046FEF7CBF90222072120467F
:10254000FEF7C6F9022208212046FEF7C1F9022251
:1025500009212046FEF7BCF91CBDF0B589B040F258
:10256000E73006900320ADF8140000263E4FADF88A
:102570001C60ADF8166005A93846FEF777FC6020B0
:102580003A4DADF800000124ADF8024028880290D1
:10259000ADF80C6069463846FEF7EAFC082138467B
:1025A000FEF727FEADF8024068880290694638467B
:1025B000FEF70AFD08213846FEF721FEADF802407D
:1025C000A888029069463846FEF73AFD0821384649
:1025D000FEF71FFEADF80240E888029069463846D3
:1025E000FEF768FD08213846FEF719FE012138463E
:1025F000FEF79AFC01213846FEF7B0FC09B0F0BDA9
:1026000010B5FFF77DFFBDE81040A6E7184909683F
:10261000884200DD08464942884200DA0846124AEC
:1026200000233432111D002802DB10600B6070475C
:1026300013604042086070470D490968884200DD18
:1026400008464942884200DA0846074B00223C33DC
:10265000191D002802DB1A600860704740421860AC
:102660000A60704700040240000800408400002017
:102670003C00002030B58BB001210220FEF787FA24
:102680004020059002208DF8180003218DF81910C4
:1026900000248DF81A40354D8DF81B0005A92846F9
:1026A000FEF7A6F8022206212846FEF711F995202A
:1026B00008908B20ADF81C002D4DADF82440ADF8EE
:1026C0001E4007A92846FEF7D1FB6020ADF80000A8
:1026D0000120ADF802000294ADF80C40694628468E
:1026E000FEF746FC08212846FEF783FD0121284617
:1026F000FEF71AFC01212846FEF730FC0BB030BD76
:102700002DE9F04105461B498C2068430860184EAE
:1027100095202C3630600024154FA04634370CE04D
:102720003068401CC00838604620FFF730FCC7F80E
:1027300000804620FFF72BFC641CAC42F0DBBDE8B8
:10274000F0810B4A10B52C321368094C5B1C9B08B6
:1027500034342360084B93FBF1F18C2391FBF3F1AC
:10276000491E11600349086010BD000000000240CE
:10277000000400408C00002000BD01057CB5012153
:102780000920FEF704FA02208DF8040001208DF8DC
:10279000070048F203002A4C009069462046FEF7E5
:1027A00027F80821274D009169462846FEF720F8B2
:1027B000022200212046FEF78BF80222012120464A
:1027C000FEF786F801220F212046FEF781F801224C
:1027D00003212846FEF77CF81B4C4FF0FF352946B5
:1027E0002046FEF787FB29464FF080452846FEF736
:1027F00081FB0223002203212046FEF759FF00231C
:102800001A4603212846FEF753FF01212046FEF712
:10281000A5FB01212846FEF7A1FB7CBD0A48243018
:1028200000687047084900202431086070474FF065
:102830008040406A70474FF08041002048627047F6
:102840000000024000040240000C004070B501216D
:102850008CB00802FEF7A5F9BC20032500908DF886
:10286000045000248DF8074069463648FDF7C0FF44
:10287000354E8DF8045000958DF807406946304676
:10288000FDF7B6FF8DF804503020304D00908DF8E4
:10289000074069462846FDF7ABFF4FF48030CDE98D
:1028A00008404FF47060CDE90A4008A8FDF75FFDCD
:1028B0008DF80C4002948DF80D400594069401208B
:1028C000234C8DF81C0002A92046FDF725FD0122AE
:1028D00040F205212046FDF785FE01212046FDF747
:1028E0005BFDA1143046FDF7E6FF61143046FDF7AD
:1028F000E2FF4FF480413046FDF7DDFF4FF4004129
:102900003046FDF7D8FF40212846FDF7D4FF80214F
:102910002846FDF7D0FF0CB070BD10B51346044635
:102920000122FDF76CFD2046FDF7A3FD02212046A4
:10293000FDF761FE0028F9D02046BDE81040FDF704
:10294000CABD00000000024000040240000802402E
:10295000002001402DE9F05FB54D042209212846F1
:10296000FFF7DBFFB34C04220521E0602846FFF7A8
:10297000D4FF2061042208212846FFF7CEFF6061C2
:10298000042207212846FFF7C8FFA06104220F2177
:102990002846FFF7C2FFE06104220E212846FFF718
:1029A000BCFF2062FFF7DDFAA34E83464FF4805947
:1029B00049463046FDF77DFFDFF88082802147469B
:1029C0004046FDF776FF59463C20FFF7F2FA042215
:1029D00009212846FFF7A1FFE1680422401AE060C0
:1029E00005212846FFF799FF2169401A20614946D1
:1029F0003046FDF760FF80213846FDF75CFFE06858
:102A00000027002800DAE7602069002800DA276143
:102A100059468C20FFF7CDFA4FF4005A5146B14683
:102A20003046FDF746FF402146464046FDF741FF50
:102A300059464FF4AA70FFF7BCFA04220821284631
:102A4000FFF76BFF61690422401A60610721284685
:102A5000FFF763FFA169401AA06151464846FDF7A0
:102A60002AFF40213046FDF726FF6069002800DA82
:102A70006761A069002800DAA761E26820684FF466
:102A80007A71424392FBF1F2E2602269424392FB87
:102A9000F1F222616269424392FBF1F26261A26942
:102AA000424392FBF1F2A261E269424392FBF1F2EE
:102AB000E261226A424392FBF1F02062BDE8F09F9E
:102AC0002DE9F0475A4D042208212846FFF725FF3B
:102AD000584C0422072160612846FFF71EFFA061C1
:102AE000FFF73FFA544F81466E1431463846FDF7E2
:102AF000E0FEDFF8488140214046FDF7DAFE494616
:102B00004FF4AA70FFF755FA042208212846FFF770
:102B100004FF61690422401A606107212846FFF71B
:102B2000FCFEA169401AA06131463846FDF7C3FE9C
:102B300040214046FDF7BFFE61690020002900DA10
:102B40006061A169002900DAA061626920684FF420
:102B50007A71424392FBF1F26261A269424392FBB5
:102B6000F1F0A061BDE8F0872DE9F0411425314E68
:102B700000202F4F04467062042211463846FFF7AA
:102B8000CCFE716A641C08447062AC42F4DB4CF207
:102B9000503191FBF5F0726A5043294A104490FB82
:102BA000F1F0C11700EB5170C0107062B16A0844B7
:102BB000B062BDE8F08110B5042203211C48FFF784
:102BC000ACFE1C4C606001F0B0FA9FED1E1B53EC94
:102BD000112B01F023F901F079FAA06010BD10B5B6
:102BE000FFF7E9FF13488068B0F52F7F1EDA002059
:102BF000FFF70CFD0020FFF71FFD04211348FDF730
:102C00005AFE0E4C4FF480512046FDF754FEA1159C
:102C10000F48FDF750FE61152046FDF74CFE4FF4BE
:102C20007A742146C820FFF78CFDFAE710BD00003A
:102C300000200140900000200004024000080240F3
:102C400008136DFAD7A3703D0AD70840000C024064
:102C50000000024070B50446FFF783F90546FFF710
:102C600079FE46480068201AFFF7D0FC4448006807
:102C7000201AFFF7E1FC2946BDE870404FF47A7056
:102C8000FFF797B93D4910B5096881420FDA3C4911
:102C9000096881420BDA3B483B4C00682168401AC6
:102CA000FFF7B4FC394821680068084403E00020BD
:102CB000FFF7ACFC0020BDE81040FFF7BDBC2F487B
:102CC00010B502683248334C4FF4805103682046F7
:102CD0009A4202DDFDF7EDFD01E0FDF7ECFD2E4827
:102CE0002E492F4A0068096888424FF004011046B7
:102CF00002DDFDF7DEFD01E0FDF7DDFD29484FF4C3
:102D000000710268284800688242204602DDFDF713
:102D1000D0FD01E0FDF7CFFD19484FF48071026846
:102D20002248036822489A4203DDBDE81040FDF7BF
:102D3000C0BDBDE81040FDF7BEBD70B50D460446F0
:102D4000FFF779FDFFF76EFD2046FFF775FC204683
:102D5000FFF75CFC2846FFF71AF90020FFF756FC46
:102D60000020FFF769FC6420FFF711F9FFF756FD1B
:102D70000446FFF75CFD201A70BD00009C00002097
:102D8000A00000203400002028000020380000208F
:102D90004800002000080240A4000020400000205D
:102DA000000C0240A8000020440000204C0000203D
:102DB000000002402DE9F04129482B4E2D4C2E4DAC
:102DC0002DED028B02682748316807682748BA4210
:102DD00003682748006805DD984203DD801A2060FB
:102DE000401A16E0BA4202DD24480068F6E798422D
:102DF00002DD234A1268F1E7FFF719FD0746FFF7E6
:102E00000DFD381A8002C11700EB9160801120601F
:102E10000020286001F089F941EC180B2068044675
:102E200001F083F99FED171B53EC112B01F094F97E
:102E300053EC182B00F04AFF01F048F913490860E1
:102E40003460BDEC028BBDE8F0810B4900200860C6
:102E500008490860044908600C4908607047000090
:102E6000A4000020400000201800002044000020A2
:102E7000A8000020140000201000002064000020A2
:102E8000680000209A9999999999B93F28000020E3
:102E90002DE9F04104461548154E164F00EB840508
:102EA00056F824003968D5ED000A084400EE100AEF
:102EB000B8EEC00A20EE800ABDEEC00A10EE100A7D
:102EC000FFF7A4FB56F824003968D5ED000A084442
:102ED00000EE100ABDE8F041B8EEC00A20EEC00ACC
:102EE000BDEEC00A10EE100AFFF7A6BBD00000200E
:102EF00000010020B800002010B50848084900680B
:102F00000968401AFFF782FB06480749006809680C
:102F1000BDE81040401AFFF78FBB00006C00002096
:102F20009C00002070000020A0000020094880477D
:102F300009480047FEE7FEE7FEE7FEE7FEE7FEE79B
:102F4000FEE7FEE7FEE7FEE704480549054A064BB3
:102F5000704700006B3000088901000870010020F4
:102F6000700700207003002070030020F0B56C4A49
:102F70000020116841F4803111604FF4A0631168A2
:102F800000F1010011F4003F01D19842F7D110681F
:102F9000674E8103634CDFF890E1644DDFF894C124
:102FA00040F2056706F104002BD5216841F08051FD
:102FB0002160DEF8001041F48041CEF80010016875
:102FC0000160016841F400410160016841F4A051D1
:102FD00001603560116841F08071116011688901EC
:102FE000FCD5CCF80070016821F003010160016894
:102FF00041F0020101600168C1F381010229FAD1A7
:10300000F0BD11684C4B19401160116841F001018D
:103010001160216841F080512160DEF8001041F418
:103020008041CEF8001001680160016841F4004160
:103030000160016841F4A05101603560116841F000
:103040008071116011688901FCD5CCF800700168AD
:1030500021F003010160016841F002010160016893
:10306000C1F381010229FAD1F0BD344810B50168DD
:1030700041F4700101602A48016841F001010160DA
:103080002B4A0021121D116002682B4B1A4002606E
:10309000031D2B4A1A60026822F480220260244831
:1030A00008300160FFF762FF24494FF0006080396B
:1030B000086010BD70B51E4D2D1D2868214B22499A
:1030C00010F00C0004D05E10042803D0082803D0B0
:1030D0000B601AE00E6018E0154A1068C0F38054C7
:1030E000106800F03F0014B1B6FBF0F001E0B3FB54
:1030F000F0F013681268C3F388135843C2F3014217
:10310000521C5200B0FBF2F0086028680E4AC0F36F
:103110000310121D105C0A68C2400A6070BD0000F6
:103120000038024040380240007000401054000750
:1031300004380240003C0240FFFFF6FE88ED00E04C
:10314000103000240024F400BC0000207047000070
:103150000FB4044910B503AA029800F0F7FA10BCA6
:103160005DF814FB7C00002070B50446856900689A
:10317000C10601D5302600E02026C00708D070BD6A
:10318000D4E9012130469047206A00F10100206215
:103190006D1EF5D570BD70B5044685690078C00711
:1031A00008D170BDD4E9012120209047206A00F1A8
:1031B000010020626D1EF5D570BD70B50C46054648
:1031C000012A05D02878800600D5EA69002302E0AC
:1031D000012305E05B1C934202D2E05C0028F9D198
:1031E000A869E618C01AA861286A18442862284607
:1031F000FFF7BAFF04E0D5E9012114F8010B90476D
:10320000B442F8D32846FFF7C6FF70BD2DE9F04160
:103210000646002410687529314616A511D0AFF373
:103220000080002803DAC0F1000013A507E0316830
:103230008A0701D511A502E0490704D510A501248C
:1032400001E0AFF3008000210A2306F1240707E024
:10325000B0FBF3F203FB1200303078541046491CE7
:103260000028F5D123462A463046BDE8F04100F05B
:10327000FBB90000000000002D0000002B00000042
:10328000200000002DE9F0474FF0000A894604466F
:10329000C0F820A02046E1688847002876D025287D
:1032A00006D0D4E901219047206A401C2062F1E752
:1032B000E168204600258847C4F81CA00646002780
:1032C000C4F818A02A2E09D0304600F0E1FC38B32B
:1032D00004EB8708303EC8F8186019E059F8041B61
:1032E000204604EB87029161E1688847012F06467A
:1032F00018D1E069002820DA25F020051DE0D8F873
:10330000180000EB800006EB40003038C8F81800C9
:103310002046E1688847064600F0BAFC0028EED156
:10332000012F0AD02E2E08D12046E16888477F1C45
:103330000646022F45F02005C4DBA069002803DA09
:10334000404245F00105A061E80701D025F01005D5
:10335000B6B1A6F14100192802D8203645F400651F
:103360004A463146204625604D46FCF747FF58B196
:10337000012806D0ED1D25F0070000F1080989E7B6
:1033800004E005F1040985E730468AE7206ABDE8D4
:10339000F08700000FB400B589B00BA86A46009012
:1033A00003480A9900F0F2F909B05DF814FB000037
:1033B000800000202DE9FF5F1D464FF0FF3B914646
:1033C0004FF000085F46D5E90146A96901987F1CC6
:1033D0008847296A824688470028F6D11AF10100F9
:1033E0000CD0002E24F4C06419DD600614D5BAF1A7
:1033F0002B0F09D0BAF12D0F0ED103E0584604B0BF
:10340000BDE8F09F44F48064A96901987F1C884757
:10341000761E8246002E02DDBAF1300F03D0B9F1DC
:10342000000F26D032E0A969761E01987F1C44F473
:1034300000748847002E824605DDBAF1780F06D069
:10344000BAF1580F03D0B9F1000F10D01EE0B9F156
:10345000000F02D0B9F1100F18D1A969761E01989A
:103460007F1C24F4007488478246102002E0082064
:1034700000E00A20814609E0A96908FB0908761ED8
:1034800001987F1C44F4007488478246002E05DDB5
:103490004946504600F06CF90028EDDAE9690198D8
:1034A0008847A00502D46FF00100A8E7E00727D104
:1034B000600614D5600502D5C8F1000000E0404662
:1034C000296801F104022A600968220501D5087003
:1034D00016E0220701D5088012E0086010E0286895
:1034E00000F1040129600068210502D580F8008000
:1034F00006E0210702D5A0F8008001E0C0F80080B6
:1035000038467CE72DE9FF5F4FF0000899461446E6
:1035100046469169D2E901A7DDF838B0019888479D
:10352000054659EA0B0005D009E0A1690198761C0F
:1035300088470546216A284688470028F5D1681C37
:1035400003D05FEACA7005D015E04FF0FF3004B039
:10355000BDE8F09F2068011D2160D0F800800AE0DE
:103560005FEACA7001D108F8015BA1697F1E01986A
:10357000761C88470546002F1ADD681C18D0B9F163
:10358000000F0DD0E81705EBD060421120F01F00AE
:1035900059F822102A1A012090400142E0D107E098
:1035A000BBF1000FDCD12846216A88470028D7D01C
:1035B000E169019888470AF0010050EA0B0002D146
:1035C000002188F80010A068B84203DDBBF1000FAD
:1035D00003D017B16FF00100B9E73046B7E700003C
:1035E0004FF0013C50F8042B51F8043B9A4221D192
:1035F000A2EB0C03934313EACC1317D150F8042B1E
:1036000051F8043B9A4215D1A2EB0C03934313EA01
:10361000CC130BD150F8042B51F8043B9A4209D13A
:10362000A2EB0C03934313EACC13DBD04FF0000062
:10363000704700BFD01A01BAB1FA81F101F0180148
:1036400022FA01F0CB40C1F12001DBB2C0B2C01AB6
:103650002CFA01F3D11A914311EAC311E6D1704754
:1036600070477047704770472DE9F0470D469946FF
:103670009246044600F124080168880604D5E069F2
:1036800021F01001216000E00120A84202DDA0EB42
:10369000050700E00027A16907EB050202EB09001E
:1036A000A1EB0000A0612078C00602D42046FFF7FD
:1036B0005BFD002608E0D4E901211AF806009047D6
:1036C000206A401C761C20624E45F4DB2078C00640
:1036D0000AD52046FFF748FD06E0D4E90121302055
:1036E0009047206A401C2062381EA7F10107F4DCD5
:1036F00007E0D4E9012118F805009047206A401C32
:103700002062281EA5F10105F3DC2046FFF743FDEA
:103710002078000602D50220BDE8F0870120FBE7F3
:1037200010B5436913B1AFF3008001E0FFF745FD29
:10373000012010BD127800F124010A7000224A70A5
:103740000122EDE711684FF0FF32E9E7074B70B552
:103750000D467B4400F02BF80446284600F074F830
:1037600010B14FF0FF3070BD204670BD6BEBFFFF16
:103770003A2800D2303820F02002412A01D3A2F1A9
:103780003700884201D34FF0FF307047034B7B4432
:103790009361034B7B44D36100F022B84DEBFFFFF4
:1037A0006B00000001694A1C02610878704700B58F
:1037B0008FB0CDE901310021059105497944CDE96A
:1037C000031011466846FFF75DFD0FB000BD000015
:1037D000E5FFFFFF02681144137801601846704747
:1037E000D16005497944516104497944116200214D
:1037F0001161114600F05AB8EDFFFFFFAD00000067
:10380000704710B54FF0FF34C1688A020FD5036BC3
:1038100042689A420BD1014690F82520104600F0EC
:10382000FDF9401C01D1204610BD002010BD11F053
:10383000C00FF8D1026941689142F4D90268521C64
:10384000491EC0E90021F0E7007B00F080007047CE
:10385000754600F00DFAAE4605006946534620F065
:103860000700854618B020B5FFF76EFBBDE8204085
:103870004FF000064FF000074FF000084FF0000B2C
:1038800021F00701AC46ACE8C009ACE8C009ACE8DF
:10389000C009ACE8C0098D46704710B5044600F079
:1038A000EBF90068005D00F0010010BD2DE9F34F59
:1038B0004FF0000A0C4656468DB001200C9001F1E5
:1038C0000C000B9062690B980121904705002DD0E8
:1038D000252D2CD0216A8847C0B162690B9801213F
:1038E0009047216A88470028F7D16269411E0B98EA
:1038F000904700E0761CA1690D988847216A8847A7
:103900000028F7D1E1690D988847DBE7A1690D9898
:103910008847A842074601D1761CD3E7E1690D9894
:1039200088477F1C02D1BAF1000F6FD06AE162694B
:103930000B9800273D46394690472A2804D16269F2
:103940000B98012190470125DFF8CC8262690B9822
:1039500001219047A0F130010A290AD24745E5DC50
:1039600007EB870100EB4107303FDFD445F010053E
:10397000ECE7E90601D46FF000476C280AD04C2828
:1039800014D0682815D06A280DD074281CD07A2845
:103990001AD01DE062690B98012190476C2802D073
:1039A00045F0040514E045F002050DE045F0200562
:1039B0000AE062690B9801219047682802D045F01F
:1039C000080505E045F4006562690B980121904700
:1039D000C4E9015765283DD019DC582879D00CDCA2
:1039E000452837D004DC252826D041289ED131E057
:1039F00046282FD0472899D12CE05B287FD061281A
:103A000028D063287BD0642890D159E0F5E06F2856
:103A100047D008DC66281DD067281BD0692821D034
:103A20006E2816D127E0702844D0732867D07528F7
:103A300046D078280DD14CE0A1690D9888472528FB
:103A400005463FF469AFE1690D9888476D1C3FF466
:103A50006AAFD7E00D9923466A466FF00100AFF3D5
:103A60000080C4E045F0400023464FF00002606053
:103A7000A80735D43DE0206800F10401216000680A
:103A8000290501D506701DE7290701D5068019E72C
:103A9000A90704D54FEAE671C0E9006112E70660A4
:103AA00010E745F0400023464FF008026060A80789
:103AB00016D41EE040F60E0125EA0100606016E013
:103AC00045F0400023464FF00A026060A80707D483
:103AD0000FE045F040006060A80708D5234610229B
:103AE0000D996FF00100AFF3008080E007E0102235
:103AF00023460D996FF00100FFF75CFC77E04FF073
:103B0000000963284F46C8464B46CB4602D05B2887
:103B100006D038E0E80601D40120A060012732E099
:103B20006269D4F80CB00B98012190475E2807D148
:103B30004FF0010949466269D4F80CB00B989047E0
:103B4000216939B900210B4603AA42F82130491CEA
:103B50000829FADBD8B3216949B308F10108626981
:103B60000B98012190475D28F4D1B9F1000F09D0DD
:103B7000002003A951F82020D24341F82020401C06
:103B80000828F7DB03AB2069002820794FEA407052
:103B90001ED05B462246CDF80080CDE901970D99F5
:103BA00000286FF0010020DAAFF300801FE0C1179A
:103BB00000EBD16203A9531122F01F0201EB830134
:103BC000821A0B680120904003430B60C7E719E09D
:103BD0000D99224600286FF00100009702DAAFF33A
:103BE000008004E0FFF78EFC01E0AFF300800028C6
:103BF0000ADA401C06D10C9820B14FF0FF300FB00C
:103C0000BDE8F08F5046FAE7E90701D10AF1010A51
:103C1000064400200C9055E6CCCCCC0CCA68431C62
:103C20000FD00D4B1A420CD1D3070AD081F82500D2
:103C30004B680B6300238B6012F0C06F0B6003D0E6
:103C400004E04FF0FF30704742F00072034B1A401F
:103C5000034B1A43CA60704780200800BFFFDFFF94
:103C6000001048000446AFF300802046FCF7E9FA54
:103C7000004870471001002010B500F005F8001D45
:103C800010BD00BF1D00000000487047300100203B
:103C900030380A2801D20120704700207047000008
:103CA00010B500290AD00878002807D005487844C4
:103CB000FFF796FC002801D0002010BD0248784490
:103CC00010BD00001A0900001209000010B591EAA9
:103CD000030F48BF83F0004300F14483841A71EB63
:103CE000030C05D2121943EB0C03001B61EB0C0112
:103CF000DFF824E14FEA1154A4EB135C1EEA430FF2
:103D000018BF9EEA445F73D023EA0E03DCF1200E55
:103D100021EA045143F4801332D322FA0CFE10EB53
:103D20000E0023FA0CFE41EB0E01CCF1200E03FA3B
:103D30000EFE10EB0E0051F10001B1F5801FCCF129
:103D4000200E32D201EB045112FA0EF2BDE81040FF
:103D500058BF7047401C38BF5FEA420218BF704727
:103D6000002814BF20F0010041F100014FEA410397
:103D700013F5001F38BF7047A1F1C04100F0E4BA4D
:103D8000012A43EB0302ACF1200CDCF11F0E32BF21
:103D90004FF0000E23FA0CF310EB030041EB04513B
:103DA000B4EB115FD0D0A1EB045101F580114908AB
:103DB0005FEA300001EB04510ED350F1000038BF30
:103DC00012FA0EFE08D1BDE81040C9E7401C38BF0A
:103DD0005FEA4202CAD1C3E7BDE810404FEA41039F
:103DE00013F5001F38BF7047A1F1C04100F0ACBA15
:103DF0009EEA445F08D011EA5E0FBDE8104004BFA0
:103E000001F0004100207047BDE8104070B500F09F
:103E10004DFA00BF64FBBE3E0000E0FF2DE9C0414B
:103E200030B4DFF8A0C23CEA111418BF3CEA131406
:103E300000F0EC8081EA03051CEA111444EAD57411
:103E400018BF1CEA131500F0C780A4EB05044FF05F
:103E5000004545EAC12145EAC32341EA505143EAFE
:103E6000525304F17F74994204F500344FEAC020A4
:103E70004FEAC22208BF904200F09C804FEA1365CF
:103E80000FF24016765D4FEA134506FB05F7C7F1C2
:103E9000807706FB07F74FEAD737A7FB0368764220
:103EA000C8F58038A7FB06CE38BFA8F1010807FB8C
:103EB00008E64FF0000EA6FB028CE6FB03CEDCF119
:103EC000000CCEF1004E38BFAEF1010EA6FB0C582F
:103ED0004FF000074FF00005E6FB0E87A1FB08C678
:103EE000A0FB07CE16EB0E0645F10005E1FB0765CA
:103EF00015F1E04E7EBFA4F580345FEA46066D41C1
:103F000016F1800745F100054FEA17274FEA0666CC
:103F100047EA0567A6F1DE46B6F1805F4FEA152550
:103F20001FD9384624F0010C05EBC471BCF1FE6FBB
:103F300001EB0C1102D8F0BCBDE8008124425CBF4B
:103F400001F5801E9EEAC47F02D4F0BCBDE800816A
:103F5000244238D4F0BCA1F1C041BDE8004100F0DA
:103F6000F3B94FEAD22242EA43524FEAD323A7FBE6
:103F700002864FEAD02040EA415007FB03661EEA62
:103F80000E0F4FEAD12105FB026658BFA6EB005683
:103F9000B6EB00564FEA520E4EEAC37E18EB0E0EF9
:103FA00056EB530EBDD518EB02085E417F1C55F150
:103FB0000005B6E74FF480154FF000074FF00006FC
:103FC0004FF00008ADE7F0BC4FF0000001F1C04138
:103FD00001F00041BDE8008111EA0C1F0CEA131545
:103FE00000D00CE013EA0C1F00F025804FF0000019
:103FF000F0BC81EA030101F00041BDE80081F0BCA2
:10400000BDE8004181EA030100F09EB9F0BCBDE8C3
:10401000004170B500F04AF9097EFC3E00F007B897
:1040200081EA03014FF0000001F00041704781EA8E
:10403000030100F089B9F0BCBDE800414FF0000079
:1040400021497047FFFDFBF9F7F5F4F2F0EEEDEBD7
:10405000E9E8E6E4E3E1E0DEDDDBDAD8D7D5D4D386
:10406000D1D0CFCDCCCBCAC8C7C6C5C4C2C1C0BFD2
:10407000BEBDBCBBBAB9B8B7B6B5B4B3B2B1B0AFD8
:10408000AEADACABAAA9A8A8A7A6A5A4A3A3A2A1BC
:10409000A09F9F9E9D9C9C9B9A9999989797969577
:1040A00095949393929191908F8F8E8E8D8C8C8B13
:1040B0008B8A89898888878786858584848383829B
:1040C000828181800000FF070000F87F4FEA4103F2
:1040D0004FEA5353A3F58063D3F11E03C8BFD3F156
:1040E000210C0CDD4FF0004242EAC12242EA50525C
:1040F00032FA03FC8CEAE17CACEBE1707047102BE8
:10410000C4BF0020704703F5787CBCF1FF3F04D0AA
:104110006FF0004282EA2100704770B500F0C6F8E7
:104120004992248000207047F2E710F0004248BF17
:104130004042B0FA80F310FA03F10AD0C3F11D0334
:1041400003F580634FEA415002EB035202EBD121A9
:1041500070474FF000007047DFF848C170B51CEAA7
:10416000111E1EBF1CEA13159EEA0C0F95EA0C0FD8
:1041700000F06F8081EA030423EA4C134EEAD47EF8
:1041800021EA4C1141F4801143F48013AE44A1FBA9
:10419000024CA0FB0365AEF17F7E361955EB0C0592
:1041A000A1FB034C4CF10003A0FB021C16EB0C0618
:1041B000654153F10003094218BF46F0010613F4AC
:1041C000007F0BD14FEA03314FEA0530340341EA57
:1041D000155140EA16506FF003020AE04FEAC3217E
:1041E0004FEAC520F40241EA555140EA56506FF0BB
:1041F000020202EB2E4201EB025585EACE710AD093
:104200005FEA440C18BF24F0004450F1000041F173
:10421000000120EAD47040F2FE7C624500D270BDFD
:10422000A84214BF4FF080444FF04044002E08BF16
:104230000024BEF1806FA8BFA1F1C041BDE870406D
:1042400080F282804FF0000001F1C04101F0004196
:1042500070479EEA0C0F0CEA131518BF95EA0C0F75
:1042600006D04FF0000081EA030E0EF0004170BD51
:1042700000F01CF88900013E00F007B800F009B812
:104280004FEA430C5FEA5C5C08D081EA030100F06E
:104290005BB84FEA410C5FEA5C5CF6D14FF000007E
:1042A000014970470000FF070000F87F0EF1020E81
:1042B0002EF0030E5EF8046B364205D4012A43EB60
:1042C000030515F5001F12D8012841EB010C1CF560
:1042D000001F0CD80ED14FEAD17C15F5001F0CEB56
:1042E0004C0C0CF1020C08BF4CEBD37C04E04FF0FB
:1042F000080C01E04FEAD37C0CEB4C0526FA05F6DE
:1043000006F00706B6F1040C06D20EEB860CBDE8EB
:1043100070404CF0010C6047DFE80CF0090B020222
:104320004FF000414FF00000A1F5002170BD19468B
:104330001046012851EB010418BFD4F5001484BFC6
:10434000002001F0004170BD0808A0F500114FEAFF
:104350003101704710B591EA030F48BF83F0004365
:104360003FF5BCAC841A71EB030C07D212198CF028
:10437000004C43EB0C03001B61EB0C01DFF8A4E1E4
:104380004FEA1154A4EB135C1EEA430F18BF9EEAD8
:10439000445F00F0B08023EA6E03524221EA0451E8
:1043A000C3EB6E0338BF5B1EDCF1200E25D322FA6F
:1043B0000CFE10EB0E0043FA0CFE41EB0E01CCF1AB
:1043C000200E03FA0EFE10EB0E0051F10001CCF1AD
:1043D000200E29D412FA0EF201EB0451BDE8104070
:1043E00058BF7047401C1CBFB2F1004F70470028F7
:1043F0000CBF491C20F00100704712EB020E43EB8A
:10440000030218BF4FF0010E4EEA4202ACF1200C3D
:10441000DCF11E0E54D943FA0CFE10EB0E0051F1E4
:10442000FF31CCF11E0ED5D50EF1010E12FA0EFEA3
:10443000404141EB010101EB445C5FEA5C5C10D957
:1044400010EBDE7001EB045138BFBEF1004FBDE848
:10445000104018BF704700280CBF491C20F0010015
:10446000704730D24FEAD42C11F5001124F40064C7
:104470001BD0B1FA81F20B3AA41AA41ED2F1200388
:10448000914030FA03F31943904001EBCC71002CBA
:1044900001EB0451BDE81040A8BF704701F1C041D5
:1044A0004FF0000001F000417047B0FA80F310FABD
:1044B00003F100D110BDE41A173C4805C90AE4E72E
:1044C00001EB045110BD491001EB0451BDE810404F
:1044D0004FEA300002E04FF0000170474A0008BF89
:1044E0000042F8D0B2F5001F28BF704701F000412C
:1044F0004FF0000070479EEA445F07D011EA5E0F5C
:10450000BDE8104004BF002100207047BDE8104006
:1045100070B5FFF7CBFE00BF40DFF63E83F00041F1
:10452000104670470000E0FF4FF04070E1EE100AC7
:10453000704700004C46202534647C4C44202534D0
:10454000647C4C53202534647C5253202534647C95
:104550005244202534647C5246202534647C4C45EA
:104560004E43202539647C52454E43202539647CD6
:10457000766F6C74616765202534647C616E676C4E
:1045800065202534647C63757272656E7453746142
:1045900074652025647C6C65667453706565642061
:1045A00025640D0A00000000D84600080000002025
:1045B000D0000000C4010008A8470008D000002077
:1045C000A0060000E0010008100100004300000008
:1045D000F8FFFFFF00404040404040404040414124
:1045E00041414140404040404040404040404040C8
:1045F0004040404040050202020202020202020262
:10460000020202020220202020202020202020025E
:1046100002020202020290909090909010101010EE
:10462000101010101010101010101010101010108A
:10463000020202020202888888888888080808081E
:1046400008080808080808080808080808080808EA
:104650000202020240000000000000000000000012
:10466000000000000000000000000000000000004A
:10467000000000000000000000000000000000003A
:10468000000000000000000000000000000000002A
:10469000000000000000000000000000000000001A
:1046A000000000000000000000000000000000000A
:1046B00000000000000000000000000000000000FA
:1046C00000000000000000000000000000000000EA
:1046D00000000000000000000000000001020304D0
:1046E00001020304060708090000000000000000A2
:1046F00000000000000000000000000000000000BA
:10470000000000000000000000000000C8000000E1
:10471000C80000002C010000C8000000C800000014
:104720001E0000001E00000001000000000000004C
:10473000E803000032000000000000005802000002
:104740005802000008070000DC050000000000001F
:104750000000000000000000000000000000000059
:104760000000000000000000E8030000000000005E
:104770000000000000000000000000000000000039
:104780000000000000000000000000000000000029
:1047900000000000007A030A000000000000000092
:0847A0000102030406070809E9
:040000050800018965
:00000001FF
