:020000040800F2
:10000000780C0020414A0008A11D0008A31D00082B
:10001000A51D0008A71D0008A91D0008000000007C
:10002000000000000000000000000000AB1D000800
:10003000AD1D000800000000AF1D0008B11D000844
:100040005B4A00085B4A00085B4A00085B4A0008FC
:100050005B4A00085B4A00085B4A00085B4A0008EC
:100060005B4A00085B4A00085B4A00085B4A0008DC
:100070005B4A00085B4A00085B4A00085B4A0008CC
:100080005B4A00085B4A00085B4A00085B4A0008BC
:100090005B4A00085B4A00085B4A0008CF1D000865
:1000A0005B4A00085B4A00085B4A00085B4A00089C
:1000B0005B4A00085B4A00085B4A00085B4A00088C
:1000C0005B4A00085B4A00085B4A00085B4A00087C
:1000D0005B4A00085B4A00085B4A00085B4A00086C
:1000E000111E00085B4A00085B4A00085B4A0008D2
:1000F0005B4A00085B4A00085B4A00085B4A00084C
:100100005B4A00085B4A00085B4A00085B4A00083B
:100110005B4A00085B4A00085B4A00085B4A00082B
:100120005B4A00085B4A00085B4A00085B4A00081B
:100130005B4A00085B4A00085B4A00085B4A00080B
:100140005B4A00085B4A00085B4A00085B4A0008FB
:100150005B4A00085B4A00085B4A00085B4A0008EB
:100160005B4A00085B4A00085B4A00085B4A0008DB
:100170005B4A00085B4A00085B4A00085B4A0008CB
:100180005B4A00085B4A000800F002F800F078F8CB
:100190000AA090E8000C82448344AAF10107DA45E2
:1001A00001D100F06DF8AFF2090EBAE80F0013F0BC
:1001B000010F18BFFB1A43F001031847C06B000082
:1001C000E06B00000A444FF0000C10F8013B13F004
:1001D000070408BF10F8014B1D1108BF10F8015BA0
:1001E000641E05D010F8016B641E01F8016BF9D193
:1001F00013F0080F1EBF10F8014BAD1C0C1B09D1EA
:100200006D1E58BF01F801CBFAD505E014F8016B5B
:1002100001F8016B6D1EF9D59142D6D370470000ED
:100220000023002400250026103A28BF78C1FBD8FF
:10023000520728BF30C148BF0B607047662906F0DF
:100240000885642904F06C85632905F00D82732903
:1002500005F01282002070471FB506F0F0FC05F093
:100260003BFA04000020002106F094F9401C606075
:100270000020002106F078F9E0601FBD10B510BD28
:1002800005F080FB1146FFF7E7FF01F03AFC05F0AF
:1002900083FD03B4FFF7F2FF03BC01F0B7FF0000DA
:1002A0002749084327490860704770B50F23C27873
:1002B000017801254FF0E026E2B1224A126802F4EB
:1002C000E062C2F5E062C2F30722C2F10404D34047
:1002D0004278A24084781C401B4B14432201CA542C
:1002E000007800F01F018D40400906EB8000C0F847
:1002F000005170BD01F01F008540480906EB8000E9
:10030000C0F8805170BD114A114001430D48001FD3
:10031000016070470B4A121D0029116801D001438A
:1003200000E08143116070474FF0E0210428086924
:1003300003D020F004000861704740F00400FAE7A1
:100340000000FA050CED00E000E400E080FFFF1F74
:1003500010B501210C02204600F07DFC2046BDE8CE
:100360001040002100F077BC30B54268C44B0C79D6
:100370001A400B6842EA0422134343608268C14B6F
:100380004D791A40D1E9034323438C6844EA45047C
:10039000234313438360C26A097D22F47002491E1D
:1003A000C9B242EA0151C16230BD00210160017150
:1003B00041718160C1600161012101757047B24BDB
:1003C00010B51A68B1490A40D0E900142143D0E9B8
:1003D0000240044321431143196010BD0021016014
:1003E00041608160C16070470029816802D041F09E
:1003F000010101E021F00101816070474268A44BD6
:100400001A400A4342607047416282627047426804
:1004100022F01F020A43426070479E490028D1F82B
:10042000040302D040F4000001E020F40000C1F811
:100430000403704797490028D1F8040302D040F420
:10044000800001E020F48000C1F80403704770B51B
:10045000072609290AD9C568A1F10A0404EB440456
:10046000A640B543A3401D43C56007E0056901EB05
:100470004104A640B543A3401D4305611F23072A3D
:1004800009D2446B521E02EB820293409C4391407E
:100490000C43446370BD0D2A09D2046BD21F02EBDA
:1004A000820293409C4391400C43046370BDC46A34
:1004B0000D3A02EB820293409C4391400C43C4628C
:1004C00070BD816841F08041816070470146002025
:1004D0008968490200D5012070470029816802D04F
:1004E00041F4806101E021F480618160704700295E
:1004F000816802D041F0020101E021F00201816037
:1005000070474268491E22F4604242EA413141602C
:1005100070470029416802D041F4006101E021F4F4
:10052000006141607047C06C80B270475648001D42
:10053000006870470029816802D041F4807101E0B1
:1005400021F48071816070470029816802D041F4F4
:10055000007101E021F40071816070474D4900286D
:10056000D1F8040302D040F4005001E020F4005020
:10057000C1F80403704770B5072609290AD9C56870
:10058000A1F10A0404EB4404A640B543A3401D4373
:10059000C56007E0056901EB4104A640B543A340EF
:1005A0001D430561836BC3F30154121B921C02EBC4
:1005B00082021F249440A34391400B43836370BD88
:1005C000826B491E22F4401242EA01518163704756
:1005D00042507047826822F470220A43826070475A
:1005E000826822F440120A4382607047816841F4B5
:1005F000800181607047014600208968490200D56A
:10060000012070470029416802D041F4806101E077
:1006100021F48061416070470029416802D041F4B3
:10062000805101E021F48051416070470844806AA4
:1006300080B2704701238B4041680AB1194300E042
:100640009943416070470246002012680A4200D078
:1006500001207047C9430160704730B50246002051
:1006600054680B0A01258D4011682C40194202D0B4
:10067000002C00D0012030BD6FEA112101607047CD
:10068000FFFEFFFCFDF7FFC004230140E030FCFF4C
:10069000FFFD3FFF00200140374900200860091D91
:1006A0000860091D0860091D08603349334814318A
:1006B0000860704730B5304A8379016853B31368D6
:1006C0008B431360111D0B680468A3430B60017911
:1006D00011440B68046823430B60274B08331968E7
:1006E0000468A14319601C1D21680568A9432160A5
:1006F0004179102905D011440A68006802430A6054
:1007000030BD19680268114319602168006801430F
:10071000216030BD0079104402688A43026030BD18
:100720000021016001710C224271817170471249F0
:1007300010310A6802430A60704701460E4A0020E1
:10074000143212680A4200D0012070470A4914315D
:1007500008607047084A014600201268064B0A40AC
:1007600014331B680B4202D0002A00D001207047CE
:100770000149143108607047003C0140FFFF7F00D1
:100780006F4910B5884206D10121084600F03BFAB6
:10079000002101204FE06B49884206D1012102204F
:1007A00000F031FA0021022045E06749884206D175
:1007B0000121042000F027FA002104203BE06349D6
:1007C000884206D10121082000F01DFA00210820EE
:1007D00031E05F49884206D10121102000F013FA70
:1007E0000021102027E05B49884206D1012120200A
:1007F00000F009FA002120201DE05749884206D167
:100800000121402000F0FFF90021402013E053496E
:10081000884206D10121802000F0F5F900218020D6
:1008200009E04F4988420AD184150121204600F091
:10083000EAF900212046BDE8104000F0E4B910BDFF
:10084000F0B5002201274FF0030C0B6807FA02F500
:100850002B40AB422CD1066853000CFA03F4A6439C
:1008600006600E79D0F800E09E4046EA0E0606606B
:100870000E79012E01D0022E12D18668A643866021
:100880004E79D0F808E09E4046EA0E06866046683B
:10089000AE43466045688E799640B6B235434560B2
:1008A000C568A543C560CC799C40C3681C43C4603F
:1008B000521C102AC9D3F0BD4FF6FF710160002110
:1008C000017141718171C171704741F48032C2611F
:1008D000C161C261C169C0697047024600201269E6
:1008E0000A4200D001207047006980B2704702467A
:1008F000002052690A4200D001207047406980B24E
:10090000704701837047418370470AB10183704784
:10091000418370474161704742694A404261704774
:100920004B07DB0E9A40C90810B500EB8100016A45
:100930000F249C40A1430162016A1143016210BD72
:10094000000002400004024000080240000C024087
:10095000001002400014024000180240001C024037
:1009600000200240E948016841F001010160E74AC6
:100970000021083211600268E54B1A400260031D35
:10098000E44A1A60026822F480220260DF480C30D8
:1009900001607047DD490022891C0A7008707047A9
:1009A00002460020510901290CD002290CD0D74958
:1009B0007431096802F01F02012393400B4200D0FA
:1009C00001207047D149F4E7D0497031F1E730B5E3
:1009D00000244FF4A0653120FFF7E2FF641CAC4215
:1009E00001D00028F7D03120FFF7DAFF002800D02F
:1009F000012030BDC54A116821F0F80141EAC0006C
:100A000010607047C44908607047C04900227031C7
:100A10000A700A70012802D0042801D1052008704C
:100A20007047BE490860704741EA82115A0810B504
:100A3000BB4B029C03EB02421143014341EA0460B9
:100A4000B249091D086010BDB349086670478001AE
:100A500040EA0170AD49843108607047AE4988664C
:100A60007047AD49C8647047A84B08331A680843FB
:100A700022F0EC62104318607047A44B08331A68E8
:100A8000084322F078421043186070479F4A0832AA
:100A9000116821F003010143116070479B48083041
:100AA000006800F00C007047984A0832116821F085
:100AB000F001014311607047944A0832116821F433
:100AC000E051014311607047904A0832116821F4E7
:100AD000604141EAC0001060704770B58B4B08332D
:100AE0001968904C11F00C0104D06610042903D051
:100AF000082903D004601BE0066019E0834A121D38
:100B00001168C1F38055116801F03F0115B1B6FBC2
:100B1000F1F101E0B4FBF1F114681268C4F3881438
:100B20006143C2F30142521C5200B1FBF2F1016079
:100B300019687D4A01F0F0010909545C0168E1403F
:100B400041601C6804F4E054A40A145D21FA04F422
:100B500084601B6803F460435B0BD25CD140C160CE
:100B600070BDC0F30121032908D1684B083319680F
:100B70006E4A21F4F81102400A431A606349703149
:100B80000A68C0F30B0002430A60704763494439A6
:100B900008607047614940390860704764490860DF
:100BA00070475A4A30320029116801D0014300E0F1
:100BB000814311607047554A34320029116801D0D1
:100BC000014300E0814311607047504A38320029E8
:100BD000116801D0014300E08143116070474B4A26
:100BE00040320029116801D0014300E081431160C7
:100BF0007047464A44320029116801D0014300E0A1
:100C0000814311607047414A10320029116801D0B8
:100C1000014300E08143116070473C4A14320029CF
:100C2000116801D0014300E0814311607047374AE9
:100C300018320029116801D0014300E0814311609E
:100C40007047324A20320029116801D0014300E088
:100C50008143116070472D4A24320029116801D068
:100C6000014300E0814311607047284A5032002957
:100C7000116801D0014300E0814311607047234AAD
:100C800054320029116801D0014300E08143116012
:100C900070471E4A58320029116801D0014300E014
:100CA000814311607047194A60320029116801D0F0
:100CB000014300E0814311607047144A6432002907
:100CC000116801D0014300E08143116070470F4A71
:100CD0000D320029117801D0014300E081431170E9
:100CE00070470A487430016841F0807101607047B4
:100CF0000146064A00200C3212680A4200D0012048
:100D0000704702490E3108707047000000380240F9
:100D1000FFFFF6FE1030002400004742800E4742DD
:100D20000000FFFF0024F40000000020FFFCFF0F84
:100D30005C01474210B501218C032046FFF78BFF71
:100D40002046BDE810400021FFF785BF114908602B
:100D5000704710B58A0721F00304120F0F230D49C5
:100D60009340083121440C689C430C600B68904010
:100D700003430B6010BD08490860704707490860CD
:100D800070470449002020310968C90500D50120B9
:100D90007047000000380140DC0027420004274271
:100DA000FE4910B5884206D101210846FFF753FFDE
:100DB000002101205BE0B0F1804F09D0F849884262
:100DC0000DD101210220FFF73CFF0021022070E03D
:100DD00001210846FFF735FF0021012069E0F149B4
:100DE000884206D101210420FFF72BFF00210420B7
:100DF0005FE0ED49884206D101210820FFF721FF7D
:100E00000021082055E0E949884206D1012110203F
:100E1000FFF717FF002110204BE0E549884206D17B
:100E200001212020FFF70DFF0021202041E0E149B2
:100E3000884206D101210220FFF70DFF0021022088
:100E400015E0DD49884202D101210C040AE0DB49AA
:100E5000884202D101214C0404E0D94988420AD1D8
:100E600001218C042046FFF7F6FE00212046BDE854
:100E70001040FFF7F0BED349884206D1012140203F
:100E8000FFF7DFFE0021402013E0CF49884206D162
:100E900001218020FFF7D5FE0021802009E0CB4909
:100EA00088420AD1841501212046FFF7CAFE00219D
:100EB0002046BDE81040FFF7C4BE10BD30B5028823
:100EC000B64CBC4DA0420DD0A8420BD0B0F1804F23
:100ED00008D0B34B984205D0B24B984202D0B24BE7
:100EE000984203D122F070034A881A43AF4B9842CC
:100EF00006D0AF4B984203D022F440730A891A43BC
:100F000002804A68C2620A880285A04201D0A842D3
:100F100001D1897A01860121818230BD4FF0FF31F4
:100F2000416000210180018141808172704701850B
:100F300082827047028822F070020A430280704762
:100F400041627047C1627047406A7047008D7047C8
:100F50000029018802D041F0020101E021F00201E4
:100F6000018070470029018802D041F0040101E0AE
:100F700021F00401018070470029018802D041F06E
:100F8000800101E021F0800101807047028822F099
:100F90000802028002880A4302807047028822F415
:100FA0004072028002880A4302807047002901884B
:100FB00002D041F0010101E021F001010180704700
:100FC00030B5028C22F001020284028C8388048BEB
:100FD00022F0020224F073050C882C438D891543FE
:100FE0004A882A436D4DA84202D0724DA8420DD1C5
:100FF00022F00805CA8923F440732A4322F004052D
:101000008A882A430D8A1D434B8A2B43838004839D
:1010100089684163028430BD70B5028C22F01002F1
:101020000284028C8388048B0D8824F4E6464FF6F4
:10103000FF7404EA052535438E8922F0200204EA74
:10104000061616434A8804EA02123243534EB0424F
:1010500002D0584EB04215D122F08006CA8923F43E
:10106000406304EA0212324322F040068A8804EA0E
:10107000021232430E8A04EA86061E434B8A04EAB1
:10108000830333438380058389688163028470BD51
:1010900070B5028C22F480720284028C8388848B67
:1010A0000D8824F0730425438E894FF6FF7422F4D3
:1010B000007204EA062616434A8804EA02223243F2
:1010C000364EB04202D03B4EB04215D122F40066FB
:1010D000CA8923F4405304EA0222324322F4806690
:1010E0008A8804EA022232430E8A04EA06161E4364
:1010F0004B8A04EA03133343838085838968C16381
:10110000028470BD70B5028C22F480520284058C7A
:101110008288838B0C8823F4E6464FF6FF7303EA3C
:101120000424344325F400568D8903EA05353543FC
:101130004E8803EA06362E43184DA84202D01D4DB4
:10114000A84205D122F480450A8A03EA82122A4382
:101150008280848389680164068470BD00210180D7
:101160004180818081608181C1810182418270479B
:1011700030B50124058C00F118038C40A54305848B
:1011800031B308292CD0091FC1F34E00184401685F
:1011900048F6FF731940016001681AE00000014041
:1011A0000004004000080040000C00400010004017
:1011B0000014004000040140004001400044014090
:1011C0000048014000180040001C00400020004082
:1011D00006E04FF6FF7303EA02221143016030BDBF
:1011E00003EB510001684FF68F73194001600168ED
:1011F000F3E74163704781637047C16370470164DF
:101200007047028B22F070020A4302837047028B00
:101210004FF6FF7322F4E04203EA012111430183F8
:101220007047828B22F070020A4382837047828B60
:101230004FF6FF7322F4E04203EA01211143818358
:101240007047028B22F008020A4302837047028B28
:101250004FF6FF7322F4006203EA01211143018378
:101260007047828B22F008020A4382837047828B88
:101270004FF6FF7322F4006203EA012111438183D8
:101280007047028B22F004020A4302837047028BEC
:101290004FF6FF7322F4806203EA012111430183B8
:1012A0007047828B22F004020A4382837047828B4C
:1012B0004FF6FF7322F4806203EA01211143818318
:1012C0007047028B22F080020A4302837047028B30
:1012D0004FF6FF73C2F30E0203EA012111430183AB
:1012E0007047828B22F080020A4382837047828B90
:1012F0004FF6FF73C2F30E0203EA0121114381830B
:101300007047028C22F002020A4302847047028C6A
:1013100022F008020A4302847047028C4FF6FF73E2
:1013200022F0200203EA0111114301847047028C6C
:101330004FF6FF7322F0800203EA0111114301848A
:101340007047028C4FF6FF7322F4007203EA01210A
:10135000114301847047028C4FF6FF7322F4006240
:1013600003EA0121114301847047028C4FF6FF7399
:1013700022F4005203EA013111430184704710B591
:101380000123048C8B409C430484038C8A401343C8
:10139000038410BD10B50423048C8B409C4304844B
:1013A000038C8A401343038410BD828B22F4406275
:1013B0008283828B4FF6FF7303EA01210A43828303
:1013C0007047828B22F00C028283828B0A438283D5
:1013D0007047028B22F440620283028B4FF6FF7348
:1013E00003EA01210A4302837047F0B5048C24F01C
:1013F00010040484078B068C4FF6FF7404EA011571
:1014000027F4734704EA0331394304EA02220A430A
:1014100026F0A001294341F0100102830184F0BDB0
:10142000028B22F00C020283028B0A430283704774
:101430002DE9F0410C460E884988A288238905468B
:101440000EB3042E26D0082E2E8C4FF6FF7028D017
:1014500026F480562E84AF8B2E8C00EA022200EAFE
:10146000013127F473473A4300EA0330104326F46E
:1014700020420A4342F48051A8832984E188284607
:10148000BDE8F04191E700F061F9E1882846BDE848
:10149000F041C5E7FFF7A9FFE1882846BDE8F04124
:1014A00097E726F480762E84AF8B2E8C00EA0121FC
:1014B00000EA0310104327F0F307384326F42062B4
:1014C0000A4342F48071A8832984E1882846BDE854
:1014D000F04176E700210180418001228280C180B5
:1014E000018170472DE9F0410C46002549880746E7
:1014F000012601B90225A288012A00D102262088EE
:1015000023890028384610D0FFF76FFFE18838465E
:10151000FFF75FFF238932462946384600F016F967
:10152000E1883846BDE8F0417AE700F00FF9E1883C
:101530003846FFF775FF2389324629463846FFF7BC
:1015400054FFE1883846BDE8F04142E7406B704700
:10155000806B7047C06B7047006C704710B50A888D
:101560004B88CC881A438B8823431A430B891A4330
:101570004B8989891A430A43A0F8442010BD0021F1
:10158000018041808180C1800181418181817047DA
:10159000002930F8441F02D041F4004101E0C1F3BA
:1015A0000E01018070470029818802D041F00401BA
:1015B00001E021F00401818070470029818802D078
:1015C00041F0010101E021F0010181807047002A12
:1015D000828901D00A4300E08A4382817047818278
:1015E000704702460020128A0A4200D0012070474C
:1015F000C94301827047034600201A8A9B890A4228
:1016000003EA010302D0002B00D001207047C94338
:10161000018270471143A0F848107047002A828960
:1016200001D00A4300E08A43828170470029818803
:1016300002D041F0080101E021F0080181807047EB
:10164000018921F0070101817047028922F07002AF
:101650000A430281704700B50346FFF7F6FF188979
:1016600040F00700188100BD70B50D4611460446D4
:10167000602D4FF001020AD000F068F8294620469C
:10168000FFF7E3FF208940F00700208170BDFFF7DE
:10169000ACFEF3E730B504894FF6FF7505EA032386
:1016A0001343E4B20B432343038130BD10B504461A
:1016B000FFF7F0FF208940F07700208110BD10B5C2
:1016C0000446FFF7E7FF208940F48040208110BDE9
:1016D000828822F07002828082880A43828070476A
:1016E000028922F00702028102890A4302817047BF
:1016F000028922F08002028102890A430281704736
:1017000070B50589048B068C25F007050D434FF64F
:10171000FC410C4040F201110C434FF6FF7101EA0D
:10172000031126F02206114331430581048301840D
:1017300070BD0029818802D041F0800101E021F0D4
:10174000800181807047A0F85010704770B5048CFC
:1017500024F001040484058B048C4FF6FF7606EA1E
:101760000313134325F0F3052B4324F00A020A4325
:1017700042F001010383018470BD0000CA4910B525
:10178000884206D101211020FFF765FA00211020C0
:1017900028E0C649884202D101214C0410E0C44926
:1017A000884202D101218C040AE0C249884202D158
:1017B0000121CC0404E0C04988420AD101210C0572
:1017C0002046FFF73EFA2046BDE810400021FFF713
:1017D00038BABA49884209D101212020FFF73BFAE3
:1017E00000212020BDE81040FFF735BA10BD7FB5BD
:1017F0000446008A0D46C98820F4405001432182E6
:10180000A08941F20C618843A9882A8911436A8919
:1018100002431143A181A08A20F44071A8890843A2
:10182000A0826846FFF759F99F48844202D0A34836
:10183000844201D1039800E00298A189090400299B
:1018400000EBC00101EB0010296802DA4FEA410108
:1018500001E04FEA8101B0FBF1F06422B0FBF2F14C
:101860004FEA01114FEA11136FF018056B4300EBBB
:101870008300A3891D044FF0320306D503EBC0009B
:10188000B0FBF2F000F0070005E003EB0010B0FB46
:10189000F2F000F00F00084320817FBD4FF4165195
:1018A000016000218180C18001810C2242818181FF
:1018B000704710B5028A4C8822F470630A8822436C
:1018C0008C88C9880C4322431A43028210BD002130
:1018D000018041808180C18070470029818902D0C8
:1018E00041F4005101E021F4005181817047028BE5
:1018F00002F47F420283028B0A430283704700296D
:10190000818902D041F4004101E0C1F30E018181DF
:1019100070470029818A02D041F4006101E021F47E
:10192000006181827047C1F308018180704780881F
:10193000C0F308007047028A22F00F020282028A76
:101940000A43028270470029818902D041F00201D6
:1019500001E021F0020181817047828922F4006256
:10196000828182890A4382817047028A22F02002A2
:101970000282028A0A43028270470029018A02D049
:1019800041F4804101E021F4804101827047818966
:1019900041F00101818170470029818A02D041F024
:1019A000080101E021F0080181827047028BD2B268
:1019B0000283028B42EA0121018370470029818A58
:1019C00002D041F0200101E021F020018182704726
:1019D0000029818A02D041F0100101E021F01001BC
:1019E00081827047828A22F004028282828A0A43BC
:1019F000828270470029818A02D041F0020101E011
:101A000021F0020181827047002A828A01D00A43B4
:101A100000E08A438282704710B5C1F3421301F09F
:101A20001F040121A140012B07D0022B07D0143045
:101A3000002A026805D00A4304E00C30F8E71030B1
:101A4000F6E78A43026010BD0246002012880A426F
:101A500000D001207047C9430180704770B501F084
:101A60001F0501260024C1F3421306FA05F2012BDB
:101A70000FD0022B0FD0838A4FEA11210088134226
:101A800006FA01F600EA060001D000B10124204662
:101A900070BD8389F0E7038AEEE70A0A01219140CD
:101AA000C94301807047000000100140004400401D
:101AB00000480040004C004000500040001401402D
:101AC00010B501F033F8904C207958B1207808B166
:101AD00000F0F0FE607808B100F0EDFFA07808B1EA
:101AE00001F089FF607900280AD0207808B100F061
:101AF000E1FEA078002803D0BDE8104001F07BBFD4
:101B000010BD00F0AFF900F01FFA00F083FA4FF4B7
:101B1000165000F02BFB00F01BFD00F0D7FD00F08D
:101B200051FD00F043FE794D4FF480542146284684
:101B3000FEF7E9FE61002846FEF7E5FEA100284613
:101B4000FEF7E1FEE1002846FEF7DDFE704D402184
:101B50002846FEF7D8FE80212846FEF7D4FE042151
:101B60006C48FEF7D0FE21462846FEF7CCFE211138
:101B70006948FEF7C8FEE1102846FEF7C4FE4FF4A0
:101B80007A74204600F0ABF92146C82000F081FDB0
:101B90005D4801214FF4C872C1704FF461718160DA
:101BA000C821C1608C21C0E905125022C0E907217B
:101BB0003C214162642181633221C1636FF04501A0
:101BC0000164462141646FF09D0181649E21C164DE
:101BD0004FF4C861816240F29651C16261100163A5
:101BE00041630A2000F07BF9FBE710B54B482DED6F
:101BF000028B8EB0006804F0B1FF41EC180B00F0CE
:101C0000B5FD044600F0B6FD4549474B0A68454915
:101C10001B6809680A93CDE90B12444A44498DEDCB
:101C2000088B12680968CDE90304CDE90512414823
:101C30004149424A0068096812680092CDE90110E2
:101C40003F4803683F4802683F4801683F4803F047
:101C500009F80EB0BDEC028B10BD4FF4FA71C8202C
:101C600000F017FD4FF47A7000F039F938A002F057
:101C7000F9FF2E490020086000F01CFE00F0C8FFAC
:101C8000FFF7B3FF022000F02AF9F5E710B54FF493
:101C9000FA71C82000F0FDFC4FF47A7000F01FF9D3
:101CA00030A002F0DFFF184945F6C0500861BDE8DA
:101CB000104001F081B910B54FF4FA71C82000F05E
:101CC000E8FC4FF47A7000F00AF92BA002F0CAFF8A
:101CD0000D494FF4C840086102F054FE02F092FD35
:101CE000BDE8104002F0CBB810B54FF4FA71C8202F
:101CF00000F0CFFC4FF47A7000F0F1F8BDE810402E
:101D000022A002F0AFBF00001C000020000402402F
:101D100000080240000C024000000240EC000020DD
:101D2000740100206C01002068010020E800002000
:101D3000C8000020D0000020D8000020E0000020D3
:101D4000DC000020D4000020CC000020586C0008EB
:101D5000427574746F6E20302070726573736564A1
:101D60000A0D0000427574746F6E20312070726528
:101D7000737365640A0D0000427574746F6E2032CF
:101D800020707265737365640A0D00004275747487
:101D90006F6E203320707265737365640A0D0000E6
:101DA0007047FEE7FEE7FEE7FEE7704770477047C3
:101DB00029480168491C016028490868002802DA9E
:101DC000274B00221A60401E0860FFF779BE70B5ED
:101DD0002020FEF7BFFC4FF4967438B1204600F087
:101DE0007EF8FFF73AFF2020FEF7C2FC4FF4807523
:101DF0002846FEF7AFFC002809D0204600F06FF817
:101E0000FFF772FF2846BDE87040FEF7B1BC70BD19
:101E100070B54FF400652846FEF79CFC4FF49674AD
:101E200038B1204600F05BF8FFF730FF2846FEF798
:101E30009FFC4FF480552846FEF78CFC002809D003
:101E4000204600F04CF8FFF736FF2846BDE870400A
:101E5000FEF78EBC70BD0000A8000020BC00002072
:101E60003404004070B502F08AFE02F0ADFE324844
:101E70004FF47A710068B0FBF1F0401EB0F1807F42
:101E800016D24FF0E024606166170F21304600F053
:101E900047F80025A561072020614FF44070FEF748
:101EA000FFF90021304600F03BF82448456070BD42
:101EB000FEE74FF0E0208069A821B0FBF1F21F4956
:101EC000486800EB4003C3EBC010C2EBC00000F554
:101ED0007A7008600868704718484068704717496A
:101EE0004A684B689B1A8342FBD1704730B5054660
:101EF000FFF7DFFF0446FFF7DCFF001BA842FAD123
:101F000030BD30B50C460546FFF7D3FF001BA84295
:101F1000FAD330BD094A53685B1A8342FBD370473A
:101F20000907090E002803DA00F00F00044A00E058
:101F3000044A81547047000080010020A400002062
:101F400014ED00E000E400E07CB501210846FEF756
:101F500028FE01210220FEF724FE01210420FEF7C5
:101F600020FE01210820FEF71CFE4FF48070009037
:101F700001208DF8040000208DF8060003218DF863
:101F800005108DF8070069461E48FEF759FC4FF40E
:101F900090501D4D009069462846FEF751FC0420E4
:101FA000009069461948FEF74BFC4FF47040184EFC
:101FB000022400908DF8074069463046FEF740FC49
:101FC000C02000908DF8074069462846FEF738FC8F
:101FD00040212846FEF797FC80212846FEF793FC17
:101FE000E1023046FEF78FFC21033046FEF78BFC02
:101FF00061033046FEF787FCA1033046FEF783FC01
:102000007CBD00000000024000080240000C0240BD
:10201000000402402DE9F047012186B08803FEF755
:10202000E8FD01210720FEF7BCFD00248DF81040DB
:1020300020258DF8134003A949480395FEF700FCBD
:1020400005210120FEF785FE00958DF80440082645
:102050008DF8056001258DF806506846FEF72AFBCD
:102060004FF017098DF808908DF809508DF80A4047
:102070008DF80B5002A8FEF718F9DFF8E8A08DF8EC
:102080001040EF028DF8134003A950460397FEF766
:10209000D7FB0B210020FEF75CFE8DF804408DF885
:1020A000056000978DF806506846FEF703FB282769
:1020B0008DF808708DF809508DF80A408DF80B5096
:1020C00002A8FEF7F2F88DF810404FF480588DF812
:1020D000134003A95046CDF80C80FEF7B1FB0C214C
:1020E0000020FEF736FE8DF804408DF80560CDF82F
:1020F00000808DF806506846FEF7DCFA8DF808700F
:102100008DF809508DF80A408DF80B5002A8FEF7A3
:10211000CCF88DF810402F028DF8134003A9124817
:102120000397FEF78DFB08210220FEF712FE8DF8C3
:1021300004408DF8056000978DF806506846FEF75C
:10214000B9FA8DF808908DF809508DF80A408DF88D
:102150000B5002A8FEF7A9F806B0BDE8F087000012
:1021600000040240000002400008024070B506462C
:1021700088B001210220FEF714FD01211020FEF796
:1021800038FD6D4D072209212846FEF7C9FB0722BD
:102190000A212846FEF7C4FB00248DF816400120D2
:1021A0008DF8170002218DF814104FF4C0600490D0
:1021B0008DF8151004A92846FEF742FB5F4D01215A
:1021C0002846FFF79CFBADF808400C20ADF80A004C
:1021D000ADF80440ADF80640ADF818402815ADF84C
:1021E0001A00ADF81E400096ADF80C40ADF81C404A
:1021F00069462846FFF7FBFA06A92846FFF759FB70
:1022000001212846FFF769FB08B070BD0020704728
:1022100070B54A4D0446C1B22846FFF784FB8021C1
:102220002846FFF711FC0028F9D0204670BD43482E
:1022300001888906FCD58088C0F30800704770B516
:102240003E4D044680212846FFF7FEFB0028F9D0CA
:10225000A1B22846FFF767FB204670BD10B538A035
:1022600002F000FD354C20212046FFF7EDFB002851
:10227000F9D02046FFF75BFBC0B210BD10B539A006
:1022800002F0F0FC2D4C20212046FFF7DDFB00285A
:10229000F9D02046FFF74BFB01463AA002F0E2FCE2
:1022A0002046FFF744FBC0B210BD10B537A002F0C6
:1022B000D9FC224C20212046FFF7C6FB0028F9D08C
:1022C0002046FFF734FBA0F1300137A002F0CAFC32
:1022D0002046FFF72CFB303810BD10B504460146F0
:1022E00086B033A001E0214638A002F0BBFC69466D
:1022F00041A002F0D9FD694640A002F0B3FC21469E
:10230000684602F0F7FE0028EDD106B010BD38B5E2
:10231000044601463BA001E0214641A002F0A2FC98
:1023200069464AA002F0C0FD1FA0009902F09AFC85
:10233000009AA242F0D138BD0000024000100140D6
:102340000D0A707265737320616E79206B65792058
:10235000746F20636F6E74696E75652E2E2E0D0A74
:102360000D0A0000706C6561736520656E7465729E
:102370002061206368617261637465722E2E2E0D78
:102380000A00000025630D0A00000000706C656102
:10239000736520656E746572206120646967697475
:1023A0002E2E2E0D0A00000025640D0A00000000EC
:1023B000507265737320257320746F20436F6E74A1
:1023C000696E75652E2E2E203A000000496E7661EA
:1023D0006C696420696E7075742C207072657373FB
:1023E00020257320746F20436F6E74696E75652E9F
:1023F0002E2E203A000000002573000025730D0AE0
:1024000000000000507265737320256420746F20F3
:10241000436F6E74696E75652E2E2E203A00000093
:10242000496E76616C696420696E7075742C2070D9
:102430007265737320256420746F20436F6E746916
:102440006E75652E2E2E203A0000000025640000D7
:102450001CB501210420FEF7C2FB4FF47070009000
:1024600002208DF8040003208DF8050000208DF86F
:102470000600504C8DF8070069462046FEF7E0F94B
:10248000022206212046FEF74BFA022207212046AF
:10249000FEF746FA022208212046FEF741FA022200
:1024A00009212046FEF73CFA1CBDF0B589B040F288
:1024B000E73006900320ADF8140000263E4FADF83B
:1024C0001C60ADF8166005A93846FEF7F7FC6020E1
:1024D0003A4DADF800000124ADF802402888029082
:1024E000ADF80C6069463846FEF76AFD08213846AB
:1024F000FEF7A7FEADF802406888029069463846AC
:10250000FEF78AFD08213846FEF7A1FEADF802402D
:10251000A888029069463846FEF7BAFD0821384679
:10252000FEF79FFEADF80240E88802906946384603
:10253000FEF7E8FD08213846FEF799FE01213846EE
:10254000FEF71AFD01213846FEF730FD09B0F0BD57
:1025500010B5FFF77DFFBDE81040A6E718490968F0
:10256000884200DD08464942884200DA0846124A9D
:1025700000233432111D002802DB10600B6070470D
:1025800013604042086070470D490968884200DDC9
:1025900008464942884200DA0846074B00223C338D
:1025A000191D002802DB1A6008607047404218605D
:1025B0000A6070470004024000080040B400002098
:1025C0002400002030B58BB001210220FEF707FB6C
:1025D0004020059002208DF8180003218DF8191075
:1025E00000248DF81A40354D8DF81B0005A92846AA
:1025F000FEF726F9022206212846FEF791F99520DA
:1026000008908B20ADF81C002D4DADF82440ADF89E
:102610001E4007A92846FEF751FC6020ADF80000D7
:102620000120ADF802000294ADF80C40694628463E
:10263000FEF7C6FC08212846FEF703FE01212846C6
:10264000FEF79AFC01212846FEF7B0FC0BB030BD26
:102650002DE9F04105461B498C2068430860184E5F
:1026600095202C3630600024154FA04634370CE0FE
:102670003068401CC00838604620FFF730FCC7F8BF
:1026800000804620FFF72BFC641CAC42F0DBBDE869
:10269000F0810B4A10B52C321368094C5B1C9B0867
:1026A00034342360084B93FBF1F18C2391FBF3F15D
:1026B000491E11600349086010BD0000000002407F
:1026C00000040040BC00002000BD01057CB50121D4
:1026D0000920FEF784FA02208DF8040001208DF80D
:1026E000070048F203002E4C009069462046FEF792
:1026F000A7F808212B4D009169462846FEF7A0F85F
:10270000022200212046FEF70BF902220121204679
:10271000FEF706F901220F212046FEF701F90122FA
:1027200003212846FEF7FCF81F4C4FF0FF352946E1
:102730002046FEF707FC29464FF080452846FEF765
:1027400001FC0223002203212046FEF7D9FF0023CB
:102750001A4603212846FEF7D3FF01212046FEF743
:1027600025FC01212846FEF721FC7CBD0E482430C3
:10277000006870474FF08040406A70470A49002067
:102780002431086070474FF0804100204862704754
:1027900005492431086070474FF080414862704716
:1027A0000000024000040240000C004070B501210E
:1027B0008CB00802FEF71DFABC20032500908DF8AE
:1027C000045000248DF8074069463648FEF738F873
:1027D000354E8DF8045000958DF807406946304617
:1027E000FEF72EF88DF804503020304D00908DF813
:1027F000074069462846FEF723F84FF48030CDE9BC
:1028000008404FF47060CDE90A4008A8FDF7D7FDF5
:102810008DF80C4002948DF80D400594069401202B
:10282000234C8DF81C0002A92046FDF79DFD0122D6
:1028300040F205212046FDF7FDFE01212046FDF76F
:10284000D3FDA1143046FEF75EF861143046FEF762
:102850005AF84FF480413046FEF755F84FF40041E6
:102860003046FEF750F840212846FEF74CF880210C
:102870002846FEF748F80CB070BD10B51346044664
:102880000122FDF7E4FD2046FDF71BFE0221204654
:10289000FDF7D9FE0028F9D02046BDE81040FDF72D
:1028A00042BE000000000240000402400008024056
:1028B000002001402DE9F05FBF4D04220921284688
:1028C000FFF7DBFFBD4C04220521E0602846FFF73F
:1028D000D4FF2061042208212846FFF7CEFF606163
:1028E000042207212846FFF7C8FFA06104220F2118
:1028F0002846FFF7C2FFE06104220E212846FFF7B9
:10290000BCFF2062FFF7D5FAAD4E83464FF48059E5
:1029100049463046FDF7F5FFDFF8A882802147469B
:102920004046FDF7EEFF59463C20FFF7EAFA042245
:1029300009212846FFF7A1FFE1680422401AE06060
:1029400005212846FFF799FF2169401A2061494671
:102950003046FDF7D8FF80213846FDF7D4FFE06808
:102960000027002800DAE7602069002800DA2761E4
:102970005946C820FFF7C5FA4FF4005A5146B146F0
:102980003046FDF7BEFF402146464046FDF7B9FF01
:1029900059464FF4AA70FFF7B4FA042208212846DA
:1029A000FFF76BFF61690422401A60610721284626
:1029B000FFF763FFA169401AA06151464846FDF741
:1029C000A2FF40213046FDF79EFF6069002800DA33
:1029D0006761A069002800DAA761E26820684FF407
:1029E0007A71424392FBF1F2E2602269424392FB28
:1029F000F1F222616269424392FBF1F26261A269E3
:102A0000424392FBF1F0A061BDE8F09F2DE9F04751
:102A1000FFF74FFA684D814604220F212846FFF741
:102A20002CFF664C04220E21E0612846FFF725FFAB
:102A3000634F4FF48046206231463846FDF761FF10
:102A40004FF4004841463846FDF75BFF49464FF4D6
:102A5000AA70FFF756FA04220F212846FFF70DFF50
:102A6000E1690422401AE0610E212846FFF705FFC4
:102A7000216A401A206231463846FDF744FF41463C
:102A80003846FDF740FFE1690020002900DAE061E7
:102A9000216A002900DA2062E26920684FF47A7125
:102AA000424392FBF1F2E261226A424392FBF1F06F
:102AB0002062BDE8F0872DE9F04128253F4E002037
:102AC0003D4F04467062042211463846FFF7D5FE9A
:102AD000716A641C08447062AC42F4DB4CF2503101
:102AE00091FBF5F0726A5043374A104490FBF1F0C5
:102AF000C11700EB5170C0107062B16A0844B06237
:102B0000BDE8F08110B5042203212B48FFF7B5FE84
:102B10002A4C606003F00DFF9FED2C1B53EC112B32
:102B200003F080FD03F0D6FEA06010BD70B5FFF786
:102B3000E9FF224841F65831806888423BDA00209C
:102B4000FFF70CFD0020FFF71FFD04212148FDF7D2
:102B5000D8FE1C4C4FF4805529462046FDF7D1FE87
:102B6000A1151D48FDF7CDFE61152046FDF7C9FEF4
:102B70002946134D2846FDF7C6FE4FF4005128465E
:102B8000FDF7C1FE4FF480412846FDF7BCFE4FF42F
:102B900000412846FDF7B7FE40212046FDF7B3FE71
:102BA00080212046FDF7AFFE4FF47A742146C820FD
:102BB000FFF76FFDFAE770BD00200140C000002064
:102BC000000402400008024008136DFAAC1C5A646D
:102BD0003BDFD33F000C0240000002400D4606469A
:102BE000FE4FDFF8FC834FF47A79FFF762F9044671
:102BF000FFF760FE3868301AFFF7B0FCD8F8000025
:102C0000281AFFF7C1FC21464846FFF77AF9ECE79E
:102C1000F24810B50268F348F34C4FF48051036852
:102C200020469A4202DDFDF76CFE01E0FDF76BFEE7
:102C3000EE48EF49EF4A0068096888424FF0040106
:102C4000104602DDFDF75DFE01E0FDF75CFEEA489F
:102C50004FF400710268E94800688242204602DDB4
:102C6000FDF74FFE01E0FDF74EFEDD484FF48071A9
:102C70000268E3480368E3489A4203DDBDE8104078
:102C8000FDF73FBEBDE81040FDF73DBE70B50D46F7
:102C90000446FFF778FDFFF771FD2046FFF75EFC65
:102CA0002046FFF771FC2846FFF719F90020FFF7CF
:102CB00055FC0020FFF768FC6420FFF710F9FFF7D0
:102CC00055FD0446FFF756FD201A70BD1FB5CE49CD
:102CD0000020CE4A087001211170CD494FF0000B41
:102CE000D94608700120CDE900B0CA48CDF808B037
:102CF000DA460168C8485D465F46D8465C460160D2
:102D0000C648C74A01990068126841438E1ABBF150
:102D1000000F0CD186420ADCC24A4FF0010BC24BB5
:102D200082F800B000221A70C04A82F800B0B9F1EF
:102D3000000F09D100EB4001CA1701EB9271B6EB0D
:102D4000A10F01DC4FF0010939EA0A0102D0B54AAE
:102D5000012111700099A1BB00EBD070B6EB600FA0
:102D60002FDC012000909D489E4900680968884238
:102D700006DD9B48A24900680968884200DD0125FC
:102D80009A489B4900680968884200DD01279A48F3
:102D90009A4900680968884201DD4FF00108FFF791
:102DA0009BF800F00304641C012C0ED0022C0FD001
:102DB000032C10D0042CF2D105EA070010EA080F0A
:102DC000EDD0BAF1000F0AD013E0002DE7D1F8E7FB
:102DD000002FE4D1F5E7B8F1000FE0D1F1E78F481B
:102DE0000068C11700EB9170B6EBA00F06DC4FF046
:102DF000010A25B18B490020087006E02DB9022C8C
:102E000003D0032C01D0042C2DD1894890ED000A69
:102E1000B8EEC00A00F035FDBDEEC00A10EE100A93
:102E200000B20390834890ED000A00F02AFDBDEE49
:102E3000C00A039A10EE100A01B2304600F0F7FD06
:102E400000EE100A7C48B8EEC00AD0ED000AB4EEDD
:102E5000E00AF1EE10FA06D3754801686E48016089
:102E6000029810B103E06B48F7E7002E0ADD5B48DB
:102E70004FF4FA610068884204DC594800688842CF
:102E80007FF73EAF01984FF47A71401C0190C82043
:102E9000FFF7FFFB3DB1694802686948016869486E
:102EA000006800F001FC022C04D0032C04D0042C98
:102EB00004D00AE0644802E0644800E0644890ED11
:102EC000000AB8EEC00A00F055FB4FF0000BD946DF
:102ED000DA46CDF800B05D465F46D846CDF808B07A
:102EE0000EE770B55B485C495D4C006800EB400044
:102EF00001EB00105949096850F8215020784E28FC
:102F000003D1284601F0D8FBA0B92078452803D189
:102F1000284601F0D4FB68B92078532803D128460D
:102F200001F0D0FB30B92078572805D1284601F0B0
:102F3000CCFB08B1012070BD002070BD2DE9F0412F
:102F4000454F002606EB4600002407EB001555F818
:102F5000240001F0BDFB38BB55F824000B2E40F0D7
:102F60000F0045F8240005DA05EB8400016B41F001
:102F700004010163002E06DD05EB840050F8301DCE
:102F800041F0010101600B2C05DA05EB840041687A
:102F900041F008014160002C06DD05EB840050F88B
:102FA000041D41F002010160641C0C2CCFDB761C77
:102FB0000C2EC7DBBDE8F0812DE9F04F85B000F0A5
:102FC00061FD184901200025087017490D70254939
:102FD0000870164908700C490D7045E0CC000020BF
:102FE000D00000208C00002000080240D400002007
:102FF00094000020000C0240D8000020980000201F
:1030000090000020000002401F000020200000204F
:10301000210000203C000020F40000202C000020B3
:103020006C0100201C0000201D0000201E0000205C
:1030300040000020EC000020380100205400002057
:1030400048000020440000205C00002060000020B8
:1030500064000020140000209401002010000020D3
:103060007400002088000020F84981462C460D702D
:10307000F749087000950020CDE9015003900490B5
:10308000FFF75CFF00F00CFE01F0D4FBDFF8C4B3E7
:10309000DFF8C4A3F149CBF800504E20CAF8005025
:1030A0000870FFF770FBFFF769FBED48ED49DFF8AB
:1030B000B88300680860FCE1EC49ED4A09681268D1
:1030C00009FB01F0841A009810BB8C4226DCE94A07
:1030D00001200090E84B107000221A70E74A10702F
:1030E000DE4800784E2806D0452808D053280AD05C
:1030F00057280ED012E0DAF80020521C06E0DBF868
:103100000020521C08E0DAF80020521ECAF8002005
:1031100004E0DBF80020521ECBF80020019848B9EB
:1031200001EB4100C21700EB9270B4EBA00F01DC81
:1031300001200190029800287ED101EBD170B4EB00
:10314000600F79DC01200290DAF80000564600EBAF
:103150004001CB485D4600EB0110DBF8001050F851
:10316000210001F0A9FA10B14FF4FA7709E03068B4
:1031700000EB4001C34800EB0110296800EB81001F
:10318000076B3068B24600EB4001BD4800EB011010
:10319000296850F8210001F092FA10B14FF4FA7644
:1031A0000AE0DAF8000000EB4001B64800EB01103D
:1031B000296800EB81004668DAF80000AB4600EBB6
:1031C0004001AF4800EB0111286851F8200001F0E0
:1031D00079FA10B14FF4FA750CE0DAF8000000EB60
:1031E0004001A84800EB0111DBF8000001EB800072
:1031F00050F8305CDAF8000000EB4001A04800EB2A
:103200000111DBF8000051F8200001F05EFA10B166
:103210004FF4FA700CE0DAF8000000EB4001994836
:1032200000EB0111DBF8000001EB800050F8040C0A
:10323000B74207DAAF4200E01DE003DA874201DA65
:10324000052016E0BE4205DAAE4203DA864201DA14
:1032500006200EE0B54205DABD4203DA854201DA06
:10326000072006E0B04209DAA84207DAB84205DAD8
:103270000820C8F800000398E8B390E0774D28785C
:103280004E280ED1DAF8000000EB40017C4800EB3C
:103290000111DBF8000051F8200001F00DFA0028C0
:1032A000CED0287845280ED1DAF8000000EB400196
:1032B000734800EB0111DBF8000051F8200001F029
:1032C000FEF90028C4D0287853280ED1DAF800007F
:1032D00000EB40016A4800EB0111DBF8000051F8F7
:1032E000200001F0EFF90028BAD02878572810D133
:1032F000DAF8000000E042E000EB4001604800EB3B
:103300000111DBF8000051F8200001F0DEF900287F
:10331000AED0DAF800005A4D00EB4000DBF80010A8
:1033200005EB001057465E4650F8210001F0C4F945
:10333000002885D03868316800EB400005EB0010AC
:1033400050F8210001F0BBF9002881D038683168BD
:1033500000EB400005EB001050F8210001F0B2F93D
:103360000028C1D03868316800EB400005EB001040
:1033700050F8210001F0A9F90028C9D07BE73B48AB
:103380000068C11700EB9170B4EBA00F07DC0120BF
:103390000390FFF7A6FD10B136490020087000F039
:1033A00063FC58B3384E96ED000AB8EEC00A00F040
:1033B00068FABDEEC00A10EE100A05B2334890ED6F
:1033C000000A00F05EFABDEEC00A2A4610EE100AAE
:1033D00001B2204600F02BFB00EE100A2C48B8EE9C
:1033E000C00AD0ED000AB4EEE00AF1EE10FA05D3FF
:1033F00031681C480160049818B104E0184801685D
:10340000F7E7002C09DD2348016840F6C41081422B
:1034100003DC2149096881424BDD09F101094FF4C0
:103420007A71C820FFF735F9D8F80000052806D0D2
:10343000062807D0072831D0082832D033E001F021
:10344000BFF830E001F0D6F82DE0000020000020A9
:103450002100002010000020140000207400002033
:1034600034000020F4000020700000202C00002018
:103470006C0100201C0000201D0000201E00002008
:1034800094010020D403002040000020EC00002024
:1034900038010020CC000020D000002001F0C4F84A
:1034A00001E001F0D9F80020009001900290039013
:1034B000049001F013F900283FF4FEAD24494FF0C9
:1034C0000008244F81F8008031E02349244E096828
:1034D00096ED000A09FB01F02049B8EEC00A096820
:1034E000441A00F0CEF9BDEEC00A10EE100A05B283
:1034F0001C4890ED000A00F0C4F9BDEEC00A2A464F
:1035000010EE100A01B2204600F091FA00EE100A07
:103510001548B8EEC00AD0ED000AB4EEE00AF1EEAC
:1035200010FA02D21148006800E030683860002CC0
:10353000CBDC44460020C7F80080FFF70FF80020DE
:10354000FFF722F80A48047005B0BDE8F08F0000CC
:103550001C000020F40000202C0000206C01002042
:1035600040000020EC000020380100203C0000203A
:103570001E0000202DE9F05F3F494FF000092DEDBE
:10358000088BF0EE409A81F80090DFF8F0A0DFF8A9
:10359000F0B03C49DAF80070DBF80060C1F8009048
:1035A000FEF79AFC0546DFF8E080384CFEF794FC05
:1035B0002168401B8842F9D3DA46354DDFF8D4B094
:1035C0009FED35AB9FED36BB2C480068C01B00EE6D
:1035D000100AB8EEC00A00F09FFADAF80000B0EE68
:1035E000408A801B00EE100AB8EEC00A00F094FA80
:1035F00038EE009AB0EE690A00F08EFA10EE100A6A
:1036000003F0ACFA41EC180BDBF8000003F0A6FA6B
:1036100053EC1A2B03F0A4F953EC182B03F0A0F988
:1036200053EC1B2B02F0FEFF02F0CAFF00EE100A63
:1036300000F05BFAB4EEC09AF1EE10FA09D2F5EEA2
:10364000C09AD8F80000F1EE10FA00D3404228608A
:10365000BAE7C5F80090FEF73FFC0546FEF73CFCD4
:103660002168401B8842F9D3034801210170BDEC59
:10367000088BBDE8F09F00001C0000204C010020DA
:1036800050010020F40000203800002058000020E5
:10369000F8000020840000201F85EB51B81E09406F
:1036A00000000000008066402DE9F05F88468246F9
:1036B00020482149DFF884B0D0F800900968016003
:1036C00001201F498BF80000002017460870FEF704
:1036D00003FC06464FF47A7413E0FEF7EAFB19493F
:1036E00005460968AAEB0100FEF738FF164909688C
:1036F000A8EB0100FEF748FFFEF7DBFB401BA042F2
:10370000FAD3FEF7E9FB801BB842E6D30F48006806
:10371000FFF742F80E480068FFF73AF80549002025
:10372000C1F8009006498BF8000001200870BDE840
:10373000F09F000024000020280000201C00002032
:103740001E000020CC000020D00000204C010020F2
:103750005001002030B5FD48FE4C0268FC4803686B
:10376000FD48FE499A420068096803DD884201DD90
:10377000851AA5609A4201DD981A04E0884201DDAD
:10378000401A00E00020A06030BD70B5F14CF14D52
:10379000803CD4E91C104218401AC4E90420F049C6
:1037A0002B69096891FBF3F1EE4B1B780BB10846CE
:1037B00003E0ED4B1B7803B9084400EE102AD4ED6A
:1037C000000AB8EEC00A30EEC00AD4ED080A30EEA6
:1037D000200A84ED080A00EE100AD4ED010AE3483D
:1037E000B8EEC00A30EEC00AD4ED090A30EE200A65
:1037F00084ED090A007878B1FFF7ACFFD5E9020142
:1038000090FBF1F000EE100AD4ED090AB8EEC00A00
:1038100030EE800A84ED090A94ED080AD4ED0E0A10
:1038200094ED0A1AD4ED0F1A60EE800A30EE411AB8
:1038300004F1280341EE810AFDEEE00A10EE902A21
:103840002263D4ED090A94ED101AD4ED0B1A94ED0D
:10385000112A21EE201A70EEE11A02EE211ABDEEB5
:10386000C11A11EE101A6163501A83EC020A114456
:10387000C4E91601FEF772FEE06DBDE87040FEF788
:1038800083BEBB48D0ED000ABA48F8EEE00A60EE0D
:10389000200A90ED000AB848B8EEC00A90ED001A70
:1038A00020EE800AC0EE010A9FEDB41A80EE810A74
:1038B0007047A84900B58039B0EE001A91ED020AB0
:1038C000D1ED000AB8EEC02ADFEDAC1AF4EEC20A60
:1038D000F1EE10FA17D291ED120A20EE010AFFF76D
:1038E000D0FFC0EE210A91ED000A70EE800AC1ED12
:1038F000000A91ED020AB8EEC01AF4EEC10AF1EE28
:1039000010FA1EDC21E0B8EEC00AF4EEC00AF1EEB7
:1039100010FA1ADD91ED130A20EE010AFFF7B1FF4C
:10392000C0EE210A91ED000A70EE600AC1ED000AB6
:1039300091ED020AB8EEC01AF4EEC10AF1EE10FAE7
:1039400003D2B8EEC00A81ED000A91ED030AD1ED71
:10395000010AB8EEC01AF4EEC10AF1EE10FA11D263
:1039600091ED141A70EE810AB8EEC01AC1ED010A89
:10397000F4EEC10AF1EE10FA03DDB8EEC00A81EDF3
:10398000010A00BDB8EEC01AF4EEC10AF1EE10FA59
:10399000F7DD91ED151A70EEC10AB8EEC01AC1ED4F
:1039A000010AF4EEC10AF1EE10FAE6D300BD70B5DB
:1039B000FEF7E0FE674C803C2066FEF7D7FE226EE5
:1039C000A16E511A2167E36EC4E91A20C31ACD18FB
:1039D00005EBD5756D10C4E91D3511441844C4E9D3
:1039E000181008445B4900EBD07040100860E06F8D
:1039F000401BE06770BD10B5FFF7D9FFFFF759FF17
:103A0000BDE81040C1E65C48D0ED000A584820EE01
:103A1000201A90ED000A5748B8EEC00AC1EE000A1D
:103A200090ED000AB8EEC01A80EE810A704700B52A
:103A3000002901DA494209B2002A01DA524212B2DF
:103A4000002801DC4FF0010000EE100AB8EEC00AB9
:103A5000FFF7D9FF11FB01F002FB1200642148437C
:103A600000EE900AB8EEE01AC1EE000AB5EE000AC8
:103A700020EE800ABDEEC00A10EE100A002800DA1F
:103A8000404200BD10B53948002404703C48047021
:103A90003C4804702046FEF761FD0020FEF774FDEF
:103AA0002C489FED390A80382A4980ED060A80EDBE
:103AB000070A80ED000A80ED010A8460C46080ED91
:103AC000080A80ED090A80ED0A0A80ED0B0A846677
:103AD000C466046644660C604C608465C465FEF789
:103AE00052FEBDE81040FEF749BE2148D0ED000A65
:103AF0002048F8EEE00A60EE200A90ED000A1E4829
:103B0000B8EEC00A90ED001A60EE800A80EE810ADD
:103B100070479FED1D0A7047B5EEC00AF1EE10FA2E
:103B200001D2B1EE400A70472DE9F05F8146FFF700
:103B3000A9FFDFF838800120114988F8000000252E
:103B40000D70104908701149087021E0D400002060
:103B50009C0000206C010020D8000020A000002064
:103B6000E4000020890000208A0000201C000020C2
:103B7000780000207C000020800000200000C84267
:103B80001D00002088000020000000001E00002012
:103B90002D49DFF8BCB0DFF8C0C00D702B492F4CA9
:103BA000DFF8B0A00D708BF80000DCF800002C4F9F
:103BB00004F18006A0602EE0831A01EBD170B3EB14
:103BC000600F01DA88F8005097ED000AB8EEC00ADD
:103BD000FFF757FEBDEEC00A10EE100A94ED000A82
:103BE00002B2FFF74EFEBDEEC00A10EE100A01B29F
:103BF0001846FFF71CFF00EE100AD4ED130AB8EECA
:103C0000C00AB4EEE00AF1EE10FA02D2DCF80000CD
:103C100000E03868A060D6E90020DAF80010131A36
:103C200009FB01F08342C7DB0020A560FEF796FC8C
:103C30000020FEF7A9FC306870600A4805708BF818
:103C40000050BDE8F09F00001F0000202000002071
:103C5000210000202C00002034000020EC00002077
:103C6000300000201E000020FB480178FB484E2950
:103C7000006806D0452907D0532908D0572909D014
:103C80000AE005280AD007E0062807D004E0072844
:103C900004D001E0082801D00120704700207047BF
:103CA0002DE9F041DFF8B8839026002505EB4500AB
:103CB000002408EB0017052D01D0062D03D1052C9B
:103CC00008D0062C06D02946204600F061FD401C95
:103CD00047F82400641C0C2CEDDB6D1C0C2DE5DB7F
:103CE000761EE2D5BDE8F081F0B5DB48DD4ADE495D
:103CF0000778DE481678DE4A0478DF480D781368C6
:103D0000DC4903EB4302006801EB021202EB800185
:103D10004E2F32D0452F5BD0532F7DD0572F2BD134
:103D20006EB152F82060002846F0080642F8206084
:103D300005DD51F8046C46F0020641F8046C6DB1E3
:103D400052F82050002B45F0040542F8205005DDC4
:103D500051F8305C45F0010541F8305C002C0BD087
:103D600052F820400B2B44F0010442F8204003DAC3
:103D7000086B40F004000863F0BD5EB152F82060AB
:103D80000B2B46F0010642F8206003DA0B6B43F080
:103D900004030B636DB152F82030002843F0080390
:103DA00042F8203005DD51F8043C43F0020341F8AD
:103DB000043C002CE0D052F820300B2843F00203E2
:103DC00042F82030D8DA486840F008004860F0BD7A
:103DD0005EB152F820600B2846F0020642F82060DF
:103DE00003DA4E6846F008064E605DB152F8205086
:103DF0000B2B45F0010542F8205003DA0D6B45F01E
:103E000004050D63002CE2D052F82040002B44F052
:103E1000040442F8204000E005E0D8DD51F8300D00
:103E200040F0010029E06EB152F82060002B46F00E
:103E3000040642F8206005DD51F8303C43F00103F0
:103E400041F8303C5DB152F820300B2843F00203BA
:103E500042F8203003DA4B6843F008034B60002C33
:103E6000B5D052F82030002843F0080342F8203043
:103E7000ADDD51F8040D40F002000860F0BD2DE901
:103E8000F04F87B0FFF7FEFD7C4900207C4A0870A8
:103E9000012111707B49784C754D08700121CDE9E5
:103EA00002100090049001900590206080462860E8
:103EB00069484E210170FFF7E5FD2868DFF8B4B1CD
:103EC00000EB40010BEB0110216850F8210000F0DD
:103ED000FFFB88B92846006800EB40010BEB01109E
:103EE0002146096850F8212042F0100240F82120B4
:103EF00065480168491C016064486549DFF85C91C8
:103F000000680860B6E26349634A0298096812686B
:103F10004843A0EB02080398D8B9884519DC5F4AEA
:103F2000012003905E4B107000221A705D4A1070E1
:103F3000494800784E2806D0452806D053280BD093
:103F400057280BD005E04A4800E04B480268521C55
:103F50000260009830B10FE0454800E04648026832
:103F6000521EF5E701EB4100C21700EB9272B8EB6D
:103F7000A20F01DC01200090DDE90002904302D095
:103F8000464A012010700498002863D101EBD171DA
:103F9000B8EB610F5EDC01200490434843490068A0
:103FA0000968884208DD4248424900680968884239
:103FB00002DD2C49012008703F484049006809682B
:103FC000884202DD2849012008703D483D490068CB
:103FD0000968884202DD254901200870FFF784FE48
:103FE000234C254F2168386800F0D2FB2168401C23
:103FF00001EB41021A4901EB02113A6841F8220033
:10400000FFF74EFE2068396800EB40000BEB001014
:104010005D4650F8210000F04FFB10B14FF4FA76E6
:1040200009E0206800EB40010D4800EB0110396801
:1040300000EB8100066B2068AB4600EB400105EB0E
:104040000110396850F8210000F039FB18B14FF425
:10405000FA7543E0EBE037E07400002070000020C8
:10406000D40300206C0000206D0000206E000020B2
:104070001400002094010020100000201F000020E8
:104080002000002021000020180000203C0000201B
:10409000F40000202C0000206C0100201C000020F7
:1040A0001D0000201E000020CC0000208C000020FD
:1040B000D000002090000020D400002094000020B8
:1040C000D800002098000020206800EB4001FE4846
:1040D00000EB0110396800EB810045682068A246BA
:1040E00000EB40010BEB0110396850F8210000F0A3
:1040F000E9FA10B14FF4FA740BE0DAF8000000EBC3
:104100004001F14800EB0110396800EB810050F8E4
:10411000304CDAF8000000EB40010BEB011039687D
:1041200050F8210000F0D1FA10B14FF4FA700BE012
:10413000DAF8000000EB4001E34800EB01103968B9
:1041400000EB810050F8040CAE4205DAA64203DA17
:10415000864201DA052016E0B54205DAA54203DA07
:10416000854201DA06200EE0AC4205DAB44203DAF9
:10417000844201DA072006E0A8425BDAA04259DA5D
:10418000B04257DA0820C9F800004FF0900A002624
:10419000002456EA040041D006EB46010BEB011562
:1041A00055F8240000F088FA074655F8240000F07E
:1041B00086FA074455F8240000F084FA074455F8BD
:1041C000240000F082FA3844032827DB55F8240045
:1041D0000B2E40F02F0045F8240005DA05EB840093
:1041E000016B41F0040101630B2C05DA05EB84003F
:1041F000416841F008014160002E06DD05EB8400B6
:1042000050F8301D41F001010160002C06DD05EB86
:10421000840050F8041D41F002010160641C0C2C64
:10422000B7DB761C0C2EB3DBBAF1010AAFD50198CF
:10423000F0B384E0A54C20784E280DD1DAF80000C8
:1042400000EB40010BEB0110396850F8210000F041
:1042500033FA00283FF47EAF207845280DD1DAF8F4
:10426000000000EB40010BEB0110396850F8210011
:1042700000F025FA00283FF475AF207853280DD1BF
:10428000DAF8000000EB40010BEB0110396850F840
:10429000210000F017FA00283FF46CAF207857286F
:1042A0000FD1DAF8000000EB40010BEB011000E049
:1042B0003BE0396850F8210000F007FA00283FF48D
:1042C00061AFDAF80000396800EB40000BEB00103A
:1042D00055465C4650F8210000F0EEF90028B9D0B0
:1042E0002868396800EB400004EB001050F821000A
:1042F00000F0E5F90028BED02868396800EB4000DE
:1043000004EB001050F8210000F0DCF90028C3D0C5
:104310002868396800EB400004EB001050F82100D9
:1043200000F0D3F90028CAD02FE769480068C11708
:1043300000EB9171B8EBA10F08DC012001906548FA
:10434000007830B164490020087005E061480078C9
:1043500010B9FFF789FC58B3604D95ED000AB8EE2F
:10436000C00AFFF78EFABDEEC00A10EE100A04B2C2
:104370005B4890ED000AFFF784FABDEEC00A2246C2
:1043800010EE100A01B24046FFF751FB00EE100A92
:104390005448B8EEC00AD0ED000AB4EEE00AF1EEDF
:1043A00010FA05D3286850490860059818B105E04F
:1043B0004E480068F7E7B8F1000F09DD4C48016886
:1043C00040F6C410814203DC4A490968814251DD4C
:1043D00002984FF47A71401C0290C820FEF759F9F8
:1043E000454D464C5E462868216800EB40000BEBCB
:1043F000001050F8210000F06BF978B928682168A6
:1044000000EB400006EB001050F8212042F01002B3
:1044100040F821203A480168491C01602D4C207861
:1044200038B1384802683848016838480068FFF7F2
:104430003BF9D9F80000052806D0062807D0072840
:1044400008D0082809D00AE000F0BAF807E000F028
:10445000D1F804E000F0E8F801E000F0FDF80020F9
:1044600000902B49039004900190059020700870F3
:104470002849087000F032F900283FF444AD16488E
:104480000027194E07705DE011490298134D096825
:104490004843214995ED000A0968B8EEC00AA0EB2F
:1044A0000108FFF7EEF9BDEEC00A10EE100A04B2E3
:1044B0000B4890ED000AFFF7E4F9BDEEC00A224672
:1044C00010EE100A01B229E0D4030020740000208D
:1044D0002C0000206C0000201C0000204000002068
:1044E000EC00002038010020F40000203C000020F7
:1044F000CC000020D000002014000020100000207C
:104500001800002054000020480000204400002033
:104510006D0000206E0000206C0100204046FFF777
:1045200086FA00EE100A2048B8EEC00AD0ED000A64
:10453000B4EEE00AF1EE10FA02D21C48006800E086
:1045400028683060B8F1000F9EDC194CDFF86480F9
:104550005D46206800EB40000BEB0011D8F800002E
:1045600051F8200000F0B4F880B92068D8F80010A5
:1045700000EB400005EB001050F8212042F0100243
:1045800040F821200C480168491C01600020376078
:10459000FDF7E4FF0020FDF7F7FF0848077007B0BC
:1045A000BDE8F04F00F046B9380100203C00002083
:1045B0001400002010000020180000201E00002021
:1045C00010B5394C20784E2811D0572804D04528F2
:1045D00004D0532804D00AE0344802E0344800E014
:1045E000344890ED000AB8EEC00AFEF7C3FF4E2033
:1045F000207010BD10B52C4C20784E2806D05728BE
:1046000006D045280DD0532804D00AE0274802E000
:10461000284800E0264890ED000AB8EEC00AFEF7F0
:10462000A9FF4520207010BD10B51F4C20784E28E2
:1046300004D0572804D0452804D00AE01D4802E0E1
:104640001B4800E0194890ED000AB8EEC00AFEF7DA
:1046500091FF5320207010BD10B5134C20784E28C8
:1046600006D057280FD0452804D0532804D00AE09C
:104670000F4802E00F4800E00C4890ED000AB8EE49
:10468000C00AFEF777FF5720207010BD4E2806D0D5
:10469000452805D0532804D0572803D1DCE78FE7FD
:1046A000A8E7C1E770470000740000206000002008
:1046B0005C00002064000020C0F300007047C0F3DD
:1046C00040007047C0F380007047C0F3C0007047DF
:1046D000C0F300107047C0F34010704745480068B1
:1046E000052801D0062806D14349444A096805290E
:1046F00003D0062903D000207047052811D0D432FA
:10470000136B43F00C031363136843F0010313604E
:10471000D36A43F00203D362D43A062901D10528B3
:1047200013D002F598720629536843F009035360C9
:10473000536B43F004035363136843F002031360A5
:10474000A2F5987201D1062813D002F59C720529B2
:10475000136843F003031360136B43F00403136304
:10476000536843F008035360A2F59C7201D10628F8
:104770000CD0D832106B40F004001063106840F089
:1047800001001060506B40F008005063012070473A
:1047900010B51A4A01EB410102EB0112184C52F814
:1047A000202004EB0111C2F3000301EB80010BB1E7
:1047B000FC2000E0086BC2F340030BB1FC2300E0D7
:1047C0004B68C2F380040CB1FC2401E051F8304C7A
:1047D000C2F3C0020AB1FC2101E051F8041C83427B
:1047E00000DA1846844200DA2046814200DA0846A0
:1047F00010BD0000100000201400002094010020D3
:10480000D40300202DE9F0414B4F0B2505EB45006B
:10481000002407EB001649A056F8241000F022FAF5
:10482000641C0C2CF7DB46A000F01CFA6D1EEDD5C5
:10483000BDE8F0812DE9F047DFF80891DFF8F8A036
:104840000B2606EB460700240AEB071555F8240053
:10485000FFF732FF08B13CA000E03DA000F002FAF3
:10486000641C0C2CF2DB36A000F0FCF9DFF8E880C9
:10487000002455F82400FFF728FF08B137A000E016
:1048800037A000F0EFF9D8F80000864216D135487D
:104890000068844212D199F800004E2806D04528BD
:1048A00006D0532806D0572806D01FE02EA012E0CD
:1048B0002EA010E02EA00EE02EA00CE055F8240053
:1048C000FFF709FF08B12CA005E055F82400FFF719
:1048D000FFFE18B129A000F0C5F907E0284800EB59
:1048E000071050F8241015A000F0BCF955F824006A
:1048F000FFF7E5FE08B119A000E019A000F0B2F939
:10490000641C0C2CB5DB0EA000F0ACF9002455F8AB
:104910002400FFF7D7FE08B10BA000E00CA000F0C8
:10492000A1F9641C0C2CF2DB05A000F09BF9761EAB
:1049300087D5BDE8F087000094010020253364008E
:104940000A0D0000740000202B2D2D2D2B000000DF
:104950002B2020202B000000140000207C000000F1
:104960002000000010000020205E2000203E2000DB
:1049700020762000203C200020782000202E2000DF
:10498000D403002030B52C4A106840F00E001060AF
:10499000506840F00C005060002002EB8001401C89
:1049A000D1F810320C2843F00103C1F81032F4DBC7
:1049B000002000EB400102EB0111401CCB6A0C28E7
:1049C00043F00203CB62F4DB002052F8201041F0E8
:1049D000040142F82010401C0C28F6DB002000EBFC
:1049E000400102EB0111401C0B680C2843F0080346
:1049F0000B60F4DB0A20114C002202EB4203002181
:104A000004EB0313052943F8210001DA401E03E0FB
:104A10008D1F052D00D2401C491C0C29F2DB052AF4
:104A200001DA401E03E0911F052900D2401C521CF0
:104A30000C2AE2DB30BD000094010020D4030020EA
:104A40000948804709480047FEE7FEE7FEE7FEE722
:104A5000FEE7FEE7FEE7FEE7FEE7FEE7044805495E
:104A6000054A064B704700007F4B0008890100088B
:104A700078060020780C00207808002078080020B4
:104A8000F0B56C4A0020116841F4803111604FF498
:104A9000A063116800F1010011F4003F01D19842B8
:104AA000F7D11068674E8103634CDFF890E1644DE5
:104AB000DFF894C140F2056706F104002BD52168A8
:104AC00041F080512160DEF8001041F48041CEF8C1
:104AD000001001680160016841F400410160016853
:104AE00041F4A05101603560116841F0807111609E
:104AF00011688901FCD5CCF80070016821F0030130
:104B00000160016841F0020101600168C1F38101A7
:104B10000229FAD1F0BD11684C4B1940116011689F
:104B200041F001011160216841F080512160DEF8FF
:104B3000001041F48041CEF8001001680160016866
:104B400041F400410160016841F4A0510160356009
:104B5000116841F08071116011688901FCD5CCF8B1
:104B60000070016821F003010160016841F0020159
:104B700001600168C1F381010229FAD1F0BD344816
:104B800010B5016841F4700101602A48016841F0E4
:104B9000010101602B4A0021121D116002682B4B9C
:104BA0001A400260031D2B4A1A60026822F4802218
:104BB0000260244808300160FFF762FF24494FF08B
:104BC00000608039086010BD70B51E4D2D1D28682D
:104BD000214B224910F00C0004D05E10042803D0B1
:104BE000082803D00B601AE00E6018E0154A106820
:104BF000C0F38054106800F03F0014B1B6FBF0F031
:104C000001E0B3FBF0F013681268C3F38813584354
:104C1000C2F30142521C5200B0FBF2F00860286857
:104C20000E4AC0F30310121D105C0A68C2400A60ED
:104C300070BD000000380240403802400070004063
:104C40001054000704380240003C0240FFFFF6FE0B
:104C500088ED00E0103000240024F40080010020E2
:104C6000704700000FB4044910B503AA029800F081
:104C700007FD10BC5DF814FBAC00002070B50446C5
:104C800085690068C10601D5302600E02026C007EE
:104C900008D070BDD4E9012130469047206A00F168
:104CA000010020626D1EF5D570BD70B504468569A2
:104CB0000078C00708D170BDD4E9012120209047B9
:104CC000206A00F1010020626D1EF5D570BD70B53F
:104CD0000C460546012A05D02878800600D5EA69E9
:104CE000002302E0012305E05B1C934202D2E05C5A
:104CF0000028F9D1A869E618C01AA861286A1844E2
:104D000028622846FFF7BAFF04E0D5E9012114F82C
:104D1000010B9047B442F8D32846FFF7C6FF70BD99
:104D20002DE9F0410646002410687529314616A584
:104D300011D0AFF30080002803DAC0F1000013A502
:104D400007E031688A0701D511A502E0490704D5BB
:104D500010A5012401E0AFF3008000210A2306F131
:104D6000240707E0B0FBF3F203FB12003030785465
:104D70001046491C0028F5D123462A463046BDE896
:104D8000F04100F0FBB90000000000002D00000021
:104D90002B000000200000002DE9F0474FF0000A32
:104DA00089460446C0F820A02046E16888470028CC
:104DB00076D0252806D0D4E901219047206A401CEE
:104DC0002062F1E7E168204600258847C4F81CA06E
:104DD00006460027C4F818A02A2E09D0304601F054
:104DE000BCFB38B304EB8708303EC8F8186019E004
:104DF00059F8041B204604EB87029161E16888475B
:104E0000012F064618D1E069002820DA25F0200598
:104E10001DE0D8F8180000EB800006EB40003038A9
:104E2000C8F818002046E1688847064601F095FB5F
:104E30000028EED1012F0AD02E2E08D12046E1689D
:104E400088477F1C0646022F45F02005C4DBA06979
:104E5000002803DA404245F00105A061E80701D0CF
:104E600025F01005B6B1A6F14100192802D8203668
:104E700045F400654A463146204625604D46FBF71D
:104E8000DDF958B1012806D0ED1D25F0070000F12D
:104E9000080989E704E005F1040985E730468AE757
:104EA000206ABDE8F08700000FB400B589B00BA8F8
:104EB0006A46009003480A9900F002FC09B05DF8C8
:104EC00014FB0000B00000202DE9FF5F1D464FF0ED
:104ED000FF3B91464FF000085F46D5E90146A969BE
:104EE00001987F1C8847296A824688470028F6D1A6
:104EF0001AF101000CD0002E24F4C06419DD600604
:104F000014D5BAF12B0F09D0BAF12D0F0ED103E051
:104F1000584604B0BDE8F09F44F48064A969019844
:104F20007F1C8847761E8246002E02DDBAF1300FC4
:104F300003D0B9F1000F26D032E0A969761E01989E
:104F40007F1C44F400748847002E824605DDBAF1C8
:104F5000780F06D0BAF1580F03D0B9F1000F10D076
:104F60001EE0B9F1000F02D0B9F1100F18D1A969F4
:104F7000761E01987F1C24F4007488478246102016
:104F800002E0082000E00A20814609E0A96908FB48
:104F90000908761E01987F1C44F4007488478246F5
:104FA000002E05DD4946504600F07CFB0028EDDA76
:104FB000E96901988847A00502D46FF00100A8E7CD
:104FC000E00727D1600614D5600502D5C8F10000BE
:104FD00000E04046296801F104022A6009682205C0
:104FE00001D5087016E0220701D5088012E008609C
:104FF00010E0286800F1040129600068210502D54D
:1050000080F8008006E0210702D5A0F8008001E0CA
:10501000C0F8008038467CE72DE9FF5F4FF00008BC
:105020009946144646469169D2E901A7DDF838B0A1
:1050300001988847054659EA0B0005D009E0A169A7
:105040000198761C88470546216A2846884700282B
:10505000F5D1681C03D05FEACA7005D015E04FF0A7
:10506000FF3004B0BDE8F09F2068011D2160D0F83A
:1050700000800AE05FEACA7001D108F8015BA1690B
:105080007F1E0198761C88470546002F1ADD681C94
:1050900018D0B9F1000F0DD0E81705EBD060421120
:1050A00020F01F0059F822102A1A012090400142D6
:1050B000E0D107E0BBF1000FDCD12846216A884728
:1050C0000028D7D0E169019888470AF0010050EA2A
:1050D0000B0002D1002188F80010A068B84203DD5F
:1050E000BBF1000F03D017B16FF00100B9E73046F4
:1050F000B7E700004FF0013C50F8042B51F8043B97
:105100009A4221D1A2EB0C03934313EACC1317D19B
:1051100050F8042B51F8043B9A4215D1A2EB0C0332
:10512000934313EACC130BD150F8042B51F8043BF2
:105130009A4209D1A2EB0C03934313EACC13DBD0C0
:105140004FF00000704700BFD01A01BAB1FA81F1E8
:1051500001F0180122FA01F0CB40C1F12001DBB2CD
:10516000C0B2C01A2CFA01F3D11A914311EAC3114B
:10517000E6D1704770477047704770472DE9F04798
:105180000D4699469246044600F1240801688806B7
:1051900004D5E06921F01001216000E00120A8425F
:1051A00002DDA0EB050700E00027A16907EB05027F
:1051B00002EB0900A1EB0000A0612078C00602D438
:1051C0002046FFF75BFD002608E0D4E901211AF82C
:1051D00006009047206A401C761C20624E45F4DB96
:1051E0002078C0060AD52046FFF748FD06E0D4E93E
:1051F000012130209047206A401C2062381EA7F110
:105200000107F4DC07E0D4E9012118F80500904714
:10521000206A401C2062281EA5F10105F3DC20460F
:10522000FFF743FD2078000602D50220BDE8F08795
:105230000120FBE770472DE9FF4F0C461E464FF05B
:10524000FF378BB0D2E90001DDF860800A908A4612
:10525000C1F30A5505B93D46002108464FF000004C
:10526000BAF1000F00F4400005DA00EB80004FF4C3
:10527000400101EA50004FEA9059B9F1010F00DDF9
:10528000B9460A9850EA4A000ED044F61050A5F2EA
:10529000FF3545432F14B8F1000F1ED07542291E6B
:1052A0001EDDC9F100021CE0B8F1010F4FF0000053
:1052B00001D0302103E0F24305E02154401CB0420C
:1052C000FBDB30460022002121540B99C1F80880F5
:1052D000C1E900200FB0BDE8F08FBD1B6D1CDEE7FB
:1052E0004A4600DA694206A800F0AEFA06AB07CBE0
:1052F00003AB07C350460A9900F05CFD8DE8070038
:10530000A0F500501F3800900398002D09DD42F2EF
:105310001F014A46084403A90390684600F0BBFFFA
:1053200008E0A0F500504A461F3803A903906846DC
:1053300000F0C5FF8DE807000004000C03D04FF01B
:10534000FF30410800E01046B8F1000F03D0002202
:10535000009215461FE0751E06D400F0C1F902F157
:10536000300262556D1EF8D5B3460122084302D0C3
:1053700000227F1C04E02078302801D100227F1E0B
:10538000002A099787D01DE0112D07DA00F0A8F94F
:10539000303262556D1C50EA0102F5D108430FD13D
:1053A0000021681E05E0235C625C6354491C2254A2
:1053B000401E8142F7DBAB46A81B401E099001E06E
:1053C000009848B1002004F80B000B98099AC0F827
:1053D0000880C0E9002B7DE711264FF000085AE74E
:1053E0002DE9F04F88460446D21D22F0070191B006
:1053F000D1E90001CDE90A0101F097F802460B98C6
:10540000C00F01D02D2007E02068810701D52B2097
:1054100002E0202101EAC000032A099001D0072AF6
:1054200005DB03464146204600F0B8F90FE120783D
:10543000800601D5E06900E00620B8F1650F8146DD
:1054400006D0B8F1660F18D0B8F1670F72D132E00C
:105450000020B9F1110F009001DB112301E009F1E7
:1054600001030AAA01A90CA8FFF7E5FEDDE90C700B
:10547000002609F10105834648E001204B460090D3
:105480004FF000470AAA01A90CA8FFF7D4FEDDE9F6
:105490000DB00C995D46002618B909F1010001EB29
:1054A0000005B9EB050003D4C0F1FF3609F1010591
:1054B000A5EB09002BE0B9F1010F01DA4FF001096A
:1054C0000020B9F1110F0090484601DD112300E0E2
:1054D00003460AAA01A90CA8FFF7ADFEDDE90C708E
:1054E0004D4600268346207800070AD4AB4500DAF3
:1054F0005D4601A8012D04DD411911F8011C302978
:1055000007D04F4502DA17F1040F04DA0120824672
:1055100010E06D1EEEE7002F02DCED1B3E4403E0C1
:10552000781CA84200DD0546A7EB060000F1010A41
:105530004FF000472078000703D4AA4501DB4FF065
:10554000FF3A0021B7F1004F0DF143088DF84310E9
:1055500023D002202B23002F01DA7F422D234FF08E
:105560000A0C011EA0F1010000DC4FB197FBFCF119
:105570000CFB11720F4602F1300208F8012DF0E722
:10558000A8F1010003702188090501D5452100E03B
:105590006521A0F1010800F8011C09980FA9A1EBF1
:1055A000080707F1070700B1012000EB050101EB37
:1055B000EA70A1693844A1EB0000A0F10100A061EC
:1055C0002078C00602D42046FFF758FB099830B176
:1055D000D4E901219047206A00F10100206220787F
:1055E000C00620D52046FFF749FB1CE0002E04DB57
:1055F000B34502DD01A8805D00E03020D4E901213F
:105600009047206A761C401CBAF1010A20620AD138
:1056100000F062F8C0680168405CD4E9012190475D
:10562000206A401C2062281EA5F10105DEDC07E08F
:10563000D4E9012118F8010B9047206A401C206230
:10564000381EA7F10107F3DC2046FFF72EFB0220EE
:1056500011B040E610B5436913B1AFF3008001E02B
:10566000FFF735FB012010BD127800F124010A700C
:1056700000224A700122EDE711684FF0FF32E9E79E
:10568000074B70B50D467B4400F075F8044628467C
:1056900000F070F910B14FF0FF3070BD204670BDC2
:1056A00087CBFFFF3A2800D2303820F02002412A71
:1056B00001D3A2F13700884201D34FF0FF30704789
:1056C000034B7B449361034B7B44D36100F0ACB844
:1056D00069CBFFFF630200000048704734060020DA
:1056E00030B5B0F10A024FEA900E71F100034EEAB4
:1056F000817EB0EB0E0061EB91014FEA101E4EEA85
:10570000017E10EB0E0041EB11114FEA102E4EEA14
:10571000016E10EB0E0041EB11214FEA104E4EEAE4
:10572000014E10EB0E0041EB1141401841F1000118
:105730004FEAD00040EA41704FEAD10110EB8005FA
:105740004FEA810444EA907444EB01046D1944EB80
:105750000404521BA3414FF0000348BF0A3200D596
:1057600030BD401C41F1000130BD000001694A1C00
:1057700002610878704700B58FB0CDE90131002192
:10578000059105497944CDE9031011466846FFF7B4
:1057900003FB0FB000BD0000E5FFFFFF2DE9F04166
:1057A0001F46044603260168072A01F4006004DB53
:1057B00008B116A505E016A503E008B115A500E09F
:1057C00015A521F010002060A069C01EA0610FB1D6
:1057D000401EA0612046FFF751FA4FB1D4E90121E4
:1057E00038469047206A401C2062C01C206206E0B8
:1057F000206AFAE7D4E9012115F8010B9047761EDB
:10580000F8D22046FFF751FABDE8F0814E414E0034
:105810006E616E00494E4600696E66000268114472
:105820001378016018467047D16005497944516189
:1058300004497944116200211161114600F0D0B889
:10584000EDFFFFFF990100002DE9F0478146164664
:105850008AB035487844D0E9002380680092CDE9C9
:105860000130314878440C38D0E9022300690392B2
:105870004FF03702CDE9043041F69B30014491FBF3
:10588000F2F0A0F1800502FB10141B3C02D564422B
:10589000012000E00020DFF890A080460027FA44B5
:1058A000AAF1C60A0DE0E00709D03246684607EBC8
:1058B00047010AEB810100F002FD8DE8070064104A
:1058C0007F1C002CEFD1184F7F44B43F17E0E8074E
:1058D00013D007EB04100DF1180A90E80E00AAE8A7
:1058E0000E00C068F04201D198190890324606A90E
:1058F00003A800F0E4FC03AB07C36D10641C002D8B
:10590000E5D132466946B8F1000F03A802D000F095
:10591000C2FC01E000F0D3FCC9E90001C9F808208D
:105920000AB0BDE8F08700000C150000704710B504
:105930004FF0FF34C1688A020FD5036B42689A4268
:105940000BD1014690F82520104600F001FA401CCA
:1059500001D1204610BD002010BD11F0C00FF8D1BC
:10596000026941689142F4D90268521C491EC0E99B
:105970000021F0E7007B00F080007047004870478E
:10598000140600207546FFF7F9FFAE46050069468C
:10599000534620F00700854618B020B5FFF75EF8A3
:1059A000BDE820404FF000064FF000074FF0000820
:1059B0004FF0000B21F00701AC46ACE8C009ACE8A1
:1059C000C009ACE8C009ACE8C0098D46704710B505
:1059D000044600F0E7F90068005D00F0010010BD2A
:1059E0002DE9F34F4FF0000A0C4656468DB00120CA
:1059F0000C9001F10C000B9062690B98012190470B
:105A000005002DD0252D2CD0216A8847C0B16269B0
:105A10000B9801219047216A88470028F7D16269D5
:105A2000411E0B98904700E0761CA1690D988847AD
:105A3000216A88470028F7D1E1690D988847DBE79C
:105A4000A1690D988847A842074601D1761CD3E783
:105A5000E1690D9888477F1C02D1BAF1000F6FD021
:105A60006AE162690B9800273D46394690472A282B
:105A700004D162690B98012190470125DFF8CC829F
:105A800062690B9801219047A0F130010A290AD2DE
:105A90004745E5DC07EB870100EB4107303FDFD4EA
:105AA00045F01005ECE7E90601D46FF000476C28DB
:105AB0000AD04C2814D0682815D06A280DD0742834
:105AC0001CD07A281AD01DE062690B9801219047FA
:105AD0006C2802D045F0040514E045F002050DE005
