:020000040800F2
:10000000000E0020B94C00086D1E00086F1E00088D
:10001000711E0008731E0008751E00080000000015
:10002000000000000000000000000000771E000833
:10003000791E0008000000007B1E00087D1E0008DD
:10004000D34C0008D34C0008D34C0008D34C000814
:10005000D34C0008D34C0008D34C0008D34C000804
:10006000D34C0008D34C0008D34C0008D34C0008F4
:10007000D34C0008D34C0008D34C0008D34C0008E4
:10008000D34C0008D34C0008D34C0008D34C0008D4
:10009000D34C0008D34C0008D34C00089B1E00082A
:1000A000D34C0008D34C0008D34C0008D34C0008B4
:1000B000D34C0008D34C0008D34C0008D34C0008A4
:1000C000D34C0008D34C0008D34C0008D34C000894
:1000D000D34C0008D34C0008D34C0008D34C000884
:1000E000DD1E0008D34C0008D34C0008D34C000898
:1000F000D34C0008D34C0008D34C0008D34C000864
:10010000D34C0008D34C0008D34C0008D34C000853
:10011000D34C0008D34C0008D34C0008D34C000843
:10012000D34C0008D34C0008D34C0008D34C000833
:10013000D34C0008D34C0008D34C0008D34C000823
:10014000D34C0008D34C0008D34C0008D34C000813
:10015000D34C0008D34C0008D34C0008D34C000803
:10016000D34C0008D34C0008D34C0008D34C0008F3
:10017000D34C0008D34C0008D34C0008D34C0008E3
:10018000D34C0008D34C000800F002F800F078F8D7
:100190000AA090E8000C82448344AAF10107DA45E2
:1001A00001D100F06DF8AFF2090EBAE80F0013F0BC
:1001B000010F18BFFB1A43F001031847C86E000077
:1001C000E86E00000A444FF0000C10F8013B13F0F9
:1001D000070408BF10F8014B1D1108BF10F8015BA0
:1001E000641E05D010F8016B641E01F8016BF9D193
:1001F00013F0080F1EBF10F8014BAD1C0C1B09D1EA
:100200006D1E58BF01F801CBFAD505E014F8016B5B
:1002100001F8016B6D1EF9D59142D6D370470000ED
:100220000023002400250026103A28BF78C1FBD8FF
:10023000520728BF30C148BF0B607047662906F0DF
:100240008286642904F0AA86632905F087837329CE
:1002500005F08C83002070471FB506F06AFE05F09C
:10026000B5FB04000020002106F00EFB401C60607E
:100270000020002106F0F2FAE0601FBD10B510BDAD
:1002800005F0FAFC1146FFF7E7FF01F03FFC05F02F
:10029000FDFE03B4FFF7F2FF03BC02F01FF80000FD
:1002A0002749084327490860704770B50F21C47873
:1002B000027801234FF0E026E4B1224C246804F4D4
:1002C000E064C4F5E064C4F30724C4F10405E1402C
:1002D0004478AC4085780D4025431B4C29011155CD
:1002E000007800F01F018B40400906EB8000C0F849
:1002F000003170BD02F01F008340500906EB800002
:10030000C0F8803170BD114A114001430D48001FF3
:10031000016070470B4A121D0029116801D001438A
:1003200000E08143116070474FF0E0210428086924
:1003300003D020F004000861704740F00400FAE7A1
:100340000000FA050CED00E000E400E080FFFF1F74
:1003500010B501210C02204600F093FC2046BDE8B8
:100360001040002100F08DBC30B54268C44B0C79C0
:100370001A400B6842EA0422134343608268C14B6F
:100380004D791A40D1E9034323438C6844EA45047C
:10039000234313438360C26A097D22F47002491E1D
:1003A000C9B242EA0151C16230BD00210160017150
:1003B00041718160C1600161012101757047B24BDB
:1003C00010B51A68B1490A40D0E900142143D0E9B8
:1003D0000240044321431143196010BD0021016014
:1003E00041608160C16070470029816802D041F09E
:1003F000010101E021F00101816070474268A44BD6
:100400001A400A4342607047416282627047426804
:1004100022F01F020A43426070479E490028D1F82B
:10042000040302D040F4000001E020F40000C1F811
:100430000403704797490028D1F8040302D040F420
:10044000800001E020F48000C1F80403704770B51B
:10045000072509290AD9C468A1F10A0606EB460650
:10046000B540AC43B3401C43C46007E0046901EBF2
:100470004106B540AC43B3401C4304611F23072A27
:1004800009D2446B521E02EB820293409C4391407E
:100490000C43446370BD0D2A09D2046BD21F02EBDA
:1004A000820293409C4391400C43046370BDC46A34
:1004B0000D3A02EB820293409C4391400C43C4628C
:1004C00070BD816841F08041816070470146002025
:1004D0008968490200D5012070470029816802D04F
:1004E00041F4806101E021F480618160704700295E
:1004F000816802D041F0020101E021F00201816037
:1005000070474268491E22F4604242EA413141602C
:1005100070470029416802D041F4006101E021F4F4
:10052000006141607047C06C80B270475648001D42
:10053000006870470029816802D041F4807101E0B1
:1005400021F48071816070470029816802D041F4F4
:10055000007101E021F40071816070474D4900286D
:10056000D1F8040302D040F4005001E020F4005020
:10057000C1F80403704770B5072409290AD9C56872
:10058000A1F10A0606EB4606B440A543B3401D435D
:10059000C56007E0056901EB4106B440A543B340DF
:1005A0001D430561836BC3F30154121B921C02EBC4
:1005B00082041F22A2409343A1400B43836370BD7A
:1005C000826B491E22F4401242EA01518163704756
:1005D00042507047826822F470220A43826070475A
:1005E000826822F440120A4382607047816841F4B5
:1005F000800181607047014600208968490200D56A
:10060000012070470029416802D041F4806101E077
:1006100021F48061416070470029416802D041F4B3
:10062000805101E021F48051416070470844806AA4
:1006300080B2704701238B4041680AB1194300E042
:100640009943416070470246002012680A4200D078
:1006500001207047C9430160704730B50246002051
:1006600054680B0A01258D4011682C40194202D0B4
:10067000002C00D0012030BD6FEA112101607047CD
:10068000FFFEFFFCFDF7FFC004230140E030FCFF4C
:10069000FFFD3FFF00200140374900200860091D91
:1006A0000860091D0860091D08603349334814318A
:1006B0000860704730B530498379026853B30B68DE
:1006C00093430B600A1D13680468A3431360027907
:1006D0000A441368046823431360274A08321368E6
:1006E0000468A3431360131D1C680568AC431C60B9
:1006F0004479102C05D021440A68006802430A603E
:1007000030BD116804682143116019680068014315
:10071000196030BD0079084401689143016030BD23
:100720000021016001710C224271817170471249F0
:1007300010310A6802430A60704701460E4A0020E1
:10074000143212680A4200D0012070470A4914315D
:1007500008607047084A014600201268064B0A40AC
:1007600014331B680B4202D0002A00D001207047CE
:100770000149143108607047003C0140FFFF7F00D1
:100780007A4910B5884206D10121084600F051FA95
:10079000002101204FE07649884206D10121022044
:1007A00000F047FA0021022045E07249884206D154
:1007B0000121042000F03DFA002104203BE06E49B5
:1007C000884206D10121082000F033FA00210820D8
:1007D00031E06A49884206D10121102000F029FA4F
:1007E0000021102027E06649884206D101212020FF
:1007F00000F01FFA002120201DE06249884206D146
:100800000121402000F015FA0021402013E05E494C
:10081000884206D10121802000F00BFA00218020BF
:1008200009E05A4988420AD184150121204600F086
:1008300000FA00212046BDE8104000F0FAB910BDD2
:10084000F0B50023012403270D6804FA03F21540D4
:10085000954242D1D0F800C05E0007FA06F52CEAB6
:10086000050CC0F800C091F804C0D0F800E00CFA04
:1008700006FC4CEA0E0CC0F800C091F804C0BCF1B4
:10088000010F02D0BCF1020F1FD1D0F808C02CEA32
:10089000050CC0F808C091F805C0D0F808E00CFAC3
:1008A00006FC4CEA0E0CC0F808C0D0F804C02CEAD4
:1008B000020CC0F804C0426891F806C00CFA03FCB0
:1008C0001FFA8CFC42EA0C024260C268AA43C26072
:1008D000CA79C568B2402A43C2605B1C102BB3D3EF
:1008E000F0BD4FF6FF71016000210171417181710E
:1008F000C171704741F48032C261C161C261C16996
:10090000C06970470246002012690A4200D00120E7
:100910007047006980B270470246002052690A425F
:1009200000D001207047406980B270470183704752
:10093000418370470AB10183704741837047416129
:10094000704742694A40426170474B07DB0E9A404C
:10095000C90810B500EB8100016A0F249C40A14337
:100960000162016A1143016210BD000000000240F3
:100970000004024000080240000C02400010024047
:100980000014024000180240001C024000200240F7
:10099000E948016841F001010160E74A002108329D
:1009A00011600268E54B1A400260031DE44A1A60B8
:1009B000026822F480220260DF480C300160704738
:1009C000DD490022891C0A70087070470246002029
:1009D000510901290CD002290CD0D749743109687A
:1009E00002F01F02012393400B4200D00120704708
:1009F000D149F4E7D0497031F1E730B500244FF424
:100A0000A0653120FFF7E2FF641CAC4201D0002852
:100A1000F7D03120FFF7DAFF002800D0012030BDE9
:100A2000C5490A6822F0F80242EAC000086070472F
:100A3000C44908607047C049002270310A700A70CA
:100A4000012802D0042801D1052008707047BE4952
:100A50000860704741EA82115A0810B5BB4B029CEE
:100A600003EB02421143014341EA0460B249091D0C
:100A7000086010BDB34908667047800140EA017004
:100A8000AD49843108607047AE4988667047AD490A
:100A9000C8647047A84A08321368084323F0EC631F
:100AA000184310607047A44A08321368084323F0C3
:100AB00078431843106070479F4A0832116821F04C
:100AC00003010143116070479B480830006800F043
:100AD0000C007047984A0832116821F0F001014378
:100AE00011607047944A0832116821F4E0510143C3
:100AF00011607047904908310A6822F4604242EA66
:100B0000C0000860704770B58B4A08321168904B7E
:100B100011F00C0104D05D10042903D0082903D082
:100B200003601BE0056019E08349091D0C68C4F3EC
:100B300080560C6804F03F0416B1B5FBF4F301E0F5
:100B4000B3FBF4F30C680968C4F388146343C1F37E
:100B50000141491C4900B3FBF1F1016011687D4B73
:100B600001F0F00109095C5C0168E1404160146832
:100B700004F4E054A40A1C5D21FA04F484601268B1
:100B800002F46042520B9A5CD140C16070BDC0F368
:100B90000121032908D1684A0832116821F4F813A9
:100BA0006D49014019431160634970310A68C0F30F
:100BB0000B0002430A60704763494439086070477C
:100BC00061494039086070476449086070475A4A73
:100BD00030320029116801D0014300E081431160E7
:100BE0007047554A34320029116801D0014300E0B2
:100BF000814311607047504A38320029116801D092
:100C0000014300E08143116070474B4A40320029A4
:100C1000116801D0014300E0814311607047464AEA
:100C200044320029116801D0014300E08143116082
:100C30007047414A10320029116801D0014300E099
:100C40008143116070473C4A14320029116801D079
:100C5000014300E0814311607047374A1832002990
:100C6000116801D0014300E0814311607047324AAE
:100C700020320029116801D0014300E08143116056
:100C800070472D4A24320029116801D0014300E049
:100C9000814311607047284A50320029116801D001
:100CA000014300E0814311607047234A5432002918
:100CB000116801D0014300E08143116070471E4A72
:100CC00058320029116801D0014300E081431160CE
:100CD0007047194A60320029116801D0014300E0D1
:100CE000814311607047144A64320029116801D0B1
:100CF000014300E08143116070470F4A0D32002923
:100D0000117801D0014300E08143117070470A4817
:100D10007430016841F08071016070470146064AF5
:100D200000200C3212680A4200D0012070470249AC
:100D30000E3108707047000000380240FFFFF6FED9
:100D40001030002400004742800E47420000FFFFA1
:100D50000024F40000000020FFFCFF0F5C0147426C
:100D600010B501218C032046FFF78BFF2046BDE81C
:100D700010400021FFF785BF11490860704710B58A
:100D80008A07130F21F003040F220D499A400831FE
:100D900021440C6894430C600A68984002430A603E
:100DA00010BD08490860704707490860704704494A
:100DB000002020310968C90500D5012070470000D6
:100DC00000380140DC00274200042742FE4910B5EC
:100DD000884206D101210846FFF753FF0021012078
:100DE0005BE0B0F1804F09D0F84988420DD1012174
:100DF0000220FFF73CFF0021022070E0012108469D
:100E0000FFF735FF0021012069E0F149884206D152
:100E100001210420FFF72BFF002104205FE0ED49B2
:100E2000884206D101210820FFF721FF0021082078
:100E300055E0E949884206D101211020FFF717FF4C
:100E4000002110204BE0E549884206D101212020F5
:100E5000FFF70DFF0021202041E0E149884206D143
:100E600001210220FFF70DFF0021022015E0DD49DE
:100E7000884202D101210C040AE0DB49884202D1F8
:100E800001214C0404E0D94988420AD101218C0493
:100E90002046FFF7F6FE00212046BDE81040FFF790
:100EA000F0BED349884206D101214020FFF7DFFE82
:100EB0000021402013E0CF49884206D10121802043
:100EC000FFF7D5FE0021802009E0CB4988420AD1F6
:100ED000841501212046FFF7CAFE00212046BDE807
:100EE0001040FFF7C4BE10BD30B50288B64BBC4CF5
:100EF00098420DD0A0420BD0B0F1804F08D0B34D36
:100F0000A84205D0B24DA84202D0B24DA84203D1AA
:100F100022F070054A882A43AF4DA84206D0AF4D53
:100F2000A84203D022F440750A892A4302804A6805
:100F3000C2620A880285984201D0A04201D1897A12
:100F400001860121818230BD4FF0FF3141600021D7
:100F500001800181418081727047018582827047E2
:100F6000028822F070020A43028070474162704793
:100F7000C1627047406A7047008D70470029018840
:100F800002D041F0020101E021F00201018070472E
:100F90000029018802D041F0040101E021F00401A0
:100FA000018070470029018802D041F0800101E0F2
:100FB00021F0800101807047028822F0080202803F
:100FC00002880A4302807047028822F4407202803D
:100FD00002880A43028070470029018802D041F04C
:100FE000010101E021F001010180704730B5028C60
:100FF00022F001020284028C8388048B22F0020218
:1010000024F073050C882C438D8915434A882A43A4
:101010006D4DA84202D0724DA8420DD122F00805B4
:10102000CA8923F440732A4322F004058A882A439C
:101030000D8A1D434B8A2B43838004838968416357
:10104000028430BD70B5028C22F010020284028C42
:101050008488038B0D8823F4E6464FF6FF7303EA7A
:10106000052535438E8922F0200203EA0616164331
:101070004A8803EA02123243534EB04202D0584E1D
:10108000B04215D122F08006CA8924F4406403EAF4
:101090000212324322F040068A8803EA02123243E7
:1010A0000E8A03EA860626434C8A03EA8404344304
:1010B0008480058389688163028470BD70B5028C69
:1010C00022F480720284028C8488838B0D8823F042
:1010D00073031D4322F400738E894FF6FF7202EAF8
:1010E00006261E434B8802EA03233343364EB042A2
:1010F00002D03B4EB04215D123F40066CB8924F4D4
:10110000405402EA0323334323F480668B8802EAC7
:10111000032333430E8A02EA061626434C8A02EA68
:1011200004143443848085838968C163038470BD5B
:1011300070B5028C22F480520284048C8288838BE6
:101140000D8823F4E6464FF6FF7303EA0525354381
:1011500024F400568C8903EA043434434E8803EAAD
:1011600006362643184CA04202D01D4CA04205D1A1
:1011700022F480440A8A03EA821222438280858311
:1011800089680164068470BD0021018041808180EE
:1011900081608181C18101824182704730B5012423
:1011A000058C00F118038C40A543058431B3082950
:1011B0002CD0091FC1F34E001844016848F6FF7394
:1011C0001940016001681AE000000140000400407D
:1011D00000080040000C00400010004000140040D7
:1011E000000401400040014000440140004801402B
:1011F00000180040001C00400020004006E04FF6B0
:10120000FF7303EA02221143016030BD03EB51007A
:1012100001684FF68F73194001600168F3E741637D
:10122000704781637047C163704701647047028BE8
:1012300022F070020A4302837047028B4FF6FF735D
:1012400022F4E04203EA0121114301837047828BBB
:1012500022F070020A4382837047828B4FF6FF733D
:1012600022F4E04203EA0121114381837047028B9B
:1012700022F008020A4302837047028B4FF6FF7385
:1012800022F4006203EA0121114301837047828B3B
:1012900022F008020A4382837047828B4FF6FF7365
:1012A00022F4006203EA0121114381837047028B1B
:1012B00022F004020A4302837047028B4FF6FF7349
:1012C00022F4806203EA0121114301837047828B7B
:1012D00022F004020A4382837047828B4FF6FF7329
:1012E00022F4806203EA0121114381837047028B5B
:1012F00022F080020A4302837047028B4FF6FF738D
:10130000C2F30E0203EA0121114301837047828B6D
:1013100022F080020A4382837047828B4FF6FF736C
:10132000C2F30E0203EA0121114381837047028C4C
:1013300022F002020A4302847047028C22F0080263
:101340000A4302847047028C4FF6FF7322F020029A
:1013500003EA0111114301847047028C4FF6FF73B9
:1013600022F0800203EA0111114301847047028CCC
:101370004FF6FF7322F4007203EA01211143018446
:101380007047028C4FF6FF7322F4006203EA0121DA
:10139000114301847047028C4FF6FF7322F4005210
:1013A00003EA013111430184704710B50123048C15
:1013B0008B409C430484038C8A401343038410BDF8
:1013C00010B50423048C8B409C430484038C8A4016
:1013D0001343038410BD828B22F440628283828B8C
:1013E0004FF6FF7303EA01210A4382837047828B21
:1013F00022F00C028283828B0A4382837047028B25
:1014000022F440620283028B4FF6FF7303EA01214C
:101410000A4302837047F0B5048C24F0100404845E
:10142000078B068C4FF6FF7404EA011527F4734707
:1014300004EA0331394304EA02220A4326F0A001F8
:10144000294341F0100102830184F0BD028B22F098
:101450000C020283028B0A43028370472DE9F0419C
:101460000D460E884988AA882B8904460EB3042E9F
:1014700026D0082E268C4FF6FF7028D026F48056F2
:101480002684A78B268C00EA022200EA013127F489
:1014900073473A4300EA0330104326F420420A43DC
:1014A00042F48051A0832184E9882046BDE8F041C0
:1014B00091E700F061F9E9882046BDE8F041C5E711
:1014C000FFF7A9FFE9882046BDE8F04197E726F439
:1014D00080762684A78B268C00EA012100EA03107F
:1014E000104327F0F307384326F420620A4342F4FE
:1014F0008071A0832184E9882046BDE8F04176E729
:1015000000210180418001228280C18001817047D9
:101510002DE9F0410C46002549880746012601B90E
:101520000225A288012A00D10226208823890028CA
:10153000384610D0FFF76FFFE1883846FFF75FFFAE
:10154000238932462946384600F016F9E1883846A4
:10155000BDE8F0417AE700F00FF9E1883846FFF77F
:1015600075FF2389324629463846FFF754FFE18844
:101570003846BDE8F04142E7406B7047806B7047EA
:10158000C06B7047006C704710B50A884B88CC88D8
:101590001A438B8823431A430B891A434B89898941
:1015A0001A430A43A0F8442010BD00210180418065
:1015B0008180C1800181418181817047002930F89B
:1015C000441F02D041F4004101E0C1F30E0101804B
:1015D00070470029818802D041F0040101E021F028
:1015E0000401818070470029818802D041F0010107
:1015F00001E021F0010181807047002A828901D039
:101600000A4300E08A438281704781827047024624
:101610000020128A0A4200D001207047C94301828B
:10162000704702460020138A92890B4202EA0102A7
:1016300002D0002A00D001207047C94301827047C0
:101640001143A0F848107047002A828901D00A434C
:1016500000E08A43828170470029818802D041F0EE
:10166000080101E021F0080181807047018921F023
:10167000070101817047028922F070020A4302814A
:10168000704700B50346FFF7F6FF188940F00700E2
:10169000188100BD70B50D4611460446602D4FF00F
:1016A00001020AD000F068F829462046FFF7E3FF60
:1016B000208940F00700208170BDFFF7ACFEF3E702
:1016C00030B504894FF6FF7505EA03231343E4B2EE
:1016D0000B432343038130BD10B50446FFF7F0FFF1
:1016E000208940F07700208110BD10B50446FFF737
:1016F000E7FF208940F48040208110BD828822F0DD
:101700007002828082880A4382807047028922F0B8
:101710000702028102890A4302817047028922F08E
:101720008002028102890A430281704770B50589EF
:10173000048B068C25F007050D434FF6FC410C4049
:1017400040F201110C434FF6FF7101EA031126F03C
:1017500022061143314305810483018470BD0029B1
:10176000818802D041F0800101E021F08001818078
:101770007047A0F85010704770B5048C24F0010435
:101780000484058B048C4FF6FF7606EA031313439B
:1017900025F0F3052B4324F00A020A4342F001012D
:1017A0000383018470BD0000CA4910B5884206D188
:1017B00001211020FFF765FA0021102028E0C6491A
:1017C000884202D101214C0410E0C449884202D170
:1017D00001218C040AE0C249884202D10121CC04D3
:1017E00004E0C04988420AD101210C052046FFF7D8
:1017F0003EFA2046BDE810400021FFF738BABA494A
:10180000884209D101212020FFF73BFA0021202046
:10181000BDE81040FFF735BA10BD7FB50446008A19
:101820000D4620F44051E88808432082A08941F207
:101830000C618843A9882A8911436A8902431143AC
:10184000A181A08A20F44071A8890843A08268463B
:10185000FFF759F99F48844202D0A348844201D13E
:10186000039800E00298A1890904002900EBC00157
:1018700001EB0010296802DA4FEA410101E04FEA6A
:101880008101B0FBF1F26420B2FBF0F14FEA0111EB
:101890004FEA11136FF018056B4302EB8302A38923
:1018A0001D044FF0320306D503EBC202B2FBF0F089
:1018B00000F0070005E003EB0212B2FBF0F000F0CD
:1018C0000F00084320817FBD4FF4165101600021B5
:1018D0008180C18001810C2242818181704710B5D5
:1018E000028A4C8822F470630A8822438C88C98853
:1018F0000C4322431A43028210BD00210180418023
:101900008180C18070470029818902D041F4005153
:1019100001E021F4005181817047028B02F47F4283
:101920000283028B0A43028370470029818902D017
:1019300041F4004101E0C1F30E01818170470029AB
:10194000818A02D041F4006101E021F400618182CA
:101950007047C1F30801818070478088C0F3080098
:101960007047028A22F00F020282028A0A43028230
:1019700070470029818902D041F0020101E021F085
:10198000020181817047828922F40062828182890A
:101990000A4382817047028A22F020020282028A70
:1019A0000A43028270470029018A02D041F4804133
:1019B00001E021F4804101827047818941F00101F9
:1019C000818170470029818A02D041F0080101E03D
:1019D00021F0080181827047028BD2B20283028B10
:1019E00042EA0121018370470029818A02D041F037
:1019F000200101E021F02001818270470029818AC5
:101A000002D041F0100101E021F010018182704705
:101A1000828A22F004028282828A0A43828270478A
:101A20000029818A02D041F0020101E021F0020187
:101A300081827047002A828A01D00A4300E08A43EB
:101A40008282704710B5C1F3421301F01F040121D7
:101A5000A140012B07D0022B07D01430002A0268C6
:101A600005D00A4304E00C30F8E71030F6E78A436B
:101A7000026010BD0246002012880A4200D00120F8
:101A80007047C9430180704730B501F01F0201243F
:101A90000025C1F3421304FA02F2012B0FD0022BEE
:101AA0000FD0838A4FEA11210088134204FA01F40F
:101AB00000EA040001D000B10125284630BD838929
:101AC000F0E7038AEEE70A0A01219140C943018049
:101AD00070470000001001400044004000480040F2
:101AE000004C0040005000400014014010B501F0CF
:101AF00085F8B84C207808B100F044FF60780028E1
:101B000003D0BDE8104002F0FDB810BD00F010FA9F
:101B100000F082FA00F0E6FA4FF4165000F08EFB67
:101B200000F07EFD00F03AFE00F0B4FD00F0A6FEED
:101B3000A94C4FF4805631462046FEF7F9FE71005D
:101B40002046FEF7F5FEB1002046FEF7F1FEF1005B
:101B50002046FEF7EDFEA14D40212846FEF7E8FEA7
:101B600080212846FEF7E4FE9D4F04213846FEF70B
:101B7000DFFE31462846FEF7DBFEDFF868924FF4C1
:101B8000807841464846FEF7D3FE4FF4007A51462E
:101B90002846FEF7CDFE4FF47A74204600F005FA91
:101BA0002146C82000F0DDFD8A4C0120A0704FF4D2
:101BB000487060606420A060C8204100C4E905014D
:101BC0005021E1617821216214216162E0606FF0AF
:101BD0004601A1634FF4FA7020614721E1636FF081
:101BE000A9012164AA2161644FF4EB61A16240F272
:101BF000B271C4E90B10606301E00028FDD000F071
:101C000021FE4FEAE07100EB51504FEAE0204FEA2D
:101C1000E07100EB917121F00301401A00D54042C0
:101C200030B101280DD002281CD0032837D126E07E
:101C300004213846FEF77AFE31462846FEF778FE44
:101C400007E004213846FEF773FE31462846FEF7CA
:101C50006DFE41464846FEF76BFE51462846FEF7AC
:101C600067FE1CE004213846FEF762FE3146284636
:101C7000FEF75EFE41464846FEF758FEEDE70421BA
:101C80003846FEF755FE31462846FEF751FE4146DE
:101C90004846FEF74DFE51462846FEF747FE0A200D
:101CA00000F083F9A078A8E710B54FF4FA71C820C6
:101CB00000F057FD4FF47A7000F077F94AA003F076
:101CC0000FF9BDE8104001F056BA10B54FF4FA71A3
:101CD000C82000F046FD4FF47A7000F066F947A086
:101CE00003F0FEF8032002F09FF802F0F1FD02F08D
:101CF000D7FD032002F098F802F0B8FDBDE81040CF
:101D000002F09ABD10B54FF4FA71C82000F029FD19
:101D10004FF47A7000F049F93DA003F0E1F802F0C9
:101D20006BFF02F0A9FE642000F03FF9BDE810400F
:101D300002F03CBA10B53B482DED028B8EB0006826
:101D400005F086F841EC180B00F078FD044600F031
:101D500079FD01463448364B026834481B680068F8
:101D60000A93CDE90B023348334A8DED088B0068A6
:101D70001268CDE90520CDE9031430483049314AD5
:101D80000068096812680092CDE901102E480368C6
:101D90002E4802682E4801682E4803F0A1F80EB0C4
:101DA000BDEC028B10BD4FF4FA71C82000F0D9FCD5
:101DB0004FF47A7000F0F9F827A003F091F800BF13
:101DC00000F0E0FD00F06BFFFFF7B4FF022000F031
:101DD000ECF8F5E73400002000040240000802405F
:101DE000000C024000000240427574746F6E203097
:101DF00020707265737365640A0D00004275747417
:101E00006F6E203120707265737365640A0D000077
:101E1000427574746F6E20322070726573736564DE
:101E20000A0D0000E40000206C0100206401002085
:101E300060010020E0000020C0000020C800002059
:101E4000D0000020D8000020D4000020CC000020CA
:101E5000C40000204C6F0008427574746F6E20330C
:101E600020707265737365640A0D00007047FEE7A9
:101E7000FEE7FEE7FEE770477047704729480168B4
:101E8000491C016028490868002802DA274B002213
:101E90001A60401E0860FFF729BE70B52020FEF7CB
:101EA00059FC4FF4967438B1204600F07EF8FFF7E5
:101EB000FBFE2020FEF75CFC4FF480752846FEF701
:101EC00049FC002809D0204600F06FF8FFF76BFFAF
:101ED0002846BDE87040FEF74BBC70BD70B54FF4AE
:101EE00000652846FEF736FC4FF4967438B120465C
:101EF00000F05BF8FFF7E9FE2846FEF739FC4FF4E7
:101F000080552846FEF726FC002809D0204600F020
:101F10004CF8FFF7F7FE2846BDE87040FEF728BCF6
:101F200070BD0000A0000020B40000203404004078
:101F300070B502F063FF02F086FF33484FF47A7108
:101F40000068B0FBF1F0401EB0F1807F16D24FF078
:101F5000E024606166170F21304600F049F8002543
:101F6000A561072020614FF44070FEF799F9002128
:101F7000304600F03DF82548456070BDFEE74FF063
:101F8000E0208069A821B0FBF1F12048426802EB13
:101F90004203C3EBC212C1EBC20101F57A710160C9
:101FA00000687047194840687047184A516853687C
:101FB0005B1A8342FBD1704730B50546FFF7DFFF60
:101FC0004FEA0004FFF7DBFF001BA842FAD130BD47
:101FD00030B50C464FEA0005FFF7D1FF001BA842C1
:101FE000FAD330BD094A53685B1A8342FBD370476A
:101FF0000907090E002803DA00F00F00044A00E088
:10200000044A815470470000780100209C000020A1
:1020100014ED00E000E400E07CB501210846FEF785
:10202000D6FD01210220FEF7D2FD01210420FEF79A
:10203000CEFD01210820FEF7CAFD4FF4807000900C
:1020400001208DF8040000208DF8060003218DF892
:1020500005108DF8070069461E48FEF7F1FB4FF4A6
:1020600090501D4D009069462846FEF7E9FB04207C
:10207000009069461948FEF7E3FB4FF47040184E94
:10208000022400908DF8074069463046FEF7D8FBE1
:10209000C02000908DF8074069462846FEF7D0FB27
:1020A00040212846FEF744FC80212846FEF740FCEC
:1020B000E1023046FEF73CFC21033046FEF738FCD7
:1020C00061033046FEF734FCA1033046FEF730FCD6
:1020D0007CBD00000000024000080240000C0240ED
:1020E000000402402DE9F047012186B08803FEF785
:1020F00096FD01210720FEF76AFD00248DF81040AF
:1021000020258DF8134003A949480395FEF798FB55
:1021100005210120FEF733FE00958DF804400826C6
:102120008DF8056001258DF806506846FEF7C2FA65
:102130004FF017098DF808908DF809508DF80A4076
:102140008DF80B5002A8FEF7B0F8DFF8E8A08DF884
:102150001040EF028DF8134003A950460397FEF795
:102160006FFB0B210020FEF70AFE8DF804408DF86E
:10217000056000978DF806506846FEF79BFA282701
:102180008DF808708DF809508DF80A408DF80B50C5
:1021900002A8FEF78AF88DF810404FF480588DF8A9
:1021A000134003A95046CDF80C80FEF749FB0C21E3
:1021B0000020FEF7E4FD8DF804408DF80560CDF8B1
:1021C00000808DF806506846FEF774FA8DF80870A6
:1021D0008DF809508DF80A408DF80B5002A8FEF7D3
:1021E00064F88DF810402F028DF8134003A91248AF
:1021F0000397FEF725FB08210220FEF7C0FD8DF8AE
:1022000004408DF8056000978DF806506846FEF78B
:1022100051FA8DF808908DF809508DF80A408DF824
:102220000B5002A8FEF741F806B0BDE8F0870000A9
:1022300000040240000002400008024070B505465C
:1022400088B001210220FEF7C2FC01211020FEF718
:10225000E6FC6D4E072209213046FEF776FB072289
:102260000A213046FEF771FB00248DF8164001204C
:102270008DF8170002208DF814004FF4C06104910E
:102280008DF8150004A93046FEF7DAFA5F4E0121F9
:102290003046FFF74AFBADF808400C20ADF80A00C5
:1022A000ADF80440ADF80640ADF818403015ADF873
:1022B0001A00ADF81E400095ADF80C40ADF81C407A
:1022C00069463046FFF7A9FA06A93046FFF707FB33
:1022D00001213046FFF717FB08B070BD00207047A2
:1022E00070B54A4D0446C1B22846FFF732FB802143
:1022F0002846FFF7BFFB0028F9D0204670BD4348B1
:1023000001888906FCD58088C0F30800704770B545
:102310003E4D044680212846FFF7ACFB0028F9D04B
:10232000A1B22846FFF715FB204670BD10B538A0B6
:1023300002F0D6FD354C20212046FFF79BFB0028FC
:10234000F9D02046FFF709FBC0B210BD10B539A087
:1023500002F0C6FD2D4C20212046FFF78BFB002804
:10236000F9D02046FFF7F9FA01463AA002F0B8FD8D
:102370002046FFF7F2FAC0B210BD10B537A002F048
:10238000AFFD224C20212046FFF774FB0028F9D036
:102390002046FFF7E2FAA0F1300137A002F0A0FDDD
:1023A0002046FFF7DAFA303810BD10B50446014672
:1023B00086B033A001E0214638A002F091FD6946C5
:1023C00041A002F0C5FE694640A002F089FD214609
:1023D000684603F009F80028EDD106B010BD38B505
:1023E000044601463BA001E0214641A002F078FDF1
:1023F00069464AA002F0ACFE1FA0009902F070FDF1
:102400000098A042F0D138BD000002400010014009
:102410000D0A707265737320616E79206B65792087
:10242000746F20636F6E74696E75652E2E2E0D0AA3
:102430000D0A0000706C6561736520656E746572CD
:102440002061206368617261637465722E2E2E0DA7
:102450000A00000025630D0A00000000706C656131
:10246000736520656E7465722061206469676974A4
:102470002E2E2E0D0A00000025640D0A000000001B
:10248000507265737320257320746F20436F6E74D0
:10249000696E75652E2E2E203A000000496E766119
:1024A0006C696420696E7075742C2070726573732A
:1024B00020257320746F20436F6E74696E75652ECE
:1024C0002E2E203A000000002573000025730D0A0F
:1024D00000000000507265737320256420746F2023
:1024E000436F6E74696E75652E2E2E203A000000C3
:1024F000496E76616C696420696E7075742C207009
:102500007265737320256420746F20436F6E746945
:102510006E75652E2E2E203A000000002564000006
:102520001CB501210420FEF770FB4FF47070009081
:1025300002208DF8040003208DF8050000208DF89E
:102540000600504C8DF8070069462046FEF778F9E2
:10255000022206212046FEF7F8F902220721204632
:10256000FEF7F3F9022208212046FEF7EEF90222D7
:1025700009212046FEF7E9F91CBDF0B589B040F20B
:10258000E73006900320ADF8140000263E4FADF86A
:102590001C60ADF8166005A93846FEF7A5FC602062
:1025A0003A4DADF800000124ADF8024028880290B1
:1025B000ADF80C6069463846FEF718FD082138462C
:1025C000FEF755FEADF8024068880290694638462D
:1025D000FEF738FD08213846FEF74FFEADF8024001
:1025E000A888029069463846FEF768FD08213846FB
:1025F000FEF74DFEADF80240E88802906946384685
:10260000FEF796FD08213846FEF747FE01213846C1
:10261000FEF7C8FC01213846FEF7DEFC09B0F0BD2C
:1026200010B5FFF77DFFBDE81040A6E7184909681F
:10263000884200DD08464942884200DA0846124ACC
:1026400000213432131D002802DB1060196070472E
:1026500011604042186070470D490968884200DDEA
:1026600008464942884200DA0846074A00213C32BF
:10267000131D002802DB1160186070474042106093
:10268000196070470004024000080040AC000020C0
:102690003800002030B58BB001210220FEF7B5FADA
:1026A0004020059002208DF8180003218DF81910A4
:1026B00000248DF81A40354D8DF81B0005A92846D9
:1026C000FEF7BEF8022206212846FEF73EF99520C5
:1026D00008908B20ADF81C002D4DADF82440ADF8CE
:1026E0001E4007A92846FEF7FFFB6020ADF800005A
:1026F0000120ADF802000294ADF80C40694628466E
:10270000FEF774FC08212846FEF7B1FD012128469A
:10271000FEF748FC01212846FEF75EFC0BB030BDF9
:102720002DE9F04105461B498C2068430860184F8D
:1027300095202C3738600024154EA04634360CE026
:102740003868401CC00830604620FFF72EFCC6F8F1
:1027500000804620FFF729FC641CAC42F0DBBDE89A
:10276000F0810B4A10B52C321368094C5B1C9B0896
:1027700034342360084B93FBF1F18C2391FBF3F18C
:10278000491E11600349086010BD000000000240AE
:1027900000040040B400002000BD01057CB501210B
:1027A0000920FEF732FA02208DF8040001208DF88E
:1027B000070048F203002E4C009069462046FEF7C1
:1027C0003FF808202B4D009069462846FEF738F860
:1027D000022200212046FEF7B8F8022201212046FD
:1027E000FEF7B3F801220F212046FEF7AEF80122D2
:1027F00003212846FEF7A9F81F4C4FF0FF35294664
:102800002046FEF7B5FB29464FF080452846FEF7E7
:10281000AFFB0223002203212046FEF787FF00239F
:102820001A4603212846FEF781FF01212046FEF7C4
:10283000D3FB01212846FEF7CFFB7CBD0E48243098
:10284000006870474FF08040406A70470A49002096
:102850002431086070474FF0804100204862704783
:1028600005492431086070474FF080414862704745
:102870000000024000040240000C004070B501213D
:102880008CB00802FEF7CBF9BC20032500908DF830
:10289000045000248DF8074069463648FDF7D0FF04
:1028A000354E8DF8045000958DF807406946304646
:1028B000FDF7C6FF8DF804503020304D00908DF8A4
:1028C000074069462846FDF7BBFF4FF48030CDE94D
:1028D00008404FF47060CDE90A4008A8FDF76FFD8D
:1028E0008DF80C4002948DF80D400594069401205B
:1028F000234C8DF81C0002A92046FDF735FD01226E
:1029000040F205212046FDF795FE01212046FDF706
:102910006BFDA1143046FEF70BF861143046FEF74C
:1029200007F84FF480413046FEF702F84FF40041BB
:102930003046FDF7FDFF40212846FDF7F9FF8021D5
:102940002846FDF7F5FF0CB070BD10B513460446E0
:102950000122FDF77CFD2046FDF7B3FD0221204654
:10296000FDF771FE0028F9D02046BDE81040FDF7C4
:10297000DABD0000000002400004024000080240EE
:10298000002001402DE9F05FAE4D042209212846C8
:10299000FFF7DBFFAC4C04220521E0602846FFF77F
:1029A000D4FF2061042208212846FFF7CEFF606192
:1029B000042207212846FFF7C8FFA06104220F2147
:1029C0002846FFF7C2FFE06104220E212846FFF7E8
:1029D000BCFF2062FFF7D3FA9C4E83464FF4805928
:1029E00049463046FDF7A2FFDFF864828021474662
:1029F0004046FDF79BFF59463C20FFF7E9FA0422C9
:102A000009212846FFF7A1FFE1680422401AE0608F
:102A100005212846FFF799FF2169401A20614946A0
:102A20003046FDF785FF80213846FDF781FFE068DD
:102A30000027002800DAE7602069002800DA276113
:102A40005946C820FFF7C4FA4FF4005A5146B14620
:102A50003046FDF76BFF402146464046FDF766FFD6
:102A600059464FF4AA70FFF7B3FA0422082128460A
:102A7000FFF76BFF61690422401A60610721284655
:102A8000FFF763FFA169401AA06151464846FDF770
:102A90004FFF40213046FDF74BFF6069002800DA08
:102AA0006761A069002800DAA761E26821684FF435
:102AB0007A704A4392FBF0F2E26022694A4392FB49
:102AC000F0F2226162694A4392FBF0F26261A2690C
:102AD0004A4392FBF0F0A061BDE8F09F2DE9F0477A
:102AE000FFF74DFA574D814604220F212846FFF784
:102AF0002CFF554C04220E21E0612846FFF725FFEC
:102B0000524F4FF48046206231463846FDF70EFFA3
:102B10004FF4004841463846FDF708FF49464FF458
:102B2000AA70FFF755FA04220F212846FFF70DFF80
:102B3000E1690422401AE0610E212846FFF705FFF3
:102B4000216A401A206231463846FDF7F1FE4146BF
:102B50003846FDF7EDFEE1690020002900DAE0616A
:102B6000216A002900DA2062E26921684FF47A7054
:102B70004A4392FBF0F2E261226A4A4392FBF0F090
:102B80002062BDE8F0872DE9F04128262E4C002078
:102B90002C4F05466062042211463846FFF7D5FEE9
:102BA000616A6D1C08446062B542F4DB4CF250313E
:102BB00091FBF6F0626A5043264A104490FBF1F014
:102BC000C11700EB5170C0106062A16A0844A06296
:102BD000BDE8F08110B5042203211A48FFF7B5FEC5
:102BE000194C606004F01FF89FED1B1B53EC112B78
:102BF00003F092FE03F0E8FFA06010BD10B5FFF7F0
:102C0000E9FF114841F658318068884218DA0421FA
:102C10001348FDF78BFE0E4C4FF480512046FDF714
:102C200085FEA1150F48FDF781FE61152046FDF7D1
:102C30007DFEBDE810404FF47A71C820FFF791BDCA
:102C400010BD000000200140B80000200004024038
:102C50000008024008136DFAAC1C5A643BDFD33FF6
:102C6000000C024000000240FF4FDFF800840D46D8
:102C700006464FF47A7900BFFFF781F90446FFF763
:102C800081FE3868301AFFF7D1FCD8F80000281A06
:102C9000FFF7E2FC21464846FFF79AF9ECE710B54A
:102CA000F148F349F34C00680A684FF480519042B0
:102CB000204602DDFDF73AFE01E0FDF739FEEE4861
:102CC0000168EE480268EE4891424FF0040102DDCF
:102CD000FDF72CFE01E0FDF72BFEEA48EA4900680B
:102CE0000A684FF400719042204602DDFDF71EFE97
:102CF00001E0FDF71DFEDD484FF480710268E348F6
:102D00000368E3489A4203DDBDE81040FDF70EBEBC
:102D1000BDE81040FDF70CBE70B50D460446FFF748
:102D20009AFDFFF793FD2046FFF780FC2046FFF752
:102D300093FC2846FFF739F90020FFF777FC0020C5
:102D4000FFF78AFC6420FFF730F9FFF777FD0446B0
:102D5000FFF778FD201A70BD0EB50020CD49CE4A90
:102D60008246087001211170CC49074683460870DD
:102D700080460546009004460190C9484FF001097D
:102D80000168C8480160C848C84A0068126809FB61
:102D900000F18E1ABAF1000F40D186423EDCC449E0
:102DA0004FF0010AC34A81F800A000211170C24906
:102DB00081F800A02DB9022C03D0032C01D0042CE3
:102DC00026D1BE4890ED000AB8EEC00A01F01EF808
:102DD000BDEEC00A10EE100A00B20290B84890EDA5
:102DE000000A01F013F8BDEEC00A029A10EE100AB4
:102DF00001B2304600F098FF00EE100AB148B8EE7C
:102E0000C00AD0ED000AB4EEE00AF1EE10FA01D2E9
:102E1000A34800E0A9480168A248016057B9A24848
:102E2000006800EB4000C11700EB9170B6EBA00FFB
:102E300000DC012737EA080002D09D490120087014
:102E4000BBF1000F38D19848006800EBD070B6EBAA
:102E5000600F31DC844886494FF0010B0068096837
:102E6000884205DC8148894900680968884200DD9C
:102E700001258148814900680968884201DD0120F7
:102E800000908048804900680968884201DD01207F
:102E90000190FFF787F800F00304641C012C0FD0A9
:102EA000022C10D0032C10D0042CF2D1009905EA8A
:102EB000010001990842ECD0B8F1000F09D012E0EE
:102EC000002DE6D1F8E7009800E001980028E0D155
:102ED000F2E775480068C11700EB9170B6EBA00FE0
:102EE00005DC4FF0010815B1714800210170002E7A
:102EF0000ADD5D4801684FF4FA60814204DC5B49F9
:102F0000096881427FF73FAF09F101094FF47A71F7
:102F1000C820FFF726FC3DB16B4802686B4801688A
:102F20006B48006800F070FD022C04D0032C04D024
:102F3000042C04D00AE0674802E0674800E06748D4
:102F400090ED000AB8EEC00A00F0C4FC4FF0000A91
:102F50005746D346D0465546CDF800A0CDF804A03C
:102F600011E72DE9F05F5E495E48DFF87CA10A6851
:102F70004FF0FC0902EB420300EB031CDAF80000FF
:102F80004F464E465CF820404D460CEB800C0B2A19
:102F900001DADCF830900B2801DADCF80470002844
:102FA00001DD5CF8306C002A01DD5CF8045CDFF8C0
:102FB0003CA18B460AEB031151F8200001F0B8FC4C
:102FC000DFF82C8140B9611E894505D14E2188F872
:102FD00000100520BDE8F09FDBF80000DFF808A135
:102FE00000EB40014148D94600EB0111DAF800003E
:102FF00051F8200001F09FFC38B9601E874204D1CF
:10300000452188F800100620E4E7CB46D9F80000F7
:10301000DFF8D89000EB400109EB0110DAF800105E
:10302000574650F8210001F089FC38B9601E8642ED
:1030300004D1532188F800100720CBE7DBF800000B
:1030400000EB400109EB0110396850F8210001F054
:1030500078FC38B9641EA5424CD1572188F800107D
:103060000820B7E746E00000C4000020C8000020A8
:103070008400002000080240CC0000208C000020CA
:10308000000C0240D00000209000002088000020AA
:103090000000024036000020800000208100002057
:1030A00054000020EC0000202C00002064010020CF
:1030B000340000207C000020350000205800002053
:1030C000E4000020300100204000002060000020CB
:1030D0005C0000206C0000207000002074000020C4
:1030E00014000020CC030020100000208C010020E0
:1030F0002400002000206DE72DE9F041FE4F00265E
:1031000006EB4600002407EB001500BF55F824002D
:1031100001F01AFC38BB55F824000B2E40F00F00CC
:1031200045F8240005DA05EB8400016B41F0040149
:103130000163002E06DD05EB840050F8301D41F0E0
:10314000010101600B2C05DA05EB8400416841F0B8
:1031500008014160002C06DD05EB840050F8041DD9
:1031600041F002010160641C0C2CCFDB761C0C2E9C
:10317000C6DBBDE8F0812DE9F04FE5B000F0FBFDC6
:10318000DFF878A3DE4901208AF8000008704FF4C8
:10319000C871684602F001F9DA4E0025DA4CDFF812
:1031A0006C9335604E212560A84689F80010FFF722
:1031B000A3FF00F005FF01F078FC0027EB4693E049
:1031C00099F800004E2806D0452828D0532842D030
:1031D000572864D07FE0206802E06D1C401C20600E
:1031E00000EB4001C44800EB0110316850F82100A9
:1031F00001F09EFB00286ED12068C54900EB40021B
:1032000001EB0211326801EB820351F822101B6BB3
:10321000491E8B42E1D05EE06D1C401C306020688E
:1032200000EB4001B44800EB0110316850F8210078
:1032300001F081FB78BB206800EB4001B44800EB53
:103240000111306801EB800251F820105268491ECC
:103250008A42E1D03FE0206802E06D1C401E206001
:1032600000EB4001A44800EB0110316850F8210048
:1032700001F064FB78B92068A54900EB400201EB3E
:103280000211326801EB820351F8221053F8303CEE
:10329000491E8B42E1D01EE06D1C401E306020684C
:1032A00000EB4001944800EB0110316850F8210018
:1032B00001F047FB78B9206800EB4001944800EB2F
:1032C0000111306801EB800251F8201052F8042CF3
:1032D000491E8A42E0D08F4840F82750FFF741FE50
:1032E0004BF8270000257F1C01F034FB00283FF439
:1032F00067AF00245E46874D25E000BF00F094FDD7
:1033000056F82400052806D006280AD007280ED033
:10331000082812D016E080A001F0E2FD01F08CFA3E
:1033200010E07FA001F0DCFD01F0A0FA0AE07EA031
:1033300001F0D6FD01F0B4FA04E07DA001F0D0FD6B
:1033400001F0C6FA641C55F824000028D6D17A4949
:10335000C1F800808AF8008065B0BDE8F08F70B5D4
:1033600069486549694C006800EB400001EB0010BA
:103370006449096850F8215020784E2803D1284626
:1033800001F0D6FAA0B92078452803D1284601F0EB
:10339000D2FA68B92078532803D1284601F0CEFA32
:1033A00030B92078572805D1284601F0CAFA08B16B
:1033B000012070BD002070BD2DE9F84F00F0DBFC4E
:1033C000DFF838B101205D498BF80000002008705B
:1033D0005B49012000250870014649482F46A84650
:1033E000017058490020A94608705749087057498C
:1033F000012006460870FFF77FFE00F0E1FD01F0B6
:1034000054FB4048002101603F4801603F484E2185
:103410000170FFF720FAFFF719FA4D48DFF818A1FD
:103420004C4C0168CAF80010FAE14B484B4900685F
:10343000096806FB00F2551A07BB85421EDC3F4BAC
:1034400001278BF8007000221A702D4A2F4917703F
:1034500009784E2906D0452908D053290BD0572981
:1034600010D00BE028490A68521C06E0254A116872
:10347000491C116002E0244905E00A60B8F1000F20
:1034800004D00DE01F490A68521EF6E700EB400128
:10349000CA1701EB9271B5EBA10F01DC4FF00108E7
:1034A00000EBD071B5EB610F7ADC174D154EDFF8EC
:1034B00048A02868316800EB40000AEB001050F883
:1034C000210001F035FADFF848B010B14FF4FA7777
:1034D00008E0286800EB400130680BEB011101EBBC
:1034E0008000076B2868B04600EB400130680AEBAB
:1034F000011151F8200033E08C010020340000203D
:1035000035000020100000201400002024000020BE
:10351000CC0300200C0600204D6F76654E000000A5
:103520004D6F7665450000004D6F766553000000D5
:103530004D6F766557000000EC0000207C000020F5
:103540007D00002036000020800000208100002047
:103550004C000020200000202C00002064010020EE
:1035600001F0E9F910B14FF4FA7609E0286800EBB0
:103570004001D8F800000BEB011101EB8000466818
:103580002868A94600EB4001C6480AEB0111006813
:1035900051F8200001F0D2F918B14FF4FA750CE09F
:1035A000D1E0D9F8000000EB4001BE480BEB01115F
:1035B000006801EB800050F8305CC846D9F8000084
:1035C000DFF8E09200EB40010AEB0111D9F80000AE
:1035D00051F8200001F0B5F910B14FF4FA700BE08A
:1035E000D8F8000000EB4001D9F800000BEB011106
:1035F00001EB800050F8040CB74205DAAF4203DA61
:10360000874201DA05200EE0BE4205DAAE4203DA57
:10361000864201DA062006E0B54206DABD4204DA47
:10362000854202DA0720206081E04FF0080BB042AB
:1036300003DAA84201DAB84277DB9B4D28784E289E
:103640000DD1D8F8000000EB40000AEB0011D9F8CA
:10365000000051F8200001F06BF90028D2D0287842
:1036600045280DD1D8F8000000EB4001D9F8000042
:103670000AEB011151F8200001F05DF90028C9D0D2
:10368000287853280DD1D8F8000000EB40000AEB51
:103690000011D9F8000051F8200001F04FF900287E
:1036A000C0D0287857280CD1D8F8000000EB400192
:1036B0000AEB0110D9F8001050F8210001F041F98F
:1036C00098B3D8F80000D9F8001000EB40000AEBDE
:1036D0000010454656464F4650F8210001F028F9A3
:1036E00000288FD02868396800EB400006EB0010F6
:1036F00050F8210001F01FF900288BD028683968A4
:1037000000EB400006EB001050F8210001F016F924
:10371000002887D0286800EB400006EB00113868CD
:1037200051F8200001F00DF908B9C4F800B00020EC
:10373000FEF77CFF0020FEF78FFF5C490020087039
:1037400001F0B3F9FEE7B9F1000F0DD1C11700EB9D
:103750009170B5EBA00F07DC4FF00109FFF7FFFDFB
:1037600010B100218BF8001000F00EFCF0B35048AF
:1037700090ED000AB8EEC00A00F048FBBDEEC00AAA
:1037800010EE100A00B200904A4890ED000A00F0D6
:103790003DFBBDEEC00A009A10EE100A01B22846A9
:1037A00000F0C2FA00EE100A4348B8EEC00AD0EDAD
:1037B000000AB4EEE00AF1EE10FA21D33C48002DE5
:1037C0000168CAF8001009DD3C48016840F6C410E1
:1037D000814203DC3A490968814221DD761C4FF4BD
:1037E0007A71C820FEF7BDFF206800E008E00528D8
:1037F00008D0062809D007280AD008280BD00CE0EA
:103800003048DCE701F018F807E001F02FF804E099
:1038100001F046F801E001F05BF80027B846B94630
:1038200001F098F800283FF400AE00278BF80070F4
:10383000DFF880B0DFF880905446DFF8748023E032
:10384000214822499BED000A006809687043451A27
:10385000B8F80000BDEEC00A02B210EE100A01B2C4
:10386000284600F061FA00EE100AD9ED000AB8EE21
:10387000C00AB4EEE00AF1EE10FA02D21448006871
:1038800001E0D8F800002060002DD9DC002027607E
:10389000FEF7CCFE0020FEF7DFFE04480770BDE80F
:1038A000F88F0000100000202400002035000020C8
:1038B00058000020E400002030010020C400002057
:1038C000C80000204C0000202C00002064010020D3
:1038D000540000202DE9F05F3E4800242DED088BB8
:1038E0000121B0EE40BA0470DFF8ECA03B488AF842
:1038F00000100460FEF756FB0646394DFEF752FBFA
:103900002968801B8842F9D33648374980460768C2
:103910008946DFF8D8B09FED369B9FED37AB0E6838
:103920000CE000BFB5EEC0BA3548F1EE10FA01D296
:10393000016801E00068414232480160D8F80000A7
:10394000C01B00EE100AB8EEC00A00F065FAD9F804
:103950000000B0EE408A801B00EE100AB8EEC00AEC
:1039600000F05AFA78EE00BAB0EE4B0A00F054FAC2
:1039700010EE100A03F06CFA41EC180BDBF80000B3
:1039800003F066FA53EC192B03F064F953EC182B8F
:1039900003F060F953EC1A2B02F0BEFF02F08AFF2D
:1039A00000EE100A00F032FAF4EEC0BAF1EE10FAAE
:1039B000B8D314480460FEF7F5FA0646FEF7F2FAAB
:1039C0002968801B8842F9D38AF80040BDEC088B37
:1039D000BDE8F09F3400002035000020EC000020FE
:1039E000440000204401002048010020280000205D
:1039F0001F85EB51B81E09400000000000806640A2
:103A000050000020F00000202DE9F74FDFF87C90F7
:103A10001F490120D9F800600968C9F800101D4944
:103A2000174608701C4900200870FEF7BBFA0546CF
:103A3000DFF868A0DFF868B04FF47A7815E000BFCF
:103A4000FEF79DFA04460098DAF80010401AFEF7D7
:103A5000EDFD0198DBF80010401AFEF7FDFD00BFF8
:103A6000FEF78DFA001B4045FAD3FEF79BFA401B88
:103A7000B842E5D30B480068FEF7F6FE0A48006836
:103A8000FEF7EEFEC9F80060BDE8FE8F38000020AA
:103A90003C0000203400002035000020C40000203D
:103AA000C8000020440100204801002030B5FB4838
:103AB000FE49FC4B0268FA4809680468FA48A242C9
:103AC000006803DD884201DD851A9D60A24201DDA8
:103AD000A01A04E0884201DD401A00E0002098604E
:103AE00030BD70B5EF4CEF4D803CD4E91C010A1895
:103AF000091AC4E90421EE482B69006890FBF3F031
:103B0000EC4B1B782BB9EC4B1B780BB1084600E053
:103B1000084400EE102AD4ED000AB8EEC00A30EED8
:103B2000C00AD4ED080A30EE200A84ED080A00EE3F
:103B3000100AD4ED010AE148B8EEC00A30EEC00A1E
:103B4000D4ED090A30EE200A84ED090A007878B134
:103B5000FFF7ACFFD5E9020190FBF1F000EE100A8F
:103B6000D4ED090AB8EEC00A30EE800A84ED090AE5
:103B7000D4ED080A94ED0E0A94ED0A1AD4ED0F1A4A
:103B800020EE200A30EEC11A04F1280301EE810A6A
:103B9000BDEEC00A10EE101A216394ED091A94EDDF
:103BA000100AD4ED0B1A94ED112A20EE010A71EEE1
:103BB000611A02EE210ABDEEC00A10EE102A6263FD
:103BC000881AC3EC020A1144C4E91601FEF72EFD5F
:103BD000E06DBDE87040FEF73FBDB248B0EE001AA0
:103BE000803890ED020AD0ED000AB8EEC02ADFED71
:103BF000B41AF4EEC20AF1EE10FA11D290ED122AC4
:103C000022EE011A81EE212AB8EEC01A72EE200AC5
:103C1000C0ED000AF4EEC10AF1EE10FA18DC1BE068
:103C2000B8EEC02AF4EEC20AF1EE10FA14DD90EDFF
:103C3000132A22EE011A81EE212AB8EEC01A70EE84
:103C4000C20AC0ED000AF4EEC10AF1EE10FA03D286
:103C5000B8EEC00A80ED000A90ED030AD0ED010A2B
:103C6000B8EEC01AF4EEC10AF1EE10FA11D290EDDE
:103C7000141A70EE810AB8EEC01AC0ED010AF4EE13
:103C8000C10AF1EE10FA03DDB8EEC00A80ED010AB8
:103C90007047B8EEC01AF4EEC10AF1EE10FAF7DD83
:103CA00090ED151A70EEC10AB8EEC01AC0ED010A07
:103CB000F4EEC10AF1EE10FAE6D3704770B5FEF7E4
:103CC000C1FD784C803C2066FEF7B8FD226EA16EE7
:103CD000511A2167E36EC4E91A20C31ACD1805EB07
:103CE000D5756D10C4E91D3511441844C4E9181088
:103CF00008446C4900EBD07040100860E06F401B36
:103D0000E06770BD10B5FFF7D9FFFFF766FFBDE8AC
:103D10001040E6E600EE100A6A48F8EEC00A90EDA0
:103D2000001A80EE810A704700B5002901DA494285
:103D300009B2002A01DA524212B2002801DC4FF027
:103D40000100FFF7E7FF11FB01F002FB1200642105
:103D5000484300EE900AB8EEE01AC1EE000AB5EE54
:103D6000000A20EE800ABDEEC00A10EE100A0028FC
:103D700000DA404200BD10B550480024047052489B
:103D800004702046FEF752FC0020FEF765FC9FED14
:103D90004F0A44484349803880ED060A80ED070AFF
:103DA00080ED000A80ED010A8460C46080ED080A9D
:103DB00080ED090A80ED0A0A80ED0B0A8466C4666C
:103DC000046644660C604C608465C465C467FEF795
:103DD00042FDBDE81040FEF739BDB5EEC00AF1EE78
:103DE00010FA01D8B7EE000A60EEA00A41EE410ACF
:103DF00080EE801AB4EE000A21EE000AB5EEC00A89
:103E0000F1EE10FA01D2B1EE400A70472D48D0ED24
:103E1000000A20EE200A7047B5EEC00AF1EE10FA53
:103E200001D2B1EE400A70472DE9F0410546FFF797
:103E3000A2FF224F2449012038700870194900223E
:103E4000234B8039174EDFED211ADFF888801AE006
:103E5000201A0CEBDC74B0EB640F00DA3A70FFF759
:103E600059FFB0EE611AD1ED000AFFF7B6FFD1EDB0
:103E7000130AB4EEE00AF1EE10FA03D2D8F800000B
:103E8000886000E08A60D3F800C0306805FB0CF45D
:103E90008442DDDC8A60BDE8F0810000CC000020B7
:103EA0009400002064010020D00000209800002031
:103EB000DC0000207E0000207F0000203400002075
:103EC0000000C84230000020350000200000000043
:103ED0002C000020480000202DE9F047DFF88894EE
:103EE0004FF090080026002456EA040041D006EB6B
:103EF000460109EB011555F8240000F019FD0746AD
:103F000055F8240000F017FD074455F8240000F090
:103F100015FD074455F8240000F013FD384403282C
:103F200027DB55F824000B2E40F02F0045F8240025
:103F300005DA05EB8400016B41F0040101630B2CF1
:103F400005DA05EB8400416841F008014160002E6C
:103F500006DD05EB840050F8301D41F001010160E1
:103F6000002C06DD05EB840050F8041D41F0020131
:103F70000160641C0C2CB7DB761C0C2EB3DBB8F193
:103F80000108AFD5BDE8F087F8480178F8484E2918
:103F9000006806D0452907D0532908D0572909D0F1
:103FA0000AE005280AD007E0062807D004E0072821
:103FB00004D001E0082801D001207047002070479C
:103FC0002DE9F04190260025EA4F02E000252C461D
:103FD00008E00024052D01D0062D03D1052C18D0B2
:103FE000062C14D02946204600F00EFD05EB4501B5
:103FF00007EB0111401C41F82400641C0C2CE9DB88
:104000006D1C0C2DE5DB761EE0D5BDE8F0810724A4
:10401000E0E70624DEE7F0B5D448D74AD749077869
:10402000D7481678D74A0478D7480D781368CE4910
:1040300003EB4302006801EB021202EB80014E2FFA
:1040400032D0452F5BD0532F7ED0572F2BD16EB15E
:1040500052F82060002846F0080642F8206005DD8E
:1040600051F8046C46F0020641F8046C6DB152F848
:104070002050002B45F0040542F8205005DD51F892
:10408000305C45F0010541F8305C002C0BD052F853
:1040900020400B2B44F0010442F8204003DA086B67
:1040A00040F004000863F0BD5EB152F820600B2BB5
:1040B00046F0010642F8206003DA0B6B43F004037C
:1040C0000B636DB152F82030002843F0080342F82A
:1040D000203005DD51F8043C43F0020341F8043C74
:1040E000002CE0D052F820300B2843F0020342F8B5
:1040F0002030D8DA486840F008004860F0BD5EB172
:1041000052F820600B2846F0020642F8206003DADD
:104110004E6846F008064E605DB152F820500B2BF9
:1041200045F0010542F8205003DA0D6B45F0040517
:104130000D63002CE2D052F82040002B44F0040420
:1041400042F82040DADD00E004E051F8300D40F0A4
:10415000010029E06EB152F82060002B46F0040601
:1041600042F8206005DD51F8303C43F0010341F88E
:10417000303C5DB152F820300B2843F0020342F886
:10418000203003DA4B6843F008034B60002CB5D0B5
:1041900052F82030002843F0080342F82030ADDD0B
:1041A00051F8040D40F002000860F0BD2DE9FE4F0B
:1041B000FFF7E1FD0024DFF8D0B1DFF8C8A16B49BB
:1041C000CBF800404E20CAF8004008706648012530
:1041D0002746A1462646A046006800F0B5FB90B9E8
:1041E000DAF8000000EB40015F4800EB0111DBF85A
:1041F000000051F8202042F0100241F820206348CE
:104200000168491C0160624862490068086080E2F8
:104210006148624A0068126805FB00F18C1A07BB0E
:10422000844224DC5E4A0127504917705D4A1770AA
:1042300009784E2906D045290AD053290CD0572990
:1042400010D014E0DAF80010491CCAF800100EE093
:10425000DBF80020521C08E0DAF80020521ECAF8F1
:10426000002004E0DBF80020521ECBF80020B9F15A
:10427000000F1BD100EB4001CA1701EB9271B4EBA8
:10428000A10F13DC4849494A4FF001090968126837
:10429000914202DD394A012111704549454A0968B8
:1042A0001268914202DD364A01211170002E59D167
:1042B00000EBD070B4EB600F54DC3F483F4901265F
:1042C00000680968884205DC3D483E490068096885
:1042D000884202DD284901200870FFF79CFEDAF8C9
:1042E0000010DBF8000000F08FFBDAF80010401C33
:1042F00001EB41021F4901EB0212DBF8001042F80A
:104300002100FFF75DFEDAF8000000EB40011648DF
:1043100000EB0111DBF8000051F8200000F008FB71
:1043200010B14FF4FA700BE0DAF8000000EB400136
:10433000104800EB0111DBF8000001EB8000006B7E
:104340000290DAF8000000EB4001074800EB011191
:10435000DBF8000051F8200000F0EDFA18B14FF43E
:10436000FA703DE0A8E02FE08C010020240000203E
:1043700020000020CC0300201C0000201D00002095
:104380001E00002014000020100000201800002053
:1043900054000020EC0000202C00002064010020CC
:1043A0003400002035000020CC0000208C000020CC
:1043B000D000002090000020C400002084000020D5
:1043C000C800002088000020DAF8000000EB40015F
:1043D000FE4800EB0111DBF8000001EB80004068B3
:1043E0000190DAF8000000EB4001F94800EB011100
:1043F000DBF8000051F8200000F0A0FA10B14FF4F3
:10440000FA700CE0DAF8000000EB4001EF4800EB36
:104410000111DBF8000001EB800050F8300C009037
:10442000DAF8000000EB4001E94800EB0111DBF88D
:10443000000051F8200000F084FA10B14FF4FA7037
:104440000CE0DAF8000000EB4001E04800EB01115D
:10445000DBF8000001EB800050F8040CDDE90112EC
:104460008A4207DA1146009A914203DA814201DA60
:1044700005201FE0DDE90112914206DA009A91421F
:1044800003DA814201DA062014E0009A8A4207DA50
:104490001146029A914203DA814201DA072009E0CB
:1044A0000199884214DA0099884211DA0299884207
:1044B0000EDA0820C7490860C748006800EBD070D2
:1044C000B4EB600F00DC0126C4480078F0BB8AE042
:1044D000C34800784E280ED1DAF8000000EB400106
:1044E000BB4800EB0111DBF8000051F8200000F0A0
:1044F0001FFA0028BCD0BA48007845280ED1DAF857
:10450000000000EB4001B24800EB0111DBF80000B5
:1045100051F8200000F00FFA0028B4D0B04800781D
:1045200053280ED1DAF8000000EB4001A84800EB58
:104530000111DBF8000051F8200000F0FFF900281D
:10454000ACD0A7480078572810D100E04EE0DAF848
:10455000000000EB40019E4800EB0111DBF8000079
:1045600051F8200000F0EDF90028A2D0DAF80000A0
:1045700000EB4001964800EB0111DBF8000051F818
:10458000200000F0D5F90028B4D0DAF8000000EBE4
:1045900040018F4800EB0111DBF8000051F82000CA
:1045A00000F0C9F90028B8D0DAF8000000EB4001AB
:1045B000874800EB0111DBF8000051F8200000F003
:1045C000BDF90028BCD0DAF8000000EB40018048BB
:1045D00000EB0111DBF8000051F8200000F0B1F908
:1045E0000028C2D068E7FFF7CFFCD8B12046FFF71C
:1045F00091FB7C48D0ED000A7B48B8EEE01AD0ED84
:10460000000AFFF7EAFB7948D0ED000AB4EEE00AB1
:10461000F1EE10FA01D2764800E072480168754860
:10462000016003E07248734900680860B8F1000F48
:1046300009D169480068C11700EB9170B4EBA00F75
:1046400007DC4FF001086548007810B16A49002086
:104650000870002C09DD6948016840F6C4108142E9
:1046600003DC67490968814253DD6D1C4FF47A71A0
:10467000C820FEF776F85F480021554E0160DAF851
:104680000000DBF8001000EB400006EB00105F4676
:1046900050F8210000F058F980B9DAF800003968C4
:1046A00000EB400006EB001050F8212042F0100211
:1046B00040F8212053480168491C016047480078B0
:1046C00038B1514802685148016851480068FFF705
:1046D0009BF940480068052806D0062807D007281F
:1046E00008D0082809D00AE000F0A6F807E000F09A
:1046F000BDF804E000F0D4F801E000F0E9F8374933
:104700000027B9460F7043493E46B8460F704249EC
:104710000F7000F01FF900283FF47AADDFF8B89071
:10472000344E304F4FF00008002C27DDD9F8000040
:1047300000EBD071B4EB610F02DA2F4A82F80080EF
:10474000364968430968441A2046FFF7E3FAD7ED73
:10475000000A2548B8EEE01AD0ED000AFFF73DFB4D
:104760002248D0ED000AB4EEE00AF1EE10FA02D2CF
:104770001F48006800E038683060D5E7DAF80000CC
:10478000134D00EB4000DBF8001005EB0010544621
:104790005F4650F8210000F0D7F878B920683968F2
:1047A00000EB400005EB001050F8212042F0100211
:1047B00040F8212013480168491C0160444600204C
:1047C000C6F80080FDF732FF002029E0CC0300206E
:1047D0008C010020200000202C0000201C00002064
:1047E0002400002058000020E400002030010020B8
:1047F00054000020EC00002034000020C400002001
:10480000C8000020180000204000002060000020A8
:104810005C0000201D0000201E000020640100201C
:10482000FDF71AFF03480470FFF756FBBDE8FE4F83
:1048300000F03BB93500002010B5394C20784E28E7
:1048400011D0572804D0452804D0532804D00AE0BA
:10485000344802E0344800E0344890ED000AB8EEF5
:10486000C00AFFF737F84E20207010BD10B52C4C51
:1048700020784E2806D0572806D045280DD053283A
:1048800004D00AE0274802E0284800E0264890EDDE
:10489000000AB8EEC00AFFF71DF84520207010BDD1
:1048A00010B51F4C20784E2804D0572804D0452836
:1048B00004D00AE01D4802E01B4800E0194890EDD2
:1048C000000AB8EEC00AFFF705F85320207010BDAB
:1048D00010B5134C20784E2806D057280FD0452805
:1048E00004D0532804D00AE00F4802E00F4800E04B
:1048F0000C4890ED000AB8EEC00AFEF7EBFF572017
:10490000207010BD4E2806D0452805D0532804D06D
:10491000572803D1DCE78FE7A8E7C1E7704700001D
:1049200024000020700000206C0000207400002093
:1049300000F001007047C0F340007047C0F38000F2
:104940007047C0F3C0007047C0F300107047C0F359
:104950004010704744480168052901D0062906D156
:10496000424802684248052A03D0062A03D00020A4
:104970007047052911D0D430036B43F00C03036357
:10498000036843F001030360C36A43F00203C36298
:10499000D438062A01D1052913D000F59870062ACB
:1049A000436843F009034360436B43F004034363EC
:1049B000036843F002030360A0F5987001D1062953
:1049C00013D000F59C70052A036843F003030360CD
:1049D000036B43F004030363436843F0080343603D
:1049E000A0F59C7001D106290CD0D830016B41F0A4
:1049F00004010163016841F001010160416B41F074
:104A00000801416301207047194A01EB410110B5CB
:104A100002EB011252F820206FEA0204154AE30764
:104A200002EB011101EB800104D0086BA20703D453
:104A3000FC2302E0FC20F9E74B68620701D4FC226A
:104A400001E051F8302C240701D4FC2101E051F899
:104A5000041C834200DA1846824200DA1046814282
:104A600000DA084610BD00001000002014000020ED
:104A70008C010020CC0300202DE9F041494F0B258B
:104A800005EB4500002407EB001600BF56F8241084
:104A900045A000F025FA641C0C2CF7DB43A000F0C5
:104AA0001FFA6D1EECD5BDE8F0812DE9F05FDFF84F
:104AB00000B1DFF8F090DFF8FCA00B2505EB45070F
:104AC000002409EB071600BF56F82400FFF730FF5B
:104AD00008B139A000E03AA000F002FA641C0C2CE6
:104AE000F2DB39A000F0FCF930A000F0F9F9DFF8B2
:104AF000DC80002456F82400FFF723FF08B134A01F
:104B000000E034A000F0ECF9D8F80000854216D19E
:104B100031480068844212D19BF800004E2806D02C
:104B2000452806D0532806D0572806D01FE02BA0D2
:104B30000BE02BA009E02BA007E02BA005E056F826
:104B40002400FFF704FF18B128A000F0C9F90EE017
:104B500056F82400FFF7F8FE00280AEB071050F87B
:104B6000241001D022A000E00FA000F0B9F9641CCD
:104B70000C2CBFDB16A000F0B3F90CA000F0B0F9CC
:104B80006D1E9BD500240CA000F0AAF9641C0C2C0F
:104B9000F9DB0DA000F0A4F9BDE8F05F03A000F080
:104BA0009FB900008C010020253364000A0D00002D
:104BB00024000020CC0300202B2D2D2D0000000010
:104BC0002B202020000000002B00000014000020FB
:104BD0007C0000002000000010000020205E20006B
:104BE000203E200020762000203C2000207820005D
:104BF0002E2530326400000030B52D48016841F0A8
:104C00000E010160416841F00C0141605FF000015C
:104C100000EB8102491CD2F810320C2943F0010349
:104C2000C2F81032F4DB002101EB410200EB02126A
:104C3000491CD36A0C2943F00203D362F4DB002140
:104C400050F8212042F0040240F82120491C0C2990
:104C5000F6DB002101EB410200EB0212491C136854
:104C60000C2943F008031360F4DB0A21114C0022E5
:104C700002EB4203002004EB031300BF43F82010B3
:104C8000052801DA491E03E0851F052D00D2491CC5
:104C9000401C0C28F2DB052A01DA491E03E0901FB4
:104CA000052800D2491C521C0C2AE1DB30BD000053
:104CB0008C010020CC0300200948804709480047A8
:104CC000FEE7FEE7FEE7FEE7FEE7FEE7FEE7FEE7BC
:104CD000FEE7FEE704480549054A064B7047000019
:104CE000FD4D00088901000800080020000E00208A
:104CF000000A0020000A0020F0B56D4900200A6873
:104D000042F480320A604FF4A0630A6800F10100A7
:104D100012F4003F01D19842F7D10868684D5FEA6C
:104D2000803C644A644B654C664F40F2056605F171
:104D300004002AD5D2F800C04CF0805CC2F800C054
:104D40001A6842F480421A6002680260026842F403
:104D500000420260026842F4A05202602C600A68BD
:104D600042F080720A600A689201FCD53E600168D8
:104D700021F003010160016841F002010160016856
:104D8000C1F381010229FAD1F0BDD1F800C0DFF8EA
:104D900038E10CEA0E0CC1F800C0D1F800C04CF0AC
:104DA000010CC1F800C0D2F800C04CF0805CC2F821
:104DB00000C01A6842F480421A6002680260026809
:104DC00042F400420260026842F4A05202602C6089
:104DD0000A6842F080720A600A689201FCD53E605F
:104DE000016821F003010160016841F002010160E6
:104DF0000168C1F381010229FAD1F0BD334810B531
:104E0000016841F4700101602948016841F0010125
:104E100001602B4A0021121D116002682A4B1A40C2
:104E20000260031D2A4A1A60026822F4802202608E
:104E3000234808300160FFF75FFF24494FF000600E
:104E40008039086010BD70B51D4C241D2068214AB2
:104E500010F00C01204804D05510042903D0082973
:104E600003D002601AE0056018E015490B68C3F32F
:104E700080560B6803F03F0316B1B5FBF3F201E077
:104E8000B2FBF3F20B680968C3F388135A43C1F30A
:104E90000141491C4900B2FBF1F1016021680E4A51
:104EA000C1F30311121D515C0268CA40026070BD5B
:104EB00000380240403802400070004010540007A3
:104EC00004380240003C0240FFFFF6FE88ED00E09F
:104ED000103000240024F400780100207047000006
:104EE0000FB4044910B503AA029800F043FD10BCAA
:104EF0005DF814FBA400002070B5044685690068C5
:104F0000C10601D5302600E02026C00708D070BDBC
:104F1000D4E9012130469047206A00F10100206267
:104F20006D1EF5D570BD70B5044685690078C00763
:104F300008D170BDD4E9012120209047206A00F1FA
:104F4000010020626D1EF5D570BD70B50C4605469A
:104F5000012A05D02878800600D5EA69002302E0FE
:104F6000012305E05B1C934202D2E05C0028F9D1EA
:104F7000A869E618C01AA861286A18442862284659
:104F8000FFF7BAFF04E0D5E9012114F8010B9047BF
:104F9000B442F8D32846FFF7C6FF70BD2DE9F041B3
:104FA0000646002410687529314616A511D0AFF3C6
:104FB0000080002803DAC0F1000013A507E0316883
:104FC0008A0701D511A502E0490704D510A50124DF
:104FD00001E0AFF3008000210A2306F1240707E077
:104FE000B0FBF3F203FB1200303078541046491C3A
:104FF0000028F5D123462A463046BDE8F04100F0AE
:1050000037BA0000000000002D0000002B00000057
:10501000200000002DE9F05F894604464FF0000AA9
:10502000DFF828B1FB44C0F820A02046E16888479B
:1050300000287CD0252806D0D4E901219047206A99
:10504000401C2062F1E700255F462046E168884762
:105050002028064608DB312E06D207EB060010F8A2
:10506000200C08B10543F0E7A80701D525F0040599
:10507000C4F81CA00027C4F818A02A2E09D0304676
:1050800001F0E5FB38B304EB8708303EC8F8186040
:1050900019E059F8041B204604EB87029161E1688E
:1050A0008847012F064618D1E069002820DA25F04C
:1050B00020051DE0D8F8180000EB800006EB40004A
:1050C0003038C8F818002046E1688847064601F0E5
:1050D000BEFB0028EED1012F0AD02E2E08D120468B
:1050E000E16888477F1C0646022F45F02005C4DB97
:1050F000A069002803DA404245F00105A061E807F5
:1051000001D025F0100596B1A6F14100192802D86A
:10511000203645F400654A463146204625604D4616
:10512000FBF78CF860B1012807D0ED1D00E009E025
:1051300025F0070000F1080977E705F1040974E795
:10514000304679E7206ABDE8F09F0000B41F0000F8
:105150000FB400B589B00BA86A46009003480A99BD
:1051600000F028FC09B05DF814FB0000A800002046
:105170002DE9FF5F1D464FF0FF3B91464FF00008C1
:105180005F46D5E90146A96901987F1C8847296ACD
:10519000824688470028F6D11AF101000CD0002E73
:1051A00024F4C06419DD600614D5BAF12B0F09D0C0
:1051B000BAF12D0F0ED103E0584604B0BDE8F09FC0
:1051C00044F48064A96901987F1C8847761E824652
:1051D000002E02DDBAF1300F03D0B9F1000F26D056
:1051E00032E0A969761E01987F1C44F40074884758
:1051F000002E824605DDBAF1780F06D0BAF1580FBD
:1052000003D0B9F1000F10D01EE0B9F1000F02D0A9
:10521000B9F1100F18D1A969761E01987F1C24F4EA
:10522000007488478246102002E0082000E00A202F
:10523000814609E0A96908FB0908761E01987F1CD0
:1052400044F4007488478246002E05DD49465046E6
:1052500000F0A2FB0028EDDAE96901988847A00573
:1052600002D46FF00100A8E7E00727D1600614D54B
:10527000600502D5C8F1000000E04046296801F150
:1052800004022A600968220501D5087016E0220789
:1052900001D5088012E0086010E0286800F10401E0
:1052A00029600068210502D580F8008006E021070A
:1052B00002D5A0F8008001E0C0F8008038467CE705
:1052C0002DE9FF5F4FF00008994614464646916964
:1052D000D2E901A7DDF838B001988847054659EAB8
:1052E0000B0005D009E0A1690198761C88470546A6
:1052F000216A284688470028F5D1681C03D05FEA58
:10530000CA7005D015E04FF0FF3004B0BDE8F09F43
:105310002068011D2160D0F800800AE05FEACA70B1
:1053200001D108F8015BA1697F1E0198761C8847AE
:105330000546002F1ADD681C18D0B9F1000F0DD0FA
:10534000E81705EBD060421120F01F0059F8221039
:105350002A1A012090400142E0D107E0BBF1000F82
:10536000DCD12846216A88470028D7D0E169019816
:1053700088470AF0010050EA0B0002D1002188F8AA
:105380000010A068B84203DDBBF1000F03D017B1D5
:105390006FF00100B9E73046B7E74FF0000200B503
:1053A000134694469646203922BFA0E80C50A0E848
:1053B0000C50B1F12001BFF4F7AF090728BFA0E8F6
:1053C0000C5048BF0CC05DF804EB890028BF40F8C2
:1053D000042B08BF704748BF20F8022B11F0804F04
:1053E00018BF00F8012B70474FF0013C50F8042B18
:1053F00051F8043B9A4221D1A2EB0C03934313EAE8
:10540000CC1317D150F8042B51F8043B9A4215D114
:10541000A2EB0C03934313EACC130BD150F8042BEB
:1054200051F8043B9A4209D1A2EB0C03934313EACF
:10543000CC13DBD04FF00000704700BFD01A01BA88
:10544000B1FA81F101F0180122FA01F0CB40C1F16B
:105450002001DBB2C0B2C01A2CFA01F3D11A914379
:1054600011EAC311E6D17047704770477047704723
:105470002DE9F0470D4699469246044600F124086E
:105480000168880604D5E06921F01001216000E080
:105490000120A84202DDA0EB050700E00027A1697A
:1054A00007EB050202EB0900A1EB0000A0612078E8
:1054B000C00602D42046FFF71FFD002608E0D4E90D
:1054C00001211AF806009047206A401C761C2062D1
:1054D0004E45F4DB2078C0060AD52046FFF70CFDC8
:1054E00006E0D4E9012130209047206A401C206268
:1054F000381EA7F10107F4DC07E0D4E9012118F810
:1055000005009047206A401C2062281EA5F1010575
:10551000F3DC2046FFF707FD2078000602D50220C5
:10552000BDE8F0870120FBE770472DE9FF4F0C46EF
:105530001E464FF0FF378BB0D2E90001DDF86080E6
:105540000A908A46C1F30A5505B93D46002108462E
:105550004FF00000BAF1000F00F4400005DA00EB54
:1055600080004FF4400101EA50004FEA9059B9F130
:10557000010F00DDB9460A9850EA4A000ED044F601
:105580001050A5F2FF3545432F14B8F1000F1ED07F
:105590007542291E1EDDC9F100021CE0B8F1010FA1
:1055A0004FF0000001D0302103E0F24305E0215428
:1055B000401CB042FBDB30460022002121540B99F5
:1055C000C1F80880C1E900200FB0BDE8F08FBD1B15
:1055D0006D1CDEE74A4600DA694206A800F0AEFA22
:1055E00006AB07CB03AB07C350460A9900F05CFD3E
:1055F0008DE80700A0F500501F3800900398002D9B
:1056000009DD42F21F014A46084403A90390684697
:1056100000F0BBFF08E0A0F500504A461F3803A980
:105620000390684600F0C5FF8DE807000004000CF9
:1056300003D04FF0FF30410800E01046B8F1000FF2
:1056400003D00022009215461FE0751E06D400F01C
:10565000C1F902F1300262556D1EF8D5B346012240
:10566000084302D000227F1C04E02078302801D1BA
:1056700000227F1E002A099787D01DE0112D07DA2E
:1056800000F0A8F9303262556D1C50EA0102F5D1E4
:1056900008430FD10021681E05E0235C625C63545F
:1056A000491C2254401E8142F7DBAB46A81B401E1A
:1056B000099001E0009848B1002004F80B000B9815
:1056C000099AC0F80880C0E9002B7DE711264FF049
:1056D00000085AE72DE9F04F88460446D21D22F013
:1056E000070191B0D1E90001CDE90A0101F097F875
:1056F00002460B98C00F01D02D2007E020688107DB
:1057000001D52B2002E0202101EAC000032A0990E4
:1057100001D0072A05DB03464146204600F0B8F9D0
:105720000FE12078800601D5E06900E00620B8F19D
:10573000650F814606D0B8F1660F18D0B8F1670F33
:1057400072D132E00020B9F1110F009001DB11237A
:1057500001E009F101030AAA01A90CA8FFF7E5FE7F
:10576000DDE90C70002609F10105834648E00120BF
:105770004B4600904FF000470AAA01A90CA8FFF77A
:10578000D4FEDDE90DB00C995D46002618B909F18B
:10579000010001EB0005B9EB050003D4C0F1FF36B1
:1057A00009F10105A5EB09002BE0B9F1010F01DAC0
:1057B0004FF001090020B9F1110F0090484601DDBA
:1057C000112300E003460AAA01A90CA8FFF7ADFEC9
:1057D000DDE90C704D4600268346207800070AD488
:1057E000AB4500DA5D4601A8012D04DD411911F831
:1057F000011C302907D04F4502DA17F1040F04DAF3
:105800000120824610E06D1EEEE7002F02DCED1B4A
:105810003E4403E0781CA84200DD0546A7EB0600E5
:1058200000F1010A4FF000472078000703D4AA4591
:1058300001DB4FF0FF3A0021B7F1004F0DF14308B3
:105840008DF8431023D002202B23002F01DA7F4252
:105850002D234FF00A0C011EA0F1010000DC4FB116
:1058600097FBFCF10CFB11720F4602F1300208F8B5
:10587000012DF0E7A8F1010003702188090501D589
:10588000452100E06521A0F1010800F8011C0998FC
:105890000FA9A1EB080707F1070700B1012000EBF2
:1058A000050101EBEA70A1693844A1EB0000A0F109
:1058B0000100A0612078C00602D42046FFF71CFB3F
:1058C000099830B1D4E901219047206A00F1010024
:1058D00020622078C00620D52046FFF70DFB1CE093
:1058E000002E04DBB34502DD01A8805D00E030201E
:1058F000D4E901219047206A761C401CBAF1010AC4
:1059000020620AD100F062F8C0680168405CD4E906
:1059100001219047206A401C2062281EA5F1010544
:10592000DEDC07E0D4E9012118F8010B9047206A7A
:10593000401C2062381EA7F10107F3DC2046FFF768
:10594000F2FA022011B040E610B5436913B1AFF38B
:10595000008001E0FFF7F9FA012010BD127800F194
:1059600024010A7000224A700122EDE711684FF00D
:10597000FF32E9E7074B70B50D467B4400F075F840
:105980000446284600F070F910B14FF0FF3070BDAA
:10599000204670BD63C9FFFF3A2800D2303820F09E
:1059A0002002412A01D3A2F13700884201D34FF0EF
:1059B000FF307047034B7B449361034B7B44D361BF
:1059C00000F0ACB845C9FFFF630200000048704713
:1059D000BC07002030B5B0F10A024FEA900E71F119
:1059E00000034EEA817EB0EB0E0061EB91014FEABD
:1059F000101E4EEA017E10EB0E0041EB11114FEA32
:105A0000102E4EEA016E10EB0E0041EB11214FEA11
:105A1000104E4EEA014E10EB0E0041EB11414018C2
:105A200041F100014FEAD00040EA41704FEAD10154
:105A300010EB80054FEA810444EA907444EB0104C2
:105A40006D1944EB0404521BA3414FF0000348BFFF
:105A50000A3200D530BD401C41F1000130BD0000CC
:105A600001694A1C02610878704700B58FB0CDE922
:105A700001310021059105497944CDE90310114612
:105A80006846FFF7C7FA0FB000BD0000E5FFFFFF53
:105A90002DE9F0411F46044603260168072A01F458
:105AA000006004DB08B116A505E016A503E008B107
:105AB00015A500E015A521F010002060A069C01E0A
:105AC000A0610FB1401EA0612046FFF715FA4FB14B
:105AD000D4E9012138469047206A401C2062C01C4E
