:020000040800F2
:10000000080E00205D4E0008E91D0008EB1D0008E9
:10001000ED1D0008EF1D0008F11D000800000000A4
:10002000000000000000000000000000F31D0008B8
:10003000F51D000800000000F71D0008F91D00086C
:10004000774E0008774E0008774E0008774E00087C
:10005000774E0008774E0008774E0008774E00086C
:10006000774E0008774E0008774E0008774E00085C
:10007000774E0008774E0008774E0008774E00084C
:10008000774E0008774E0008774E0008774E00083C
:10009000774E0008774E0008774E0008171E0008BC
:1000A000774E0008774E0008774E0008774E00081C
:1000B000774E0008774E0008774E0008774E00080C
:1000C000774E0008774E0008774E0008774E0008FC
:1000D000774E0008774E0008774E0008774E0008EC
:1000E000591E0008774E0008774E0008774E00082A
:1000F000774E0008774E0008774E0008774E0008CC
:10010000774E0008774E0008774E0008774E0008BB
:10011000774E0008774E0008774E0008774E0008AB
:10012000774E0008774E0008774E0008774E00089B
:10013000774E0008774E0008774E0008774E00088B
:10014000774E0008774E0008774E0008774E00087B
:10015000774E0008774E0008774E0008774E00086B
:10016000774E0008774E0008774E0008774E00085B
:10017000774E0008774E0008774E0008774E00084B
:10018000774E0008774E000800F002F800F078F88B
:100190000AA090E8000C82448344AAF10107DA45E2
:1001A00001D100F06DF8AFF2090EBAE80F0013F0BC
:1001B000010F18BFFB1A43F0010318472870000015
:1001C000487000000A444FF0000C10F8013B13F097
:1001D000070408BF10F8014B1D1108BF10F8015BA0
:1001E000641E05D010F8016B641E01F8016BF9D193
:1001F00013F0080F1EBF10F8014BAD1C0C1B09D1EA
:100200006D1E58BF01F801CBFAD505E014F8016B5B
:1002100001F8016B6D1EF9D59142D6D370470000ED
:100220000023002400250026103A28BF78C1FBD8FF
:10023000520728BF30C148BF0B607047662906F0DF
:100240003C87642904F07A87632905F04184732987
:1002500005F04684002070471FB506F024FF05F026
:100260006FFC04000020002106F0C8FB401C606009
:100270000020002106F0ACFBE0601FBD10B510BDF2
:1002800005F0B4FD1146FFF7E7FF01F036FC05F07D
:10029000B7FF03B4FFF7F2FF03BC01F0DBFF000080
:1002A0002749084327490860704770B50F23C27873
:1002B000017801254FF0E026E2B1224A126802F4EB
:1002C000E062C2F5E062C2F30722C2F10404D34047
:1002D0004278A24084781C401B4B14432201CA542C
:1002E000007800F01F018D40400906EB8000C0F847
:1002F000005170BD01F01F008540480906EB8000E9
:10030000C0F8805170BD114A114001430D48001FD3
:10031000016070470B4A121D0029116801D001438A
:1003200000E08143116070474FF0E0210428086924
:1003300003D020F004000861704740F00400FAE7A1
:100340000000FA050CED00E000E400E080FFFF1F74
:1003500010B501210C02204600F07DFC2046BDE8CE
:100360001040002100F077BC30B54268C44B0C79D6
:100370001A400B6842EA0422134343608268C14B6F
:100380004D791A40D1E9034323438C6844EA45047C
:10039000234313438360C26A097D22F47002491E1D
:1003A000C9B242EA0151C16230BD00210160017150
:1003B00041718160C1600161012101757047B24BDB
:1003C00010B51A68B1490A40D0E900142143D0E9B8
:1003D0000240044321431143196010BD0021016014
:1003E00041608160C16070470029816802D041F09E
:1003F000010101E021F00101816070474268A44BD6
:100400001A400A4342607047416282627047426804
:1004100022F01F020A43426070479E490028D1F82B
:10042000040302D040F4000001E020F40000C1F811
:100430000403704797490028D1F8040302D040F420
:10044000800001E020F48000C1F80403704770B51B
:10045000072609290AD9C568A1F10A0404EB440456
:10046000A640B543A3401D43C56007E0056901EB05
:100470004104A640B543A3401D4305611F23072A3D
:1004800009D2446B521E02EB820293409C4391407E
:100490000C43446370BD0D2A09D2046BD21F02EBDA
:1004A000820293409C4391400C43046370BDC46A34
:1004B0000D3A02EB820293409C4391400C43C4628C
:1004C00070BD816841F08041816070470146002025
:1004D0008968490200D5012070470029816802D04F
:1004E00041F4806101E021F480618160704700295E
:1004F000816802D041F0020101E021F00201816037
:1005000070474268491E22F4604242EA413141602C
:1005100070470029416802D041F4006101E021F4F4
:10052000006141607047C06C80B270475648001D42
:10053000006870470029816802D041F4807101E0B1
:1005400021F48071816070470029816802D041F4F4
:10055000007101E021F40071816070474D4900286D
:10056000D1F8040302D040F4005001E020F4005020
:10057000C1F80403704770B5072609290AD9C56870
:10058000A1F10A0404EB4404A640B543A3401D4373
:10059000C56007E0056901EB4104A640B543A340EF
:1005A0001D430561836BC3F30154121B921C02EBC4
:1005B00082021F249440A34391400B43836370BD88
:1005C000826B491E22F4401242EA01518163704756
:1005D00042507047826822F470220A43826070475A
:1005E000826822F440120A4382607047816841F4B5
:1005F000800181607047014600208968490200D56A
:10060000012070470029416802D041F4806101E077
:1006100021F48061416070470029416802D041F4B3
:10062000805101E021F48051416070470844806AA4
:1006300080B2704701238B4041680AB1194300E042
:100640009943416070470246002012680A4200D078
:1006500001207047C9430160704730B50246002051
:1006600054680B0A01258D4011682C40194202D0B4
:10067000002C00D0012030BD6FEA112101607047CD
:10068000FFFEFFFCFDF7FFC004230140E030FCFF4C
:10069000FFFD3FFF00200140374900200860091D91
:1006A0000860091D0860091D08603349334814318A
:1006B0000860704730B5304A8379016853B31368D6
:1006C0008B431360111D0B680468A3430B60017911
:1006D00011440B68046823430B60274B08331968E7
:1006E0000468A14319601C1D21680568A9432160A5
:1006F0004179102905D011440A68006802430A6054
:1007000030BD19680268114319602168006801430F
:10071000216030BD0079104402688A43026030BD18
:100720000021016001710C224271817170471249F0
:1007300010310A6802430A60704701460E4A0020E1
:10074000143212680A4200D0012070470A4914315D
:1007500008607047084A014600201268064B0A40AC
:1007600014331B680B4202D0002A00D001207047CE
:100770000149143108607047003C0140FFFF7F00D1
:100780006F4910B5884206D10121084600F03BFAB6
:10079000002101204FE06B49884206D1012102204F
:1007A00000F031FA0021022045E06749884206D175
:1007B0000121042000F027FA002104203BE06349D6
:1007C000884206D10121082000F01DFA00210820EE
:1007D00031E05F49884206D10121102000F013FA70
:1007E0000021102027E05B49884206D1012120200A
:1007F00000F009FA002120201DE05749884206D167
:100800000121402000F0FFF90021402013E053496E
:10081000884206D10121802000F0F5F900218020D6
:1008200009E04F4988420AD184150121204600F091
:10083000EAF900212046BDE8104000F0E4B910BDFF
:10084000F0B5002201274FF0030C0B6807FA02F500
:100850002B40AB422CD1066853000CFA03F4A6439C
:1008600006600E79D0F800E09E4046EA0E0606606B
:100870000E79012E01D0022E12D18668A643866021
:100880004E79D0F808E09E4046EA0E06866046683B
:10089000AE43466045688E799640B6B235434560B2
:1008A000C568A543C560CC799C40C3681C43C4603F
:1008B000521C102AC9D3F0BD4FF6FF710160002110
:1008C000017141718171C171704741F48032C2611F
:1008D000C161C261C169C0697047024600201269E6
:1008E0000A4200D001207047006980B2704702467A
:1008F000002052690A4200D001207047406980B24E
:10090000704701837047418370470AB10183704784
:10091000418370474161704742694A404261704774
:100920004B07DB0E9A40C90810B500EB8100016A45
:100930000F249C40A1430162016A1143016210BD72
:10094000000002400004024000080240000C024087
:10095000001002400014024000180240001C024037
:1009600000200240E948016841F001010160E74AC6
:100970000021083211600268E54B1A400260031D35
:10098000E44A1A60026822F480220260DF480C30D8
:1009900001607047DD490022891C0A7008707047A9
:1009A00002460020510901290CD002290CD0D74958
:1009B0007431096802F01F02012393400B4200D0FA
:1009C00001207047D149F4E7D0497031F1E730B5E3
:1009D00000244FF4A0653120FFF7E2FF641CAC4215
:1009E00001D00028F7D03120FFF7DAFF002800D02F
:1009F000012030BDC54A116821F0F80141EAC0006C
:100A000010607047C44908607047C04900227031C7
:100A10000A700A70012802D0042801D1052008704C
:100A20007047BE490860704741EA82115A0810B504
:100A3000BB4B029C03EB02421143014341EA0460B9
:100A4000B249091D086010BDB349086670478001AE
:100A500040EA0170AD49843108607047AE4988664C
:100A60007047AD49C8647047A84B08331A680843FB
:100A700022F0EC62104318607047A44B08331A68E8
:100A8000084322F078421043186070479F4A0832AA
:100A9000116821F003010143116070479B48083041
:100AA000006800F00C007047984A0832116821F085
:100AB000F001014311607047944A0832116821F433
:100AC000E051014311607047904A0832116821F4E7
:100AD000604141EAC0001060704770B58B4B08332D
:100AE0001968904C11F00C0104D06610042903D051
:100AF000082903D004601BE0066019E0834A121D38
:100B00001168C1F38055116801F03F0115B1B6FBC2
:100B1000F1F101E0B4FBF1F114681268C4F3881438
:100B20006143C2F30142521C5200B1FBF2F1016079
:100B300019687D4A01F0F0010909545C0168E1403F
:100B400041601C6804F4E054A40A145D21FA04F422
:100B500084601B6803F460435B0BD25CD140C160CE
:100B600070BDC0F30121032908D1684B083319680F
:100B70006E4A21F4F81102400A431A606349703149
:100B80000A68C0F30B0002430A60704763494439A6
:100B900008607047614940390860704764490860DF
:100BA00070475A4A30320029116801D0014300E0F1
:100BB000814311607047554A34320029116801D0D1
:100BC000014300E0814311607047504A38320029E8
:100BD000116801D0014300E08143116070474B4A26
:100BE00040320029116801D0014300E081431160C7
:100BF0007047464A44320029116801D0014300E0A1
:100C0000814311607047414A10320029116801D0B8
:100C1000014300E08143116070473C4A14320029CF
:100C2000116801D0014300E0814311607047374AE9
:100C300018320029116801D0014300E0814311609E
:100C40007047324A20320029116801D0014300E088
:100C50008143116070472D4A24320029116801D068
:100C6000014300E0814311607047284A5032002957
:100C7000116801D0014300E0814311607047234AAD
:100C800054320029116801D0014300E08143116012
:100C900070471E4A58320029116801D0014300E014
:100CA000814311607047194A60320029116801D0F0
:100CB000014300E0814311607047144A6432002907
:100CC000116801D0014300E08143116070470F4A71
:100CD0000D320029117801D0014300E081431170E9
:100CE00070470A487430016841F0807101607047B4
:100CF0000146064A00200C3212680A4200D0012048
:100D0000704702490E3108707047000000380240F9
:100D1000FFFFF6FE1030002400004742800E4742DD
:100D20000000FFFF0024F40000000020FFFCFF0F84
:100D30005C01474210B501218C032046FFF78BFF71
:100D40002046BDE810400021FFF785BF114908602B
:100D5000704710B58A0721F00304120F0F230D49C5
:100D60009340083121440C689C430C600B68904010
:100D700003430B6010BD08490860704707490860CD
:100D800070470449002020310968C90500D50120B9
:100D90007047000000380140DC0027420004274271
:100DA000FE4910B5884206D101210846FFF753FFDE
:100DB000002101205BE0B0F1804F09D0F849884262
:100DC0000DD101210220FFF73CFF0021022070E03D
:100DD00001210846FFF735FF0021012069E0F149B4
:100DE000884206D101210420FFF72BFF00210420B7
:100DF0005FE0ED49884206D101210820FFF721FF7D
:100E00000021082055E0E949884206D1012110203F
:100E1000FFF717FF002110204BE0E549884206D17B
:100E200001212020FFF70DFF0021202041E0E149B2
:100E3000884206D101210220FFF70DFF0021022088
:100E400015E0DD49884202D101210C040AE0DB49AA
:100E5000884202D101214C0404E0D94988420AD1D8
:100E600001218C042046FFF7F6FE00212046BDE854
:100E70001040FFF7F0BED349884206D1012140203F
:100E8000FFF7DFFE0021402013E0CF49884206D162
:100E900001218020FFF7D5FE0021802009E0CB4909
:100EA00088420AD1841501212046FFF7CAFE00219D
:100EB0002046BDE81040FFF7C4BE10BD30B5028823
:100EC000B64CBC4DA0420DD0A8420BD0B0F1804F23
:100ED00008D0B34B984205D0B24B984202D0B24BE7
:100EE000984203D122F070034A881A43AF4B9842CC
:100EF00006D0AF4B984203D022F440730A891A43BC
:100F000002804A68C2620A880285A04201D0A842D3
:100F100001D1897A01860121818230BD4FF0FF31F4
:100F2000416000210180018141808172704701850B
:100F300082827047028822F070020A430280704762
:100F400041627047C1627047406A7047008D7047C8
:100F50000029018802D041F0020101E021F00201E4
:100F6000018070470029018802D041F0040101E0AE
:100F700021F00401018070470029018802D041F06E
:100F8000800101E021F0800101807047028822F099
:100F90000802028002880A4302807047028822F415
:100FA0004072028002880A4302807047002901884B
:100FB00002D041F0010101E021F001010180704700
:100FC00030B5028C22F001020284028C8388048BEB
:100FD00022F0020224F073050C882C438D891543FE
:100FE0004A882A436D4DA84202D0724DA8420DD1C5
:100FF00022F00805CA8923F440732A4322F004052D
:101000008A882A430D8A1D434B8A2B43838004839D
:1010100089684163028430BD70B5028C22F01002F1
:101020000284028C8388048B0D8824F4E6464FF6F4
:10103000FF7404EA052535438E8922F0200204EA74
:10104000061616434A8804EA02123243534EB0424F
:1010500002D0584EB04215D122F08006CA8923F43E
:10106000406304EA0212324322F040068A8804EA0E
:10107000021232430E8A04EA86061E434B8A04EAB1
:10108000830333438380058389688163028470BD51
:1010900070B5028C22F480720284028C8388848B67
:1010A0000D8824F0730425438E894FF6FF7422F4D3
:1010B000007204EA062616434A8804EA02223243F2
:1010C000364EB04202D03B4EB04215D122F40066FB
:1010D000CA8923F4405304EA0222324322F4806690
:1010E0008A8804EA022232430E8A04EA06161E4364
:1010F0004B8A04EA03133343838085838968C16381
:10110000028470BD70B5028C22F480520284058C7A
:101110008288838B0C8823F4E6464FF6FF7303EA3C
:101120000424344325F400568D8903EA05353543FC
:101130004E8803EA06362E43184DA84202D01D4DB4
:10114000A84205D122F480450A8A03EA82122A4382
:101150008280848389680164068470BD00210180D7
:101160004180818081608181C1810182418270479B
:1011700030B50124058C00F118038C40A54305848B
:1011800031B308292CD0091FC1F34E00184401685F
:1011900048F6FF731940016001681AE00000014041
:1011A0000004004000080040000C00400010004017
:1011B0000014004000040140004001400044014090
:1011C0000048014000180040001C00400020004082
:1011D00006E04FF6FF7303EA02221143016030BDBF
:1011E00003EB510001684FF68F73194001600168ED
:1011F000F3E74163704781637047C16370470164DF
:101200007047028B22F070020A4302837047028B00
:101210004FF6FF7322F4E04203EA012111430183F8
:101220007047828B22F070020A4382837047828B60
:101230004FF6FF7322F4E04203EA01211143818358
:101240007047028B22F008020A4302837047028B28
:101250004FF6FF7322F4006203EA01211143018378
:101260007047828B22F008020A4382837047828B88
:101270004FF6FF7322F4006203EA012111438183D8
:101280007047028B22F004020A4302837047028BEC
:101290004FF6FF7322F4806203EA012111430183B8
:1012A0007047828B22F004020A4382837047828B4C
:1012B0004FF6FF7322F4806203EA01211143818318
:1012C0007047028B22F080020A4302837047028B30
:1012D0004FF6FF73C2F30E0203EA012111430183AB
:1012E0007047828B22F080020A4382837047828B90
:1012F0004FF6FF73C2F30E0203EA0121114381830B
:101300007047028C22F002020A4302847047028C6A
:1013100022F008020A4302847047028C4FF6FF73E2
:1013200022F0200203EA0111114301847047028C6C
:101330004FF6FF7322F0800203EA0111114301848A
:101340007047028C4FF6FF7322F4007203EA01210A
:10135000114301847047028C4FF6FF7322F4006240
:1013600003EA0121114301847047028C4FF6FF7399
:1013700022F4005203EA013111430184704710B591
:101380000123048C8B409C430484038C8A401343C8
:10139000038410BD10B50423048C8B409C4304844B
:1013A000038C8A401343038410BD828B22F4406275
:1013B0008283828B4FF6FF7303EA01210A43828303
:1013C0007047828B22F00C028283828B0A438283D5
:1013D0007047028B22F440620283028B4FF6FF7348
:1013E00003EA01210A4302837047F0B5048C24F01C
:1013F00010040484078B068C4FF6FF7404EA011571
:1014000027F4734704EA0331394304EA02220A430A
:1014100026F0A001294341F0100102830184F0BDB0
:10142000028B22F00C020283028B0A430283704774
:101430002DE9F0410C460E884988A288238905468B
:101440000EB3042E26D0082E2E8C4FF6FF7028D017
:1014500026F480562E84AF8B2E8C00EA022200EAFE
:10146000013127F473473A4300EA0330104326F46E
:1014700020420A4342F48051A8832984E188284607
:10148000BDE8F04191E700F061F9E1882846BDE848
:10149000F041C5E7FFF7A9FFE1882846BDE8F04124
:1014A00097E726F480762E84AF8B2E8C00EA0121FC
:1014B00000EA0310104327F0F307384326F42062B4
:1014C0000A4342F48071A8832984E1882846BDE854
:1014D000F04176E700210180418001228280C180B5
:1014E000018170472DE9F0410C46002549880746E7
:1014F000012601B90225A288012A00D102262088EE
:1015000023890028384610D0FFF76FFFE18838465E
:10151000FFF75FFF238932462946384600F016F967
:10152000E1883846BDE8F0417AE700F00FF9E1883C
:101530003846FFF775FF2389324629463846FFF7BC
:1015400054FFE1883846BDE8F04142E7406B704700
:10155000806B7047C06B7047006C704710B50A888D
:101560004B88CC881A438B8823431A430B891A4330
:101570004B8989891A430A43A0F8442010BD0021F1
:10158000018041808180C1800181418181817047DA
:10159000002930F8441F02D041F4004101E0C1F3BA
:1015A0000E01018070470029818802D041F00401BA
:1015B00001E021F00401818070470029818802D078
:1015C00041F0010101E021F0010181807047002A12
:1015D000828901D00A4300E08A4382817047818278
:1015E000704702460020128A0A4200D0012070474C
:1015F000C94301827047034600201A8A9B890A4228
:1016000003EA010302D0002B00D001207047C94338
:10161000018270471143A0F848107047002A828960
:1016200001D00A4300E08A43828170470029818803
:1016300002D041F0080101E021F0080181807047EB
:10164000018921F0070101817047028922F07002AF
:101650000A430281704700B50346FFF7F6FF188979
:1016600040F00700188100BD70B50D4611460446D4
:10167000602D4FF001020AD000F068F8294620469C
:10168000FFF7E3FF208940F00700208170BDFFF7DE
:10169000ACFEF3E730B504894FF6FF7505EA032386
:1016A0001343E4B20B432343038130BD10B504461A
:1016B000FFF7F0FF208940F07700208110BD10B5C2
:1016C0000446FFF7E7FF208940F48040208110BDE9
:1016D000828822F07002828082880A43828070476A
:1016E000028922F00702028102890A4302817047BF
:1016F000028922F08002028102890A430281704736
:1017000070B50589048B068C25F007050D434FF64F
:10171000FC410C4040F201110C434FF6FF7101EA0D
:10172000031126F02206114331430581048301840D
:1017300070BD0029818802D041F0800101E021F0D4
:10174000800181807047A0F85010704770B5048CFC
:1017500024F001040484058B048C4FF6FF7606EA1E
:101760000313134325F0F3052B4324F00A020A4325
:1017700042F001010383018470BD0000CA4910B525
:10178000884206D101211020FFF765FA00211020C0
:1017900028E0C649884202D101214C0410E0C44926
:1017A000884202D101218C040AE0C249884202D158
:1017B0000121CC0404E0C04988420AD101210C0572
:1017C0002046FFF73EFA2046BDE810400021FFF713
:1017D00038BABA49884209D101212020FFF73BFAE3
:1017E00000212020BDE81040FFF735BA10BD7FB5BD
:1017F0000446008A0D46C98820F4405001432182E6
:10180000A08941F20C618843A9882A8911436A8919
:1018100002431143A181A08A20F44071A8890843A2
:10182000A0826846FFF759F99F48844202D0A34836
:10183000844201D1039800E00298A189090400299B
:1018400000EBC00101EB0010296802DA4FEA410108
:1018500001E04FEA8101B0FBF1F06422B0FBF2F14C
:101860004FEA01114FEA11136FF018056B4300EBBB
:101870008300A3891D044FF0320306D503EBC0009B
:10188000B0FBF2F000F0070005E003EB0010B0FB46
:10189000F2F000F00F00084320817FBD4FF4165195
:1018A000016000218180C18001810C2242818181FF
:1018B000704710B5028A4C8822F470630A8822436C
:1018C0008C88C9880C4322431A43028210BD002130
:1018D000018041808180C18070470029818902D0C8
:1018E00041F4005101E021F4005181817047028BE5
:1018F00002F47F420283028B0A430283704700296D
:10190000818902D041F4004101E0C1F30E018181DF
:1019100070470029818A02D041F4006101E021F47E
:10192000006181827047C1F308018180704780881F
:10193000C0F308007047028A22F00F020282028A76
:101940000A43028270470029818902D041F00201D6
:1019500001E021F0020181817047828922F4006256
:10196000828182890A4382817047028A22F02002A2
:101970000282028A0A43028270470029018A02D049
:1019800041F4804101E021F4804101827047818966
:1019900041F00101818170470029818A02D041F024
:1019A000080101E021F0080181827047028BD2B268
:1019B0000283028B42EA0121018370470029818A58
:1019C00002D041F0200101E021F020018182704726
:1019D0000029818A02D041F0100101E021F01001BC
:1019E00081827047828A22F004028282828A0A43BC
:1019F000828270470029818A02D041F0020101E011
:101A000021F0020181827047002A828A01D00A43B4
:101A100000E08A438282704710B5C1F3421301F09F
:101A20001F040121A140012B07D0022B07D0143045
:101A3000002A026805D00A4304E00C30F8E71030B1
:101A4000F6E78A43026010BD0246002012880A426F
:101A500000D001207047C9430180704770B501F084
:101A60001F0501260024C1F3421306FA05F2012BDB
:101A70000FD0022B0FD0838A4FEA11210088134226
:101A800006FA01F600EA060001D000B10124204662
:101A900070BD8389F0E7038AEEE70A0A01219140CD
:101AA000C94301807047000000100140004400401D
:101AB00000480040004C004000500040001401402D
:101AC00010B501F057F8964CE07838B1207808B19D
:101AD00000F014FF607808B102F097F9207900282F
:101AE0000AD0207808B100F009FF6078002803D000
:101AF000BDE8104002F089B910BD00F0D7F900F040
:101B000047FA00F0ABFA4FF4165000F053FB00F028
:101B100043FD00F0FFFD00F079FD00F06BFE814D0C
:101B20004FF4805421462846FEF7EDFE610028461A
:101B3000FEF7E9FEA1002846FEF7E5FEE100284693
:101B4000FEF7E1FE784D40212846FEF7DCFE8021BD
:101B50002846FEF7D8FE04217448FEF7D4FE21463D
:101B60002846FEF7D0FE21117148FEF7CCFEE110A9
:101B70002846FEF7C8FE4FF47A74204600F0D3F9E9
:101B80002146C82000F0A9FD65480121C8228170C6
:101B90004FF46171C0E902128C21C0E90512502294
:101BA000C0E907213C214162642181633221C16384
:101BB0006FF045010164462141646FF09D0181642D
:101BC0009E21C1644FF4C861816240F29651C162A6
:101BD0006110016341630A2000F0A5F9FBE710B52D
:101BE0004FF4FA71C82000F078FD4FF47A74204663
:101BF00000F099F94FA003F043FA53A003F040FA24
:101C0000012002F09BF9204600F08DF952A003F06C
:101C100037FA434901220A714A7002F013FF204645
:101C200000F081F94FA003F02BFABDE8104001202D
:101C300002F084B910B54FF4FA71C82000F04DFDE0
:101C40004FF47A7000F06FF94BA003F019FA3449A1
:101C500046F218000861BDE8104001F079BB10B5EC
:101C60004FF4FA71C82000F038FD4FF47A7000F09C
:101C70005AF946A003F004FA29494FF4C840086114
:101C800003F08EF802F0CCFFBDE8104002F0FBBA82
:101C900010B54FF4FA71C82000F01FFD4FF47A70B0
:101CA00000F041F9BDE810403DA003F0E9B910B5DE
:101CB00040482DED028B8EB0006805F083F941ECB1
:101CC000180B00F077FD044600F078FD3A493C4BD4
:101CD0000A683A491B6809680A93CDE90B12394A28
:101CE00039498DED088B12680968CDE90304CDE907
:101CF000051236483649374A00680968126800926A
:101D0000CDE901103448036834480268344801685A
:101D1000344803F0B5F90EB0BDEC028B10BD0000E5
:101D20001C0000200004024000080240000C024099
:101D300000000240427574746F6E2030207072652E
:101D4000737365640A0D00004D6F766520466F77EA
:101D500061726420320A0D004D6F766520530A0DC2
:101D6000000000004D6F766520466F7277617264E7
:101D700020320A0D00000000427574746F6E20312D
:101D800020707265737365640A0D00004275747487
:101D90006F6E203220707265737365640A0D0000E7
:101DA000427574746F6E203320707265737365644E
:101DB0000A0D0000EC000020740100206C010020DE
:101DC00068010020E8000020C8000020D0000020AA
:101DD000D8000020E0000020DC000020D40000201B
:101DE000CC000020C07000087047FEE7FEE7FEE769
:101DF000FEE770477047704729480168491C016039
:101E000028490868002802DA274B00221A60401E81
:101E10000860FFF755BE70B52020FEF79BFC4FF41D
:101E2000967438B1204600F07EF8FFF7D8FE2020E7
:101E3000FEF79EFC4FF480752846FEF78BFC0028C9
:101E400009D0204600F06FF8FFF722FF2846BDE8D2
:101E50007040FEF78DBC70BD70B54FF4006528462C
:101E6000FEF778FC4FF4967438B1204600F05BF82A
:101E7000FFF7E0FE2846FEF77BFC4FF4805528462E
:101E8000FEF768FC002809D0204600F04CF8FFF768
:101E9000E6FE2846BDE87040FEF76ABC70BD000053
:101EA000A8000020BC0000203404004070B503F0FE
:101EB00074F803F097F832484FF47A710068B0FB79
:101EC000F1F0401EB0F1807F16D24FF0E024606147
:101ED00066170F21304600F047F80025A56107205E
:101EE00020614FF44070FEF7DBF90021304600F02E
:101EF0003BF82448456070BDFEE74FF0E020806964
:101F0000A821B0FBF1F21F49486800EB4003C3EB86
:101F1000C010C2EBC00000F57A7008600868704716
:101F200018484068704717494A684B689B1A8342B3
:101F3000FBD1704730B50546FFF7DFFF0446FFF7DA
:101F4000DCFF001BA842FAD130BD30B50C46054677
:101F5000FFF7D3FF001BA842FAD330BD094A5368EC
:101F60005B1A8342FBD370470907090E002803DA86
:101F700000F00F00044A00E0044A8154704700005A
:101F800080010020A400002014ED00E000E400E047
:101F90007CB501210846FEF704FE01210220FEF770
:101FA00000FE01210420FEF7FCFD01210820FEF7C0
:101FB000F8FD4FF48070009001208DF8040000209F
:101FC0008DF8060003218DF805108DF8070069468D
:101FD0001E48FEF735FC4FF490501D4D00906946A9
:101FE0002846FEF72DFC0420009069461948FEF7AC
:101FF00027FC4FF47040184E022400908DF80740E3
:1020000069463046FEF71CFCC02000908DF8074062
:1020100069462846FEF714FC40212846FEF773FC6B
:1020200080212846FEF76FFCE1023046FEF76BFC8C
:1020300021033046FEF767FC61033046FEF763FC80
:10204000A1033046FEF75FFC7CBD000000000240AB
:1020500000080240000C0240000402402DE9F04755
:10206000012186B08803FEF7C4FD01210720FEF799
:1020700098FD00248DF8104020258DF8134003A909
:1020800049480395FEF7DCFB05210120FEF761FEC0
:1020900000958DF8044008268DF8056001258DF81F
:1020A00006506846FEF706FB4FF017098DF80890BA
:1020B0008DF809508DF80A408DF80B5002A8FEF7F4
:1020C000F4F8DFF8E8A08DF81040EF028DF8134027
:1020D00003A950460397FEF7B3FB0B210020FEF740
:1020E00038FE8DF804408DF8056000978DF8065095
:1020F0006846FEF7DFFA28278DF808708DF809503A
:102100008DF80A408DF80B5002A8FEF7CEF88DF836
:1021100010404FF480588DF8134003A95046CDF875
:102120000C80FEF78DFB0C210020FEF712FE8DF8CF
:1021300004408DF80560CDF800808DF806506846A3
:10214000FEF7B8FA8DF808708DF809508DF80A403E
:102150008DF80B5002A8FEF7A8F88DF810402F025A
:102160008DF8134003A912480397FEF769FB082175
:102170000220FEF7EEFD8DF804408DF80560009713
:102180008DF806506846FEF795FA8DF808908DF8A0
:1021900009508DF80A408DF80B5002A8FEF785F81B
:1021A00006B0BDE8F08700000004024000000240D5
:1021B0000008024070B5064688B001210220FEF7F3
:1021C000F0FC01211020FEF714FD6D4D07220921BE
:1021D0002846FEF7A5FB07220A212846FEF7A0FBAA
:1021E00000248DF8164001208DF8170002218DF88B
:1021F00014104FF4C06004908DF8151004A92846FF
:10220000FEF71EFB5F4D01212846FFF778FBADF876
:1022100008400C20ADF80A00ADF80440ADF80640C7
:10222000ADF818402815ADF81A00ADF81E4000961C
:10223000ADF80C40ADF81C4069462846FFF7D7FAC8
:1022400006A92846FFF735FB01212846FFF745FB85
:1022500008B070BD0020704770B54A4D0446C1B249
:102260002846FFF760FB80212846FFF7EDFB00289A
:10227000F9D0204670BD434801888906FCD5808886
:10228000C0F30800704770B53E4D044680212846D3
:10229000FFF7DAFB0028F9D0A1B22846FFF743FB8D
:1022A000204670BD10B538A002F0EAFE354C202162
:1022B0002046FFF7C9FB0028F9D02046FFF737FB7F
:1022C000C0B210BD10B539A002F0DAFE2D4C2021AD
:1022D0002046FFF7B9FB0028F9D02046FFF727FB7F
:1022E00001463AA002F0CCFE2046FFF720FBC0B228
:1022F00010BD10B537A002F0C3FE224C20212046AD
:10230000FFF7A2FB0028F9D02046FFF710FBA0F151
:10231000300137A002F0B4FE2046FFF708FB30384A
:1023200010BD10B50446014686B033A001E0214639
:1023300038A002F0A5FE694641A002F0C3FF69463D
:1023400040A002F09DFE2146684603F007F90028F0
:10235000EDD106B010BD38B5044601463BA001E002
:10236000214641A002F08CFE69464AA002F0AAFF75
:102370001FA0009902F084FE009AA242F0D138BD5D
:1023800000000240001001400D0A70726573732056
:10239000616E79206B657920746F20636F6E74694C
:1023A0006E75652E2E2E0D0A0D0A0000706C65618B
:1023B000736520656E746572206120636861726167
:1023C000637465722E2E2E0D0A00000025630D0A1F
:1023D00000000000706C6561736520656E74657245
:1023E00020612064696769742E2E2E0D0A0000009A
:1023F00025640D0A00000000507265737320257378
:1024000020746F20436F6E74696E75652E2E2E20BA
:102410003A000000496E76616C696420696E7075DF
:10242000742C20707265737320257320746F2043A1
:102430006F6E74696E75652E2E2E203A00000000B6
:102440002573000025730D0A0000000050726573AB
:102450007320256420746F20436F6E74696E7565F8
:102460002E2E2E203A000000496E76616C696420A1
:10247000696E7075742C20707265737320256420EA
:10248000746F20436F6E74696E75652E2E2E203A20
:1024900000000000256400001CB501210420FEF7A7
:1024A0009EFB4FF47070009002208DF80400032012
:1024B0008DF8050000208DF80600504C8DF80700BF
:1024C00069462046FEF7BCF9022206212046FEF7A7
:1024D00027FA022207212046FEF722FA02220821CB
:1024E0002046FEF71DFA022209212046FEF718FABF
:1024F0001CBDF0B589B040F2E73006900320ADF87E
:10250000140000263E4FADF81C60ADF8166005A91A
:102510003846FEF7D3FC60203A4DADF800000124A8
:10252000ADF8024028880290ADF80C606946384644
:10253000FEF746FD08213846FEF783FEADF802405F
:102540006888029069463846FEF766FD08213846DD
:10255000FEF77DFEADF80240A88802906946384635
:10256000FEF796FD08213846FEF77BFEADF80240E7
:10257000E888029069463846FEF7C4FD08213846CF
:10258000FEF775FE01213846FEF7F6FC01213846BC
:10259000FEF70CFD09B0F0BD10B5FFF77DFFBDE8FB
:1025A0001040A6E718490968884200DD08464942FC
:1025B000884200DA0846124A00233432111D0028EE
:1025C00002DB10600B607047136040420860704788
:1025D0000D490968884200DD08464942884200DA10
:1025E0000846074B00223C33191D002802DB1A6005
:1025F00008607047404218600A607047000402405B
:1026000000080040B40000202400002030B58BB04A
:1026100001210220FEF7E3FA4020059002208DF808
:10262000180003218DF8191000248DF81A40354D3B
:102630008DF81B0005A92846FEF702F902220621A3
:102640002846FEF76DF9952008908B20ADF81C0008
:102650002D4DADF82440ADF81E4007A92846FEF7E1
:102660002DFC6020ADF800000120ADF802000294BE
:10267000ADF80C4069462846FEF7A2FC0821284622
:10268000FEF7DFFD01212846FEF776FC01212846F2
:10269000FEF78CFC0BB030BD2DE9F04105461B491F
:1026A0008C2068430860184E95202C36306000243A
:1026B000154FA04634370CE03068401CC008386025
:1026C0004620FFF730FCC7F800804620FFF72BFCC0
:1026D000641CAC42F0DBBDE8F0810B4A10B52C3233
:1026E0001368094C5B1C9B0834342360084B93FB34
:1026F000F1F18C2391FBF3F1491E1160034908604D
:1027000010BD00000000024000040040BC0000209A
:1027100000BD01057CB501210920FEF760FA022009
:102720008DF8040001208DF8070048F203002E4CBC
:10273000009069462046FEF783F808212B4D009152
:1027400069462846FEF77CF8022200212046FEF763
:10275000E7F8022201212046FEF7E2F801220F21CC
:102760002046FEF7DDF8012203212846FEF7D8F8BF
:102770001F4C4FF0FF3529462046FEF7E3FB294664
:102780004FF080452846FEF7DDFB0223002203219F
:102790002046FEF7B5FF00231A4603212846FEF720
:1027A000AFFF01212046FEF701FC01212846FEF77C
:1027B000FDFB7CBD0E482430006870474FF0804020
:1027C000406A70470A4900202431086070474FF082
:1027D00080410020486270470549243108607047F5
:1027E0004FF0804148627047000002400004024000
:1027F000000C004070B501218CB00802FEF7F9F919
:10280000BC20032500908DF8045000248DF807406B
:1028100069463648FEF714F8354E8DF80450009599
:102820008DF8074069463046FEF70AF88DF80450E7
:102830003020304D00908DF8074069462846FDF75E
:10284000FFFF4FF48030CDE908404FF47060CDE9D0
:102850000A4008A8FDF7B3FD8DF80C4002948DF8EE
:102860000D40059406940120234C8DF81C0002A90C
:102870002046FDF779FD012240F205212046FDF7B3
:10288000D9FE01212046FDF7AFFDA1143046FEF729
:102890003AF861143046FEF736F84FF4804130467E
:1028A000FEF731F84FF400413046FEF72CF8402196
:1028B0002846FEF728F880212846FEF724F80CB0B9
:1028C00070BD10B5134604460122FDF7C0FD204639
:1028D000FDF7F7FD02212046FDF7B5FE0028F9D0EF
:1028E0002046BDE81040FDF71EBE0000000002407B
:1028F0000004024000080240002001402DE9F05F82
:10290000AE4D042209212846FFF7DBFFAC4C042220
:102910000521E0602846FFF7D4FF2061042208214A
:102920002846FFF7CEFF6061042207212846FFF703
:10293000C8FFA06104220F212846FFF7C2FFE06113
:1029400004220E212846FFF7BCFF2062FFF7D5FACC
:102950009C4E83464FF4805949463046FDF7D1FFDF
:10296000DFF86482802147464046FDF7CAFF59469A
:102970003C20FFF7EAFA042209212846FFF7A1FFCD
:10298000E1680422401AE06005212846FFF799FF1C
:102990002169401A206149463046FDF7B4FF802185
:1029A0003846FDF7B0FFE0680027002800DAE7604E
:1029B0002069002800DA27615946C820FFF7C5FAC8
:1029C0004FF4005A5146B1463046FDF79AFF402178
:1029D00046464046FDF795FF59464FF4AA70FFF76B
:1029E000B4FA042208212846FFF76BFF616904222C
:1029F000401A606107212846FFF763FFA169401A6A
:102A0000A06151464846FDF77EFF40213046FDF764
:102A10007AFF6069002800DA6761A069002800DA9F
:102A2000A761E26820684FF47A71424392FBF1F2A9
:102A3000E2602269424392FBF1F222616269424301
:102A400092FBF1F26261A269424392FBF1F0A06154
:102A5000BDE8F09F2DE9F047FFF74FFA574D81464B
:102A600004220F212846FFF72CFF554C04220E218B
:102A7000E0612846FFF725FF524F4FF48046206261
:102A800031463846FDF73DFF4FF400484146384691
:102A9000FDF737FF49464FF4AA70FFF756FA0422B4
:102AA0000F212846FFF70DFFE1690422401AE0617B
:102AB0000E212846FFF705FF216A401A20623146A1
:102AC0003846FDF720FF41463846FDF71CFFE16917
:102AD0000020002900DAE061216A002900DA206282
:102AE000E26920684FF47A71424392FBF1F2E261AD
:102AF000226A424392FBF1F02062BDE8F0872DE9A3
:102B0000F04128252E4E00202C4F044670620422EE
:102B100011463846FFF7D5FE716A641C084470629E
:102B2000AC42F4DB4CF2503191FBF5F0726A504349
:102B3000264A104490FBF1F0C11700EB5170C01011
:102B40007062B16A0844B062BDE8F08110B5042239
:102B500003211A48FFF7B5FE194C606004F01DF917
:102B60009FED1B1B53EC112B03F090FF04F0E6F8D4
:102B7000A06010BD10B5FFF7E9FF114841F65831CC
:102B80008068884218DA04211348FDF7BAFE0E4C1B
:102B90004FF480512046FDF7B4FEA1150F48FDF714
:102BA000B0FE61152046FDF7ACFEBDE810404FF4C5
:102BB0007A71C820FFF791BD10BD000000200140D0
:102BC000C0000020000402400008024008136DFA13
:102BD000AC1C5A643BDFD33F000C024000000240B3
:102BE0000D460646FC4FDFF8F4834FF47A79FFF781
:102BF00084F90446FFF782FE3868301AFFF7D2FCEA
:102C0000D8F80000281AFFF7E3FC21464846FFF7F2
:102C10009CF9ECE7F04810B50268F148F14C4FF42C
:102C20008051036820469A4202DDFDF76AFE01E00A
:102C3000FDF769FEEC48ED49ED4A006809688842F5
:102C40004FF00401104602DDFDF75BFE01E0FDF7E9
:102C50005AFEE8484FF400710268E7480068824273
:102C6000204602DDFDF74DFE01E0FDF74CFEDB489E
:102C70004FF480710268E1480368E1489A4203DD3D
:102C8000BDE81040FDF73DBEBDE81040FDF73BBE7E
:102C900070B50D460446FFF79AFDFFF793FD2046F9
:102CA000FFF780FC2046FFF793FC2846FFF73BF92F
:102CB0000020FFF777FC0020FFF78AFC6420FFF775
:102CC00032F9FFF777FD0446FFF778FD201A70BD53
:102CD0001FB5CC490020CC4A087001211170CB49A6
:102CE0004FF0000BD94608700120CDE900B0C8486C
:102CF000CDF808B0DA460168C6485D465F46D8465A
:102D00005C460160C448C54A0199006812684143A5
:102D10008E1ABBF1000F40D186423EDCC0494FF015
:102D2000010BC04A81F800B000211170BE4981F842
:102D300000B02DB9022C03D0032C01D0042C26D1D5
:102D4000BA4890ED000AB8EEC00A00F0A4FFBDEE4C
:102D5000C00A10EE100A00B20390B54890ED000AC8
:102D600000F099FFBDEEC00A039A10EE100A01B2FE
:102D7000304601F066F800EE100AAE48B8EEC00A20
:102D8000D0ED000AB4EEE00AF1EE10FA01D2A0484C
:102D900000E0A64801689F480160B9F1000F0BD11F
:102DA0009D48006800EB4000C11700EB9170B6EB46
:102DB000A00F01DC4FF0010939EA0A0002D098495E
:102DC000012008700098B0BB9348006800EBD070F9
:102DD000B6EB600F2FDC012000907F48804900682F
:102DE0000968884205DC7D48844900680968884292
:102DF00000DD01257C487D4900680968884200DDC6
:102E000001277C487C4900680968884201DD4FF051
:102E10000108FFF785F800F00304641C012C0ED0B4
:102E2000022C0FD0032C10D0042CF2D105EA07009D
:102E300010EA080FEDD0BAF1000F0AD013E0002D10
:102E4000E7D1F8E7002FE4D1F5E7B8F1000FE0D1C2
:102E5000F1E771480068C11700EB9170B6EBA00F65
:102E600005DC4FF0010A15B16D4900200870029889
:102E700008B9002E0ADD58484FF4FA61006888420C
:102E800004DC5648006888427FF73CAF01984FF455
:102E90007A71401C0190C820FFF71FFC3DB16648C5
:102EA0000268664801686648006800F007FE022C68
:102EB00004D0032C04D0042C04D00AE0614802E0C2
:102EC000614800E0614890ED000AB8EEC00A00F0E9
:102ED0005BFD4FF0000BD946DA46CDF800B05D46F9
:102EE0005F46D846CDF808B00CE72DE9F05FDFF873
:102EF00060C15848DFF86081DCF80010FC2701EB66
:102F0000410300EB0312D8F80000B9463E4652F8E0
:102F100020403D4602EB80020B2900DA176B0B289C
:102F200001DAD2F80490002801DD52F8306C002953
:102F300001DD52F8045CDFF824A1E3460AEB03113B
:102F400051F8200001F0C6FDDFF8148158B9601E69
:102F5000874208D143A002F093F84E2188F8001070
:102F60000520BDE8F09FDBF80000DFF8ECA000EBE7
:102F700040013A485F4600EB0111DAF8000051F8D1
:102F8000200001F0AAFD50B9611E894507D139A082
:102F900002F076F8452188F800100620E1E738684D
:102FA000DFF8B89000EB400109EB0110DAF80010EF
:102FB000BB46574650F8210001F092FD50B9601E03
:102FC000864267D12FA002F05BF8532188F80010E9
:102FD0000720C6E75EE00000CC000020D000002003
:102FE0008C00002000080240D40000209400002043
:102FF000000C0240D8000020980000209000002023
:10300000000002401E0000201F00002020000020C1
:103010003C000020F40000202C0000206C01002067
:103020001C000020880000201D000020400000201F
:10303000EC0000203801002054000020480000204F
:10304000440000205C00002060000020640000209C
:1030500014000020D4030020100000209401002060
:10306000740000205455524E2046524F4E54200AB0
:103070000D0000005455524E205249474854200A32
:103080000D0000005455524E204241434B200A0D82
:1030900000000000DBF8000000EB400109EB01102C
:1030A000396850F8210001F01EFD50B9641EA54298
:1030B00007D1FEA001F0E4FF572188F80010082096
:1030C0004FE7FDA001F0DCFF00204AE72DE9F041C9
:1030D000FC4F002606EB4600002407EB001555F8D0
:1030E000240001F003FD38BB55F824000B2E40F0FE
:1030F0000F0045F8240005DA05EB8400016B41F070
:1031000004010163002E06DD05EB840050F8301D3C
:1031100041F0010101600B2C05DA05EB84004168E8
:1031200041F008014160002C06DD05EB840050F8F9
:10313000041D41F002010160641C0C2CCFDB761CE5
:103140000C2EC7DBBDE8F0812DE9F04FE5B04FF460
:10315000C871684602F0DBF9DB49052000250090C4
:103160000D60DA49DA4E4E200D603070FFF72FFB0C
:10317000FFF728FBFFF7AAFF00F096FF01F068FDBC
:103180000024DFF840A3EB4668E0D2A001F078FF0E
:10319000CE4FDFF83493D046386800EB4001D9F8C1
:1031A00000000AEB011151F8200001F093FC10B966
:1031B00030784E280ED03868C24600EB4001D9F86E
:1031C000000008EB0111C84651F8200001F085FC11
:1031D00038B109E0C1A001F053FF3868641C401CFD
:1031E00050E0307845280DD03868D14600EB4001DA
:1031F000D8F800000AEB011151F8200001F070FC32
:1032000050B10CE0B9A001F03BFFD8F80010641CED
:10321000491CC8F8001021E0307853280DD03868D8
:10322000474600EB400109EB0110D8F8001050F8B8
:10323000210001F058FC10B104E0B0A01DE030788E
:10324000572819D0B1A001F01BFFB64840F825401F
:1032500000246D1CFFF749FE4BF8250001F04CFCE3
:10326000002892D0B0A001F00BFF2946B1A001F0D8
:1032700007FF0024AB4D34E0B1A001F001FF386836
:10328000641C401E3860E9E7B1A001F0F9FE5E461B
:103290005BF82410B4A001F0F3FE56F824000528D2
:1032A00006D006280DD007280ED008280FD010E031
:1032B000B4A001F0E5FE01F091FBB6A001F0E0FE44
:1032C00007E001F0A5FB04E001F0BCFB01E001F028
:1032D000D1FBB4A001F0D4FE55F8240000F02EFE7E
:1032E000641C55F824100029CED1B2A001F0C8FE0C
:1032F00065B0BDE8F08F70B574487249744C0068D1
:1033000000EB400001EB00106F49096850F82150B4
:1033100020784E2803D1284601F0DCFBA0B92078A4
:10332000452803D1284601F0D8FB68B920785328F6
:1033300003D1284601F0D4FB30B92078572805D1B5
:10334000284601F0D0FB08B1012070BD002070BDFF
:103350002DE9F04F85B000F09FFD98490120002530
:103360000870974981462C460D7096490870964919
:10337000087096490D7096490D7096490870009531
:103380000020CDE9015003900490FFF79FFE00F06C
:103390008BFE01F05DFCDFF830B1DFF830A14C4965
:1033A000CBF800504E20CAF800500870FFF70FFA13
:1033B000FFF708FA88488949DFF824820068086026
:1033C00076E28849884A0968126809FB01F0841A84
:1033D000009810BB8C4226DC784A01200090784B84
:1033E000107000221A70784A1070394800784E2800
:1033F00006D0452808D053280AD057280ED012E00E
:10340000DAF80020521C06E0DBF80020521C08E02D
:10341000DAF80020521ECAF8002004E0DBF8002091
:10342000521ECBF80020019848B901EB4100C217A9
:1034300000EB9270B4EBA00F01DC01200190029828
:10344000002832D101EBD170B4EB600F2DDC0120EC
:103450000290DAF80000564600EB400119485D463C
:1034600000EB0110DBF8001050F8210001F032FBF6
:1034700010B14FF4FA7709E0306800EB40015B4887
:1034800000EB0110296800EB8100076B3068B24641
:1034900000EB40010B4800EB0110296850F82100B7
:1034A00001F01BFB00B1A3E0A5E00CE15455524E26
:1034B000204C4546540A0D00676F7420686572659C
:1034C000200A0D00940100201000002014000020AC
:1034D000740000206C6F6F700A0D00004D6F7669EC
:1034E0006E67206E6F7274680A0D00004D6F76690A
:1034F0006E6720656173740A0D0000004D6F766978
:103500006E6720736F7574680A0D0000656C7365D3
:103510002073746F72696E672064697374616E637F
:10352000650A0D001406002066696E69736865649B
:103530000A0D0000496E6465782025640A0D0000BC
:103540004D6F76696E6720776573740A0D00000011
:1035500064697374616E636520746F206D6F766546
:103560003A202564200A0D00646972656374696FEE
:103570006E20746F206D6F766520696E3A20256429
:10358000200A0D006265666F72654D6F76654E0AA2
:103590000D00000061667465724D6F76654E0A0D10
:1035A000000000006D6F766520666F72776172644F
:1035B0000A0D0000646F6E650A0D00001C000020FB
:1035C00088000020890000201D0000201E0000202F
:1035D0001F0000202000002034000020F400002004
:1035E000700000202C0000206C010020D40300207B
:1035F0004FF4FA760AE0DAF8000000EB4001D34815
:1036000000EB0110296800EB81004668DAF8000041
:10361000AB4600EB4001CE4800EB0111286851F8A1
:10362000200001F05DFA10B14FF4FA750CE0DAF801
:10363000000000EB4001C54800EB0111DBF8000081
:1036400001EB800050F8305CDAF8000000EB40013C
:10365000BF4800EB0111DBF8000051F8200001F039
:1036600042FA10B14FF4FA700CE0DAF8000000EB07
:103670004001B64800EB0111DBF8000001EB8000CF
:1036800050F8040CB74205DAAF4203DA874201DA98
:10369000052016E0BE4205DAAE4203DA864201DAC0
:1036A00006200EE0B54205DABD4203DA854201DAB2
:1036B000072006E0B04209DAA84207DAB84205DA84
:1036C0000820C8F800000398E8B390E0A14D2878DE
:1036D0004E280ED1DAF8000000EB40019C4800EBC8
:1036E0000111DBF8000051F8200001F0F3F9002887
:1036F000CED0287845280ED1DAF8000000EB400142
:10370000934800EB0111DBF8000051F8200001F0B4
:10371000E4F90028C4D0287853280ED1DAF8000044
:1037200000EB40018A4800EB0111DBF8000051F882
:10373000200001F0D5F90028BAD02878572810D1F8
:10374000DAF8000000E042E000EB4001804800EBC6
:103750000111DBF8000051F8200001F0C4F9002845
:10376000AED0DAF800007A4D00EB4000DBF8001034
:1037700005EB001057465E4650F8210001F0AAF90B
:10378000002885D03868316800EB400005EB001058
:1037900050F8210001F0A1F9002881D03868316883
:1037A00000EB400005EB001050F8210001F098F903
:1037B0000028C1D03868316800EB400005EB0010EC
:1037C00050F8210001F08FF90028C9D07BE762484A
:1037D0000068C11700EB9170B4EBA00F07DC01206B
:1037E0000390FFF788FD10B15C490020087000F0DD
:1037F0003FFC58B35A4E96ED000AB8EEC00A00F0EE
:103800004AFABDEEC00A10EE100A05B2554890ED16
:10381000000A00F040FABDEEC00A2A4610EE100A77
:1038200001B2204600F00DFB00EE100A4E48B8EE43
:10383000C00AD0ED000AB4EEE00AF1EE10FA05D3AA
:1038400031684A480160049818B104E048480168AA
:10385000F7E7002C09DD4748016840F6C4108142B3
:1038600003DC45490968814222DD09F101094FF471
:103870007A71C820FEF731FFD8F80000052806D07D
:10388000062807D0072808D0082809D00AE001F048
:10389000A5F807E001F0BCF804E001F0D3F801E07E
:1038A00001F0E8F80020009001900290039004904D
:1038B00001F022F900283FF484AD28494FF00008B8
:1038C0002A4F81F8008031E02349254E096896EDA2
:1038D000000A09FB01F02949B8EEC00A0968441A38
:1038E00000F0D9F9BDEEC00A10EE100A05B21D486D
:1038F00090ED000A00F0CFF9BDEEC00A2A4610EEA6
:10390000100A01B2204600F09CFA00EE100A164898
:10391000B8EEC00AD0ED000AB4EEE00AF1EE10FAFB
:1039200002D21748006800E030683860002CCBDC19
:1039300044460020C7F80080FEF734FE0020FEF762
:1039400047FE1048047005B0D3E40000D403002003
:1039500094010020740000202C0000201C00002096
:1039600040000020EC00002038010020F40000207E
:1039700034000020CC000020D00000206C0100208A
:103980003C0000201D0000202DE9F05F3F494FF072
:1039900000092DED088BF0EE409A81F80090DFF8D9
:1039A000F0A0DFF8F0B03C49DAF80070DBF8006016
:1039B000C1F80090FEF7B4FA0546DFF8E080384C15
:1039C000FEF7AEFA2168401B8842F9D3DA46354D3E
:1039D000DFF8D4B09FED35AB9FED36BB2C480068C7
:1039E000C01B00EE100AB8EEC00A00F09FFADAF829
:1039F0000000B0EE408A801B00EE100AB8EEC00A4C
:103A000000F094FA38EE009AB0EE690A00F08EFAEF
:103A100010EE100A03F0D6FA41EC180BDBF80000A8
:103A200003F0D0FA53EC1A2B03F0CEF953EC182B19
:103A300003F0CAF953EC1B2B03F028F802F0F4FF53
:103A400000EE100A00F05BFAB4EEC09AF1EE10FA44
:103A500009D2F5EEC09AD8F80000F1EE10FA00D3C2
:103A600040422860BAE7C5F80090FEF759FA0546CB
:103A7000FEF756FA2168401B8842F9D3034801211A
:103A80000170BDEC088BBDE8F09F00001C00002019
:103A90004C01002050010020F400002038000020DC
:103AA00058000020F8000020840000201F85EB5102
:103AB000B81E094000000000008066402DE9F05F5C
:103AC0008846824620482149DFF884B0D0F800902B
:103AD0000968016001201F498BF80000002017468B
:103AE0000870FEF71DFA06464FF47A7413E0FEF7ED
:103AF00004FA194905460968AAEB0100FEF752FDD0
:103B000016490968A8EB0100FEF762FDFEF7F5F91A
:103B1000401BA042FAD3FEF703FA801BB842E6D35B
:103B20000F480068FEF75CFE0E480068FEF754FE82
:103B300005490020C1F8009006498BF800000120DB
:103B40000870BDE8F09F000024000020280000203D
:103B50001C0000201D000020CC000020D000002010
:103B60004C0100205001002030B5FD48FE4C026899
:103B7000FC480368FD48FE499A420068096803DD75
:103B8000884201DD851AA5609A4201DD981A04E099
:103B9000884201DD401A00E00020A06030BD70B511
:103BA000F14CF14D803CD4E91C104218401AC4E994
:103BB0000420F0492B69096891FBF3F1EE4B1B7867
:103BC0000BB1084603E0ED4B1B7803B9084400EE47
:103BD000102AD4ED000AB8EEC00A30EEC00AD4EDC7
:103BE000080A30EE200A84ED080A00EE100AD4ED2F
:103BF000010AE348B8EEC00A30EEC00AD4ED090A63
:103C000030EE200A84ED090A007878B1FFF7ACFFA6
:103C1000D5E9020190FBF1F000EE100AD4ED090A9B
:103C2000B8EEC00A30EE800A84ED090A94ED080A65
:103C3000D4ED0E0A94ED0A1AD4ED0F1A60EE800A44
:103C400030EE411A04F1280341EE810AFDEEE00A4C
:103C500010EE902A2263D4ED090A94ED101AD4EDE7
:103C60000B1A94ED112A21EE201A70EEE11A02EEE1
:103C7000211ABDEEC11A11EE101A6163501A83ECBD
:103C8000020A1144C4E91601FEF78CFCE06DBDE8A0
:103C90007040FEF79DBCBB48D0ED000ABA48F8EE74
:103CA000E00A60EE200A90ED000AB848B8EEC00ABB
:103CB00090ED001A20EE800AC0EE010A9FEDB41AC2
:103CC00080EE810A7047A84900B58039B0EE001A2D
:103CD00091ED020AD1ED000AB8EEC02ADFEDAC1A70
:103CE000F4EEC20AF1EE10FA17D291ED120A20EEAC
:103CF000010AFFF7D0FFC0EE210A91ED000A70EE35
:103D0000800AC1ED000A91ED020AB8EEC01AF4EE85
:103D1000C10AF1EE10FA1EDC21E0B8EEC00AF4EEA2
:103D2000C00AF1EE10FA1ADD91ED130A20EE010A35
:103D3000FFF7B1FFC0EE210A91ED000A70EE600AB4
:103D4000C1ED000A91ED020AB8EEC01AF4EEC10A04
:103D5000F1EE10FA03D2B8EEC00A81ED000A91ED3F
:103D6000030AD1ED010AB8EEC01AF4EEC10AF1EE71
:103D700010FA11D291ED141A70EE810AB8EEC01A41
:103D8000C1ED010AF4EEC10AF1EE10FA03DDB8EE5E
:103D9000C00A81ED010A00BDB8EEC01AF4EEC10AF6
:103DA000F1EE10FAF7DD91ED151A70EEC10AB8EEDA
:103DB000C01AC1ED010AF4EEC10AF1EE10FAE6D321
:103DC00000BD70B5FEF7FAFC674C803C2066FEF73C
:103DD000F1FC226EA16E511A2167E36EC4E91A202C
:103DE000C31ACD1805EBD5756D10C4E91D35114406
:103DF0001844C4E9181008445B4900EBD070401027
:103E00000860E06F401BE06770BD10B5FFF7D9FF99
:103E1000FFF759FFBDE81040C1E65C48D0ED000A4D
:103E2000584820EE201A90ED000A5748B8EEC00A14
:103E3000C1EE000A90ED000AB8EEC01A80EE810AC9
:103E4000704700B5002901DA494209B2002A01DAB7
:103E5000524212B2002801DC4FF0010000EE100ABD
:103E6000B8EEC00AFFF7D9FF11FB01F002FB120008
:103E70006421484300EE900AB8EEE01AC1EE000A51
:103E8000B5EE000A20EE800ABDEEC00A10EE100A60
:103E9000002800DA404200BD10B539480024047003
:103EA0003C4804703C4804702046FEF77BFB002031
:103EB000FEF78EFB2C489FED390A80382A4980EDA9
:103EC000060A80ED070A80ED000A80ED010A846091
:103ED000C46080ED080A80ED090A80ED0A0A80EDD1
:103EE0000B0A8466C466046644660C604C60846594
:103EF000C465FEF76CFCBDE81040FEF763BC2148CA
:103F0000D0ED000A2048F8EEE00A60EE200A90EDBD
:103F1000000A1E48B8EEC00A90ED001A60EE800A52
:103F200080EE810A70479FED1D0A7047B5EEC00A0A
:103F3000F1EE10FA01D2B1EE400A70472DE9F05FC0
:103F40008046FFF7A9FFDFF838C0012011498CF83F
:103F5000000000250D70104908701149087021E01B
:103F6000D40000209C0000206C010020D80000201C
:103F7000A0000020E40000208A0000208B00002028
:103F80001C000020780000207C0000208000002021
:103F90000000C842880000208900002000000000C6
:103FA0001D0000202A49DFF8B0B02D4F0D702949BF
:103FB0002C4CDFF8A8A00D708BF8000038682A4E52
:103FC00004F18009A0602DE0831A01EBD170B3EBFE
:103FD000600F01DA8CF8005096ED000AB8EEC00AC6
:103FE000FFF759FEBDEEC00A10EE100A94ED000A6C
:103FF00002B2FFF750FEBDEEC00A10EE100A01B289
:104000001846FFF71EFF00EE100AD4ED130AB8EEB3
:10401000C00AB4EEE00AF1EE10FA01D2386800E00E
:104020003068A060D9E90020DAF80010131A08FB04
:1040300001F08342C8DB0020A560FEF7B3FA002040
:10404000FEF7C6FA094805708BF80050BDE8F09FEE
:104050001E0000201F000020200000202C00002057
:1040600034000020EC000020300000201D00002063
:10407000FE480178FE484E29006806D0452907D041
:10408000532908D0572909D00AE005280AD007E0AB
:10409000062807D004E0072804D001E0082801D052
:1040A00001207047002070472DE9F041DFF8C483FC
:1040B0009026002505EB4500002408EB0017052D90
:1040C00001D0062D03D1052C08D0062C06D0294698
:1040D000204600F06BFD401C47F82400641C0C2CAB
:1040E000EDDB6D1C0C2DE5DB761EE2D5BDE8F08125
:1040F000F0B5DE48E04AE1490778E1481678E14A40
:104100000478E2480D781368DF4903EB4302006846
:1041100001EB021202EB80014E2F32D0452F5BD013
:10412000532F7DD0572F2BD16EB152F8206000282D
:1041300046F0080642F8206005DD51F8046C46F0B0
:10414000020641F8046C6DB152F82050002B45F086
:10415000040542F8205005DD51F8305C45F00105BA
:1041600041F8305C002C0BD052F820400B2B44F06F
:10417000010442F8204003DA086B40F004000863B1
:10418000F0BD5EB152F820600B2B46F0010642F8FC
:10419000206003DA0B6B43F004030B636DB152F83C
:1041A0002030002843F0080342F8203005DD51F8A4
:1041B000043C43F0020341F8043C002CE0D052F8E8
:1041C00020300B2843F0020342F82030D8DA486848
:1041D00040F008004860F0BD5EB152F820600B2846
:1041E00046F0020642F8206003DA4E6846F0080600
:1041F0004E605DB152F820500B2B45F0010542F89E
:10420000205003DA0D6B45F004050D63002CE2D05D
:1042100052F82040002B44F0040442F8204000E013
:1042200005E0D8DD51F8300D40F0010029E06EB115
:1042300052F82060002B46F0040642F8206005DDAD
:1042400051F8303C43F0010341F8303C5DB152F885
:1042500020300B2843F0020342F8203003DA4B6889
:1042600043F008034B60002CB5D052F820300028F2
:1042700043F0080342F82030ADDD51F8040D40F062
:1042800002000860F0BD2DE9FE4FFFF705FE8049F2
:104290000020804A0870012111707F497B4D794EC2
:1042A0000870019000900290286004468246834680
:1042B00030606E484E214FF001090170FFF7ECFDB0
:1042C000306800EB4001704800EB0110296850F89D
:1042D000210000F00BFC90B93046006800EB400173
:1042E000694800EB01102946096850F8212042F086
:1042F000100240F8212069480168491C01606848A3
:104300006849DFF86C810068086077E26649674AAF
:104310000968126809FB01F0841A0198D8B98C4227
:1043200019DC634A01200190624B107000221A7060
:10433000614A10704D4800784E2806D0452806D0B6
:1043400053280CD057280CD005E04E4800E04F48C9
:104350000268521C0260BAF1000F06D010E1494811
:1043600000E04A480268521EF4E701EB4100C11721
:1043700000EB9170B4EBA00F76DC504850494FF041
:10438000010A00680968884208DD4E484E49006805
:104390000968884202DD3849012008704B484C49C1
:1043A00000680968884202DD3449012008704948E4
:1043B000494900680968884202DD314901200870D6
:1043C000FFF796FE2F4D314E2968306800F0EEFB66
:1043D000411C286800EB4002264800EB02103268BE
:1043E00040F82210FFF760FE286800EB40012648E5
:1043F00000EB0110316850F8210000F06BFB10B1A8
:104400004FF4FA7709E0286800EB4001194800EB07
:104410000110316800EB8100076B286800EB400158
:10442000194800EB01111948006851F8200000F00C
:1044300054FB10B14FF4FA760AE0286800EB400113
:104440000C4800EB01111148006801EB8000466840
:104450000C48006800EB40010B4800EB01110B48D1
:10446000006851F8200039E08AE000007400002064
:1044700070000020D40300206C0000206D0000209C
:104480006E00002014000020940100201000002085
:104490001E0000201F000020200000201800002027
:1044A0003C000020F40000202C0000206C010020C3
:1044B0001C000020880000201D000020CC000020EF
:1044C0008C000020D000002090000020D4000020AC
:1044D00094000020D80000209800002000F000FB8D
:1044E00010B14FF4FA750CE0FE48006800EB400193
:1044F000FD4800EB0111FD48006801EB800050F819
:10450000305CF848006800EB4001F94800EB01110D
:10451000F648006851F8200000F0E5FA10B14FF4B9
:10452000FA700CE0EF48006800EB4001EE4800EB49
:104530000111EE48006801EB800050F8040CB7420E
:1045400005DAAF4203DA874201DA052016E0BE42FF
:1045500005DAAE4203DA864201DA06200EE0B54201
:1045600005DABD4203DA854201DA072006E0B042EF
:1045700011DAA8420FDAB8420DDA0820C8F80000B4
:1045800000993AEA010002D0DA4801210170BBF13A
:10459000000F7ED086E0D84D28784E280ED1D14825
:1045A000006800EB4001D24800EB0111CF480068E1
:1045B00051F8200000F08EFA0028C6D0287845284F
:1045C0000ED1C848006800EB4001C94800EB01115A
:1045D000C648006851F8200000F07FFA0028BCD0DF
:1045E000287853280ED1BF48006800EB4001C0482E
:1045F00000EB0111BD48006851F8200000F070FA8E
:104600000028B2D0287857280ED1B648006800EBB1
:104610004001B74800EB0111B448006851F8200090
:1046200000F061FA0028A8D0AE4FB04EB04D386807
:10463000316800EB400005EB001050F8210000F05D
:1046400049FA002881D03868316800EB400005EB5A
:10465000001050F8210000F040FA0028BFD0386860
:10466000316800EB400005EB001050F8210000F02D
:1046700037FA0028C5D03868316800EB400005EBF8
:10468000001050F8210000F02EFA0028CBD077E778
:10469000FFE79A48006800EBD070B4EB600F01DCD4
:1046A0004FF0010B954E306800EBD070B4EB600F0B
:1046B00001DC4FF0010B9248007810B9FFF7D8FCED
:1046C00058B3904F97ED000AB8EEC00AFFF7E3FA2F
:1046D000BDEEC00A10EE100A05B28B4890ED000A3C
:1046E000FFF7D9FABDEEC00A2A4610EE100A01B251
:1046F0002046FFF7A6FB00EE100A8448B8EEC00A79
:10470000D0ED000AB4EEE00AF1EE10FA05D33968F4
:104710007F480160009818B10BE07E480168F7E718
:104720003068C11700EB9170B4EBA00F07DC0120DB
:1047300000907348007810B16E4800210170029813
:1047400008B9002C09DD7448016840F6C4108142A4
:1047500003DC72490968814250DD09F101094FF417
:104760007A71C820FDF7B9FF5E4F604D604E386822
:10477000296800EB400006EB001050F8210000F023
:10478000B5F978B93868296800EB400006EB0010ED
:1047900050F8212042F0100240F8212060480168C2
:1047A000491C0160564D287838B15E4802685E4861
:1047B00001685E480068FFF781F9D8F80000052815
:1047C00006D0062807D0072808D0082809D00AE014
:1047D00000F004F907E000F01BF904E000F032F902
:1047E00001E000F047F9002051490190009002904B
:1047F000287008704F4982468346087000F07CF9A3
:1048000000283FF483AD3B494FF00008404F81F84A
:10481000008031E039493B4E096896ED000A09FBFA
:1048200001F04549B8EEC00A0968441AFFF733FAA7
:10483000BDEEC00A10EE100A05B2334890ED000A32
:10484000FFF729FABDEEC00A2A4610EE100A01B29F
:104850002046FFF7F6FA00EE100A2C48B8EEC00A20
:10486000D0ED000AB4EEE00AF1EE10FA02D22948C7
:10487000006800E030683860002CCBDC194DDFF8B0
:1048800070901A4C286800EB400109EB0110216878
:1048900050F8210000F02AF978B9286800EB4001AF
:1048A00009EB0110216850F8212042F0100240F875
:1048B00021201B490868401C086044460020C7F8B6
:1048C0000080FDF76FFE0020FDF782FE1B484FF0D1
:1048D000900804700026002456EA040070D006EB0D
:1048E00046012DE014000020D40300201000002019
:1048F000940100201C000020740000202C000020E7
:104900006C00002040000020EC0000203801002056
:10491000F40000203C000020CC000020D00000204B
:10492000180000205400002048000020440000200F
:104930006D0000206E0000206C0100201D00002092
:1049400009EB011555F8240000F0C4F8074655F8A6
:10495000240000F0C2F8074455F8240000F0C0F825
:10496000074455F8240000F0BEF83844032827DB3C
:1049700055F824000B2E40F02F0045F8240005DAEE
:1049800005EB8400016B41F0040101630B2C05DA97
:1049900005EB8400416841F008014160002E06DD0E
:1049A00005EB840050F8301D41F001010160002C3E
:1049B00006DD05EB840050F8041D41F002010160A2
:1049C000641C0C2C88DB761C0C2E84DBB8F10108EF
:1049D00080D5BDE8FE4F00F03BB9000010B5394C62
:1049E00020784E2811D0572804D0452804D05328C9
:1049F00004D00AE0344802E0344800E0344890ED46
:104A0000000AB8EEC00AFEF7BFFF4E20207010BDAE
:104A100010B52C4C20784E2806D0572806D04528B3
:104A20000DD0532804D00AE0274802E0284800E0CF
:104A3000264890ED000AB8EEC00AFEF7A5FF452013
:104A4000207010BD10B51F4C20784E2804D0572878
:104A500004D0452804D00AE01D4802E01B4800E0CD
:104A6000194890ED000AB8EEC00AFEF78DFF5320FA
:104A7000207010BD10B5134C20784E2806D0572852
:104A80000FD0452804D0532804D00AE00F4802E094
:104A90000F4800E00C4890ED000AB8EEC00AFEF79F
:104AA00073FF5720207010BD4E2806D0452805D032
:104AB000532804D0572803D1DCE78FE7A8E7C1E7E4
:104AC0007047000074000020600000205C0000209F
:104AD00064000020C0F300007047C0F3400070473E
:104AE000C0F380007047C0F3C0007047C0F30010EF
:104AF0007047C0F34010704745480068052801D052
:104B0000062806D14349444A0968052903D00629E5
:104B100003D000207047052811D0D432136B43F026
:104B20000C031363136843F001031360D36A43F06B
:104B30000203D362D43A062901D1052813D002F525
:104B400098720629536843F009035360536B43F08E
:104B500004035363136843F002031360A2F59872D1
:104B600001D1062813D002F59C720529136843F081
:104B700003031360136B43F004031363536843F0A0
:104B800008035360A2F59C7201D106280CD0D832DC
:104B9000106B40F004001063106840F001001060DA
:104BA000506B40F0080050630120704710B51A4A5E
:104BB00001EB410102EB0112184C52F8202004EBEA
:104BC0000111C2F3000301EB80010BB1FC2000E0F6
:104BD000086BC2F340030BB1FC2300E04B68C2F347
:104BE00080040CB1FC2401E051F8304CC2F3C00247
:104BF0000AB1FC2101E051F8041C834200DA184696
:104C0000844200DA2046814200DA084610BD0000E6
:104C1000100000201400002094010020D403002084
:104C20002DE9F0414B4F0B2505EB4500002407EB28
:104C3000001649A056F8241000F022FA641C0C2C2F
:104C4000F7DB46A000F01CFA6D1EEDD5BDE8F08143
:104C50002DE9F047DFF80891DFF8F8A00B2606EB06
:104C6000460700240AEB071555F82400FFF732FF2A
:104C700008B13CA000E03DA000F002FA641C0C2C3E
:104C8000F2DB36A000F0FCF9DFF8E880002455F8EC
:104C90002400FFF728FF08B137A000E037A000F09C
:104CA000EFF9D8F80000864216D1354800688442F2
:104CB00012D199F800004E2806D0452806D0532876
:104CC00006D0572806D01FE02EA012E02EA010E03C
:104CD0002EA00EE02EA00CE055F82400FFF709FFEF
:104CE00008B12CA005E055F82400FFF7FFFE18B12D
:104CF00029A000F0C5F907E0284800EB071050F89C
:104D0000241015A000F0BCF955F82400FFF7E5FECB
:104D100008B119A000E019A000F0B2F9641C0C2C35
:104D2000B5DB0EA000F0ACF9002455F82400FFF725
:104D3000D7FE08B10BA000E00CA000F0A1F9641CA4
:104D40000C2CF2DB05A000F09BF9761E87D5BDE8A0
:104D5000F087000094010020253364000A0D000054
:104D6000740000202B2D2D2D2B0000002B20202047
:104D70002B000000140000207C0000002000000038
:104D800010000020205E2000203E20002076200021
:104D9000203C200020782000202E2000D40300207A
:104DA00030B52C4A106840F00E001060506840F09A
:104DB0000C005060002002EB8001401CD1F8103242
:104DC0000C2843F00103C1F81032F4DB002000EBA3
:104DD000400102EB0111401CCB6A0C2843F0020396
:104DE000CB62F4DB002052F8201041F0040142F8BD
:104DF0002010401C0C28F6DB002000EB400102EBE9
:104E00000111401C0B680C2843F008030B60F4DB15
:104E10000A20114C002202EB4203002104EB031391
:104E2000052943F8210001DA401E03E08D1F052DFE
:104E300000D2401C491C0C29F2DB052A01DA401E75
:104E400003E0911F052900D2401C521C0C2AE2DB12
:104E500030BD000094010020D403002009488047A1
:104E600009480047FEE7FEE7FEE7FEE7FEE7FEE74C
:104E7000FEE7FEE7FEE7FEE704480549054A064B64
:104E8000704700009B4F00088901000808080020B7
:104E9000080E0020080A0020080A0020F0B56C4A1D
:104EA0000020116841F4803111604FF4A063116853
:104EB00000F1010011F4003F01D19842F7D11068D0
:104EC000674E8103634CDFF890E1644DDFF894C1D5
:104ED00040F2056706F104002BD5216841F08051AE
:104EE0002160DEF8001041F48041CEF80010016826
:104EF0000160016841F400410160016841F4A05182
:104F000001603560116841F080711160116889019C
:104F1000FCD5CCF80070016821F003010160016844
:104F200041F0020101600168C1F381010229FAD157
:104F3000F0BD11684C4B19401160116841F001013E
:104F40001160216841F080512160DEF8001041F4C9
:104F50008041CEF8001001680160016841F4004111
:104F60000160016841F4A05101603560116841F0B1
:104F70008071116011688901FCD5CCF8007001685E
:104F800021F003010160016841F002010160016844
:104F9000C1F381010229FAD1F0BD344810B501688E
:104FA00041F4700101602A48016841F0010101608B
:104FB0002B4A0021121D116002682B4B1A4002601F
:104FC000031D2B4A1A60026822F4802202602448E2
:104FD00008300160FFF762FF24494FF0006080391C
:104FE000086010BD70B51E4D2D1D2868214B22494B
:104FF00010F00C0004D05E10042803D0082803D061
:105000000B601AE00E6018E0154A1068C0F3805477
:10501000106800F03F0014B1B6FBF0F001E0B3FB04
:10502000F0F013681268C3F388135843C2F30142C7
:10503000521C5200B0FBF2F0086028680E4AC0F320
:105040000310121D105C0A68C2400A6070BD0000A7
:105050000038024040380240007000401054000701
:1050600004380240003C0240FFFFF6FE88ED00E0FD
:10507000103000240024F40080010020704700005C
:105080000FB4044910B503AA029800F02DFD10BC1E
:105090005DF814FBAC00002070B50446856900681B
:1050A000C10601D5302600E02026C00708D070BD1B
:1050B000D4E9012130469047206A00F101002062C6
:1050C0006D1EF5D570BD70B5044685690078C007C2
:1050D00008D170BDD4E9012120209047206A00F159
:1050E000010020626D1EF5D570BD70B50C460546F9
:1050F000012A05D02878800600D5EA69002302E05D
:10510000012305E05B1C934202D2E05C0028F9D148
:10511000A869E618C01AA861286A184428622846B7
:10512000FFF7BAFF04E0D5E9012114F8010B90471D
:10513000B442F8D32846FFF7C6FF70BD2DE9F04111
:105140000646002410687529314616A511D0AFF324
:105150000080002803DAC0F1000013A507E03168E1
:105160008A0701D511A502E0490704D510A501243D
:1051700001E0AFF3008000210A2306F1240707E0D5
:10518000B0FBF3F203FB1200303078541046491C98
:105190000028F5D123462A463046BDE8F04100F00C
:1051A00021BA0000000000002D0000002B000000CC
:1051B000200000002DE9F0474FF0000A8946044620
:1051C000C0F820A02046E1688847002876D025282E
:1051D00006D0D4E901219047206A401C2062F1E703
:1051E000E168204600258847C4F81CA00646002731
:1051F000C4F818A02A2E09D0304601F0E2FB38B3DB
:1052000004EB8708303EC8F8186019E059F8041B11
:10521000204604EB87029161E1688847012F06462A
:1052200018D1E069002820DA25F020051DE0D8F823
:10523000180000EB800006EB40003038C8F818007A
:105240002046E1688847064601F0BBFB0028EED106
:10525000012F0AD02E2E08D12046E16888477F1CF6
:105260000646022F45F02005C4DBA069002803DABA
:10527000404245F00105A061E80701D025F0100586
:10528000B6B1A6F14100192802D8203645F40065D0
:105290004A463146204625604D46FAF7CFFF58B1C1
:1052A000012806D0ED1D25F0070000F1080989E767
:1052B00004E005F1040985E730468AE7206ABDE885
:1052C000F08700000FB400B589B00BA86A460090C3
:1052D00003480A9900F028FC09B05DF814FB0000AF
:1052E000B00000202DE9FF5F1D464FF0FF3B9146C7
:1052F0004FF000085F46D5E90146A96901987F1C77
:105300008847296A824688470028F6D11AF10100A9
:105310000CD0002E24F4C06419DD600614D5BAF157
:105320002B0F09D0BAF12D0F0ED103E0584604B06F
:10533000BDE8F09F44F48064A96901987F1C884708
:10534000761E8246002E02DDBAF1300F03D0B9F18D
:10535000000F26D032E0A969761E01987F1C44F424
:1053600000748847002E824605DDBAF1780F06D01A
:10537000BAF1580F03D0B9F1000F10D01EE0B9F107
:10538000000F02D0B9F1100F18D1A969761E01984B
:105390007F1C24F4007488478246102002E0082015
:1053A00000E00A20814609E0A96908FB0908761E89
:1053B00001987F1C44F4007488478246002E05DD66
:1053C0004946504600F0A2FB0028EDDAE969019851
:1053D0008847A00502D46FF00100A8E7E00727D1B5
:1053E000600614D5600502D5C8F1000000E0404613
:1053F000296801F104022A600968220501D50870B4
:1054000016E0220701D5088012E0086010E0286845
:1054100000F1040129600068210502D580F80080B0
:1054200006E0210702D5A0F8008001E0C0F8008066
:1054300038467CE72DE9FF5F4FF000089946144697
:1054400046469169D2E901A7DDF838B0019888474E
:10545000054659EA0B0005D009E0A1690198761CC0
:1054600088470546216A284688470028F5D1681CE8
:1054700003D05FEACA7005D015E04FF0FF3004B0EA
:10548000BDE8F09F2068011D2160D0F800800AE08F
:105490005FEACA7001D108F8015BA1697F1E01981B
:1054A000761C88470546002F1ADD681C18D0B9F114
:1054B000000F0DD0E81705EBD060421120F01F005F
:1054C00059F822102A1A012090400142E0D107E049
:1054D000BBF1000FDCD12846216A88470028D7D0CD
:1054E000E169019888470AF0010050EA0B0002D1F7
:1054F000002188F80010A068B84203DDBBF1000F5E
:1055000003D017B16FF00100B9E73046B7E74FF0AD
:10551000000200B5134694469646203922BFA0E803
:105520000C50A0E80C50B1F12001BFF4F7AF09070F
:1055300028BFA0E80C5048BF0CC05DF804EB890000
:1055400028BF40F8042B08BF704748BF20F8022B43
:1055500011F0804F18BF00F8012B70474FF0013C4D
:1055600050F8042B51F8043B9A4221D1A2EB0C03D2
:10557000934313EACC1317D150F8042B51F8043B92
:105580009A4215D1A2EB0C03934313EACC130BD12F
:1055900050F8042B51F8043B9A4209D1A2EB0C03BA
:1055A000934313EACC13DBD04FF00000704700BFE9
:1055B000D01A01BAB1FA81F101F0180122FA01F012
:1055C000CB40C1F12001DBB2C0B2C01A2CFA01F30A
:1055D000D11A914311EAC311E6D170477047704761
:1055E000704770472DE9F0470D46994692460446AC
:1055F00000F124080168880604D5E06921F0100153
:10560000216000E00120A84202DDA0EB050700E0D8
:105610000027A16907EB050202EB0900A1EB0000DE
:10562000A0612078C00602D42046FFF735FD002691
:1056300008E0D4E901211AF806009047206A401CCE
:10564000761C20624E45F4DB2078C0060AD5204641
:10565000FFF722FD06E0D4E9012130209047206ABF
:10566000401C2062381EA7F10107F4DC07E0D4E9F2
:10567000012118F805009047206A401C2062281E6E
:10568000A5F10105F3DC2046FFF71DFD207800069B
:1056900002D50220BDE8F0870120FBE770472DE925
:1056A000FF4F0C461E464FF0FF378BB0D2E900018A
:1056B000DDF860800A908A46C1F30A5505B93D4677
:1056C000002108464FF00000BAF1000F00F440003E
:1056D00005DA00EB80004FF4400101EA50004FEA88
:1056E0009059B9F1010F00DDB9460A9850EA4A0015
:1056F0000ED044F61050A5F2FF3545432F14B8F1F3
:10570000000F1ED07542291E1EDDC9F100021CE0EB
:10571000B8F1010F4FF0000001D0302103E0F24357
:1057200005E02154401CB042FBDB30460022002142
:1057300021540B99C1F80880C1E900200FB0BDE8E1
:10574000F08FBD1B6D1CDEE74A4600DA694206A8F1
:1057500000F0AEFA06AB07CB03AB07C350460A997D
:1057600000F05CFD8DE80700A0F500501F380090A8
:105770000398002D09DD42F21F014A46084403A99F
:105780000390684600F0BBFF08E0A0F500504A46D1
:105790001F3803A90390684600F0C5FF8DE8070095
:1057A0000004000C03D04FF0FF30410800E0104629
:1057B000B8F1000F03D00022009215461FE0751EBD
:1057C00006D400F0C1F902F1300262556D1EF8D521
:1057D000B3460122084302D000227F1C04E0207857
:1057E000302801D100227F1E002A099787D01DE0B2
:1057F000112D07DA00F0A8F9303262556D1C50EA1D
:105800000102F5D108430FD10021681E05E0235C99
:10581000625C6354491C2254401E8142F7DBAB4654
:10582000A81B401E099001E0009848B1002004F830
:105830000B000B98099AC0F80880C0E9002B7DE79F
:1058400011264FF000085AE72DE9F04F884604462C
:10585000D21D22F0070191B0D1E90001CDE90A0182
:1058600001F097F802460B98C00F01D02D2007E0F9
:105870002068810701D52B2002E0202101EAC00029
:10588000032A099001D0072A05DB0346414620463A
:1058900000F0B8F90FE12078800601D5E06900E05A
:1058A0000620B8F1650F814606D0B8F1660F18D012
:1058B000B8F1670F72D132E00020B9F1110F0090FA
:1058C00001DB112301E009F101030AAA01A90CA8D7
:1058D000FFF7E5FEDDE90C70002609F101058346BE
:1058E00048E001204B4600904FF000470AAA01A96A
:1058F0000CA8FFF7D4FEDDE90DB00C995D4600263B
:1059000018B909F1010001EB0005B9EB050003D45A
:10591000C0F1FF3609F10105A5EB09002BE0B9F153
:10592000010F01DA4FF001090020B9F1110F0090C9
:10593000484601DD112300E003460AAA01A90CA88C
:10594000FFF7ADFEDDE90C704D460026834620785A
:1059500000070AD4AB4500DA5D4601A8012D04DD3D
:10596000411911F8011C302907D04F4502DA17F10F
:10597000040F04DA0120824610E06D1EEEE7002FCE
:1059800002DCED1B3E4403E0781CA84200DD054626
:10599000A7EB060000F1010A4FF00047207800074E
:1059A00003D4AA4501DB4FF0FF3A0021B7F1004FC5
:1059B0000DF143088DF8431023D002202B23002F34
:1059C00001DA7F422D234FF00A0C011EA0F10100E5
:1059D00000DC4FB197FBFCF10CFB11720F4602F19A
:1059E000300208F8012DF0E7A8F1010003702188CA
:1059F000090501D5452100E06521A0F1010800F865
:105A0000011C09980FA9A1EB080707F1070700B1CE
:105A1000012000EB050101EBEA70A1693844A1EB1C
:105A20000000A0F10100A0612078C00602D4204649
:105A3000FFF732FB099830B1D4E901219047206A81
:105A400000F1010020622078C00620D52046FFF733
:105A500023FB1CE0002E04DBB34502DD01A8805DC2
:105A600000E03020D4E901219047206A761C401CD8
:105A7000BAF1010A20620AD100F062F8C068016838
:105A8000405CD4E901219047206A401C2062281E16
:105A9000A5F10105DEDC07E0D4E9012118F8010BCE
:105AA0009047206A401C2062381EA7F10107F3DCF2
:105AB0002046FFF708FB022011B040E610B543690D
:105AC00013B1AFF3008001E0FFF70FFB012010BD21
:105AD000127800F124010A7000224A700122EDE7D9
