:020000040800F2
:10000000C80700201D3F0008192500081B2500080F
:100010001F250008232500082725000800000000F0
:100020000000000000000000000000002B25000878
:100030002D250008000000002F25000831250008AC
:10004000373F0008373F0008373F0008373F0008B8
:10005000373F0008373F0008373F0008373F0008A8
:10006000373F0008373F0008373F0008373F000898
:10007000373F0008373F0008373F0008373F000888
:10008000373F0008373F0008373F0008373F000878
:10009000373F0008373F0008373F00085B2500085E
:1000A000373F0008373F0008373F0008373F000858
:1000B000373F0008373F0008373F0008373F000848
:1000C000373F0008373F0008373F0008373F000838
:1000D000373F0008373F0008373F0008373F000828
:1000E00097250008373F0008373F0008373F0008D2
:1000F000373F0008373F0008373F0008373F000808
:10010000373F0008373F0008373F0008373F0008F7
:10011000373F0008373F0008373F0008373F0008E7
:10012000373F0008373F0008373F0008373F0008D7
:10013000373F0008373F0008373F0008373F0008C7
:10014000373F0008373F0008373F0008373F0008B7
:10015000373F0008373F0008373F0008373F0008A7
:10016000373F0008373F0008373F0008373F000897
:10017000373F0008373F0008373F0008373F000887
:10018000373F0008373F000800F002F800F078F829
:100190000AA090E8000C82448344AAF10107DA45E2
:1001A00001D100F06DF8AFF2090EBAE80F0013F0BC
:1001B000010F18BFFB1A43F0010318474861000004
:1001C000686100000A444FF0000C10F8013B13F086
:1001D000070408BF10F8014B1D1108BF10F8015BA0
:1001E000641E05D010F8016B641E01F8016BF9D193
:1001F00013F0080F1EBF10F8014BAD1C0C1B09D1EA
:100200006D1E58BF01F801CBFAD505E014F8016B5B
:1002100001F8016B6D1EF9D59142D6D370470000ED
:100220000023002400250026103A28BF78C1FBD8FF
:10023000520728BF30C148BF0B607047662905F0E0
:10024000D487642904F03880632904F0D9847329A1
:1002500004F0DE84002070471FB505F0BCFF04F0F9
:1002600007FD04000020002105F060FC401C6060D8
:100270000020002105F044FCE0601FBD10B510BD5A
:1002800004F04CFE1146FFF7E7FF02F022F805F0FC
:100290004FF803B4FFF7F2FF03BC02F0B4FB000019
:1002A00033490143334A1160704770B50021002380
:1002B0000F22C47824B32F4C246804F4E064C4F5FE
:1002C000E064C4F30721C1F10404E3B20A414478B5
:1002D0009C40E1B28478144021430C07210E264C47
:1002E00005786155047804F01F050124AC400578B9
:1002F0006D114FF0E02606EB8505C5F8004109E0D9
:10030000047804F01F040125A5401C4C06787611E2
:1003100044F8265070BD1A4A0A400243154B1B1F71
:100320001A60704739B1134A121D12680243114B0B
:100330001B1D1A6006E00F4A121D126882430D4B06
:100340001B1D1A607047042808D14FF0E02109698D
:1003500041F004014FF0E022116107E04FF0E0218D
:10036000096921F004014FF0E0221161704700009B
:100370000000FA050CED00E000E400E080E100E0A0
:1003800080FFFF1F10B50121080200F00DFE0021C3
:100390004FF4807000F008FE10BD30B5024600201A
:1003A00000235068F94C20400D790C6844EA05247C
:1003B000204350609068F64C2040D1E903542C4310
:1003C0008D682C434D7944EA450420439060D06AFF
:1003D00020F470000C7D641EE4B2234340EA035015
:1003E000D06230BD00210160017141718160C16046
:1003F00001610121017570470021E64A1168E64A52
:1004000001EA0201D0E9002342EA0302836842EADA
:100410000302C36842EA030242EA0101DF4AC2F86A
:10042000041370470021016041608160C160704722
:1004300021B1826842F00102826003E0826822F00A
:100440000102826070470A4600214168D44B19407E
:100450001143416070474162826270470A46002141
:10046000416821F01F0111434160704738B1C9490B
:10047000096841F40001C94AC2F8041306E0C549FD
:10048000096821F40001C54AC2F80413704738B165
:10049000C049096841F48001C04AC2F8041306E06B
:1004A000BC49096821F48001BC4AC2F804137047B2
:1004B000F0B504460D4600200021092D11DDE0684D
:1004C000A5F10A0606EB4607072606FA07F1884358
:1004D000A5F10A0606EB460603FA06F10843E060BA
:1004E0000CE0206905EB4507072606FA07F188436B
:1004F00005EB450603FA06F108432061072A0FDAE7
:10050000606B561E06EB86071F2606FA07F1884326
:10051000561E06EB860605FA06F10843606322E0E4
:100520000D2A0FDA206BD61F06EB86071F2606FA68
:1005300007F18843D61F06EB860605FA06F1084345
:10054000206310E0E06AA2F10D0606EB86071F2685
:1005500006FA07F18843A2F10D0606EB860605FAB6
:1005600006F10843E062F0BD816841F0804181609E
:100570007047014600208A6812F4800F01D00120E4
:1005800000E00020704721B1826842F480628260FE
:1005900003E0826822F480628260704721B1826841
:1005A00042F00202826003E0826822F0020282606E
:1005B000704710B50A4600210023416821F46041CC
:1005C000531E41EA4331416010BD21B1426842F4FB
:1005D0000062426003E0426822F4006242607047B9
:1005E0000146C86C80B270476E480068704721B100
:1005F000826842F48072826003E0826822F4807232
:100600008260704721B1826842F40072826003E028
:10061000826822F400728260704738B15D490968CF
:1006200041F400515D4AC2F8041306E059490968D3
:1006300021F40051594AC2F804137047F0B504463A
:100640001546002000220026092911DDE068A1F1ED
:100650000A0707EB470C072707FA0CF29043A1F1B2
:100660000A0707EB470703FA07F21043E0600CE0C4
:10067000206901EB410C072707FA0CF2904301EBCC
:10068000410703FA07F210432061A06BC0F3015643
:10069000EF1C06F1010CA7EB0C0707EB870C1F27DB
:1006A00007FA0CF29043EF1C06F1010CA7EB0C07C4
:1006B00007EB870701FA07F21043A063F0BD10B5FE
:1006C0000A4600210023816B21F44011531E41EAA8
:1006D0000351816310BD10B5002303460B441A601B
:1006E00010BD0A460021816821F470211143816008
:1006F00070470A460021816821F44011114381604E
:100700007047816841F48001816070470146002094
:100710008A6812F4800F01D0012000E000207047A9
:1007200021B1426842F48062426003E0426822F4F0
:1007300080624260704721B1426842F48052426058
:1007400003E0426822F48052426070470246002370
:10075000134601F128000344186880B2704710B5B1
:100760000B460021D9B2012404FA01F11AB1446800
:100770000C43446002E044688C43446010BD024670
:10078000002013680B420FD001200EE0FFFEFFFC9B
:10079000FDF7FFC004230140E030FCFF00200140D2
:1007A000FFFD3FFF0823014000207047CA4302605D
:1007B000704770B502460020002300240B125568D4
:1007C00001268E4005EA060415681D4202D00CB1D0
:1007D000012000E0002070BD00220A12D343036014
:1007E00070470000002044490860091D0860091D89
:1007F0000860091D086041483F491431086070478E
:1008000000213D498279002A3AD00A4612680368DD
:100810009A430B461A600A1D126803689A430B1D1F
:100820001A60027911440A6803681A430A60324A5E
:100830000832126803689A432F4B08331A601A1D56
:10084000126803689A432C4B0C331A604279102AC1
:100850000ED11A1F126803681A43274B08331A6017
:100860001A1D126803681A43234B0C331A600DE0FB
:100870002149427911440A6803681A430A6005E075
:10088000027911440A6803689A430A60704700219C
:10089000016001710C21417100218171704716497D
:1008A000103109680143144A103211607047014643
:1008B0000020114A143212680A4201D0012000E0DF
:1008C000002070470C491431086070470146002031
:1008D0000022094B1B6803EA0102074B14331B6813
:1008E0000B4202D00AB1012000E00020704702490B
:1008F0001431086070470000003C0140FFFF7F009A
:1009000010B504468848844208D10121084600F009
:10091000F4FA0021012000F0F0FA5EE083488442FE
:1009200008D10121022000F0E8FA0021022000F0A5
:10093000E4FA52E07E48844208D10121042000F00C
:10094000DCFA0021042000F0D8FA46E0794884421D
:1009500008D10121082000F0D0FA0021082000F081
:10096000CCFA3AE07448844208D10121102000F00A
:10097000C4FA0021102000F0C0FA2EE06F48844233
:1009800008D10121202000F0B8FA0021202000F039
:10099000B4FA22E06A48844208D10121402000F0E4
:1009A000ACFA0021402000F0A8FA16E06548844225
:1009B00008D10121802000F0A0FA0021802000F061
:1009C0009CFA0AE06048844207D10121801500F0BA
:1009D00094FA0021A01500F090FA10BDF0B50A4677
:1009E00000210023002400BF3DE0012505FA01F3AA
:1009F000156805EA03049C4234D105684F000326BC
:100A0000BE40B543056015794E00B54006683543D4
:100A100005601579012D02D01579022D16D1856852
:100A20004F000326BE40B543856055794E00B54062
:100A3000866835438560456801268E40B54345602C
:100A4000456896798E40B6B235434560C5684F001B
:100A50000326BE40B543C560D5794E00B540C66893
:100A60003543C560491C1029BFD3F0BD4FF6FF7157
:100A700001600021017141718171C17170474FF4B2
:100A800080320A43C261C161C261C269C2697047F2
:100A90000246002013690B4201D0012000E0002033
:100AA00070470146086980B27047024600205369CA
:100AB0000B4201D0012000E0002070470146486948
:100AC00080B2704701837047418370470AB1018348
:100AD00000E0418370474161704742694A4042618A
:100AE0007047F0B5002300244D07ED0E02FA05F320
:100AF000CE1000F1200555F826504E07F70E0F26B0
:100B0000BE40B543CF1000F1200646F82750CE1066
:100B100000F1200555F8265045EA0304CE1000F1F7
:100B2000200545F82640F0BD0000024000040240C8
:100B300000080240000C0240001002400014024075
:100B400000180240001C024000200240F8480068E3
:100B500040F00100F64908600020F54908310860BE
:100B6000F3480068F3490840F1490860F248091D5C
:100B70000860081F006820F48020091F086000201A
:100B8000EB490C31086070470021E94A921C117052
:100B900011460870704710B501460022002300205E
:100BA0004A11012A02D1E24C236808E0022A03D14B
:100BB000DF4C7034236802E0DD4C7434236801F0AC
:100BC0001F02012494401C4201D0012000E00020BB
:100BD00010BD70B500240025002600BF3120FFF7AE
:100BE000DAFF0646641CB4F5A06F01D0002EF5D0E4
:100BF0003120FFF7D0FF08B1012500E0002528468D
:100C000070BD01460020CA4A106820F0F80040EA92
:100C1000C10010607047C949086070470021C44A8C
:100C2000703211701170012802D004280AD104E03A
:100C30000121BF4A7032117005E00521BC4A7032B3
:100C4000117000E000BF00BF7047BD4908607047E9
:100C500070B5049C41EA82150126C6EB530645EAAD
:100C60000645054345EA0465B14E361D356070BD45
:100C7000B24908667047820142EA0172AC4B843384
:100C80001A607047AD4988667047AC49C8647047C0
:100C900002460020A64B0833186820F0EC6042EAB8
:100CA00001031843A24B0833186070470246002026
:100CB0009F4B0833186820F0784042EA010318433C
:100CC0009B4B08331860704701460020984A083251
:100CD000106820F003000843106070479448083003
:100CE000006800F00C00704701460020904A08326E
:100CF000106820F0F00008431060704701460020A3
:100D00008B4A0832106820F4E050084310607047A6
:100D100001460020864A0832106820F4604040EA0C
:100D2000C10010607047F0B50021002200240225A8
:100D3000002602237E4F08373F6807F00C0121B1DF
:100D4000042905D0082937D105E07E4F076036E039
:100D50007D4F076033E0764F3F1D3F68C7F38056F5
:100D6000734F3F1D3F6807F03F036EB1764FB7FBEF
:100D7000F3F7DFF8BCC10CF1040CDCF800C0CCF3D5
:100D8000881C07FB0CF40CE06E4FB7FBF3F7DFF8A1
:100D9000A0C10CF1040CDCF800C0CCF3881C07FBEC
:100DA0000CF4634F3F1D3F68C7F301477F1C7D0074
:100DB000B4FBF5F7076002E0624F076000BF00BFB9
:100DC0005B4F08373F6807F0F00109095F4F7A5C15
:100DD0000768D7404760564F08373F6807F4E0512F
:100DE000890A5A4F7A5C4768D7408760504F083766
:100DF0003F6807F46041490B544F7A5C4768D7401D
:100E0000C760F0BD002100F44072B2F5407F0AD106
:100E1000474A0832116821F4F8114D4A0240114343
:100E2000434A08321160424A70321268C0F30B0321
:100E30001A433F4B70331A60704741494439086088
:100E400070473F4940390860704742490860704721
:100E500039B1374A303212680243354B30331A60A9
:100E600006E0334A303212688243314B30331A6025
:100E7000704739B12E4A3432126802432C4B343356
:100E80001A6006E02A4A343212688243284B34330F
:100E90001A60704739B1264A383212680243244B2F
:100EA00038331A6006E0224A383212688243204BF7
:100EB00038331A60704739B11D4A40321268024314
:100EC0001B4B40331A6006E0194A403212688243D5
:100ED000174B40331A60704739B1154A44321268D3
:100EE0000243134B44331A6006E0114A443212683D
:100EF00082430F4B44331A60704739B10C4A1032A9
:100F0000126802430A4B10331A6006E0084A103296
:100F100012688243064B10331A607047E1B1044AED
:100F2000143212680243024B14331A6019E00000B5
:100F300000380240FFFFF6FE103000240000474258
:100F4000800E47420024F40000127A0000000020C6
:100F5000FFFCFF0F5C0147425B4A126882435A4B19
:100F60001A60704739B1584A121D12680243564B35
:100F70001B1D1A6006E0544A121D12688243524B30
:100F80001B1D1A60704739B14F4A0C321268024378
:100F90004D4B0C331A6006E04B4A0C321268824308
:100FA000494B0C331A60704739B1474A1032126806
:100FB0000243454B10331A6006E0434A1032126870
:100FC0008243414B10331A60704739B13E4A3C327C
:100FD000126802433C4B3C331A6006E03A4A3C320A
:100FE00012688243384B3C331A60704739B1364A35
:100FF000403212680243344B40331A6006E0324AF2
:10100000403212688243304B40331A60704739B126
:101010002D4A4432126802432B4B44331A6006E0D7
:10102000294A443212688243274B44331A6070477E
:1010300039B1254A4C3212680243234B4C331A60B3
:1010400006E0214A4C32126882431F4B4C331A602F
:10105000704739B11C4A5032126802431A4B503360
:101060001A6006E0184A503212688243164B503319
:101070001A60704739B1144AD21F12780243124BDA
:10108000DB1F1A7006E0104AD21F127882430E4B03
:10109000DB1F1A7070470C486030006840F08070A9
:1010A000094960310860704701460020064A083A45
:1010B00012680A4201D0012000E000207047024976
:1010C000891F0870704700001438024010B50121D4
:1010D0008803FFF769FF00214FF48040FFF764FFAA
:1010E00010BD1A490860704730B500228B071C0FED
:1010F0000F2303FA04F2154B08338C1053F82430F5
:101100009343124C08348D1044F8253023468C103C
:1011100053F824308C07240F00FA04F423430B4CBB
:1011200008348D1044F8253030BD094908607047F7
:10113000084908607047002004492031096811F40B
:10114000807F01D0012000E000207047003801407E
:10115000DC0027420004274210B50446FE488442C2
:1011600008D101210846FFF71FFF00210120FFF7EA
:101170001BFF9DE0B4F1804F08D101210846FFF725
:1011800002FF00210120FFF7FEFE91E0F3488442B8
:1011900008D101210220FFF7F6FE00210220FFF70F
:1011A000F2FE85E0EE48844208D101210420FFF7D9
:1011B000EAFE00210420FFF7E6FE79E0E9488442D8
:1011C00008D101210820FFF7DEFE00210820FFF7EB
:1011D000DAFE6DE0E448844208D101211020FFF7D7
:1011E000D2FE00211020FFF7CEFE61E0DF488442EE
:1011F00008D101212020FFF7C6FE00212020FFF7A3
:10120000C2FE55E0DA48844208D101210220FFF7EE
:10121000CBFE00210220FFF7C7FE49E0D5488442FB
:1012200009D101210804FFF7BFFE00214FF48030EF
:10123000FFF7BAFE3CE0D048844209D101214804BE
:10124000FFF7B2FE00214FF40030FFF7ADFE2FE0B4
:10125000CA48844209D101218804FFF7A5FE002174
:101260004FF48020FFF7A0FE22E0C548844208D159
:1012700001214020FFF787FE00214020FFF783FE79
:1012800016E0C048844208D101218020FFF77BFE90
:1012900000218020FFF777FE0AE0BB48844207D197
:1012A00001218015FFF76FFE0021A015FFF76BFEEF
:1012B00010BD00220288A84B98420ED0AC4B984239
:1012C0000BD0B0F1804F08D0A44B984205D0A44B6E
:1012D000984202D0A34B984204D14FF68F731A4024
:1012E0004B881A43A04B984207D0A04B984204D099
:1012F0004FF6FF431A400B891A4302804B68C362C2
:101300000B880385944B984202D0994B984201D1A7
:101310008B7A03860123838270474FF0FF3141604F
:1013200000210180018141808172704701858282A4
:1013300070470A46002101884FF68F731940114308
:101340000180704741627047C16270470146486A38
:1013500070470146088D704721B1028842F00202B1
:10136000028004E002884FF6FD731A400280704745
:1013700021B1028842F00402028004E002884FF6A4
:10138000FB731A400280704721B1028842F080024C
:10139000028004E002884FF67F731A400280704793
:1013A00002884FF6F7731A40028002880A430280CF
:1013B000704702884FF6FF431A40028002880A43B2
:1013C0000280704721B1028842F00102028004E0ED
:1013D00002884FF6FE731A400280704770B50024F1
:1013E00000220023058C4FF6FE7635400584028CE2
:1013F0008388048B4FF68F752C40B51E2C400D88CA
:101400002C43751E2A408D892A434D882A43524D0C
:10141000A84202D0564DA84213D14FF6F7752A4084
:10142000CD892A434FF6FB752A408D882A434FF613
:10143000FF652B404FF6FF552B400D8A2B434D8AFD
:101440002B43838004838D684563028470BD70B52F
:10145000002400220023058C4FF6EF7635400584EA
:10146000028C8388048B48F6FF752C404FF6FF45AD
:101470002C400D884FF6FF7606EA05252C434FF6E3
:10148000DF752A408D8906EA05152A434D8806EA4C
:1014900005152A43304DA84202D0354DA8421DD132
:1014A0004FF67F752A40CD894FF6FF7606EA05157F
:1014B0002A434FF6BF752A408D8806EA05152A4350
:1014C0004FF6FF352B404FF2FF752B400D8A06EA91
:1014D00085052B434D8A06EA85052B4383800483CB
:1014E0008D688563028470BD70B5002400220023DE
:1014F000058C4FF6FF6635400584028C8388848B0B
:101500004FF68F752C404FF6FC752C400D882C4300
:101510004FF6FF552A408D894FF6FF7606EA0525DE
:101520002A434D8806EA05252A430B4DA84202D0DE
:101530000F4DA84238D14FF2FF752A40CD894FF6A2
:10154000FF7606EA05252A434FF6FF352A408D88A7
:1015500006EA05252A4319E0000001400004004086
:1015600000080040000C0040001000400014004043
:101570000004014000400140004401400048014097
:1015800000180040001C0040002000404EF6FF758F
:101590002B404DF6FF752B400D8A06EA05152B43AF
:1015A0004D8A06EA05152B43838084838D68C563C5
:1015B000028470BD70B5002200230024058C4EF615
:1015C000FF7635400584038C8488828B48F6FF754E
:1015D0002A404FF6FF452A400D884FF6FF7606EA6F
:1015E00005252A434DF6FF752B408D8906EA053502
:1015F0002B434D8806EA05352B43FE4DA84202D009
:10160000FD4DA84208D14BF6FF752C400D8A4FF6D0
:10161000FF7606EA85152C43848082838D680564F5
:10162000038470BD002101804180818081608181BF
:10163000C18101824182704770B5034600200024B9
:101640001846183001258D40ACB21D8CA5431D8471
:1016500009B108290AD100EB610005684FF68F76C1
:10166000354005600568154305600FE00D1FC5F3A3
:101670004E052844056848F6FF7635400560056844
:101680004FF6FF7606EA02263543056070BD4163DA
:10169000704781637047C1637047016470470A46B1
:1016A0000021018B4FF68F7319401143018370475E
:1016B0000A460021018B48F6FF7319404FF6FF736D
:1016C00003EA02231943018370470A460021818BF4
:1016D0004FF68F7319401143818370470A460021EA
:1016E000818B48F6FF7319404FF6FF7303EA02231C
:1016F0001943818370470A460021018B4FF6F77327
:1017000019401143018370470A460021018B4FF2B3
:10171000FF7319404FF6FF7303EA02231943018355
:1017200070470A460021818B4FF6F7731940114329
:10173000818370470A460021818B4FF2FF73194065
:101740004FF6FF7303EA02231943818370470A4669
:101750000021018B4FF6FB73194011430183704741
:101760000A460021018B4FF6FF3319404FF6FF73F5
:1017700003EA02231943018370470A460021818B43
:101780004FF6FB7319401143818370470A460021CD
:10179000818B4FF6FF3319404FF6FF7303EA0223A4
:1017A0001943818370470A460021018B4FF67F73EE
:1017B00019401143018370470A460021018BC1F390
:1017C0000E014FF6FF7303EA0223194301837047AA
:1017D0000A460021818B4FF67F73194011438183A4
:1017E00070470A460021818BC1F30E014FF6FF734B
:1017F00003EA02231943818370470A460021018CC2
:101800004FF6FD7319401143018470470A460021C9
:10181000018C4FF6F77319401143018470470A4653
:101820000021018C4FF6DF7319404FF6FF7303EA76
:1018300002131943018470470A460021018C4FF6B8
:101840007F7319404FF6FF7303EA021319430184B3
:1018500070470A460021018C4FF6FF5319404FF69E
:10186000FF7303EA02231943018470470A460021EB
:10187000018C4FF2FF7319404FF6FF7303EA022306
:101880001943018470470A460021018C4DF6FF730D
:1018900019404FF6FF7303EA02331943018470477E
:1018A00030B5002301248C40A3B2048C9C430484F3
:1018B000048C02FA01F5ADB22C43048430BD30B57E
:1018C000002304248C40A3B2048C9C430484048C25
:1018D00002FA01F5ADB22C43048430BD828B4FF285
:1018E000FF331A408283828B4FF6FF7303EA012392
:1018F0001A4382837047F0B50C461546002100223A
:101900000026078C4EF6FF7C07EA0C070784818BC4
:10191000028C4FF6FF7707EA043640F6FF4739405E
:101920004FF6FF7707EA052739434FF6FF7707EAB7
:101930000337394345F6FF773A4046F480573A4338
:1019400081830284F0BD828B4FF6F3731A40828349
:10195000828B0A4382837047F0B50C4615460021FE
:1019600000220026078C4FF6FF6C07EA0C0707845D
:10197000818B028C4FF6FF7707EA04264FF60C772F
:1019800039404FF6FF7707EA03172F4339434FF2E9
:10199000FF573A4046F480773A4381830284F0BD92
:1019A000028B4FF2FF331A400283028B4FF6FF7314
:1019B00003EA01231A4302837047F0B50C4615462B
:1019C000002100220026078C4FF6EF7C07EA0C0767
:1019D0000784018B028C4FF6FF7707EA041640F666
:1019E000FF4739404FF6FF7707EA033739434FF691
:1019F000FF7703E0000001400004014007EA0527EB
:101A000039434FF65F773A4046F010073A43018377
:101A10000284F0BD028B4FF6F3731A400283028BEF
:101A20000A4302837047F0B50C4615460021002298
:101A3000068C4FF6FE773E400684018B028C4FF6F3
:101A40000C7631407E1C06EA03162E4331434FF6D6
:101A5000F576324044F00106324301830284F0BD42
:101A600070B505460C46208850B92389A288618844
:101A70002846FFF7D8FFE1882846FFF7CBFF25E08F
:101A8000208804280AD12389A28861882846FFF784
:101A900094FFE1882846FFF783FF17E02088082895
:101AA0000AD12389A28861882846FFF755FFE1887B
:101AB0002846FFF748FF09E02389A2886188284665
:101AC000FFF719FFE1882846FFF708FF70BD0021E6
:101AD00001804180012181800021C1800181704706
:101AE0002DE9F04105460C4600260127608808B91B
:101AF000022600E00026A088012801D1022700E08C
:101B000001272088A0B92389A28861882846FFF789
:101B10008AFFE1882846FFF77DFF23893A46314650
:101B20002846FFF74AFFE1882846FFF739FF13E010
:101B30002389A28861882846FFF73FFFE18828466D
:101B4000FFF72EFF23893A4631462846FFF76BFF01
:101B5000E1882846FFF75EFFBDE8F0810146486B4B
:101B600070470146886B70470146C86B7047014655
:101B7000086C70470A884B881A438B881A43CB88B5
:101B80001A430B891A434B891A438B891A43A0F8CD
:101B9000442070470021018041808180C180018103
:101BA00041818181704731B1B0F8442042F4004254
:101BB000A0F8442005E0B0F84420C2F30E02A0F8DB
:101BC0004420704721B1828842F00402828004E000
:101BD00082884FF6FB731A408280704721B1828859
:101BE00042F00102828004E082884FF6FE731A40C0
:101BF000828070471AB183890B43838102E0838915
:101C00008B43838170478182704702460020138A8C
:101C10000B4201D0012000E000207047CA4302823D
:101C2000704730B50246002000230024158A05EADB
:101C30000103958905EA010413B10CB1012000E00C
:101C4000002030BDCA430282704741EA0203A0F877
:101C5000483070471AB183890B43838102E083893E
:101C60008B438381704721B1828842F008028280D1
:101C700004E082884FF6F7731A408280704701892A
:101C80004FF6F8721140018170470A460021018920
:101C90004FF68F73194011430181704730B50446E8
:101CA0000D4629462046FFF7F0FF208940F0070047
:101CB000208130BD2DE9F04104460D4616461F46F1
:101CC000602D06D13B46012231462046FFF775FEC6
:101CD00005E03B46012231462046FFF7A4FE294697
:101CE0002046FFF7D2FF208940F007002081BDE8A1
:101CF000F08130B50C4600210189C9B24FF6FF755D
:101D000005EA0325154325432943018130BD2DE90B
:101D1000F04105460E4617469846002443463A468B
:101D200031462846FFF7E5FF2C894FF6F87004404E
:101D300044F007044FF68F70044044F070042C8187
:101D4000BDE8F081F0B504460D4616461F463B46F9
:101D5000324629462046FFF7CCFF208940F48040D8
:101D60002081F0BD82884FF68F731A40828082886E
:101D70000A438280704702894FF6F8731A40028145
:101D800002890A430281704702894FF67F731A4025
:101D9000028102890A4302817047F0B50C4615465C
:101DA0001E460021002200230189028B038C4FF67E
:101DB000F877394021434FF6FC473A4040F201178B
:101DC0003A434FF6DD773B404FF6FF7707EA0617B9
:101DD0002F433B43018102830384F0BD21B18288FC
:101DE00042F08002828004E082884FF67F731A40BE
:101DF00082807047A0F850107047000010B504466C
:101E0000F748844208D101211020FFF7CDF80021C6
:101E10001020FFF7C9F83EE0F248844209D10121C1
:101E20004804FFF7B0F800214FF40030FFF7ABF89B
:101E300031E0ED48844209D101218804FFF7A3F87D
:101E400000214FF48020FFF79EF824E0E748844209
:101E500009D10121C804FFF796F800214FF40020B2
:101E6000FFF791F817E0E248844209D10121080503
:101E7000FFF789F800214FF48010FFF784F80AE09B
:101E8000DC48844207D101212020FFF78DF8002192
:101E90002020FFF789F810BD2DE9FF4705460E46C3
:101EA0000024A14600BFA046B08900B100BF2C8A23
:101EB00024F44054F08804432C82AC8941F20C6035
:101EC0008443B08831890843718908430443AC8155
:101ED000AC8A24F44074B0890443AC826846FEF7AF
:101EE00022FFBF48854202D0C248854202D1DDF8B8
:101EF0000C9001E0DDF80890A88910F4004F08D09C
:101F000009EBC90000EB091031684900B0FBF1F79B
:101F100007E009EBC90000EB091031688900B0FB4C
:101F2000F1F76420B7FBF0F004012009642101FB04
:101F30001078A88910F4004F08D0322000EBC800B8
:101F4000B0FBF1F000F00700044308E0322000EBA2
:101F500008106421B0FBF1F000F00F0004432C8165
:101F6000BDE8FF874FF41651016000218180C180D8
:101F700001810C21418100218181704710B5024609
:101F80000020108A20F470600B884C8823438C88D2
:101F90002343CC8823431843108210BD00210180C5
:101FA00041808180C180704721B1828942F4005212
:101FB000828104E082894DF6FF731A408281704766
:101FC000028B02F47F420283028B0A430283704732
:101FD00021B1828942F40042828103E08289C2F306
:101FE0000E028281704721B1828A42F400628282AD
:101FF00004E0828A4FF2FF731A4082827047C1F375
:1020000008028280704701468888C0F30800704744
:10201000028A4FF6F0731A400282028A0A43028251
:10202000704721B1828942F00202828104E08289F4
:102030004FF6FD731A408281704782894FF2FF7319
:102040001A40828182890A4382817047028A4FF650
:10205000DF731A400282028A0A430282704721B16A
:10206000028A42F48042028204E0028A4BF6FF7345
:102070001A4002827047818941F0010181817047D5
:1020800021B1828A42F00802828204E0828A4FF6FD
:10209000F7731A4082827047028BD2B20283028B9E
:1020A00042EA01220283704721B1828A42F0200273
:1020B000828204E0828A4FF6DF731A408282704780
:1020C00021B1828A42F01002828204E0828A4FF6B5
:1020D000EF731A4082827047828A4FF6FB731A4070
:1020E0008282828A0A438282704721B1828A42F0C8
:1020F0000202828204E0828A4FF6FD731A408282D5
:1021000070471AB1838A0B43838202E0838A8B4330
:1021100083827047F0B50346002400260025002086
:10212000A1F510676A3F00D100BF1846C1F3421401
:1021300001F01F06012707FA06F5012C01D10C302A
:1021400004E0022C01D1103000E014301AB107680D
:102150002F43076002E00768AF430760F0BD024607
:102160000020B1F5007F00D100BF13880B4201D0E1
:10217000012000E00020704701F40072B2F5007FFA
:1021800000D100BFCA430280704770B502460024E8
:10219000002300250020A1F510666A3E00D100BF93
:1021A000C1F3421501F01F03012606FA03F3012DC6
:1021B00002D19689334006E0022D02D1168A3340BF
:1021C00001E0968A33400C12012606FA04F41688C0
:1021D000344013B10CB1012000E0002070BD0000BC
:1021E000001001400044004000480040004C004006
:1021F000005000400014014010B500220023A1F55A
:1022000010646A3C00D100BF0A1201249440A3B2BA
:10221000DC43048010BD000010B5A84890ED000A12
:10222000B5EEC00AF1EE10FA09D1A54890ED000A0A
:10223000B5EEC00AF1EE10FA01D101F00EF9A14895
:10224000007808B100F070FF9F48007808B101F0F5
:102250009FF89E48007808B101F004FD10BD30B52C
:102260002DED028B8DB09548006803F043FF41ECE3
:10227000100BB0EE408AF0EE608A00F0AEFE04462D
:1022800000F0B4FE05469248006892490968CDE91D
:102290000A108DED088B9048006890490968CDE9D7
:1022A0000354CDE905108E4800688E4909688E4AAE
:1022B0001268CDE9002102908C4803688C480268BE
:1022C0008C4801688C4801F099FF0DB0BDEC028B81
:1022D00030BD00F097F900F011FA00F079FA4FF4F0
:1022E000165000F03DFB00F052FD00F029FE00F01A
:1022F000A1FD00F08BFE4FF480518048FEF7E4FB17
:102300004FF400517D48FEF7DFFB4FF480417B48DE
:10231000FEF7DAFB4FF400417848FEF7D5FB402189
:102320007748FEF7D1FB80217548FEF7CDFB0421ED
:102330007448FEF7C9FB4FF480517148FEF7C4FBA7
:102340004FF480717048FEF7BFFB4FF400716C488A
:10235000FEF7BAFB4FF47A7000F09DF94FF4FA7172
:10236000C82000F0D0FD04E0FFF779FF0A2000F05C
:1023700092F9F9E74FF4FA71C82000F0C4FD4FF468
:102380007A7000F088F900205349086008E000F0F6
:10239000CBFE01F0E8F8FFF762FF0A2000F07BF9BE
:1023A000F5E74FF4FA71C82000F0ADFD4FF47A70F4
:1023B00000F071F933E0012001F017FDFA2000F080
:1023C0006AF99FED520A01F049F9FA2000F063F929
:1023D000012001F00AFDFA2000F05DF99FED4B0AA3
:1023E00001F03CF9FA2000F056F9012001F0FDFC63
:1023F000FA2000F050F99FED450A01F02FF9FA207C
:1024000000F049F9012001F0F0FCFA2000F043F956
:102410009FED3E0A01F022F9FA2000F03CF9CAE7EC
:102420004FF4FA71C82000F06EFD4FF47A7000F09E
:1024300032F933E0012001F0D8FCFA2000F02BF94A
:102440009FED330A01F00AF9FA2000F024F9012087
:1024500001F0CBFCFA2000F01EF99FED2D0A01F0EF
:10246000FDF8FA2000F017F9012001F0BEFCFA2077
:1024700000F011F99FED260A01F0F0F8FA2000F0C3
:102480000AF9012001F0B1FCFA2000F004F99FEDF7
:10249000200A01F0E3F8FA2000F0FDF8CAE710B5D1
:1024A0004FF4FA71C82000F02EFD4FF47A7000F05E
:1024B000F2F80A201749086010BD0000B0000020A3
:1024C000B400002028000020290000202B0000205C
:1024D000400100203C010020AC00002088000020CA
:1024E0009000002098000020A00000209C00002008
:1024F000940000208C000020F061000800040240DD
:1025000000080240000C0240000002400000B542FA
:10251000CDCCB3C2B8000020704700BFFEE700BFBB
:10252000FEE700BFFEE700BFFEE770477047704759
:1025300010B529480068401C2749086027480068F2
:10254000002802DA00202649086024480068401E5E
:1025500022490860FFF760FE10BD10B52020FEF78D
:10256000B5F940B14FF4967000F095F8FFF702FF0F
:102570002020FEF7BCF94FF48070FEF7A7F948B1B0
:102580004FF4967000F087F8FFF789FF4FF48070E2
:10259000FEF7ADF910BD10B54FF40060FEF796F9E7
:1025A00048B14FF4967000F076F8FFF7FAFE4FF45A
:1025B0000060FEF79CF94FF48050FEF787F948B1B0
:1025C0004FF4967000F067F8FFF72AFF4FF4805041
:1025D000FEF78DF910BD0000680000207C0000208F
:1025E0003404004010B5002807DA0A07140E3E4AEA
:1025F00000F00F031B1FD45403E00A07130E3B4ADD
:10260000135410BD10B501F05EFD01F088FD38488F
:1026100000684FF47A71B0FBF1F4601EB0F1807F76
:1026200001D301200FE0601E4FF0E02148610F212F
:102630004FF0FF30FFF7D6FF00204FF0E021886118
:1026400007200861002008B100BFFEE74FF440708A
:10265000FDF726FE0021481EFFF7C4FF0020254994
:10266000086010BD4FF0E0208069A821B0FBF1F0B8
:102670002049096801EB4102C2EBC1114FF47A72A3
:1026800002EBC101081A1C4908600846006870473F
:10269000184800687047174A116800BF154A126849
:1026A000521A821AFAD1704710B50346FFF7DAFFC3
:1026B000044600BFFFF7D6FF001B181AFAD110BD61
:1026C00010B503460C4600BFFFF7CCFF001B984235
:1026D000FAD310BD00B5024600BFFFF7D9FF401A7C
:1026E0009042FAD300BD000018ED00E000E400E0E5
:1026F0005001002068000020640000201CB501216A
:102700000846FEF7A5FB01210220FEF7A1FB0121EF
:102710000420FEF79DFB01210820FEF799FB4FF4F2
:102720008070009001208DF8040000208DF80600D4
:1027300003208DF8050000208DF807006946204829
:10274000FEF74CF94FF49050009069461D48FEF793
:1027500045F90420009069461B48FEF73FF94FF405
:102760007040009002208DF8070069461748FEF778
:1027700035F9C020009002208DF807006946114805
:10278000FEF72CF940210F48FEF79EF980210D48F5
:10279000FEF79AF94FF480510C48FEF795F94FF483
:1027A00000510A48FEF790F94FF480410748FEF7C0
:1027B0008BF94FF400410548FEF786F91CBD000077
:1027C0000000024000080240000C024000040240E9
:1027D00000B585B001218803FEF77EFB01210720AB
:1027E000FEF736FB00208DF808008DF80B00202046
:1027F000019001A95748FEF7F1F805210120FEF7E5
:1028000073FC2020039000208DF8100008208DF824
:10281000110001208DF8120003A8FDF7F1FF172029
:102820008DF8000001208DF8010000208DF80200D5
:1028300001208DF803006846FDF737FD00208DF874
:1028400008008DF80B004FF40060019001A9424888
:10285000FEF7C4F80B210020FEF746FC4FF40060A1
:10286000039000208DF8100008208DF81100012041
:102870008DF8120003A8FDF7C3FF28208DF8000093
:1028800001208DF8010000208DF8020001208DF854
:1028900003006846FDF709FD00208DF808008DF85B
:1028A0000B004FF48050019001A92B48FEF796F8D9
:1028B0000C210020FEF718FC4FF4805003900020FC
:1028C0008DF8100008208DF8110001208DF81200FD
:1028D00003A8FDF795FF28208DF8000001208DF852
:1028E000010000208DF8020001208DF803006846E9
:1028F000FDF7DBFC00208DF808008DF80B004FF48D
:102900008070019001A91548FEF768F8082102209F
:10291000FEF7EAFB4FF48070039000208DF8100062
:1029200008208DF8110001208DF8120003A8FDF792
:1029300067FF17208DF8000001208DF801000020AE
:102940008DF8020001208DF803006846FDF7ADFC0C
:1029500005B000BD00040240000002400008024033
:1029600010B588B0044601210220FEF771FA01215A
:102970001020FEF7B1FA072209217C48FEF7B1F8D2
:1029800007220A217948FEF7ACF800208DF81E00D6
:1029900001208DF81F0002208DF81C004FF4C0604C
:1029A000069002208DF81D0006A97048FEF716F863
:1029B00001216F48FFF70CFB02940020ADF80C00DA
:1029C000ADF80E00ADF81000ADF814000C20ADF815
:1029D00012000020ADF800004FF48060ADF8020056
:1029E0000020ADF80600ADF8040002A96048FFF72A
:1029F00053FA69465E48FFF7C1FA01215C48FFF7C8
:102A0000D3FA08B010BD014600BF0020704770B572
:102A100004460D46E1B25648FFF7F1FA00BF8021A7
:102A20005348FFF79CFB0028F9D0204670BD0146B3
:102A300000BF4F4A128812F0200FFAD04C4A9288F9
:102A4000C2F30800704710B5044600BF8021484813
:102A5000FFF785FB0028F9D0A1B24548FFF7CFFA70
:102A6000204610BD10B543A001F0C8FB00BF2021D7
:102A70003F48FFF774FB0028F9D03D48FFF7C3FA41
:102A8000C0B210BD10B544A001F0B8FB00BF2021BA
:102A90003748FFF764FB0028F9D03548FFF7B3FA51
:102AA0000446214644A001F0A9FB3148FFF7ABFAE8
:102AB000C0B210BD10B542A001F0A0FB00BF2021A4
:102AC0002B48FFF74CFB0028F9D02948FFF79BFA69
:102AD000A0F13004214641A001F090FB2448FFF70B
:102AE00092FA303810BD10B586B0044621463DA09C
:102AF00001F084FB01A942A001F0A2FC01A941A0C0
:102B000001F07CFB0BE0214640A001F077FB01A91E
:102B10003BA001F095FC01A93AA001F06FFB214612
:102B200001A801F0B3FD0028EDD106B010BD38B505
:102B30000446214640A001F061FB694645A001F032
:102B40007FFC26A0009901F059FB0BE0214642A032
:102B500001F054FB69463FA001F072FC1FA00099F0
:102B600001F04CFB0098A042F0D138BD00000240BB
:102B7000001001400D0A707265737320616E792038
:102B80006B657920746F20636F6E74696E75652E46
:102B90002E2E0D0A0D0A0000706C656173652065AC
:102BA0006E7465722061206368617261637465721E
:102BB0002E2E2E0D0A00000025630D0A00000000D5
:102BC000706C6561736520656E7465722061206448
:102BD000696769742E2E2E0D0A00000025640D0A07
:102BE00000000000507265737320257320746F20FD
:102BF000436F6E74696E75652E2E2E203A000000AC
:102C00002573000025730D0A00000000496E7661EF
:102C10006C696420696E7075742C207072657373B2
:102C200020257320746F20436F6E74696E75652E56
:102C30002E2E203A00000000507265737320256428
:102C400020746F20436F6E74696E75652E2E2E2072
:102C50003A00000025640000496E76616C696420CA
:102C6000696E7075742C20707265737320256420F2
:102C7000746F20436F6E74696E75652E2E2E203A28
:102C8000000000001CB501210420FEF714F94FF4E8
:102C90007070009002208DF8040003208DF805006C
:102CA00000208DF806008DF8070069465A48FDF7A8
:102CB00095FE022206215848FDF713FF0222072144
:102CC0005548FDF70EFF022208215348FDF709FF82
:102CD000022209215048FDF704FF1CBD00B589B050
:102CE00040F2E73007900320ADF818000020ADF85F
:102CF0002000ADF81A0006A94848FEF7DAFA60206D
:102D0000ADF804000120ADF80600454800880390A6
:102D10000020ADF8100001A94048FEF75FFB082134
:102D20003E48FEF7E8FC0120ADF806003D4800886B
:102D3000039001A93948FEF78AFB08213748FEF7BE
:102D4000E3FC0120ADF8060037480088039001A994
:102D50003248FEF7C9FB08213048FEF7E2FC0120AB
:102D6000ADF8060031480088039001A92B48FEF712
:102D700021FC08212948FEF7DDFC01212748FEF748
:102D800003FB01212548FEF71DFB09B000BD10B56E
:102D9000FFF778FFFFF7A2FF10BD254909688842B9
:102DA00001DD23490868224909684942884202DA5C
:102DB0001F4909684842002807DB18493431086078
:102DC0000021164A3832116006E00021134A3432DD
:102DD00011604142121D116070471549096888420F
:102DE00001DD13490868124909684942884202DA3C
:102DF0000F4909684842002806DB0021074A3C3297
:102E00001160111D086006E04142044A3C32116025
:102E10000021121D116070470004024000080040AC
:102E20007400002076000020780000207A00002046
:102E30001000002000B58BB001210220FEF73BF806
:102E40004020099002208DF8280003208DF82900E9
:102E500000208DF82A0002208DF82B0009A93448A3
:102E6000FDF7BCFD022206213148FDF73AFE952010
:102E700007908B20ADF818000020ADF82000ADF8C9
:102E80001A0006A92B48FEF714FA6020ADF80400DA
:102E90000120ADF8060000200390ADF8100001A954
:102EA0002448FEF79BFA08212248FEF724FC012162
:102EB0002048FEF769FA01211E48FEF783FA0BB09D
:102EC00000BD70B504468C2060431B490860952006
:102ED00018492C310860002512E016482C30006893
:102EE000401CC0081349343108604620FFF7D3FB6B
:102EF00000201049343108604620FFF7CCFB6D1CE0
:102F0000A542EADB70BD0B4A2C321268521C9208B3
:102F1000084B34331A60094A92FBF1F28C2392FB7E
:102F2000F3F2521E034B2C331A60034A10607047B1
:102F300000000240000400407C00002000BD0105AC
:102F40001CB501210920FDF7B6FF02208DF8040011
:102F500001208DF8070048F20300009069462848D8
:102F6000FDF73CFD0820009069462648FDF736FD38
:102F7000022200212248FDF7B4FD0222012120484F
:102F8000FDF7AFFD01220F211D48FDF7AAFD01222B
:102F900003211C48FDF7A5FD4FF0FF311A48FEF74D
:102FA000D3F94FF0FF314FF08040FEF7CDF9022307
:102FB000002203211448FEF7F0FE00231A460321E5
:102FC0004FF08040FEF7E9FE01210F48FEF7FAF9C5
:102FD00001218807FEF7F6F91CBD0B482430006874
:102FE0007047002008492431086070474FF0804046
:102FF000406A704700204FF08041486270470000EF
:103000000000024000040240000C004000B58DB0FA
:1030100001210802FDF760FFBC20019003208DF81C
:10302000080000208DF80B0001A93B48FDF7D6FCF5
:10303000032001908DF8080000208DF80B0001A9F5
:103040003648FDF7CBFC3020019003208DF80800B6
:1030500000208DF80B0001A93148FDF7BFFC0020CE
:1030600003904FF480300490002005904FF470607E
:10307000069003A8FDF7C0F9002007908DF8200006
:103080008DF821000A900B9001208DF8300007A9DF
:103090002448FDF782F9012240F205212148FDF77D
:1030A0005EFB01211F48FDF7C3F94FF480511B4817
:1030B000FDF70AFD4FF400511848FDF705FD4FF4E8
:1030C00080411648FDF700FD4FF400411348FDF71D
:1030D000FBFC40211248FDF7F7FC80211048FDF76A
:1030E000F3FC0DB000BD70B505460E4614462346F0
:1030F000012231462846FDF7DBF92846FDF734FA70
:1031000000BF02212846FDF73AFB0028F9D02846E7
:10311000FDF766FA70BD00000000024000040240A6
:10312000000802400020014010B504220921EE48A9
:10313000FFF7D9FFED49086004220521EA48FFF7AF
:10314000D2FFEB49086004220821E748FFF7CBFFD4
:10315000E849086004220721E348FFF7C4FFE64975
:10316000086004220F21E048FFF7BDFFE349086033
:1031700004220E21DC48FFF7B6FFE1490860FFF7A3
:1031800071FA04464FF48051DE48FDF79BFC802124
:10319000DD48FDF797FC21463C20FFF791FA042219
:1031A0000921D148FFF79FFFD0490968401ACF494C
:1031B000086004220521CC48FFF795FFCC49096837
:1031C000401ACB4908604FF48051CE48FDF77CFC93
:1031D0008021CD48FDF778FCC4480068002802DA59
:1031E0000020C2490860C2480068002802DA0020B6
:1031F000BF4908602146C820FFF762FA4FF400512A
:10320000C048FDF75FFC4021BF48FDF75BFC21464D
:103210004FF4AA70FFF754FA04220821B248FFF7CE
:1032200062FFB4490968401AB249086004220721C4
:10323000AD48FFF758FFB0490968401AAE49086029
:103240004FF40051AF48FDF73FFC4021AE48FDF779
:103250003BFCA8480068002802DA0020A549086065
:10326000A5480068002802DA0020A34908609F48AA
:103270000068A649096848434FF47A7190FBF1F061
:103280009A4908609A480068A049096848434FF481
:103290007A7190FBF1F096490860964800689B4966
:1032A000096848434FF47A7190FBF1F09149086046
:1032B000914800689549096848434FF47A7190FB3A
:1032C000F1F08D49086010BD10B5FFF7CBF9044649
:1032D00004220F218448FFF706FF88490860042272
:1032E0000E218148FFF7FFFE854908604FF48041B9
:1032F0008448FDF7E7FB4FF400418248FDF7E2FB0D
:1033000021464FF4AA70FFF7DBF904220F2176481B
:10331000FFF7E9FE79490968401A784908600422F4
:103320000E217148FFF7DFFE75490968401A74499C
:1033300008604FF480417348FDF7C6FB4FF400412D
:103340007048FDF7C1FB6D480068002802DA0020D4
:103350006A4908606A480068002802DA0020684963
:103360000860664800686949096848434FF47A7103
:1033700090FBF1F0614908606148006863490968A1
:1033800048434FF47A7190FBF1F05D49086010BD3D
:1033900070B5282500205E49086000240AE0042258
:1033A00011465148FFF79FFE59490968084458499A
:1033B0000860641CAC42F2DB4CF2503090FBF5F03C
:1033C0005349096848435249086008460068514912
:1033D000401A4F490860084600684CF2503190FB93
:1033E000F1F04B4908600868C11700EB5171C91032
:1033F000474A116048480068114609680844464930
:10340000086070BD10B52DED048B042203213648F1
:10341000FFF769FE414908600846006802F055FD63
:1034200041EC100BB0EE409AF0EE609A9FED3C0B31
:1034300053EC102B51EC190B02F0C0FB41EC100BBC
:10344000B0EE408AF0EE608A51EC180B02F00EFDEF
:1034500035490860BDEC048B10BD10B5FFF7D2FFF5
:103460003148006841F6583188423BDA0020FFF7C6
:1034700094FC0020FFF7B1FC04212C48FDF724FB4D
:103480004FF480512048FDF71FFB4FF4807128480E
:10349000FDF71AFB4FF400711B48FDF715FB4FF4C5
:1034A00080511848FDF710FB4FF400511548FDF707
:1034B0000BFB4FF480411348FDF706FB4FF400412E
:1034C0001048FDF701FB40210F48FDF7FDFA802170
:1034D0000D48FDF7F9FA04E04FF47A71C820FFF7C0
:1034E00012FDF9E710BD0000002001408C00002013
:1034F0009000002094000020980000209C000020F4
:10350000A0000020000402400008024080000020CB
:10351000A8000020F8EC9205AC00002084000020F8
:10352000AC1C5A643BDFD33F88000020000C0240F3
:103530000000024004460D4614E0FFF793F80646EB
:10354000FFF7F2FD3A490968601AFFF726FC39498E
:103550000968681AFFF741FC31464FF47A70FFF7AB
:10356000AFF800BFE9E710B5314800683249096893
:10357000884205DD4FF480513048FDF7A3FA04E09E
:103580004FF480512D48FDF79FFA2D4800682D49D2
:103590000968884204DD04212B48FDF793FA03E013
:1035A00004212948FDF790FA28480068284909684D
:1035B000884205DD4FF400712048FDF783FA04E0EE
:1035C0004FF400711D48FDF77FFA1A480068214941
:1035D0000968884205DD4FF480711F48FDF772FAD3
:1035E00004E04FF480711C48FDF76EFA10BD70B511
:1035F00005460C46FFF7FEFCFFF7F3FC2846FFF7F5
:10360000CCFB2846FFF7E9FB2046FFF744F80020F3
:10361000FFF7C3FB0020FFF7E0FB6420FFF73BF858
:10362000FFF7DBFC0646FFF7E1FC301A70BD000037
:103630008C000020900000203C0000200008024088
:103640009400002044000020000C0240980000205C
:1036500048000020400000200000024010B52DED81
:103660000E8BB0EE408A00F04AFB00203F49087004
:103670000EE0B5EEC08AF1EE10FA04D23C480068C4
:103680003C49086004E03A48006840423949086013
:10369000394890ED000AB8EEC00A00F099FBF0EE50
:1036A000408A364890ED000AB8EEC00A00F090FB60
:1036B00038EE80EAB0EE480A00F08AFB10EE104ABD
:1036C000204602F017FD41EC100BB0EE40BAF0EED0
:1036D00060BA2B48006802F00DFD41EC100BB0EE13
:1036E00040DAF0EE60DA9FED270B53EC102B51EC33
:1036F0001D0B02F001FC41EC100BB0EE40CAF0EEE5
:1037000060CA53EC1B2B51EC1C0B02F0F5FB41EC97
:10371000100BB0EE40AAF0EE60AA9FED1C0B53EC2C
:10372000102B51EC1A0B02F049FA41EC100BB0EEE1
:10373000409AF0EE609A51EC190B02F00DFA08EE87
:10374000900AB0EE680A00F02AFBB4EEC0EAF1EE8F
:1037500010FA8ED30020074908600E4800680E4911
:10376000086000F0CCFABDEC0E8B10BD29000020E3
:1037700038000020BC00002020010020240100208F
:10378000200000201F85EB51B81E094000000000FA
:10379000008066404001002044010020FE4800688F
:1037A000FE49096888420DDDFD480068FD49096849
:1037B000884207DAF9480068F7490968401AFA4967
:1037C000086016E0F6480068F649096888420DDD91
:1037D000F1480068F1490968884207DAF048006852
:1037E000F0490968401AF049086002E00020EE49FB
:1037F0000860704770B52DED028B0024002008EEA4
:10380000100A0025E9480068E94909680844E949BF
:103810000860E6480068E6490968401AE649086019
:10382000E6480068E649096890FBF1F4E54800784D
:1038300010B108EE104A0CE0E348007820B1DE48F1
:10384000006808EE100A04E0DB480068204408EE37
:10385000100ADE48D0ED000AD64890ED000AB8EE16
:10386000C00A30EEC00ADA48D0ED000A30EE200A75
:1038700080ED000AD74890ED000AF8EEC80A30EE55
:10388000600AD548D0ED000A30EE200A80ED000A2B
:10389000D24890ED000ACE48D0ED000A20EE200A72
:1038A000D0ED000ACE4890ED001A70EEC10ACD4866
:1038B00090ED001A01EE200ABDEEC00ACA4880ED64
:1038C000000ACA4890ED000AC348D0ED000A20EE75
:1038D000200AD0ED000AC64890ED001A70EEC10A29
:1038E000C44890ED001A01EE200ABDEEC00AC2489D
:1038F00080ED000AB64890ED000AB94880ED000A54
:10390000B54890ED000ABA4880ED000AB648006854
:10391000B9490968401AB9490860B3480068B6490E
:1039200009680844B6490860B648007878B1FFF7DE
:1039300035FFB24800689C4909680844AF490860EF
:10394000AF48006898490968401AAD490860AB481B
:103950000068FFF722FAAA480068FFF73EFABDECBC
:10396000028B70BDF0EE400AA74890ED000AB8EE59
:10397000C00A20EE801AA54890ED000AB8EEC00AF1
:1039800021EE000AA248D0ED001A80EE211ADFEDE8
:10399000A11A81EE210A704700B58C48D0ED000ACB
:1039A0009D4890ED000AB8EEC00AF4EEC00AF1EEB0
:1039B00010FA29D29948D0ED000AB0EE001A60EE54
:1039C000810AB0EE600AFFF7CDFFDFED920A80EECC
:1039D000201A7E4890ED000A31EE000A80ED000AC0
:1039E000D0ED000A8C4890ED000AB8EEC00AF4EE63
:1039F000C00AF1EE10FA3DDD90ED000AB8EEC00A03
:103A0000724880ED000A35E07048D0ED000A824827
:103A100090ED000AB8EEC00AF4EEC00AF1EE10FA1A
:103A200028DD7F48D0ED000AB0EE001A60EE810A72
:103A3000B0EE600AFFF796FFDFED760A80EE201AFF
:103A4000624890ED000A30EE410A80ED000AD0EDA8
:103A5000000A714890ED000AB8EEC00AF4EEC00A00
:103A6000F1EE10FA06D290ED000AB8EEC00A5748FF
:103A700080ED000A5748D0ED000A6A4890ED000A30
:103A8000B8EEC00AF4EEC00AF1EE10FA1ED25148A8
:103A900090ED000A6448D0ED000A30EE200A4D484F
:103AA00080ED000AD0ED000A5E4890ED000AB8EE05
:103AB000C00AF4EEC00AF1EE10FA32DD90ED000A11
:103AC000B8EEC00A434880ED000A2AE04148D0ED34
:103AD000000A544890ED000AB8EEC00AF4EEC00A9D
:103AE000F1EE10FA1DDD3B4890ED000A4F48D0ED95
:103AF000000A30EE600A374880ED000AD0ED000A77
:103B0000484890ED000AB8EEC00AF4EEC00AF1EEA3
:103B100010FA06D290ED000AB8EEC00A2D4880EDEA
:103B2000000A00BD10B5FFF761FA41490860FFF7D0
:103B300054FA404908603E4800683F490968401A05
:103B40001B4908603B4800683C490968401A17490E
:103B5000086017490968154A1268881800EBD07187
:103B60004910374A116032480068334908603148CB
:103B70000068324908602E4800680D490968084409
:103B80002B4908602B4800680849096808442949FE
:103B900008602749096855E0940000204C00002087
:103BA000980000205000002048010020340100202F
:103BB00030010020C0000020C4000020A800002028
:103BC0004C0100202C0000202D000020B00000201F
:103BD000D0000020B4000020D4000020E800002025
:103BE000D8000020EC000020E0000020F0000020C1
:103BF000DC000020F4000020E40000201801002078
:103C00001C010020280000201400002018000020C3
:103C10001C0000200000C842B8000020080100205D
:103C20000C010020BC000020100100201401002025
:103C30002001002024010020280100202C01002068
:103C400038010020964A1268881800EBD07149109C
:103C5000944A11609448006894490968401A92494E
:103C6000086010BD10B5FFF75DFFFFF795FEFFF789
:103C7000C1FD10BDF0EE400A8D4890ED000A60EEE7
:103C8000801A8C4890ED000AB8EEC00A81EE801AC6
:103C9000894890ED000AF8EEC01A81EE210A7047BB
:103CA00030B50346002901DA484201B2002A01DAA0
:103CB000504202B2002B00DA012303B9012300EEC7
:103CC000103AB8EEC00AFFF7D5FF11FB01F002FB76
:103CD00012006425684300EE900AB8EEE01AC1EEC7
:103CE000000AB1EE000A80EE801ABDEEC10A10EEA5
:103CF000104A002C01DA604230BD2046FCE710B5C6
:103D000000206E4908706E4908706E490870FFF710
:103D100044F80020FFF761F89FED6B0A6B4880EDD7
:103D2000000A9FED690A6A4880ED000A9FED660A65
:103D3000684880ED000A9FED640A674880ED000A3C
:103D4000002066490860664908609FED5F0A654883
:103D500080ED000A9FED5C0A634880ED000A9FED4C
:103D60005A0A624880ED000A9FED570A604880EDCC
:103D7000000A00205F4908605F4908605F490860E9
:103D800047490860474908605D4908605D49086027
:103D90005D490860FFF72EF9FFF723F910BDF0EE3B
:103DA000400A444890ED000AB8EEC00A20EE801A9E
:103DB000414890ED000AB8EEC00A21EE001A3C48D6
:103DC000D0ED001A81EE210A70479FED3F0A70473F
:103DD000F0EE400AF5EEC00AF1EE10FA02D2B1EEB2
:103DE000600A7047B0EE600AFBE770B50446002039
:103DF00032490870324908700120324908700020A9
:103E00003749086041480068344908604048006804
:103E100060432549086030E03C4890ED000AB8EE68
:103E2000C00AFFF79FFDBDEEC00A10EE100A05B2F2
:103E3000284890ED000AFFF795FDBDEEC00A10EE90
:103E4000100A06B22A46314617480068FFF728FFD5
:103E500000EE100AB8EEC00A2E48D0ED000AB4EE0B
:103E6000E00AF1EE10FA04D22B4800681B49086002
:103E700003E026480068194908600A48006820499C
:103E80000968411A2248006860438142C4DB1F4828
:103E9000006812490860034800681949086070BD4D
:103EA00024010020400100203C01002038010020B6
:103EB0001C00002014000020180000202800002012
:103EC000290000202A00002000000000C800002077
:103ED000CC000020B0000020B4000020B80000207A
:103EE000BC000020D0000020D4000020D80000201A
:103EF000DC000020280100202C01002020010020EF
:103F000044010020180100201C0100203000002086
:103F1000240000200C0100203400002009488047C4
:103F200009480047FEE7FEE7FEE7FEE7FEE7FEE79B
:103F3000FEE7FEE7FEE7FEE704480549054A064BB3
:103F400070470000C740000889010008C801002030
:103F5000C8070020C8030020C8030020002100205B
:103F60009A4A126842F48032984B1A6000BF974A0E
:103F7000126802F40030491C10B9B1F5A06FF6D1F7
:103F8000924A126812F4003F01D0012000E00020A4
:103F9000012846D18D4A4032126842F080528B4B44
:103FA00040331A608A4A126842F48042884B1A6091
:103FB000864A08321268854B08331A601A4612681E
:103FC00042F400421A601A46126842F4A0521A6083
:103FD000804A1B1F1A601A1F126842F080721B1F52
:103FE0001A6000BF794A126812F0007FFAD040F2DE
:103FF0000562794B1A60754A0832126822F0030292
:10400000724B08331A601A46126842F002021A60B4
:1040100000BF6E4A0832126802F00C02082AF8D17A
:1040200050E06A4A12686D4B1A40684B1A601A4693
:10403000126842F001021A60644A4032126842F08B
:104040008052624B40331A60614A126842F48042E7
:104050005F4B1A605D4A083212685C4B08331A6085
:104060001A46126842F400421A601A46126842F474
:10407000A0521A60574A1B1F1A601A1F126842F09A
:1040800080721B1F1A6000BF504A126812F0007F36
:10409000FAD040F20562504B1A604C4A083212685E
:1040A00022F00302494B08331A601A46126842F0A4
:1040B00002021A6000BF454A0832126802F00C0280
:1040C000082AF8D1704710B54548006840F47000E0
:1040D000434908603D48006840F001003B490860E2
:1040E00000203A4908310860384800683B490840D8
:1040F000364908603B48091D0860081F006820F425
:104100008020091F0860002030490C310860FFF74B
:1041100025FF4FF0006032498039086010BD70B54E
:1041200000200022022300240221284D08352D689A
:1041300005F00C0020B1042806D0082834D107E08F
:10414000294D2A4E356033E0294D284E35602FE049
:104150001E4D2D1D2D68C5F380541C4D2D1D2D6841
:1041600005F03F0154B1224DB5FBF1F5174E361D58
:104170003668C6F3881605FB06F209E01A4DB5FB52
:10418000F1F5124E361D3668C6F3881605FB06F2A9
:104190000E4D2D1D2D68C5F301456D1C6B00B2FB46
:1041A000F3F5124E356003E00F4D104E356000BF41
:1041B00000BF064D08352D68C5F303150D4E705D23
:1041C0000A4D2D68C540094E356070BD003802406B
:1041D0000070004010540007003C0240FFFFF6FE54
:1041E00088ED00E0103000240024F400500100208D
:1041F00000127A0054010020704700000FB40449F7
:1042000010B503AA029800F007FD10BC5DF814FB7E
:104210006C00002070B5044685690068C10601D5B0
:10422000302600E02026C00708D070BDD4E9012167
:1042300030469047206A00F1010020626D1EF5D5DE
:1042400070BD70B5044685690078C00708D170BD9F
:10425000D4E9012120209047206A00F1010020626A
:104260006D1EF5D570BD70B50C460546012A05D00A
:104270002878800600D5EA69002302E0012305E0E2
:104280005B1C934202D2E05C0028F9D1A869E618D1
:10429000C01AA861286A184428622846FFF7BAFFA6
:1042A00004E0D5E9012114F8010B9047B442F8D39A
:1042B0002846FFF7C6FF70BD2DE9F04106460024F1
:1042C00010687529314616A511D0AFF3008000287B
:1042D00003DAC0F1000013A507E031688A0701D5B1
:1042E00011A502E0490704D510A5012401E0AFF3B0
:1042F000008000210A2306F1240707E0B0FBF3F257
:1043000003FB1200303078541046491C0028F5D1C8
:1043100023462A463046BDE8F04100F0FBB90000D4
:10432000000000002D0000002B0000002000000015
:104330002DE9F0474FF0000A89460446C0F820A056
:104340002046E1688847002876D0252806D0D4E9A1
:1043500001219047206A401C2062F1E7E168204675
:1043600000258847C4F81CA006460027C4F818A0FA
:104370002A2E09D0304601F0BCFB38B304EB870885
:10438000303EC8F8186019E059F8041B204604EBC9
:1043900087029161E1688847012F064618D1E069DC
:1043A000002820DA25F020051DE0D8F8180000EBE1
:1043B000800006EB40003038C8F818002046E1685D
:1043C0008847064601F095FB0028EED1012F0AD060
:1043D0002E2E08D12046E16888477F1C0646022F12
:1043E00045F02005C4DBA069002803DA404245F00F
:1043F0000105A061E80701D025F01005B6B1A6F1CE
:104400004100192802D8203645F400654A46314655
:10441000204625604D46FBF711FF58B1012806D014
:10442000ED1D25F0070000F1080989E704E005F11A
:10443000040985E730468AE7206ABDE8F087000076
:104440000FB400B589B00BA86A46009003480A99DA
:1044500000F002FC09B05DF814FB000070000020C1
:104460002DE9FF5F1D464FF0FF3B91464FF00008DE
:104470005F46D5E90146A96901987F1C8847296AEA
:10448000824688470028F6D11AF101000CD0002E90
:1044900024F4C06419DD600614D5BAF12B0F09D0DD
:1044A000BAF12D0F0ED103E0584604B0BDE8F09FDD
:1044B00044F48064A96901987F1C8847761E82466F
:1044C000002E02DDBAF1300F03D0B9F1000F26D073
:1044D00032E0A969761E01987F1C44F40074884775
:1044E000002E824605DDBAF1780F06D0BAF1580FDA
:1044F00003D0B9F1000F10D01EE0B9F1000F02D0C7
:10450000B9F1100F18D1A969761E01987F1C24F407
:10451000007488478246102002E0082000E00A204C
:10452000814609E0A96908FB0908761E01987F1CED
:1045300044F4007488478246002E05DD4946504603
:1045400000F07CFB0028EDDAE96901988847A005B6
:1045500002D46FF00100A8E7E00727D1600614D568
:10456000600502D5C8F1000000E04046296801F16D
:1045700004022A600968220501D5087016E02207A6
:1045800001D5088012E0086010E0286800F10401FD
:1045900029600068210502D580F8008006E0210727
:1045A00002D5A0F8008001E0C0F8008038467CE722
:1045B0002DE9FF5F4FF00008994614464646916981
:1045C000D2E901A7DDF838B001988847054659EAD5
:1045D0000B0005D009E0A1690198761C88470546C3
:1045E000216A284688470028F5D1681C03D05FEA75
:1045F000CA7005D015E04FF0FF3004B0BDE8F09F61
:104600002068011D2160D0F800800AE05FEACA70CE
:1046100001D108F8015BA1697F1E0198761C8847CB
:104620000546002F1ADD681C18D0B9F1000F0DD017
:10463000E81705EBD060421120F01F0059F8221056
:104640002A1A012090400142E0D107E0BBF1000F9F
:10465000DCD12846216A88470028D7D0E169019833
:1046600088470AF0010050EA0B0002D1002188F8C7
:104670000010A068B84203DDBBF1000F03D017B1F2
:104680006FF00100B9E73046B7E700004FF0013C9A
:1046900050F8042B51F8043B9A4221D1A2EB0C03B1
:1046A000934313EACC1317D150F8042B51F8043B71
:1046B0009A4215D1A2EB0C03934313EACC130BD10E
:1046C00050F8042B51F8043B9A4209D1A2EB0C0399
:1046D000934313EACC13DBD04FF00000704700BFC8
:1046E000D01A01BAB1FA81F101F0180122FA01F0F1
:1046F000CB40C1F12001DBB2C0B2C01A2CFA01F3E9
:10470000D11A914311EAC311E6D17047704770473F
:10471000704770472DE9F0470D469946924604468A
:1047200000F124080168880604D5E06921F0100131
:10473000216000E00120A84202DDA0EB050700E0B7
:104740000027A16907EB050202EB0900A1EB0000BD
:10475000A0612078C00602D42046FFF75BFD00264A
:1047600008E0D4E901211AF806009047206A401CAD
:10477000761C20624E45F4DB2078C0060AD5204620
:10478000FFF748FD06E0D4E9012130209047206A78
:10479000401C2062381EA7F10107F4DC07E0D4E9D1
:1047A000012118F805009047206A401C2062281E4D
:1047B000A5F10105F3DC2046FFF743FD2078000654
:1047C00002D50220BDE8F0870120FBE770472DE904
:1047D000FF4F0C461E464FF0FF378BB0D2E9000169
:1047E000DDF860800A908A46C1F30A5505B93D4656
:1047F000002108464FF00000BAF1000F00F440001D
:1048000005DA00EB80004FF4400101EA50004FEA66
:104810009059B9F1010F00DDB9460A9850EA4A00F3
:104820000ED044F61050A5F2FF3545432F14B8F1D1
:10483000000F1ED07542291E1EDDC9F100021CE0CA
:10484000B8F1010F4FF0000001D0302103E0F24336
:1048500005E02154401CB042FBDB30460022002121
:1048600021540B99C1F80880C1E900200FB0BDE8C0
:10487000F08FBD1B6D1CDEE74A4600DA694206A8D0
:1048800000F0AEFA06AB07CB03AB07C350460A995C
:1048900000F05CFD8DE80700A0F500501F38009087
:1048A0000398002D09DD42F21F014A46084403A97E
:1048B0000390684600F0BBFF08E0A0F500504A46B0
:1048C0001F3803A90390684600F0C5FF8DE8070074
:1048D0000004000C03D04FF0FF30410800E0104608
:1048E000B8F1000F03D00022009215461FE0751E9C
:1048F00006D400F0C1F902F1300262556D1EF8D500
:10490000B3460122084302D000227F1C04E0207835
:10491000302801D100227F1E002A099787D01DE090
:10492000112D07DA00F0A8F9303262556D1C50EAFB
:104930000102F5D108430FD10021681E05E0235C78
:10494000625C6354491C2254401E8142F7DBAB4633
:10495000A81B401E099001E0009848B1002004F80F
:104960000B000B98099AC0F80880C0E9002B7DE77E
:1049700011264FF000085AE72DE9F04F884604460B
:10498000D21D22F0070191B0D1E90001CDE90A0161
:1049900001F097F802460B98C00F01D02D2007E0D8
:1049A0002068810701D52B2002E0202101EAC00008
:1049B000032A099001D0072A05DB03464146204619
:1049C00000F0B8F90FE12078800601D5E06900E039
:1049D0000620B8F1650F814606D0B8F1660F18D0F1
:1049E000B8F1670F72D132E00020B9F1110F0090D9
:1049F00001DB112301E009F101030AAA01A90CA8B6
:104A0000FFF7E5FEDDE90C70002609F1010583469C
:104A100048E001204B4600904FF000470AAA01A948
:104A20000CA8FFF7D4FEDDE90DB00C995D46002619
:104A300018B909F1010001EB0005B9EB050003D439
:104A4000C0F1FF3609F10105A5EB09002BE0B9F132
:104A5000010F01DA4FF001090020B9F1110F0090A8
:104A6000484601DD112300E003460AAA01A90CA86B
:104A7000FFF7ADFEDDE90C704D4600268346207839
:104A800000070AD4AB4500DA5D4601A8012D04DD1C
:104A9000411911F8011C302907D04F4502DA17F1EE
:104AA000040F04DA0120824610E06D1EEEE7002FAD
:104AB00002DCED1B3E4403E0781CA84200DD054605
:104AC000A7EB060000F1010A4FF00047207800072D
:104AD00003D4AA4501DB4FF0FF3A0021B7F1004FA4
:104AE0000DF143088DF8431023D002202B23002F13
:104AF00001DA7F422D234FF00A0C011EA0F10100C4
:104B000000DC4FB197FBFCF10CFB11720F4602F178
:104B1000300208F8012DF0E7A8F1010003702188A8
:104B2000090501D5452100E06521A0F1010800F843
:104B3000011C09980FA9A1EB080707F1070700B1AD
:104B4000012000EB050101EBEA70A1693844A1EBFB
:104B50000000A0F10100A0612078C00602D4204628
:104B6000FFF758FB099830B1D4E901219047206A3A
:104B700000F1010020622078C00620D52046FFF712
:104B800049FB1CE0002E04DBB34502DD01A8805D7B
:104B900000E03020D4E901219047206A761C401CB7
:104BA000BAF1010A20620AD100F062F8C068016817
:104BB000405CD4E901219047206A401C2062281EF5
:104BC000A5F10105DEDC07E0D4E9012118F8010BAD
:104BD0009047206A401C2062381EA7F10107F3DCD1
:104BE0002046FFF72EFB022011B040E610B54369C6
:104BF00013B1AFF3008001E0FFF735FB012010BDDA
:104C0000127800F124010A7000224A700122EDE7B7
:104C100011684FF0FF32E9E7074B70B50D467B4452
:104C200000F075F80446284600F070F910B14FF016
:104C3000FF3070BD204670BDEDDDFFFF3A2800D289
:104C4000303820F02002412A01D3A2F137008842F7
:104C500001D34FF0FF307047034B7B449361034B0C
:104C60007B44D36100F0ACB8D1DDFFFF63020000EC
:104C7000004870478401002030B5B0F10A024FEAC5
:104C8000900E71F100034EEA817EB0EB0E0061EBF5
:104C900091014FEA101E4EEA017E10EB0E0041EB2F
:104CA00011114FEA102E4EEA016E10EB0E0041EB8F
:104CB00011214FEA104E4EEA014E10EB0E0041EB6F
:104CC0001141401841F100014FEAD00040EA417023
:104CD0004FEAD10110EB80054FEA810444EA907459
:104CE00044EB01046D1944EB0404521BA3414FF043
:104CF000000348BF0A3200D530BD401C41F100011D
:104D000030BD000001694A1C02610878704700B597
:104D10008FB0CDE901310021059105497944CDE9F4
:104D2000031011466846FFF703FB0FB000BD0000FB
:104D3000E5FFFFFF2DE9F0411F4604460326016809
:104D4000072A01F4006004DB08B116A505E016A5EA
:104D500003E008B115A500E015A521F010002060C2
:104D6000A069C01EA0610FB1401EA0612046FFF7E0
:104D700051FA4FB1D4E9012138469047206A401CCE
:104D80002062C01C206206E0206AFAE7D4E9012113
:104D900015F8010B9047761EF8D22046FFF751FA1E
:104DA000BDE8F0814E414E006E616E00494E4600F6
:104DB000696E6600026811441378016018467047F6
:104DC000D160054979445161044979441162002157
:104DD0001161114600F0D0B8EDFFFFFF990100000E
:104DE0002DE9F047814616468AB035487844D0E927
:104DF000002380680092CDE90130314878440C38B6
:104E0000D0E90223006903924FF03702CDE9043064
:104E100041F69B30014491FBF2F0A0F1800502FBCA
:104E200010141B3C02D56442012000E00020DFF892
:104E300090A080460027FA44AAF1C60A0DE0E007D8
:104E400009D03246684607EB47010AEB810100F0C2
:104E500002FD8DE8070064107F1C002CEFD1184F75
:104E60007F44B43F17E0E80713D007EB04100DF1BF
:104E7000180A90E80E00AAE80E00C068F04201D1BE
:104E800098190890324606A903A800F0E4FC03AB89
:104E900007C36D10641C002DE5D132466946B8F198
:104EA000000F03A802D000F0C2FC01E000F0D3FC28
:104EB000C9E90001C9F808200AB0BDE8F087000080
:104EC000FC140000704710B54FF0FF34C1688A022F
:104ED0000FD5036B42689A420BD1014690F825200A
:104EE000104600F001FA401C01D1204610BD002000
:104EF00010BD11F0C00FF8D1026941689142F4D998
:104F00000268521C491EC0E90021F0E7007B00F056
:104F10008000704700487047640100207546FFF725
:104F2000F9FFAE4605006946534620F00700854666
:104F300018B020B5FFF700F8BDE820404FF000069C
:104F40004FF000074FF000084FF0000B21F0070171
:104F5000AC46ACE8C009ACE8C009ACE8C009ACE8B4
:104F6000C0098D46704710B5044600F0E7F90068A7
:104F7000005D00F0010010BD2DE9F34F4FF0000A75
:104F80000C4656468DB001200C9001F10C000B90A0
:104F900062690B980121904705002DD0252D2CD05A
:104FA000216A8847C0B162690B9801219047216A44
:104FB00088470028F7D16269411E0B98904700E0AE
:104FC000761CA1690D988847216A88470028F7D187
:104FD000E1690D988847DBE7A1690D988847A842E9
:104FE000074601D1761CD3E7E1690D9888477F1CFD
:104FF00002D1BAF1000F6FD06AE162690B98002705
:105000003D46394690472A2804D162690B98012110
:1050100090470125DFF8CC8262690B980121904707
:10502000A0F130010A290AD24745E5DC07EB8701E8
:1050300000EB4107303FDFD445F01005ECE7E9060F
:1050400001D46FF000476C280AD04C2814D068288F
:1050500015D06A280DD074281CD07A281AD01DE0EB
:1050600062690B98012190476C2802D045F0040535
:1050700014E045F002050DE045F020050AE0626904
:105080000B9801219047682802D045F0080505E0FB
:1050900045F4006562690B9801219047C4E9015706
:1050A00065283DD019DC582879D00CDC452837D04C
:1050B00004DC252826D041289ED131E046282FD077
:1050C000472899D12CE05B287FD0612828D063281D
:1050D0007BD0642890D159E0F5E06F2847D008DCF8
:1050E00066281DD067281BD0692821D06E2816D1CC
:1050F00027E0702844D0732867D0752846D07828D8
:105100000DD14CE0A1690D988847252805463FF44C
:1051100069AFE1690D9888476D1C3FF46AAFD7E02D
:105120000D9923466A466FF00100AFF30080C4E09A
:1051300045F0400023464FF000026060A80735D4D8
:105140003DE0206800F1040121600068290501D5D7
:1051500006701DE7290701D5068019E7A90704D5C0
:105160004FEAE671C0E9006112E7066010E745F01A
:10517000400023464FF008026060A80716D41EE0E6
:1051800040F60E0125EA0100606016E045F040009F
:1051900023464FF00A026060A80707D40FE045F0ED
:1051A00040006060A80708D5234610220D996FF0D3
:1051B0000100AFF3008080E007E0102223460D9944
:1051C0006FF00100FFF74CF977E04FF0000963281A
:1051D0004F46C8464B46CB4602D05B2806D038E047
:1051E000E80601D40120A060012732E06269D4F80A
:1051F0000CB00B98012190475E2807D14FF00109B0
:1052000049466269D4F80CB00B989047216939B9C6
:1052100000210B4603AA42F82130491C0829FADB79
:10522000D8B3216949B308F1010862690B980121DB
:1052300090475D28F4D1B9F1000F09D0002003A9EF
:1052400051F82020D24341F82020401C0828F7DBE9
:1052500003AB2069002820794FEA40701ED05B46DE
:105260002246CDF80080CDE901970D9900286FF016
:10527000010020DAAFF300801FE0C11700EBD1621C
:1052800003A9531122F01F0201EB8301821A0B685C
:105290000120904003430B60C7E719E00D992246B7
:1052A00000286FF00100009702DAAFF3008004E0FD
:1052B000FFF77EF901E0AFF3008000280ADA401C16
:1052C00006D10C9820B14FF0FF300FB0BDE8F08F41
:1052D0005046FAE7E90701D10AF1010A0644002025
:1052E0000C9055E6CCCCCC0CCA68431C0FD00D4BAF
:1052F0001A420CD1D3070AD081F825004B680B6302
:1053000000238B6012F0C06F0B6003D004E04FF0FD
:10531000FF30704742F00072034B1A40034B1A43B0
:10532000CA60704780200800BFFFDFFF0010480000
:105330000446AFF300802046FAF7ABFF10B5FFF745
:1053400097FC001D10BD00BFE50700005FEA400CA0
:1053500008BF91F0000F4FEA8C234FEAC12243EAC5
:1053600051514FEA1C5018BF00F5F0404FEA300091
:1053700018BF41F000415FEA6C5C00F02980BCF18D
:10538000FF3F08BF40F080407047130C06BF120477
:105390004FF0100C4FF0000C130E04BF12020CF172
:1053A000080C130F04BF12010CF1040C930F04BF7F
:1053B00092000CF1020CD30F04BF52000CF1010C4F
:1053C00011464FF00002A0F11F00A0EB0C00704747
:1053D00011F0004F08BF704731F000413FF4D5AFE6
:1053E0000B0C06BF09044FF0100C4FF0000C0B0E15
:1053F00004BF09020CF1080C0B0F04BF09010CF1EA
:10540000040C8B0F04BF89000CF1020CCB0F04BFFE
:1054100049000CF1010CCCF12003A0EB0C0022FAA6
:1054200003F302FA0CF241EA030100F101007047B4
:1054300020F07F4C80EA030023F07F47ACEB0703AA
:1054400003F57C5300F0004003F1FF032DE9804990
:105450004FEA154B09B44FEA144325EA0B4E24EAF0
:1054600003480FF2042606EB132749083E785FEA4B
:10547000320203FB0667C7F5000707FB06F64FEA93
:1054800054374FEAD64606F1020607FB066CCCF10C
:10549000005C4FEA1C472CEA074C07FB06F40CFBA8
:1054A00006F504EB15464FEA961634BF00204FF080
:1054B00000404FEAD13706FB07FC4FEA1C4C0CFBBF
:1054C0000BF7D21B03FB0CF761EB07010CFB0EF78C
:1054D000B0EB074072EB17420CFB08F734BFA2EBAE
:1054E0000742B2EB074261EB17414FEA0C444FEA27
:1054F000910706FB07FC4FEA1C4C0CFB0BF7B0EBCB
:10550000C74072EB573203FB0CF734BFA2EBC74224
:10551000B2EBC74261EB57310CFB0EF7B0EBC700A3
:1055200072EB57720CFB08F734BFA2EBC702B2EB69
:10553000C70261EB5771039F4FEA816141EA921103
:1055400004EBCC044FEAD1374FEA826206FB07FC3A
:1055500042EA90124FEA80604FEA1C4C0CFB0BF7BA
:10556000D21B03FB0CF761EB07010CFB0EF7B0EB52
:10557000074072EB17420CFB08F734BFA2EB07425F
:10558000B2EB074261EB17414FEA8C554FEA9107A6
:1055900004EB9C2406FB07FC4FEA1C4C0CFB0BF7AE
:1055A000B0EBC74072EB573203FB0CF734BFA2EBF2
:1055B000C742B2EBC74261EB57310CFB0EF7B0EBC1
:1055C000C70072EB57720CFB08F734BFA2EBC7029F
:1055D000B2EBC70261EB577115EB4C254FEA8161C5
:1055E00041EA92114FEA82624FEAD13742EA9012C1
:1055F00006FB07FC44F100044FEA80604FEA1C4CB4
:105600000CFB0BF7D21B03FB0CF761EB07010CFB48
:105610000EF7B0EB074072EB17420CFB08F734BFF4
:10562000A2EB0742B2EB074261EB174115EB1C15E9
:105630004FEA813141EA92414FEA823242EA904296
:105640004FEA80304FEA0C7644F1000448EA034305
:105650004EEA0B484FF0000EB2EB080C71EB03075B
:1056600024BF624639464EEB0E0E4FF0000B001879
:10567000524149414BEB0B0BB2EB080C71EB0307AA
:105680007BF1000B24BF624639464EEB0E0E4FF005
:10569000000B0018524149414BEB0B0BB2EB080CCD
:1056A00071EB03077BF1000B24BF624639464EEBDA
:1056B0000E0E51EA020718BF46F0010616EB0E76F1
:1056C00055F1000254F1000103D5BDE88901BDE8A0
:1056D0000088BDE88901BDE80048B619524141EB98
:1056E0000101A3F10103704780807F7E7D7C7B7A7E
:1056F0007978777676757473727171706F6E6E6D7E
:105700006C6C6B6A6A696868676666656464636323
:1057100062616160605F5F5E5E5D5D5C5C5B5B5AA9
:105720005A59595858575756565555555454535316
:1057300052525251515050504F4F4F4E4E4D4D4D71
:105740004C4C4C4B4B4B4A4A4A49494948484847BC
:1057500047474746464645454544444444434343FA
:105760004342424242414141002B26D4770021D09E
:105770001CB54FEA370703B44FF010004FF010018B
:105780004FF000000FBCBDE810400BF1010BBBF166
:10579000010F08BF5FEA170722BF12F1010211F1E2
:1057A00001014FF0004143F1000300F0004043EAE3
:1057B00000007047F9D35708DAE746EA064613F1C6
:1057C000400F4FEA16461FDD13F1200FDFBF1643CF
:1057D0000A46002120335B42C8D0C3F1200746EAC5
:1057E000064602FA07F74FEA164646EA0706C3F1ED
:1057F000200722FA03F201FA07F721FA03F14FF02A
:10580000000342EA0702B1E746EA020646EA064614
:105810004FEA164646EA0106BCBF46EA0646360C83
:105820004FF000034FF000024FF000019EE72DE91A
:10583000C048934630B491E8380007C831EA400CBC
:1058400048BF34EA430C03D5FFF7F2FDFFF78CFFA6
:10585000F0BCBDE800882DE9C048934630B491E81B
:10586000380007C810F0804F08BF13F0804F03D1F5
:1058700000F005F8FFF778FFF0BCBDE8008820F0E5
:105880007F4780EA030023F07F4C07EB0C03A3F56E
:105890007C5300F00040A3F1FE0392F0000F00F0F3
:1058A000B38095F0000F00F077802DE901494FEAB1
:1058B00011404FEA144621EA004800FB06FC24EAA6
:1058C000064708FB06F607FB08F800FB07F718EB8E
:1058D00006484CEB164C4FEA124B18EB07484FEAC0
:1058E00015464CEB174022EA0B4E0BFB06FC25EA53
:1058F00006470EFB06F607FB0EFE0BFB07F71EEB3B
:10590000064E4CEB164C4FF000061EEB074E4CEBD0
:10591000174B18EB0B0840F1000018EB0E0B58EB7F
:10592000000840F100008F1A4FF000013CBFC9434E
:10593000661B14BFB5EB040C00213CBFC943F61B2A
:105940004FEA17444EEA8E0E27EA04454FEA1C47F9
:1059500004FB07622CEA074C05FB07F70CFB05F676
:1059600004FB0CFC16EB074642EB174216EB0C4609
:1059700042EB1C421BEB060658EB0202414146EA91
:105980009E0601D5BDE80189B619524141EB0101DE
:10599000A3F10103BDE801894FEA14454FEA11471D
:1059A00024EA054621EA074C05FB07F406FB07F746
:1059B0000CFB06F105FB0CFC11EB074144EB174413
:1059C0004FEA124711EB0C4144EB1C4422EA074C0E
:1059D00005FB07F206FB07F70CFB06F605FB0CFCC4
:1059E00016EB074642EB174216EB0C4642EB1C4502
:1059F0006A1854F1000148BF7047B619524141EB93
:105A00000101A3F10103704795F0000F37D04FEA71
:105A100011424FEA144721EA024624EA074C02FBEE
:105A200007F106FB07F70CFB06F402FB0CFC14EB7A
:105A3000074441EB17414FEA154714EB0C4441EB87
:105A40001C4125EA074C02FB07F506FB07F70CFB98
:105A500006F602FB0CFC16EB074645EB174516EB6A
:105A60000C4645EB1C42121951F1000148BF70472A
:105A7000B619524141EB0101A3F1010370474FEA0E
:105A800014454FEA114724EA054621EA074C05FB75
:105A900007F106FB07F70CFB06F24FF0000605FBCB
:105AA0000CFC12EB074241EB174112EB0C4251EB9D
:105AB0001C4148BF7047921841EB0101A3F101035B
:105AC000704703B401984100009850EAC12018BF04
:105AD00004204A0D18BF40F0010040F2FF72B2EB03
