:020000040800F2
:10000000E00F002021440008511D0008531D000886
:10001000551D0008571D0008591D0008000000006C
:100020000000000000000000000000005B1D000850
:100030005D1D0008000000005F1D0008611D000834
:100040003B4400083B4400083B4400083B44000894
:100050003B4400083B4400083B4400083B44000884
:100060003B4400083B4400083B4400083B44000874
:100070003B4400083B4400083B4400083B44000864
:100080003B4400083B4400083B4400083B44000854
:100090003B4400083B4400083B4400087F1D000827
:1000A0003B4400083B4400083B4400083B44000834
:1000B0003B4400083B4400083B4400083B44000824
:1000C0003B4400083B4400083B4400083B44000814
:1000D0003B4400083B4400083B4400083B44000804
:1000E000C11D00083B4400083B4400083B44000895
:1000F0003B4400083B4400083B4400083B440008E4
:100100003B4400083B4400083B4400083B440008D3
:100110003B4400083B4400083B4400083B440008C3
:100120003B4400083B4400083B4400083B440008B3
:100130003B4400083B4400083B4400083B440008A3
:100140003B4400083B4400083B4400083B44000893
:100150003B4400083B4400083B4400083B44000883
:100160003B4400083B4400083B4400083B44000873
:100170003B4400083B4400083B4400083B44000863
:100180003B4400083B44000800F002F800F078F817
:100190000AA090E8000C82448344AAF10107DA45E2
:1001A00001D100F06DF8AFF2090EBAE80F0013F0BC
:1001B000010F18BFFB1A43F001031847A0650000A8
:1001C000C06500000A444FF0000C10F8013B13F02A
:1001D000070408BF10F8014B1D1108BF10F8015BA0
:1001E000641E05D010F8016B641E01F8016BF9D193
:1001F00013F0080F1EBF10F8014BAD1C0C1B09D1EA
:100200006D1E58BF01F801CBFAD505E014F8016B5B
:1002100001F8016B6D1EF9D59142D6D370470000ED
:100220000023002400250026103A28BF78C1FBD8FF
:10023000520728BF30C148BF0B607047662906F0DF
:10024000F881642904F05C82632904F0FD86732937
:1002500004F00287002070471FB506F0E0F904F0B3
:100260002BFF04000020002105F084FE401C60608C
:100270000020002105F068FEE0601FBD10B510BD34
:1002800005F070F81146FFF7E7FF01F030FC05F0CC
:1002900073FA03B4FFF7F2FF03BC01F08FFF000015
:1002A0002749084327490860704770B50F23C27873
:1002B000017801254FF0E026E2B1224A126802F4EB
:1002C000E062C2F5E062C2F30722C2F10404D34047
:1002D0004278A24084781C401B4B14432201CA542C
:1002E000007800F01F018D40400906EB8000C0F847
:1002F000005170BD01F01F008540480906EB8000E9
:10030000C0F8805170BD114A114001430D48001FD3
:10031000016070470B4A121D0029116801D001438A
:1003200000E08143116070474FF0E0210428086924
:1003300003D020F004000861704740F00400FAE7A1
:100340000000FA050CED00E000E400E080FFFF1F74
:1003500010B501210C02204600F07DFC2046BDE8CE
:100360001040002100F077BC30B54268C44B0C79D6
:100370001A400B6842EA0422134343608268C14B6F
:100380004D791A40D1E9034323438C6844EA45047C
:10039000234313438360C26A097D22F47002491E1D
:1003A000C9B242EA0151C16230BD00210160017150
:1003B00041718160C1600161012101757047B24BDB
:1003C00010B51A68B1490A40D0E900142143D0E9B8
:1003D0000240044321431143196010BD0021016014
:1003E00041608160C16070470029816802D041F09E
:1003F000010101E021F00101816070474268A44BD6
:100400001A400A4342607047416282627047426804
:1004100022F01F020A43426070479E490028D1F82B
:10042000040302D040F4000001E020F40000C1F811
:100430000403704797490028D1F8040302D040F420
:10044000800001E020F48000C1F80403704770B51B
:10045000072609290AD9C568A1F10A0404EB440456
:10046000A640B543A3401D43C56007E0056901EB05
:100470004104A640B543A3401D4305611F23072A3D
:1004800009D2446B521E02EB820293409C4391407E
:100490000C43446370BD0D2A09D2046BD21F02EBDA
:1004A000820293409C4391400C43046370BDC46A34
:1004B0000D3A02EB820293409C4391400C43C4628C
:1004C00070BD816841F08041816070470146002025
:1004D0008968490200D5012070470029816802D04F
:1004E00041F4806101E021F480618160704700295E
:1004F000816802D041F0020101E021F00201816037
:1005000070474268491E22F4604242EA413141602C
:1005100070470029416802D041F4006101E021F4F4
:10052000006141607047C06C80B270475648001D42
:10053000006870470029816802D041F4807101E0B1
:1005400021F48071816070470029816802D041F4F4
:10055000007101E021F40071816070474D4900286D
:10056000D1F8040302D040F4005001E020F4005020
:10057000C1F80403704770B5072609290AD9C56870
:10058000A1F10A0404EB4404A640B543A3401D4373
:10059000C56007E0056901EB4104A640B543A340EF
:1005A0001D430561836BC3F30154121B921C02EBC4
:1005B00082021F249440A34391400B43836370BD88
:1005C000826B491E22F4401242EA01518163704756
:1005D00042507047826822F470220A43826070475A
:1005E000826822F440120A4382607047816841F4B5
:1005F000800181607047014600208968490200D56A
:10060000012070470029416802D041F4806101E077
:1006100021F48061416070470029416802D041F4B3
:10062000805101E021F48051416070470844806AA4
:1006300080B2704701238B4041680AB1194300E042
:100640009943416070470246002012680A4200D078
:1006500001207047C9430160704730B50246002051
:1006600054680B0A01258D4011682C40194202D0B4
:10067000002C00D0012030BD6FEA112101607047CD
:10068000FFFEFFFCFDF7FFC004230140E030FCFF4C
:10069000FFFD3FFF00200140374900200860091D91
:1006A0000860091D0860091D08603349334814318A
:1006B0000860704730B5304A8379016853B31368D6
:1006C0008B431360111D0B680468A3430B60017911
:1006D00011440B68046823430B60274B08331968E7
:1006E0000468A14319601C1D21680568A9432160A5
:1006F0004179102905D011440A68006802430A6054
:1007000030BD19680268114319602168006801430F
:10071000216030BD0079104402688A43026030BD18
:100720000021016001710C224271817170471249F0
:1007300010310A6802430A60704701460E4A0020E1
:10074000143212680A4200D0012070470A4914315D
:1007500008607047084A014600201268064B0A40AC
:1007600014331B680B4202D0002A00D001207047CE
:100770000149143108607047003C0140FFFF7F00D1
:100780006F4910B5884206D10121084600F03BFAB6
:10079000002101204FE06B49884206D1012102204F
:1007A00000F031FA0021022045E06749884206D175
:1007B0000121042000F027FA002104203BE06349D6
:1007C000884206D10121082000F01DFA00210820EE
:1007D00031E05F49884206D10121102000F013FA70
:1007E0000021102027E05B49884206D1012120200A
:1007F00000F009FA002120201DE05749884206D167
:100800000121402000F0FFF90021402013E053496E
:10081000884206D10121802000F0F5F900218020D6
:1008200009E04F4988420AD184150121204600F091
:10083000EAF900212046BDE8104000F0E4B910BDFF
:10084000F0B5002201274FF0030C0B6807FA02F500
:100850002B40AB422CD1066853000CFA03F4A6439C
:1008600006600E79D0F800E09E4046EA0E0606606B
:100870000E79012E01D0022E12D18668A643866021
:100880004E79D0F808E09E4046EA0E06866046683B
:10089000AE43466045688E799640B6B235434560B2
:1008A000C568A543C560CC799C40C3681C43C4603F
:1008B000521C102AC9D3F0BD4FF6FF710160002110
:1008C000017141718171C171704741F48032C2611F
:1008D000C161C261C169C0697047024600201269E6
:1008E0000A4200D001207047006980B2704702467A
:1008F000002052690A4200D001207047406980B24E
:10090000704701837047418370470AB10183704784
:10091000418370474161704742694A404261704774
:100920004B07DB0E9A40C90810B500EB8100016A45
:100930000F249C40A1430162016A1143016210BD72
:10094000000002400004024000080240000C024087
:10095000001002400014024000180240001C024037
:1009600000200240E948016841F001010160E74AC6
:100970000021083211600268E54B1A400260031D35
:10098000E44A1A60026822F480220260DF480C30D8
:1009900001607047DD490022891C0A7008707047A9
:1009A00002460020510901290CD002290CD0D74958
:1009B0007431096802F01F02012393400B4200D0FA
:1009C00001207047D149F4E7D0497031F1E730B5E3
:1009D00000244FF4A0653120FFF7E2FF641CAC4215
:1009E00001D00028F7D03120FFF7DAFF002800D02F
:1009F000012030BDC54A116821F0F80141EAC0006C
:100A000010607047C44908607047C04900227031C7
:100A10000A700A70012802D0042801D1052008704C
:100A20007047BE490860704741EA82115A0810B504
:100A3000BB4B029C03EB02421143014341EA0460B9
:100A4000B249091D086010BDB349086670478001AE
:100A500040EA0170AD49843108607047AE4988664C
:100A60007047AD49C8647047A84B08331A680843FB
:100A700022F0EC62104318607047A44B08331A68E8
:100A8000084322F078421043186070479F4A0832AA
:100A9000116821F003010143116070479B48083041
:100AA000006800F00C007047984A0832116821F085
:100AB000F001014311607047944A0832116821F433
:100AC000E051014311607047904A0832116821F4E7
:100AD000604141EAC0001060704770B58B4B08332D
:100AE0001968904C11F00C0104D06610042903D051
:100AF000082903D004601BE0066019E0834A121D38
:100B00001168C1F38055116801F03F0115B1B6FBC2
:100B1000F1F101E0B4FBF1F114681268C4F3881438
:100B20006143C2F30142521C5200B1FBF2F1016079
:100B300019687D4A01F0F0010909545C0168E1403F
:100B400041601C6804F4E054A40A145D21FA04F422
:100B500084601B6803F460435B0BD25CD140C160CE
:100B600070BDC0F30121032908D1684B083319680F
:100B70006E4A21F4F81102400A431A606349703149
:100B80000A68C0F30B0002430A60704763494439A6
:100B900008607047614940390860704764490860DF
:100BA00070475A4A30320029116801D0014300E0F1
:100BB000814311607047554A34320029116801D0D1
:100BC000014300E0814311607047504A38320029E8
:100BD000116801D0014300E08143116070474B4A26
:100BE00040320029116801D0014300E081431160C7
:100BF0007047464A44320029116801D0014300E0A1
:100C0000814311607047414A10320029116801D0B8
:100C1000014300E08143116070473C4A14320029CF
:100C2000116801D0014300E0814311607047374AE9
:100C300018320029116801D0014300E0814311609E
:100C40007047324A20320029116801D0014300E088
:100C50008143116070472D4A24320029116801D068
:100C6000014300E0814311607047284A5032002957
:100C7000116801D0014300E0814311607047234AAD
:100C800054320029116801D0014300E08143116012
:100C900070471E4A58320029116801D0014300E014
:100CA000814311607047194A60320029116801D0F0
:100CB000014300E0814311607047144A6432002907
:100CC000116801D0014300E08143116070470F4A71
:100CD0000D320029117801D0014300E081431170E9
:100CE00070470A487430016841F0807101607047B4
:100CF0000146064A00200C3212680A4200D0012048
:100D0000704702490E3108707047000000380240F9
:100D1000FFFFF6FE1030002400004742800E4742DD
:100D20000000FFFF0024F40000000020FFFCFF0F84
:100D30005C01474210B501218C032046FFF78BFF71
:100D40002046BDE810400021FFF785BF114908602B
:100D5000704710B58A0721F00304120F0F230D49C5
:100D60009340083121440C689C430C600B68904010
:100D700003430B6010BD08490860704707490860CD
:100D800070470449002020310968C90500D50120B9
:100D90007047000000380140DC0027420004274271
:100DA000FE4910B5884206D101210846FFF753FFDE
:100DB000002101205BE0B0F1804F09D0F849884262
:100DC0000DD101210220FFF73CFF0021022070E03D
:100DD00001210846FFF735FF0021012069E0F149B4
:100DE000884206D101210420FFF72BFF00210420B7
:100DF0005FE0ED49884206D101210820FFF721FF7D
:100E00000021082055E0E949884206D1012110203F
:100E1000FFF717FF002110204BE0E549884206D17B
:100E200001212020FFF70DFF0021202041E0E149B2
:100E3000884206D101210220FFF70DFF0021022088
:100E400015E0DD49884202D101210C040AE0DB49AA
:100E5000884202D101214C0404E0D94988420AD1D8
:100E600001218C042046FFF7F6FE00212046BDE854
:100E70001040FFF7F0BED349884206D1012140203F
:100E8000FFF7DFFE0021402013E0CF49884206D162
:100E900001218020FFF7D5FE0021802009E0CB4909
:100EA00088420AD1841501212046FFF7CAFE00219D
:100EB0002046BDE81040FFF7C4BE10BD30B5028823
:100EC000B64CBC4DA0420DD0A8420BD0B0F1804F23
:100ED00008D0B34B984205D0B24B984202D0B24BE7
:100EE000984203D122F070034A881A43AF4B9842CC
:100EF00006D0AF4B984203D022F440730A891A43BC
:100F000002804A68C2620A880285A04201D0A842D3
:100F100001D1897A01860121818230BD4FF0FF31F4
:100F2000416000210180018141808172704701850B
:100F300082827047028822F070020A430280704762
:100F400041627047C1627047406A7047008D7047C8
:100F50000029018802D041F0020101E021F00201E4
:100F6000018070470029018802D041F0040101E0AE
:100F700021F00401018070470029018802D041F06E
:100F8000800101E021F0800101807047028822F099
:100F90000802028002880A4302807047028822F415
:100FA0004072028002880A4302807047002901884B
:100FB00002D041F0010101E021F001010180704700
:100FC00030B5028C22F001020284028C8388048BEB
:100FD00022F0020224F073050C882C438D891543FE
:100FE0004A882A436D4DA84202D0724DA8420DD1C5
:100FF00022F00805CA8923F440732A4322F004052D
:101000008A882A430D8A1D434B8A2B43838004839D
:1010100089684163028430BD70B5028C22F01002F1
:101020000284028C8388048B0D8824F4E6464FF6F4
:10103000FF7404EA052535438E8922F0200204EA74
:10104000061616434A8804EA02123243534EB0424F
:1010500002D0584EB04215D122F08006CA8923F43E
:10106000406304EA0212324322F040068A8804EA0E
:10107000021232430E8A04EA86061E434B8A04EAB1
:10108000830333438380058389688163028470BD51
:1010900070B5028C22F480720284028C8388848B67
:1010A0000D8824F0730425438E894FF6FF7422F4D3
:1010B000007204EA062616434A8804EA02223243F2
:1010C000364EB04202D03B4EB04215D122F40066FB
:1010D000CA8923F4405304EA0222324322F4806690
:1010E0008A8804EA022232430E8A04EA06161E4364
:1010F0004B8A04EA03133343838085838968C16381
:10110000028470BD70B5028C22F480520284058C7A
:101110008288838B0C8823F4E6464FF6FF7303EA3C
:101120000424344325F400568D8903EA05353543FC
:101130004E8803EA06362E43184DA84202D01D4DB4
:10114000A84205D122F480450A8A03EA82122A4382
:101150008280848389680164068470BD00210180D7
:101160004180818081608181C1810182418270479B
:1011700030B50124058C00F118038C40A54305848B
:1011800031B308292CD0091FC1F34E00184401685F
:1011900048F6FF731940016001681AE00000014041
:1011A0000004004000080040000C00400010004017
:1011B0000014004000040140004001400044014090
:1011C0000048014000180040001C00400020004082
:1011D00006E04FF6FF7303EA02221143016030BDBF
:1011E00003EB510001684FF68F73194001600168ED
:1011F000F3E74163704781637047C16370470164DF
:101200007047028B22F070020A4302837047028B00
:101210004FF6FF7322F4E04203EA012111430183F8
:101220007047828B22F070020A4382837047828B60
:101230004FF6FF7322F4E04203EA01211143818358
:101240007047028B22F008020A4302837047028B28
:101250004FF6FF7322F4006203EA01211143018378
:101260007047828B22F008020A4382837047828B88
:101270004FF6FF7322F4006203EA012111438183D8
:101280007047028B22F004020A4302837047028BEC
:101290004FF6FF7322F4806203EA012111430183B8
:1012A0007047828B22F004020A4382837047828B4C
:1012B0004FF6FF7322F4806203EA01211143818318
:1012C0007047028B22F080020A4302837047028B30
:1012D0004FF6FF73C2F30E0203EA012111430183AB
:1012E0007047828B22F080020A4382837047828B90
:1012F0004FF6FF73C2F30E0203EA0121114381830B
:101300007047028C22F002020A4302847047028C6A
:1013100022F008020A4302847047028C4FF6FF73E2
:1013200022F0200203EA0111114301847047028C6C
:101330004FF6FF7322F0800203EA0111114301848A
:101340007047028C4FF6FF7322F4007203EA01210A
:10135000114301847047028C4FF6FF7322F4006240
:1013600003EA0121114301847047028C4FF6FF7399
:1013700022F4005203EA013111430184704710B591
:101380000123048C8B409C430484038C8A401343C8
:10139000038410BD10B50423048C8B409C4304844B
:1013A000038C8A401343038410BD828B22F4406275
:1013B0008283828B4FF6FF7303EA01210A43828303
:1013C0007047828B22F00C028283828B0A438283D5
:1013D0007047028B22F440620283028B4FF6FF7348
:1013E00003EA01210A4302837047F0B5048C24F01C
:1013F00010040484078B068C4FF6FF7404EA011571
:1014000027F4734704EA0331394304EA02220A430A
:1014100026F0A001294341F0100102830184F0BDB0
:10142000028B22F00C020283028B0A430283704774
:101430002DE9F0410C460E884988A288238905468B
:101440000EB3042E26D0082E2E8C4FF6FF7028D017
:1014500026F480562E84AF8B2E8C00EA022200EAFE
:10146000013127F473473A4300EA0330104326F46E
:1014700020420A4342F48051A8832984E188284607
:10148000BDE8F04191E700F061F9E1882846BDE848
:10149000F041C5E7FFF7A9FFE1882846BDE8F04124
:1014A00097E726F480762E84AF8B2E8C00EA0121FC
:1014B00000EA0310104327F0F307384326F42062B4
:1014C0000A4342F48071A8832984E1882846BDE854
:1014D000F04176E700210180418001228280C180B5
:1014E000018170472DE9F0410C46002549880746E7
:1014F000012601B90225A288012A00D102262088EE
:1015000023890028384610D0FFF76FFFE18838465E
:10151000FFF75FFF238932462946384600F016F967
:10152000E1883846BDE8F0417AE700F00FF9E1883C
:101530003846FFF775FF2389324629463846FFF7BC
:1015400054FFE1883846BDE8F04142E7406B704700
:10155000806B7047C06B7047006C704710B50A888D
:101560004B88CC881A438B8823431A430B891A4330
:101570004B8989891A430A43A0F8442010BD0021F1
:10158000018041808180C1800181418181817047DA
:10159000002930F8441F02D041F4004101E0C1F3BA
:1015A0000E01018070470029818802D041F00401BA
:1015B00001E021F00401818070470029818802D078
:1015C00041F0010101E021F0010181807047002A12
:1015D000828901D00A4300E08A4382817047818278
:1015E000704702460020128A0A4200D0012070474C
:1015F000C94301827047034600201A8A9B890A4228
:1016000003EA010302D0002B00D001207047C94338
:10161000018270471143A0F848107047002A828960
:1016200001D00A4300E08A43828170470029818803
:1016300002D041F0080101E021F0080181807047EB
:10164000018921F0070101817047028922F07002AF
:101650000A430281704700B50346FFF7F6FF188979
:1016600040F00700188100BD70B50D4611460446D4
:10167000602D4FF001020AD000F068F8294620469C
:10168000FFF7E3FF208940F00700208170BDFFF7DE
:10169000ACFEF3E730B504894FF6FF7505EA032386
:1016A0001343E4B20B432343038130BD10B504461A
:1016B000FFF7F0FF208940F07700208110BD10B5C2
:1016C0000446FFF7E7FF208940F48040208110BDE9
:1016D000828822F07002828082880A43828070476A
:1016E000028922F00702028102890A4302817047BF
:1016F000028922F08002028102890A430281704736
:1017000070B50589048B068C25F007050D434FF64F
:10171000FC410C4040F201110C434FF6FF7101EA0D
:10172000031126F02206114331430581048301840D
:1017300070BD0029818802D041F0800101E021F0D4
:10174000800181807047A0F85010704770B5048CFC
:1017500024F001040484058B048C4FF6FF7606EA1E
:101760000313134325F0F3052B4324F00A020A4325
:1017700042F001010383018470BD0000CA4910B525
:10178000884206D101211020FFF765FA00211020C0
:1017900028E0C649884202D101214C0410E0C44926
:1017A000884202D101218C040AE0C249884202D158
:1017B0000121CC0404E0C04988420AD101210C0572
:1017C0002046FFF73EFA2046BDE810400021FFF713
:1017D00038BABA49884209D101212020FFF73BFAE3
:1017E00000212020BDE81040FFF735BA10BD7FB5BD
:1017F0000446008A0D46C98820F4405001432182E6
:10180000A08941F20C618843A9882A8911436A8919
:1018100002431143A181A08A20F44071A8890843A2
:10182000A0826846FFF759F99F48844202D0A34836
:10183000844201D1039800E00298A189090400299B
:1018400000EBC00101EB0010296802DA4FEA410108
:1018500001E04FEA8101B0FBF1F06422B0FBF2F14C
:101860004FEA01114FEA11136FF018056B4300EBBB
:101870008300A3891D044FF0320306D503EBC0009B
:10188000B0FBF2F000F0070005E003EB0010B0FB46
:10189000F2F000F00F00084320817FBD4FF4165195
:1018A000016000218180C18001810C2242818181FF
:1018B000704710B5028A4C8822F470630A8822436C
:1018C0008C88C9880C4322431A43028210BD002130
:1018D000018041808180C18070470029818902D0C8
:1018E00041F4005101E021F4005181817047028BE5
:1018F00002F47F420283028B0A430283704700296D
:10190000818902D041F4004101E0C1F30E018181DF
:1019100070470029818A02D041F4006101E021F47E
:10192000006181827047C1F308018180704780881F
:10193000C0F308007047028A22F00F020282028A76
:101940000A43028270470029818902D041F00201D6
:1019500001E021F0020181817047828922F4006256
:10196000828182890A4382817047028A22F02002A2
:101970000282028A0A43028270470029018A02D049
:1019800041F4804101E021F4804101827047818966
:1019900041F00101818170470029818A02D041F024
:1019A000080101E021F0080181827047028BD2B268
:1019B0000283028B42EA0121018370470029818A58
:1019C00002D041F0200101E021F020018182704726
:1019D0000029818A02D041F0100101E021F01001BC
:1019E00081827047828A22F004028282828A0A43BC
:1019F000828270470029818A02D041F0020101E011
:101A000021F0020181827047002A828A01D00A43B4
:101A100000E08A438282704710B5C1F3421301F09F
:101A20001F040121A140012B07D0022B07D0143045
:101A3000002A026805D00A4304E00C30F8E71030B1
:101A4000F6E78A43026010BD0246002012880A426F
:101A500000D001207047C9430180704770B501F084
:101A60001F0501260024C1F3421306FA05F2012BDB
:101A70000FD0022B0FD0838A4FEA11210088134226
:101A800006FA01F600EA060001D000B10124204662
:101A900070BD8389F0E7038AEEE70A0A01219140CD
:101AA000C94301807047000000100140004400401D
:101AB00000480040004C004000500040001401402D
:101AC00010B501F00BF8854C207900280ED0207855
:101AD00008B100F0C7FE607808B100F0C4FFA0783C
:101AE000002803D0BDE8104001F030BC10BD00F06C
:101AF00091F900F001FA00F065FA4FF4165000F089
:101B00000DFB00F0FDFC00F0B9FD00F033FD00F02E
:101B100025FE734D4FF4805421462846FEF7F3FE10
:101B200061002846FEF7EFFEA1002846FEF7EBFE17
:101B3000E1002846FEF7E7FE6A4D40212846FEF701
:101B4000E2FE80212846FEF7DEFE04216648FEF70D
:101B5000DAFE21462846FEF7D6FE21116348FEF73D
:101B6000D2FEE1102846FEF7CEFE4FF47A742046EE
:101B700000F08DF92146C82000F063FD574801218F
:101B800000F1080CC1704FF49671C8223C23ACE8F8
:101B90000E004261502282616422C2612822C0E9A3
:101BA00008216FF0450181624621C1626FF09F01FB
:101BB0000163A02141630A2000F069F9FBE710B539
:101BC0004B482DED028B8EB0006804F0B7FC41EC61
:101BD000180B00F0A3FD044600F0A4FD4549474B57
:101BE0000A6845491B6809680A93CDE90B12444A03
:101BF00044498DED088B12680968CDE90304CDE9ED
:101C0000051241484149424A006809681268009239
:101C1000CDE901103F4803683F4802683F4801682A
:101C20003F4802F00FFD0EB0BDEC028B10BD4FF42B
:101C3000FA71C82000F005FD4FF47A7000F027F922
:101C40002F490020086000F00DFE00F0B9FFFFF7FB
:101C5000B6FF022000F01BF9F5E710B54FF4FA715A
:101C6000C82000F0EEFC4FF47A7000F010F901F09B
:101C7000E5FD01F089FCBDE8104001F09BBC10B50A
:101C80004FF4FA71C82000F0DCFC4FF47A7000F0D9
:101C9000FEF824A002F0D6FC00F04DFD00F046FD59
:101CA00001F0CCFD01F070FC01F026FFBDE8104012
:101CB00021A002F0C7BC10B54FF4FA71C82000F0A3
:101CC000C0FC4FF47A7000F0E2F800F034FD00F050
:101CD0002DFDBDE8104000F0D1BF00001C00002029
:101CE0000004024000080240000C024000000240D4
:101CF000CC000020540100204C01002048010020AD
:101D0000C8000020A8000020B0000020B80000207B
:101D1000C0000020BC000020B4000020AC00002067
:101D200038660008427574746F6E203220707265D8
:101D3000737365640A0D000046696E6973686564B3
:101D400020427574746F6E2032204953520A0D0080
:101D50007047FEE7FEE7FEE7FEE770477047704713
:101D600029480168491C016028490868002802DAEE
:101D7000274B00221A60401E0860FFF7A1BE70B515
:101D80002020FEF7E7FC4FF4967438B1204600F0AF
:101D90007EF8FFF74CFF2020FEF7EAFC4FF4807539
:101DA0002846FEF7D7FC002809D0204600F06FF83F
:101DB000FFF781FF2846BDE87040FEF7D9BC70BD33
:101DC00070B54FF400652846FEF7C4FC4FF49674D6
:101DD00038B1204600F05BF8FFF73FFF2846FEF7DA
:101DE000C7FC4FF480552846FEF7B4FC002809D004
:101DF000204600F04CF8FFF742FF2846BDE870404F
:101E0000FEF7B6BC70BD0000880000209C000020DA
:101E10003404004070B502F0A2FB02F0C5FB32486A
:101E20004FF47A710068B0FBF1F0401EB0F1807F92
:101E300016D24FF0E024606166170F21304600F0A3
:101E400047F80025A561072020614FF44070FEF798
:101E500027FA0021304600F03BF82448456070BD69
:101E6000FEE74FF0E0208069A821B0FBF1F21F49A6
:101E7000486800EB4003C3EBC010C2EBC00000F5A4
:101E80007A700860086870471848406870471749BA
:101E90004A684B689B1A8342FBD1704730B50546B0
:101EA000FFF7DFFF0446FFF7DCFF001BA842FAD173
:101EB00030BD30B50C460546FFF7D3FF001BA842E6
:101EC000FAD330BD094A53685B1A8342FBD370478B
:101ED0000907090E002803DA00F00F00044A00E0A9
:101EE000044A8154704700006801002084000020EB
:101EF00014ED00E000E400E07CB501210846FEF7A7
:101F000050FE01210220FEF74CFE01210420FEF7C5
:101F100048FE01210820FEF744FE4FF48070009037
:101F200001208DF8040000208DF8060003218DF8B3
:101F300005108DF8070069461E48FEF781FC4FF436
:101F400090501D4D009069462846FEF779FC04200C
:101F5000009069461948FEF773FC4FF47040184E24
:101F6000022400908DF8074069463046FEF768FC71
:101F7000C02000908DF8074069462846FEF760FCB7
:101F800040212846FEF7BFFC80212846FEF7BBFC17
:101F9000E1023046FEF7B7FC21033046FEF7B3FC02
:101FA00061033046FEF7AFFCA1033046FEF7ABFC01
:101FB0007CBD00000000024000080240000C02400E
:101FC000000402402DE9F047012186B08803FEF7A6
:101FD00010FE01210720FEF7E4FD00248DF81040DB
:101FE00020258DF8134003A949480395FEF728FCE6
:101FF00005210120FEF7ADFE00958DF8044008266E
:102000008DF8056001258DF806506846FEF752FBF5
:102010004FF017098DF808908DF809508DF80A4097
:102020008DF80B5002A8FEF740F9DFF8E8A08DF814
:102030001040EF028DF8134003A950460397FEF7B6
:10204000FFFB0B210020FEF784FE8DF804408DF885
:10205000056000978DF806506846FEF72BFB282791
:102060008DF808708DF809508DF80A408DF80B50E6
:1020700002A8FEF71AF98DF810404FF480588DF839
:10208000134003A95046CDF80C80FEF7D9FB0C2174
:102090000020FEF75EFE8DF804408DF80560CDF857
:1020A00000808DF806506846FEF704FB8DF8087036
:1020B0008DF809508DF80A408DF80B5002A8FEF7F4
:1020C000F4F88DF810402F028DF8134003A9124840
:1020D0000397FEF7B5FB08210220FEF73AFE8DF8C4
:1020E00004408DF8056000978DF806506846FEF7AD
:1020F000E1FA8DF808908DF809508DF80A408DF8B6
:102100000B5002A8FEF7D1F806B0BDE8F08700003A
:1021100000040240000002400008024070B506467C
:1021200088B001210220FEF73CFD01211020FEF7BE
:1021300060FD6D4D072209212846FEF7F1FB0722BD
:102140000A212846FEF7ECFB00248DF816400120FA
:102150008DF8170002218DF814104FF4C060049020
:102160008DF8151004A92846FEF76AFB5F4D012182
:102170002846FFF7C4FBADF808400C20ADF80A0074
:10218000ADF80440ADF80640ADF818402815ADF89C
:102190001A00ADF81E400096ADF80C40ADF81C409A
:1021A00069462846FFF723FB06A92846FFF781FB6F
:1021B00001212846FFF791FB08B070BD0020704751
:1021C00070B54A4D0446C1B22846FFF7ACFB8021EA
:1021D0002846FFF739FC0028F9D0204670BD434857
:1021E00001888906FCD58088C0F30800704770B567
:1021F0003E4D044680212846FFF726FC0028F9D0F2
:10220000A1B22846FFF78FFB204670BD10B538A05D
:1022100002F018FA354C20212046FFF715FC002863
:10222000F9D02046FFF783FBC0B210BD10B539A02E
:1022300002F008FA2D4C20212046FFF705FC00286B
:10224000F9D02046FFF773FB01463AA002F0FAF9F5
:102250002046FFF76CFBC0B210BD10B537A002F0EE
:10226000F1F9224C20212046FFF7EEFB0028F9D09F
:102270002046FFF75CFBA0F1300137A002F0E2F945
:102280002046FFF754FB303810BD10B50446014618
:1022900086B033A001E0214638A002F0D3F96946A8
:1022A00041A002F0F1FA694640A002F0CBF92146C4
:1022B000684602F00FFC0028EDD106B010BD38B51D
:1022C000044601463BA001E0214641A002F0BAF9D4
:1022D00069464AA002F0D8FA1FA0009902F0B2F9AC
:1022E000009AA242F0D138BD000002400010014027
:1022F0000D0A707265737320616E79206B657920A9
:10230000746F20636F6E74696E75652E2E2E0D0AC4
:102310000D0A0000706C6561736520656E746572EE
:102320002061206368617261637465722E2E2E0DC8
:102330000A00000025630D0A00000000706C656152
:10234000736520656E7465722061206469676974C5
:102350002E2E2E0D0A00000025640D0A000000003C
:10236000507265737320257320746F20436F6E74F1
:10237000696E75652E2E2E203A000000496E76613A
:102380006C696420696E7075742C2070726573734B
:1023900020257320746F20436F6E74696E75652EEF
:1023A0002E2E203A000000002573000025730D0A30
:1023B00000000000507265737320256420746F2044
:1023C000436F6E74696E75652E2E2E203A000000E4
:1023D000496E76616C696420696E7075742C20702A
:1023E0007265737320256420746F20436F6E746967
:1023F0006E75652E2E2E203A000000002564000028
:102400001CB501210420FEF7EAFB4FF47070009028
:1024100002208DF8040003208DF8050000208DF8BF
:102420000600504C8DF8070069462046FEF708FA72
:10243000022206212046FEF773FA022207212046D7
:10244000FEF76EFA022208212046FEF769FA022200
:1024500009212046FEF764FA1CBDF0B589B040F2B0
:10246000E73006900320ADF8140000263E4FADF88B
:102470001C60ADF8166005A93846FEF71FFD602008
:102480003A4DADF800000124ADF8024028880290D2
:10249000ADF80C6069463846FEF792FD08213846D3
:1024A000FEF7CFFEADF802406888029069463846D4
:1024B000FEF7B2FD08213846FEF7C9FEADF802402E
:1024C000A888029069463846FEF7E2FD08213846A2
:1024D000FEF7C7FEADF80240E8880290694638462C
:1024E000FEF710FE08213846FEF7C1FE01213846EE
:1024F000FEF742FD01213846FEF758FD09B0F0BD58
:1025000010B5FFF77DFFBDE81040A6E71849096840
:10251000884200DD08464942884200DA0846124AED
:1025200000233432111D002802DB10600B6070475D
:1025300013604042086070470D490968884200DD19
:1025400008464942884200DA0846074B00223C33DD
:10255000191D002802DB1A600860704740421860AD
:102560000A60704700040240000800409400002008
:102570002400002030B58BB001210220FEF72FFB94
:102580004020059002208DF8180003218DF81910C5
:1025900000248DF81A40354D8DF81B0005A92846FA
:1025A000FEF74EF9022206212846FEF7B9F99520DA
:1025B00008908B20ADF81C002D4DADF82440ADF8EF
:1025C0001E4007A92846FEF779FC6020ADF8000000
:1025D0000120ADF802000294ADF80C40694628468F
:1025E000FEF7EEFC08212846FEF72BFE01212846C7
:1025F000FEF7C2FC01212846FEF7D8FC0BB030BD27
:102600002DE9F04105461B498C2068430860184EAF
:1026100095202C3630600024154FA04634370CE04E
:102620003068401CC00838604620FFF730FCC7F80F
:1026300000804620FFF72BFC641CAC42F0DBBDE8B9
:10264000F0810B4A10B52C321368094C5B1C9B08B7
:1026500034342360084B93FBF1F18C2391FBF3F1AD
:10266000491E11600349086010BD000000000240CF
:10267000000400409C00002000BD01057CB5012144
:102680000920FEF7ACFA02208DF8040001208DF835
:10269000070048F203002E4C009069462046FEF7E2
:1026A000CFF808212B4D009169462846FEF7C8F85F
:1026B000022200212046FEF733F9022201212046A2
:1026C000FEF72EF901220F212046FEF729F90122FB
:1026D00003212846FEF724F91F4C4FF0FF35294609
:1026E0002046FEF72FFC29464FF080452846FEF78E
:1026F00029FC0223002203212046FFF701F80023D2
:102700001A4603212846FEF7FBFF01212046FEF76B
:102710004DFC01212846FEF749FC7CBD0E482430C3
:10272000006870474FF08040406A70470A490020B7
:102730002431086070474FF08041002048627047A4
:1027400005492431086070474FF080414862704766
:102750000000024000040240000C004070B501215E
:102760008CB00802FEF745FABC20032500908DF8D6
:10277000045000248DF8074069463648FEF760F89B
:10278000354E8DF8045000958DF807406946304667
:10279000FEF756F88DF804503020304D00908DF83B
:1027A000074069462846FEF74BF84FF48030CDE9E4
:1027B00008404FF47060CDE90A4008A8FDF7FFFD1E
:1027C0008DF80C4002948DF80D400594069401207C
:1027D000234C8DF81C0002A92046FDF7C5FD0122FF
:1027E00040F205212046FDF725FF01212046FDF797
:1027F000FBFDA1143046FEF786F861143046FEF763
:1028000082F84FF480413046FEF77DF84FF40041E6
:102810003046FEF778F840212846FEF774F880210C
:102820002846FEF770F80CB070BD10B5134604468C
:102830000122FDF70CFE2046FDF743FE0221204653
:10284000FDF701FF0028F9D02046BDE81040FDF754
:102850006ABE00000000024000040240000802407E
:10286000002001402DE9F05FBF4D042209212846D8
:10287000FFF7DBFFBD4C04220521E0602846FFF78F
:10288000D4FF2061042208212846FFF7CEFF6061B3
:10289000042207212846FFF7C8FFA06104220F2168
:1028A0002846FFF7C2FFE06104220E212846FFF709
:1028B000BCFF2062FFF7D5FAAD4E83464FF4805936
:1028C00049463046FEF71DF8DFF8A88280214746CA
:1028D0004046FEF716F859463C20FFF7EAFA042274
:1028E00009212846FFF7A1FFE1680422401AE060B1
:1028F00005212846FFF799FF2169401A20614946C2
:102900003046FEF700F880213846FDF7FCFFE0680E
:102910000027002800DAE7602069002800DA276134
:102920005946C820FFF7C5FA4FF4005A5146B14640
:102930003046FDF7E6FF402146464046FDF7E1FF01
:1029400059464FF4AA70FFF7B4FA0422082128462A
:10295000FFF76BFF61690422401A60610721284676
:10296000FFF763FFA169401AA06151464846FDF791
:10297000CAFF40213046FDF7C6FF6069002800DA33
:102980006761A069002800DAA761E26820684FF457
:102990007A71424392FBF1F2E2602269424392FB78
:1029A000F1F222616269424392FBF1F26261A26933
:1029B000424392FBF1F0A061BDE8F09F2DE9F047A2
:1029C000FFF74FFA684D814604220F212846FFF792
:1029D0002CFF664C04220E21E0612846FFF725FFFC
:1029E000634F4FF48046206231463846FDF789FF39
:1029F0004FF4004841463846FDF783FF49464FF4FF
:102A0000AA70FFF756FA04220F212846FFF70DFFA0
:102A1000E1690422401AE0610E212846FFF705FF14
:102A2000216A401A206231463846FDF76CFF414664
:102A30003846FDF768FFE1690020002900DAE0610F
:102A4000216A002900DA2062E26920684FF47A7175
:102A5000424392FBF1F2E261226A424392FBF1F0BF
:102A60002062BDE8F0872DE9F04128253F4E002087
:102A70003D4F04467062042211463846FFF7D5FEEA
:102A8000716A641C08447062AC42F4DB4CF2503151
:102A900091FBF5F0726A5043374A104490FBF1F015
:102AA000C11700EB5170C0107062B16A0844B06287
:102AB000BDE8F08110B5042203212B48FFF7B5FED5
:102AC0002A4C606003F025FC9FED2C1B53EC112B6E
:102AD00003F098FA03F0EEFBA06010BD70B5FFF7AD
:102AE000E9FF224841F65831806888423BDA0020ED
:102AF000FFF70CFD0020FFF71FFD04212148FDF723
:102B000000FF1C4C4FF4805529462046FDF7F9FE86
:102B1000A1151D48FDF7F5FE61152046FDF7F1FEF4
:102B20002946134D2846FDF7EEFE4FF40051284686
:102B3000FDF7E9FE4FF480412846FDF7E4FE4FF42F
:102B400000412846FDF7DFFE40212046FDF7DBFE71
:102B500080212046FDF7D7FE4FF47A742146C82025
:102B6000FFF76FFDFAE770BD00200140A0000020D4
:102B7000000402400008024008136DFAAC1C5A64BD
:102B80003BDFD33F000C0240000002400D460646EA
:102B9000B74FDFF8E0824FF47A79FFF762F9044625
:102BA000FFF760FE3868301AFFF7B0FCD8F8000075
:102BB000281AFFF7C1FC21464846FFF77AF9ECE7EF
:102BC000AB4810B50268AC48AC4C4FF48051036878
:102BD00020469A4202DDFDF794FE01E0FDF793FEE8
:102BE000A748A849A84A0068096888424FF004012C
:102BF000104602DDFDF785FE01E0FDF784FEA348E7
:102C00004FF400710268A24800688242204602DD4B
:102C1000FDF777FE01E0FDF776FE96484FF48071F0
:102C200002689C4803689C489A4203DDBDE8104056
:102C3000FDF767BEBDE81040FDF765BE70B50D46F7
:102C40000446FFF778FDFFF771FD2046FFF75EFCB5
:102C50002046FFF771FC2846FFF719F90020FFF71F
:102C600055FC0020FFF768FC6420FFF710F9FFF720
:102C700055FD0446FFF756FD201A70BD0EB5002124
:102C8000864801228946017085488B468A46027033
:102C900084480D460E4601708348CDE90021036843
:102CA00082480F460C4603608149002001220870CB
:102CB0008049834B087080488049027000980968F9
:102CC0001B684843A0EB0308B9F1000F08D101EBE2
:102CD0004100C31700EB9373B8EBA30F00DC9146E0
:102CE00039EA0A0001D072480270BBF1000F32D1FC
:102CF00001EBD171B8EB610F2DDC5D485E494FF0FF
:102D0000010B00680968884206DD5A48614900687D
:102D10000968884200DD012559485A490068096858
:102D2000884200DD012659485949006809688842EF
:102D300000DD0127FFF7A8F800F00304641C012C54
:102D40000DD0022C0ED0032C0FD0042CF2D105EAAA
:102D500006003842EED0BAF1000F09D012E0002D83
:102D6000E8D1F8E7002EE5D1F5E7002FE2D1F2E750
:102D700052480068C11700EB9171B8EBA10F06DC57
:102D80004FF0010A25B14A490020087006E02DB92C
:102D9000022C03D0032C01D0042C2CD1494890EDF7
:102DA000000AB8EEC00A00F017FABDEEC00A10EE35
:102DB000100A00B20290444890ED000A00F00CFAAC
:102DC000BDEEC00A029A10EE100A01B2404600F0B1
:102DD000D9FA00EE100A3D48B8EEC00AD0ED000A5C
:102DE000B4EEE00AF1EE10FA01D22F4800E03548C7
:102DF00001682E480160019810B9B8F1000F0ADD92
:102E00001B484FF4FA610068884204DC19480068E6
:102E100088427FF749AF00984FF47A71401C0090C8
:102E2000C820FFF70EFC35B1642240F232514FF456
:102E3000AA6000F0E1F8022C04D0032C04D0042C8A
:102E400004D00AE0224802E0224800E0224890ED47
:102E5000000AB8EEC00A00F041F84FF00009CB4676
:102E6000CA464D464E464F46CDF804901CE700003A
:102E7000AC000020B00000206C00002000080240E0
:102E8000B400002074000020000C0240B8000020B4
:102E90007800002070000020000002401F00002089
:102EA000200000206B00002038000020D40000200B
:102EB0001C0000201D0000201E00002064000020D7
:102EC0004C0100203C000020CC0000201801002014
:102ED00044000020480000204C0000202DE9F05F55
:102EE000DFF8EC80DFF8ECA03B494FF0000B2DED54
:102EF000088BF0EE409AD8F80060DAF80050C1F87C
:102F000000B0FEF7C1FF0446344FDFF8D490FEF75F
:102F1000BBFF001BC828FAD34C46C146D046DFF899
:102F2000C4A09FED31AB9FED32BBD9F80000801BF0
:102F300000EE100AB8EEC00A00F099FAD8F80000C6
:102F4000B0EE408A401B00EE100AB8EEC00A00F056
:102F50008EFA38EE009AB0EE690A00F088FA10EEA8
:102F6000100A03F0EBFA41EC180BDAF8000003F05A
:102F7000E5FA53EC1A2B03F0E3F953EC182B03F0AA
:102F8000DFF953EC1B2B03F03DF803F009F800EEDA
:102F9000100A00F055FAB4EEC09AF1EE10FA08D219
:102FA000F5EEC09A3868F1EE10FA00D34042206086
:102FB000BBE7C4F800B0FEF767FF0446FEF764FF06
:102FC000001BC828FAD3BDEC088BBDE8F09F0000B9
:102FD0002C01002030010020D4000020340000200B
:102FE000D8000020600000201F85EB51B81E09406A
:102FF00000000000008066402DE9F05F88468246B0
:1030000020482149DFF884B0D0F8009009680160B9
:1030100001201F498BF80000002017460870FEF7BA
:1030200033FF06464FF47A7413E0FEF71AFF19498E
:1030300005460968AAEB0100FFF768FA1649096816
:10304000A8EB0100FFF778FAFEF70BFF401BA04248
:10305000FAD3FEF719FF801BB842E6D30F48006889
:10306000FFF772FB0E480068FFF76AFB0549002076
:10307000C1F8009006498BF8000001200870BDE8F7
:10308000F09F000024000020280000201C000020E9
:103090001E000020AC000020B00000202C01002009
:1030A0003001002030B5FE480168FE480368FE4844
:1030B000FE4C99420268FE48006803DD904201DD43
:1030C000451AA560994202DDFA48006803E0904283
:1030D00003DDF9490968401A00E00020A06030BD16
:1030E00070B5F24CF14D803CD4E91C104218401AE6
:1030F000C4E90420F1492B69096891FBF3F1F04B15
:103100001B780BB1084603E0EE4B1B7803B908446B
:1031100000EE102AD4ED000AB8EEC00A30EEC00A64
:10312000D4ED080A30EE200A84ED080A00EE100AF9
:10313000D4ED010AE448B8EEC00A30EEC00AD4ED7E
:10314000090A30EE200A84ED090A007878B1FFF709
:10315000A9FFD5E9020190FBF1F000EE100AD4EDD1
:10316000090AB8EEC00A30EE800A84ED090A94ED2F
:10317000080AD4ED0E0A94ED0A1AD4ED0F1A60EE87
:10318000800A30EE411A04F1280341EE810AFDEE77
:10319000E00A10EE902A2263D4ED090A94ED101A89
:1031A000D4ED0B1A94ED112A21EE201A70EEE11ADB
:1031B00002EE211ABDEEC11A11EE101A6163501A07
:1031C00083EC020A1144C4E91601FFF79FF9E06D90
:1031D000BDE87040FFF7B0B9BC48D0ED000ABC486C
:1031E000F8EEE00A60EE200A90ED000AB948B8EE69
:1031F000C00A90ED001A20EE800AC0EE010A9FED91
:10320000B61A80EE810A7047A84900B58039B0EE41
:10321000001A91ED020AD1ED000AB8EEC02ADFEDE6
:10322000AE1AF4EEC20AF1EE10FA17D291ED120ABC
:1032300020EE010AFFF7D0FFC0EE210A91ED000A4F
:1032400070EE800AC1ED000A91ED020AB8EEC01AD4
:10325000F4EEC10AF1EE10FA1EDC21E0B8EEC00A6D
:10326000F4EEC00AF1EE10FA1ADD91ED130A20EE29
:10327000010AFFF7B1FFC0EE210A91ED000A70EEDE
:10328000600AC1ED000A91ED020AB8EEC01AF4EE30
:10329000C10AF1EE10FA03D2B8EEC00A81ED000ABD
:1032A00091ED030AD1ED010AB8EEC01AF4EEC10A9D
:1032B000F1EE10FA11D291ED141A70EE810AB8EE07
:1032C000C01AC1ED010AF4EEC10AF1EE10FA03DDF5
:1032D000B8EEC00A81ED010A00BDB8EEC01AF4EEE6
:1032E000C10AF1EE10FAF7DD91ED151A70EEC10A80
:1032F000B8EEC01AC1ED010AF4EEC10AF1EE10FAFF
:10330000E6D300BD70B5FFF70DFA684C803C20662F
:10331000FFF704FA226EA16E511A2167E36EC4E929
:103320001A20C31ACD1805EBD5756D10C4E91D35EB
:1033300011441844C4E9181008445C4900EBD070EB
:1033400040100860E06F401BE06770BD10B5FFF7EC
:10335000D9FFFFF759FFBDE81040C1E65D48D0ED49
:10336000000A5A4820EE201A90ED000A5848B8EE9C
:10337000C00AC1EE000A90ED000AB8EEC01A80EE55
:10338000810A704700B5002901DA494209B2002AD2
:1033900001DA524212B2002801DC4FF0010000EEC7
:1033A000100AB8EEC00AFFF7D9FF11FB01F002FBCB
:1033B00012006421484300EE900AB8EEE01AC1EE14
:1033C000000AB5EE000A20EE800ABDEEC00A10EE3B
:1033D000100A002800DA404200BD10B53A48002427
:1033E00004703E4804703E4804702046FFF78EF893
:1033F0000020FFF7A1F82D489FED3A0A80382B49AD
:1034000080ED060A80ED070A80ED000A80ED010AD2
:103410008460C46080ED080A80ED090A80ED0A0A24
:1034200080ED0B0A8466C466046644660C604C60DA
:103430008465C465FFF77FF9BDE81040FFF776B9F2
:103440002248D0ED000A2248F8EEE00A60EE200A99
:1034500090ED000A1F48B8EEC00A90ED001A60EE29
:10346000800A80EE810A70479FED1E0A7047B5EE14
:10347000C00AF1EE10FA01D2B1EE400A70472DE910
:10348000F041DFF844C00546144901208CF80000E3
:1034900000270F701249054B134C0870803B25E044
:1034A000B400002074000020780000204C010020AF
:1034B000B80000207C00002080000020C400002014
:1034C000690000206A0000201C0000205400002039
:1034D000580000205C0000200000C8421D000020B1
:1034E00068000020000000002C000020DF60206841
:1034F0009860234803F18006804601686943D967D4
:103500002EE0D96F00EBD070B1EB600F01DA8CF8D0
:10351000007094ED000AB8EEC00AFFF75DFEBDEE44
:10352000C00A10EE100A93ED000A02B2FFF754FE33
:10353000BDEEC00A10EE100A01B2D86FFFF722FFED
:1035400000EE100AD3ED130AB8EEC00AB4EEE00A9A
:10355000F1EE10FA02D20B48006800E02068986093
:10356000D6E90001411AD8F8000005FB00F29142AB
:10357000C7DB2068986030687060BDE8F0810000AB
:1035800064000020300000202DE9F041444F0F2559
:10359000002407EB851643A056F8241001F052F8DA
:1035A000641C102CF7DB40A001F04CF86D1EEFD529
:1035B000BDE8F0812DE9F047DFF8F080DFF8E0901A
:1035C0000F25002409EB851656F8240000F090F82A
:1035D00008B137A000E038A001F034F8641C102CCA
:1035E000F2DB37A001F02EF82FA001F02BF8354FB9
:1035F000002456F8240000F084F808B132A000E05E
:1036000032A001F01FF83868854216D130480068B2
:10361000844212D198F800004E2806D0452806D0E2
:10362000532806D0572806D01FE02AA012E02AA06F
:1036300010E02AA00EE02AA00CE056F8240000F0CA
:1036400066F808B127A005E056F8240000F05CF801
:1036500018B125A000F0F6FF07E0244800EB851024
:1036600050F824100FA000F0EDFF641C102CC0DBFC
:1036700015A000F0E7FF0CA000F0E4FF6D1EA0D540
:1036800000240BA000F0DEFF641C102CF9DB0CA062
:1036900000F0D8FFBDE8F04703A000F0D3BF000062
:1036A0007C010020253364000A0D00006301002026
:1036B0002B2D2D2D000000002B20202000000000CD
:1036C0002B000000140000207C00000020000000FF
:1036D00010000020205E2000203E200020762000E8
:1036E000203C200020782000202E20007C05002097
:1036F000C0F300007047C0F340007047C0F3800083
:103700007047C0F3C0007047C0F300107047C0F3AB
:103710004010704745480068072801D0082806D1A6
:103720004349444A0968072903D0082903D00020E7
:103730007047072813D002F5CE720829136C43F0A6
:103740000C031364136843F001031360D36B43F05D
:103750000203D363A2F5CE7201D1072813D002F57C
:1037600006720829536843F009035360536C43F011
:1037700004035364136843F002031360A2F5067256
:1037800001D1082813D002F508720729136843F005
:1037900003031360136C43F004031364536843F092
:1037A00008035360A2F5087201D108280DD002F574
:1037B000D072106C40F004001064106840F00100FA
:1037C0001060506C40F0080050640120704730B524
:1037D000184A194D02EB811205EB811152F8202095
:1037E0004FF4FA73C2F3000401EB80010CB11846E8
:1037F00000E0086CC2F340040CB11D4600E04D68C7
:10380000C2F380040CB11C4601E051F8404CC2F3F5
:10381000C0020AB951F8043C854200DA28468442C5
:1038200000DA2046834200DA184630BD100000203E
:10383000140000207C0100207C05002030B52A4ABD
:10384000106840F00E001060506840F00C005060AE
:10385000002002EB8001401CD1F8C033102843F057
:103860000103C1F8C033F4DB002002EB8011401CDF
:10387000CB6B102843F00203CB63F6DB002052F839
:10388000201041F0040142F82010401C1028F6DB03
:10389000002002EB8011401C0B68102843F0080345
:1038A0000B60F6DB0E20114C0022002104EB82138A
:1038B000072943F8210001DA401E04E0A1F10805C0
:1038C000072D00D2401C491C1029F1DB072A01DA20
:1038D000401E04E0A2F10801072900D2401C521C3E
:1038E000102AE2DB30BD00007C0100207C050020B6
:1038F000FB48C17840684E2906D0452907D0532996
:1039000008D0572909D00AE005280AD007E0062880
:1039100007D004E0072804D001E0082801D00120E6
:103920007047002070472DE9F041DFF8B8834FF46D
:1039300080760025002408EB8517072D01D0082D7F
:1039400003D1072C08D0082C06D029462046FFF7C3
:103950003EFF401C47F82400641C102CEDDB6D1C5E
:10396000102DE7DB761EE4D5BDE8F081F0B5DC482C
:10397000DE4ADD49C778067845788478DC481368E4
:103980004E2F006801EB831202EB800132D0452FED
:103990005BD0532F7ED0572F2BD16EB152F82060C1
:1039A000002846F0080642F8206005DD51F8046C56
:1039B00046F0020641F8046C6DB152F82050002B1D
:1039C00045F0040542F8205005DD51F8405C45F013
:1039D000010541F8405C002C0BD052F820400F2B21
:1039E00044F0010442F8204003DA086C40F004007F
:1039F0000864F0BD5EB152F820600F2B46F001065E
:103A000042F8206003DA0B6C43F004030B646DB1E1
:103A100052F82030002843F0080342F8203005DD3A
:103A200051F8043C43F0020341F8043C002CE0D080
:103A300052F820300F2843F0020342F82030D8DA41
:103A4000486840F008004860F0BD5EB152F8206060
:103A50000F2846F0020642F8206003DA4E6846F06E
:103A600008064E605DB152F820500F2B45F001055D
:103A700042F8205003DA0D6C45F004050D64002C6B
:103A8000E2D052F82040002B44F0040442F82040D9
:103A9000DADD00E004E051F8400D40F0010029E0DB
:103AA0006EB152F82060002B46F0040642F8206008
:103AB00005DD51F8403C43F0010341F8403C5DB165
:103AC00052F820300F2843F0020342F8203003DA86
:103AD0004B6843F008034B60002CB5D052F82030FF
:103AE000002843F0080342F82030ADDD51F8040D02
:103AF00040F002000860F0BD2DE9F04F7D4887B02E
:103B000000247D490470012008707C487749DFF863
:103B1000D8B104700120CDE90440019474480394A5
:103B200002940694096800680BEB811151F820009B
:103B3000FFF7EAFD78B96D486D49006809680BEB3D
:103B4000801050F8212042F0100240F821206C48EB
:103B50000168491C01606B48DFF8848101686A488C
:103B60000160AFE2694900200122087068496B4B8F
:103B70000870684868490270059809681B684843DE
:103B8000A0EB03090398A0B9894512DC012003903A
:103B900098F803004E2806D0452806D053280BD0AD
:103BA00057280BD005E0514800E0514803685B1CE2
:103BB0000360019830B10FE04C4800E04C480368C6
:103BC0005B1EF5E701EB4100C31700EB9373B9EB04
:103BD000A30F01DC01200190DDE90103984301D02E
:103BE0004A4802700498002877D101EBD171B9EBF3
:103BF000610F72DC0120049049484A490068096855
:103C0000884207DD4848494900680968884201DD63
:103C100088F800204648474900680968884201DD65
:103C200088F801204448454900680968884201DD58
:103C300088F8022042A000F005FDFFF797FE45A09E
:103C400000F000FD294D2A4C29682068FFF7BFFDD0
:103C500024492A68401C01EB8211226841F82200A5
:103C600046A000F0EFFCFFF75EFE286821680BEB32
:103C700080105E4650F82100FFF73AFD10B14FF476
:103C8000FA7707E01748296800EB8110216800EBFC
:103C90008100076C2968B24606EB8110216850F854
:103CA0002100FFF728FD10B14FF4FA7607E00D4828
:103CB000296800EB8110216800EB810046682968C3
:103CC000D3460BEB81102168AA4650F82100FFF77C
:103CD00015FD18B14FF4FA7566E072E15AE0000084
:103CE000600100207C0500207C01002014000020E1
:103CF000100000201F000020200000206B0000208A
:103D00001800002038000020D40000201C000020F3
:103D10001D0000201E000020640000204C01002037
:103D2000AC0000206C000020B000002070000020DB
:103D3000B400002074000020B800002078000020AB
:103D4000446574656374696E672077616C6C730A8F
:103D50000D0000005570646174696E6720646973BA
:103D600074616E636520666F722063757272656E32
:103D70007420626C6F636B0A0D0000005570646103
:103D800074696E672064697374616E6365730A0D8C
:103D900000000000E748DAF8001000EB811021680D
:103DA00000EB810050F8405CE3492068A2460968B6
:103DB0000BEB811151F82000FFF7A3FC10B14FF479
:103DC000FA740AE0DC49DB48096800EB8111DAF893
:103DD000000001EB800050F8044C2B463246394677
:103DE000D6A0009400F02EFCDFA000F02BFCB74220
:103DF00005DAAF4203DAA74201DA052016E0BE4237
:103E000005DAAE4203DAA64201DA06200EE0B54238
:103E100005DABD4203DAA54201DA072006E0B44222
:103E200007DAAC4205DABC4203DA0820C8F804001D
:103E30006FE098F8030044464E280AD1BE49DAF8EC
:103E4000000009680BEB811151F82000FFF750FCCE
:103E500018B1E078452802D00CE0052058E0B649BA
:103E6000DAF8000009680BEB811151F82000FFF728
:103E700042FC18B1E078532802D00CE0062047E05D
:103E8000AD49DAF8000009680BEB811151F8200008
:103E9000FFF734FC18B1E078572802D00CE0072077
:103EA00036E0A549DAF8000009680BEB811151F8FA
:103EB0002000FFF726FC50B39F4EDAF800105D4655
:103EC000306857460BEB801050F82100FFF710FCCC
:103ED0000028C2D03068396805EB801050F8210006
:103EE000FFF709FC0028C9D03068396805EB80105D
:103EF00050F82100FFF702FC0028D0D03068396864
:103F000005EB801050F82100FFF7FBFB08B90820F3
:103F100060609CA0D8F8041000F094FB9DA000F015
:103F200091FB4FF4807A0026002456EA04003FD02B
:103F30000BEB861555F82400FFF7DAFB074655F81A
:103F40002400FFF7D8FB074455F82400FFF7D6FB01
:103F5000074455F82400FFF7D4FB3844032827DB37
:103F600055F824000F2E40F02F0045F8240005DA04
:103F700005EB8400016C41F0040101640F2C05DAAB
:103F800005EB8400416841F008014160002E06DD28
:103F900005EB840050F8401D41F001010160002C48
:103FA00006DD05EB840050F8041D41F002010160BC
:103FB000641C102CB9DB761C102EB5DBBAF1010A9B
:103FC000B1D5029848B979480068C11700EB9171E2
:103FD000B9EBA10F08DC0120029098F8000030B185
:103FE00073490020087005E098F8000010B9FFF749
:103FF0007FFC58B36F4D95ED000AB8EEC00AFFF78D
:10400000EBF8BDEEC00A10EE100A04B26A4890ED5B
:10401000000AFFF7E1F8BDEEC00A224610EE100AD2
:1040200001B24846FFF7AEF900EE100A6348F8EE19
:10403000C00A90ED000AF4EEC00AF1EE10FA05D3C2
:1040400029685F480160069880BB02E05D4801680E
:10405000F7E7B9F1000F35DC5BA000F0F3FA059843
:104060004FF47A71401C0590C820FEF7EAFA98F8E0
:104070000000444638B1594840F2325102684FF4CA
:10408000AA60FEF7B9FF6068052806D0062807D0A9
:10409000072808D008280AD00BE000F0A5F808E0AF
:1040A00000F0DAF805E000F00FF902E00AE000F0B5
:1040B00041F9002001900390049002900690207036
:1040C0006070A070FFF726FB00283FF44BAD3C4822
:1040D00000244FF47A72046040F232514FF4AA6027
:1040E000FEF78AFF98F803004E2806D0452808D02E
:1040F00053280BD0572819D00BE00F480168491CF2
:1041000006E037490868401C086002E00A480EE0F3
:104110000160344804700020FEF7F8F90020FEF733
:104120000BFA07B0BDE8F04FFFF744BA2C4801681E
:10413000491EEDE77C0500201400002064697374BB
:104140004E2025642C2064697374452025642C203E
:1041500064697374532025642C2064697374572038
:1041600025640A0D000000004465636964696E6798
:10417000206E657874206D6F76656D656E740A0DBE
:10418000000000006E6578744D6F76652025640A26
:104190000D000000506C6163696E67207073657577
:1041A000646F2077616C6C730A0D0000640000205E
:1041B0001C0000203C000020CC0000201801002042
:1041C000D4000020380000205265616368656420D7
:1041D00066756C6C2063656C6C0A0D0040000020F5
:1041E000100000201E00002070B575A000F02AFA13
:1041F000774C20784E2811D0572804D0452804D079
:10420000532804D00AE0734802E0734800E0734882
:1042100090ED000AB8EEC00AFEF760FE4E20207056
:10422000704E714C6E4D3068216805EB801050F86F
:104230002100FFF769FA00280DD13068216805EBED
:10424000801050F8212042F0100240F821206748E9
:104250000168491C016070BD70B565A000F0F2F9FD
:104260005B4C20784E2806D0572806D045280DD024
:10427000532804D00AE0574802E0584800E0564866
:1042800090ED000AB8EEC00AFEF728FE4520207027
:10429000544E554C524D3068216805EB801050F853
:1042A0002100FFF731FA00280DD13068216805EBB5
:1042B000801050F8212042F0100240F821204B4895
:1042C0000168491C016070BD70B54DA000F0BAF9DD
:1042D0003F4C20784E2804D0572804D0452804D0DD
:1042E0000AE03E4802E03C4800E03A4890ED000A0F
:1042F000B8EEC00AFEF7F2FD53202070394E3A4C5A
:10430000374D3068216805EB801050F82100FFF729
:10431000FBF900280DD13068216805EB801050F8BA
:10432000212042F0100240F8212030480168491C49
:10433000016070BD70B536A000F084F9244C20787F
:104340004E2806D057280FD0452804D0532804D033
:104350000AE0214802E0214800E01E4890ED000AF2
:10436000B8EEC00AFEF7BAFD572020701D4E1E4C55
:104370001B4D3068216805EB801050F82100FFF7D5
:10438000C3F900280DD13068216805EB801050F882
:10439000212042F0100240F8212014480168491CF5
:1043A000016070BD4E2806D0452805D0532804D0A2
:1043B000572803D1BEE717E74EE785E770470000AF
:1043C0004D6F76696E67206E6F7274680A0D00001B
:1043D0006301002048000020440000204C00002021
:1043E0007C01002014000020100000201800002094
:1043F0004D6F76696E6720656173740A0D00000069
:104400004D6F76696E6720736F7574680A0D0000D2
:104410004D6F76696E6720776573740A0D00000032
:104420000948804709480047FEE7FEE7FEE7FEE748
:10443000FEE7FEE7FEE7FEE7FEE7FEE70448054984
:10444000054A064B704700005F45000889010008D7
:10445000E0090020E00F0020E00B0020E00B00202E
:10446000F0B56C4A0020116841F4803111604FF4BE
:10447000A063116800F1010011F4003F01D19842DE
:10448000F7D11068674E8103634CDFF890E1644D0B
:10449000DFF894C140F2056706F104002BD52168CE
:1044A00041F080512160DEF8001041F48041CEF8E7
:1044B000001001680160016841F400410160016879
:1044C00041F4A05101603560116841F080711160C4
:1044D00011688901FCD5CCF80070016821F0030156
:1044E0000160016841F0020101600168C1F38101CE
:1044F0000229FAD1F0BD11684C4B194011601168C6
:1045000041F001011160216841F080512160DEF825
:10451000001041F48041CEF800100168016001688C
:1045200041F400410160016841F4A051016035602F
:10453000116841F08071116011688901FCD5CCF8D7
:104540000070016821F003010160016841F002017F
:1045500001600168C1F381010229FAD1F0BD34483C
:1045600010B5016841F4700101602A48016841F00A
:10457000010101602B4A0021121D116002682B4BC2
:104580001A400260031D2B4A1A60026822F480223E
:104590000260244808300160FFF762FF24494FF0B1
:1045A00000608039086010BD70B51E4D2D1D286853
:1045B000214B224910F00C0004D05E10042803D0D7
:1045C000082803D00B601AE00E6018E0154A106846
:1045D000C0F38054106800F03F0014B1B6FBF0F057
:1045E00001E0B3FBF0F013681268C3F3881358437B
:1045F000C2F30142521C5200B0FBF2F0086028687E
:104600000E4AC0F30310121D105C0A68C2400A6013
:1046100070BD000000380240403802400070004089
:104620001054000704380240003C0240FFFFF6FE31
:1046300088ED00E0103000240024F4006801002020
:10464000704700000FB4044910B503AA029800F0A7
:1046500007FD10BC5DF814FB8C00002070B504460B
:1046600085690068C10601D5302600E02026C00714
:1046700008D070BDD4E9012130469047206A00F18E
:10468000010020626D1EF5D570BD70B504468569C8
:104690000078C00708D170BDD4E9012120209047DF
:1046A000206A00F1010020626D1EF5D570BD70B565
:1046B0000C460546012A05D02878800600D5EA690F
:1046C000002302E0012305E05B1C934202D2E05C80
:1046D0000028F9D1A869E618C01AA861286A184408
:1046E00028622846FFF7BAFF04E0D5E9012114F853
:1046F000010B9047B442F8D32846FFF7C6FF70BDC0
:104700002DE9F0410646002410687529314616A5AA
:1047100011D0AFF30080002803DAC0F1000013A528
:1047200007E031688A0701D511A502E0490704D5E1
:1047300010A5012401E0AFF3008000210A2306F157
:10474000240707E0B0FBF3F203FB1200303078548B
:104750001046491C0028F5D123462A463046BDE8BC
:10476000F04100F0FBB90000000000002D00000047
:104770002B000000200000002DE9F0474FF0000A58
:1047800089460446C0F820A02046E16888470028F2
:1047900076D0252806D0D4E901219047206A401C14
:1047A0002062F1E7E168204600258847C4F81CA094
:1047B00006460027C4F818A02A2E09D0304601F07A
:1047C000BCFB38B304EB8708303EC8F8186019E02A
:1047D00059F8041B204604EB87029161E168884781
:1047E000012F064618D1E069002820DA25F02005BF
:1047F0001DE0D8F8180000EB800006EB40003038D0
:10480000C8F818002046E1688847064601F095FB85
:104810000028EED1012F0AD02E2E08D12046E168C3
:1048200088477F1C0646022F45F02005C4DBA0699F
:10483000002803DA404245F00105A061E80701D0F5
:1048400025F01005B6B1A6F14100192802D820368E
:1048500045F400654A463146204625604D46FBF743
:10486000EDFC58B1012806D0ED1D25F0070000F140
:10487000080989E704E005F1040985E730468AE77D
:10488000206ABDE8F08700000FB400B589B00BA81E
:104890006A46009003480A9900F002FC09B05DF8EE
:1048A00014FB0000900000202DE9FF5F1D464FF033
:1048B000FF3B91464FF000085F46D5E90146A969E4
:1048C00001987F1C8847296A824688470028F6D1CC
:1048D0001AF101000CD0002E24F4C06419DD60062A
:1048E00014D5BAF12B0F09D0BAF12D0F0ED103E078
:1048F000584604B0BDE8F09F44F48064A96901986B
:104900007F1C8847761E8246002E02DDBAF1300FEA
:1049100003D0B9F1000F26D032E0A969761E0198C4
:104920007F1C44F400748847002E824605DDBAF1EE
:10493000780F06D0BAF1580F03D0B9F1000F10D09C
:104940001EE0B9F1000F02D0B9F1100F18D1A9691A
:10495000761E01987F1C24F400748847824610203C
:1049600002E0082000E00A20814609E0A96908FB6E
:104970000908761E01987F1C44F40074884782461B
:10498000002E05DD4946504600F07CFB0028EDDA9C
:10499000E96901988847A00502D46FF00100A8E7F3
:1049A000E00727D1600614D5600502D5C8F10000E4
:1049B00000E04046296801F104022A6009682205E6
:1049C00001D5087016E0220701D5088012E00860C2
:1049D00010E0286800F1040129600068210502D573
:1049E00080F8008006E0210702D5A0F8008001E0F1
:1049F000C0F8008038467CE72DE9FF5F4FF00008E3
:104A00009946144646469169D2E901A7DDF838B0C7
:104A100001988847054659EA0B0005D009E0A169CD
:104A20000198761C88470546216A28468847002851
:104A3000F5D1681C03D05FEACA7005D015E04FF0CD
:104A4000FF3004B0BDE8F09F2068011D2160D0F860
:104A500000800AE05FEACA7001D108F8015BA16931
:104A60007F1E0198761C88470546002F1ADD681CBA
:104A700018D0B9F1000F0DD0E81705EBD060421146
:104A800020F01F0059F822102A1A012090400142FC
:104A9000E0D107E0BBF1000FDCD12846216A88474E
:104AA0000028D7D0E169019888470AF0010050EA50
:104AB0000B0002D1002188F80010A068B84203DD85
:104AC000BBF1000F03D017B16FF00100B9E730461A
:104AD000B7E700004FF0013C50F8042B51F8043BBD
:104AE0009A4221D1A2EB0C03934313EACC1317D1C2
:104AF00050F8042B51F8043B9A4215D1A2EB0C0359
:104B0000934313EACC130BD150F8042B51F8043B18
:104B10009A4209D1A2EB0C03934313EACC13DBD0E6
:104B20004FF00000704700BFD01A01BAB1FA81F10E
:104B300001F0180122FA01F0CB40C1F12001DBB2F3
:104B4000C0B2C01A2CFA01F3D11A914311EAC31171
:104B5000E6D1704770477047704770472DE9F047BE
:104B60000D4699469246044600F1240801688806DD
:104B700004D5E06921F01001216000E00120A84285
:104B800002DDA0EB050700E00027A16907EB0502A5
:104B900002EB0900A1EB0000A0612078C00602D45E
:104BA0002046FFF75BFD002608E0D4E901211AF852
:104BB00006009047206A401C761C20624E45F4DBBC
:104BC0002078C0060AD52046FFF748FD06E0D4E964
:104BD000012130209047206A401C2062381EA7F136
:104BE0000107F4DC07E0D4E9012118F8050090473B
:104BF000206A401C2062281EA5F10105F3DC204636
:104C0000FFF743FD2078000602D50220BDE8F087BB
:104C10000120FBE770472DE9FF4F0C461E464FF081
:104C2000FF378BB0D2E90001DDF860800A908A4638
:104C3000C1F30A5505B93D46002108464FF0000072
:104C4000BAF1000F00F4400005DA00EB80004FF4E9
:104C5000400101EA50004FEA9059B9F1010F00DD1F
:104C6000B9460A9850EA4A000ED044F61050A5F210
:104C7000FF3545432F14B8F1000F1ED07542291E91
:104C80001EDDC9F100021CE0B8F1010F4FF0000079
:104C900001D0302103E0F24305E02154401CB04232
:104CA000FBDB30460022002121540B99C1F808801B
:104CB000C1E900200FB0BDE8F08FBD1B6D1CDEE721
:104CC0004A4600DA694206A800F0AEFA06AB07CB06
:104CD00003AB07C350460A9900F05CFD8DE807005E
:104CE000A0F500501F3800900398002D09DD42F216
:104CF0001F014A46084403A90390684600F0BBFF21
:104D000008E0A0F500504A461F3803A90390684602
:104D100000F0C5FF8DE807000004000C03D04FF041
:104D2000FF30410800E01046B8F1000F03D0002228
:104D3000009215461FE0751E06D400F0C1F902F17D
:104D4000300262556D1EF8D5B3460122084302D0E9
:104D500000227F1C04E02078302801D100227F1E31
:104D6000002A099787D01DE0112D07DA00F0A8F975
:104D7000303262556D1C50EA0102F5D108430FD163
:104D80000021681E05E0235C625C6354491C2254C8
:104D9000401E8142F7DBAB46A81B401E099001E094
:104DA000009848B1002004F80B000B98099AC0F84D
:104DB0000880C0E9002B7DE711264FF000085AE774
:104DC0002DE9F04F88460446D21D22F0070191B02C
:104DD000D1E90001CDE90A0101F097F802460B98EC
:104DE000C00F01D02D2007E02068810701D52B20BE
:104DF00002E0202101EAC000032A099001D0072A1D
:104E000005DB03464146204600F0B8F90FE1207863
:104E1000800601D5E06900E00620B8F1650F814603
:104E200006D0B8F1660F18D0B8F1670F72D132E032
:104E30000020B9F1110F009001DB112301E009F10D
:104E400001030AAA01A90CA8FFF7E5FEDDE90C7031
:104E5000002609F10105834648E001204B460090F9
:104E60004FF000470AAA01A90CA8FFF7D4FEDDE91C
:104E70000DB00C995D46002618B909F1010001EB4F
:104E80000005B9EB050003D4C0F1FF3609F10105B7
:104E9000A5EB09002BE0B9F1010F01DA4FF0010990
:104EA0000020B9F1110F0090484601DD112300E008
:104EB00003460AAA01A90CA8FFF7ADFEDDE90C70B4
:104EC0004D4600268346207800070AD4AB4500DA19
:104ED0005D4601A8012D04DD411911F8011C30299E
:104EE00007D04F4502DA17F1040F04DA0120824699
:104EF00010E06D1EEEE7002F02DCED1B3E4403E0E8
:104F0000781CA84200DD0546A7EB060000F1010A67
:104F10004FF000472078000703D4AA4501DB4FF08B
:104F2000FF3A0021B7F1004F0DF143088DF843100F
:104F300023D002202B23002F01DA7F422D234FF0B4
:104F40000A0C011EA0F1010000DC4FB197FBFCF13F
:104F50000CFB11720F4602F1300208F8012DF0E748
:104F6000A8F1010003702188090501D5452100E061
:104F70006521A0F1010800F8011C09980FA9A1EB17
:104F8000080707F1070700B1012000EB050101EB5D
:104F9000EA70A1693844A1EB0000A0F10100A06112
:104FA0002078C00602D42046FFF758FB099830B19C
:104FB000D4E901219047206A00F1010020622078A5
:104FC000C00620D52046FFF749FB1CE0002E04DB7D
:104FD000B34502DD01A8805D00E03020D4E9012165
:104FE0009047206A761C401CBAF1010A20620AD15F
:104FF00000F062F8C0680168405CD4E90121904784
:10500000206A401C2062281EA5F10105DEDC07E0B5
:10501000D4E9012118F8010B9047206A401C206256
:10502000381EA7F10107F3DC2046FFF72EFB022014
:1050300011B040E610B5436913B1AFF3008001E051
:10504000FFF735FB012010BD127800F124010A7032
:1050500000224A700122EDE711684FF0FF32E9E7C4
:10506000074B70B50D467B4400F075F804462846A2
:1050700000F070F910B14FF0FF3070BD204670BDE8
:1050800057D1FFFF3A2800D2303820F02002412AC1
:1050900001D3A2F13700884201D34FF0FF307047AF
:1050A000034B7B449361034B7B44D36100F0ACB86A
:1050B00039D1FFFF63020000004870479C090020BF
:1050C00030B5B0F10A024FEA900E71F100034EEADA
:1050D000817EB0EB0E0061EB91014FEA101E4EEAAB
:1050E000017E10EB0E0041EB11114FEA102E4EEA3B
:1050F000016E10EB0E0041EB11214FEA104E4EEA0B
:10510000014E10EB0E0041EB1141401841F100013E
:105110004FEAD00040EA41704FEAD10110EB800520
:105120004FEA810444EA907444EB01046D1944EBA6
:105130000404521BA3414FF0000348BF0A3200D5BC
:1051400030BD401C41F1000130BD000001694A1C26
:1051500002610878704700B58FB0CDE901310021B8
:10516000059105497944CDE9031011466846FFF7DA
:1051700003FB0FB000BD0000E5FFFFFF2DE9F0418C
:105180001F46044603260168072A01F4006004DB79
:1051900008B116A505E016A503E008B115A500E0C5
:1051A00015A521F010002060A069C01EA0610FB1FC
:1051B000401EA0612046FFF751FA4FB1D4E901210A
:1051C00038469047206A401C2062C01C206206E0DE
:1051D000206AFAE7D4E9012115F8010B9047761E01
:1051E000F8D22046FFF751FABDE8F0814E414E005B
:1051F0006E616E00494E4600696E66000268114499
:105200001378016018467047D160054979445161AF
:1052100004497944116200211161114600F0D0B8AF
:10522000EDFFFFFF990100002DE9F047814616468A
:105230008AB035487844D0E9002380680092CDE9EF
:105240000130314878440C38D0E9022300690392D8
:105250004FF03702CDE9043041F69B30014491FB19
:10526000F2F0A0F1800502FB10141B3C02D5644251
:10527000012000E00020DFF890A080460027FA44DB
:10528000AAF1C60A0DE0E00709D03246684607EBEE
:1052900047010AEB810100F002FD8DE80700641070
:1052A0007F1C002CEFD1184F7F44B43F17E0E80774
:1052B00013D007EB04100DF1180A90E80E00AAE8CD
:1052C0000E00C068F04201D198190890324606A934
:1052D00003A800F0E4FC03AB07C36D10641C002DB1
:1052E000E5D132466946B8F1000F03A802D000F0BC
:1052F000C2FC01E000F0D3FCC9E90001C9F80820B4
:105300000AB0BDE8F08700000C150000704710B52A
:105310004FF0FF34C1688A020FD5036B42689A428E
:105320000BD1014690F82520104600F001FA401CF0
:1053300001D1204610BD002010BD11F0C00FF8D1E2
:10534000026941689142F4D90268521C491EC0E9C1
:105350000021F0E7007B00F08000704700487047B4
:105360007C0900207546FFF7F9FFAE460500694647
:10537000534620F00700854618B020B5FFF75EF8C9
:10538000BDE820404FF000064FF000074FF0000846
:105390004FF0000B21F00701AC46ACE8C009ACE8C7
:1053A000C009ACE8C009ACE8C0098D46704710B52B
:1053B000044600F0E7F90068005D00F0010010BD50
:1053C0002DE9F34F4FF0000A0C4656468DB00120F0
:1053D0000C9001F10C000B9062690B980121904731
:1053E00005002DD0252D2CD0216A8847C0B16269D7
:1053F0000B9801219047216A88470028F7D16269FC
:10540000411E0B98904700E0761CA1690D988847D3
:10541000216A88470028F7D1E1690D988847DBE7C2
:10542000A1690D988847A842074601D1761CD3E7A9
:10543000E1690D9888477F1C02D1BAF1000F6FD047
:105440006AE162690B9800273D46394690472A2851
:1054500004D162690B98012190470125DFF8CC82C5
:1054600062690B9801219047A0F130010A290AD204
:105470004745E5DC07EB870100EB4107303FDFD410
:1054800045F01005ECE7E90601D46FF000476C2801
:105490000AD04C2814D0682815D06A280DD074285A
:1054A0001CD07A281AD01DE062690B980121904720
:1054B0006C2802D045F0040514E045F002050DE02B
:1054C00045F020050AE062690B98012190476828A1
:1054D00002D045F0080505E045F4006562690B98C7
:1054E00001219047C4E9015765283DD019DC5828AF
:1054F00079D00CDC452837D004DC252826D041287B
:105500009ED131E046282FD0472899D12CE05B2846
:105510007FD0612828D063287BD0642890D159E0BF
:10552000F5E06F2847D008DC66281DD067281BD01F
:10553000692821D06E2816D127E0702844D073281E
:1055400067D0752846D078280DD14CE0A1690D9818
:105550008847252805463FF469AFE1690D988847DB
:105560006D1C3FF46AAFD7E00D9923466A466FF091
:105570000100AFF30080C4E045F0400023464FF047
:1055800000026060A80735D43DE0206800F1040106
:1055900021600068290501D506701DE7290701D59E
:1055A000068019E7A90704D54FEAE671C0E9006152
:1055B00012E7066010E745F0400023464FF008026E
:1055C0006060A80716D41EE040F60E0125EA01002F
:1055D000606016E045F0400023464FF00A0260602C
:1055E000A80707D40FE045F040006060A80708D581
:1055F000234610220D996FF00100AFF3008080E088
:1056000007E0102223460D996FF00100FFF74CF9D7
:1056100077E04FF0000963284F46C8464B46CB461B
:1056200002D05B2806D038E0E80601D40120A06053
:10563000012732E06269D4F80CB00B980121904741
:105640005E2807D14FF0010949466269D4F80CB0D1
:105650000B989047216939B900210B4603AA42F8FB
:105660002130491C0829FADBD8B3216949B308F174
:10567000010862690B98012190475D28F4D1B9F1C6
:10568000000F09D0002003A951F82020D24341F88F
:105690002020401C0828F7DB03AB20690028207974
:1056A0004FEA40701ED05B462246CDF80080CDE91F
:1056B00001970D9900286FF0010020DAAFF3008008
:1056C0001FE0C11700EBD16203A9531122F01F02A2
:1056D00001EB8301821A0B680120904003430B60A9
:1056E000C7E719E00D99224600286FF001000097E6
:1056F00002DAAFF3008004E0FFF77EF901E0AFF3D8
:10570000008000280ADA401C06D10C9820B14FF026
:10571000FF300FB0BDE8F08F5046FAE7E90701D13E
:105720000AF1010A064400200C9055E6CCCCCC0CC2
:10573000CA68431C0FD00D4B1A420CD1D3070AD0B4
:1057400081F825004B680B6300238B6012F0C06F5B
:105750000B6003D004E04FF0FF30704742F000725E
:10576000034B1A40034B1A43CA607047802008005D
:10577000BFFFDFFF001048000446AFF30080204663
:10578000FAF787FD10B5FFF797FC001D10BD00BFAD
:10579000E50700005FEA400C08BF91F0000F4FEAF8
:1057A0008C234FEAC12243EA51514FEA1C5018BFE3
:1057B00000F5F0404FEA300018BF41F000415FEAC9
:1057C0006C5C00F02980BCF1FF3F08BF40F08040D6
:1057D0007047130C06BF12044FF0100C4FF0000C72
:1057E000130E04BF12020CF1080C130F04BF1201B8
:1057F0000CF1040C930F04BF92000CF1020CD30FB8
:1058000004BF52000CF1010C11464FF00002A0F150
:105810001F00A0EB0C00704711F0004F08BF70474D
:1058200031F000413FF4D5AF0B0C06BF09044FF037
:10583000100C4FF0000C0B0E04BF09020CF1080C09
:105840000B0F04BF09010CF1040C8B0F04BF89007E
:105850000CF1020CCB0F04BF49000CF1010CCCF190
:105860002003A0EB0C0022FA03F302FA0CF241EA47
:10587000030100F10100704720F07F4C80EA030033
:1058800023F07F47ACEB070303F57C5300F00040A7
:1058900003F1FF032DE980494FEA154B09B44FEAA4
:1058A000144325EA0B4E24EA03480FF2042606EBC4
:1058B000132749083E785FEA320203FB0667C7F503
:1058C000000707FB06F64FEA54374FEAD64606F1C3
:1058D000020607FB066CCCF1005C4FEA1C472CEA81
:1058E000074C07FB06F40CFB06F504EB15464FEAE4
:1058F000961634BF00204FF000404FEAD13706FB28
:1059000007FC4FEA1C4C0CFB0BF7D21B03FB0CF7FC
:1059100061EB07010CFB0EF7B0EB074072EB17428F
:105920000CFB08F734BFA2EB0742B2EB074261EB76
:1059300017414FEA0C444FEA910706FB07FC4FEA78
:105940001C4C0CFB0BF7B0EBC74072EB573203FB60
:105950000CF734BFA2EBC742B2EBC74261EB573141
:105960000CFB0EF7B0EBC70072EB57720CFB08F79D
:1059700034BFA2EBC702B2EBC70261EB5771039FC2
:105980004FEA816141EA921104EBCC044FEAD1372E
:105990004FEA826206FB07FC42EA90124FEA8060FF
:1059A0004FEA1C4C0CFB0BF7D21B03FB0CF761EB13
:1059B00007010CFB0EF7B0EB074072EB17420CFB34
:1059C00008F734BFA2EB0742B2EB074261EB174185
:1059D0004FEA8C554FEA910704EB9C2406FB07FC29
:1059E0004FEA1C4C0CFB0BF7B0EBC74072EB573285
:1059F00003FB0CF734BFA2EBC742B2EBC74261EB2B
:105A000057310CFB0EF7B0EBC70072EB57720CFB73
:105A100008F734BFA2EBC702B2EBC70261EB5771C4
:105A200015EB4C254FEA816141EA92114FEA8262FF
:105A30004FEAD13742EA901206FB07FC44F100041A
:105A40004FEA80604FEA1C4C0CFB0BF7D21B03FBA8
:105A50000CF761EB07010CFB0EF7B0EB074072EBA4
:105A600017420CFB08F734BFA2EB0742B2EB074228
:105A700061EB174115EB1C154FEA813141EA924168
:105A80004FEA823242EA90424FEA80304FEA0C7687
:105A900044F1000448EA03434EEA0B484FF0000E7D
:105AA000B2EB080C71EB030724BF624639464EEB9C
:105AB0000E0E4FF0000B0018524149414BEB0B0BFF
:105AC000B2EB080C71EB03077BF1000B24BF6246BD
:105AD00039464EEB0E0E4FF0000B00185241494173
