:020000040800F2
:10000000C8060020653300083D2400083F2400088E
:1000100043240008472400084B2400080000000087
:100020000000000000000000000000004F24000855
:100030005124000800000000532400085524000843
:100040007F3300087F3300087F3300087F330008C8
:100050007F3300087F3300087F3300087F330008B8
:100060007F3300087F3300087F3300087F330008A8
:100070007F3300087F3300087F3300087F33000898
:100080007F3300087F3300087F3300087F33000888
:100090007F3300087F3300087F3300087F24000887
:1000A0007F3300087F3300087F3300087F33000868
:1000B0007F3300087F3300087F3300087F33000858
:1000C0007F3300087F3300087F3300087F33000848
:1000D0007F3300087F3300087F3300087F33000838
:1000E000BB2400087F3300087F3300087F330008FB
:1000F0007F3300087F3300087F3300087F33000818
:100100007F3300087F3300087F3300087F33000807
:100110007F3300087F3300087F3300087F330008F7
:100120007F3300087F3300087F3300087F330008E7
:100130007F3300087F3300087F3300087F330008D7
:100140007F3300087F3300087F3300087F330008C7
:100150007F3300087F3300087F3300087F330008B7
:100160007F3300087F3300087F3300087F330008A7
:100170007F3300087F3300087F3300087F33000897
:100180007F3300087F33000800F002F800F050F8D9
:100190000AA090E8000C82448344AAF10107DA45E2
:1001A00001D100F045F8AFF2090EBAE80F0013F0E4
:1001B000010F18BFFB1A43F00103184778440000F1
:1001C00098440000103A24BF78C878C1FAD8520782
:1001D00024BF30C830C144BF04680C6070470000C1
:1001E0000023002400250026103A28BF78C1FBD840
:1001F000520728BF30C148BF0B607047642903F025
:100200007F82632903F01085732903F01585002090
:1002100070471FB504F0C6F903F0B0FF04000020DA
:10022000002103F0B7FF401C60601FBD10B510BD7A
:1002300003F088FD1146FFF7ECFF02F08CF803F0A5
:100240008BFF03B4FFF7F2FF03BC02F06EFB00006C
:1002500033490143334A1160704770B500210023D0
:100260000F22C47824B32F4C246804F4E064C4F54E
:10027000E064C4F30721C1F10404E3B20A41447805
:100280009C40E1B28478144021430C07210E264C97
:1002900005786155047804F01F050124AC40057809
:1002A0006D114FF0E02606EB8505C5F8004109E029
:1002B000047804F01F040125A5401C4C0678761133
:1002C00044F8265070BD1A4A0A400243154B1B1FC2
:1002D0001A60704739B1134A121D12680243114B5C
:1002E0001B1D1A6006E00F4A121D126882430D4B57
:1002F0001B1D1A607047042808D14FF0E0210969DE
:1003000041F004014FF0E022116107E04FF0E021DD
:10031000096921F004014FF0E022116170470000EB
:100320000000FA050CED00E000E400E080E100E0F0
:1003300080FFFF1F10B50121080200F00DFE002113
:100340004FF4807000F008FE10BD30B5024600206A
:1003500000235068F94C20400D790C6844EA0524CC
:10036000204350609068F64C2040D1E903542C4360
:100370008D682C434D7944EA450420439060D06A4F
:1003800020F470000C7D641EE4B2234340EA035065
:10039000D06230BD00210160017141718160C16096
:1003A00001610121017570470021E64A1168E64AA2
:1003B00001EA0201D0E9002342EA0302836842EA2B
:1003C0000302C36842EA030242EA0101DF4AC2F8BB
:1003D000041370470021016041608160C160704773
:1003E00021B1826842F00102826003E0826822F05B
:1003F0000102826070470A4600214168D44B1940CF
:100400001143416070474162826270470A46002191
:10041000416821F01F0111434160704738B1C9495B
:10042000096841F40001C94AC2F8041306E0C5494D
:10043000096821F40001C54AC2F80413704738B1B5
:10044000C049096841F48001C04AC2F8041306E0BB
:10045000BC49096821F48001BC4AC2F80413704702
:10046000F0B504460D4600200021092D11DDE0689D
:10047000A5F10A0606EB4607072606FA07F18843A8
:10048000A5F10A0606EB460603FA06F10843E0600A
:100490000CE0206905EB4507072606FA07F18843BB
:1004A00005EB450603FA06F108432061072A0FDA37
:1004B000606B561E06EB86071F2606FA07F1884377
:1004C000561E06EB860605FA06F10843606322E035
:1004D0000D2A0FDA206BD61F06EB86071F2606FAB9
:1004E00007F18843D61F06EB860605FA06F1084396
:1004F000206310E0E06AA2F10D0606EB86071F26D6
:1005000006FA07F18843A2F10D0606EB860605FA06
:1005100006F10843E062F0BD816841F080418160EE
:100520007047014600208A6812F4800F01D0012034
:1005300000E00020704721B1826842F4806282604E
:1005400003E0826822F480628260704721B1826891
:1005500042F00202826003E0826822F002028260BE
:10056000704710B50A4600210023416821F460411C
:10057000531E41EA4331416010BD21B1426842F44B
:100580000062426003E0426822F400624260704709
:100590000146C86C80B270476E480068704721B150
:1005A000826842F48072826003E0826822F4807282
:1005B0008260704721B1826842F40072826003E079
:1005C000826822F400728260704738B15D49096820
:1005D00041F400515D4AC2F8041306E05949096824
:1005E00021F40051594AC2F804137047F0B504468B
:1005F0001546002000220026092911DDE068A1F13E
:100600000A0707EB470C072707FA0CF29043A1F102
:100610000A0707EB470703FA07F21043E0600CE014
:10062000206901EB410C072707FA0CF2904301EB1C
:10063000410703FA07F210432061A06BC0F3015693
:10064000EF1C06F1010CA7EB0C0707EB870C1F272B
:1006500007FA0CF29043EF1C06F1010CA7EB0C0714
:1006600007EB870701FA07F21043A063F0BD10B54E
:100670000A4600210023816B21F44011531E41EAF8
:100680000351816310BD10B5002303460B441A606B
:1006900010BD0A460021816821F470211143816058
:1006A00070470A460021816821F44011114381609E
:1006B0007047816841F480018160704701460020E5
:1006C0008A6812F4800F01D0012000E000207047FA
:1006D00021B1426842F48062426003E0426822F441
:1006E00080624260704721B1426842F480524260A9
:1006F00003E0426822F480524260704702460023C1
:10070000134601F128000344186880B2704710B501
:100710000B460021D9B2012404FA01F11AB1446850
:100720000C43446002E044688C43446010BD0246C0
:10073000002013680B420FD001200EE0FFFEFFFCEB
:10074000FDF7FFC004230140E030FCFF0020014022
:10075000FFFD3FFF0823014000207047CA430260AD
:10076000704770B502460020002300240B12556824
:1007700001268E4005EA060415681D4202D00CB120
:10078000012000E0002070BD00220A12D343036064
:1007900070470000002044490860091D0860091DD9
:1007A0000860091D086041483F49143108607047DE
:1007B00000213D498279002A3AD00A46126803682E
:1007C0009A430B461A600A1D126803689A430B1D70
:1007D0001A60027911440A6803681A430A60324AAF
:1007E0000832126803689A432F4B08331A601A1DA7
:1007F000126803689A432C4B0C331A604279102A12
:100800000ED11A1F126803681A43274B08331A6067
:100810001A1D126803681A43234B0C331A600DE04B
:100820002149427911440A6803681A430A6005E0C5
:10083000027911440A6803689A430A6070470021EC
:10084000016001710C2141710021817170471649CD
:10085000103109680143144A103211607047014693
:100860000020114A143212680A4201D0012000E02F
:10087000002070470C491431086070470146002081
:100880000022094B1B6803EA0102074B14331B6863
:100890000B4202D00AB1012000E00020704702495B
:1008A0001431086070470000003C0140FFFF7F00EA
:1008B00010B504468848844208D10121084600F05A
:1008C000F4FA0021012000F0F0FA5EE0834884424F
:1008D00008D10121022000F0E8FA0021022000F0F6
:1008E000E4FA52E07E48844208D10121042000F05D
:1008F000DCFA0021042000F0D8FA46E0794884426E
:1009000008D10121082000F0D0FA0021082000F0D1
:10091000CCFA3AE07448844208D10121102000F05A
:10092000C4FA0021102000F0C0FA2EE06F48844283
:1009300008D10121202000F0B8FA0021202000F089
:10094000B4FA22E06A48844208D10121402000F034
:10095000ACFA0021402000F0A8FA16E06548844275
:1009600008D10121802000F0A0FA0021802000F0B1
:100970009CFA0AE06048844207D10121801500F00A
:1009800094FA0021A01500F090FA10BDF0B50A46C7
:1009900000210023002400BF3DE0012505FA01F3FA
:1009A000156805EA03049C4234D105684F0003260C
:1009B000BE40B543056015794E00B5400668354325
:1009C00005601579012D02D01579022D16D18568A3
:1009D0004F000326BE40B543856055794E00B540B3
:1009E000866835438560456801268E40B54345607D
:1009F000456896798E40B6B235434560C5684F006C
:100A00000326BE40B543C560D5794E00B540C668E3
:100A10003543C560491C1029BFD3F0BD4FF6FF71A7
:100A200001600021017141718171C17170474FF402
:100A300080320A43C261C161C261C269C269704742
:100A40000246002013690B4201D0012000E0002083
:100A500070470146086980B270470246002053691A
:100A60000B4201D0012000E0002070470146486998
:100A700080B2704701837047418370470AB1018398
:100A800000E0418370474161704742694A404261DA
:100A90007047F0B5002300244D07ED0E02FA05F370
:100AA000CE1000F1200555F826504E07F70E0F2600
:100AB000BE40B543CF1000F1200646F82750CE10B7
:100AC00000F1200555F8265045EA0304CE1000F148
:100AD000200545F82640F0BD000002400004024019
:100AE00000080240000C02400010024000140240C6
:100AF00000180240001C024000200240F848006834
:100B000040F00100F64908600020F549083108600E
:100B1000F3480068F3490840F1490860F248091DAC
:100B20000860081F006820F48020091F086000206A
:100B3000EB490C31086070470021E94A921C1170A2
:100B400011460870704710B50146002200230020AE
:100B50004A11012A02D1E24C236808E0022A03D19B
:100B6000DF4C7034236802E0DD4C7434236801F0FC
:100B70001F02012494401C4201D0012000E000200B
:100B800010BD70B500240025002600BF3120FFF7FE
:100B9000DAFF0646641CB4F5A06F01D0002EF5D034
:100BA0003120FFF7D0FF08B1012500E000252846DD
:100BB00070BD01460020CA4A106820F0F80040EAE3
:100BC000C10010607047C949086070470021C44ADD
:100BD000703211701170012802D004280AD104E08B
:100BE0000121BF4A7032117005E00521BC4A703204
:100BF000117000E000BF00BF7047BD49086070473A
:100C000070B5049C41EA82150126C6EB530645EAFD
:100C10000645054345EA0465B14E361D356070BD95
:100C2000B24908667047820142EA0172AC4B8433D4
:100C30001A607047AD4988667047AC49C864704710
:100C400002460020A64B0833186820F0EC6042EA08
:100C500001031843A24B0833186070470246002076
:100C60009F4B0833186820F0784042EA010318438C
:100C70009B4B08331860704701460020984A0832A1
:100C8000106820F003000843106070479448083053
:100C9000006800F00C00704701460020904A0832BE
:100CA000106820F0F00008431060704701460020F3
:100CB0008B4A0832106820F4E050084310607047F7
:100CC00001460020864A0832106820F4604040EA5D
:100CD000C10010607047F0B50021002200240225F9
:100CE000002602237E4F08373F6807F00C0121B130
:100CF000042905D0082937D105E07E4F076036E08A
:100D00007D4F076033E0764F3F1D3F68C7F3805645
:100D1000734F3F1D3F6807F03F036EB1764FB7FB3F
:100D2000F3F7DFF8BCC10CF1040CDCF800C0CCF325
:100D3000881C07FB0CF40CE06E4FB7FBF3F7DFF8F1
:100D4000A0C10CF1040CDCF800C0CCF3881C07FB3C
:100D50000CF4634F3F1D3F68C7F301477F1C7D00C4
:100D6000B4FBF5F7076002E0624F076000BF00BF09
:100D70005B4F08373F6807F0F00109095F4F7A5C65
:100D80000768D7404760564F08373F6807F4E0517F
:100D9000890A5A4F7A5C4768D7408760504F0837B6
:100DA0003F6807F46041490B544F7A5C4768D7406D
:100DB000C760F0BD002100F44072B2F5407F0AD157
:100DC000474A0832116821F4F8114D4A0240114394
:100DD000434A08321160424A70321268C0F30B0372
:100DE0001A433F4B70331A607047414944390860D9
:100DF00070473F4940390860704742490860704772
:100E000039B1374A303212680243354B30331A60F9
:100E100006E0334A303212688243314B30331A6075
:100E2000704739B12E4A3432126802432C4B3433A6
:100E30001A6006E02A4A343212688243284B34335F
:100E40001A60704739B1264A383212680243244B7F
:100E500038331A6006E0224A383212688243204B47
:100E600038331A60704739B11D4A40321268024364
:100E70001B4B40331A6006E0194A40321268824325
:100E8000174B40331A60704739B1154A4432126823
:100E90000243134B44331A6006E0114A443212688D
:100EA00082430F4B44331A60704739B10C4A1032F9
:100EB000126802430A4B10331A6006E0084A1032E7
:100EC00012688243064B10331A607047E1B1044A3E
:100ED000143212680243024B14331A6019E0000006
:100EE00000380240FFFFF6FE1030002400004742A9
:100EF000800E47420024F40000127A000000002017
:100F0000FFFCFF0F5C0147425B4A126882435A4B69
:100F10001A60704739B1584A121D12680243564B85
:100F20001B1D1A6006E0544A121D12688243524B80
:100F30001B1D1A60704739B14F4A0C3212680243C8
:100F40004D4B0C331A6006E04B4A0C321268824358
:100F5000494B0C331A60704739B1474A1032126856
:100F60000243454B10331A6006E0434A10321268C0
:100F70008243414B10331A60704739B13E4A3C32CC
:100F8000126802433C4B3C331A6006E03A4A3C325A
:100F900012688243384B3C331A60704739B1364A85
:100FA000403212680243344B40331A6006E0324A42
:100FB000403212688243304B40331A60704739B177
:100FC0002D4A4432126802432B4B44331A6006E028
:100FD000294A443212688243274B44331A607047CF
:100FE00039B1254A4C3212680243234B4C331A6004
:100FF00006E0214A4C32126882431F4B4C331A6080
:10100000704739B11C4A5032126802431A4B5033B0
:101010001A6006E0184A503212688243164B503369
:101020001A60704739B1144AD21F12780243124B2A
:10103000DB1F1A7006E0104AD21F127882430E4B53
:10104000DB1F1A7070470C486030006840F08070F9
:10105000094960310860704701460020064A083A95
:1010600012680A4201D0012000E0002070470249C6
:10107000891F0870704700001438024010B5012124
:101080008803FFF769FF00214FF48040FFF764FFFA
:1010900010BD1A490860704730B500228B071C0F3D
:1010A0000F2303FA04F2154B08338C1053F8243045
:1010B0009343124C08348D1044F8253023468C108D
:1010C00053F824308C07240F00FA04F423430B4C0C
:1010D00008348D1044F8253030BD09490860704748
:1010E000084908607047002004492031096811F45C
:1010F000807F01D0012000E00020704700380140CF
:10110000DC0027420004274210B50446FE48844212
:1011100008D101210846FFF71FFF00210120FFF73A
:101120001BFF9DE0B4F1804F08D101210846FFF775
:1011300002FF00210120FFF7FEFE91E0F348844208
:1011400008D101210220FFF7F6FE00210220FFF75F
:10115000F2FE85E0EE48844208D101210420FFF729
:10116000EAFE00210420FFF7E6FE79E0E948844228
:1011700008D101210820FFF7DEFE00210820FFF73B
:10118000DAFE6DE0E448844208D101211020FFF727
:10119000D2FE00211020FFF7CEFE61E0DF4884423E
:1011A00008D101212020FFF7C6FE00212020FFF7F3
:1011B000C2FE55E0DA48844208D101210220FFF73F
:1011C000CBFE00210220FFF7C7FE49E0D54884424C
:1011D00009D101210804FFF7BFFE00214FF4803040
:1011E000FFF7BAFE3CE0D048844209D1012148040F
:1011F000FFF7B2FE00214FF40030FFF7ADFE2FE005
:10120000CA48844209D101218804FFF7A5FE0021C4
:101210004FF48020FFF7A0FE22E0C548844208D1A9
:1012200001214020FFF787FE00214020FFF783FEC9
:1012300016E0C048844208D101218020FFF77BFEE0
:1012400000218020FFF777FE0AE0BB48844207D1E7
:1012500001218015FFF76FFE0021A015FFF76BFE3F
:1012600010BD00220288A84B98420ED0AC4B984289
:101270000BD0B0F1804F08D0A44B984205D0A44BBE
:10128000984202D0A34B984204D14FF68F731A4074
:101290004B881A43A04B984207D0A04B984204D0E9
:1012A0004FF6FF431A400B891A4302804B68C36212
:1012B0000B880385944B984202D0994B984201D1F8
:1012C0008B7A03860123838270474FF0FF314160A0
:1012D00000210180018141808172704701858282F5
:1012E00070470A46002101884FF68F731940114359
:1012F0000180704741627047C16270470146486A89
:1013000070470146088D704721B1028842F0020201
:10131000028004E002884FF6FD731A400280704795
:1013200021B1028842F00402028004E002884FF6F4
:10133000FB731A400280704721B1028842F080029C
:10134000028004E002884FF67F731A4002807047E3
:1013500002884FF6F7731A40028002880A4302801F
:10136000704702884FF6FF431A40028002880A4302
:101370000280704721B1028842F00102028004E03D
:1013800002884FF6FE731A400280704770B5002441
:1013900000220023058C4FF6FE7635400584028C32
:1013A0008388048B4FF68F752C40B51E2C400D881A
:1013B0002C43751E2A408D892A434D882A43524D5D
:1013C000A84202D0564DA84213D14FF6F7752A40D5
:1013D000CD892A434FF6FB752A408D882A434FF664
:1013E000FF652B404FF6FF552B400D8A2B434D8A4E
:1013F0002B43838004838D684563028470BD70B580
:10140000002400220023058C4FF6EF76354005843A
:10141000028C8388048B48F6FF752C404FF6FF45FD
:101420002C400D884FF6FF7606EA05252C434FF633
:10143000DF752A408D8906EA05152A434D8806EA9C
:1014400005152A43304DA84202D0354DA8421DD182
:101450004FF67F752A40CD894FF6FF7606EA0515CF
:101460002A434FF6BF752A408D8806EA05152A43A0
:101470004FF6FF352B404FF2FF752B400D8A06EAE1
:1014800085052B434D8A06EA85052B43838004831B
:101490008D688563028470BD70B50024002200232E
:1014A000058C4FF6FF6635400584028C8388848B5B
:1014B0004FF68F752C404FF6FC752C400D882C4351
:1014C0004FF6FF552A408D894FF6FF7606EA05252F
:1014D0002A434D8806EA05252A430B4DA84202D02F
:1014E0000F4DA84238D14FF2FF752A40CD894FF6F3
:1014F000FF7606EA05252A434FF6FF352A408D88F8
:1015000006EA05252A4319E00000014000040040D6
:1015100000080040000C0040001000400014004093
:1015200000040140004001400044014000480140E7
:1015300000180040001C0040002000404EF6FF75DF
:101540002B404DF6FF752B400D8A06EA05152B43FF
:101550004D8A06EA05152B43838084838D68C56315
:10156000028470BD70B5002200230024058C4EF665
:10157000FF7635400584038C8488828B48F6FF759E
:101580002A404FF6FF452A400D884FF6FF7606EABF
:1015900005252A434DF6FF752B408D8906EA053552
:1015A0002B434D8806EA05352B43FE4DA84202D059
:1015B000FD4DA84208D14BF6FF752C400D8A4FF621
:1015C000FF7606EA85152C43848082838D68056446
:1015D000038470BD00210180418081808160818110
:1015E000C18101824182704770B50346002000240A
:1015F0001846183001258D40ACB21D8CA5431D84C2
:1016000009B108290AD100EB610005684FF68F7611
:10161000354005600568154305600FE00D1FC5F3F3
:101620004E052844056848F6FF7635400560056894
:101630004FF6FF7606EA02263543056070BD41632A
:10164000704781637047C1637047016470470A4601
:101650000021018B4FF68F731940114301837047AE
:101660000A460021018B48F6FF7319404FF6FF73BD
:1016700003EA02231943018370470A460021818B44
:101680004FF68F7319401143818370470A4600213A
:10169000818B48F6FF7319404FF6FF7303EA02236C
:1016A0001943818370470A460021018B4FF6F77377
:1016B00019401143018370470A460021018B4FF204
:1016C000FF7319404FF6FF7303EA022319430183A6
:1016D00070470A460021818B4FF6F773194011437A
:1016E000818370470A460021818B4FF2FF731940B6
:1016F0004FF6FF7303EA02231943818370470A46BA
:101700000021018B4FF6FB73194011430183704791
:101710000A460021018B4FF6FF3319404FF6FF7345
:1017200003EA02231943018370470A460021818B93
:101730004FF6FB7319401143818370470A4600211D
:10174000818B4FF6FF3319404FF6FF7303EA0223F4
:101750001943818370470A460021018B4FF67F733E
:1017600019401143018370470A460021018BC1F3E0
:101770000E014FF6FF7303EA0223194301837047FA
:101780000A460021818B4FF67F73194011438183F4
:1017900070470A460021818BC1F30E014FF6FF739B
:1017A00003EA02231943818370470A460021018C12
:1017B0004FF6FD7319401143018470470A4600211A
:1017C000018C4FF6F77319401143018470470A46A4
:1017D0000021018C4FF6DF7319404FF6FF7303EAC7
:1017E00002131943018470470A460021018C4FF609
:1017F0007F7319404FF6FF7303EA02131943018404
:1018000070470A460021018C4FF6FF5319404FF6EE
:10181000FF7303EA02231943018470470A4600213B
:10182000018C4FF2FF7319404FF6FF7303EA022356
:101830001943018470470A460021018C4DF6FF735D
:1018400019404FF6FF7303EA0233194301847047CE
:1018500030B5002301248C40A3B2048C9C43048443
:10186000048C02FA01F5ADB22C43048430BD30B5CE
:10187000002304248C40A3B2048C9C430484048C75
:1018800002FA01F5ADB22C43048430BD828B4FF2D5
:10189000FF331A408283828B4FF6FF7303EA0123E2
:1018A0001A4382837047F0B50C461546002100228A
:1018B0000026078C4EF6FF7C07EA0C070784818B15
:1018C000028C4FF6FF7707EA043640F6FF473940AF
:1018D0004FF6FF7707EA052739434FF6FF7707EA08
:1018E0000337394345F6FF773A4046F480573A4389
:1018F00081830284F0BD828B4FF6F3731A4082839A
:10190000828B0A4382837047F0B50C46154600214E
:1019100000220026078C4FF6FF6C07EA0C070784AD
:10192000818B028C4FF6FF7707EA04264FF60C777F
:1019300039404FF6FF7707EA03172F4339434FF239
:10194000FF573A4046F480773A4381830284F0BDE2
:10195000028B4FF2FF331A400283028B4FF6FF7364
:1019600003EA01231A4302837047F0B50C4615467B
:10197000002100220026078C4FF6EF7C07EA0C07B7
:101980000784018B028C4FF6FF7707EA041640F6B6
:10199000FF4739404FF6FF7707EA033739434FF6E1
:1019A000FF7703E0000001400004014007EA05273B
:1019B00039434FF65F773A4046F010073A430183C8
:1019C0000284F0BD028B4FF6F3731A400283028B40
:1019D0000A4302837047F0B50C46154600210022E9
:1019E000068C4FF6FE773E400684018B028C4FF644
:1019F0000C7631407E1C06EA03162E4331434FF627
:101A0000F576324044F00106324301830284F0BD92
:101A100070B505460C46208850B92389A288618894
:101A20002846FFF7D8FFE1882846FFF7CBFF25E0DF
:101A3000208804280AD12389A28861882846FFF7D4
:101A400094FFE1882846FFF783FF17E020880828E5
:101A50000AD12389A28861882846FFF755FFE188CB
:101A60002846FFF748FF09E02389A28861882846B5
:101A7000FFF719FFE1882846FFF708FF70BD002136
:101A800001804180012181800021C1800181704756
:101A90002DE9F04105460C4600260127608808B96B
:101AA000022600E00026A088012801D1022700E0DC
:101AB00001272088A0B92389A28861882846FFF7DA
:101AC0008AFFE1882846FFF77DFF23893A463146A1
:101AD0002846FFF74AFFE1882846FFF739FF13E061
:101AE0002389A28861882846FFF73FFFE1882846BE
:101AF000FFF72EFF23893A4631462846FFF76BFF52
:101B0000E1882846FFF75EFFBDE8F0810146486B9B
:101B100070470146886B70470146C86B70470146A5
:101B2000086C70470A884B881A438B881A43CB8805
:101B30001A430B891A434B891A438B891A43A0F81D
:101B4000442070470021018041808180C180018153
:101B500041818181704731B1B0F8442042F40042A4
:101B6000A0F8442005E0B0F84420C2F30E02A0F82B
:101B70004420704721B1828842F00402828004E050
:101B800082884FF6FB731A408280704721B18288A9
:101B900042F00102828004E082884FF6FE731A4010
:101BA000828070471AB183890B43838102E0838965
:101BB0008B43838170478182704702460020138ADD
:101BC0000B4201D0012000E000207047CA4302828E
:101BD000704730B50246002000230024158A05EA2C
:101BE0000103958905EA010413B10CB1012000E05D
:101BF000002030BDCA430282704741EA0203A0F8C8
:101C0000483070471AB183890B43838102E083898E
:101C10008B438381704721B1828842F00802828021
:101C200004E082884FF6F7731A408280704701897A
:101C30004FF6F8721140018170470A460021018970
:101C40004FF68F73194011430181704730B5044638
:101C50000D4629462046FFF7F0FF208940F0070097
:101C6000208130BD2DE9F04104460D4616461F4641
:101C7000602D06D13B46012231462046FFF775FE16
:101C800005E03B46012231462046FFF7A4FE2946E7
:101C90002046FFF7D2FF208940F007002081BDE8F1
:101CA000F08130B50C4600210189C9B24FF6FF75AD
:101CB00005EA0325154325432943018130BD2DE95C
:101CC000F04105460E4617469846002443463A46DC
:101CD00031462846FFF7E5FF2C894FF6F87004409F
:101CE00044F007044FF68F70044044F070042C81D8
:101CF000BDE8F081F0B504460D4616461F463B464A
:101D0000324629462046FFF7CCFF208940F4804028
:101D10002081F0BD82884FF68F731A4082808288BE
:101D20000A438280704702894FF6F8731A40028195
:101D300002890A430281704702894FF67F731A4075
:101D4000028102890A4302817047F0B50C461546AC
:101D50001E460021002200230189028B038C4FF6CE
:101D6000F877394021434FF6FC473A4040F20117DB
:101D70003A434FF6DD773B404FF6FF7707EA061709
:101D80002F433B43018102830384F0BD21B182884C
:101D900042F08002828004E082884FF67F731A400E
:101DA00082807047A0F850107047000010B50446BC
:101DB000F748844208D101211020FFF7CDF8002117
:101DC0001020FFF7C9F83EE0F248844209D1012112
:101DD0004804FFF7B0F800214FF40030FFF7ABF8EC
:101DE00031E0ED48844209D101218804FFF7A3F8CE
:101DF00000214FF48020FFF79EF824E0E74884425A
:101E000009D10121C804FFF796F800214FF4002002
:101E1000FFF791F817E0E248844209D10121080553
:101E2000FFF789F800214FF48010FFF784F80AE0EB
:101E3000DC48844207D101212020FFF78DF80021E2
:101E40002020FFF789F810BD2DE9FF4705460E4613
:101E50000024A14600BFA046B08900B100BF2C8A73
:101E600024F44054F08804432C82AC8941F20C6085
:101E70008443B08831890843718908430443AC81A5
:101E8000AC8A24F44074B0890443AC826846FEF7FF
:101E900022FFBF48854202D0C248854202D1DDF808
:101EA0000C9001E0DDF80890A88910F4004F08D0EC
:101EB00009EBC90000EB091031684900B0FBF1F7EC
:101EC00007E009EBC90000EB091031688900B0FB9D
:101ED000F1F76420B7FBF0F004012009642101FB55
:101EE0001078A88910F4004F08D0322000EBC80009
:101EF000B0FBF1F000F00700044308E0322000EBF3
:101F000008106421B0FBF1F000F00F0004432C81B5
:101F1000BDE8FF874FF41651016000218180C18028
:101F200001810C21418100218181704710B5024659
:101F30000020108A20F470600B884C8823438C8822
:101F40002343CC8823431843108210BD0021018015
:101F500041808180C180704721B1828942F4005262
:101F6000828104E082894DF6FF731A4082817047B6
:101F7000028B02F47F420283028B0A430283704782
:101F800021B1828942F40042828103E08289C2F356
:101F90000E028281704721B1828A42F400628282FD
:101FA00004E0828A4FF2FF731A4082827047C1F3C5
:101FB00008028280704701468888C0F30800704795
:101FC000028A4FF6F0731A400282028A0A430282A2
:101FD000704721B1828942F00202828104E0828945
:101FE0004FF6FD731A408281704782894FF2FF736A
:101FF0001A40828182890A4382817047028A4FF6A1
:10200000DF731A400282028A0A430282704721B1BA
:10201000028A42F48042028204E0028A4BF6FF7395
:102020001A4002827047818941F001018181704725
:1020300021B1828A42F00802828204E0828A4FF64D
:10204000F7731A4082827047028BD2B20283028BEE
:1020500042EA01220283704721B1828A42F02002C3
:10206000828204E0828A4FF6DF731A4082827047D0
:1020700021B1828A42F01002828204E0828A4FF605
:10208000EF731A4082827047828A4FF6FB731A40C0
:102090008282828A0A438282704721B1828A42F018
:1020A0000202828204E0828A4FF6FD731A40828225
:1020B00070471AB1838A0B43838202E0838A8B4381
:1020C00083827047F0B503460024002600250020D7
:1020D000A1F510676A3F00D100BF1846C1F3421452
:1020E00001F01F06012707FA06F5012C01D10C307B
:1020F00004E0022C01D1103000E014301AB107685E
:102100002F43076002E00768AF430760F0BD024657
:102110000020B1F5007F00D100BF13880B4201D031
:10212000012000E00020704701F40072B2F5007F4A
:1021300000D100BFCA430280704770B50246002438
:10214000002300250020A1F510666A3E00D100BFE3
:10215000C1F3421501F01F03012606FA03F3012D16
:1021600002D19689334006E0022D02D1168A33400F
:1021700001E0968A33400C12012606FA04F4168810
:10218000344013B10CB1012000E0002070BD00000C
:10219000001001400044004000480040004C004056
:1021A000005000400014014010B500220023A1F5AA
:1021B00010646A3C00D100BF0A1201249440A3B20B
:1021C000DC43048010BD00007047F0B589B00422E4
:1021D00002218A4800F009FF04460422114687487C
:1021E00000F003FF054600F07BFE064600F081FE8E
:1021F00007468348006883490968CDE90654CDE95C
:1022000004108148006881490968CDE90176009190
:1022100003907F4803687F4802687F4801687F48D1
:1022200001F010FA09B0F0BD10B57B4800680A282B
:1022300005DD4FF480517A48FEF71CFC04E04FF4B2
:1022400080517748FEF718FC724800680A2804DDC0
:1022500004217448FEF70EFC03E004217148FEF7E8
:102260000BFC6A4800680A2805DD4FF400716C48D1
:10227000FEF700FC04E04FF400716948FEF7FCFB38
:10228000634800680A2805DD4FF480716648FEF750
:10229000F1FB04E04FF480716348FEF7EDFB10BDE5
:1022A0004FF49671C82000F0B2FD4FF47A7000F040
:1022B00084F908E000F0E5FEFFF7B6FFFFF785FFC1
:1022C000322000F07AF9F5E770B5044600F05CF9C9
:1022D000054600F0D6FE50490968601A00F0EFFC90
:1022E0004B490968601A00F004FD29464FF47A70E2
:1022F00000F078F970BD4FF4C871C82000F087FD78
:102300004FF47A7000F059F903E04FF4FA60FFF7E8
:10231000DBFFFAE74FF4FA71C82000F078FD4FF4C4
:102320007A7000F04AF903E04FF4FA70FFF7CCFF3F
:10233000FAE710B54FF41671C82000F068FD4FF4AD
:102340007A7000F03AF9322000F0B9FC6FF03100F9
:1023500000F0CFFC10BD00F0E7F800F061F900F0EC
:10236000C9F94FF4165000F08DFA00F0A2FC00F00D
:102370006BFD00F0E3FC00F0CBFD04212948FEF7E3
:102380007BFB4FF480512648FEF776FB4FF48071BB
:102390002548FEF771FB4FF400712148FEF76CFBF6
:1023A0004FF480512148FEF767FB4FF400511F485E
:1023B000FEF762FB4FF480411C48FEF75DFB4FF4D3
:1023C00000411A48FEF758FB40211548FEF754FB20
:1023D00080211348FEF750FB4FF47A7000F0EDF8BF
:1023E0004FF4C871C82000F012FD06E000F016FF9F
:1023F000044801680EA001F025F9F7E7002001402C
:1024000034000020500000204C0000204400002038
:102410003C0000204000002038000020B0450008AB
:1024200000080240000C024000000240000402408C
:10243000416E676C652025640D0A0000704700BF7F
:10244000FEE700BFFEE700BFFEE700BFFEE7704704
:102450007047704710B529480068401C274908603C
:1024600027480068002802DA00202649086024482E
:102470000068401E22490860FFF7A6FE10BD10B597
:102480002020FEF7FBF940B14FF4967000F095F86C
:10249000FFF706FF2020FEF702FA4FF48070FEF7E8
:1024A000EDF948B14FF4967000F087F8FFF741FF5F
:1024B0004FF48070FEF7F3F910BD10B54FF40060D3
:1024C000FEF7DCF948B14FF4967000F076F8FFF7AC
:1024D00012FF4FF40060FEF7E2F94FF48050FEF770
:1024E000CDF948B14FF4967000F067F8FFF712FF8E
:1024F0004FF48050FEF7D3F910BD00001400002007
:10250000280000203404004010B5002807DA0A072C
:10251000140E3E4A00F00F031B1FD45403E00A07B9
:10252000130E3B4A135410BD10B500F0F0FF01F03C
:102530001AF8384800684FF47A71B0FBF1F4601E65
:10254000B0F1807F01D301200FE0601E4FF0E02149
:1025500048610F214FF0FF30FFF7D6FF00204FF00A
:10256000E021886107200861002008B100BFFEE774
:102570004FF44070FDF76CFE0021481EFFF7C4FFCA
:1025800000202549086010BD4FF0E0208069A82197
:10259000B0FBF1F02049096801EB4102C2EBC11127
:1025A0004FF47A7202EBC101081A1C490860084610
:1025B00000687047184800687047174A116800BFE4
:1025C000154A1268521A821AFAD1704710B503469A
:1025D000FFF7DAFF044600BFFFF7D6FF001B181A0B
:1025E000FAD110BD10B503460C4600BFFFF7CCFF73
:1025F000001B9842FAD310BD00B5024600BFFFF79A
:10260000D9FF401A9042FAD300BD000018ED00E057
:1026100000E400E05400002014000020100000201E
:102620001CB501210846FEF7EBFB01210220FEF755
:10263000E7FB01210420FEF7E3FB01210820FEF760
:10264000DFFB4FF48070009001208DF80400002023
:102650008DF8060003208DF8050000208DF8070096
:1026600069462048FEF792F94FF490500090694671
:102670001D48FEF78BF90420009069461B48FEF7C1
:1026800085F94FF47040009002208DF807006946EC
:102690001748FEF77BF9C020009002208DF8070054
:1026A00069461148FEF772F940210F48FEF7E4F938
:1026B00080210D48FEF7E0F94FF480510C48FEF7F9
:1026C000DBF94FF400510A48FEF7D6F94FF4804188
:1026D0000748FEF7D1F94FF400410548FEF7CCF961
:1026E0001CBD00000000024000080240000C024037
:1026F0000004024000B585B001218803FEF7C4FB49
:1027000001210720FEF77CFB00208DF808008DF8E2
:102710000B002020019001A95748FEF737F9052149
:102720000120FEF7B9FC2020039000208DF8100056
:1027300008208DF8110001208DF8120003A8FEF783
:1027400037F817208DF8000001208DF801000020D7
:102750008DF8020001208DF803006846FDF77DFD2D
:1027600000208DF808008DF80B004FF400600190F8
:1027700001A94248FEF70AF90B210020FEF78CFC64
:102780004FF40060039000208DF8100008208DF8B1
:10279000110001208DF8120003A8FEF709F8282087
:1027A0008DF8000001208DF8010000208DF8020056
:1027B00001208DF803006846FDF74FFD00208DF8DD
:1027C00008008DF80B004FF48050019001A92B48B0
:1027D000FEF7DCF80C210020FEF75EFC4FF4805081
:1027E000039000208DF8100008208DF811000120C2
:1027F0008DF8120003A8FDF7DBFF28208DF80000FC
:1028000001208DF8010000208DF8020001208DF8D4
:1028100003006846FDF721FD00208DF808008DF8C3
:102820000B004FF48070019001A91548FEF7AEF837
:1028300008210220FEF730FC4FF480700390002046
:102840008DF8100008208DF8110001208DF812007D
:1028500003A8FDF7ADFF17208DF8000001208DF8CB
:10286000010000208DF8020001208DF80300684669
:10287000FDF7F3FC05B000BD00040240000002407B
:102880000008024010B588B0044601210220FEF77E
:10289000B7FA01211020FEF7F7FA072209217C4838
:1028A000FEF7F7F807220A217948FEF7F2F8002030
:1028B0008DF81E0001208DF81F0002208DF81C00ED
:1028C0004FF4C060069002208DF81D0006A97048E4
:1028D000FEF75CF801216F48FFF752FB02940020DD
:1028E000ADF80C00ADF80E00ADF81000ADF8140016
:1028F0000C20ADF812000020ADF800004FF480600D
:10290000ADF802000020ADF80600ADF8040002A901
:102910006048FFF799FA69465E48FFF707FB012117
:102920005C48FFF719FB08B010BD014600BF7047B7
:1029300070B504460D46E1B25648FFF738FB00BFBC
:1029400080215448FFF7E3FB0028F9D0204670BDF2
:10295000014600BF4F4A128812F0200FFAD04D4AAC
:102960009288C2F30800704710B5044600BF80216A
:102970004848FFF7CCFB0028F9D0A1B24548FFF743
:1029800016FB204610BD10B543A000F05BFE00BF53
:1029900020214048FFF7BBFB0028F9D03D48FFF756
:1029A0000AFBC0B210BD10B544A000F04BFE00BF42
:1029B00020213848FFF7ABFB0028F9D03548FFF756
:1029C000FAFA0446214645A000F03CFE3148FFF7E4
:1029D000F2FAC0B210BD10B542A000F033FE00BF45
:1029E00020212C48FFF793FB0028F9D02948FFF756
:1029F000E2FAA0F13004214641A000F023FE254870
:102A0000FFF7D9FA303810BD10B586B0044621461C
:102A10003DA000F017FE01A942A000F035FF01A97A
:102A200041A000F00FFE0BE0214641A000F00AFE9D
:102A300001A93CA000F028FF01A93BA000F002FE84
:102A4000214601A801F046F80028EDD106B010BDDE
:102A500038B50446214641A000F0F4FD694646A081
:102A600000F012FF26A0009900F0ECFD0BE02146DB
:102A700042A000F0E7FD69463FA000F005FF20A05E
:102A8000009900F0DFFD0098A042F0D138BD0000B1
:102A900000000240001001400D0A7072657373203F
:102AA000616E79206B657920746F20636F6E746935
:102AB0006E75652E2E2E0D0A0D0A0000706C656174
:102AC000736520656E746572206120636861726150
:102AD00063746F722E2E2E0D0A00000025630D0AFE
:102AE00000000000706C6561736520656E7465722E
:102AF00020612064696769742E2E2E0D0A00000083
:102B000025640D0A00000000507265737320257360
:102B100020746F20436F6E74696E75652E2E2E20A3
:102B20003A0000002573000025730D0A0000000024
:102B3000496E76616C696420696E7075742C2070C2
:102B40007265737320257320746F20436F6E7469F0
:102B50006E75652E2E2E203A0000000050726573AF
:102B60007320256420746F20436F6E74696E7565E1
:102B70002E2E2E203A00000025640000496E76615A
:102B80006C696420696E7075742C20707265737343
:102B900020256420746F20436F6E74696E75652EF6
:102BA0002E2E203A000000001CB501210420FEF763
:102BB0005AF94FF47070009002208DF80400032041
:102BC0008DF8050000208DF806008DF80700694695
:102BD0005448FDF7DBFE022206215248FDF759FF5B
:102BE000022207214F48FDF754FF022208214D48D9
:102BF000FDF74FFF022209214A48FDF74AFF1CBD9D
:102C000000B589B040F2E73007900320ADF8180016
:102C10000020ADF82000ADF81A0006A94248FEF7E2
:102C200020FB6020ADF804000120ADF806003F480D
:102C3000008803900020ADF8100001A93A48FEF783
:102C4000A5FB08213848FEF72EFD0120ADF806004F
:102C500037480088039001A93348FEF7D0FB0821CC
:102C60003148FEF729FD0120ADF806003148008803
:102C7000039001A92C48FEF70FFC08212A48FEF713
:102C800028FD0120ADF806002B480088039001A91B
:102C90002548FEF767FC08212348FEF723FD0121A4
:102CA0002148FEF749FB01211F48FEF763FB09B0ED
:102CB00000BD10B5FFF778FFFFF7A2FF10BD642835
:102CC00000DD642010F1640F01DA6FF0630000286A
:102CD00007DB1549343108600021134A383211608E
:102CE00006E00021104A343211604142121D116089
:102CF0007047642800DD642010F1640F01DA6FF082
:102D00006300002806DB0021074A3C321160111DD8
:102D1000086006E04142044A3C3211600021121D65
:102D200011607047000402400008004020000020AD
:102D300022000020240000202600002000B58BB0D7
:102D400001210220FEF78FF84020099002208DF823
:102D5000280003208DF8290000208DF82A00022089
:102D60008DF82B0009A93448FDF710FE0222062138
:102D70003148FDF78EFE952007908B20ADF81800A6
:102D80000020ADF82000ADF81A0006A92B48FEF788
:102D900068FA6020ADF804000120ADF806000020BC
:102DA0000390ADF8100001A92448FEF7EFFA0821BE
:102DB0002248FEF778FC01212048FEF7BDFA0121E8
:102DC0001E48FEF7D7FA0BB000BD70B504468C2044
:102DD00060431B490860952018492C310860002584
:102DE00012E016482C300068401CC00813493431EA
:102DF00008604620FFF7E1FB0020104934310860ED
:102E00004620FFF7DAFB6D1CA542EADB70BD0B4ADA
:102E10002C321268521C9208084B34331A60094A4B
:102E200092FBF1F28C2392FBF3F2521E034B2C33F4
:102E30001A60034A1060704700000240000400401E
:102E40002800002000BD01051CB501210920FEF766
:102E50000AF802208DF8040001208DF8070048F2DE
:102E60000300009069462748FDF790FD0820009078
:102E700069462548FDF78AFD022200212148FDF719
:102E800008FE022201211F48FDF703FE01220F2147
:102E90001C48FDF7FEFD012203211B48FDF7F9FD4B
:102EA0004FF0FF311948FEF727FA4FF0FF314FF08E
:102EB0008040FEF721FA0223002203211348FEF787
:102EC00044FF0223002203215807FEF73EFF0121A1
:102ED0000E48FEF74FFA01218807FEF74BFA1CBD9A
:102EE0000A482430006870470020084924310860EF
:102EF00070474FF08040406A704700204FF080419B
:102F0000486270470000024000040240000C00408C
:102F100000B58DB001210802FDF7B6FFBC2001907D
:102F200003208DF8080000208DF80B0001A93B4814
:102F3000FDF72CFD032001908DF8080000208DF88E
:102F40000B0001A93648FDF721FD30200190032038
:102F50008DF8080000208DF80B0001A93148FDF71D
:102F600015FD002003904FF4803004900020059060
:102F70004FF47060069003A8FDF716FA0020079042
:102F80008DF820008DF821000A900B9001208DF81B
:102F9000300007A92448FDF7D8F9012240F20521A5
:102FA0002148FDF7B4FB01211F48FDF719FA4FF442
:102FB00080511B48FDF760FD4FF400511848FDF7A4
:102FC0005BFD4FF480411648FDF756FD4FF400417C
:102FD0001348FDF751FD40211248FDF74DFD8021BA
:102FE0001048FDF749FD0DB000BD70B505460E4611
:102FF00014462346012231462846FDF731FA284679
:10300000FDF78AFA00BF02212846FDF790FB002851
:10301000F9D02846FDF7BCFA70BD00000000024060
:1030200000040240000802400020014010B52DEDD0
:10303000048B04220321BA48FFF7D7FFB94908607F
:103040000846006801F043FA41EC100BB0EE409ADC
:10305000F0EE609A9FEDB40B53EC102B51EC190B72
:1030600001F0AEF841EC100BB0EE408AF0EE608A51
:1030700051EC180B01F0FCF9AD490860BDEC048B74
:1030800010BD10B504220921A548FFF7AEFFA949DC
:10309000086004220521A248FFF7A7FFA64908609F
:1030A000042208219E48FFF7A0FFA44908600422DB
:1030B00007219B48FFF799FFA1490860FFF764FAD1
:1030C00004464FF480519F48FDF7D4FC21463C2034
:1030D000FFF788FA042209219148FFF786FF9549F6
:1030E0000968401A934908604FF480519548FDF7EC
:1030F000C3FC90480068002802DA00208D4908606F
:1031000021468C20FFF76EFA80218F48FDF7B2FC34
:103110002146C820FFF766FA042205218048FFF700
:1031200064FF85490968401A834908608021864800
:10313000FDF7A2FC80480068002802DA00207E49E2
:10314000086021464FF48C70FFF74CFA4FF40051A1
:103150007C48FDF78FFC40217B48FDF78BFC214626
:103160004FF4AA70FFF73EFA042208216C48FFF7DB
:103170003CFF72490968401A70490860042207211F
:103180006748FFF732FF6E490968401A6C490860CA
:103190004FF400516B48FDF76FFC40216A48FDF782
:1031A0006BFC66480068002802DA0020634908606A
:1031B00063480068002802DA002061490860FFF7D0
:1031C00035FF5C4800686149096848434FF47A71EB
:1031D00090FBF1F057490860574800685B4909685F
:1031E00048434FF47A7190FBF1F05349086053481B
:1031F00000685649096848434FF47A7190FBF1F032
:103200004E4908604E4800685049096848434FF4E9
:103210007A7190FBF1F04A49086010BD70B5FFF774
:10322000B3F90646142500204949086000240AE045
:10323000042211463A48FFF7D8FE45490968084478
:1032400043490860641CAC42F2DB4CF2503090FB06
:10325000F5F03F49096848433D4908600846006861
:103260003C49401A3A490860084600684CF250311F
:1032700090FBF1F0364908600868C11700EB9171C6
:103280008910334A116034480068114609680844BF
:103290003149086000BFFFF777F9801BB0F57A7FEE
:1032A000F9D370BD10B5FFF7C1FE21480068B0F535
:1032B0002F7F33DA0020FFF702FD0020FFF719FD12
:1032C0002BE004212548FDF7D7FB4FF480511E4821
:1032D000FDF7D2FB4FF480712148FDF7CDFB4FF491
:1032E00000711948FDF7C8FBC820FFF766F90421F3
:1032F0001A48FDF7BFFB4FF480511348FDF7BAFBA6
:103300004FF480711648FDF7B5FB4FF400710E487D
:10331000FDF7B0FBC820FFF750F9D2E710BD000061
:103320000020014030000020D7A3703D0AD708409C
:1033300034000020380000203C0000204000002025
:103340004400002000040240000802402C0000203D
:103350004C00002060B2920550000020000C02409A
:10336000000002400948804709480047FEE7FEE7A1
:10337000FEE7FEE7FEE7FEE7FEE7FEE7FEE7FEE725
:1033800004480549054A064B704700000F35000800
:1033900089010008C8000020C8060020C8020020DB
:1033A000C8020020002100209A4A126842F48032AC
:1033B000984B1A6000BF974A126802F40030491C0B
:1033C00010B9B1F5A06FF6D1924A126812F4003F1D
:1033D00001D0012000E00020012846D18D4A403272
:1033E000126842F080528B4B40331A608A4A12684E
:1033F00042F48042884B1A60864A08321268854B34
:1034000008331A601A46126842F400421A601A46DB
:10341000126842F4A0521A60804A1B1F1A601A1FD9
:10342000126842F080721B1F1A6000BF794A12684E
:1034300012F0007FFAD040F20562794B1A60754AAB
:103440000832126822F00302724B08331A601A46DF
:10345000126842F002021A6000BF6E4A0832126817
:1034600002F00C02082AF8D150E06A4A12686D4B4B
:103470001A40684B1A601A46126842F001021A603C
:10348000644A4032126842F08052624B40331A6004
:10349000614A126842F480425F4B1A605D4A08320A
:1034A00012685C4B08331A601A46126842F40042F4
:1034B0001A601A46126842F4A0521A60574A1B1F3B
:1034C0001A601A1F126842F080721B1F1A6000BF38
:1034D000504A126812F0007FFAD040F20562504B59
:1034E0001A604C4A0832126822F00302494B083332
:1034F0001A601A46126842F002021A6000BF454A7A
:103500000832126802F00C02082AF8D1704710B590
:103510004548006840F47000434908603D48006831
:1035200040F001003B49086000203A49083108603A
:10353000384800683B490840364908603B48091D47
:103540000860081F006820F48020091F0860002020
:1035500030490C310860FFF725FF4FF00060324919
:103560008039086010BD70B50020002202230024BD
:103570000221284D08352D6805F00C0020B10428E3
:1035800006D0082834D107E0294D2A4E356033E0B3
:10359000294D284E35602FE01E4D2D1D2D68C5F399
:1035A00080541C4D2D1D2D6805F03F0154B1224D56
:1035B000B5FBF1F5174E361D3668C6F3881605FBC8
:1035C00006F209E01A4DB5FBF1F5124E361D3668CC
:1035D000C6F3881605FB06F20E4D2D1D2D68C5F3AA
:1035E00001456D1C6B00B2FBF3F5124E356003E034
:1035F0000F4D104E356000BF00BF064D08352D68D9
:10360000C5F303150D4E705D0A4D2D68C540094E7A
:10361000356070BD00380240007000401054000753
:10362000003C0240FFFFF6FE88ED00E01030002471
:103630000024F4005400002000127A0058000020FA
:10364000704700000FB4044910B503AA029800F0B7
:10365000F7FA10BC5DF814FB1800002070B50446A2
:1036600085690068C10601D5302600E02026C00724
:1036700008D070BDD4E9012130469047206A00F19E
:10368000010020626D1EF5D570BD70B504468569D8
:103690000078C00708D170BDD4E9012120209047EF
:1036A000206A00F1010020626D1EF5D570BD70B575
:1036B0000C460546012A05D02878800600D5EA691F
:1036C000002302E0012305E05B1C934202D2E05C90
:1036D0000028F9D1A869E618C01AA861286A184418
:1036E00028622846FFF7BAFF04E0D5E9012114F863
:1036F000010B9047B442F8D32846FFF7C6FF70BDD0
:103700002DE9F0410646002410687529314616A5BA
:1037100011D0AFF30080002803DAC0F1000013A538
:1037200007E031688A0701D511A502E0490704D5F1
:1037300010A5012401E0AFF3008000210A2306F167
:10374000240707E0B0FBF3F203FB1200303078549B
:103750001046491C0028F5D123462A463046BDE8CC
:10376000F04100F0FBB90000000000002D00000057
:103770002B000000200000002DE9F0474FF0000A68
:1037800089460446C0F820A02046E1688847002802
:1037900076D0252806D0D4E901219047206A401C24
:1037A0002062F1E7E168204600258847C4F81CA0A4
:1037B00006460027C4F818A02A2E09D0304600F08B
:1037C000E1FC38B304EB8708303EC8F8186019E014
:1037D00059F8041B204604EB87029161E168884791
:1037E000012F064618D1E069002820DA25F02005CF
:1037F0001DE0D8F8180000EB800006EB40003038E0
:10380000C8F818002046E1688847064600F0BAFC70
:103810000028EED1012F0AD02E2E08D12046E168D3
:1038200088477F1C0646022F45F02005C4DBA069AF
:10383000002803DA404245F00105A061E80701D005
:1038400025F01005B6B1A6F14100192802D820369E
:1038500045F400654A463146204625604D46FCF752
:10386000CDFC58B1012806D0ED1D25F0070000F170
:10387000080989E704E005F1040985E730468AE78D
:10388000206ABDE8F08700000FB400B589B00BA82E
:103890006A46009003480A9900F0F2F909B05DF811
:1038A00014FB00001C0000202DE9FF5F1D464FF0B7
:1038B000FF3B91464FF000085F46D5E90146A969F4
:1038C00001987F1C8847296A824688470028F6D1DC
:1038D0001AF101000CD0002E24F4C06419DD60063A
:1038E00014D5BAF12B0F09D0BAF12D0F0ED103E088
:1038F000584604B0BDE8F09F44F48064A96901987B
:103900007F1C8847761E8246002E02DDBAF1300FFA
:1039100003D0B9F1000F26D032E0A969761E0198D4
:103920007F1C44F400748847002E824605DDBAF1FE
:10393000780F06D0BAF1580F03D0B9F1000F10D0AC
:103940001EE0B9F1000F02D0B9F1100F18D1A9692A
:10395000761E01987F1C24F400748847824610204C
:1039600002E0082000E00A20814609E0A96908FB7E
:103970000908761E01987F1C44F40074884782462B
:10398000002E05DD4946504600F06CF90028EDDABE
:10399000E96901988847A00502D46FF00100A8E703
:1039A000E00727D1600614D5600502D5C8F10000F4
:1039B00000E04046296801F104022A6009682205F6
:1039C00001D5087016E0220701D5088012E00860D2
:1039D00010E0286800F1040129600068210502D583
:1039E00080F8008006E0210702D5A0F8008001E001
:1039F000C0F8008038467CE72DE9FF5F4FF00008F3
:103A00009946144646469169D2E901A7DDF838B0D7
:103A100001988847054659EA0B0005D009E0A169DD
:103A20000198761C88470546216A28468847002861
:103A3000F5D1681C03D05FEACA7005D015E04FF0DD
:103A4000FF3004B0BDE8F09F2068011D2160D0F870
:103A500000800AE05FEACA7001D108F8015BA16941
:103A60007F1E0198761C88470546002F1ADD681CCA
:103A700018D0B9F1000F0DD0E81705EBD060421156
:103A800020F01F0059F822102A1A0120904001420C
:103A9000E0D107E0BBF1000FDCD12846216A88475E
:103AA0000028D7D0E169019888470AF0010050EA60
:103AB0000B0002D1002188F80010A068B84203DD95
:103AC000BBF1000F03D017B16FF00100B9E730462A
:103AD000B7E700004FF0013C50F8042B51F8043BCD
:103AE0009A4221D1A2EB0C03934313EACC1317D1D2
:103AF00050F8042B51F8043B9A4215D1A2EB0C0369
:103B0000934313EACC130BD150F8042B51F8043B28
:103B10009A4209D1A2EB0C03934313EACC13DBD0F6
:103B20004FF00000704700BFD01A01BAB1FA81F11E
:103B300001F0180122FA01F0CB40C1F12001DBB203
:103B4000C0B2C01A2CFA01F3D11A914311EAC31181
:103B5000E6D1704770477047704770472DE9F047CE
:103B60000D4699469246044600F1240801688806ED
:103B700004D5E06921F01001216000E00120A84295
:103B800002DDA0EB050700E00027A16907EB0502B5
:103B900002EB0900A1EB0000A0612078C00602D46E
:103BA0002046FFF75BFD002608E0D4E901211AF862
:103BB00006009047206A401C761C20624E45F4DBCC
:103BC0002078C0060AD52046FFF748FD06E0D4E974
:103BD000012130209047206A401C2062381EA7F146
:103BE0000107F4DC07E0D4E9012118F8050090474B
:103BF000206A401C2062281EA5F10105F3DC204646
:103C0000FFF743FD2078000602D50220BDE8F087CB
:103C10000120FBE710B5436913B1AFF3008001E069
:103C2000FFF745FD012010BD127800F124010A7054
:103C300000224A700122EDE711684FF0FF32E9E7F8
:103C4000074B70B50D467B4400F02BF80446284620
:103C500000F074F810B14FF0FF3070BD204670BD19
:103C6000E7ECFFFF3A2800D2303820F02002412A4A
:103C700001D3A2F13700884201D34FF0FF307047E3
:103C8000034B7B449361034B7B44D36100F022B828
:103C9000CBECFFFF6B00000001694A1C0261087851
:103CA000704700B58FB0CDE901310021059105497C
:103CB0007944CDE9031011466846FFF75DFD0FB06A
:103CC00000BD0000E5FFFFFF0268114413780160AA
:103CD00018467047D16005497944516104497944D7
:103CE000116200211161114600F05AB8EDFFFFFF8B
:103CF000AD000000704710B54FF0FF34C1688A0274
:103D00000FD5036B42689A420BD1014690F82520EB
:103D1000104600F0FDF9401C01D1204610BD0020E6
:103D200010BD11F0C00FF8D1026941689142F4D979
:103D30000268521C491EC0E90021F0E7007B00F038
:103D400080007047754600F00DFAAE4605006946E2
:103D5000534620F00700854618B020B5FFF710FB4A
:103D6000BDE820404FF000064FF000074FF000087C
:103D70004FF0000B21F00701AC46ACE8C009ACE8FD
:103D8000C009ACE8C009ACE8C0098D46704710B561
:103D9000044600F0EBF90068005D00F0010010BD82
:103DA0002DE9F34F4FF0000A0C4656468DB0012026
:103DB0000C9001F10C000B9062690B980121904767
:103DC00005002DD0252D2CD0216A8847C0B162690D
:103DD0000B9801219047216A88470028F7D1626932
:103DE000411E0B98904700E0761CA1690D9888470A
:103DF000216A88470028F7D1E1690D988847DBE7F9
:103E0000A1690D988847A842074601D1761CD3E7DF
:103E1000E1690D9888477F1C02D1BAF1000F6FD07D
:103E20006AE162690B9800273D46394690472A2887
:103E300004D162690B98012190470125DFF8CC82FB
:103E400062690B9801219047A0F130010A290AD23A
:103E50004745E5DC07EB870100EB4107303FDFD446
:103E600045F01005ECE7E90601D46FF000476C2837
:103E70000AD04C2814D0682815D06A280DD0742890
:103E80001CD07A281AD01DE062690B980121904756
:103E90006C2802D045F0040514E045F002050DE061
:103EA00045F020050AE062690B98012190476828D7
:103EB00002D045F0080505E045F4006562690B98FD
:103EC00001219047C4E9015765283DD019DC5828E5
:103ED00079D00CDC452837D004DC252826D04128B1
:103EE0009ED131E046282FD0472899D12CE05B287D
:103EF0007FD0612828D063287BD0642890D159E0F6
:103F0000F5E06F2847D008DC66281DD067281BD055
:103F1000692821D06E2816D127E0702844D0732854
:103F200067D0752846D078280DD14CE0A1690D984E
:103F30008847252805463FF469AFE1690D98884711
:103F40006D1C3FF46AAFD7E00D9923466A466FF0C7
:103F50000100AFF30080C4E045F0400023464FF07D
:103F600000026060A80735D43DE0206800F104013C
:103F700021600068290501D506701DE7290701D5D4
:103F8000068019E7A90704D54FEAE671C0E9006188
:103F900012E7066010E745F0400023464FF00802A4
:103FA0006060A80716D41EE040F60E0125EA010065
:103FB000606016E045F0400023464FF00A02606062
:103FC000A80707D40FE045F040006060A80708D5B7
:103FD000234610220D996FF00100AFF3008080E0BE
:103FE00007E0102223460D996FF00100FFF75CFCFB
:103FF00077E04FF0000963284F46C8464B46CB4652
:1040000002D05B2806D038E0E80601D40120A06089
:10401000012732E06269D4F80CB00B980121904777
:104020005E2807D14FF0010949466269D4F80CB007
:104030000B989047216939B900210B4603AA42F831
:104040002130491C0829FADBD8B3216949B308F1AA
:10405000010862690B98012190475D28F4D1B9F1FC
:10406000000F09D0002003A951F82020D24341F8C5
:104070002020401C0828F7DB03AB206900282079AA
:104080004FEA40701ED05B462246CDF80080CDE955
:1040900001970D9900286FF0010020DAAFF300803E
:1040A0001FE0C11700EBD16203A9531122F01F02D8
:1040B00001EB8301821A0B680120904003430B60DF
:1040C000C7E719E00D99224600286FF0010000971C
:1040D00002DAAFF3008004E0FFF78EFC01E0AFF3FB
:1040E000008000280ADA401C06D10C9820B14FF05D
:1040F000FF300FB0BDE8F08F5046FAE7E90701D175
:104100000AF1010A064400200C9055E6CCCCCC0CF8
:10411000CA68431C0FD00D4B1A420CD1D3070AD0EA
:1041200081F825004B680B6300238B6012F0C06F91
:104130000B6003D004E04FF0FF30704742F0007294
:10414000034B1A40034B1A43CA6070478020080093
:10415000BFFFDFFF001048000446AFF30080204699
:10416000FCF76FF8004870476800002010B500F0B9
:1041700005F8001D10BD00BF1D000000004870477D
:104180008800002030380A2801D201207047002022
:104190007047000010B500290AD00878002807D021
:1041A00005487844FFF796FC002801D0002010BD98
:1041B0000248784410BD0000B2040000AA040000C8
:1041C0002DE9C04130B4DFF8A0C23CEA111418BF99
:1041D0003CEA131400F0EC8081EA03051CEA111498
:1041E00044EAD57418BF1CEA131500F0C780A4EB8D
:1041F00005044FF0004545EAC12145EAC32341EAE1
:10420000505143EA525304F17F74994204F500344B
:104210004FEAC0204FEAC22208BF904200F09C80C3
:104220004FEA13650FF24016765D4FEA134506FB21
:1042300005F7C7F1807706FB07F74FEAD737A7FBEB
:1042400003687642C8F58038A7FB06CE38BFA8F1D0
:10425000010807FB08E64FF0000EA6FB028CE6FB08
:1042600003CEDCF1000CCEF1004E38BFAEF1010EF2
:10427000A6FB0C584FF000074FF00005E6FB0E8739
:10428000A1FB08C6A0FB07CE16EB0E0645F1000504
:10429000E1FB076515F1E04E7EBFA4F580345FEACF
:1042A00046066D4116F1800745F100054FEA1727D4
:1042B0004FEA066647EA0567A6F1DE46B6F1805F7B
:1042C0004FEA15251FD9384624F0010C05EBC471BF
:1042D000BCF1FE6F01EB0C1102D8F0BCBDE800810F
:1042E00024425CBF01F5801E9EEAC47F02D4F0BC6C
:1042F000BDE80081244238D4F0BCA1F1C041BDE842
:10430000004100F049B94FEAD22242EA43524FEA53
:10431000D323A7FB02864FEAD02040EA415007FB97
:1043200003661EEA0E0F4FEAD12105FB026658BF55
:10433000A6EB0056B6EB00564FEA520E4EEAC37E8D
:1043400018EB0E0E56EB530EBDD518EB02085E416E
:104350007F1C55F10005B6E74FF480154FF00007BC
:104360004FF000064FF00008ADE7F0BC4FF0000042
:1043700001F1C04101F00041BDE8008111EA0C1FCC
:104380000CEA131500D00CE013EA0C1F00F0258096
:104390004FF00000F0BC81EA030101F00041BDE8EC
:1043A0000081F0BCBDE8004181EA030100F0F4B8EF
:1043B000F0BCBDE8004170B500F0A0F8097EFC3EFD
:1043C00000F007B881EA03014FF0000001F000415E
:1043D000704781EA030100F0DFB8F0BCBDE800419E
:1043E0004FF0000021497047FFFDFBF9F7F5F4F2AB
:1043F000F0EEEDEBE9E8E6E4E3E1E0DEDDDBDAD880
:10440000D7D5D4D3D1D0CFCDCCCBCAC8C7C6C5C4DD
:10441000C2C1C0BFBEBDBCBBBAB9B8B7B6B5B4B3F4
:10442000B2B1B0AFAEADACABAAA9A8A8A7A6A5A4DF
:10443000A3A3A2A1A09F9F9E9D9C9C9B9A999998A3
:104440009797969595949393929191908F8F8E8E46
:104450008D8C8C8B8B8A89898888878786858584D3
:1044600084838382828181800000FF070000F87FBF
:104470004FEA41034FEA5353A3F58063D3F11E0380
:10448000C8BFD3F1210C0CDD4FF0004242EAC1223B
:1044900042EA505232FA03FC8CEAE17CACEBE17068
:1044A0007047102BC4BF0020704703F5787CBCF127
:1044B000FF3F04D06FF0004282EA2100704770B5E0
:1044C00000F01CF84992248000207047F2E710F0B9
:1044D000004248BF4042B0FA80F310FA03F10AD01C
:1044E000C3F11D0303F580634FEA415002EB035211
:1044F00002EBD12170474FF0000070470EF1020E21
:104500002EF0030E5EF8046B364205D4012A43EB0D
:10451000030515F5001F12D8012841EB010C1CF50D
:10452000001F0CD80ED14FEAD17C15F5001F0CEB03
:104530004C0C0CF1020C08BF4CEBD37C04E04FF0A8
:10454000080C01E04FEAD37C0CEB4C0526FA05F68B
:1045500006F00706B6F1040C06D20EEB860CBDE899
:1045600070404CF0010C6047DFE80CF0090B0202D0
:104570004FF000414FF00000A1F5002170BD194639
:104580001046012851EB010418BFD4F5001484BF74
:10459000002001F0004170BD0808A0F500114FEAAD
:1045A000310170474FF04070E1EE100A7047000093
:1045B0004C454D5F4620253464207C204C454D5FA2
:1045C0004420253464207C52454D5F4620253464C8
:1045D000207C2052454D5F4420253464207C204CB3
:1045E000454E4320253964207C2052454E432025EA
:1045F0003964207C2061537065656420253864200F
:104600007C20616E676C6520253864207C20766F85
:104610006C7461676520253464207C204F75747A42
:1046200020253464207C2056726566202534640D74
:104630000A00000064470008000000206800000035
:10464000C4010008CC470008680000206006000094
:10465000E00100081001000043000000F8FFFFFF28
:104660000040404040404040404041414141414085
:10467000404040404040404040404040404040403A
:1046800040050202020202020202020202020202C9
:1046900002202020202020202020200202020202CE
:1046A0000202909090909090101010101010101026
:1046B0001010101010101010101010100202020232
:1046C0000202888888888888080808080808080876
:1046D0000808080808080808080808080202020272
:1046E000400000000000000000000000000000008A
:1046F00000000000000000000000000000000000BA
:1047000000000000000000000000000000000000A9
:104710000000000000000000000000000000000099
:104720000000000000000000000000000000000089
:104730000000000000000000000000000000000079
:104740000000000000000000000000000000000069
:104750000000000000000000000000000000000059
:104760000000000000000000010203040102030435
:10477000060708090000000000000000000000001B
:104780000000000000000000000000000000000029
:10479000E80300000000000000000000000000002E
:1047A0000000000000000000000000000000000009
:1047B0000000000000000000007A030A0000000072
:0C47C000000000000102030406070809C5
:040000050800018965
:00000001FF
