:020000040800F2
:10000000B0070020D1340008C51D0008C71D000836
:10001000C91D0008CB1D0008CD1D00080000000010
:10002000000000000000000000000000CF1D0008DC
:10003000D11D000800000000D31D0008D51D0008D8
:10004000EB340008EB340008EB340008EB34000814
:10005000EB340008EB340008EB340008EB34000804
:10006000EB340008EB340008EB340008EB340008F4
:10007000EB340008EB340008EB340008EB340008E4
:10008000EB340008EB340008EB340008EB340008D4
:10009000EB340008EB340008EB340008F31D0008D3
:1000A000EB340008EB340008EB340008EB340008B4
:1000B000EB340008EB340008EB340008EB340008A4
:1000C000EB340008EB340008EB340008EB34000894
:1000D000EB340008EB340008EB340008EB34000884
:1000E000351E0008EB340008EB340008EB34000840
:1000F000EB340008EB340008EB340008EB34000864
:10010000EB340008EB340008EB340008EB34000853
:10011000EB340008EB340008EB340008EB34000843
:10012000EB340008EB340008EB340008EB34000833
:10013000EB340008EB340008EB340008EB34000823
:10014000EB340008EB340008EB340008EB34000813
:10015000EB340008EB340008EB340008EB34000803
:10016000EB340008EB340008EB340008EB340008F3
:10017000EB340008EB340008EB340008EB340008E3
:10018000EB340008EB34000800F002F800F078F8D7
:100190000AA090E8000C82448344AAF10107DA45E2
:1001A00001D100F06DF8AFF2090EBAE80F0013F0BC
:1001B000010F18BFFB1A43F0010318475056000007
:1001C000705600000A444FF0000C10F8013B13F089
:1001D000070408BF10F8014B1D1108BF10F8015BA0
:1001E000641E05D010F8016B641E01F8016BF9D193
:1001F00013F0080F1EBF10F8014BAD1C0C1B09D1EA
:100200006D1E58BF01F801CBFAD505E014F8016B5B
:1002100001F8016B6D1EF9D59142D6D370470000ED
:100220000023002400250026103A28BF78C1FBD8FF
:10023000520728BF30C148BF0B607047662905F0E0
:100240005082642903F0B482632903F0558773292F
:1002500003F05A87002070471FB505F038FA03F005
:1002600083FF04000020002104F0DCFE401C6060DD
:100270000020002104F0C0FEE0601FBD10B510BDDD
:1002800004F0C8F81146FFF7E7FF01F034FC04F072
:10029000CBFA03B4FFF7F2FF03BC01F0C9FF000083
:1002A0002749084327490860704770B50F23C27873
:1002B000017801254FF0E026E2B1224A126802F4EB
:1002C000E062C2F5E062C2F30722C2F10404D34047
:1002D0004278A24084781C401B4B14432201CA542C
:1002E000007800F01F018D40400906EB8000C0F847
:1002F000005170BD01F01F008540480906EB8000E9
:10030000C0F8805170BD114A114001430D48001FD3
:10031000016070470B4A121D0029116801D001438A
:1003200000E08143116070474FF0E0210428086924
:1003300003D020F004000861704740F00400FAE7A1
:100340000000FA050CED00E000E400E080FFFF1F74
:1003500010B501210C02204600F07DFC2046BDE8CE
:100360001040002100F077BC30B54268C44B0C79D6
:100370001A400B6842EA0422134343608268C14B6F
:100380004D791A40D1E9034323438C6844EA45047C
:10039000234313438360C26A097D22F47002491E1D
:1003A000C9B242EA0151C16230BD00210160017150
:1003B00041718160C1600161012101757047B24BDB
:1003C00010B51A68B1490A40D0E900142143D0E9B8
:1003D0000240044321431143196010BD0021016014
:1003E00041608160C16070470029816802D041F09E
:1003F000010101E021F00101816070474268A44BD6
:100400001A400A4342607047416282627047426804
:1004100022F01F020A43426070479E490028D1F82B
:10042000040302D040F4000001E020F40000C1F811
:100430000403704797490028D1F8040302D040F420
:10044000800001E020F48000C1F80403704770B51B
:10045000072609290AD9C568A1F10A0404EB440456
:10046000A640B543A3401D43C56007E0056901EB05
:100470004104A640B543A3401D4305611F23072A3D
:1004800009D2446B521E02EB820293409C4391407E
:100490000C43446370BD0D2A09D2046BD21F02EBDA
:1004A000820293409C4391400C43046370BDC46A34
:1004B0000D3A02EB820293409C4391400C43C4628C
:1004C00070BD816841F08041816070470146002025
:1004D0008968490200D5012070470029816802D04F
:1004E00041F4806101E021F480618160704700295E
:1004F000816802D041F0020101E021F00201816037
:1005000070474268491E22F4604242EA413141602C
:1005100070470029416802D041F4006101E021F4F4
:10052000006141607047C06C80B270475648001D42
:10053000006870470029816802D041F4807101E0B1
:1005400021F48071816070470029816802D041F4F4
:10055000007101E021F40071816070474D4900286D
:10056000D1F8040302D040F4005001E020F4005020
:10057000C1F80403704770B5072609290AD9C56870
:10058000A1F10A0404EB4404A640B543A3401D4373
:10059000C56007E0056901EB4104A640B543A340EF
:1005A0001D430561836BC3F30154121B921C02EBC4
:1005B00082021F249440A34391400B43836370BD88
:1005C000826B491E22F4401242EA01518163704756
:1005D00042507047826822F470220A43826070475A
:1005E000826822F440120A4382607047816841F4B5
:1005F000800181607047014600208968490200D56A
:10060000012070470029416802D041F4806101E077
:1006100021F48061416070470029416802D041F4B3
:10062000805101E021F48051416070470844806AA4
:1006300080B2704701238B4041680AB1194300E042
:100640009943416070470246002012680A4200D078
:1006500001207047C9430160704730B50246002051
:1006600054680B0A01258D4011682C40194202D0B4
:10067000002C00D0012030BD6FEA112101607047CD
:10068000FFFEFFFCFDF7FFC004230140E030FCFF4C
:10069000FFFD3FFF00200140374900200860091D91
:1006A0000860091D0860091D08603349334814318A
:1006B0000860704730B5304A8379016853B31368D6
:1006C0008B431360111D0B680468A3430B60017911
:1006D00011440B68046823430B60274B08331968E7
:1006E0000468A14319601C1D21680568A9432160A5
:1006F0004179102905D011440A68006802430A6054
:1007000030BD19680268114319602168006801430F
:10071000216030BD0079104402688A43026030BD18
:100720000021016001710C224271817170471249F0
:1007300010310A6802430A60704701460E4A0020E1
:10074000143212680A4200D0012070470A4914315D
:1007500008607047084A014600201268064B0A40AC
:1007600014331B680B4202D0002A00D001207047CE
:100770000149143108607047003C0140FFFF7F00D1
:100780006F4910B5884206D10121084600F03BFAB6
:10079000002101204FE06B49884206D1012102204F
:1007A00000F031FA0021022045E06749884206D175
:1007B0000121042000F027FA002104203BE06349D6
:1007C000884206D10121082000F01DFA00210820EE
:1007D00031E05F49884206D10121102000F013FA70
:1007E0000021102027E05B49884206D1012120200A
:1007F00000F009FA002120201DE05749884206D167
:100800000121402000F0FFF90021402013E053496E
:10081000884206D10121802000F0F5F900218020D6
:1008200009E04F4988420AD184150121204600F091
:10083000EAF900212046BDE8104000F0E4B910BDFF
:10084000F0B5002201274FF0030C0B6807FA02F500
:100850002B40AB422CD1066853000CFA03F4A6439C
:1008600006600E79D0F800E09E4046EA0E0606606B
:100870000E79012E01D0022E12D18668A643866021
:100880004E79D0F808E09E4046EA0E06866046683B
:10089000AE43466045688E799640B6B235434560B2
:1008A000C568A543C560CC799C40C3681C43C4603F
:1008B000521C102AC9D3F0BD4FF6FF710160002110
:1008C000017141718171C171704741F48032C2611F
:1008D000C161C261C169C0697047024600201269E6
:1008E0000A4200D001207047006980B2704702467A
:1008F000002052690A4200D001207047406980B24E
:10090000704701837047418370470AB10183704784
:10091000418370474161704742694A404261704774
:100920004B07DB0E9A40C90810B500EB8100016A45
:100930000F249C40A1430162016A1143016210BD72
:10094000000002400004024000080240000C024087
:10095000001002400014024000180240001C024037
:1009600000200240E948016841F001010160E74AC6
:100970000021083211600268E54B1A400260031D35
:10098000E44A1A60026822F480220260DF480C30D8
:1009900001607047DD490022891C0A7008707047A9
:1009A00002460020510901290CD002290CD0D74958
:1009B0007431096802F01F02012393400B4200D0FA
:1009C00001207047D149F4E7D0497031F1E730B5E3
:1009D00000244FF4A0653120FFF7E2FF641CAC4215
:1009E00001D00028F7D03120FFF7DAFF002800D02F
:1009F000012030BDC54A116821F0F80141EAC0006C
:100A000010607047C44908607047C04900227031C7
:100A10000A700A70012802D0042801D1052008704C
:100A20007047BE490860704741EA82115A0810B504
:100A3000BB4B029C03EB02421143014341EA0460B9
:100A4000B249091D086010BDB349086670478001AE
:100A500040EA0170AD49843108607047AE4988664C
:100A60007047AD49C8647047A84B08331A680843FB
:100A700022F0EC62104318607047A44B08331A68E8
:100A8000084322F078421043186070479F4A0832AA
:100A9000116821F003010143116070479B48083041
:100AA000006800F00C007047984A0832116821F085
:100AB000F001014311607047944A0832116821F433
:100AC000E051014311607047904A0832116821F4E7
:100AD000604141EAC0001060704770B58B4B08332D
:100AE0001968904C11F00C0104D06610042903D051
:100AF000082903D004601BE0066019E0834A121D38
:100B00001168C1F38055116801F03F0115B1B6FBC2
:100B1000F1F101E0B4FBF1F114681268C4F3881438
:100B20006143C2F30142521C5200B1FBF2F1016079
:100B300019687D4A01F0F0010909545C0168E1403F
:100B400041601C6804F4E054A40A145D21FA04F422
:100B500084601B6803F460435B0BD25CD140C160CE
:100B600070BDC0F30121032908D1684B083319680F
:100B70006E4A21F4F81102400A431A606349703149
:100B80000A68C0F30B0002430A60704763494439A6
:100B900008607047614940390860704764490860DF
:100BA00070475A4A30320029116801D0014300E0F1
:100BB000814311607047554A34320029116801D0D1
:100BC000014300E0814311607047504A38320029E8
:100BD000116801D0014300E08143116070474B4A26
:100BE00040320029116801D0014300E081431160C7
:100BF0007047464A44320029116801D0014300E0A1
:100C0000814311607047414A10320029116801D0B8
:100C1000014300E08143116070473C4A14320029CF
:100C2000116801D0014300E0814311607047374AE9
:100C300018320029116801D0014300E0814311609E
:100C40007047324A20320029116801D0014300E088
:100C50008143116070472D4A24320029116801D068
:100C6000014300E0814311607047284A5032002957
:100C7000116801D0014300E0814311607047234AAD
:100C800054320029116801D0014300E08143116012
:100C900070471E4A58320029116801D0014300E014
:100CA000814311607047194A60320029116801D0F0
:100CB000014300E0814311607047144A6432002907
:100CC000116801D0014300E08143116070470F4A71
:100CD0000D320029117801D0014300E081431170E9
:100CE00070470A487430016841F0807101607047B4
:100CF0000146064A00200C3212680A4200D0012048
:100D0000704702490E3108707047000000380240F9
:100D1000FFFFF6FE1030002400004742800E4742DD
:100D20000000FFFF0024F40000000020FFFCFF0F84
:100D30005C01474210B501218C032046FFF78BFF71
:100D40002046BDE810400021FFF785BF114908602B
:100D5000704710B58A0721F00304120F0F230D49C5
:100D60009340083121440C689C430C600B68904010
:100D700003430B6010BD08490860704707490860CD
:100D800070470449002020310968C90500D50120B9
:100D90007047000000380140DC0027420004274271
:100DA000FE4910B5884206D101210846FFF753FFDE
:100DB000002101205BE0B0F1804F09D0F849884262
:100DC0000DD101210220FFF73CFF0021022070E03D
:100DD00001210846FFF735FF0021012069E0F149B4
:100DE000884206D101210420FFF72BFF00210420B7
:100DF0005FE0ED49884206D101210820FFF721FF7D
:100E00000021082055E0E949884206D1012110203F
:100E1000FFF717FF002110204BE0E549884206D17B
:100E200001212020FFF70DFF0021202041E0E149B2
:100E3000884206D101210220FFF70DFF0021022088
:100E400015E0DD49884202D101210C040AE0DB49AA
:100E5000884202D101214C0404E0D94988420AD1D8
:100E600001218C042046FFF7F6FE00212046BDE854
:100E70001040FFF7F0BED349884206D1012140203F
:100E8000FFF7DFFE0021402013E0CF49884206D162
:100E900001218020FFF7D5FE0021802009E0CB4909
:100EA00088420AD1841501212046FFF7CAFE00219D
:100EB0002046BDE81040FFF7C4BE10BD30B5028823
:100EC000B64CBC4DA0420DD0A8420BD0B0F1804F23
:100ED00008D0B34B984205D0B24B984202D0B24BE7
:100EE000984203D122F070034A881A43AF4B9842CC
:100EF00006D0AF4B984203D022F440730A891A43BC
:100F000002804A68C2620A880285A04201D0A842D3
:100F100001D1897A01860121818230BD4FF0FF31F4
:100F2000416000210180018141808172704701850B
:100F300082827047028822F070020A430280704762
:100F400041627047C1627047406A7047008D7047C8
:100F50000029018802D041F0020101E021F00201E4
:100F6000018070470029018802D041F0040101E0AE
:100F700021F00401018070470029018802D041F06E
:100F8000800101E021F0800101807047028822F099
:100F90000802028002880A4302807047028822F415
:100FA0004072028002880A4302807047002901884B
:100FB00002D041F0010101E021F001010180704700
:100FC00030B5028C22F001020284028C8388048BEB
:100FD00022F0020224F073050C882C438D891543FE
:100FE0004A882A436D4DA84202D0724DA8420DD1C5
:100FF00022F00805CA8923F440732A4322F004052D
:101000008A882A430D8A1D434B8A2B43838004839D
:1010100089684163028430BD70B5028C22F01002F1
:101020000284028C8388048B0D8824F4E6464FF6F4
:10103000FF7404EA052535438E8922F0200204EA74
:10104000061616434A8804EA02123243534EB0424F
:1010500002D0584EB04215D122F08006CA8923F43E
:10106000406304EA0212324322F040068A8804EA0E
:10107000021232430E8A04EA86061E434B8A04EAB1
:10108000830333438380058389688163028470BD51
:1010900070B5028C22F480720284028C8388848B67
:1010A0000D8824F0730425438E894FF6FF7422F4D3
:1010B000007204EA062616434A8804EA02223243F2
:1010C000364EB04202D03B4EB04215D122F40066FB
:1010D000CA8923F4405304EA0222324322F4806690
:1010E0008A8804EA022232430E8A04EA06161E4364
:1010F0004B8A04EA03133343838085838968C16381
:10110000028470BD70B5028C22F480520284058C7A
:101110008288838B0C8823F4E6464FF6FF7303EA3C
:101120000424344325F400568D8903EA05353543FC
:101130004E8803EA06362E43184DA84202D01D4DB4
:10114000A84205D122F480450A8A03EA82122A4382
:101150008280848389680164068470BD00210180D7
:101160004180818081608181C1810182418270479B
:1011700030B50124058C00F118038C40A54305848B
:1011800031B308292CD0091FC1F34E00184401685F
:1011900048F6FF731940016001681AE00000014041
:1011A0000004004000080040000C00400010004017
:1011B0000014004000040140004001400044014090
:1011C0000048014000180040001C00400020004082
:1011D00006E04FF6FF7303EA02221143016030BDBF
:1011E00003EB510001684FF68F73194001600168ED
:1011F000F3E74163704781637047C16370470164DF
:101200007047028B22F070020A4302837047028B00
:101210004FF6FF7322F4E04203EA012111430183F8
:101220007047828B22F070020A4382837047828B60
:101230004FF6FF7322F4E04203EA01211143818358
:101240007047028B22F008020A4302837047028B28
:101250004FF6FF7322F4006203EA01211143018378
:101260007047828B22F008020A4382837047828B88
:101270004FF6FF7322F4006203EA012111438183D8
:101280007047028B22F004020A4302837047028BEC
:101290004FF6FF7322F4806203EA012111430183B8
:1012A0007047828B22F004020A4382837047828B4C
:1012B0004FF6FF7322F4806203EA01211143818318
:1012C0007047028B22F080020A4302837047028B30
:1012D0004FF6FF73C2F30E0203EA012111430183AB
:1012E0007047828B22F080020A4382837047828B90
:1012F0004FF6FF73C2F30E0203EA0121114381830B
:101300007047028C22F002020A4302847047028C6A
:1013100022F008020A4302847047028C4FF6FF73E2
:1013200022F0200203EA0111114301847047028C6C
:101330004FF6FF7322F0800203EA0111114301848A
:101340007047028C4FF6FF7322F4007203EA01210A
:10135000114301847047028C4FF6FF7322F4006240
:1013600003EA0121114301847047028C4FF6FF7399
:1013700022F4005203EA013111430184704710B591
:101380000123048C8B409C430484038C8A401343C8
:10139000038410BD10B50423048C8B409C4304844B
:1013A000038C8A401343038410BD828B22F4406275
:1013B0008283828B4FF6FF7303EA01210A43828303
:1013C0007047828B22F00C028283828B0A438283D5
:1013D0007047028B22F440620283028B4FF6FF7348
:1013E00003EA01210A4302837047F0B5048C24F01C
:1013F00010040484078B068C4FF6FF7404EA011571
:1014000027F4734704EA0331394304EA02220A430A
:1014100026F0A001294341F0100102830184F0BDB0
:10142000028B22F00C020283028B0A430283704774
:101430002DE9F0410C460E884988A288238905468B
:101440000EB3042E26D0082E2E8C4FF6FF7028D017
:1014500026F480562E84AF8B2E8C00EA022200EAFE
:10146000013127F473473A4300EA0330104326F46E
:1014700020420A4342F48051A8832984E188284607
:10148000BDE8F04191E700F061F9E1882846BDE848
:10149000F041C5E7FFF7A9FFE1882846BDE8F04124
:1014A00097E726F480762E84AF8B2E8C00EA0121FC
:1014B00000EA0310104327F0F307384326F42062B4
:1014C0000A4342F48071A8832984E1882846BDE854
:1014D000F04176E700210180418001228280C180B5
:1014E000018170472DE9F0410C46002549880746E7
:1014F000012601B90225A288012A00D102262088EE
:1015000023890028384610D0FFF76FFFE18838465E
:10151000FFF75FFF238932462946384600F016F967
:10152000E1883846BDE8F0417AE700F00FF9E1883C
:101530003846FFF775FF2389324629463846FFF7BC
:1015400054FFE1883846BDE8F04142E7406B704700
:10155000806B7047C06B7047006C704710B50A888D
:101560004B88CC881A438B8823431A430B891A4330
:101570004B8989891A430A43A0F8442010BD0021F1
:10158000018041808180C1800181418181817047DA
:10159000002930F8441F02D041F4004101E0C1F3BA
:1015A0000E01018070470029818802D041F00401BA
:1015B00001E021F00401818070470029818802D078
:1015C00041F0010101E021F0010181807047002A12
:1015D000828901D00A4300E08A4382817047818278
:1015E000704702460020128A0A4200D0012070474C
:1015F000C94301827047034600201A8A9B890A4228
:1016000003EA010302D0002B00D001207047C94338
:10161000018270471143A0F848107047002A828960
:1016200001D00A4300E08A43828170470029818803
:1016300002D041F0080101E021F0080181807047EB
:10164000018921F0070101817047028922F07002AF
:101650000A430281704700B50346FFF7F6FF188979
:1016600040F00700188100BD70B50D4611460446D4
:10167000602D4FF001020AD000F068F8294620469C
:10168000FFF7E3FF208940F00700208170BDFFF7DE
:10169000ACFEF3E730B504894FF6FF7505EA032386
:1016A0001343E4B20B432343038130BD10B504461A
:1016B000FFF7F0FF208940F07700208110BD10B5C2
:1016C0000446FFF7E7FF208940F48040208110BDE9
:1016D000828822F07002828082880A43828070476A
:1016E000028922F00702028102890A4302817047BF
:1016F000028922F08002028102890A430281704736
:1017000070B50589048B068C25F007050D434FF64F
:10171000FC410C4040F201110C434FF6FF7101EA0D
:10172000031126F02206114331430581048301840D
:1017300070BD0029818802D041F0800101E021F0D4
:10174000800181807047A0F85010704770B5048CFC
:1017500024F001040484058B048C4FF6FF7606EA1E
:101760000313134325F0F3052B4324F00A020A4325
:1017700042F001010383018470BD0000CA4910B525
:10178000884206D101211020FFF765FA00211020C0
:1017900028E0C649884202D101214C0410E0C44926
:1017A000884202D101218C040AE0C249884202D158
:1017B0000121CC0404E0C04988420AD101210C0572
:1017C0002046FFF73EFA2046BDE810400021FFF713
:1017D00038BABA49884209D101212020FFF73BFAE3
:1017E00000212020BDE81040FFF735BA10BD7FB5BD
:1017F0000446008A0D46C98820F4405001432182E6
:10180000A08941F20C618843A9882A8911436A8919
:1018100002431143A181A08A20F44071A8890843A2
:10182000A0826846FFF759F99F48844202D0A34836
:10183000844201D1039800E00298A189090400299B
:1018400000EBC00101EB0010296802DA4FEA410108
:1018500001E04FEA8101B0FBF1F06422B0FBF2F14C
:101860004FEA01114FEA11136FF018056B4300EBBB
:101870008300A3891D044FF0320306D503EBC0009B
:10188000B0FBF2F000F0070005E003EB0010B0FB46
:10189000F2F000F00F00084320817FBD4FF4165195
:1018A000016000218180C18001810C2242818181FF
:1018B000704710B5028A4C8822F470630A8822436C
:1018C0008C88C9880C4322431A43028210BD002130
:1018D000018041808180C18070470029818902D0C8
:1018E00041F4005101E021F4005181817047028BE5
:1018F00002F47F420283028B0A430283704700296D
:10190000818902D041F4004101E0C1F30E018181DF
:1019100070470029818A02D041F4006101E021F47E
:10192000006181827047C1F308018180704780881F
:10193000C0F308007047028A22F00F020282028A76
:101940000A43028270470029818902D041F00201D6
:1019500001E021F0020181817047828922F4006256
:10196000828182890A4382817047028A22F02002A2
:101970000282028A0A43028270470029018A02D049
:1019800041F4804101E021F4804101827047818966
:1019900041F00101818170470029818A02D041F024
:1019A000080101E021F0080181827047028BD2B268
:1019B0000283028B42EA0121018370470029818A58
:1019C00002D041F0200101E021F020018182704726
:1019D0000029818A02D041F0100101E021F01001BC
:1019E00081827047828A22F004028282828A0A43BC
:1019F000828270470029818A02D041F0020101E011
:101A000021F0020181827047002A828A01D00A43B4
:101A100000E08A438282704710B5C1F3421301F09F
:101A20001F040121A140012B07D0022B07D0143045
:101A3000002A026805D00A4304E00C30F8E71030B1
:101A4000F6E78A43026010BD0246002012880A426F
:101A500000D001207047C9430180704770B501F084
:101A60001F0501260024C1F3421306FA05F2012BDB
:101A70000FD0022B0FD0838A4FEA11210088134226
:101A800006FA01F600EA060001D000B10124204662
:101A900070BD8389F0E7038AEEE70A0A01219140CD
:101AA000C94301807047000000100140004400401D
:101AB00000480040004C004000500040001401402D
:101AC00010B5AC4CE07818B1BDE8104001F038B862
:101AD000207900280ED0207808B100F0F5FE60785B
:101AE00008B100F0F2FFA078002803D0BDE8104054
:101AF00001F0D0BB10BD00F0C7F900F037FA00F0DC
:101B00009BFA4FF4165000F043FB00F033FD00F059
:101B1000EFFD00F069FD00F053FE974D4FF4805447
:101B200021462846FEF7EFFE61002846FEF7EBFE51
:101B3000A1002846FEF7E7FEE1002846FEF7E3FE97
:101B40008E4D40212846FEF7DEFE80212846FEF716
:101B5000DAFE04218A48FEF7D6FE21462846FEF723
:101B6000D2FE21118748FEF7CEFEE1102846FEF78F
:101B7000CAFE4FF47A74204600F0C3F92146C8200B
:101B800000F099FD7B490120C8700A2000F0B9F9E6
:101B9000FBE710B57C482DED028B8EB0006803F09A
:101BA00025FD41EC180B00F0F3FD044600F0F9FDB3
:101BB0007649784B0A6876491B6809680A93CDE92B
:101BC0000B12754A75498DED088B12680968CDE9CD
:101BD0000304CDE9051272487249734A0068096826
:101BE00012680092CDE901107048036870480268DD
:101BF00070480168704801F07DFD0EB0BDEC028BAD
:101C000010BD4FF4FA71C82000F055FD4FF47A7002
:101C100000F077F960490020086000F055FE01F0FF
:101C200001F8FFF7B6FF0A2000F06BF9F5E72DED9C
:101C3000028B4FF4FA71C82000F03DFD4FF47A702A
:101C400000F05FF94B480021C170012101718170E2
:101C50009FED5A8A012001F0B6FBFA2000F051F9FD
:101C6000B0EE480A01F04AF9FA2000F04AF90120E2
:101C700001F0A9FBFA2000F044F9B0EE480A01F0A7
:101C80003DF9FA2000F03DF9012001F09CFBFA201B
:101C900000F037F9B0EE480A01F030F9FA2000F010
:101CA00030F9012001F08FFBFA2000F02AF9B0EEA4
:101CB000480A01F023F9FA2000F023F9CAE72DEDD4
:101CC000028B4FF4FA71C82000F0F5FC4FF47A70E3
:101CD00000F017F9274800219FED398AC1700121D2
:101CE00001718170012001F06EFBFA2000F009F90A
:101CF000B0EE480A01F002F9FA2000F002F90120E2
:101D000001F061FBFA2000F0FCF8B0EE480A01F0A7
:101D1000F5F8FA2000F0F5F8012001F054FBFA2064
:101D200000F0EFF8B0EE480A01F0E8F8FA2000F011
:101D3000E8F8012001F047FBFA2000F0E2F8B0EEED
:101D4000480A01F0DBF8FA2000F0DBF8CAE710B52A
:101D50004FF4FA71C82000F0AEFC4FF47A7000F036
:101D6000D0F800F022FD00F017FDBDE8104000F0B3
:101D7000B7BF000028000020000402400008024015
:101D8000000C024000000240A800002030010020AA
:101D90002801002024010020A4000020840000204D
:101DA0008C000020940000209C000020980000205F
:101DB0009000002088000020E85600080000AC4297
:101DC0000000ACC27047FEE7FEE7FEE7FEE77047A3
:101DD0007047704729480168491C01602849086814
:101DE000002802DA274B00221A60401E0860FFF725
:101DF00067BE70B52020FEF7ADFC4FF4967438B185
:101E0000204600F07EF8FFF7FCFE2020FEF7B0FC35
:101E10004FF480752846FEF79DFC002809D0204627
:101E200000F06FF8FFF793FF2846BDE87040FEF71B
:101E30009FBC70BD70B54FF400652846FEF78AFC64
:101E40004FF4967438B1204600F05BF8FFF7EFFED0
:101E50002846FEF78DFC4FF480552846FEF77AFCA5
:101E6000002809D0204600F04CF8FFF728FF28464C
:101E7000BDE87040FEF77CBC70BD0000640000202F
:101E8000780000203404004070B501F0C0FB01F080
:101E9000E3FB32484FF47A710068B0FBF1F0401E6A
:101EA000B0F1807F16D24FF0E024606166170F21F9
:101EB000304600F047F80025A561072020614FF467
:101EC0004070FEF7EDF90021304600F03BF8244861
:101ED000456070BDFEE74FF0E0208069A821B0FBAF
:101EE000F1F21F49486800EB4003C3EBC010C2EB9E
:101EF000C00000F57A7008600868704718484068AC
:101F0000704717494A684B689B1A8342FBD1704758
:101F100030B50546FFF7DFFF0446FFF7DCFF001B87
:101F2000A842FAD130BD30B50C460546FFF7D3FFC5
:101F3000001BA842FAD330BD094A53685B1A83429A
:101F4000FBD370470907090E002803DA00F00F00E1
:101F5000044A00E0044A8154704700003C0100201C
:101F60006000002014ED00E000E400E07CB50121F9
:101F70000846FEF716FE01210220FEF712FE01219F
:101F80000420FEF70EFE01210820FEF70AFE4FF4A2
:101F90008070009001208DF8040000208DF806006C
:101FA00003218DF805108DF8070069461E48FEF7DD
:101FB00047FC4FF490501D4D009069462846FEF7AF
:101FC0003FFC0420009069461948FEF739FC4FF4A5
:101FD0007040184E022400908DF807406946304644
:101FE000FEF72EFCC02000908DF807406946284679
:101FF000FEF726FC40212846FEF785FC8021284676
:10200000FEF781FCE1023046FEF77DFC21033046FD
:10201000FEF779FC61033046FEF775FCA1033046FC
:10202000FEF771FC7CBD0000000002400008024089
:10203000000C0240000402402DE9F047012186B067
:102040008803FEF7D6FD01210720FEF7AAFD002434
:102050008DF8104020258DF8134003A949480395B9
:10206000FEF7EEFB05210120FEF773FE00958DF8CB
:10207000044008268DF8056001258DF80650684655
:10208000FEF718FB4FF017098DF808908DF80950EE
:102090008DF80A408DF80B5002A8FEF706F9DFF81C
:1020A000E8A08DF81040EF028DF8134003A95046C8
:1020B0000397FEF7C5FB0B210020FEF74AFE8DF8C3
:1020C00004408DF8056000978DF806506846FEF7CD
:1020D000F1FA28278DF808708DF809508DF80A401C
:1020E0008DF80B5002A8FEF7E0F88DF810404FF481
:1020F00080588DF8134003A95046CDF80C80FEF7A8
:102100009FFB0C210020FEF724FE8DF804408DF883
:102110000560CDF800808DF806506846FEF7CAFAD3
:102120008DF808708DF809508DF80A408DF80B5025
:1021300002A8FEF7BAF88DF810402F028DF8134070
:1021400003A912480397FEF77BFB08210220FEF744
:1021500000FE8DF804408DF8056000978DF806505C
:102160006846FEF7A7FA8DF808908DF809508DF8AB
:102170000A408DF80B5002A8FEF797F806B0BDE8AC
:10218000F087000000040240000002400008024006
:1021900070B5064688B001210220FEF702FD01213C
:1021A0001020FEF726FD6D4D072209212846FEF777
:1021B000B7FB07220A212846FEF7B2FB00248DF860
:1021C000164001208DF8170002218DF814104FF4ED
:1021D000C06004908DF8151004A92846FEF730FB66
:1021E0005F4D01212846FFF78AFBADF808400C201F
:1021F000ADF80A00ADF80440ADF80640ADF818405F
:102200002815ADF81A00ADF81E400096ADF80C4048
:10221000ADF81C4069462846FFF7E9FA06A92846AA
:10222000FFF747FB01212846FFF757FB08B070BDB9
:102230000020704770B54A4D0446C1B22846FFF7EA
:1022400072FB80212846FFF7FFFB0028F9D02046CB
:1022500070BD434801888906FCD58088C0F308001A
:10226000704770B53E4D044680212846FFF7ECFBD1
:102270000028F9D0A1B22846FFF755FB204670BDD3
:1022800010B538A001F036FA354C20212046FFF772
:10229000DBFB0028F9D02046FFF749FBC0B210BD98
:1022A00010B539A001F026FA2D4C20212046FFF769
:1022B000CBFB0028F9D02046FFF739FB01463AA0B6
:1022C00001F018FA2046FFF732FBC0B210BD10B57E
:1022D00037A001F00FFA224C20212046FFF7B4FB73
:1022E0000028F9D02046FFF722FBA0F1300137A0EB
:1022F00001F000FA2046FFF71AFB303810BD10B588
:102300000446014686B033A001E0214638A001F022
:10231000F1F9694641A001F00FFB694640A001F0C8
:10232000E9F92146684601F02DFC0028EDD106B000
:1023300010BD38B5044601463BA001E0214641A04E
:1023400001F0D8F969464AA001F0F6FA1FA00099F9
:1023500001F0D0F9009AA242F0D138BD000002404D
:10236000001001400D0A707265737320616E792050
:102370006B657920746F20636F6E74696E75652E5E
:102380002E2E0D0A0D0A0000706C656173652065C4
:102390006E74657220612063686172616374657236
:1023A0002E2E2E0D0A00000025630D0A00000000ED
:1023B000706C6561736520656E7465722061206460
:1023C000696769742E2E2E0D0A00000025640D0A1F
:1023D00000000000507265737320257320746F2015
:1023E000436F6E74696E75652E2E2E203A000000C4
:1023F000496E76616C696420696E7075742C20700A
:102400007265737320257320746F20436F6E746937
:102410006E75652E2E2E203A0000000025730000F8
:1024200025730D0A00000000507265737320256447
:1024300020746F20436F6E74696E75652E2E2E208A
:102440003A000000496E76616C696420696E7075AF
:10245000742C20707265737320256420746F204380
:102460006F6E74696E75652E2E2E203A0000000086
:10247000256400001CB501210420FEF7B0FB4FF4D9
:102480007070009002208DF8040003208DF8050084
:1024900000208DF80600504C8DF807006946204654
:1024A000FEF7CEF9022206212046FEF739FA022273
:1024B00007212046FEF734FA022208212046FEF7C3
:1024C0002FFA022209212046FEF72AFA1CBDF0B598
:1024D00089B040F2E73006900320ADF814000026E2
:1024E0003E4FADF81C60ADF8166005A93846FEF702
:1024F000E5FC60203A4DADF800000124ADF8024043
:1025000028880290ADF80C6069463846FEF758FD01
:1025100008213846FEF795FEADF802406888029023
:1025200069463846FEF778FD08213846FEF78FFEEB
:10253000ADF80240A888029069463846FEF7A8FD2B
:1025400008213846FEF78DFEADF80240E88802907B
:1025500069463846FEF7D6FD08213846FEF787FE65
:1025600001213846FEF708FD01213846FEF71EFD21
:1025700009B0F0BD10B5FFF77DFFBDE81040A6E73C
:1025800018490968884200DD08464942884200DA55
:102590000846124A00233432111D002802DB106065
:1025A0000B60704713604042086070470D4909682E
:1025B000884200DD08464942884200DA0846074B57
:1025C00000223C33191D002802DB1A6008607047A6
:1025D000404218600A607047000402400008004052
:1025E000700000201000002030B58BB001210220C7
:1025F000FEF7F5FA4020059002208DF8180003211F
:102600008DF8191000248DF81A40354D8DF81B00F7
:1026100005A92846FEF714F9022206212846FEF7EE
:102620007FF9952008908B20ADF81C002D4DADF85A
:102630002440ADF81E4007A92846FEF73FFC602065
:10264000ADF800000120ADF802000294ADF80C4096
:1026500069462846FEF7B4FC08212846FEF7F1FD3E
:1026600001212846FEF788FC01212846FEF79EFC42
:102670000BB030BD2DE9F04105461B498C20684365
:102680000860184E95202C3630600024154FA04667
:1026900034370CE03068401CC00838604620FFF733
:1026A00030FCC7F800804620FFF72BFC641CAC42CE
:1026B000F0DBBDE8F0810B4A10B52C321368094CF1
:1026C0005B1C9B0834342360084B93FBF1F18C2393
:1026D00091FBF3F1491E11600349086010BD000031
:1026E00000000240000400407800002000BD010509
:1026F0007CB501210920FEF772FA02208DF8040052
:1027000001208DF8070048F203002A4C009069462A
:102710002046FEF795F80821274D00916946284686
:10272000FEF78EF8022200212046FEF7F9F8022279
:1027300001212046FEF7F4F801220F212046FEF782
:10274000EFF8012203212846FEF7EAF81B4C4FF070
:10275000FF3529462046FEF7F5FB29464FF0804518
:102760002846FEF7EFFB0223002203212046FEF756
:10277000C7FF00231A4603212846FEF7C1FF0121A7
:102780002046FEF713FC01212846FEF70FFC7CBD16
:102790000A48243000687047084900202431086046
:1027A00070474FF08040406A70474FF080410020F2
:1027B000486270470000024000040240000C0040E4
:1027C00070B501218CB00802FEF713FABC20032576
:1027D00000908DF8045000248DF807406946364873
:1027E000FEF72EF8354E8DF8045000958DF8074011
:1027F00069463046FEF724F88DF804503020304DFD
:1028000000908DF8074069462846FEF719F84FF406
:102810008030CDE908404FF47060CDE90A4008A847
:10282000FDF7CDFD8DF80C4002948DF80D40059418
:1028300006940120234C8DF81C0002A92046FDF7C8
:1028400093FD012240F205212046FDF7F3FE012110
:102850002046FDF7C9FDA1143046FEF754F8611477
:102860003046FEF750F84FF480413046FEF74BF803
:102870004FF400413046FEF746F840212846FEF767
:1028800042F880212846FEF73EF80CB070BD10B526
:10289000134604460122FDF7DAFD2046FDF711FE3E
:1028A00002212046FDF7CFFE0028F9D02046BDE8E2
:1028B0001040FDF738BE0000000002400004024056
:1028C00000080240002001402DE9F05FBF4D0422C6
:1028D00009212846FFF7DBFFBD4C04220521E060FB
:1028E0002846FFF7D4FF2061042208212846FFF77D
:1028F000CEFF6061042207212846FFF7C8FFA061D0
:1029000004220F212846FFF7C2FFE06104220E21B6
:102910002846FFF7BCFF2062FFF7DDFAAD4E834685
:102920004FF4805949463046FDF7EBFFDFF8A882A7
:10293000802147464046FDF7E4FF59463C20FFF71B
:10294000F2FA042209212846FFF7A1FFE1680422D8
:10295000401AE06005212846FFF799FF2169401AD7
:10296000206149463046FDF7CEFF80213846FDF70D
:10297000CAFFE0680027002800DAE7602069002825
:1029800000DA27615946C820FFF7CDFA4FF4005A04
:102990005146B1463046FDF7B4FF40214646404619
:1029A000FDF7AFFF59464FF4AA70FFF7BCFA0422B7
:1029B00008212846FFF76BFF61690422401A606115
:1029C00007212846FFF763FFA169401AA06151461D
:1029D0004846FDF798FF40213046FDF794FF6069B7
:1029E000002800DA6761A069002800DAA761E268C0
:1029F00020684FF47A71424392FBF1F2E26022695F
:102A0000424392FBF1F222616269424392FBF1F28E
:102A10006261A269424392FBF1F0A061BDE8F09FC0
:102A20002DE9F047FFF757FA684D814604220F2140
:102A30002846FFF72CFF664C04220E21E061284651
:102A4000FFF725FF634F4FF480462062314638463A
:102A5000FDF757FF4FF4004841463846FDF751FF58
:102A600049464FF4AA70FFF75EFA04220F21284668
:102A7000FFF70DFFE1690422401AE0610E212846AC
:102A8000FFF705FF216A401A206231463846FDF7FC
:102A90003AFF41463846FDF736FFE169002000293C
:102AA00000DAE061216A002900DA2062E269206828
:102AB0004FF47A71424392FBF1F2E261226A42439F
:102AC00092FBF1F02062BDE8F0872DE9F041282566
:102AD0003F4E00203D4F04467062042211463846A6
:102AE000FFF7D5FE716A641C08447062AC42F4DBE7
:102AF0004CF2503191FBF5F0726A5043374A104462
:102B000090FBF1F0C11700EB5170C0107062B16A18
:102B10000844B062BDE8F08110B5042203212B48BF
:102B2000FFF7B5FE2A4C606002F04BFC9FED2C1BBA
:102B300053EC112B02F0BEFA02F014FCA06010BDA1
:102B400070B5FFF7E9FF224841F6583180688842A6
:102B50003BDA0020FFF714FD0020FFF727FD0421DA
:102B60002148FDF7CEFE1C4C4FF4805529462046E7
:102B7000FDF7C7FEA1151D48FDF7C3FE61152046F0
:102B8000FDF7BFFE2946134D2846FDF7BCFE4FF466
:102B900000512846FDF7B7FE4FF480412846FDF767
:102BA000B2FE4FF400412846FDF7ADFE402120461D
:102BB000FDF7A9FE80212046FDF7A5FE4FF47A74AB
:102BC0002146C820FFF777FDFAE770BD00200140DD
:102BD0007C000020000402400008024008136DFA47
:102BE000AC1C5A643BDFD33F000C024000000240A3
:102BF0000D460646A64FDFF89C824FF47A79FFF720
:102C00006AF90446FFF760FE3868301AFFF7B8FC2F
:102C1000D8F80000281AFFF7C9FC21464846FFF7FC
:102C200082F9ECE79A4810B502689B489B4C4FF438
:102C30008051036820469A4202DDFDF762FE01E002
:102C4000FDF761FE96489749974A006809688842EF
:102C50004FF00401104602DDFDF753FE01E0FDF7E1
:102C600052FE92484FF40071026891480068824217
:102C7000204602DDFDF745FE01E0FDF744FE8548F4
:102C80004FF4807102688B4803688B489A4203DDD9
:102C9000BDE81040FDF735BEBDE81040FDF733BE7E
:102CA00070B50D460446FFF780FDFFF775FD204621
:102CB000FFF766FC2046FFF779FC2846FFF721F96D
:102CC0000020FFF75DFC0020FFF770FC6420FFF799
:102CD00018F9FFF75DFD0446FFF763FD201A70BD8C
:102CE0000EB50021754801229246017074480F46C6
:102CF00089460270734888460D46017072480191FA
:102D00000091036871488B460C460360704A714914
:102D10004FF0000E82F800E081F800E06E496F4845
:102D20004FF0010C6E4B81F800C000681B680AFB75
:102D300000F1CE1A47B900EB4001CB1701EB9371BC
:102D4000B6EBA10F00DC012737EA080101D082F8B9
:102D500000C0B9F1000F2AD100EBD071B6EB610FC2
:102D600025DC4B494C4B4FF0010909681B6899421F
:102D700006DD48494F4B09681B68994200DD012573
:102D80004749484B09681B68994201DD4FF0010B28
:102D90004649474B09681B68994201DD01210091B2
:102DA0004DB1BBF1000F08D0009941B10424B8F136
:102DB000000F06D00DE00124F9E70224F7E7032411
:102DC000F5E7C11700EB9170B6EBA00F05DC4FF0F3
:102DD00001081DB182F800E006E02DB9022C03D0F5
:102DE000032C01D0042C2CD13E4890ED000AB8EE03
:102DF000C00A00F095F9BDEEC00A10EE100A00B24C
:102E00000290394890ED000A00F08AF9BDEEC00A40
:102E1000029A10EE100A01B2304600F057FA00EEA6
:102E2000100A3248B8EEC00AD0ED000AB4EEE00A4B
:102E3000F1EE10FA01D2244800E02A480168234844
:102E40000160019800287FF461AF002E3FF75EAF6C
:102E50000AF1010A4FF47A71C820FFF72CFC022C0A
:102E600004D0032C05D0042C06D009E09FED200AE5
:102E700004E09FED200A01E09FED1F0A00F03EF8FC
:102E80000027B946B8463D46BB46019700973DE747
:102E9000880000208C00002048000020000802402C
:102EA0009000002050000020000C02409400002000
:102EB000540000204C000020000002402B000020A5
:102EC0002C000020440000203C000020B000002026
:102ED00028000020290000202A00002024000020D3
:102EE0002801002040000020A8000020F40000205D
:102EF0000000ACC20000AC42000030C32DE9F05F1E
:102F000030493148314B4FF0000A2DED088BF0EE7F
:102F1000409A884681460E6805682D4F2D4CDFF893
:102F2000B8B09FED2EAB9FED2FBBC3F800A007E01C
:102F3000F5EEC09A3868F1EE10FA00D340422060F6
:102F4000D8F80000801B00EE100AB8EEC00A00F0AE
:102F500032FAD9F80000B0EE408A401B00EE100AA9
:102F6000B8EEC00A00F027FA38EE009AB0EE690A0F
:102F700000F021FA10EE100A02F038FB41EC180BB9
:102F8000DBF8000002F032FB53EC1A2B02F030FAAF
:102F900053EC182B02F02CFA53EC1B2B02F08AF89E
:102FA00002F056F800EE100A00F0EEF9B4EEC09A06
:102FB000F1EE10FABCD3C4F800A0BDEC088BBDE85C
:102FC000F09F0000080100200C010020B00000204C
:102FD00038000020B4000020200000201F85EB51A5
:102FE000B81E0940000000000080664030B5FE4871
:102FF0000168FE480368FE48FE4C99420268FE489C
:10300000006803DD904201DD451AA560994202DDAA
:10301000FA48006803E0904203DDF9490968401A64
:1030200000E00020A06030BD70B5F24CF14D803C56
:10303000D4E91C104218401AC4E90420F1492B6954
:10304000096891FBF3F1F04B1B780BB1084603E0E4
:10305000EE4B1B7803B9084400EE102AD4ED000AA9
:10306000B8EEC00A30EEC00AD4ED080A30EE200AED
:1030700084ED080A00EE100AD4ED010AE448B8EE27
:10308000C00A30EEC00AD4ED090A30EE200A84ED01
:10309000090A007878B1FFF7A9FFD5E9020190FB92
:1030A000F1F000EE100AD4ED090AB8EEC00A30EED5
:1030B000800A84ED090A94ED080AD4ED0E0A94ED15
:1030C0000A1AD4ED0F1A60EE800A30EE411A04F1AC
:1030D000280341EE810AFDEEE00A10EE902A2263F9
:1030E000D4ED090A94ED101AD4ED0B1A94ED112ABF
:1030F00021EE201A70EEE11A02EE211ABDEEC11A7D
:1031000011EE101A6163501A83EC020A1144C4E9EB
:103110001601FFF735FAE06DBDE87040FFF746BADB
:10312000BC48D0ED000ABC48F8EEE00A60EE200A88
:1031300090ED000AB948B8EEC00A90ED001A20EEF2
:10314000800AC0EE010A9FEDB61A80EE810A704730
:10315000A84900B58039B0EE001A91ED020AD1ED10
:10316000000AB8EEC02ADFEDAE1AF4EEC20AF1EEA4
:1031700010FA17D291ED120A20EE010AFFF7D0FFE4
:10318000C0EE210A91ED000A70EE800AC1ED000A3E
:1031900091ED020AB8EEC01AF4EEC10AF1EE10FA8F
:1031A0001EDC21E0B8EEC00AF4EEC00AF1EE10FA1F
:1031B0001ADD91ED130A20EE010AFFF7B1FFC0EE10
:1031C000210A91ED000A70EE600AC1ED000A91ED4E
:1031D000020AB8EEC01AF4EEC10AF1EE10FA03D2F8
:1031E000B8EEC00A81ED000A91ED030AD1ED010AA3
:1031F000B8EEC01AF4EEC10AF1EE10FA11D291ED58
:10320000141A70EE810AB8EEC01AC1ED010AF4EE8C
:10321000C10AF1EE10FA03DDB8EEC00A81ED010A31
:1032200000BDB8EEC01AF4EEC10AF1EE10FAF7DDF7
:1032300091ED151A70EEC10AB8EEC01AC1ED010A7F
:10324000F4EEC10AF1EE10FAE6D300BD70B5FFF757
:10325000A8FA684C803C2066FFF79AFA226EA16EAD
:10326000511A2167E36EC4E91A20C31ACD1805EB81
:10327000D5756D10C4E91D3511441844C4E9181002
:1032800008445C4900EBD07040100860E06F401BC0
:10329000E06770BD10B5FFF7D9FFFFF759FFBDE834
:1032A0001040C1E65D48D0ED000A5A4820EE201AD1
:1032B00090ED000A5848B8EEC00AC1EE000A90ED41
:1032C000000AB8EEC01A80EE810A704700B50029E6
:1032D00001DA494209B2002A01DA524212B2002848
:1032E00001DC4FF0010000EE100AB8EEC00AFFF753
:1032F000D9FF11FB01F002FB12006421484300EEEC
:10330000900AB8EEE01AC1EE000AB5EE000A20EE0F
:10331000800ABDEEC00A10EE100A002800DA404212
:1033200000BD10B53A48002404703E4804703E4881
:1033300004702046FFF724F90020FFF737F92D48E5
:103340009FED3A0A80382B4980ED060A80ED070A86
:1033500080ED000A80ED010A8460C46080ED080AF7
:1033600080ED090A80ED0A0A80ED0B0A8466C466C6
:10337000046644660C604C608465C465FFF715FA0A
:10338000BDE81040FFF708BA2248D0ED000A2248F5
:10339000F8EEE00A60EE200A90ED000A1F48B8EE51
:1033A000C00A90ED001A60EE800A80EE810A704734
:1033B0009FED1E0A7047B5EEC00AF1EE10FA01D279
:1033C000B1EE400A70472DE9F041DFF844C00546F0
:1033D000144901208CF8000000270F701249054B9A
:1033E000134C0870803B25E0900000205000002026
:1033F00054000020280100209400002058000020E4
:103400005C000020A00000202E0000202F000020E3
:103410002800002014000020180000201C000020BC
:103420000000C842290000202D00002000000000FC
:1034300030000020DF6020689860234803F1800698
:10344000804601686943D9672EE0D96F00EBD070E0
:10345000B1EB600F01DA8CF8007094ED000AB8EE61
:10346000C00AFFF75DFEBDEEC00A10EE100A93ED34
:10347000000A02B2FFF754FEBDEEC00A10EE100AB9
:1034800001B2D86FFFF722FF00EE100AD3ED130A46
:10349000B8EEC00AB4EEE00AF1EE10FA02D20B4820
:1034A000006800E020689860D6E90001411AD8F869
:1034B000000005FB00F29142C7DB2068986030688D
:1034C0007060BDE8F081000024000020340000207E
:1034D0000948804709480047FEE7FEE7FEE7FEE7A8
:1034E000FEE7FEE7FEE7FEE7FEE7FEE704480549E4
:1034F000054A064B704700000F3600088901000896
:10350000B0010020B0070020B0030020B00300206D
:10351000F0B56C4A0020116841F4803111604FF41D
:10352000A063116800F1010011F4003F01D198423D
:10353000F7D11068674E8103634CDFF890E1644D6A
:10354000DFF894C140F2056706F104002BD521682D
:1035500041F080512160DEF8001041F48041CEF846
:10356000001001680160016841F4004101600168D8
:1035700041F4A05101603560116841F08071116023
:1035800011688901FCD5CCF80070016821F00301B5
:103590000160016841F0020101600168C1F381012D
:1035A0000229FAD1F0BD11684C4B19401160116825
:1035B00041F001011160216841F080512160DEF885
:1035C000001041F48041CEF80010016801600168EC
:1035D00041F400410160016841F4A051016035608F
:1035E000116841F08071116011688901FCD5CCF837
:1035F0000070016821F003010160016841F00201DF
:1036000001600168C1F381010229FAD1F0BD34489B
:1036100010B5016841F4700101602A48016841F069
:10362000010101602B4A0021121D116002682B4B21
:103630001A400260031D2B4A1A60026822F480229D
:103640000260244808300160FFF762FF24494FF010
:1036500000608039086010BD70B51E4D2D1D2868B2
:10366000214B224910F00C0004D05E10042803D036
:10367000082803D00B601AE00E6018E0154A1068A5
:10368000C0F38054106800F03F0014B1B6FBF0F0B6
:1036900001E0B3FBF0F013681268C3F388135843DA
:1036A000C2F30142521C5200B0FBF2F008602868DD
:1036B0000E4AC0F30310121D105C0A68C2400A6073
:1036C00070BD0000003802404038024000700040E9
:1036D0001054000704380240003C0240FFFFF6FE91
:1036E00088ED00E0103000240024F4003C010020AC
:1036F000704700000FB4044910B503AA029800F007
:1037000007FD10BC5DF814FB6800002070B504468E
:1037100085690068C10601D5302600E02026C00773
:1037200008D070BDD4E9012130469047206A00F1ED
:10373000010020626D1EF5D570BD70B50446856927
:103740000078C00708D170BDD4E90121202090473E
:10375000206A00F1010020626D1EF5D570BD70B5C4
:103760000C460546012A05D02878800600D5EA696E
:10377000002302E0012305E05B1C934202D2E05CDF
:103780000028F9D1A869E618C01AA861286A184467
:1037900028622846FFF7BAFF04E0D5E9012114F8B2
:1037A000010B9047B442F8D32846FFF7C6FF70BD1F
:1037B0002DE9F0410646002410687529314616A50A
:1037C00011D0AFF30080002803DAC0F1000013A588
:1037D00007E031688A0701D511A502E0490704D541
:1037E00010A5012401E0AFF3008000210A2306F1B7
:1037F000240707E0B0FBF3F203FB120030307854EB
:103800001046491C0028F5D123462A463046BDE81B
:10381000F04100F0FBB90000000000002D000000A6
:103820002B000000200000002DE9F0474FF0000AB7
:1038300089460446C0F820A02046E1688847002851
:1038400076D0252806D0D4E901219047206A401C73
:103850002062F1E7E168204600258847C4F81CA0F3
:1038600006460027C4F818A02A2E09D0304601F0D9
:10387000BCFB38B304EB8708303EC8F8186019E089
:1038800059F8041B204604EB87029161E1688847E0
:10389000012F064618D1E069002820DA25F020051E
:1038A0001DE0D8F8180000EB800006EB400030382F
:1038B000C8F818002046E1688847064601F095FBE5
:1038C0000028EED1012F0AD02E2E08D12046E16823
:1038D00088477F1C0646022F45F02005C4DBA069FF
:1038E000002803DA404245F00105A061E80701D055
:1038F00025F01005B6B1A6F14100192802D82036EE
:1039000045F400654A463146204625604D46FCF7A1
:1039100095FC58B1012806D0ED1D25F0070000F1F7
:10392000080989E704E005F1040985E730468AE7DC
:10393000206ABDE8F08700000FB400B589B00BA87D
:103940006A46009003480A9900F002FC09B05DF84D
:1039500014FB00006C0000202DE9FF5F1D464FF0B6
:10396000FF3B91464FF000085F46D5E90146A96943
:1039700001987F1C8847296A824688470028F6D12B
:103980001AF101000CD0002E24F4C06419DD600689
:1039900014D5BAF12B0F09D0BAF12D0F0ED103E0D7
:1039A000584604B0BDE8F09F44F48064A9690198CA
:1039B0007F1C8847761E8246002E02DDBAF1300F4A
:1039C00003D0B9F1000F26D032E0A969761E019824
:1039D0007F1C44F400748847002E824605DDBAF14E
:1039E000780F06D0BAF1580F03D0B9F1000F10D0FC
:1039F0001EE0B9F1000F02D0B9F1100F18D1A9697A
:103A0000761E01987F1C24F400748847824610209B
:103A100002E0082000E00A20814609E0A96908FBCD
:103A20000908761E01987F1C44F40074884782467A
:103A3000002E05DD4946504600F07CFB0028EDDAFB
:103A4000E96901988847A00502D46FF00100A8E752
:103A5000E00727D1600614D5600502D5C8F1000043
:103A600000E04046296801F104022A600968220545
:103A700001D5087016E0220701D5088012E0086021
:103A800010E0286800F1040129600068210502D5D2
:103A900080F8008006E0210702D5A0F8008001E050
:103AA000C0F8008038467CE72DE9FF5F4FF0000842
:103AB0009946144646469169D2E901A7DDF838B027
:103AC00001988847054659EA0B0005D009E0A1692D
:103AD0000198761C88470546216A284688470028B1
:103AE000F5D1681C03D05FEACA7005D015E04FF02D
:103AF000FF3004B0BDE8F09F2068011D2160D0F8C0
:103B000000800AE05FEACA7001D108F8015BA16990
:103B10007F1E0198761C88470546002F1ADD681C19
:103B200018D0B9F1000F0DD0E81705EBD0604211A5
:103B300020F01F0059F822102A1A0120904001425B
:103B4000E0D107E0BBF1000FDCD12846216A8847AD
:103B50000028D7D0E169019888470AF0010050EAAF
:103B60000B0002D1002188F80010A068B84203DDE4
:103B7000BBF1000F03D017B16FF00100B9E7304679
:103B8000B7E700004FF0013C50F8042B51F8043B1C
:103B90009A4221D1A2EB0C03934313EACC1317D121
:103BA00050F8042B51F8043B9A4215D1A2EB0C03B8
:103BB000934313EACC130BD150F8042B51F8043B78
:103BC0009A4209D1A2EB0C03934313EACC13DBD046
:103BD0004FF00000704700BFD01A01BAB1FA81F16E
:103BE00001F0180122FA01F0CB40C1F12001DBB253
:103BF000C0B2C01A2CFA01F3D11A914311EAC311D1
:103C0000E6D1704770477047704770472DE9F0471D
:103C10000D4699469246044600F12408016888063C
:103C200004D5E06921F01001216000E00120A842E4
:103C300002DDA0EB050700E00027A16907EB050204
:103C400002EB0900A1EB0000A0612078C00602D4BD
:103C50002046FFF75BFD002608E0D4E901211AF8B1
:103C600006009047206A401C761C20624E45F4DB1B
:103C70002078C0060AD52046FFF748FD06E0D4E9C3
:103C8000012130209047206A401C2062381EA7F195
:103C90000107F4DC07E0D4E9012118F8050090479A
:103CA000206A401C2062281EA5F10105F3DC204695
:103CB000FFF743FD2078000602D50220BDE8F0871B
:103CC0000120FBE770472DE9FF4F0C461E464FF0E1
:103CD000FF378BB0D2E90001DDF860800A908A4698
:103CE000C1F30A5505B93D46002108464FF00000D2
:103CF000BAF1000F00F4400005DA00EB80004FF449
:103D0000400101EA50004FEA9059B9F1010F00DD7E
:103D1000B9460A9850EA4A000ED044F61050A5F26F
:103D2000FF3545432F14B8F1000F1ED07542291EF0
:103D30001EDDC9F100021CE0B8F1010F4FF00000D8
:103D400001D0302103E0F24305E02154401CB04291
:103D5000FBDB30460022002121540B99C1F808807A
:103D6000C1E900200FB0BDE8F08FBD1B6D1CDEE780
:103D70004A4600DA694206A800F0AEFA06AB07CB65
:103D800003AB07C350460A9900F05CFD8DE80700BD
:103D9000A0F500501F3800900398002D09DD42F275
:103DA0001F014A46084403A90390684600F0BBFF80
:103DB00008E0A0F500504A461F3803A90390684662
:103DC00000F0C5FF8DE807000004000C03D04FF0A1
:103DD000FF30410800E01046B8F1000F03D0002288
:103DE000009215461FE0751E06D400F0C1F902F1DD
:103DF000300262556D1EF8D5B3460122084302D049
:103E000000227F1C04E02078302801D100227F1E90
:103E1000002A099787D01DE0112D07DA00F0A8F9D4
:103E2000303262556D1C50EA0102F5D108430FD1C2
:103E30000021681E05E0235C625C6354491C225427
:103E4000401E8142F7DBAB46A81B401E099001E0F3
:103E5000009848B1002004F80B000B98099AC0F8AC
:103E60000880C0E9002B7DE711264FF000085AE7D3
:103E70002DE9F04F88460446D21D22F0070191B08B
:103E8000D1E90001CDE90A0101F097F802460B984B
:103E9000C00F01D02D2007E02068810701D52B201D
:103EA00002E0202101EAC000032A099001D0072A7C
:103EB00005DB03464146204600F0B8F90FE12078C3
:103EC000800601D5E06900E00620B8F1650F814663
:103ED00006D0B8F1660F18D0B8F1670F72D132E092
:103EE0000020B9F1110F009001DB112301E009F16D
:103EF00001030AAA01A90CA8FFF7E5FEDDE90C7091
:103F0000002609F10105834648E001204B46009058
:103F10004FF000470AAA01A90CA8FFF7D4FEDDE97B
:103F20000DB00C995D46002618B909F1010001EBAE
:103F30000005B9EB050003D4C0F1FF3609F1010516
:103F4000A5EB09002BE0B9F1010F01DA4FF00109EF
:103F50000020B9F1110F0090484601DD112300E067
:103F600003460AAA01A90CA8FFF7ADFEDDE90C7013
:103F70004D4600268346207800070AD4AB4500DA78
:103F80005D4601A8012D04DD411911F8011C3029FD
:103F900007D04F4502DA17F1040F04DA01208246F8
:103FA00010E06D1EEEE7002F02DCED1B3E4403E047
:103FB000781CA84200DD0546A7EB060000F1010AC7
:103FC0004FF000472078000703D4AA4501DB4FF0EB
:103FD000FF3A0021B7F1004F0DF143088DF843106F
:103FE00023D002202B23002F01DA7F422D234FF014
:103FF0000A0C011EA0F1010000DC4FB197FBFCF19F
:104000000CFB11720F4602F1300208F8012DF0E7A7
:10401000A8F1010003702188090501D5452100E0C0
:104020006521A0F1010800F8011C09980FA9A1EB76
:10403000080707F1070700B1012000EB050101EBBC
:10404000EA70A1693844A1EB0000A0F10100A06171
:104050002078C00602D42046FFF758FB099830B1FB
:10406000D4E901219047206A00F101002062207804
:10407000C00620D52046FFF749FB1CE0002E04DBDC
:10408000B34502DD01A8805D00E03020D4E90121C4
:104090009047206A761C401CBAF1010A20620AD1BE
:1040A00000F062F8C0680168405CD4E901219047E3
:1040B000206A401C2062281EA5F10105DEDC07E015
:1040C000D4E9012118F8010B9047206A401C2062B6
:1040D000381EA7F10107F3DC2046FFF72EFB022074
:1040E00011B040E610B5436913B1AFF3008001E0B1
:1040F000FFF735FB012010BD127800F124010A7092
:1041000000224A700122EDE711684FF0FF32E9E723
:10411000074B70B50D467B4400F075F80446284601
:1041200000F070F910B14FF0FF3070BD204670BD47
:104130001BE1FFFF3A2800D2303820F02002412A4C
:1041400001D3A2F13700884201D34FF0FF3070470E
:10415000034B7B449361034B7B44D36100F0ACB8C9
:10416000FDE0FFFF6302000000487047700100207F
:1041700030B5B0F10A024FEA900E71F100034EEA39
:10418000817EB0EB0E0061EB91014FEA101E4EEA0A
:10419000017E10EB0E0041EB11114FEA102E4EEA9A
:1041A000016E10EB0E0041EB11214FEA104E4EEA6A
:1041B000014E10EB0E0041EB1141401841F100019E
:1041C0004FEAD00040EA41704FEAD10110EB800580
:1041D0004FEA810444EA907444EB01046D1944EB06
:1041E0000404521BA3414FF0000348BF0A3200D51C
:1041F00030BD401C41F1000130BD000001694A1C86
:1042000002610878704700B58FB0CDE90131002117
:10421000059105497944CDE9031011466846FFF739
:1042200003FB0FB000BD0000E5FFFFFF2DE9F041EB
:104230001F46044603260168072A01F4006004DBD8
:1042400008B116A505E016A503E008B115A500E024
:1042500015A521F010002060A069C01EA0610FB15B
:10426000401EA0612046FFF751FA4FB1D4E9012169
:1042700038469047206A401C2062C01C206206E03D
:10428000206AFAE7D4E9012115F8010B9047761E60
:10429000F8D22046FFF751FABDE8F0814E414E00BA
:1042A0006E616E00494E4600696E660002681144F8
:1042B0001378016018467047D1600549794451610F
:1042C00004497944116200211161114600F0D0B80F
:1042D000EDFFFFFF990100002DE9F04781461646EA
:1042E0008AB035487844D0E9002380680092CDE94F
:1042F0000130314878440C38D0E902230069039238
:104300004FF03702CDE9043041F69B30014491FB78
:10431000F2F0A0F1800502FB10141B3C02D56442B0
:10432000012000E00020DFF890A080460027FA443A
:10433000AAF1C60A0DE0E00709D03246684607EB4D
:1043400047010AEB810100F002FD8DE807006410CF
:104350007F1C002CEFD1184F7F44B43F17E0E807D3
:1043600013D007EB04100DF1180A90E80E00AAE82C
:104370000E00C068F04201D198190890324606A993
:1043800003A800F0E4FC03AB07C36D10641C002D10
:10439000E5D132466946B8F1000F03A802D000F01B
:1043A000C2FC01E000F0D3FCC9E90001C9F8082013
:1043B0000AB0BDE8F08700000C150000704710B58A
:1043C0004FF0FF34C1688A020FD5036B42689A42EE
:1043D0000BD1014690F82520104600F001FA401C50
:1043E00001D1204610BD002010BD11F0C00FF8D142
:1043F000026941689142F4D90268521C491EC0E921
:104400000021F0E7007B00F0800070470048704713
:10441000500100207546FFF7F9FFAE4605006946DA
:10442000534620F00700854618B020B5FFF75EF828
:10443000BDE820404FF000064FF000074FF00008A5
:104440004FF0000B21F00701AC46ACE8C009ACE826
:10445000C009ACE8C009ACE8C0098D46704710B58A
:10446000044600F0E7F90068005D00F0010010BDAF
:104470002DE9F34F4FF0000A0C4656468DB001204F
:104480000C9001F10C000B9062690B980121904790
:1044900005002DD0252D2CD0216A8847C0B1626936
:1044A0000B9801219047216A88470028F7D162695B
:1044B000411E0B98904700E0761CA1690D98884733
:1044C000216A88470028F7D1E1690D988847DBE722
:1044D000A1690D988847A842074601D1761CD3E709
:1044E000E1690D9888477F1C02D1BAF1000F6FD0A7
:1044F0006AE162690B9800273D46394690472A28B1
:1045000004D162690B98012190470125DFF8CC8224
:1045100062690B9801219047A0F130010A290AD263
:104520004745E5DC07EB870100EB4107303FDFD46F
:1045300045F01005ECE7E90601D46FF000476C2860
:104540000AD04C2814D0682815D06A280DD07428B9
:104550001CD07A281AD01DE062690B98012190477F
:104560006C2802D045F0040514E045F002050DE08A
:1045700045F020050AE062690B9801219047682800
:1045800002D045F0080505E045F4006562690B9826
:1045900001219047C4E9015765283DD019DC58280E
:1045A00079D00CDC452837D004DC252826D04128DA
:1045B0009ED131E046282FD0472899D12CE05B28A6
:1045C0007FD0612828D063287BD0642890D159E01F
:1045D000F5E06F2847D008DC66281DD067281BD07F
:1045E000692821D06E2816D127E0702844D073287E
:1045F00067D0752846D078280DD14CE0A1690D9878
:104600008847252805463FF469AFE1690D9888473A
:104610006D1C3FF46AAFD7E00D9923466A466FF0F0
:104620000100AFF30080C4E045F0400023464FF0A6
:1046300000026060A80735D43DE0206800F1040165
:1046400021600068290501D506701DE7290701D5FD
:10465000068019E7A90704D54FEAE671C0E90061B1
:1046600012E7066010E745F0400023464FF00802CD
:104670006060A80716D41EE040F60E0125EA01008E
:10468000606016E045F0400023464FF00A0260608B
:10469000A80707D40FE045F040006060A80708D5E0
:1046A000234610220D996FF00100AFF3008080E0E7
:1046B00007E0102223460D996FF00100FFF74CF937
:1046C00077E04FF0000963284F46C8464B46CB467B
:1046D00002D05B2806D038E0E80601D40120A060B3
:1046E000012732E06269D4F80CB00B9801219047A1
:1046F0005E2807D14FF0010949466269D4F80CB031
:104700000B989047216939B900210B4603AA42F85A
:104710002130491C0829FADBD8B3216949B308F1D3
:10472000010862690B98012190475D28F4D1B9F125
:10473000000F09D0002003A951F82020D24341F8EE
:104740002020401C0828F7DB03AB206900282079D3
:104750004FEA40701ED05B462246CDF80080CDE97E
:1047600001970D9900286FF0010020DAAFF3008067
:104770001FE0C11700EBD16203A9531122F01F0201
:1047800001EB8301821A0B680120904003430B6008
:10479000C7E719E00D99224600286FF00100009745
:1047A00002DAAFF3008004E0FFF77EF901E0AFF337
:1047B000008000280ADA401C06D10C9820B14FF086
:1047C000FF300FB0BDE8F08F5046FAE7E90701D19E
:1047D0000AF1010A064400200C9055E6CCCCCC0C22
:1047E000CA68431C0FD00D4B1A420CD1D3070AD014
:1047F00081F825004B680B6300238B6012F0C06FBB
:104800000B6003D004E04FF0FF30704742F00072BD
:10481000034B1A40034B1A43CA60704780200800BC
:10482000BFFFDFFF001048000446AFF300802046C2
:10483000FBF72FFD10B5FFF797FC001D10BD00BF63
:10484000E50700005FEA400C08BF91F0000F4FEA57
:104850008C234FEAC12243EA51514FEA1C5018BF42
:1048600000F5F0404FEA300018BF41F000415FEA28
:104870006C5C00F02980BCF1FF3F08BF40F0804035
:104880007047130C06BF12044FF0100C4FF0000CD1
:10489000130E04BF12020CF1080C130F04BF120117
:1048A0000CF1040C930F04BF92000CF1020CD30F17
:1048B00004BF52000CF1010C11464FF00002A0F1B0
:1048C0001F00A0EB0C00704711F0004F08BF7047AD
:1048D00031F000413FF4D5AF0B0C06BF09044FF097
:1048E000100C4FF0000C0B0E04BF09020CF1080C69
:1048F0000B0F04BF09010CF1040C8B0F04BF8900DE
:104900000CF1020CCB0F04BF49000CF1010CCCF1EF
:104910002003A0EB0C0022FA03F302FA0CF241EAA6
:10492000030100F10100704720F07F4C80EA030092
:1049300023F07F47ACEB070303F57C5300F0004006
:1049400003F1FF032DE980494FEA154B09B44FEA03
:10495000144325EA0B4E24EA03480FF2042606EB23
:10496000132749083E785FEA320203FB0667C7F562
:10497000000707FB06F64FEA54374FEAD64606F122
:10498000020607FB066CCCF1005C4FEA1C472CEAE0
:10499000074C07FB06F40CFB06F504EB15464FEA43
:1049A000961634BF00204FF000404FEAD13706FB87
:1049B00007FC4FEA1C4C0CFB0BF7D21B03FB0CF75C
:1049C00061EB07010CFB0EF7B0EB074072EB1742EF
:1049D0000CFB08F734BFA2EB0742B2EB074261EBD6
:1049E00017414FEA0C444FEA910706FB07FC4FEAD8
:1049F0001C4C0CFB0BF7B0EBC74072EB573203FBC0
:104A00000CF734BFA2EBC742B2EBC74261EB5731A0
:104A10000CFB0EF7B0EBC70072EB57720CFB08F7FC
:104A200034BFA2EBC702B2EBC70261EB5771039F21
:104A30004FEA816141EA921104EBCC044FEAD1378D
:104A40004FEA826206FB07FC42EA90124FEA80605E
:104A50004FEA1C4C0CFB0BF7D21B03FB0CF761EB72
:104A600007010CFB0EF7B0EB074072EB17420CFB93
:104A700008F734BFA2EB0742B2EB074261EB1741E4
:104A80004FEA8C554FEA910704EB9C2406FB07FC88
:104A90004FEA1C4C0CFB0BF7B0EBC74072EB5732E4
:104AA00003FB0CF734BFA2EBC742B2EBC74261EB8A
:104AB00057310CFB0EF7B0EBC70072EB57720CFBD3
:104AC00008F734BFA2EBC702B2EBC70261EB577124
:104AD00015EB4C254FEA816141EA92114FEA82625F
:104AE0004FEAD13742EA901206FB07FC44F100047A
:104AF0004FEA80604FEA1C4C0CFB0BF7D21B03FB08
:104B00000CF761EB07010CFB0EF7B0EB074072EB03
:104B100017420CFB08F734BFA2EB0742B2EB074287
:104B200061EB174115EB1C154FEA813141EA9241C7
:104B30004FEA823242EA90424FEA80304FEA0C76E6
:104B400044F1000448EA03434EEA0B484FF0000EDC
:104B5000B2EB080C71EB030724BF624639464EEBFB
:104B60000E0E4FF0000B0018524149414BEB0B0B5E
:104B7000B2EB080C71EB03077BF1000B24BF62461C
:104B800039464EEB0E0E4FF0000B001852414941D2
:104B90004BEB0B0BB2EB080C71EB03077BF1000B3B
:104BA00024BF624639464EEB0E0E51EA020718BF8B
:104BB00046F0010616EB0E7655F1000254F10001A5
:104BC00003D5BDE88901BDE80088BDE88901BDE8DD
:104BD0000048B619524141EB0101A3F101037047AE
:104BE00080807F7E7D7C7B7A79787776767574732A
:104BF000727171706F6E6E6D6C6C6B6A6A696868E9
:104C0000676666656464636362616160605F5F5E7E
:104C10005E5D5D5C5C5B5B5A5A59595858575756F4
:104C20005655555554545353525252515150505059
:104C30004F4F4F4E4E4D4D4D4C4C4C4B4B4B4A4AAB
:104C40004A494949484848474747474646464545EF
:104C50004544444444434343434242424241414128
:104C6000002B26D4770021D01CB54FEA370703B4B8
:104C70004FF010004FF010014FF000000FBCBDE8E6
:104C800010400BF1010BBBF1010F08BF5FEA1707E2
:104C900022BF12F1010211F101014FF0004143F175
:104CA000000300F0004043EA00007047F9D35708C2
:104CB000DAE746EA064613F1400F4FEA16461FDDD3
:104CC00013F1200FDFBF16430A46002120335B4259
:104CD000C8D0C3F1200746EA064602FA07F74FEAB2
:104CE000164646EA0706C3F1200722FA03F201FA44
:104CF00007F721FA03F14FF0000342EA0702B1E798
:104D000046EA020646EA06464FEA164646EA010623
:104D1000BCBF46EA0646360C4FF000034FF00002D7
:104D20004FF000019EE72DE9C048934630B491E86A
:104D3000380007C831EA400C48BF34EA430C03D5B9
:104D4000FFF7F2FDFFF78CFFF0BCBDE800882DE90E
:104D5000C048934630B491E8380007C810F0804F3F
:104D600008BF13F0804F03D100F005F8FFF778FF7C
:104D7000F0BCBDE8008820F07F4780EA030023F004
:104D80007F4C07EB0C03A3F57C5300F00040A3F12C
:104D9000FE0392F0000F00F0B38095F0000F00F0DA
:104DA00077802DE901494FEA11404FEA144621EA84
:104DB000004800FB06FC24EA064708FB06F607FB52
:104DC00008F800FB07F718EB06484CEB164C4FEAC7
:104DD000124B18EB07484FEA15464CEB174022EAF6
:104DE0000B4E0BFB06FC25EA06470EFB06F607FBFF
:104DF0000EFE0BFB07F71EEB064E4CEB164C4FF06E
:104E000000061EEB074E4CEB174B18EB0B0840F15E
:104E1000000018EB0E0B58EB000840F100008F1A51
:104E20004FF000013CBFC943661B14BFB5EB040C37
:104E300000213CBFC943F61B4FEA17444EEA8E0ED1
:104E400027EA04454FEA1C4704FB07622CEA074C9B
:104E500005FB07F70CFB05F604FB0CFC16EB0746FD
:104E600042EB174216EB0C4642EB1C421BEB0606CC
:104E700058EB0202414146EA9E0601D5BDE8018990
:104E8000B619524141EB0101A3F10103BDE80189CB
:104E90004FEA14454FEA114724EA054621EA074C38
:104EA00005FB07F406FB07F70CFB06F105FB0CFC02
:104EB00011EB074144EB17444FEA124711EB0C4149
:104EC00044EB1C4422EA074C05FB07F206FB07F7FC
:104ED0000CFB06F605FB0CFC16EB074642EB1742F3
:104EE00016EB0C4642EB1C456A1854F1000148BF12
:104EF0007047B619524141EB0101A3F1010370471C
:104F000095F0000F37D04FEA11424FEA144721EADB
:104F1000024624EA074C02FB07F106FB07F70CFBED
:104F200006F402FB0CFC14EB074441EB17414FEA7B
:104F3000154714EB0C4441EB1C4125EA074C02FBDE
:104F400007F506FB07F70CFB06F602FB0CFC16EB5D
:104F5000074645EB174516EB0C4645EB1C4212196C
:104F600051F1000148BF7047B619524141EB0101B0
:104F7000A3F1010370474FEA14454FEA114724EAB1
:104F8000054621EA074C05FB07F106FB07F70CFB7A
:104F900006F24FF0000605FB0CFC12EB074241EB5A
:104FA000174112EB0C4251EB1C4148BF704792185D
:104FB00041EB0101A3F10103704703B401984100E3
:104FC000009850EAC12018BF04204A0D18BF40F0D5
:104FD000010040F2FF72B2EB515F08BF40F00200E7
:104FE000012808BF052002B0704730380A2801D2D6
:104FF000012070470020704710B500290AD00878BA
:10500000002807D005487844FEF7BCFD002801D0F1
:10501000002010BD0248784410BD000026080000A2
:105020001E08000010B500290AD00878002807D013
:1050300005487844FEF7A6FD002801D0002010BDE9
:105040000248784410BD0000160800000E08000059
:1050500021F00042A2F16052B2F5801F01F000433E
:1050600028BFD2F17F6C0BD95FEA001C43EAC20271
:1050700042EB507018BF704728BF20F00100704706
:10508000B2F5801FBCBF184670474FEA410C1CF5B3
:10509000001F02D2084600F01FBB70B500F052FAA4
:1050A00000000089FFF7F6BF4FF00040A0F5800038
:1050B000704700002DE9C04130B4DFF8A0C23CEADF
:1050C000111418BF3CEA131400F0EC8081EA0305C8
:1050D0001CEA111444EAD57418BF1CEA131500F039
:1050E000C780A4EB05044FF0004545EAC12145EA1D
:1050F000C32341EA505143EA525304F17F74994269
:1051000004F500344FEAC0204FEAC22208BF9042A3
:1051100000F09C804FEA13650FF24016765D4FEA6F
:10512000134506FB05F7C7F1807706FB07F74FEA43
:10513000D737A7FB03687642C8F58038A7FB06CEB1
:1051400038BFA8F1010807FB08E64FF0000EA6FBE8
:10515000028CE6FB03CEDCF1000CCEF1004E38BF32
:10516000AEF1010EA6FB0C584FF000074FF0000502
:10517000E6FB0E87A1FB08C6A0FB07CE16EB0E06CA
:1051800045F10005E1FB076515F1E04E7EBFA4F592
:1051900080345FEA46066D4116F1800745F100054F
:1051A0004FEA17274FEA066647EA0567A6F1DE468B
:1051B000B6F1805F4FEA15251FD9384624F0010C5F
:1051C00005EBC471BCF1FE6F01EB0C1102D8F0BC11
:1051D000BDE8008124425CBF01F5801E9EEAC47FC9
:1051E00002D4F0BCBDE80081244238D4F0BCA1F167
:1051F000C041BDE8004100F0F3B94FEAD22242EAD3
:1052000043524FEAD323A7FB02864FEAD02040EA5D
:10521000415007FB03661EEA0E0F4FEAD12105FB42
:10522000026658BFA6EB0056B6EB00564FEA520E88
:105230004EEAC37E18EB0E0E56EB530EBDD518EB9F
:1052400002085E417F1C55F10005B6E74FF480155A
:105250004FF000074FF000064FF00008ADE7F0BC3C
:105260004FF0000001F1C04101F00041BDE80081B4
:1052700011EA0C1F0CEA131500D00CE013EA0C1F06
:1052800000F025804FF00000F0BC81EA030101F03E
:105290000041BDE80081F0BCBDE8004181EA0301A6
:1052A00000F09EB9F0BCBDE8004170B500F04AF9CD
:1052B000097EFC3E00F007B881EA03014FF00000D0
:1052C00001F00041704781EA030100F089B9F0BCA8
:1052D000BDE800414FF0000021497047FFFDFBF998
:1052E000F7F5F4F2F0EEEDEBE9E8E6E4E3E1E0DE19
:1052F000DDDBDAD8D7D5D4D3D1D0CFCDCCCBCAC88B
:10530000C7C6C5C4C2C1C0BFBEBDBCBBBAB9B8B7B1
:10531000B6B5B4B3B2B1B0AFAEADACABAAA9A8A8A4
:10532000A7A6A5A4A3A3A2A1A09F9F9E9D9C9C9B72
:105330009A9999989797969595949393929191901D
:105340008F8F8E8E8D8C8C8B8B8A898988888787AE
:105350008685858484838382828181800000FF0723
:105360000000F87F4FEA41034FEA5353A3F58063EF
:10537000D3F11E03C8BFD3F1210C0CDD4FF0004266
:1053800042EAC12242EA505232FA03FC8CEAE17C42
:10539000ACEBE1707047102BC4BF0020704703F5E1
:1053A000787CBCF1FF3F04D06FF0004282EA21001C
:1053B000704770B500F0C6F849922480002070470D
:1053C000F2E710F0004248BF4042B0FA80F310FA12
:1053D00003F10AD0C3F11D0303F580634FEA415086
:1053E00002EB035202EBD12170474FF000007047EF
:1053F000DFF848C170B51CEA111E1EBF1CEA131568
:105400009EEA0C0F95EA0C0F00F06F8081EA03040E
:1054100023EA4C134EEAD47E21EA4C1141F4801168
:1054200043F48013AE44A1FB024CA0FB0365AEF134
:105430007F7E361955EB0C05A1FB034C4CF10003A4
:10544000A0FB021C16EB0C06654153F10003094258
:1054500018BF46F0010613F4007F0BD14FEA033169
:105460004FEA0530340341EA155140EA16506FF017
:1054700003020AE04FEAC3214FEAC520F40241EAE1
:10548000555140EA56506FF0020202EB2E4201EBFA
:10549000025585EACE710AD05FEA440C18BF24F0A9
:1054A000004450F1000041F1000120EAD47040F2C4
:1054B000FE7C624500D270BDA84214BF4FF080440C
:1054C0004FF04044002E08BF0024BEF1806FA8BFFB
:1054D000A1F1C041BDE8704080F282804FF0000031
:1054E00001F1C04101F0004170479EEA0C0F0CEA47
:1054F000131518BF95EA0C0F06D04FF0000081EA93
:10550000030E0EF0004170BD00F01CF88900013E52
:1055100000F007B800F009B84FEA430C5FEA5C5CA2
:1055200008D081EA030100F05BB84FEA410C5FEA62
:105530005C5CF6D14FF00000014970470000FF07A6
:105540000000F87F0EF1020E2EF0030E5EF8046BE1
:10555000364205D4012A43EB030515F5001F12D886
:10556000012841EB010C1CF5001F0CD80ED14FEAAD
:10557000D17C15F5001F0CEB4C0C0CF1020C08BF94
:105580004CEBD37C04E04FF0080C01E04FEAD37CF5
:105590000CEB4C0526FA05F606F00706B6F1040CEE
:1055A00006D20EEB860CBDE870404CF0010C604753
:1055B000DFE80CF0090B02024FF000414FF0000051
:1055C000A1F5002170BD19461046012851EB0104D8
:1055D00018BFD4F5001484BF002001F0004170BD55
:1055E0000808A0F500114FEA3101704743004FEA67
:1055F000D30C4FEA3C0C43401FBF40070CF16051F5
:1056000013F0FE4F70471CF0006F03D100200CF028
:10561000004170470CF0004343EA507010B540EA77
:10562000CC0000F00EF800BF000000924FEA00012D
:10563000FFF7D6BF4FF000414FF00000A1F5002169
:1056400070470EF1020E2EF0030E5EF8044B24425A
:1056500004D44FEA4102B2F17F4F11D84FEA400320
:10566000B3F17F4F0CD80ED14FEAD07CB2F17F4F0F
:105670000CEB4C0C0CF1020C08BF4CEBD17C04E0A1
:105680004FF0080C01E04FEAD17C0CEB4C0324FAFC
:1056900003F404F00704B4F1040C06D20EEB840CFE
:1056A000BDE810404CF0010C6047DFE80CF0070843
:1056B00002024FF00040A0F5800010BD08464200F5
:1056C00018BFD2F1807288BF00F0004010BD4FF0CB
:1056D0004070E1EE100A7047FF2141EAD050C0054A
:1056E0007047FEF7C5BB00004C46202534647C4C57
:1056F00044202534647C4C53202534647C52532050
:105700002534647C5244202534647C524620253460
:10571000647C4C454E43202539647C52454E4320E1
:105720002539647C766F6C74616765202534647CF0
:10573000616E676C65202534647C63757253706597
:10574000656458202534667C64697374616E636592
:105750004C6566742025647C656E63436F756E745A
:105760002025647C73656E736F7246656564626143
:10577000636B2025640D0A0002400000000000A0B9
:105780000000000005400000000000C8000000000C
:105790000C4000000000409C000000001940000088
:1057A0000020BCBE0000000034400000BFC91B8EBA
:1057B00000000004B5400000504BCFD06607E2CF98
:1057C000010000006C4100003E8251AADFEEA734C8
:1057D00001000000D9420000DCB5A0E23A301F977A
:1057E000FFFFFFFFB4450000FD25A0C8E9A3C14F9E
:1057F000FFFFFFFFFF3F00000000008000000000EF
:10580000FF3F000000000080000000005859000821
:105810000000002050010000C4010008B459000835
:105820005001002060060000200200081C0000005B
:1058300043000000F8FFFFFF0C0000000E00000016
:105840000F0000002E0000001001000043000000C7
:10585000F8FFFFFF00404040404040404040414191
:105860004141414040404040404040404040404035
:1058700040404040400502020202020202020202CF
:1058800002020202022020202020202020202002CC
:10589000020202020202909090909090101010105C
:1058A00010101010101010101010101010101010F8
:1058B000020202020202888888888888080808088C
:1058C0000808080808080808080808080808080858
:1058D0000202020240000000000000000000000080
:1058E00000000000000000000000000000000000B8
:1058F00000000000000000000000000000000000A8
:105900000000000000000000000000000000000097
:105910000000000000000000000000000000000087
:105920000000000000000000000000000000000077
:105930000000000000000000000000000000000067
:105940000000000000000000000000000000000057
:105950000000000000000000412D01020304044685
:1059600006070809C822045205238D42138842E223
:1059700032323C5A1408815A1E044B2C01044BDA73
:105980000204011C0365E80322402A80041A3F0B2D
:1059900022411AF0044B1644102904013229F8332D
:1059A0004416847A030A000900010203040607086A
:0459B00009000000EA
:040000050800018965
:00000001FF
