:020000040800F2
:100000008011002055480008B91F0008BB1F0008D8
:10001000BD1F0008BF1F0008C11F0008000000002E
:10002000000000000000000000000000C31F0008E6
:10003000C51F000800000000C71F0008C91F0008F6
:100040006F4800086F4800086F4800086F480008B4
:100050006F4800086F4800086F4800086F480008A4
:100060006F4800086F4800086F4800086F48000894
:100070006F4800086F4800086F4800086F48000884
:100080006F4800086F4800086F4800086F48000874
:100090006F4800086F4800086F480008E71F000815
:1000A0006F4800086F4800086F4800086F48000854
:1000B0006F4800086F4800086F4800086F48000844
:1000C0006F4800086F4800086F4800086F48000834
:1000D0006F4800086F4800086F4800086F48000824
:1000E000292000086F4800086F4800086F48000882
:1000F0006F4800086F4800086F4800086F48000804
:100100006F4800086F4800086F4800086F480008F3
:100110006F4800086F4800086F4800086F480008E3
:100120006F4800086F4800086F4800086F480008D3
:100130006F4800086F4800086F4800086F480008C3
:100140006F4800086F4800086F4800086F480008B3
:100150006F4800086F4800086F4800086F480008A3
:100160006F4800086F4800086F4800086F48000893
:100170006F4800086F4800086F4800086F48000883
:100180006F4800086F48000800F002F800F078F8A7
:100190000AA090E8000C82448344AAF10107DA45E2
:1001A00001D100F06DF8AFF2090EBAE80F0013F0BC
:1001B000010F18BFFB1A43F001031847646A0000DF
:1001C000846A00000A444FF0000C10F8013B13F061
:1001D000070408BF10F8014B1D1108BF10F8015BA0
:1001E000641E05D010F8016B641E01F8016BF9D193
:1001F00013F0080F1EBF10F8014BAD1C0C1B09D1EA
:100200006D1E58BF01F801CBFAD505E014F8016B5B
:1002100001F8016B6D1EF9D59142D6D370470000ED
:100220000023002400250026103A28BF78C1FBD8FF
:10023000520728BF30C148BF0B607047662906F0DF
:100240005084642904F07884632905F0558173296A
:1002500005F05A81002070471FB506F038FC05F004
:1002600083F904000020002106F0DCF8401C6060E7
:100270000020002106F0C0F8E0601FBD10B510BDE1
:1002800005F0C8FA1146FFF7E7FF01F03FFC05F063
:10029000CBFC03B4FFF7F2FF03BC02F0C5F800008B
:1002A0002749084327490860704770B50F21C47873
:1002B000027801234FF0E026E4B1224C246804F4D4
:1002C000E064C4F5E064C4F30724C4F10405E1402C
:1002D0004478AC4085780D4025431B4C29011155CD
:1002E000007800F01F018B40400906EB8000C0F849
:1002F000003170BD02F01F008340500906EB800002
:10030000C0F8803170BD114A114001430D48001FF3
:10031000016070470B4A121D0029116801D001438A
:1003200000E08143116070474FF0E0210428086924
:1003300003D020F004000861704740F00400FAE7A1
:100340000000FA050CED00E000E400E080FFFF1F74
:1003500010B501210C02204600F093FC2046BDE8B8
:100360001040002100F08DBC30B54268C44B0C79C0
:100370001A400B6842EA0422134343608268C14B6F
:100380004D791A40D1E9034323438C6844EA45047C
:10039000234313438360C26A097D22F47002491E1D
:1003A000C9B242EA0151C16230BD00210160017150
:1003B00041718160C1600161012101757047B24BDB
:1003C00010B51A68B1490A40D0E900142143D0E9B8
:1003D0000240044321431143196010BD0021016014
:1003E00041608160C16070470029816802D041F09E
:1003F000010101E021F00101816070474268A44BD6
:100400001A400A4342607047416282627047426804
:1004100022F01F020A43426070479E490028D1F82B
:10042000040302D040F4000001E020F40000C1F811
:100430000403704797490028D1F8040302D040F420
:10044000800001E020F48000C1F80403704770B51B
:10045000072509290AD9C468A1F10A0606EB460650
:10046000B540AC43B3401C43C46007E0046901EBF2
:100470004106B540AC43B3401C4304611F23072A27
:1004800009D2446B521E02EB820293409C4391407E
:100490000C43446370BD0D2A09D2046BD21F02EBDA
:1004A000820293409C4391400C43046370BDC46A34
:1004B0000D3A02EB820293409C4391400C43C4628C
:1004C00070BD816841F08041816070470146002025
:1004D0008968490200D5012070470029816802D04F
:1004E00041F4806101E021F480618160704700295E
:1004F000816802D041F0020101E021F00201816037
:1005000070474268491E22F4604242EA413141602C
:1005100070470029416802D041F4006101E021F4F4
:10052000006141607047C06C80B270475648001D42
:10053000006870470029816802D041F4807101E0B1
:1005400021F48071816070470029816802D041F4F4
:10055000007101E021F40071816070474D4900286D
:10056000D1F8040302D040F4005001E020F4005020
:10057000C1F80403704770B5072409290AD9C56872
:10058000A1F10A0606EB4606B440A543B3401D435D
:10059000C56007E0056901EB4106B440A543B340DF
:1005A0001D430561836BC3F30154121B921C02EBC4
:1005B00082041F22A2409343A1400B43836370BD7A
:1005C000826B491E22F4401242EA01518163704756
:1005D00042507047826822F470220A43826070475A
:1005E000826822F440120A4382607047816841F4B5
:1005F000800181607047014600208968490200D56A
:10060000012070470029416802D041F4806101E077
:1006100021F48061416070470029416802D041F4B3
:10062000805101E021F48051416070470844806AA4
:1006300080B2704701238B4041680AB1194300E042
:100640009943416070470246002012680A4200D078
:1006500001207047C9430160704730B50246002051
:1006600054680B0A01258D4011682C40194202D0B4
:10067000002C00D0012030BD6FEA112101607047CD
:10068000FFFEFFFCFDF7FFC004230140E030FCFF4C
:10069000FFFD3FFF00200140374900200860091D91
:1006A0000860091D0860091D08603349334814318A
:1006B0000860704730B530498379026853B30B68DE
:1006C00093430B600A1D13680468A3431360027907
:1006D0000A441368046823431360274A08321368E6
:1006E0000468A3431360131D1C680568AC431C60B9
:1006F0004479102C05D021440A68006802430A603E
:1007000030BD116804682143116019680068014315
:10071000196030BD0079084401689143016030BD23
:100720000021016001710C224271817170471249F0
:1007300010310A6802430A60704701460E4A0020E1
:10074000143212680A4200D0012070470A4914315D
:1007500008607047084A014600201268064B0A40AC
:1007600014331B680B4202D0002A00D001207047CE
:100770000149143108607047003C0140FFFF7F00D1
:100780007A4910B5884206D10121084600F051FA95
:10079000002101204FE07649884206D10121022044
:1007A00000F047FA0021022045E07249884206D154
:1007B0000121042000F03DFA002104203BE06E49B5
:1007C000884206D10121082000F033FA00210820D8
:1007D00031E06A49884206D10121102000F029FA4F
:1007E0000021102027E06649884206D101212020FF
:1007F00000F01FFA002120201DE06249884206D146
:100800000121402000F015FA0021402013E05E494C
:10081000884206D10121802000F00BFA00218020BF
:1008200009E05A4988420AD184150121204600F086
:1008300000FA00212046BDE8104000F0FAB910BDD2
:10084000F0B50023012403270D6804FA03F21540D4
:10085000954242D1D0F800C05E0007FA06F52CEAB6
:10086000050CC0F800C091F804C0D0F800E00CFA04
:1008700006FC4CEA0E0CC0F800C091F804C0BCF1B4
:10088000010F02D0BCF1020F1FD1D0F808C02CEA32
:10089000050CC0F808C091F805C0D0F808E00CFAC3
:1008A00006FC4CEA0E0CC0F808C0D0F804C02CEAD4
:1008B000020CC0F804C0426891F806C00CFA03FCB0
:1008C0001FFA8CFC42EA0C024260C268AA43C26072
:1008D000CA79C568B2402A43C2605B1C102BB3D3EF
:1008E000F0BD4FF6FF71016000210171417181710E
:1008F000C171704741F48032C261C161C261C16996
:10090000C06970470246002012690A4200D00120E7
:100910007047006980B270470246002052690A425F
:1009200000D001207047406980B270470183704752
:10093000418370470AB10183704741837047416129
:10094000704742694A40426170474B07DB0E9A404C
:10095000C90810B500EB8100016A0F249C40A14337
:100960000162016A1143016210BD000000000240F3
:100970000004024000080240000C02400010024047
:100980000014024000180240001C024000200240F7
:10099000E948016841F001010160E74A002108329D
:1009A00011600268E54B1A400260031DE44A1A60B8
:1009B000026822F480220260DF480C300160704738
:1009C000DD490022891C0A70087070470246002029
:1009D000510901290CD002290CD0D749743109687A
:1009E00002F01F02012393400B4200D00120704708
:1009F000D149F4E7D0497031F1E730B500244FF424
:100A0000A0653120FFF7E2FF641CAC4201D0002852
:100A1000F7D03120FFF7DAFF002800D0012030BDE9
:100A2000C5490A6822F0F80242EAC000086070472F
:100A3000C44908607047C049002270310A700A70CA
:100A4000012802D0042801D1052008707047BE4952
:100A50000860704741EA82115A0810B5BB4B029CEE
:100A600003EB02421143014341EA0460B249091D0C
:100A7000086010BDB34908667047800140EA017004
:100A8000AD49843108607047AE4988667047AD490A
:100A9000C8647047A84A08321368084323F0EC631F
:100AA000184310607047A44A08321368084323F0C3
:100AB00078431843106070479F4A0832116821F04C
:100AC00003010143116070479B480830006800F043
:100AD0000C007047984A0832116821F0F001014378
:100AE00011607047944A0832116821F4E0510143C3
:100AF00011607047904908310A6822F4604242EA66
:100B0000C0000860704770B58B4A08321168904B7E
:100B100011F00C0104D05D10042903D0082903D082
:100B200003601BE0056019E08349091D0C68C4F3EC
:100B300080560C6804F03F0416B1B5FBF4F301E0F5
:100B4000B3FBF4F30C680968C4F388146343C1F37E
:100B50000141491C4900B3FBF1F1016011687D4B73
:100B600001F0F00109095C5C0168E1404160146832
:100B700004F4E054A40A1C5D21FA04F484601268B1
:100B800002F46042520B9A5CD140C16070BDC0F368
:100B90000121032908D1684A0832116821F4F813A9
:100BA0006D49014019431160634970310A68C0F30F
:100BB0000B0002430A60704763494439086070477C
:100BC00061494039086070476449086070475A4A73
:100BD00030320029116801D0014300E081431160E7
:100BE0007047554A34320029116801D0014300E0B2
:100BF000814311607047504A38320029116801D092
:100C0000014300E08143116070474B4A40320029A4
:100C1000116801D0014300E0814311607047464AEA
:100C200044320029116801D0014300E08143116082
:100C30007047414A10320029116801D0014300E099
:100C40008143116070473C4A14320029116801D079
:100C5000014300E0814311607047374A1832002990
:100C6000116801D0014300E0814311607047324AAE
:100C700020320029116801D0014300E08143116056
:100C800070472D4A24320029116801D0014300E049
:100C9000814311607047284A50320029116801D001
:100CA000014300E0814311607047234A5432002918
:100CB000116801D0014300E08143116070471E4A72
:100CC00058320029116801D0014300E081431160CE
:100CD0007047194A60320029116801D0014300E0D1
:100CE000814311607047144A64320029116801D0B1
:100CF000014300E08143116070470F4A0D32002923
:100D0000117801D0014300E08143117070470A4817
:100D10007430016841F08071016070470146064AF5
:100D200000200C3212680A4200D0012070470249AC
:100D30000E3108707047000000380240FFFFF6FED9
:100D40001030002400004742800E47420000FFFFA1
:100D50000024F40000000020FFFCFF0F5C0147426C
:100D600010B501218C032046FFF78BFF2046BDE81C
:100D700010400021FFF785BF11490860704710B58A
:100D80008A07130F21F003040F220D499A400831FE
:100D900021440C6894430C600A68984002430A603E
:100DA00010BD08490860704707490860704704494A
:100DB000002020310968C90500D5012070470000D6
:100DC00000380140DC00274200042742FE4910B5EC
:100DD000884206D101210846FFF753FF0021012078
:100DE0005BE0B0F1804F09D0F84988420DD1012174
:100DF0000220FFF73CFF0021022070E0012108469D
:100E0000FFF735FF0021012069E0F149884206D152
:100E100001210420FFF72BFF002104205FE0ED49B2
:100E2000884206D101210820FFF721FF0021082078
:100E300055E0E949884206D101211020FFF717FF4C
:100E4000002110204BE0E549884206D101212020F5
:100E5000FFF70DFF0021202041E0E149884206D143
:100E600001210220FFF70DFF0021022015E0DD49DE
:100E7000884202D101210C040AE0DB49884202D1F8
:100E800001214C0404E0D94988420AD101218C0493
:100E90002046FFF7F6FE00212046BDE81040FFF790
:100EA000F0BED349884206D101214020FFF7DFFE82
:100EB0000021402013E0CF49884206D10121802043
:100EC000FFF7D5FE0021802009E0CB4988420AD1F6
:100ED000841501212046FFF7CAFE00212046BDE807
:100EE0001040FFF7C4BE10BD30B50288B64BBC4CF5
:100EF00098420DD0A0420BD0B0F1804F08D0B34D36
:100F0000A84205D0B24DA84202D0B24DA84203D1AA
:100F100022F070054A882A43AF4DA84206D0AF4D53
:100F2000A84203D022F440750A892A4302804A6805
:100F3000C2620A880285984201D0A04201D1897A12
:100F400001860121818230BD4FF0FF3141600021D7
:100F500001800181418081727047018582827047E2
:100F6000028822F070020A43028070474162704793
:100F7000C1627047406A7047008D70470029018840
:100F800002D041F0020101E021F00201018070472E
:100F90000029018802D041F0040101E021F00401A0
:100FA000018070470029018802D041F0800101E0F2
:100FB00021F0800101807047028822F0080202803F
:100FC00002880A4302807047028822F4407202803D
:100FD00002880A43028070470029018802D041F04C
:100FE000010101E021F001010180704730B5028C60
:100FF00022F001020284028C8388048B22F0020218
:1010000024F073050C882C438D8915434A882A43A4
:101010006D4DA84202D0724DA8420DD122F00805B4
:10102000CA8923F440732A4322F004058A882A439C
:101030000D8A1D434B8A2B43838004838968416357
:10104000028430BD70B5028C22F010020284028C42
:101050008488038B0D8823F4E6464FF6FF7303EA7A
:10106000052535438E8922F0200203EA0616164331
:101070004A8803EA02123243534EB04202D0584E1D
:10108000B04215D122F08006CA8924F4406403EAF4
:101090000212324322F040068A8803EA02123243E7
:1010A0000E8A03EA860626434C8A03EA8404344304
:1010B0008480058389688163028470BD70B5028C69
:1010C00022F480720284028C8488838B0D8823F042
:1010D00073031D4322F400738E894FF6FF7202EAF8
:1010E00006261E434B8802EA03233343364EB042A2
:1010F00002D03B4EB04215D123F40066CB8924F4D4
:10110000405402EA0323334323F480668B8802EAC7
:10111000032333430E8A02EA061626434C8A02EA68
:1011200004143443848085838968C163038470BD5B
:1011300070B5028C22F480520284048C8288838BE6
:101140000D8823F4E6464FF6FF7303EA0525354381
:1011500024F400568C8903EA043434434E8803EAAD
:1011600006362643184CA04202D01D4CA04205D1A1
:1011700022F480440A8A03EA821222438280858311
:1011800089680164068470BD0021018041808180EE
:1011900081608181C18101824182704730B5012423
:1011A000058C00F118038C40A543058431B3082950
:1011B0002CD0091FC1F34E001844016848F6FF7394
:1011C0001940016001681AE000000140000400407D
:1011D00000080040000C00400010004000140040D7
:1011E000000401400040014000440140004801402B
:1011F00000180040001C00400020004006E04FF6B0
:10120000FF7303EA02221143016030BD03EB51007A
:1012100001684FF68F73194001600168F3E741637D
:10122000704781637047C163704701647047028BE8
:1012300022F070020A4302837047028B4FF6FF735D
:1012400022F4E04203EA0121114301837047828BBB
:1012500022F070020A4382837047828B4FF6FF733D
:1012600022F4E04203EA0121114381837047028B9B
:1012700022F008020A4302837047028B4FF6FF7385
:1012800022F4006203EA0121114301837047828B3B
:1012900022F008020A4382837047828B4FF6FF7365
:1012A00022F4006203EA0121114381837047028B1B
:1012B00022F004020A4302837047028B4FF6FF7349
:1012C00022F4806203EA0121114301837047828B7B
:1012D00022F004020A4382837047828B4FF6FF7329
:1012E00022F4806203EA0121114381837047028B5B
:1012F00022F080020A4302837047028B4FF6FF738D
:10130000C2F30E0203EA0121114301837047828B6D
:1013100022F080020A4382837047828B4FF6FF736C
:10132000C2F30E0203EA0121114381837047028C4C
:1013300022F002020A4302847047028C22F0080263
:101340000A4302847047028C4FF6FF7322F020029A
:1013500003EA0111114301847047028C4FF6FF73B9
:1013600022F0800203EA0111114301847047028CCC
:101370004FF6FF7322F4007203EA01211143018446
:101380007047028C4FF6FF7322F4006203EA0121DA
:10139000114301847047028C4FF6FF7322F4005210
:1013A00003EA013111430184704710B50123048C15
:1013B0008B409C430484038C8A401343038410BDF8
:1013C00010B50423048C8B409C430484038C8A4016
:1013D0001343038410BD828B22F440628283828B8C
:1013E0004FF6FF7303EA01210A4382837047828B21
:1013F00022F00C028283828B0A4382837047028B25
:1014000022F440620283028B4FF6FF7303EA01214C
:101410000A4302837047F0B5048C24F0100404845E
:10142000078B068C4FF6FF7404EA011527F4734707
:1014300004EA0331394304EA02220A4326F0A001F8
:10144000294341F0100102830184F0BD028B22F098
:101450000C020283028B0A43028370472DE9F0419C
:101460000D460E884988AA882B8904460EB3042E9F
:1014700026D0082E268C4FF6FF7028D026F48056F2
:101480002684A78B268C00EA022200EA013127F489
:1014900073473A4300EA0330104326F420420A43DC
:1014A00042F48051A0832184E9882046BDE8F041C0
:1014B00091E700F061F9E9882046BDE8F041C5E711
:1014C000FFF7A9FFE9882046BDE8F04197E726F439
:1014D00080762684A78B268C00EA012100EA03107F
:1014E000104327F0F307384326F420620A4342F4FE
:1014F0008071A0832184E9882046BDE8F04176E729
:1015000000210180418001228280C18001817047D9
:101510002DE9F0410C46002549880746012601B90E
:101520000225A288012A00D10226208823890028CA
:10153000384610D0FFF76FFFE1883846FFF75FFFAE
:10154000238932462946384600F016F9E1883846A4
:10155000BDE8F0417AE700F00FF9E1883846FFF77F
:1015600075FF2389324629463846FFF754FFE18844
:101570003846BDE8F04142E7406B7047806B7047EA
:10158000C06B7047006C704710B50A884B88CC88D8
:101590001A438B8823431A430B891A434B89898941
:1015A0001A430A43A0F8442010BD00210180418065
:1015B0008180C1800181418181817047002930F89B
:1015C000441F02D041F4004101E0C1F30E0101804B
:1015D00070470029818802D041F0040101E021F028
:1015E0000401818070470029818802D041F0010107
:1015F00001E021F0010181807047002A828901D039
:101600000A4300E08A438281704781827047024624
:101610000020128A0A4200D001207047C94301828B
:10162000704702460020138A92890B4202EA0102A7
:1016300002D0002A00D001207047C94301827047C0
:101640001143A0F848107047002A828901D00A434C
:1016500000E08A43828170470029818802D041F0EE
:10166000080101E021F0080181807047018921F023
:10167000070101817047028922F070020A4302814A
:10168000704700B50346FFF7F6FF188940F00700E2
:10169000188100BD70B50D4611460446602D4FF00F
:1016A00001020AD000F068F829462046FFF7E3FF60
:1016B000208940F00700208170BDFFF7ACFEF3E702
:1016C00030B504894FF6FF7505EA03231343E4B2EE
:1016D0000B432343038130BD10B50446FFF7F0FFF1
:1016E000208940F07700208110BD10B50446FFF737
:1016F000E7FF208940F48040208110BD828822F0DD
:101700007002828082880A4382807047028922F0B8
:101710000702028102890A4302817047028922F08E
:101720008002028102890A430281704770B50589EF
:10173000048B068C25F007050D434FF6FC410C4049
:1017400040F201110C434FF6FF7101EA031126F03C
:1017500022061143314305810483018470BD0029B1
:10176000818802D041F0800101E021F08001818078
:101770007047A0F85010704770B5048C24F0010435
:101780000484058B048C4FF6FF7606EA031313439B
:1017900025F0F3052B4324F00A020A4342F001012D
:1017A0000383018470BD0000CA4910B5884206D188
:1017B00001211020FFF765FA0021102028E0C6491A
:1017C000884202D101214C0410E0C449884202D170
:1017D00001218C040AE0C249884202D10121CC04D3
:1017E00004E0C04988420AD101210C052046FFF7D8
:1017F0003EFA2046BDE810400021FFF738BABA494A
:10180000884209D101212020FFF73BFA0021202046
:10181000BDE81040FFF735BA10BD7FB50446008A19
:101820000D4620F44051E88808432082A08941F207
:101830000C618843A9882A8911436A8902431143AC
:10184000A181A08A20F44071A8890843A08268463B
:10185000FFF759F99F48844202D0A348844201D13E
:10186000039800E00298A1890904002900EBC00157
:1018700001EB0010296802DA4FEA410101E04FEA6A
:101880008101B0FBF1F26420B2FBF0F14FEA0111EB
:101890004FEA11136FF018056B4302EB8302A38923
:1018A0001D044FF0320306D503EBC202B2FBF0F089
:1018B00000F0070005E003EB0212B2FBF0F000F0CD
:1018C0000F00084320817FBD4FF4165101600021B5
:1018D0008180C18001810C2242818181704710B5D5
:1018E000028A4C8822F470630A8822438C88C98853
:1018F0000C4322431A43028210BD00210180418023
:101900008180C18070470029818902D041F4005153
:1019100001E021F4005181817047028B02F47F4283
:101920000283028B0A43028370470029818902D017
:1019300041F4004101E0C1F30E01818170470029AB
:10194000818A02D041F4006101E021F400618182CA
:101950007047C1F30801818070478088C0F3080098
:101960007047028A22F00F020282028A0A43028230
:1019700070470029818902D041F0020101E021F085
:10198000020181817047828922F40062828182890A
:101990000A4382817047028A22F020020282028A70
:1019A0000A43028270470029018A02D041F4804133
:1019B00001E021F4804101827047818941F00101F9
:1019C000818170470029818A02D041F0080101E03D
:1019D00021F0080181827047028BD2B20283028B10
:1019E00042EA0121018370470029818A02D041F037
:1019F000200101E021F02001818270470029818AC5
:101A000002D041F0100101E021F010018182704705
:101A1000828A22F004028282828A0A43828270478A
:101A20000029818A02D041F0020101E021F0020187
:101A300081827047002A828A01D00A4300E08A43EB
:101A40008282704710B5C1F3421301F01F040121D7
:101A5000A140012B07D0022B07D01430002A0268C6
:101A600005D00A4304E00C30F8E71030F6E78A436B
:101A7000026010BD0246002012880A4200D00120F8
:101A80007047C9430180704730B501F01F0201243F
:101A90000025C1F3421304FA02F2012B0FD0022BEE
:101AA0000FD0838A4FEA11210088134204FA01F40F
:101AB00000EA040001D000B10125284630BD838929
:101AC000F0E7038AEEE70A0A01219140C943018049
:101AD00070470000001001400044004000480040F2
:101AE000004C0040005000400014014010B501F0CF
:101AF0002BF9FE4C207808B100F0EAFF607800284E
:101B000003D0BDE8104001F001BF10BD00F0B6FAEF
:101B100000F028FB00F08CFB4FF4165000F034FC72
:101B200000F024FE00F0E0FE00F05AFE00F04CFF52
:101B3000EF4C4FF4805631462046FEF7F9FE710017
:101B40002046FEF7F5FEB1002046FEF7F1FEF1005B
:101B50002046FEF7EDFEE74D40212846FEF7E8FE61
:101B600080212846FEF7E4FEE34F04213846FEF7C5
:101B7000DFFE31462846FEF7DBFEDFF880934FF4A8
:101B8000807841464846FEF7D3FE4FF4007A51462E
:101B90002846FEF7CDFE4FF47A74204600F0ABFAEB
:101BA0002146C82000F083FED04C01204FF416716E
:101BB000A0704FF4487020616420216260610101CF
:101BC00061625021A1628C21E162A0613220E0615A
:101BD0006FF04B0060644C20A0646FF0AC00E064D8
:101BE000AD20206514214FF4EB60C4E90C1040F2E5
:101BF000B270A0634FF4FA70E063206400F0C8FE96
:101C00004FEAE07100EB51504FEAE0204FEAE071FB
:101C100000EB917121F00301401AE06001D54042D0
:101C2000E060B0B101281DD0022828D00328E5D1FA
:101C300004213846FEF77CFE31462846FEF778FE42
:101C400041464846FEF774FE51462846FEF76EFEB2
:101C5000D4E704213846FEF769FE31462846FEF7F0
:101C600067FE07E004213846FEF762FE314628464B
:101C7000FEF75CFE41464846FEF75AFE0BE00421A3
:101C80003846FEF755FE31462846FEF751FE4146DE
:101C90004846FEF74BFE51462846FEF749FEADE7A3
:101CA0002DE9F0474FF4FA71C82000F000FE4FF420
:101CB0007A7000F020FA92A002F0E0FE64218B48D6
:101CC0000023CA0050248C25924F32269FED920AA1
:101CD000D0F80C80DFF844C2DFF84492B8F1000F6E
:101CE00009D0B8F1010F0AD0B8F1020F1DD0B8F138
:101CF000030F13D11DE04FF0C808416102E04FF41B
:101D0000C878416100F1180A0363AAE84201AAE811
:101D1000340039608CED000A89ED000A01F0C1FA47
:101D2000BDE8F0477FA002F0A9BE4FF416784161EC
:101D3000E8E7036302624161C0E90616243034C05B
:101D4000E7E710B54FF4FA71C82000F0B0FD4FF48A
:101D50007A74204600F0CFF902F09CF801F0F7FF0A
:101D6000642000F0C8F961496422D0004A61C1E9E9
:101D700008045020C1E90A0200200863C1E90602F4
:101D8000644A3220B3EE0E0A1060644880ED000A07
:101D9000634880ED000A40F28A20486040F27620D5
:101DA0008860BDE8104002F036BA2DE9F0474FF4E4
:101DB000FA71C82000F07BFD4FF47A74204600F0E1
:101DC0009AF95EA002F05AFE02F064F801F0BFFF3B
:101DD000642000F090F9454964220025D1F80C8078
:101DE000D600502332204B4FDFF830C1DFF830915E
:101DF000B8F1000F09D0B8F1010F13D0B8F1020FFC
:101E000028D0B8F1030F1ED131E00D634A61C1E95A
:101E10000A32C823C1E90632C1E90864B3EE0E0AEA
:101E200038600CE00D634C624A61C1E90A3201F18D
:101E300018089622A8E84C009FED450A38608CED02
:101E4000000A89ED000A02F0E6F9BDE8F04741A07A
:101E500002F014BE0E624A61C1E90943C1E90620DD
:101E60007823C1E90B359FED410A3860E7E70E6240
:101E70004A61C1E90943C1E906208C23C1E90B3558
:101E80009FED250A3860DAE7704710B538482DED28
:101E9000028B8EB0006804F0A9FD41EC180B00F035
:101EA00073FD044600F074FD01463248334B02686E
:101EB00031481B6800680A93CDE90B023048314A6B
:101EC0008DED088B00681268CDE90520CDE903147B
:101ED0002D482E492E4A0068096812680092CDE903
:101EE00001102C4803682C48026857E03400002099
:101EF0000004024000080240000C024000000240C2
:101F0000427574746F6E20302070726573736564EF
:101F10000A0D000074010020000070423001002012
:101F20003401002046696E697368656420427574E7
:101F3000746F6E2031204953520A0D00427574743B
:101F40006F6E203220707265737365640A0D000035
:101F50000000204246696E697368656420427574AA
:101F6000746F6E2032204953520A0D00000048421F
:101F7000E8000020700100206801002064010020BA
:101F8000E4000020C4000020CC000020D400002089
:101F9000DC000020D8000020D000002004480168A8
:101FA000044802F06BFD0EB0BDEC028B10BD0000CA
:101FB000C8000020E86A00087047FEE7FEE7FEE779
:101FC000FEE770477047704729480168491C016067
:101FD00028490868002802DA274B00221A60401EB0
:101FE0000860FFF783BD70B52020FEF7B3FB4FF408
:101FF000967438B1204600F07EF8FFF751FE20209D
:10200000FEF7B6FB4FF480752846FEF7A3FB0028C9
:1020100009D0204600F06FF8FFF736FF2846BDE8EC
:102020007040FEF7A5BB70BD70B54FF40065284643
:10203000FEF790FB4FF4967438B1204600F05BF841
:10204000FFF77FFE2846FEF793FB4FF480552846A6
:10205000FEF780FB002809D0204600F04CF8FFF77F
:10206000A4FE2846BDE87040FEF782BB70BD0000AC
:10207000A4000020B80000203404004070B502F035
:102080008BFC02F0AEFC33484FF47A710068B0FB71
:10209000F1F0401EB0F1807F16D24FF0E024606175
:1020A00066170F21304600F049F80025A56107208A
:1020B00020614FF44070FEF7F3F80021304600F045
:1020C0003DF82548456070BDFEE74FF0E02080698F
:1020D000A821B0FBF1F12048426802EB4203C3EBB8
:1020E000C212C1EBC20101F57A710160006870474C
:1020F000194840687047184A516853685B1A834210
:10210000FBD1704730B50546FFF7DFFF4FEA00040B
:10211000FFF7DBFF001BA842FAD130BD30B50C46FB
:102120004FEA0005FFF7D1FF001BA842FAD330BDEC
:10213000094A53685B1A8342FBD370470907090EAB
:10214000002803DA00F00F00044A00E0044A81543A
:10215000704700007C010020A000002014ED00E08A
:1021600000E400E07CB501210846FEF730FD0121C6
:102170000220FEF72CFD01210420FEF728FD01219D
:102180000820FEF724FD4FF48070009001208DF8A8
:10219000040000208DF8060003218DF805108DF84D
:1021A000070069461E48FEF74BFB4FF490501D4D4B
:1021B000009069462846FEF743FB042000906946DC
:1021C0001948FEF73DFB4FF47040184E0224009072
:1021D0008DF8074069463046FEF732FBC02000907C
:1021E0008DF8074069462846FEF72AFB402128461D
:1021F000FEF79EFB80212846FEF79AFBE10230465F
:10220000FEF796FB21033046FEF792FB6103304652
:10221000FEF78EFBA1033046FEF78AFB7CBD000073
:102220000000024000080240000C0240000402408E
:102230002DE9F047012186B08803FEF7F0FC01216B
:102240000720FEF7C4FC00248DF8104020258DF8EF
:10225000134003A949480395FEF7F2FA052101202E
:10226000FEF78DFD00958DF8044008268DF8056079
:1022700001258DF806506846FEF71CFA4FF0170945
:102280008DF808908DF809508DF80A408DF80B50A4
:1022900002A8FEF70AF8DFF8E8A08DF81040EF0278
:1022A0008DF8134003A950460397FEF7C9FA0B2196
:1022B0000020FEF764FD8DF804408DF8056000975E
:1022C0008DF806506846FEF7F5F928278DF8087056
:1022D0008DF809508DF80A408DF80B5002A8FDF7D3
:1022E000E4FF8DF810404FF480588DF8134003A997
:1022F0005046CDF80C80FEF7A3FA0C210020FEF723
:102300003EFD8DF804408DF80560CDF800808DF815
:1023100006506846FEF7CEF98DF808708DF8095022
:102320008DF80A408DF80B5002A8FDF7BEFF8DF81E
:1023300010402F028DF8134003A912480397FEF7AF
:102340007FFA08210220FEF71AFD8DF804408DF86F
:10235000056000978DF806506846FEF7ABF98DF8DA
:1023600008908DF809508DF80A408DF80B5002A89E
:10237000FDF79BFF06B0BDE8F087000000040240B7
:10238000000002400008024070B5054688B00121F7
:102390000220FEF71CFC01211020FEF740FC6D4ED0
:1023A000072209213046FEF7D0FA07220A213046DB
:1023B000FEF7CBFA00248DF8164001208DF81700A7
:1023C00002208DF814004FF4C06104918DF81500BF
:1023D00004A93046FEF734FA5F4E01213046FFF77C
:1023E000A4FAADF808400C20ADF80A00ADF804409E
:1023F000ADF80640ADF818403015ADF81A00ADF84C
:102400001E400095ADF80C40ADF81C4069463046C2
:10241000FFF703FA06A93046FFF761FA01213046BB
:10242000FFF771FA08B070BD0020704770B54A4DD3
:102430000446C1B22846FFF78CFA80212846FFF7F0
:1024400019FB0028F9D0204670BD43480188890651
:10245000FCD58088C0F30800704770B53E4D044637
:1024600080212846FFF706FB0028F9D0A1B22846B4
:10247000FFF76FFA204670BD10B538A002F0FEFAE3
:10248000354C20212046FFF7F5FA0028F9D02046E8
:10249000FFF763FAC0B210BD10B539A002F0EEFA32
:1024A0002D4C20212046FFF7E5FA0028F9D02046E0
:1024B000FFF753FA01463AA002F0E0FA2046FFF790
:1024C0004CFAC0B210BD10B537A002F0D7FA224CBA
:1024D00020212046FFF7CEFA0028F9D02046FFF74A
:1024E0003CFAA0F1300137A002F0C8FA2046FFF70D
:1024F00034FA303810BD10B50446014686B033A01A
:1025000001E0214638A002F0B9FA694641A002F084
:10251000EDFB694640A002F0B1FA2146684602F0A0
:1025200031FD0028EDD106B010BD38B50446014696
:102530003BA001E0214641A002F0A0FA69464AA072
:1025400002F0D4FB1FA0009902F098FA0098A04274
:10255000F0D138BD00000240001001400D0A707239
:1025600065737320616E79206B657920746F2063C9
:102570006F6E74696E75652E2E2E0D0A0D0A0000A1
:10258000706C6561736520656E746572206120638F
:1025900068617261637465722E2E2E0D0A00000050
:1025A00025630D0A00000000706C6561736520658D
:1025B0006E74657220612064696769742E2E2E0D19
:1025C0000A00000025640D0A0000000050726573C7
:1025D0007320257320746F20436F6E74696E756568
:1025E0002E2E2E203A000000496E76616C69642020
:1025F000696E7075742C207072657373202573205A
:10260000746F20436F6E74696E75652E2E2E203A9E
:10261000000000002573000025730D0A0000000073
:10262000507265737320256420746F20436F6E743D
:10263000696E75652E2E2E203A000000496E766177
:102640006C696420696E7075742C20707265737388
:1026500020256420746F20436F6E74696E75652E3B
:102660002E2E203A00000000256400001CB5012138
:102670000420FEF7CAFA4FF47070009002208DF823
:10268000040003208DF8050000208DF80600504C52
:102690008DF8070069462046FEF7D2F8022206218F
:1026A0002046FEF752F9022207212046FEF74DF997
:1026B000022208212046FEF748F90222092120467D
:1026C000FEF743F91CBDF0B589B040F2E730069043
:1026D0000320ADF8140000263E4FADF81C60ADF8A5
:1026E000166005A93846FEF7FFFB60203A4DADF8AD
:1026F00000000124ADF8024028880290ADF80C607B
:1027000069463846FEF772FC08213846FEF7AFFDF1
:10271000ADF802406888029069463846FEF792FCA0
:1027200008213846FEF7A9FDADF80240A8880290BE
:1027300069463846FEF7C2FC08213846FEF7A7FD79
:10274000ADF80240E888029069463846FEF7F0FC92
:1027500008213846FEF7A1FD01213846FEF722FC8C
:1027600001213846FEF738FC09B0F0BD10B5FFF77F
:102770007DFFBDE81040A6E718490968884200DDE2
:1027800008464942884200DA0846124A002134329B
:10279000131D002802DB1060196070471160404271
:1027A000186070470D490968884200DD08464942B3
:1027B000884200DA0846074A00213C32131D0028EF
:1027C00002DB11601860704740421060196070476A
:1027D0000004024000080040B00000204400002037
:1027E00030B58BB001210220FEF70FFA4020059092
:1027F00002208DF8180003218DF8191000248DF89F
:102800001A40354D8DF81B0005A92846FEF718F82B
:10281000022206212846FEF798F8952008908B2082
:10282000ADF81C002D4DADF82440ADF81E4007A9B1
:102830002846FEF759FB6020ADF800000120ADF8F6
:1028400002000294ADF80C4069462846FEF7CEFB24
:1028500008212846FEF70BFD01212846FEF7A2FBC2
:1028600001212846FEF7B8FB0BB030BD2DE9F04141
:1028700005461B498C2068430860184F95202C376B
:1028800038600024154EA04634360CE03868401CF1
:10289000C00830604620FFF72EFCC6F800804620B6
:1028A000FFF729FC641CAC42F0DBBDE8F0810B4A69
:1028B00010B52C321368094C5B1C9B083434236020
:1028C000084B93FBF1F18C2391FBF3F1491E11604E
:1028D0000349086010BD00000000024000040040F1
:1028E000B800002000BD01057CB501210920FEF7DC
:1028F0008CF902208DF8040001208DF8070048F2C1
:1029000003002E4C009069462046FDF799FF0820F1
:102910002B4D009069462846FDF792FF02220021C8
:102920002046FEF712F8022201212046FEF70DF89C
:1029300001220F212046FEF708F801220321284634
:10294000FEF703F81F4C4FF0FF3529462046FEF7EF
:102950000FFB29464FF080452846FEF709FB02236E
:10296000002203212046FEF7E1FE00231A46032140
:102970002846FEF7DBFE01212046FEF72DFB012154
:102980002846FEF729FB7CBD0E48243000687047BE
:102990004FF08040406A70470A49002024310860A7
:1029A00070474FF08041002048627047054924314C
:1029B000086070474FF08041486270470000024055
:1029C00000040240000C004070B501218CB00802E8
:1029D000FEF725F9BC20032500908DF80450002453
:1029E0008DF8074069463648FDF72AFF354E8DF8C9
:1029F000045000958DF8074069463046FDF720FFEA
:102A00008DF804503020304D00908DF80740694615
:102A10002846FDF715FF4FF48030CDE908404FF40C
:102A20007060CDE90A4008A8FDF7C9FC8DF80C409C
:102A300002948DF80D40059406940120234C8DF8E6
:102A40001C0002A92046FDF78FFC012240F205215F
:102A50002046FDF7EFFD01212046FDF7C5FCA1143E
:102A60003046FDF765FF61143046FDF761FF4FF416
:102A700080413046FDF75CFF4FF400413046FDF7E2
:102A800057FF40212846FDF753FF80212846FDF7D8
:102A90004FFF0CB070BD10B5134604460122FDF780
:102AA000D6FC2046FDF70DFD02212046FDF7CBFDAB
:102AB0000028F9D02046BDE81040FDF734BD0000E5
:102AC00000000240000402400008024000200140D3
:102AD0002DE9F05FAE4D042209212846FFF7DBFF08
:102AE000AC4C04220521E0602846FFF7D4FF2061AA
:102AF000042208212846FFF7CEFF60610422072147
:102B00002846FFF7C8FFA06104220F212846FFF7DF
:102B1000C2FFE06104220E212846FFF7BCFF2062BD
:102B2000FFF7D3FA9C4E83464FF48059494630460E
:102B3000FDF7FCFEDFF86482802147464046FDF742
:102B4000F5FE59463C20FFF7E9FA04220921284600
:102B5000FFF7A1FFE1680422401AE0600521284642
:102B6000FFF799FF2169401A206149463046FDF779
:102B7000DFFE80213846FDF7DBFEE06800270028F5
:102B800000DAE7602069002800DA27615946FA2058
:102B9000FFF7C4FA4FF4005A5146B1463046FDF7EC
:102BA000C5FE402146464046FDF7C0FE59464FF45B
:102BB000AA70FFF7B3FA042208212846FFF76BFF3B
:102BC00061690422401A606107212846FFF763FF0C
:102BD000A169401AA06151464846FDF7A9FE40216F
:102BE0003046FDF7A5FE6069002800DA6761A0693C
:102BF000002800DAA761E26821684FF47A704A433E
:102C000092FBF0F2E26022694A4392FBF0F2226109
:102C100062694A4392FBF0F26261A2694A4392FB05
:102C2000F0F0A061BDE8F09F2DE9F047FFF74DFA05
:102C3000574D814604220F212846FFF72CFF554CA3
:102C400004220E21E0612846FFF725FF524F4FF482
:102C50008046206231463846FDF768FE4FF4004852
:102C600041463846FDF762FE49464FF4AA70FFF729
:102C700055FA04220F212846FFF70DFFE1690422CF
:102C8000401AE0610E212846FFF705FF216A401A2D
:102C9000206231463846FDF74BFE41463846FDF787
:102CA00047FEE1690020002900DAE061216A00297D
:102CB00000DA2062E26921684FF47A704A4392FB9D
:102CC000F0F2E261226A4A4392FBF0F02062BDE832
:102CD000F0872DE9F04128262E4C00202C4F054688
:102CE0006062042211463846FFF7D5FE616A6D1C0A
:102CF00008446062B542F4DB4CF2503191FBF6F0CF
:102D0000626A5043264A104490FBF1F0C11700EB71
:102D10005170C0106062A16A0844A062BDE8F081F1
:102D200010B5042203211A48FFF7B5FE194C606064
:102D300003F047FD9FED1B1B53EC112B03F0BAFB77
:102D400003F010FDA06010BD10B5FFF7E9FF1148BA
:102D500041F658318068884218DA04211348FDF79B
:102D6000E5FD0E4C4FF480512046FDF7DFFDA11527
:102D70000F48FDF7DBFD61152046FDF7D7FDBDE8E7
:102D800010404FF47A71C820FFF791BD10BD0000CC
:102D900000200140BC000020000402400008024066
:102DA00008136DFAAC1C5A643BDFD33F000C0240A1
:102DB00000000240F84FDFF8E4830D4606464FF46A
:102DC0007A7900BFFFF781F90446FFF781FE386882
:102DD000301AFFF7D1FCD8F80000281AFFF7E2FC00
:102DE00021464846FFF79AF9ECE710B5EA48EC4966
:102DF000EC4C00680A684FF480519042204602DD96
:102E0000FDF794FD01E0FDF793FDE7480168E74811
:102E10000268E74891424FF0040102DDFDF786FDAC
:102E200001E0FDF785FDE348E34900680A684FF4D7
:102E300000719042204602DDFDF778FD01E0FDF7CC
:102E400077FDD6484FF480710268DC480368DC489F
:102E50009A4203DDBDE81040FDF768BDBDE81040B3
:102E6000FDF766BD70B50D460446FFF79AFDFFF706
:102E700093FD2046FFF780FC2046FFF793FC284691
:102E8000FFF739F90020FFF777FC0020FFF78AFCF5
:102E90006420FFF730F9FFF777FD0446FFF778FD70
:102EA000201A70BD0EB50020C649C74A8246087078
:102EB00001211170C54907468346087080460546C2
:102EC000009004460190C2484FF001090168C148D2
:102ED0000160C148C14A0068126809FB00F18E1AFE
:102EE000BAF1000F40D186423EDCBD494FF0010AE5
:102EF000BC4A81F800A000211170BB4981F800A0F4
:102F00002DB9022C03D0032C01D0042C26D1B748B4
:102F100090ED000AB8EEC00A00F07CFDBDEEC00ADC
:102F200010EE100A00B20290B14890ED000A00F0D5
:102F300071FDBDEEC00A029A10EE100A01B23046D1
:102F400000F0F6FC00EE100AAA48B8EEC00AD0ED78
:102F5000000AB4EEE00AF1EE10FA01D29C4800E05B
:102F6000A24801689B48016057B99B48006800EB84
:102F70004000C11700EB9170B6EBA00F00DC0127F9
:102F800037EA080002D0964901200870BBF1000F13
:102F900038D19148006800EBD070B6EB600F31DC9F
:102FA0007D487F494FF0010B00680968884205DCC5
:102FB0007A48824900680968884200DD01257A481C
:102FC0007A4900680968884201DD0120009079484B
:102FD000794900680968884201DD01200190FFF706
:102FE00087F800F00304641C012C0FD0022C10D0D1
:102FF000032C10D0042CF2D1009905EA01000199AC
:103000000842ECD0B8F1000F09D012E0002DE6D153
:10301000F8E7009800E001980028E0D1F2E76E4858
:103020000068C11700EB9170B6EBA00F05DC4FF004
:10303000010815B16A4800210170002E0ADD5648CA
:1030400001684FF4FA60814204DC54490968814206
:103050007FF73FAF09F101094FF47A71C820FFF7FC
:1030600026FC3DB164480268644801686448006811
:1030700000F0CEFA022C04D0032C04D0042C04D08F
:103080000AE0604802E0604800E0604890ED000A15
:10309000B8EEC00A00F022FA4FF0000A5746D346B5
:1030A000D0465546CDF800A0CDF804A011E72DE993
:1030B000F05F584A5648584B1168FC2700EB811CBA
:1030C0001868B8463E465CF820403D460CEB800C44
:1030D0000F2901DADCF840700F2801DADCF80480EF
:1030E000002801DD5CF8406C002901DD5CF8045C1F
:1030F000DFF828A193460AEB811151F8200000F077
:103100006BFDDFF81C9140B9601E874205D14E214E
:1031100089F800100520BDE8F09F5746DA46DBF835
:103120000000DFF8F4B007EB8011DBF8000051F885
:10313000200000F054FD38B9611E884504D14521B6
:1031400089F800100620E6E7DAF80010B84607EB29
:103150008110DBF800105F4650F8210000F042FDBE
:1031600038B9601E864204D1532189F80010072027
:10317000D1E7DAF8001008EB8110396850F8210027
:1031800000F033FD38B9641EA5424BD1572189F8B0
:1031900000100820BFE745E0C8000020CC00002058
:1031A0009000002000080240D0000020980000207D
:1031B000000C0240D40000209C000020940000205D
:1031C00000000240360000208B0000208C00002010
:1031D00060000020F00000202C000020680100208A
:1031E000340000208800002035000020640000200A
:1031F000E8000020340100204C0000206C0000207A
:1032000068000020780000207C0000208000002062
:1032100090050020140000201000002090010020E4
:1032200024000020002076E72DE9F041A34F00267E
:10323000002407EB861500BF55F8240000F0D8FCE9
:1032400038BB55F824000F2E40F00F0045F824003D
:1032500005DA05EB8400016C41F004010164002EE5
:1032600006DD05EB840050F8401D41F001010160CE
:103270000F2C05DA05EB8400416841F0080141603C
:10328000002C06DD05EB840050F8041D41F002011E
:103290000160641C102CCFDB761C102EC8DBBDE84F
:1032A000F0812DE9F04FE5B000F069FB8449012081
:1032B000DFF810A208704FF4C8718AF80000684661
:1032C00001F039FE80490024804D814E0C604FF0A2
:1032D0004E0B2C60A14686F800B0FFF7A5FF00F06A
:1032E000A7FE00F034FD0027B04689E098F8000002
:1032F0004E280AD0452826D0532841D057285DD0E3
:1033000075E0641C401C286000E06F4E6B48296823
:1033100000EB8110316850F8210000F05DFC0028BE
:1033200065D16C492868326801EB801101EB82039A
:1033300051F822101B6C491E8B42E2D057E0641CEE
:10334000401C306000E0604E5C48296800EB811052
:10335000316850F8210000F042FC50BB5D482968FC
:1033600000EB8111306801EB800251F820105268A7
:10337000491E8A42E3D03AE0641C401E286000E007
:10338000514E4E48296800EB8110316850F82100F9
:1033900000F028FC68B94F492868326801EB8011B9
:1033A00001EB820351F8221053F8403C491E8B4236
:1033B000E2D01CE0641C401E306000E0424E3F48FA
:1033C000296800EB8110316850F8210000F00DFCF5
:1033D00068B94048296800EB8111306801EB800230
:1033E00051F8201052F8042C491E8A42E2D03A4883
:1033F00040F82740FFF75BFE4DF8270000247F1CB4
:1034000000F0FCFB00283FF471AF88F800B0002406
:103410006E46314D19E000BF00F00AFB56F824005B
:10342000052806D0062807D0072808D0082809D084
:103430000AE000F055FB07E000F06CFB04E000F050
:1034400083FB01E000F098FB641C55F82400002881
:10345000E2D18AF80090FFF78FF90020FFF7A2F978
:1034600065B0BDE8F08F70B518491448184C09686C
:1034700000EB81101449096850F8215020784E283B
:1034800003D1284600F0A8FBA0B92078452803D135
:10349000284600F0A4FB68B92078532803D12846B9
:1034A00000F0A0FB30B92078572805D1284600F05D
:1034B0009CFB08B1012070BD002070BD9001002070
:1034C00034000020350000201000002014000020EF
:1034D0002400002090050020900900202DE9F05FD5
:1034E0003E4800252DED088B4FF0010AB0EE40BAA2
:1034F0000570DFF8ECB03B488BF800A00560FEF7E4
:10350000F7FD394C064600BFFEF7F2FD2168801B2F
:103510008842F9D3354836498046076889469FED89
:10352000359B9FED36AB0E680CE000BFB5EEC0BA20
:103530003448F1EE10FA01D2016801E0006841421E
:1035400031480160D8F80000C01B00EE100AB8EE48
:10355000C00A00F065FAD9F80000B0EE408A801B7E
:1035600000EE100AB8EEC00A00F05AFA78EE00BA7F
:10357000B0EE4B0A00F054FA10EE100A03F036FADF
:1035800041EC180B2148006803F030FA53EC192B7A
:1035900003F02EF953EC182B03F02AF953EC1A2BF5
:1035A00002F088FF02F054FF00EE100A00F032FA39
:1035B000F4EEC0BAF1EE10FAB8D313480560FEF786
:1035C00097FD0546FEF794FD2168401B8842F9D31C
:1035D0008BF800A0BDEC088BBDE8F09F3400002004
:1035E00035000020F000002050000020480100209D
:1035F0004C0100201F85EB51B81E0940000000005F
:10360000008066405C000020F400002028000020BC
:103610002DE9F74FDFF87C901F490120D9F80060B1
:103620000968C9F800101D49174608701C49002098
:103630000870FEF75DFD0546DFF868A0DFF868B0AA
:103640004FF47A7815E000BFFEF73FFD044600987E
:10365000DAF80010401AFFF78FF80198DBF8001035
:10366000401AFFF79FF800BFFEF72FFD001B4045F3
:10367000FAD3FEF73DFD401BB842E5D30B48006886
:10368000FFF798F90A480068FFF790F9C9F8006059
:10369000BDE8FE8F440000204800002034000020D8
:1036A00035000020C8000020CC0000204801002088
:1036B0004C01002030B5FB48FE49FC4B0268FA483B
:1036C00009680468FA48A242006803DD884201DD07
:1036D000851A9D60A24201DDA01A04E0884201DD46
:1036E000401A00E00020986030BD70B5EF4CEF4DFF
:1036F000803CD4E91C010A18091AC4E90421EE48E7
:103700002B69006890FBF3F0EC4B1B782BB9EC4B6A
:103710001B780BB1084600E0084400EE102AD4EDF7
:10372000000AB8EEC00A30EEC00AD4ED080A30EE46
:10373000200A84ED080A00EE100AD4ED010AE148DF
:10374000B8EEC00A30EEC00AD4ED090A30EE200A05
:1037500084ED090A007878B1FFF7ACFFD5E90201E2
:1037600090FBF1F000EE100AD4ED090AB8EEC00AA1
:1037700030EE800A84ED090AD4ED080A94ED0E0AB1
:1037800094ED0A1AD4ED0F1A20EE200A30EEC11A79
:1037900004F1280301EE810ABDEEC00A10EE101AF2
:1037A000216394ED091A94ED100AD4ED0B1A94EDEF
:1037B000112A20EE010A71EE611A02EE210ABDEE15
:1037C000C00A10EE102A6263881AC3EC020A114480
:1037D000C4E91601FEF7D0FFE06DBDE87040FEF7CA
:1037E000E1BFB248B0EE001A803890ED020AD0ED89
:1037F000000AB8EEC02ADFEDB41AF4EEC20AF1EE08
:1038000010FA11D290ED122A22EE011A81EE212A2D
:10381000B8EEC01A72EE200AC0ED000AF4EEC10A3A
:10382000F1EE10FA18DC1BE0B8EEC02AF4EEC20A82
:10383000F1EE10FA14DD90ED132A22EE011A81EE5A
:10384000212AB8EEC01A70EEC20AC0ED000AF4EEEA
:10385000C10AF1EE10FA03D2B8EEC00A80ED000AF8
:1038600090ED030AD0ED010AB8EEC01AF4EEC10AD9
:10387000F1EE10FA11D290ED141A70EE810AB8EE42
:10388000C01AC0ED010AF4EEC10AF1EE10FA03DD30
:10389000B8EEC00A80ED010A7047B8EEC01AF4EE27
:1038A000C10AF1EE10FAF7DD90ED151A70EEC10ABB
:1038B000B8EEC01AC0ED010AF4EEC10AF1EE10FA3A
:1038C000E6D3704770B5FFF763F8784C803C20660C
:1038D000FFF75AF8226EA16E511A2167E36EC4E910
:1038E0001A20C31ACD1805EBD5756D10C4E91D3526
:1038F00011441844C4E9181008446C4900EBD07016
:1039000040100860E06F401BE06770BD10B5FFF726
:10391000D9FFFFF766FFBDE81040E6E600EE100AAB
:103920006A48F8EEC00A90ED001A80EE810A7047EE
:1039300000B5002901DA494209B2002A01DA5242EF
:1039400012B2002801DC4FF00100FFF7E7FF11FB86
:1039500001F002FB12006421484300EE900AB8EE29
:10396000E01AC1EE000AB5EE000A20EE800ABDEEB4
:10397000C00A10EE100A002800DA404200BD10B55F
:10398000504800240470524804702046FEF7F4FEAC
:103990000020FEF707FF9FED4F0A44484349803857
:1039A00080ED060A80ED070A80ED000A80ED010A2D
:1039B0008460C46080ED080A80ED090A80ED0A0A7F
:1039C00080ED0B0A8466C466046644660C604C6035
:1039D0008465C465C467FEF7E4FFBDE81040FEF7E8
:1039E000DBBFB5EEC00AF1EE10FA01D8B7EE000A5F
:1039F00060EEA00A41EE410A80EE801AB4EE000AA1
:103A000021EE000AB5EEC00AF1EE10FA01D2B1EED5
:103A1000400A70472D48D0ED000A20EE200A70477A
:103A2000B5EEC00AF1EE10FA01D2B1EE400A7047CD
:103A30002DE9F0410546FFF7A2FF224F244901205E
:103A40003870087019490022234B8039174EDFED7A
:103A5000211ADFF888801AE0201A0CEBDC74B0EB36
:103A6000640F00DA3A70FFF759FFB0EE611AD1ED3A
:103A7000000AFFF7B6FFD1ED130AB4EEE00AF1EE4B
:103A800010FA03D2D8F80000886000E08A60D3F80A
:103A900000C0306805FB0CF48442DDDC8A60BDE8C0
:103AA000F0810000D00000203800002068010020D4
:103AB000D40000203C000020E0000020890000200D
:103AC0008A000020340000200000C842300000209E
:103AD00035000020000000002C00002054000020D1
:103AE00010B5394C20784E2811D0572804D04528DD
:103AF00004D0532804D00AE0344802E0344800E0FF
:103B0000344890ED000AB8EEC00AFFF7E7FC4E20FB
:103B1000207010BD10B52C4C20784E2806D05728A8
:103B200006D045280DD0532804D00AE0274802E0EB
:103B3000284800E0264890ED000AB8EEC00AFFF7DA
:103B4000CDFC4520207010BD10B51F4C20784E28AC
:103B500004D0572804D0452804D00AE01D4802E0CC
:103B60001B4800E0194890ED000AB8EEC00AFFF7C4
:103B7000B5FC5320207010BD10B5134C20784E2892
:103B800006D057280FD0452804D0532804D00AE087
:103B90000F4802E00F4800E00C4890ED000AB8EE34
:103BA000C00AFFF79BFC5720207010BD4E2806D09E
:103BB000452805D0532804D0572803D1DCE78FE7E8
:103BC000A8E7C1E770470000240000207C00002027
:103BD000780000208000002000F001007047C0F352
:103BE00040007047C0F380007047C0F3C0007047CA
:103BF000C0F300107047C0F340107047444801689C
:103C0000072901D0082906D1424802684248072AFC
:103C100003D0082A03D000207047072913D000F5ED
:103C2000CE70082A036C43F00C030364036843F06E
:103C300001030360C36B43F00203C363A0F5CE70BE
:103C400001D1072913D000F50670082A436843F014
:103C500009034360436C43F004034364036843F087
:103C600002030360A0F5067001D1082913D000F506
:103C70000870072A036843F003030360036C43F0F2
:103C800004030364436843F008034360A0F508702D
:103C900001D108290DD000F5D070016C41F004016C
:103CA0000164016841F001010160416C41F00801CB
:103CB000416401207047184A10B502EB811252F896
:103CC00020206FEA0204154AE30702EB811101EBA1
:103CD000800104D0086CA20703D4FC2302E0FC207E
:103CE000F9E74B68620701D4FC2201E051F8402C4F
:103CF000240701D4FC2101E051F8041C834200DABE
:103D00001846824200DA1046814200DA084610BDA9
:103D100010000020140000209001002090050020D9
:103D20002DE9F041464F0F25002407EB851600BF13
:103D300056F8241043A000F0A1FE641C102CF7DB01
:103D400041A000F09BFE6D1EEED5BDE8F0812DE98F
:103D5000F047DFF8F8A0DFF8E880DFF8F4900F25EF
:103D6000002408EB851600BF56F82400FFF734FF47
:103D700008B138A000E039A000F080FE641C102CCF
:103D8000F2DB38A000F07AFE2FA000F077FE364F6D
:103D9000002400BF56F82400FFF727FF08B133A026
:103DA00000E033A000F06AFE3868854216D1314841
:103DB0000068844212D19AF800004E2806D04528A7
:103DC00006D0532806D0572806D01FE02AA00BE0C3
:103DD0002AA009E02AA007E02AA005E056F824005E
:103DE000FFF709FF18B128A000F048FE0EE056F8D2
:103DF0002400FFF7FDFE002809EB851050F8241081
:103E000001D022A000E00FA000F038FE641C102CAE
:103E1000C0DB16A000F032FE0BA000F02FFE6D1EDE
:103E20009ED500240BA000F029FE641C102CF9DBA9
:103E30000CA000F023FEBDE8F04703A000F01EBE7A
:103E400090010020253364000A0D000024000020AA
:103E5000900500202B2D2D2D000000002B20202070
:103E6000000000002B000000140000207C00000077
:103E70002000000010000020205E2000203E2000D6
:103E800020762000203C2000207820002E25303293
:103E90006400000030B52B48016841F00E0101605C
:103EA000416841F00C0141605FF0000100EB8102CC
:103EB000491CD2F8C033102943F00103C2F8C033C3
:103EC000F4DB002100EB8112491CD36B102943F075
:103ED0000203D363F6DB002150F8212042F00402F4
:103EE00040F82120491C1029F6DB002100EB81124B
:103EF000491C1368102943F008031360F6DB0E22F7
:103F0000114C0021002004EB811300BF43F8202056
:103F1000072801DA521E04E0A0F10805072D00D29F
:103F2000521C401C1028F1DB072901DA521E04E064
:103F3000A1F10800072800D2521C491C1029E1DB1E
:103F400030BD000090010020900500202DE9F047D1
:103F5000DFF894944FF480780026002456EA040099
:103F60003FD009EB861555F82400FFF735FE0746CC
:103F700055F82400FFF733FE074455F82400FFF7F7
:103F800031FE074455F82400FFF72FFE384403287C
:103F900027DB55F824000F2E40F02F0045F82400B1
:103FA00005DA05EB8400016C41F0040101640F2C7B
:103FB00005DA05EB8400416841F008014160002EFC
:103FC00006DD05EB840050F8401D41F00101016061
:103FD000002C06DD05EB840050F8041D41F00201C1
:103FE0000160641C102CB9DB761C102EB5DBB8F117
:103FF0000108B1D5BDE8F087FC480178FC484E299E
:10400000006806D0452907D0532908D0572909D080
:104010000AE005280AD007E0062807D004E00728B0
:1040200004D001E0082801D001207047002070472B
:104030002DE9F0414FF480760025EE4F02E0002597
:104040002C4608E00024072D01D0082D03D1072CB1
:1040500016D0082C12D029462046FFF72CFE07EB7D
:104060008511401C41F82400641C102CEBDB6D1CF6
:10407000102DE7DB761EE2D5BDE8F0810924E2E7EA
:104080000824E0E7F0B5D948DB4ADD490778DB488A
:104090001678DC4A0578DC480C78D3491368006848
:1040A00001EB831202EB80014E2F32D0452F5BD003
:1040B000532F7DD0572F2BD16EB152F8206000289E
:1040C00046F0080642F8206005DD51F8046C46F021
:1040D000020641F8046C6DB152F82050002B45F0F7
:1040E000040542F8205005DD51F8405C45F001051B
:1040F00041F8405C002C0BD052F820400F2B44F0CC
:10410000010442F8204003DA086C40F0040008641F
:10411000F0BD5EB152F820600F2B46F0010642F868
:10412000206003DA0B6C43F004030B646DB152F8AA
:104130002030002843F0080342F8203005DD51F814
:10414000043C43F0020341F8043C002CE0D052F858
:1041500020300F2843F0020342F82030D8DA4868B4
:1041600040F008004860F0BD5EB152F820600F28B2
:1041700046F0020642F8206003DA4E6846F0080670
:104180004E605DB152F820500F2B45F0010542F80A
:10419000205003DA0D6C45F004050D64002CE2D0CC
:1041A00052F82040002B44F0040442F8204000E084
:1041B00005E0D8DD51F8400D40F0010029E06EB176
:1041C00052F82060002B46F0040642F8206005DD1E
:1041D00051F8403C43F0010341F8403C5DB152F8D6
:1041E00020300F2843F0020342F8203003DA4B68F6
:1041F00043F008034B60002CB5D052F82030002863
:1042000043F0080342F82030ADDD51F8040D40F0D2
:1042100002000860F0BD2DE9FE4FFFF7B0FB00245F
:10422000DFF8E4A1DFF8DCB17048CAF800404E21A5
:10423000CBF8004001706C4801252746A046264671
:10424000A1460068FFF7D4FC80B96748DBF800108E
:1042500000EB8110DAF8001050F8212042F0100233
:1042600040F8212069480168491C01606848694993
:104270000068086066E2684868490068096805FBEC
:1042800000F2541A27BB844236DC6549012759489D
:104290000F7064490F70DBF8002000EB8212DAF82F
:1042A000000052F82000FC2808DB514A0020106072
:1042B0000870FEF761FA0020FEF774FA4B480078A8
:1042C0004E2806D0452808D053280AD057280ED0AB
:1042D00012E0DBF80010491C06E0DAF80010491C77
:1042E00008E0DBF80010491ECBF8001004E0DAF813
:1042F0000010491ECAF80010B8F1000F1DD1464841
:10430000006800EB4000C11700EB9170B4EBA00F08
:1043100013DC45484FF001080168444800688142B9
:1043200002DD3648012101704148424900680968B0
:10433000884202DD324901200870002E53D13648F0
:10434000006800EBD070B4EB600F4CDC3A480126FB
:1043500001683A480068814205DC394839490068FB
:104360000968884202DD244901200870FFF78AFEAF
:10437000DBF80010DAF80000FFF79DFC1D49DBF8C0
:104380000020401C01EB8212DAF8001042F82100F4
:10439000FFF74EFE1448DBF8001000EB8111DAF84D
:1043A000000051F82000FFF717FC10B14FF4FA702D
:1043B00009E01049DBF8000001EB8011DAF8000099
:1043C00001EB8000006C02900748DBF8001000EB66
:1043D0008111DAF8000051F82000FFF700FC98B3D3
:1043E0004FF4FA703BE021E190010020240000200E
:1043F00020000020900500201C0000201D0000204F
:104400001E000020140000201000002018000020D2
:1044100060000020F00000202C0000206801002037
:104420003400002035000020D0000020980000203B
:10443000D40000209C000020C80000209000002034
:10444000CC00002094000020FFE7EE48DBF80010CD
:1044500000EB8111DAF8000001EB80004068019068
:10446000E948DBF8001000EB8111DAF8000051F8A0
:104470002000FFF7B7FB10B14FF4FA700AE0E149F2
:10448000DBF8000001EB8011DAF8000001EB80009E
:1044900050F8400C0090DC49DBF8000001EB801183
:1044A000DAF8000051F82000FFF79FFB10B14FF43D
:1044B000FA700AE0D349DBF8000001EB8011DAF86A
:1044C000000001EB800050F8040CDDE9012191426D
:1044D00006DA009A914203DA814201DA052020E0EF
:1044E000DDE90112914207DA0A4600998A4203DAAD
:1044F000824201DA062014E0DDE90012914206DA78
:10450000029A914203DA814201DA072009E0019917
:10451000884209DA0099884206DA0299884203DA69
:104520000820BA49086081E0B94800784E280CD1CB
:10453000B548DBF8001000EB8111DAF8000051F803
:104540002000FFF749FB0028C8D0B1480078452873
:104550000CD1AD48DBF8001000EB8111DAF8000057
:1045600051F82000FFF73BFB0028C3D0A848007893
:1045700053280CD1A448DBF8001000EB8111DAF8C5
:10458000000051F82000FFF72DFB0028BDD0A04807
:10459000007857280CD19C48DBF8001000EB811103
:1045A000DAF8000051F82000FFF71FFB0028B7D011
:1045B0009548DBF8001000EB8111DAF8000051F8A3
:1045C0002000FFF709FB002888D08F48DBF8001097
:1045D00000EB8111DAF8000051F82000FFF7FFFA34
:1045E000002887D08848DBF8001000EB8111DAF84A
:1045F000000051F82000FFF7F5FA002885D0824826
:10460000DBF8001000EB8111DAF8000051F820000F
:10461000FFF7EBFA002883D07C49002008607D4931
:104620000870FEF7A9F80020FEF7BCF87A48006889
:1046300000EBD070B4EB600F00DC01267748007807
:1046400010B9FFF7D9FCE0B12046FFF767F97448CD
:10465000D0ED000A7348B8EEE01AD0ED000AFFF77B
:10466000C0F97148D0ED000AB4EEE00AF1EE10FA9C
:1046700007D36B486D49B9F1000F0068086002D09C
:104680000BE06B48F6E764480068C11700EB9170D7
:10469000B4EBA00F07DC4FF001096048007810B1BF
:1046A000644900200870002C4CDC6D1C4FF47A71BA
:1046B000C820FEF7FCF8544EDBF80000DAF80010D2
:1046C00006EB8010574650F82100FFF791FA70B9B9
:1046D000DBF80000396806EB801050F8212042F02A
:1046E000100240F8212054480168491C01604B48E1
:1046F000007838B151480268514801685148006853
:10470000FEF786FF41480068052806D0062807D036
:10471000072808D0082809D00AE0FFF7E1F907E0E8
:10472000FFF7F8F904E0FFF70FFA01E0FFF724FACA
:104730003A490027B8460F7043493E46B9460F70C4
:1047400042490F70FFF75AFA00283FF494ADDFF8A2
:10475000D490DFF8D880324F0026002C27DD2E4879
:10476000006800EBD071B4EB610F01DA31490E70D3
:1047700005FB00F1364800680C1A2046FFF7CEF81A
:10478000D7ED000AB8EEE01AD9ED000AFFF729F9D3
:104790002548D0ED000AB4EEE00AF1EE10FA02D29C
:1047A0002348016800E03968C8F80010D5E7164CC6
:1047B000DBF80000DAF8001004EB80105D46574685
:1047C00050F82100FFF714FA68B92868396804EB3B
:1047D000801050F8212042F0100240F821201648A5
:1047E0000168491C01600B4806700020FDF7C4FFFA
:1047F0000020FDF7D7FFFFF7A9FBBDE8FE4FFFF74D
:10480000A6BA0000900500209001002020000020A2
:1048100024000020350000202C0000201C00002077
:1048200064000020E800002034010020F000002097
:104830006000002034000020180000204C00002000
:104840006C000020680000201D0000201E000020D9
:10485000680100200948804709480047FEE7FEE755
:10486000FEE7FEE7FEE7FEE7FEE7FEE7FEE7FEE720
:1048700004480549054A064B70470000994900085D
:1048800089010008800B002080110020800D00208D
:10489000800D0020F0B56D4900200A6842F4803296
:1048A0000A604FF4A0630A6800F1010012F4003FAF
:1048B00001D19842F7D10868684D5FEA803C644AAC
:1048C000644B654C664F40F2056605F104002AD53D
:1048D000D2F800C04CF0805CC2F800C01A6842F404
:1048E00080421A6002680260026842F4004202607C
:1048F000026842F4A05202602C600A6842F08072A2
:104900000A600A689201FCD53E60016821F003014B
:104910000160016841F0020101600168C1F3810199
:104920000229FAD1F0BDD1F800C0DFF838E10CEA75
:104930000E0CC1F800C0D1F800C04CF0010CC1F859
:1049400000C0D2F800C04CF0805CC2F800C01A6809
:1049500042F480421A6002680260026842F4004237
:104960000260026842F4A05202602C600A6842F0C1
:1049700080720A600A689201FCD53E60016821F0ED
:1049800003010160016841F0020101600168C1F3A7
:1049900081010229FAD1F0BD334810B5016841F414
:1049A000700101602948016841F0010101602B4A52
:1049B0000021121D116002682A4B1A400260031D7B
:1049C0002A4A1A60026822F48022026023480830D2
:1049D0000160FFF75FFF24494FF0006080390860F5
:1049E00010BD70B51D4C241D2068214A10F00C012B
:1049F000204804D05510042903D0082903D00260B0
:104A00001AE0056018E015490B68C3F380560B687F
:104A100003F03F0316B1B5FBF3F201E0B2FBF3F292
:104A20000B680968C3F388135A43C1F30141491C59
:104A30004900B2FBF1F1016021680E4AC1F3031194
:104A4000121D515C0268CA40026070BD003802400D
:104A50004038024000700040105400070438024003
:104A6000003C0240FFFFF6FE88ED00E0103000241D
:104A70000024F4007C010020704700000FB40449BA
:104A800010B503AA029800F043FD10BC5DF814FBBA
:104A9000A800002070B5044685690068C10601D5EC
:104AA000302600E02026C00708D070BDD4E90121DF
:104AB00030469047206A00F1010020626D1EF5D556
:104AC00070BD70B5044685690078C00708D170BD17
:104AD000D4E9012120209047206A00F101002062E2
:104AE0006D1EF5D570BD70B50C460546012A05D082
:104AF0002878800600D5EA69002302E0012305E05A
:104B00005B1C934202D2E05C0028F9D1A869E61848
:104B1000C01AA861286A184428622846FFF7BAFF1D
:104B200004E0D5E9012114F8010B9047B442F8D311
:104B30002846FFF7C6FF70BD2DE9F0410646002468
:104B400010687529314616A511D0AFF300800028F2
:104B500003DAC0F1000013A507E031688A0701D528
:104B600011A502E0490704D510A5012401E0AFF327
:104B7000008000210A2306F1240707E0B0FBF3F2CE
:104B800003FB1200303078541046491C0028F5D140
:104B900023462A463046BDE8F04100F037BA00000F
:104BA000000000002D0000002B000000200000008D
:104BB0002DE9F05F894604464FF0000ADFF828B17E
:104BC000FB44C0F820A02046E168884700287CD03C
:104BD000252806D0D4E901219047206A401C206294
:104BE000F1E700255F462046E16888472028064611
:104BF00008DB312E06D207EB060010F8200C08B1B6
:104C00000543F0E7A80701D525F00405C4F81CA06A
:104C10000027C4F818A02A2E09D0304601F0E5FB81
:104C200038B304EB8708303EC8F8186019E059F82B
:104C3000041B204604EB87029161E1688847012F3D
:104C4000064618D1E069002820DA25F020051DE08D
:104C5000D8F8180000EB800006EB40003038C8F8A8
:104C600018002046E1688847064601F0BEFB002890
:104C7000EED1012F0AD02E2E08D12046E1688847B8
:104C80007F1C0646022F45F02005C4DBA0690028E2
:104C900003DA404245F00105A061E80701D025F0A4
:104CA000100596B1A6F14100192802D8203645F426
:104CB00000654A463146204625604D46FBF7BEFA60
:104CC00060B1012807D0ED1D00E009E025F00700E4
:104CD00000F1080977E705F1040974E7304679E740
:104CE000206ABDE8F09F0000B41F00000FB400B5BB
:104CF00089B00BA86A46009003480A9900F028FC86
:104D000009B05DF814FB0000AC0000202DE9FF5F46
:104D10001D464FF0FF3B91464FF000085F46D5E936
:104D20000146A96901987F1C8847296A82468847FD
:104D30000028F6D11AF101000CD0002E24F4C06432
:104D400019DD600614D5BAF12B0F09D0BAF12D0F79
:104D50000ED103E0584604B0BDE8F09F44F48064EF
:104D6000A96901987F1C8847761E8246002E02DDC5
:104D7000BAF1300F03D0B9F1000F26D032E0A969A3
:104D8000761E01987F1C44F400748847002E8246EA
:104D900005DDBAF1780F06D0BAF1580F03D0B9F19A
:104DA000000F10D01EE0B9F1000F02D0B9F1100FC2
:104DB00018D1A969761E01987F1C24F400748847D5
:104DC0008246102002E0082000E00A20814609E027
:104DD000A96908FB0908761E01987F1C44F4007439
:104DE00088478246002E05DD4946504600F0A2FB6A
:104DF0000028EDDAE96901988847A00502D46FF030
:104E00000100A8E7E00727D1600614D5600502D5A8
:104E1000C8F1000000E04046296801F104022A6060
:104E20000968220501D5087016E0220701D508801F
:104E300012E0086010E0286800F1040129600068B1
:104E4000210502D580F8008006E0210702D5A0F8F0
:104E5000008001E0C0F8008038467CE72DE9FF5F64
:104E60004FF000089946144646469169D2E901A7D9
:104E7000DDF838B001988847054659EA0B0005D09F
:104E800009E0A1690198761C88470546216A2846F1
:104E900088470028F5D1681C03D05FEACA7005D0A6
:104EA00015E04FF0FF3004B0BDE8F09F2068011D11
:104EB0002160D0F800800AE05FEACA7001D108F8EA
:104EC000015BA1697F1E0198761C88470546002F6B
:104ED0001ADD681C18D0B9F1000F0DD0E81705EBEA
:104EE000D060421120F01F0059F822102A1A012028
:104EF00090400142E0D107E0BBF1000FDCD1284631
:104F0000216A88470028D7D0E169019888470AF0CC
:104F1000010050EA0B0002D1002188F80010A068BF
:104F2000B84203DDBBF1000F03D017B16FF00100F1
:104F3000B9E73046B7E74FF0000200B51346944694
:104F40009646203922BFA0E80C50A0E80C50B1F1E1
:104F50002001BFF4F7AF090728BFA0E80C5048BFF5
:104F60000CC05DF804EB890028BF40F8042B08BF93
:104F7000704748BF20F8022B11F0804F18BF00F88F
:104F8000012B70474FF0013C50F8042B51F8043BC3
:104F90009A4221D1A2EB0C03934313EACC1317D10D
:104FA00050F8042B51F8043B9A4215D1A2EB0C03A4
:104FB000934313EACC130BD150F8042B51F8043B64
:104FC0009A4209D1A2EB0C03934313EACC13DBD032
:104FD0004FF00000704700BFD01A01BAB1FA81F15A
:104FE00001F0180122FA01F0CB40C1F12001DBB23F
:104FF000C0B2C01A2CFA01F3D11A914311EAC311BD
:10500000E6D1704770477047704770472DE9F04709
:105010000D4699469246044600F124080168880628
:1050200004D5E06921F01001216000E00120A842D0
:1050300002DDA0EB050700E00027A16907EB0502F0
:1050400002EB0900A1EB0000A0612078C00602D4A9
:105050002046FFF71FFD002608E0D4E901211AF8D9
:1050600006009047206A401C761C20624E45F4DB07
:105070002078C0060AD52046FFF70CFD06E0D4E9EB
:10508000012130209047206A401C2062381EA7F181
:105090000107F4DC07E0D4E9012118F80500904786
:1050A000206A401C2062281EA5F10105F3DC204681
:1050B000FFF707FD2078000602D50220BDE8F08743
:1050C0000120FBE770472DE9FF4F0C461E464FF0CD
:1050D000FF378BB0D2E90001DDF860800A908A4684
:1050E000C1F30A5505B93D46002108464FF00000BE
:1050F000BAF1000F00F4400005DA00EB80004FF435
:10510000400101EA50004FEA9059B9F1010F00DD6A
:10511000B9460A9850EA4A000ED044F61050A5F25B
:10512000FF3545432F14B8F1000F1ED07542291EDC
:105130001EDDC9F100021CE0B8F1010F4FF00000C4
:1051400001D0302103E0F24305E02154401CB0427D
:10515000FBDB30460022002121540B99C1F8088066
:10516000C1E900200FB0BDE8F08FBD1B6D1CDEE76C
:105170004A4600DA694206A800F0AEFA06AB07CB51
:1051800003AB07C350460A9900F05CFD8DE80700A9
:10519000A0F500501F3800900398002D09DD42F261
:1051A0001F014A46084403A90390684600F0BBFF6C
:1051B00008E0A0F500504A461F3803A9039068464E
:1051C00000F0C5FF8DE807000004000C03D04FF08D
:1051D000FF30410800E01046B8F1000F03D0002274
:1051E000009215461FE0751E06D400F0C1F902F1C9
:1051F000300262556D1EF8D5B3460122084302D035
:1052000000227F1C04E02078302801D100227F1E7C
:10521000002A099787D01DE0112D07DA00F0A8F9C0
:10522000303262556D1C50EA0102F5D108430FD1AE
:105230000021681E05E0235C625C6354491C225413
:10524000401E8142F7DBAB46A81B401E099001E0DF
:10525000009848B1002004F80B000B98099AC0F898
:105260000880C0E9002B7DE711264FF000085AE7BF
:105270002DE9F04F88460446D21D22F0070191B077
:10528000D1E90001CDE90A0101F097F802460B9837
:10529000C00F01D02D2007E02068810701D52B2009
:1052A00002E0202101EAC000032A099001D0072A68
:1052B00005DB03464146204600F0B8F90FE12078AF
:1052C000800601D5E06900E00620B8F1650F81464F
:1052D00006D0B8F1660F18D0B8F1670F72D132E07E
:1052E0000020B9F1110F009001DB112301E009F159
:1052F00001030AAA01A90CA8FFF7E5FEDDE90C707D
:10530000002609F10105834648E001204B46009044
:105310004FF000470AAA01A90CA8FFF7D4FEDDE967
:105320000DB00C995D46002618B909F1010001EB9A
:105330000005B9EB050003D4C0F1FF3609F1010502
:10534000A5EB09002BE0B9F1010F01DA4FF00109DB
:105350000020B9F1110F0090484601DD112300E053
:1053600003460AAA01A90CA8FFF7ADFEDDE90C70FF
:105370004D4600268346207800070AD4AB4500DA64
:105380005D4601A8012D04DD411911F8011C3029E9
:1053900007D04F4502DA17F1040F04DA01208246E4
:1053A00010E06D1EEEE7002F02DCED1B3E4403E033
:1053B000781CA84200DD0546A7EB060000F1010AB3
:1053C0004FF000472078000703D4AA4501DB4FF0D7
:1053D000FF3A0021B7F1004F0DF143088DF843105B
:1053E00023D002202B23002F01DA7F422D234FF000
:1053F0000A0C011EA0F1010000DC4FB197FBFCF18B
:105400000CFB11720F4602F1300208F8012DF0E793
:10541000A8F1010003702188090501D5452100E0AC
:105420006521A0F1010800F8011C09980FA9A1EB62
:10543000080707F1070700B1012000EB050101EBA8
:10544000EA70A1693844A1EB0000A0F10100A0615D
:105450002078C00602D42046FFF71CFB099830B123
:10546000D4E901219047206A00F1010020622078F0
:10547000C00620D52046FFF70DFB1CE0002E04DB04
:10548000B34502DD01A8805D00E03020D4E90121B0
:105490009047206A761C401CBAF1010A20620AD1AA
:1054A00000F062F8C0680168405CD4E901219047CF
:1054B000206A401C2062281EA5F10105DEDC07E001
:1054C000D4E9012118F8010B9047206A401C2062A2
:1054D000381EA7F10107F3DC2046FFF7F2FA02209D
:1054E00011B040E610B5436913B1AFF3008001E09D
:1054F000FFF7F9FA012010BD127800F124010A70BB
:1055000000224A700122EDE711684FF0FF32E9E70F
:10551000074B70B50D467B4400F075F804462846ED
:1055200000F070F910B14FF0FF3070BD204670BD33
:1055300013CFFFFF3A2800D2303820F02002412A52
:1055400001D3A2F13700884201D34FF0FF307047FA
:10555000034B7B449361034B7B44D36100F0ACB8B5
:10556000F5CEFFFF6302000000487047400B0020AB
:1055700030B5B0F10A024FEA900E71F100034EEA25
:10558000817EB0EB0E0061EB91014FEA101E4EEAF6
:10559000017E10EB0E0041EB11114FEA102E4EEA86
:1055A000016E10EB0E0041EB11214FEA104E4EEA56
:1055B000014E10EB0E0041EB1141401841F100018A
:1055C0004FEAD00040EA41704FEAD10110EB80056C
:1055D0004FEA810444EA907444EB01046D1944EBF2
:1055E0000404521BA3414FF0000348BF0A3200D508
:1055F00030BD401C41F1000130BD000001694A1C72
:1056000002610878704700B58FB0CDE90131002103
:10561000059105497944CDE9031011466846FFF725
:10562000C7FA0FB000BD0000E5FFFFFF2DE9F04114
:105630001F46044603260168072A01F4006004DBC4
:1056400008B116A505E016A503E008B115A500E010
:1056500015A521F010002060A069C01EA0610FB147
:10566000401EA0612046FFF715FA4FB1D4E9012191
:1056700038469047206A401C2062C01C206206E029
:10568000206AFAE7D4E9012115F8010B9047761E4C
:10569000F8D22046FFF715FABDE8F0814E414E00E2
:1056A0006E616E00494E4600696E660002681144E4
:1056B0001378016018467047D160054979445161FB
:1056C00004497944116200211161114600F0D0B8FB
:1056D000EDFFFFFF990100002DE9F04781461646D6
:1056E0008AB035487844D0E9002380680092CDE93B
:1056F0000130314878440C38D0E902230069039224
:105700004FF03702CDE9043041F69B30014491FB64
:10571000F2F0A0F1800502FB10141B3C02D564429C
:10572000012000E00020DFF890A080460027FA4426
:10573000AAF1C60A0DE0E00709D03246684607EB39
:1057400047010AEB810100F002FD8DE807006410BB
:105750007F1C002CEFD1184F7F44B43F17E0E807BF
:1057600013D007EB04100DF1180A90E80E00AAE818
:105770000E00C068F04201D198190890324606A97F
:1057800003A800F0E4FC03AB07C36D10641C002DFC
:10579000E5D132466946B8F1000F03A802D000F007
:1057A000C2FC01E000F0D3FCC9E90001C9F80820FF
:1057B0000AB0BDE8F087000020150000704710B562
:1057C0004FF0FF34C1688A020FD5036B42689A42DA
:1057D0000BD1014690F82520104600F001FA401C3C
:1057E00001D1204610BD002010BD11F0C00FF8D12E
:1057F000026941689142F4D90268521C491EC0E90D
:105800000021F0E7007B00F08000704700487047FF
:10581000200B00207546FFF7F9FFAE4605006946EC
:10582000534620F00700854618B020B5FFF720F852
:10583000BDE820404FF000064FF000074FF0000891
:105840004FF0000B21F00701AC46ACE8C009ACE812
:10585000C009ACE8C009ACE8C0098D46704710B576
:10586000044600F0E7F90068005D00F0010010BD9B
:105870002DE9F34F4FF0000A0C4656468DB001203B
:105880000C9001F10C000B9062690B98012190477C
:1058900005002DD0252D2CD0216A8847C0B1626922
:1058A0000B9801219047216A88470028F7D1626947
:1058B000411E0B98904700E0761CA1690D9888471F
:1058C000216A88470028F7D1E1690D988847DBE70E
:1058D000A1690D988847A842074601D1761CD3E7F5
:1058E000E1690D9888477F1C02D1BAF1000F6FD093
:1058F0006AE162690B9800273D46394690472A289D
:1059000004D162690B98012190470125DFF8CC8210
:1059100062690B9801219047A0F130010A290AD24F
:105920004745E5DC07EB870100EB4107303FDFD45B
:1059300045F01005ECE7E90601D46FF000476C284C
:105940000AD04C2814D0682815D06A280DD07428A5
:105950001CD07A281AD01DE062690B98012190476B
:105960006C2802D045F0040514E045F002050DE076
:1059700045F020050AE062690B98012190476828EC
:1059800002D045F0080505E045F4006562690B9812
:1059900001219047C4E9015765283DD019DC5828FA
:1059A00079D00CDC452837D004DC252826D04128C6
:1059B0009ED131E046282FD0472899D12CE05B2892
:1059C0007FD0612828D063287BD0642890D159E00B
:1059D000F5E06F2847D008DC66281DD067281BD06B
:1059E000692821D06E2816D127E0702844D073286A
:1059F00067D0752846D078280DD14CE0A1690D9864
:105A00008847252805463FF469AFE1690D98884726
:105A10006D1C3FF46AAFD7E00D9923466A466FF0DC
:105A20000100AFF30080C4E045F0400023464FF092
:105A300000026060A80735D43DE0206800F1040151
:105A400021600068290501D506701DE7290701D5E9
:105A5000068019E7A90704D54FEAE671C0E900619D
:105A600012E7066010E745F0400023464FF00802B9
:105A70006060A80716D41EE040F60E0125EA01007A
:105A8000606016E045F0400023464FF00A02606077
:105A9000A80707D40FE045F040006060A80708D5CC
:105AA000234610220D996FF00100AFF3008080E0D3
:105AB00007E0102223460D996FF00100FFF726F949
:105AC00077E04FF0000963284F46C8464B46CB4667
:105AD00002D05B2806D038E0E80601D40120A0609F
