:020000040800F2
:10000000680C002065490008811D0008831D000858
:10001000851D0008871D0008891D000800000000DC
:100020000000000000000000000000008B1D000820
:100030008D1D0008000000008F1D0008911D0008A4
:100040007F4900087F4900087F4900087F49000870
:100050007F4900087F4900087F4900087F49000860
:100060007F4900087F4900087F4900087F49000850
:100070007F4900087F4900087F4900087F49000840
:100080007F4900087F4900087F4900087F49000830
:100090007F4900087F4900087F490008AF1D00081C
:1000A0007F4900087F4900087F4900087F49000810
:1000B0007F4900087F4900087F4900087F49000800
:1000C0007F4900087F4900087F4900087F490008F0
:1000D0007F4900087F4900087F4900087F490008E0
:1000E000F11D00087F4900087F4900087F4900088A
:1000F0007F4900087F4900087F4900087F490008C0
:100100007F4900087F4900087F4900087F490008AF
:100110007F4900087F4900087F4900087F4900089F
:100120007F4900087F4900087F4900087F4900088F
:100130007F4900087F4900087F4900087F4900087F
:100140007F4900087F4900087F4900087F4900086F
:100150007F4900087F4900087F4900087F4900085F
:100160007F4900087F4900087F4900087F4900084F
:100170007F4900087F4900087F4900087F4900083F
:100180007F4900087F49000800F002F800F078F885
:100190000AA090E8000C82448344AAF10107DA45E2
:1001A00001D100F06DF8AFF2090EBAE80F0013F0BC
:1001B000010F18BFFB1A43F001031847E46A00005F
:1001C000046B00000A444FF0000C10F8013B13F0E0
:1001D000070408BF10F8014B1D1108BF10F8015BA0
:1001E000641E05D010F8016B641E01F8016BF9D193
:1001F00013F0080F1EBF10F8014BAD1C0C1B09D1EA
:100200006D1E58BF01F801CBFAD505E014F8016B5B
:1002100001F8016B6D1EF9D59142D6D370470000ED
:100220000023002400250026103A28BF78C1FBD8FF
:10023000520728BF30C148BF0B607047662906F0DF
:100240009A84642904F0FE84632905F09F81732950
:1002500005F0A481002070471FB506F082FC05F070
:10026000CDF904000020002106F026F9401C606052
:100270000020002106F00AF9E0601FBD10B510BD96
:1002800005F012FB1146FFF7E7FF01F03AFC05F01D
:1002900015FD03B4FFF7F2FF03BC01F0A7FF000058
:1002A0002749084327490860704770B50F23C27873
:1002B000017801254FF0E026E2B1224A126802F4EB
:1002C000E062C2F5E062C2F30722C2F10404D34047
:1002D0004278A24084781C401B4B14432201CA542C
:1002E000007800F01F018D40400906EB8000C0F847
:1002F000005170BD01F01F008540480906EB8000E9
:10030000C0F8805170BD114A114001430D48001FD3
:10031000016070470B4A121D0029116801D001438A
:1003200000E08143116070474FF0E0210428086924
:1003300003D020F004000861704740F00400FAE7A1
:100340000000FA050CED00E000E400E080FFFF1F74
:1003500010B501210C02204600F07DFC2046BDE8CE
:100360001040002100F077BC30B54268C44B0C79D6
:100370001A400B6842EA0422134343608268C14B6F
:100380004D791A40D1E9034323438C6844EA45047C
:10039000234313438360C26A097D22F47002491E1D
:1003A000C9B242EA0151C16230BD00210160017150
:1003B00041718160C1600161012101757047B24BDB
:1003C00010B51A68B1490A40D0E900142143D0E9B8
:1003D0000240044321431143196010BD0021016014
:1003E00041608160C16070470029816802D041F09E
:1003F000010101E021F00101816070474268A44BD6
:100400001A400A4342607047416282627047426804
:1004100022F01F020A43426070479E490028D1F82B
:10042000040302D040F4000001E020F40000C1F811
:100430000403704797490028D1F8040302D040F420
:10044000800001E020F48000C1F80403704770B51B
:10045000072609290AD9C568A1F10A0404EB440456
:10046000A640B543A3401D43C56007E0056901EB05
:100470004104A640B543A3401D4305611F23072A3D
:1004800009D2446B521E02EB820293409C4391407E
:100490000C43446370BD0D2A09D2046BD21F02EBDA
:1004A000820293409C4391400C43046370BDC46A34
:1004B0000D3A02EB820293409C4391400C43C4628C
:1004C00070BD816841F08041816070470146002025
:1004D0008968490200D5012070470029816802D04F
:1004E00041F4806101E021F480618160704700295E
:1004F000816802D041F0020101E021F00201816037
:1005000070474268491E22F4604242EA413141602C
:1005100070470029416802D041F4006101E021F4F4
:10052000006141607047C06C80B270475648001D42
:10053000006870470029816802D041F4807101E0B1
:1005400021F48071816070470029816802D041F4F4
:10055000007101E021F40071816070474D4900286D
:10056000D1F8040302D040F4005001E020F4005020
:10057000C1F80403704770B5072609290AD9C56870
:10058000A1F10A0404EB4404A640B543A3401D4373
:10059000C56007E0056901EB4104A640B543A340EF
:1005A0001D430561836BC3F30154121B921C02EBC4
:1005B00082021F249440A34391400B43836370BD88
:1005C000826B491E22F4401242EA01518163704756
:1005D00042507047826822F470220A43826070475A
:1005E000826822F440120A4382607047816841F4B5
:1005F000800181607047014600208968490200D56A
:10060000012070470029416802D041F4806101E077
:1006100021F48061416070470029416802D041F4B3
:10062000805101E021F48051416070470844806AA4
:1006300080B2704701238B4041680AB1194300E042
:100640009943416070470246002012680A4200D078
:1006500001207047C9430160704730B50246002051
:1006600054680B0A01258D4011682C40194202D0B4
:10067000002C00D0012030BD6FEA112101607047CD
:10068000FFFEFFFCFDF7FFC004230140E030FCFF4C
:10069000FFFD3FFF00200140374900200860091D91
:1006A0000860091D0860091D08603349334814318A
:1006B0000860704730B5304A8379016853B31368D6
:1006C0008B431360111D0B680468A3430B60017911
:1006D00011440B68046823430B60274B08331968E7
:1006E0000468A14319601C1D21680568A9432160A5
:1006F0004179102905D011440A68006802430A6054
:1007000030BD19680268114319602168006801430F
:10071000216030BD0079104402688A43026030BD18
:100720000021016001710C224271817170471249F0
:1007300010310A6802430A60704701460E4A0020E1
:10074000143212680A4200D0012070470A4914315D
:1007500008607047084A014600201268064B0A40AC
:1007600014331B680B4202D0002A00D001207047CE
:100770000149143108607047003C0140FFFF7F00D1
:100780006F4910B5884206D10121084600F03BFAB6
:10079000002101204FE06B49884206D1012102204F
:1007A00000F031FA0021022045E06749884206D175
:1007B0000121042000F027FA002104203BE06349D6
:1007C000884206D10121082000F01DFA00210820EE
:1007D00031E05F49884206D10121102000F013FA70
:1007E0000021102027E05B49884206D1012120200A
:1007F00000F009FA002120201DE05749884206D167
:100800000121402000F0FFF90021402013E053496E
:10081000884206D10121802000F0F5F900218020D6
:1008200009E04F4988420AD184150121204600F091
:10083000EAF900212046BDE8104000F0E4B910BDFF
:10084000F0B5002201274FF0030C0B6807FA02F500
:100850002B40AB422CD1066853000CFA03F4A6439C
:1008600006600E79D0F800E09E4046EA0E0606606B
:100870000E79012E01D0022E12D18668A643866021
:100880004E79D0F808E09E4046EA0E06866046683B
:10089000AE43466045688E799640B6B235434560B2
:1008A000C568A543C560CC799C40C3681C43C4603F
:1008B000521C102AC9D3F0BD4FF6FF710160002110
:1008C000017141718171C171704741F48032C2611F
:1008D000C161C261C169C0697047024600201269E6
:1008E0000A4200D001207047006980B2704702467A
:1008F000002052690A4200D001207047406980B24E
:10090000704701837047418370470AB10183704784
:10091000418370474161704742694A404261704774
:100920004B07DB0E9A40C90810B500EB8100016A45
:100930000F249C40A1430162016A1143016210BD72
:10094000000002400004024000080240000C024087
:10095000001002400014024000180240001C024037
:1009600000200240E948016841F001010160E74AC6
:100970000021083211600268E54B1A400260031D35
:10098000E44A1A60026822F480220260DF480C30D8
:1009900001607047DD490022891C0A7008707047A9
:1009A00002460020510901290CD002290CD0D74958
:1009B0007431096802F01F02012393400B4200D0FA
:1009C00001207047D149F4E7D0497031F1E730B5E3
:1009D00000244FF4A0653120FFF7E2FF641CAC4215
:1009E00001D00028F7D03120FFF7DAFF002800D02F
:1009F000012030BDC54A116821F0F80141EAC0006C
:100A000010607047C44908607047C04900227031C7
:100A10000A700A70012802D0042801D1052008704C
:100A20007047BE490860704741EA82115A0810B504
:100A3000BB4B029C03EB02421143014341EA0460B9
:100A4000B249091D086010BDB349086670478001AE
:100A500040EA0170AD49843108607047AE4988664C
:100A60007047AD49C8647047A84B08331A680843FB
:100A700022F0EC62104318607047A44B08331A68E8
:100A8000084322F078421043186070479F4A0832AA
:100A9000116821F003010143116070479B48083041
:100AA000006800F00C007047984A0832116821F085
:100AB000F001014311607047944A0832116821F433
:100AC000E051014311607047904A0832116821F4E7
:100AD000604141EAC0001060704770B58B4B08332D
:100AE0001968904C11F00C0104D06610042903D051
:100AF000082903D004601BE0066019E0834A121D38
:100B00001168C1F38055116801F03F0115B1B6FBC2
:100B1000F1F101E0B4FBF1F114681268C4F3881438
:100B20006143C2F30142521C5200B1FBF2F1016079
:100B300019687D4A01F0F0010909545C0168E1403F
:100B400041601C6804F4E054A40A145D21FA04F422
:100B500084601B6803F460435B0BD25CD140C160CE
:100B600070BDC0F30121032908D1684B083319680F
:100B70006E4A21F4F81102400A431A606349703149
:100B80000A68C0F30B0002430A60704763494439A6
:100B900008607047614940390860704764490860DF
:100BA00070475A4A30320029116801D0014300E0F1
:100BB000814311607047554A34320029116801D0D1
:100BC000014300E0814311607047504A38320029E8
:100BD000116801D0014300E08143116070474B4A26
:100BE00040320029116801D0014300E081431160C7
:100BF0007047464A44320029116801D0014300E0A1
:100C0000814311607047414A10320029116801D0B8
:100C1000014300E08143116070473C4A14320029CF
:100C2000116801D0014300E0814311607047374AE9
:100C300018320029116801D0014300E0814311609E
:100C40007047324A20320029116801D0014300E088
:100C50008143116070472D4A24320029116801D068
:100C6000014300E0814311607047284A5032002957
:100C7000116801D0014300E0814311607047234AAD
:100C800054320029116801D0014300E08143116012
:100C900070471E4A58320029116801D0014300E014
:100CA000814311607047194A60320029116801D0F0
:100CB000014300E0814311607047144A6432002907
:100CC000116801D0014300E08143116070470F4A71
:100CD0000D320029117801D0014300E081431170E9
:100CE00070470A487430016841F0807101607047B4
:100CF0000146064A00200C3212680A4200D0012048
:100D0000704702490E3108707047000000380240F9
:100D1000FFFFF6FE1030002400004742800E4742DD
:100D20000000FFFF0024F40000000020FFFCFF0F84
:100D30005C01474210B501218C032046FFF78BFF71
:100D40002046BDE810400021FFF785BF114908602B
:100D5000704710B58A0721F00304120F0F230D49C5
:100D60009340083121440C689C430C600B68904010
:100D700003430B6010BD08490860704707490860CD
:100D800070470449002020310968C90500D50120B9
:100D90007047000000380140DC0027420004274271
:100DA000FE4910B5884206D101210846FFF753FFDE
:100DB000002101205BE0B0F1804F09D0F849884262
:100DC0000DD101210220FFF73CFF0021022070E03D
:100DD00001210846FFF735FF0021012069E0F149B4
:100DE000884206D101210420FFF72BFF00210420B7
:100DF0005FE0ED49884206D101210820FFF721FF7D
:100E00000021082055E0E949884206D1012110203F
:100E1000FFF717FF002110204BE0E549884206D17B
:100E200001212020FFF70DFF0021202041E0E149B2
:100E3000884206D101210220FFF70DFF0021022088
:100E400015E0DD49884202D101210C040AE0DB49AA
:100E5000884202D101214C0404E0D94988420AD1D8
:100E600001218C042046FFF7F6FE00212046BDE854
:100E70001040FFF7F0BED349884206D1012140203F
:100E8000FFF7DFFE0021402013E0CF49884206D162
:100E900001218020FFF7D5FE0021802009E0CB4909
:100EA00088420AD1841501212046FFF7CAFE00219D
:100EB0002046BDE81040FFF7C4BE10BD30B5028823
:100EC000B64CBC4DA0420DD0A8420BD0B0F1804F23
:100ED00008D0B34B984205D0B24B984202D0B24BE7
:100EE000984203D122F070034A881A43AF4B9842CC
:100EF00006D0AF4B984203D022F440730A891A43BC
:100F000002804A68C2620A880285A04201D0A842D3
:100F100001D1897A01860121818230BD4FF0FF31F4
:100F2000416000210180018141808172704701850B
:100F300082827047028822F070020A430280704762
:100F400041627047C1627047406A7047008D7047C8
:100F50000029018802D041F0020101E021F00201E4
:100F6000018070470029018802D041F0040101E0AE
:100F700021F00401018070470029018802D041F06E
:100F8000800101E021F0800101807047028822F099
:100F90000802028002880A4302807047028822F415
:100FA0004072028002880A4302807047002901884B
:100FB00002D041F0010101E021F001010180704700
:100FC00030B5028C22F001020284028C8388048BEB
:100FD00022F0020224F073050C882C438D891543FE
:100FE0004A882A436D4DA84202D0724DA8420DD1C5
:100FF00022F00805CA8923F440732A4322F004052D
:101000008A882A430D8A1D434B8A2B43838004839D
:1010100089684163028430BD70B5028C22F01002F1
:101020000284028C8388048B0D8824F4E6464FF6F4
:10103000FF7404EA052535438E8922F0200204EA74
:10104000061616434A8804EA02123243534EB0424F
:1010500002D0584EB04215D122F08006CA8923F43E
:10106000406304EA0212324322F040068A8804EA0E
:10107000021232430E8A04EA86061E434B8A04EAB1
:10108000830333438380058389688163028470BD51
:1010900070B5028C22F480720284028C8388848B67
:1010A0000D8824F0730425438E894FF6FF7422F4D3
:1010B000007204EA062616434A8804EA02223243F2
:1010C000364EB04202D03B4EB04215D122F40066FB
:1010D000CA8923F4405304EA0222324322F4806690
:1010E0008A8804EA022232430E8A04EA06161E4364
:1010F0004B8A04EA03133343838085838968C16381
:10110000028470BD70B5028C22F480520284058C7A
:101110008288838B0C8823F4E6464FF6FF7303EA3C
:101120000424344325F400568D8903EA05353543FC
:101130004E8803EA06362E43184DA84202D01D4DB4
:10114000A84205D122F480450A8A03EA82122A4382
:101150008280848389680164068470BD00210180D7
:101160004180818081608181C1810182418270479B
:1011700030B50124058C00F118038C40A54305848B
:1011800031B308292CD0091FC1F34E00184401685F
:1011900048F6FF731940016001681AE00000014041
:1011A0000004004000080040000C00400010004017
:1011B0000014004000040140004001400044014090
:1011C0000048014000180040001C00400020004082
:1011D00006E04FF6FF7303EA02221143016030BDBF
:1011E00003EB510001684FF68F73194001600168ED
:1011F000F3E74163704781637047C16370470164DF
:101200007047028B22F070020A4302837047028B00
:101210004FF6FF7322F4E04203EA012111430183F8
:101220007047828B22F070020A4382837047828B60
:101230004FF6FF7322F4E04203EA01211143818358
:101240007047028B22F008020A4302837047028B28
:101250004FF6FF7322F4006203EA01211143018378
:101260007047828B22F008020A4382837047828B88
:101270004FF6FF7322F4006203EA012111438183D8
:101280007047028B22F004020A4302837047028BEC
:101290004FF6FF7322F4806203EA012111430183B8
:1012A0007047828B22F004020A4382837047828B4C
:1012B0004FF6FF7322F4806203EA01211143818318
:1012C0007047028B22F080020A4302837047028B30
:1012D0004FF6FF73C2F30E0203EA012111430183AB
:1012E0007047828B22F080020A4382837047828B90
:1012F0004FF6FF73C2F30E0203EA0121114381830B
:101300007047028C22F002020A4302847047028C6A
:1013100022F008020A4302847047028C4FF6FF73E2
:1013200022F0200203EA0111114301847047028C6C
:101330004FF6FF7322F0800203EA0111114301848A
:101340007047028C4FF6FF7322F4007203EA01210A
:10135000114301847047028C4FF6FF7322F4006240
:1013600003EA0121114301847047028C4FF6FF7399
:1013700022F4005203EA013111430184704710B591
:101380000123048C8B409C430484038C8A401343C8
:10139000038410BD10B50423048C8B409C4304844B
:1013A000038C8A401343038410BD828B22F4406275
:1013B0008283828B4FF6FF7303EA01210A43828303
:1013C0007047828B22F00C028283828B0A438283D5
:1013D0007047028B22F440620283028B4FF6FF7348
:1013E00003EA01210A4302837047F0B5048C24F01C
:1013F00010040484078B068C4FF6FF7404EA011571
:1014000027F4734704EA0331394304EA02220A430A
:1014100026F0A001294341F0100102830184F0BDB0
:10142000028B22F00C020283028B0A430283704774
:101430002DE9F0410C460E884988A288238905468B
:101440000EB3042E26D0082E2E8C4FF6FF7028D017
:1014500026F480562E84AF8B2E8C00EA022200EAFE
:10146000013127F473473A4300EA0330104326F46E
:1014700020420A4342F48051A8832984E188284607
:10148000BDE8F04191E700F061F9E1882846BDE848
:10149000F041C5E7FFF7A9FFE1882846BDE8F04124
:1014A00097E726F480762E84AF8B2E8C00EA0121FC
:1014B00000EA0310104327F0F307384326F42062B4
:1014C0000A4342F48071A8832984E1882846BDE854
:1014D000F04176E700210180418001228280C180B5
:1014E000018170472DE9F0410C46002549880746E7
:1014F000012601B90225A288012A00D102262088EE
:1015000023890028384610D0FFF76FFFE18838465E
:10151000FFF75FFF238932462946384600F016F967
:10152000E1883846BDE8F0417AE700F00FF9E1883C
:101530003846FFF775FF2389324629463846FFF7BC
:1015400054FFE1883846BDE8F04142E7406B704700
:10155000806B7047C06B7047006C704710B50A888D
:101560004B88CC881A438B8823431A430B891A4330
:101570004B8989891A430A43A0F8442010BD0021F1
:10158000018041808180C1800181418181817047DA
:10159000002930F8441F02D041F4004101E0C1F3BA
:1015A0000E01018070470029818802D041F00401BA
:1015B00001E021F00401818070470029818802D078
:1015C00041F0010101E021F0010181807047002A12
:1015D000828901D00A4300E08A4382817047818278
:1015E000704702460020128A0A4200D0012070474C
:1015F000C94301827047034600201A8A9B890A4228
:1016000003EA010302D0002B00D001207047C94338
:10161000018270471143A0F848107047002A828960
:1016200001D00A4300E08A43828170470029818803
:1016300002D041F0080101E021F0080181807047EB
:10164000018921F0070101817047028922F07002AF
:101650000A430281704700B50346FFF7F6FF188979
:1016600040F00700188100BD70B50D4611460446D4
:10167000602D4FF001020AD000F068F8294620469C
:10168000FFF7E3FF208940F00700208170BDFFF7DE
:10169000ACFEF3E730B504894FF6FF7505EA032386
:1016A0001343E4B20B432343038130BD10B504461A
:1016B000FFF7F0FF208940F07700208110BD10B5C2
:1016C0000446FFF7E7FF208940F48040208110BDE9
:1016D000828822F07002828082880A43828070476A
:1016E000028922F00702028102890A4302817047BF
:1016F000028922F08002028102890A430281704736
:1017000070B50589048B068C25F007050D434FF64F
:10171000FC410C4040F201110C434FF6FF7101EA0D
:10172000031126F02206114331430581048301840D
:1017300070BD0029818802D041F0800101E021F0D4
:10174000800181807047A0F85010704770B5048CFC
:1017500024F001040484058B048C4FF6FF7606EA1E
:101760000313134325F0F3052B4324F00A020A4325
:1017700042F001010383018470BD0000CA4910B525
:10178000884206D101211020FFF765FA00211020C0
:1017900028E0C649884202D101214C0410E0C44926
:1017A000884202D101218C040AE0C249884202D158
:1017B0000121CC0404E0C04988420AD101210C0572
:1017C0002046FFF73EFA2046BDE810400021FFF713
:1017D00038BABA49884209D101212020FFF73BFAE3
:1017E00000212020BDE81040FFF735BA10BD7FB5BD
:1017F0000446008A0D46C98820F4405001432182E6
:10180000A08941F20C618843A9882A8911436A8919
:1018100002431143A181A08A20F44071A8890843A2
:10182000A0826846FFF759F99F48844202D0A34836
:10183000844201D1039800E00298A189090400299B
:1018400000EBC00101EB0010296802DA4FEA410108
:1018500001E04FEA8101B0FBF1F06422B0FBF2F14C
:101860004FEA01114FEA11136FF018056B4300EBBB
:101870008300A3891D044FF0320306D503EBC0009B
:10188000B0FBF2F000F0070005E003EB0010B0FB46
:10189000F2F000F00F00084320817FBD4FF4165195
:1018A000016000218180C18001810C2242818181FF
:1018B000704710B5028A4C8822F470630A8822436C
:1018C0008C88C9880C4322431A43028210BD002130
:1018D000018041808180C18070470029818902D0C8
:1018E00041F4005101E021F4005181817047028BE5
:1018F00002F47F420283028B0A430283704700296D
:10190000818902D041F4004101E0C1F30E018181DF
:1019100070470029818A02D041F4006101E021F47E
:10192000006181827047C1F308018180704780881F
:10193000C0F308007047028A22F00F020282028A76
:101940000A43028270470029818902D041F00201D6
:1019500001E021F0020181817047828922F4006256
:10196000828182890A4382817047028A22F02002A2
:101970000282028A0A43028270470029018A02D049
:1019800041F4804101E021F4804101827047818966
:1019900041F00101818170470029818A02D041F024
:1019A000080101E021F0080181827047028BD2B268
:1019B0000283028B42EA0121018370470029818A58
:1019C00002D041F0200101E021F020018182704726
:1019D0000029818A02D041F0100101E021F01001BC
:1019E00081827047828A22F004028282828A0A43BC
:1019F000828270470029818A02D041F0020101E011
:101A000021F0020181827047002A828A01D00A43B4
:101A100000E08A438282704710B5C1F3421301F09F
:101A20001F040121A140012B07D0022B07D0143045
:101A3000002A026805D00A4304E00C30F8E71030B1
:101A4000F6E78A43026010BD0246002012880A426F
:101A500000D001207047C9430180704770B501F084
:101A60001F0501260024C1F3421306FA05F2012BDB
:101A70000FD0022B0FD0838A4FEA11210088134226
:101A800006FA01F600EA060001D000B10124204662
:101A900070BD8389F0E7038AEEE70A0A01219140CD
:101AA000C94301807047000000100140004400401D
:101AB00000480040004C004000500040001401402D
:101AC00010B501F023F8884C207958B1207808B17E
:101AD00000F0E0FE607808B100F0DDFFA07808B10A
:101AE00001F021FF607900280AD0207808B100F0C9
:101AF000D1FEA078002803D0BDE8104001F013BF4C
:101B000010BD00F09FF900F00FFA00F073FA4FF4E7
:101B1000165000F01BFB00F00BFD00F0C7FD00F0BD
:101B200041FD00F033FE714D4FF4805421462846AC
:101B3000FEF7E9FE61002846FEF7E5FEA100284613
:101B4000FEF7E1FEE1002846FEF7DDFE684D40218C
:101B50002846FEF7D8FE80212846FEF7D4FE042151
:101B60006448FEF7D0FE21462846FEF7CCFE211140
:101B70006148FEF7C8FEE1102846FEF7C4FE4FF4A8
:101B80007A74204600F09BF92146C82000F071FDD0
:101B90005548012100F10C0CC17061108160C82111
:101BA0008C224B00ACE80E005023C0E906323C22E8
:101BB000C0E90821322181626FF04501C1624621EE
:101BC00001636FF09F014163A02181630A2000F04F
:101BD00076F9FBE710B549482DED028B8EB0006811
:101BE00004F04EFF41EC180B00F0B0FD044600F08D
:101BF000B1FD4349444B0A6842491B6809680A938E
:101C0000CDE90B12414A42498DED088B12680968F3
:101C1000CDE90304CDE905123E483F493F4A00683B
:101C2000096812680092CDE901103D4803683D48FB
:101C300002683D4801683D4802F0A6FF0EB0BDECC9
:101C4000028B10BD4FF4FA71C82000F012FD4FF462
:101C50007A7000F034F936A002F096FF2B4900208C
:101C6000086000F017FE00F0C3FFFFF7B3FF02208B
:101C700000F025F9F5E710B54FF4FA71C82000F02F
:101C8000F8FC4FF47A7000F01AF92EA002F07CFFF5
:101C9000BDE8104001F051B910B54FF4FA71C820F9
:101CA00000F0E7FC4FF47A7000F009F92AA002F086
:101CB0006BFF02F0F9FD02F037FDBDE8104002F0C5
:101CC00076B810B54FF4FA71C82000F0D2FC4FF48A
:101CD0007A7000F0F4F825A002F056FFBDE810403D
:101CE0000A2001F0B9BE00001C00002000040240E0
:101CF00000080240000C024000000240DC0000200E
:101D0000640100205C01002058010020D800002060
:101D1000B8000020C0000020C8000020D000002033
:101D2000CC000020C4000020BC0000207C6B000818
:101D3000427574746F6E20302070726573736564C1
:101D40000A0D0000427574746F6E20312070726548
:101D5000737365640A0D0000427574746F6E2032EF
:101D600020707265737365640A0D000042757474A7
:101D70006F6E203320707265737365640A0D000006
:101D80007047FEE7FEE7FEE7FEE7704770477047E3
:101D900029480168491C016028490868002802DABE
:101DA000274B00221A60401E0860FFF789BE70B5FD
:101DB0002020FEF7CFFC4FF4967438B1204600F097
:101DC0007EF8FFF73FFF2020FEF7D2FC4FF480752E
:101DD0002846FEF7BFFC002809D0204600F06FF827
:101DE000FFF76FFF2846BDE87040FEF7C1BC70BD2D
:101DF00070B54FF400652846FEF7ACFC4FF49674BE
:101E000038B1204600F05BF8FFF735FF2846FEF7B3
:101E1000AFFC4FF480552846FEF79CFC002809D003
:101E2000204600F04CF8FFF737FF2846BDE8704029
:101E3000FEF79EBC70BD000098000020AC000020A2
:101E40003404004070B502F02CFE02F04FFE324820
:101E50004FF47A710068B0FBF1F0401EB0F1807F62
:101E600016D24FF0E024606166170F21304600F073
:101E700047F80025A561072020614FF44070FEF768
:101E80000FFA0021304600F03BF82448456070BD51
:101E9000FEE74FF0E0208069A821B0FBF1F21F4976
:101EA000486800EB4003C3EBC010C2EBC00000F574
:101EB0007A7008600868704718484068704717498A
:101EC0004A684B689B1A8342FBD1704730B5054680
:101ED000FFF7DFFF0446FFF7DCFF001BA842FAD143
:101EE00030BD30B50C460546FFF7D3FF001BA842B6
:101EF000FAD330BD094A53685B1A8342FBD370475B
:101F00000907090E002803DA00F00F00044A00E078
:101F1000044A8154704700007001002094000020A2
:101F200014ED00E000E400E07CB501210846FEF776
:101F300038FE01210220FEF734FE01210420FEF7C5
:101F400030FE01210820FEF72CFE4FF48070009037
:101F500001208DF8040000208DF8060003218DF883
:101F600005108DF8070069461E48FEF769FC4FF41E
:101F700090501D4D009069462846FEF761FC0420F4
:101F8000009069461948FEF75BFC4FF47040184E0C
:101F9000022400908DF8074069463046FEF750FC59
:101FA000C02000908DF8074069462846FEF748FC9F
:101FB00040212846FEF7A7FC80212846FEF7A3FC17
:101FC000E1023046FEF79FFC21033046FEF79BFC02
:101FD00061033046FEF797FCA1033046FEF793FC01
:101FE0007CBD00000000024000080240000C0240DE
:101FF000000402402DE9F047012186B08803FEF776
:10200000F8FD01210720FEF7CCFD00248DF81040DB
:1020100020258DF8134003A949480395FEF710FCCD
:1020200005210120FEF795FE00958DF80440082655
:102030008DF8056001258DF806506846FEF73AFBDD
:102040004FF017098DF808908DF809508DF80A4067
:102050008DF80B5002A8FEF728F9DFF8E8A08DF8FC
:102060001040EF028DF8134003A950460397FEF786
:10207000E7FB0B210020FEF76CFE8DF804408DF885
:10208000056000978DF806506846FEF713FB282779
:102090008DF808708DF809508DF80A408DF80B50B6
:1020A00002A8FEF702F98DF810404FF480588DF821
:1020B000134003A95046CDF80C80FEF7C1FB0C215C
:1020C0000020FEF746FE8DF804408DF80560CDF83F
:1020D00000808DF806506846FEF7ECFA8DF808701F
:1020E0008DF809508DF80A408DF80B5002A8FEF7C4
:1020F000DCF88DF810402F028DF8134003A9124828
:102100000397FEF79DFB08210220FEF722FE8DF8C3
:1021100004408DF8056000978DF806506846FEF77C
:10212000C9FA8DF808908DF809508DF80A408DF89D
:102130000B5002A8FEF7B9F806B0BDE8F087000022
:1021400000040240000002400008024070B506464C
:1021500088B001210220FEF724FD01211020FEF7A6
:1021600048FD6D4D072209212846FEF7D9FB0722BD
:102170000A212846FEF7D4FB00248DF816400120E2
:102180008DF8170002218DF814104FF4C0600490F0
:102190008DF8151004A92846FEF752FB5F4D01216A
:1021A0002846FFF7ACFBADF808400C20ADF80A005C
:1021B000ADF80440ADF80640ADF818402815ADF86C
:1021C0001A00ADF81E400096ADF80C40ADF81C406A
:1021D00069462846FFF70BFB06A92846FFF769FB6F
:1021E00001212846FFF779FB08B070BD0020704739
:1021F00070B54A4D0446C1B22846FFF794FB8021D2
:102200002846FFF721FC0028F9D0204670BD43483E
:1022100001888906FCD58088C0F30800704770B536
:102220003E4D044680212846FFF70EFC0028F9D0D9
:10223000A1B22846FFF777FB204670BD10B538A045
:1022400002F0A2FC354C20212046FFF7FDFB0028C0
:10225000F9D02046FFF76BFBC0B210BD10B539A016
:1022600002F092FC2D4C20212046FFF7EDFB0028C8
:10227000F9D02046FFF75BFB01463AA002F084FC50
:102280002046FFF754FBC0B210BD10B537A002F0D6
:102290007BFC224C20212046FFF7D6FB0028F9D0FA
:1022A0002046FFF744FBA0F1300137A002F06CFCA0
:1022B0002046FFF73CFB303810BD10B50446014600
:1022C00086B033A001E0214638A002F05DFC6946EB
:1022D00041A002F07BFD694640A002F055FC21467A
:1022E000684602F099FE0028EDD106B010BD38B561
:1022F000044601463BA001E0214641A002F044FC17
:1023000069464AA002F062FD1FA0009902F03CFC61
:10231000009AA242F0D138BD0000024000100140F6
:102320000D0A707265737320616E79206B65792078
:10233000746F20636F6E74696E75652E2E2E0D0A94
:102340000D0A0000706C6561736520656E746572BE
:102350002061206368617261637465722E2E2E0D98
:102360000A00000025630D0A00000000706C656122
:10237000736520656E746572206120646967697495
:102380002E2E2E0D0A00000025640D0A000000000C
:10239000507265737320257320746F20436F6E74C1
:1023A000696E75652E2E2E203A000000496E76610A
:1023B0006C696420696E7075742C2070726573731B
:1023C00020257320746F20436F6E74696E75652EBF
:1023D0002E2E203A000000002573000025730D0A00
:1023E00000000000507265737320256420746F2014
:1023F000436F6E74696E75652E2E2E203A000000B4
:10240000496E76616C696420696E7075742C2070F9
:102410007265737320256420746F20436F6E746936
:102420006E75652E2E2E203A0000000025640000F7
:102430001CB501210420FEF7D2FB4FF47070009010
:1024400002208DF8040003208DF8050000208DF88F
:102450000600504C8DF8070069462046FEF7F0F95B
:10246000022206212046FEF75BFA022207212046BF
:10247000FEF756FA022208212046FEF751FA022200
:1024800009212046FEF74CFA1CBDF0B589B040F298
:10249000E73006900320ADF8140000263E4FADF85B
:1024A0001C60ADF8166005A93846FEF707FD6020F0
:1024B0003A4DADF800000124ADF8024028880290A2
:1024C000ADF80C6069463846FEF77AFD08213846BB
:1024D000FEF7B7FEADF802406888029069463846BC
:1024E000FEF79AFD08213846FEF7B1FEADF802402E
:1024F000A888029069463846FEF7CAFD082138468A
:10250000FEF7AFFEADF80240E88802906946384613
:10251000FEF7F8FD08213846FEF7A9FE01213846EE
:10252000FEF72AFD01213846FEF740FD09B0F0BD57
:1025300010B5FFF77DFFBDE81040A6E71849096810
:10254000884200DD08464942884200DA0846124ABD
:1025500000233432111D002802DB10600B6070472D
:1025600013604042086070470D490968884200DDE9
:1025700008464942884200DA0846074B00223C33AD
:10258000191D002802DB1A6008607047404218607D
:102590000A6070470004024000080040A4000020C8
:1025A0002400002030B58BB001210220FEF717FB7C
:1025B0004020059002208DF8180003218DF8191095
:1025C00000248DF81A40354D8DF81B0005A92846CA
:1025D000FEF736F9022206212846FEF7A1F99520DA
:1025E00008908B20ADF81C002D4DADF82440ADF8BF
:1025F0001E4007A92846FEF761FC6020ADF80000E8
:102600000120ADF802000294ADF80C40694628465E
:10261000FEF7D6FC08212846FEF713FE01212846C6
:10262000FEF7AAFC01212846FEF7C0FC0BB030BD26
:102630002DE9F04105461B498C2068430860184E7F
:1026400095202C3630600024154FA04634370CE01E
:102650003068401CC00838604620FFF730FCC7F8DF
:1026600000804620FFF72BFC641CAC42F0DBBDE889
:10267000F0810B4A10B52C321368094C5B1C9B0887
:1026800034342360084B93FBF1F18C2391FBF3F17D
:10269000491E11600349086010BD0000000002409F
:1026A00000040040AC00002000BD01057CB5012104
:1026B0000920FEF794FA02208DF8040001208DF81D
:1026C000070048F203002E4C009069462046FEF7B2
:1026D000B7F808212B4D009169462846FEF7B0F85F
:1026E000022200212046FEF71BF90222012120468A
:1026F000FEF716F901220F212046FEF711F90122FB
:1027000003212846FEF70CF91F4C4FF0FF352946F0
:102710002046FEF717FC29464FF080452846FEF775
:1027200011FC0223002203212046FEF7E9FF0023CB
:102730001A4603212846FEF7E3FF01212046FEF753
:1027400035FC01212846FEF731FC7CBD0E482430C3
:10275000006870474FF08040406A70470A49002087
:102760002431086070474FF0804100204862704774
:1027700005492431086070474FF080414862704736
:102780000000024000040240000C004070B501212E
:102790008CB00802FEF72DFABC20032500908DF8BE
:1027A000045000248DF8074069463648FEF748F883
:1027B000354E8DF8045000958DF807406946304637
:1027C000FEF73EF88DF804503020304D00908DF823
:1027D000074069462846FEF733F84FF48030CDE9CC
:1027E00008404FF47060CDE90A4008A8FDF7E7FD06
:1027F0008DF80C4002948DF80D400594069401204C
:10280000234C8DF81C0002A92046FDF7ADFD0122E6
:1028100040F205212046FDF70DFF01212046FDF77E
:10282000E3FDA1143046FEF76EF861143046FEF762
:102830006AF84FF480413046FEF765F84FF40041E6
:102840003046FEF760F840212846FEF75CF880210C
:102850002846FEF758F80CB070BD10B51346044674
:102860000122FDF7F4FD2046FDF72BFE0221204654
:10287000FDF7E9FE0028F9D02046BDE81040FDF73D
:1028800052BE000000000240000402400008024066
:10289000002001402DE9F05FBF4D042209212846A8
:1028A000FFF7DBFFBD4C04220521E0602846FFF75F
:1028B000D4FF2061042208212846FFF7CEFF606183
:1028C000042207212846FFF7C8FFA06104220F2138
:1028D0002846FFF7C2FFE06104220E212846FFF7D9
:1028E000BCFF2062FFF7D5FAAD4E83464FF4805906
:1028F00049463046FEF705F8DFF8A88280214746B2
:102900004046FDF7FEFF59463C20FFF7EAFA042255
:1029100009212846FFF7A1FFE1680422401AE06080
:1029200005212846FFF799FF2169401A2061494691
:102930003046FDF7E8FF80213846FDF7E4FFE06808
:102940000027002800DAE7602069002800DA276104
:102950005946C820FFF7C5FA4FF4005A5146B14610
:102960003046FDF7CEFF402146464046FDF7C9FF01
:1029700059464FF4AA70FFF7B4FA042208212846FA
:10298000FFF76BFF61690422401A60610721284646
:10299000FFF763FFA169401AA06151464846FDF761
:1029A000B2FF40213046FDF7AEFF6069002800DA33
:1029B0006761A069002800DAA761E26820684FF427
:1029C0007A71424392FBF1F2E2602269424392FB48
:1029D000F1F222616269424392FBF1F26261A26903
:1029E000424392FBF1F0A061BDE8F09F2DE9F04772
:1029F000FFF74FFA684D814604220F212846FFF762
:102A00002CFF664C04220E21E0612846FFF725FFCB
:102A1000634F4FF48046206231463846FDF771FF20
:102A20004FF4004841463846FDF76BFF49464FF4E6
:102A3000AA70FFF756FA04220F212846FFF70DFF70
:102A4000E1690422401AE0610E212846FFF705FFE4
:102A5000216A401A206231463846FDF754FF41464C
:102A60003846FDF750FFE1690020002900DAE061F7
:102A7000216A002900DA2062E26920684FF47A7145
:102A8000424392FBF1F2E261226A424392FBF1F08F
:102A90002062BDE8F0872DE9F04128253F4E002057
:102AA0003D4F04467062042211463846FFF7D5FEBA
:102AB000716A641C08447062AC42F4DB4CF2503121
:102AC00091FBF5F0726A5043374A104490FBF1F0E5
:102AD000C11700EB5170C0107062B16A0844B06257
:102AE000BDE8F08110B5042203212B48FFF7B5FEA5
:102AF0002A4C606003F0AFFE9FED2C1B53EC112BB2
:102B000003F022FD03F078FEA06010BD70B5FFF762
:102B1000E9FF224841F65831806888423BDA0020BC
:102B2000FFF70CFD0020FFF71FFD04212148FDF7F2
:102B3000E8FE1C4C4FF4805529462046FDF7E1FE87
:102B4000A1151D48FDF7DDFE61152046FDF7D9FEF4
:102B50002946134D2846FDF7D6FE4FF4005128466E
:102B6000FDF7D1FE4FF480412846FDF7CCFE4FF42F
:102B700000412846FDF7C7FE40212046FDF7C3FE71
:102B800080212046FDF7BFFE4FF47A742146C8200D
:102B9000FFF76FFDFAE770BD00200140B000002094
:102BA000000402400008024008136DFAAC1C5A648D
:102BB0003BDFD33F000C0240000002400D460646BA
:102BC000FA4FDFF8EC834FF47A79FFF762F90446A5
:102BD000FFF760FE3868301AFFF7B0FCD8F8000045
:102BE000281AFFF7C1FC21464846FFF77AF9ECE7BF
:102BF000EE4810B50268EF48EF4C4FF4805103687F
:102C000020469A4202DDFDF77CFE01E0FDF77BFEE7
:102C1000EA48EB49EB4A0068096888424FF0040132
:102C2000104602DDFDF76DFE01E0FDF76CFEE648A3
:102C30004FF400710268E54800688242204602DDD8
:102C4000FDF75FFE01E0FDF75EFED9484FF48071AD
:102C50000268DF480368DF489A4203DDBDE81040A0
:102C6000FDF74FBEBDE81040FDF74DBE70B50D46F7
:102C70000446FFF778FDFFF771FD2046FFF75EFC85
:102C80002046FFF771FC2846FFF719F90020FFF7EF
:102C900055FC0020FFF768FC6420FFF710F9FFF7F0
:102CA00055FD0446FFF756FD201A70BD1FB5CA49F1
:102CB0000020CA4A087001211170C9494FF0000B69
:102CC000D94608700120CDE900B0C648CDF808B05B
:102CD000DA460168C4485D465F46D8465C460160F6
:102CE000C248C34A01990068126841438E1ABBF179
:102CF000000F0CD186420ADCBE4A4FF0010BBE4BDE
:102D000082F800B000221A70BC4A82F800B0B9F113
:102D1000000F09D100EB4001CA1701EB9271B6EB2D
:102D2000A10F01DC4FF0010939EA0A0102D0B14AD2
:102D3000012111700099A1BB00EBD070B6EB600FC0
:102D40002FDC0120009099489A4900680968884260
:102D500006DD97489E4900680968884200DD012524
:102D60009648974900680968884200DD012796481F
:102D7000964900680968884201DD4FF00108FFF7B5
:102D80009BF800F00304641C012C0ED0022C0FD021
:102D9000032C10D0042CF2D105EA070010EA080F2A
:102DA000EDD0BAF1000F0AD013E0002DE7D1F8E71B
:102DB000002FE4D1F5E7B8F1000FE0D1F1E78B483F
:102DC0000068C11700EB9170B6EBA00F06DC4FF066
:102DD000010A25B187490020087006E02DB9022CB0
:102DE00003D0032C01D0042C2CD1854890ED000A8F
:102DF000B8EEC00A00F0DDFCBDEEC00A10EE100A0D
:102E000000B203907F4890ED000A00F0D2FCBDEEC6
:102E1000C00A039A10EE100A01B2304600F09FFD7E
:102E200000EE100A7848B8EEC00AD0ED000AB4EE01
:102E3000E00AF1EE10FA01D26A4800E07048016839
:102E400069480160029808B9002E0ADD57484FF41E
:102E5000FA610068884204DC5548006888427FF7C0
:102E60003FAF01984FF47A71401C0190C820FFF7E2
:102E700000FC35B1642240F232514FF4AA6000F0F8
:102E8000ABFB022C04D0032C04D0042C04D00AE0A9
:102E90005E4802E05E4800E05E4890ED000AB8EE51
:102EA000C00A00F007FB4FF0000BD946DA46CDF818
:102EB00000B05D465F46D846CDF808B010E72DE972
:102EC000F041554F002606EB4600002407EB0015A5
:102ED00055F8240001F08EFB38BB55F824000B2E6A
:102EE00040F00F0045F8240005DA05EB8400016B83
:102EF00041F004010163002E06DD05EB840050F86B
:102F0000301D41F0010101600B2C05DA05EB840056
:102F1000416841F008014160002C06DD05EB8400AA
:102F200050F8041D41F002010160641C0C2CCFDB41
:102F3000761C0C2EC7DBBDE8F0812DE9F04F85B083
:102F400000F038FD2B490120002508702A498146F0
:102F50002C460D7031490870284908701E490D70C3
:102F60001E490D701E49087000950020CDE90150E2
:102F700003900490FFF7A3FF00F02AFE01F0ECFBA2
:102F8000DFF89CA0DFF89CB02748CAF800504E211B
:102F9000CBF800500170FFF7E6FBFFF7DFFB23489B
:102FA000DFF88C8001681048016014E2BC0000204A
:102FB000C00000207C00002000080240C400002067
:102FC00084000020000C0240C8000020880000207F
:102FD00080000020000002401F0000202000002090
:102FE0002100002038000020E400002074000020B0
:102FF0005C0100201C0000201D0000201E0000209D
:103000003C000020DC0000202801002048000020B7
:103010004C00002050000020840100207800002097
:10302000100000201400002060000020300000206C
:103030005C000020FE49FF4A0968126809FB01F0A4
:10304000841A009810BB8C4226DCFB4A01200090B9
:10305000FA4B107000221A70F94A1070F948007883
:103060004E2806D0452808D053280AD057280ED01D
:1030700012E0DBF80020521C06E0DAF80020521CB7
:1030800008E0DBF80020521ECBF8002004E0DAF85C
:103090000020521ECAF80020019848B901EB4100F7
:1030A000C21700EB9270B4EBA00F01DC012001907D
:1030B000029800287ED101EBD170B4EB600F79DC6F
:1030C00001200290DBF800005D4600EB4001DE4885
:1030D000564600EB0110DAF8001050F8210001F01C
:1030E0007DFA10B14FF4FA7709E0286800EB40014F
:1030F000D64800EB0110316800EB8100076B2868AF
:10310000B24600EB4001D04800EB0111306851F8A5
:10311000200001F066FA10B14FF4FA760AE0286850
:1031200000EB4001C94800EB0111DAF8000001EBA7
:10313000800046682868AB4600EB4001C24800EBBF
:103140000111DAF8000051F8200001F04DFA10B139
:103150004FF4FA750CE0DBF8000000EB4001BB48CF
:1031600000EB0111DAF8000001EB800050F8305C50
:10317000DBF8000000EB4001B34800EB0111DAF886
:10318000000051F8200001F032FA10B14FF4FA704B
:103190000CE0DBF8000000EB4001AC4800EB011153
:1031A000DAF8000001EB800050F8040CB74207DAAF
:1031B000AF4200E0A3E003DA874201DA052016E01F
:1031C000BE4205DAAE4203DA864201DA06200EE09C
:1031D000B54205DABD4203DA854201DA072006E08E
:1031E000B04207DAA84205DAB84203DA0820C8F884
:1031F000000084E0934D28784E280ED1DBF80000C3
:1032000000EB4001904800EB0111DAF8000051F8A2
:10321000200001F0E3F90028D0D0287845280DD10E
:10322000DBF8000000EB4001874800EB0111DAF801
:10323000000051F8200001F0D4F918B12878532883
:1032400002D00FE0062158E0DBF8000000EB40015F
:103250007D4800EB0111DAF8000051F8200001F080
:10326000C3F918B12878572802D010E0072144E0AC
:10327000DBF8000000EB4001734800EB0111DAF8C5
:10328000000051F8200001F0B2F90028AED0DBF8C0
:1032900000006D4D00EB4000DAF8001005EB001067
:1032A0005F46564650F8210001F098F9002885D075
:1032B0003868316800EB400005EB001050F8210041
:1032C00001F08FF9002881D03868316800EB4000A8
:1032D00005EB001050F8210001F086F900283FF4BA
:1032E0007DAF3868316800EB400005EB001050F806
:1032F000210001F07CF910B90821C8F800100398EA
:1033000048B94B480068C11700EB9170B4EBA00FAF
:1033100001DC0120039000F03FFC58B34C4E96EDC9
:10332000000AB8EEC00A00F044FABDEEC00A10EE82
:10333000100A05B2474890ED000A00F03AFABDEED7
:10334000C00A2A4610EE100A01B2204600F007FB20
:1033500000EE100A4048B8EEC00AD0ED000AB4EE04
:10336000E00AF1EE10FA02D23C48016800E0316850
:103370003B480160049808B9002C09DD3948016810
:1033800040F6C410814203DC37490968814222DDDE
:1033900009F101094FF47A71C820FFF76AF9D8F8EA
:1033A0000000052806D0062807D0072808D00828DE
:1033B00009D00AE001F096F807E001F0ADF804E06A
:1033C00001F0C4F801E001F0D9F80020009001906C
:1033D00002900390049001F013F900283FF42AAE04
:1033E0001F4F002C52DD1249194E096896ED000A54
:1033F00009FB01F00F49B8EEC00A0968441A00F051
:10340000D8F9BDEEC00A10EE100A05B2114890EDD1
:10341000000A00F0CEF9BDEEC00A2A4610EE100AEE
:1034200001B2204600F09BFA00EE100A1EE00000F8
:10343000740000205C0100201C0000201D00002002
:103440001E0000206000002084010020C403002032
:103450003C000020DC00002028010020300000207B
:10346000E4000020BC000020C00000200E48B8EEA0
:10347000C00AD0ED000AB4EEE00AF1EE10FA02D272
:103480000A48006800E030683860AAE70024204657
:103490003C60FFF753F80020FFF766F8044804701B
:1034A00005B0BDE8F08F00002801002038000020A2
:1034B0001E0000202DE9F05FDFF8F090DFF8F0A0AB
:1034C0003C4900202DED088BF0EE409AD9F80070B1
:1034D000DAF800600860FEF7EFFC0546DFF8D880F8
:1034E000DFF8D8B0364CFEF7E7FC2168401B884275
:1034F000F9D35D46CB46D146DFF8C8A09FED32AB8D
:103500009FED33BBDBF80000C01B00EE100AB8EEE5
:10351000C00A00F099FAD9F80000B0EE408A801B8A
:1035200000EE100AB8EEC00A00F08EFA38EE009AEB
:10353000B0EE690A00F088FA10EE100A03F0A0FA63
:1035400041EC180BDAF8000003F09AFA53EC1A2B4E
:1035500003F098F953EC182B03F094F953EC1B2B60
:1035600002F0F2FF02F0BEFF00EE100A00F055FA82
:10357000B4EEC09AF1EE10FA09D2F5EEC09AD8F87E
:103580000000F1EE10FA00D340422860BAE70020B4
:103590002860FEF791FC0546FEF78EFC2168401B73
:1035A0008842F9D3BDEC088BBDE8F09F3C010020B8
:1035B00040010020E400002034000020E80000204A
:1035C00044000020700000201F85EB51B81E094008
:1035D00000000000008066402DE9F05F88468246CA
:1035E00020482149DFF884B0D0F8009009680160D4
:1035F00001201F498BF80000002017460870FEF7D5
:103600005BFC06464FF47A7413E0FEF742FC19495E
:1036100005460968AAEB0100FEF790FF1649096804
:10362000A8EB0100FEF7A0FFFEF733FC401BA04211
:10363000FAD3FEF741FC801BB842E6D30F4800687E
:10364000FFF79AF80E480068FFF792F80549002046
:10365000C1F8009006498BF8000001200870BDE811
:10366000F09F000024000020280000201C00002003
:103670001E000020BC000020C00000203C010020F3
:103680004001002030B5FD48FE4C0268FC4803684C
:10369000FD48FE499A420068096803DD884201DD61
:1036A000851AA5609A4201DD981A04E0884201DD7E
:1036B000401A00E00020A06030BD70B5F14CF14D23
:1036C000803CD4E91C104218401AC4E90420F04997
:1036D0002B69096891FBF3F1EE4B1B780BB108469F
:1036E00003E0ED4B1B7803B9084400EE102AD4ED3B
:1036F000000AB8EEC00A30EEC00AD4ED080A30EE77
:10370000200A84ED080A00EE100AD4ED010AE3480D
:10371000B8EEC00A30EEC00AD4ED090A30EE200A35
:1037200084ED090A007878B1FFF7ACFFD5E9020112
:1037300090FBF1F000EE100AD4ED090AB8EEC00AD1
:1037400030EE800A84ED090A94ED080AD4ED0E0AE1
:1037500094ED0A1AD4ED0F1A60EE800A30EE411A89
:1037600004F1280341EE810AFDEEE00A10EE902AF2
:103770002263D4ED090A94ED101AD4ED0B1A94EDDE
:10378000112A21EE201A70EEE11A02EE211ABDEE86
:10379000C11A11EE101A6163501A83EC020A114427
:1037A000C4E91601FEF7CAFEE06DBDE87040FEF701
:1037B000DBBEBB48D0ED000ABA48F8EEE00A60EE86
:1037C000200A90ED000AB848B8EEC00A90ED001A41
:1037D00020EE800AC0EE010A9FEDB41A80EE810A45
:1037E0007047A84900B58039B0EE001A91ED020A81
:1037F000D1ED000AB8EEC02ADFEDAC1AF4EEC20A31
:10380000F1EE10FA17D291ED120A20EE010AFFF73D
:10381000D0FFC0EE210A91ED000A70EE800AC1EDE2
:10382000000A91ED020AB8EEC01AF4EEC10AF1EEF8
:1038300010FA1EDC21E0B8EEC00AF4EEC00AF1EE88
:1038400010FA1ADD91ED130A20EE010AFFF7B1FF1D
:10385000C0EE210A91ED000A70EE600AC1ED000A87
:1038600091ED020AB8EEC01AF4EEC10AF1EE10FAB8
:1038700003D2B8EEC00A81ED000A91ED030AD1ED42
:10388000010AB8EEC01AF4EEC10AF1EE10FA11D234
:1038900091ED141A70EE810AB8EEC01AC1ED010A5A
:1038A000F4EEC10AF1EE10FA03DDB8EEC00A81EDC4
:1038B000010A00BDB8EEC01AF4EEC10AF1EE10FA2A
:1038C000F7DD91ED151A70EEC10AB8EEC01AC1ED20
:1038D000010AF4EEC10AF1EE10FAE6D300BD70B5AC
:1038E000FEF738FF674C803C2066FEF72FFF226E04
:1038F000A16E511A2167E36EC4E91A20C31ACD18CC
:1039000005EBD5756D10C4E91D3511441844C4E9A3
:10391000181008445B4900EBD07040100860E06F5D
:10392000401BE06770BD10B5FFF7D9FFFFF759FFE7
:10393000BDE81040C1E65C48D0ED000A584820EED2
:10394000201A90ED000A5748B8EEC00AC1EE000AEE
:1039500090ED000AB8EEC01A80EE810A704700B5FB
:10396000002901DA494209B2002A01DA524212B2B0
:10397000002801DC4FF0010000EE100AB8EEC00A8A
:10398000FFF7D9FF11FB01F002FB1200642148434D
:1039900000EE900AB8EEE01AC1EE000AB5EE000A99
:1039A00020EE800ABDEEC00A10EE100A002800DAF0
:1039B000404200BD10B53948002404703C480470F2
:1039C0003C4804702046FEF7B9FD0020FEF7CCFD10
:1039D0002C489FED390A80382A4980ED060A80ED8F
:1039E000070A80ED000A80ED010A8460C46080ED62
:1039F000080A80ED090A80ED0A0A80ED0B0A846648
:103A0000C466046644660C604C608465C465FEF759
:103A1000AAFEBDE81040FEF7A1BE2148D0ED000A85
:103A20002048F8EEE00A60EE200A90ED000A1E48F9
:103A3000B8EEC00A90ED001A60EE800A80EE810AAE
:103A400070479FED1D0A7047B5EEC00AF1EE10FAFF
:103A500001D2B1EE400A70472DE9F05F8146FFF7D1
:103A6000A9FFDFF838800120114988F800000025FF
:103A70000D70104908701149087021E0C400002041
:103A80008C0000205C010020C80000209000002075
:103A9000D4000020790000207A0000201C000020C3
:103AA00064000020680000206C0000200000C84274
:103AB0001D00002078000020000000001E000020F3
:103AC0002D49DFF8BCB0DFF8C0C00D702B492F4C7A
:103AD000DFF8B0A00D708BF80000DCF800002C4F70
:103AE00004F18006A0602EE0831A01EBD170B3EBE5
:103AF000600F01DA88F8005097ED000AB8EEC00AAE
:103B0000FFF757FEBDEEC00A10EE100A94ED000A52
:103B100002B2FFF74EFEBDEEC00A10EE100A01B26F
:103B20001846FFF71CFF00EE100AD4ED130AB8EE9A
:103B3000C00AB4EEE00AF1EE10FA02D2DCF800009E
:103B400000E03868A060D6E90020DAF80010131A07
:103B500009FB01F08342C7DB0020A560FEF7EEFC05
:103B60000020FEF701FD306870600A4805708BF890
:103B70000050BDE8F09F00001F0000202000002042
:103B8000210000207400002030000020DC00002014
:103B90002C0000201E000020FB480178FB484E2925
:103BA000006806D0452907D0532908D0572909D0E5
:103BB0000AE005280AD007E0062807D004E0072815
:103BC00004D001E0082801D0012070470020704790
:103BD0002DE9F041DFF8B8839026002505EB45007C
:103BE000002408EB0017052D01D0062D03D1052C6C
:103BF00008D0062C06D02946204600F05BFD401C6C
:103C000047F82400641C0C2CEDDB6D1C0C2DE5DB4F
:103C1000761EE2D5BDE8F081F0B5DB48DD4ADE492D
:103C20000778DE481678DE4A0478DF480D78136896
:103C3000DC4903EB4302006801EB021202EB800156
:103C40004E2F32D0452F5BD0532F7DD0572F2BD105
:103C50006EB152F82060002846F0080642F8206055
:103C600005DD51F8046C46F0020641F8046C6DB1B4
:103C700052F82050002B45F0040542F8205005DD95
:103C800051F8305C45F0010541F8305C002C0BD058
:103C900052F820400B2B44F0010442F8204003DA94
:103CA000086B40F004000863F0BD5EB152F820607C
:103CB0000B2B46F0010642F8206003DA0B6B43F051
:103CC00004030B636DB152F82030002843F0080361
:103CD00042F8203005DD51F8043C43F0020341F87E
:103CE000043C002CE0D052F820300B2843F00203B3
:103CF00042F82030D8DA486840F008004860F0BD4B
:103D00005EB152F820600B2846F0020642F82060AF
:103D100003DA4E6846F008064E605DB152F8205056
:103D20000B2B45F0010542F8205003DA0D6B45F0EE
:103D300004050D63002CE2D052F82040002B44F023
:103D4000040442F8204000E005E0D8DD51F8300DD1
:103D500040F0010029E06EB152F82060002B46F0DF
:103D6000040642F8206005DD51F8303C43F00103C1
:103D700041F8303C5DB152F820300B2843F002038B
:103D800042F8203003DA4B6843F008034B60002C04
:103D9000B5D052F82030002843F0080342F8203014
:103DA000ADDD51F8040D40F002000860F0BD2DE9D2
:103DB000F04F87B0FFF7FEFD7C4900207C4A087079
:103DC000012111707B49784C754D08700121CDE9B6
:103DD00002100090049001900590206080462860B9
:103DE00069484E210170FFF7E5FD2868DFF8B4B19E
:103DF00000EB40010BEB0110216850F8210000F0AE
:103E0000F9FB88B92846006800EB40010BEB011074
:103E10002146096850F8212042F0100240F8212084
:103E200065480168491C016064486549DFF85C9198
:103E300000680860B9E26349634A02980968126839
:103E40004843A0EB02080398D8B9884519DC5F4ABB
:103E5000012003905E4B107000221A705D4A1070B2
:103E6000494800784E2806D0452806D053280BD064
:103E700057280BD005E04A4800E04B480268521C26
:103E80000260009830B10FE0454800E04648026803
:103E9000521EF5E701EB4100C21700EB9272B8EB3E
:103EA000A20F01DC01200090DDE90002904302D066
:103EB000464A012010700498002863D101EBD171AB
:103EC000B8EB610F5EDC0120049043484349006871
:103ED0000968884208DD424842490068096888420A
:103EE00002DD2C49012008703F48404900680968FC
:103EF000884202DD2849012008703D483D4900689C
:103F00000968884202DD254901200870FFF784FE18
:103F1000234C254F2168386800F0CCFB2168401CF9
:103F200001EB41021A4901EB02113A6841F8220003
:103F3000FFF74EFE2068396800EB40000BEB0010E5
:103F40005D4650F8210000F049FB10B14FF4FA76BD
:103F500009E0206800EB40010D4800EB01103968D2
:103F600000EB8100066B2068AB4600EB400105EBDF
:103F70000110396850F8210000F033FB18B14FF4FC
:103F8000FA7543E0EBE037E0600000205C000020C1
:103F9000C403002058000020590000205A000020CF
:103FA0001400002084010020100000201F000020C9
:103FB00020000020210000201800002038000020F0
:103FC000E4000020740000205C0100201C000020A0
:103FD0001D0000201E000020BC0000207C000020EE
:103FE000C000002080000020C400002084000020C9
:103FF000C800002088000020206800EB4001FE4837
:1040000000EB0110396800EB810045682068A2468A
:1040100000EB40010BEB0110396850F8210000F073
:10402000E3FA10B14FF4FA740BE0DAF8000000EB99
:104030004001F14800EB0110396800EB810050F8B5
:10404000304CDAF8000000EB40010BEB011039684E
:1040500050F8210000F0CBFA10B14FF4FA700BE0E9
:10406000DAF8000000EB4001E34800EB011039688A
:1040700000EB810050F8040CAE4205DAA64203DAE8
:10408000864201DA052016E0B54205DAA54203DAD8
:10409000854201DA06200EE0AC4205DAB44203DACA
:1040A000844201DA072006E0A8425BDAA04259DA2E
:1040B000B04257DA0820C9F800004FF0900A0026F5
:1040C000002456EA040041D006EB46010BEB011533
:1040D00055F8240000F082FA074655F8240000F055
:1040E00080FA074455F8240000F07EFA074455F89A
:1040F000240000F07CFA3844032827DB55F824001C
:104100000B2E40F02F0045F8240005DA05EB840063
:10411000016B41F0040101630B2C05DA05EB84000F
:10412000416841F008014160002E06DD05EB840086
:1041300050F8301D41F001010160002C06DD05EB57
:10414000840050F8041D41F002010160641C0C2C35
:10415000B7DB761C0C2EB3DBBAF1010AAFD50198A0
:10416000F0B387E0A54C20784E280DD1DAF8000096
:1041700000EB40010BEB0110396850F8210000F012
:104180002DFA00283FF47EAF207845280DD1DAF8CB
:10419000000000EB40010BEB0110396850F82100E2
:1041A00000F01FFA00283FF475AF207853280DD196
:1041B000DAF8000000EB40010BEB0110396850F811
:1041C000210000F011FA00283FF46CAF2078572846
:1041D0000FD1DAF8000000EB40010BEB011000E01A
:1041E0003EE0396850F8210000F001FA00283FF461
:1041F00061AFDAF80000396800EB40000BEB00100B
:1042000055465C4650F8210000F0E8F90028B9D086
:104210002868396800EB400004EB001050F82100DA
:1042200000F0DFF90028BED02868396800EB4000B4
:1042300004EB001050F8210000F0D6F960B12868B6
:10424000396800EB400004EB001050F8210000F04A
:10425000CEF90028CBD030E70721C9F800102CE7B1
:1042600067480068C11700EB9171B8EBA10F08DC3B
:10427000012001906348007830B16348002101704B
:1042800005E06048007810B9FFF786FC58B35F4D31
:1042900095ED000AB8EEC00AFFF78BFABDEEC00A32
:1042A00010EE100A04B25A4890ED000AFFF781FAA6
:1042B000BDEEC00A224610EE100A01B24046FFF7DA
:1042C0004EFB00EE100A5348B8EEC00AD0ED000ACB
:1042D000B4EEE00AF1EE10FA05D328684E49086002
:1042E000059818B105E04D480068F7E7B8F1000FF0
:1042F00009DD4B48016840F6C410814203DC49499E
:104300000968814251DD02984FF47A71401C029095
:10431000C820FEF7AEF9444D444C5E46286821683B
:1043200000EB40000BEB001050F8210000F062F9A8
:1043300078B92868216800EB400006EB001050F8BF
:10434000212042F0100240F8212039480168491C20
:1043500001602C4C207838B1364840F23251026866
:104360004FF4AA60FFF738F9D9F80000052806D005
:10437000062807D0072808D0082809D00AE000F04E
:10438000B1F807E000F0C8F804E000F0DFF801E061
:1043900000F0F4F800200090274903900490019069
:1043A0000590207008702549087000F029F9002850
:1043B0003FF441AD184DB8F1000F5ADD1048029995
:1043C000124E006841431E4896ED000A0068B8EEA0
:1043D000C00AA1EB0008FFF7ECF9BDEEC00A10EE31
:1043E000100A04B20A4890ED000AFFF7E2F9BDEEA8
:1043F000C00A10EE100A25E0C4030020600000206F
:1044000074000020580000201C0000203C00002008
:10441000DC00002028010020E400002038000020FB
:10442000BC000020C000002014000020100000206C
:104430001800002040000020590000205A000020F1
:104440005C01002001B222464046FFF788FA00EEE8
:10445000100A1E48B8EEC00AD0ED000AB4EEE00A19
:10446000F1EE10FA02D21A48006800E030682860C5
:10447000A1E7184F184C5E463868216800EB4000F1
:104480000BEB001050F8210000F0B4F878B9386850
:10449000216800EB400006EB001050F8212042F0AC
:1044A000100240F821200D480168491C01600024D9
:1044B00020462C60FEF742F80020FEF755F8084829
:1044C000047007B0BDE8F04F00F046B928010020A5
:1044D00038000020140000201000002018000020E8
:1044E0001E00002010B5394C20784E2811D05728D6
:1044F00004D0452804D0532804D00AE0344802E010
:10450000344800E0344890ED000AB8EEC00AFEF7E7
:10451000D1FF4E20207010BD10B52C4C20784E28B5
:1045200006D0572806D045280DD0532804D00AE0DD
:10453000274802E0284800E0264890ED000AB8EE3F
:10454000C00AFEF7B7FF4520207010BD10B51F4C04
:1045500020784E2804D0572804D0452804D00AE0FB
:104560001D4802E01B4800E0194890ED000AB8EE33
:10457000C00AFEF79FFF5320207010BD10B5134CEA
:1045800020784E2806D057280FD0452804D053282D
:1045900004D00AE00F4802E00F4800E00C4890ED1C
:1045A000000AB8EEC00AFEF785FF5720207010BD44
:1045B0004E2806D0452805D0532804D0572803D1CB
:1045C000DCE78FE7A8E7C1E7704700006000002044
:1045D0004C0000204800002050000020C0F30000E4
:1045E0007047C0F340007047C0F380007047C0F3CD
:1045F000C0007047C0F300107047C0F34010704710
:1046000045480068052801D0062806D14349444A98
:104610000968052903D0062903D000207047052822
:1046200011D0D432136B43F00C031363136843F0BF
:1046300001031360D36A43F00203D362D43A06291C
:1046400001D1052813D002F598720629536843F06A
:1046500009035360536B43F004035363136843F03F
:1046600002031360A2F5987201D1062813D002F557
:104670009C720529136843F003031360136B43F026
:1046800004031363536843F008035360A2F59C725C
:1046900001D106280CD0D832106B40F00400106312
:1046A000106840F001001060506B40F0080050634B
:1046B0000120704730B51A4A01EB410102EB0112AB
:1046C000184C52F8202004EB0111C2F300034FF400
:1046D000FA7501EB80010BB1284600E0086BC2F3CC
:1046E00040030BB12B4600E04B68C2F380040CB1D1
:1046F0002C4601E051F8304CC2F3C0020AB951F81F
:10470000045C8342294600DA1846844200DA2046D7
:10471000814200DA284630BD10000020140000203D
:1047200084010020C40300202DE9F0414B4F0B25EC
:1047300005EB4500002407EB001649A056F82410AD
:1047400000F022FA641C0C2CF7DB46A000F01CFAE7
:104750006D1EEDD5BDE8F0812DE9F047DFF8089139
:10476000DFF8F8A00B2606EB460700240AEB071536
:1047700055F82400FFF732FF08B13CA000E03DA04F
:1047800000F002FA641C0C2CF2DB36A000F0FCF9FD
:10479000DFF8E880002455F82400FFF728FF08B16F
:1047A00037A000E037A000F0EFF9D8F8000086420B
:1047B00016D135480068844212D199F800004E287D
:1047C00006D0452806D0532806D0572806D01FE02B
:1047D0002EA012E02EA010E02EA00EE02EA00CE0E5
:1047E00055F82400FFF709FF08B12CA005E055F8A3
:1047F0002400FFF7FFFE18B129A000F0C5F907E07B
:10480000284800EB071050F8241015A000F0BCF960
:1048100055F82400FFF7E5FE08B119A000E019A043
:1048200000F0B2F9641C0C2CB5DB0EA000F0ACF962
:10483000002455F82400FFF7D7FE08B10BA000E0D4
:104840000CA000F0A1F9641C0C2CF2DB05A000F018
:104850009BF9761E87D5BDE8F08700008401002013
:10486000253364000A0D0000600000202B2D2D2D43
:104870002B0000002B2020202B0000001400002023
:104880007C0000002000000010000020205E2000BE
:10489000203E200020762000203C200020782000B0
:1048A000202E2000C403002030B52C4A106840F0B0
:1048B0000E001060506840F00C005060002002EBC9
:1048C0008001401CD1F810320C2843F00103C1F8DC
:1048D0001032F4DB002000EB400102EB0111401C20
:1048E000CB6A0C2843F00203CB62F4DB002052F8C1
:1048F000201041F0040142F82010401C0C28F6DB87
:10490000002000EB400102EB0111401C0B680C2859
:1049100043F008030B60F4DB0A20114C002202EB89
:104920004203002104EB0313052943F8210001DAB7
:10493000401E03E08D1F052D00D2401C491C0C2990
:10494000F2DB052A01DA401E03E0911F052900D29F
:10495000401C521C0C2AE2DB30BD00008401002008
:10496000C40300200948804709480047FEE7FEE7E6
:10497000FEE7FEE7FEE7FEE7FEE7FEE7FEE7FEE70F
:1049800004480549054A064B70470000A34A000841
:104990008901000868060020680C002068080020D3
:1049A00068080020F0B56C4A0020116841F480319D
:1049B00011604FF4A063116800F1010011F4003F91
:1049C00001D19842F7D11068674E8103634CDFF83C
:1049D00090E1644DDFF894C140F2056706F10400F0
:1049E0002BD5216841F080512160DEF8001041F4A0
:1049F0008041CEF8001001680160016841F4004177
:104A00000160016841F4A05101603560116841F016
:104A10008071116011688901FCD5CCF800700168C3
:104A200021F003010160016841F0020101600168A9
:104A3000C1F381010229FAD1F0BD11684C4B194034
:104A40001160116841F001011160216841F080514D
:104A50002160DEF8001041F48041CEF800100168BA
:104A60000160016841F400410160016841F4A05116
:104A700001603560116841F0807111601168890131
:104A8000FCD5CCF80070016821F0030101600168D9
:104A900041F0020101600168C1F381010229FAD1EC
:104AA000F0BD344810B5016841F4700101602A4836
:104AB000016841F0010101602B4A0021121D1160C3
:104AC00002682B4B1A400260031D2B4A1A600268D1
:104AD00022F480220260244808300160FFF762FF60
:104AE00024494FF000608039086010BD70B51E4D3C
:104AF0002D1D2868214B224910F00C0004D05E10B7
:104B0000042803D0082803D00B601AE00E6018E0D8
:104B1000154A1068C0F38054106800F03F0014B1CB
:104B2000B6FBF0F001E0B3FBF0F013681268C3F3DA
:104B300088135843C2F30142521C5200B0FBF2F0FA
:104B4000086028680E4AC0F30310121D105C0A6842
:104B5000C2400A6070BD0000003802404038024088
:104B6000007000401054000704380240003C02402E
:104B7000FFFFF6FE88ED00E0103000240024F40072
:104B800070010020704700000FB4044910B503AA5B
:104B9000029800F007FD10BC5DF814FB9C0000209B
:104BA00070B5044685690068C10601D5302600E06D
:104BB0002026C00708D070BDD4E9012130469047B7
:104BC000206A00F1010020626D1EF5D570BD70B540
:104BD000044685690078C00708D170BDD4E9012179
:104BE00020209047206A00F1010020626D1EF5D55B
:104BF00070BD70B50C460546012A05D028788006A0
:104C000000D5EA69002302E0012305E05B1C934222
:104C100002D2E05C0028F9D1A869E618C01AA861A0
:104C2000286A184428622846FFF7BAFF04E0D5E94D
:104C3000012114F8010B9047B442F8D32846FFF73E
:104C4000C6FF70BD2DE9F0410646002410687529A5
:104C5000314616A511D0AFF30080002803DAC0F169
:104C6000000013A507E031688A0701D511A502E00D
:104C7000490704D510A5012401E0AFF3008000210D
:104C80000A2306F1240707E0B0FBF3F203FB12004E
:104C9000303078541046491C0028F5D123462A4666
:104CA0003046BDE8F04100F0FBB900000000000014
:104CB0002D0000002B000000200000002DE9F0472F
:104CC0004FF0000A89460446C0F820A02046E1685B
:104CD0008847002876D0252806D0D4E901219047BE
:104CE000206A401C2062F1E7E168204600258847E1
:104CF000C4F81CA006460027C4F818A02A2E09D024
:104D0000304601F0BCFB38B304EB8708303EC8F8EE
:104D1000186019E059F8041B204604EB87029161E2
:104D2000E1688847012F064618D1E069002820DA9B
:104D300025F020051DE0D8F8180000EB800006EBF8
:104D400040003038C8F818002046E1688847064619
:104D500001F095FB0028EED1012F0AD02E2E08D1AC
:104D60002046E16888477F1C0646022F45F0200553
:104D7000C4DBA069002803DA404245F00105A061C8
:104D8000E80701D025F01005B6B1A6F141001928B9
:104D900002D8203645F400654A4631462046256053
:104DA0004D46FBF74BFA58B1012806D0ED1D25F012
:104DB000070000F1080989E704E005F1040985E727
:104DC00030468AE7206ABDE8F08700000FB400B5DE
:104DD00089B00BA86A46009003480A9900F002FCCB
:104DE00009B05DF814FB0000A00000202DE9FF5F72
:104DF0001D464FF0FF3B91464FF000085F46D5E956
:104E00000146A96901987F1C8847296A824688471C
:104E10000028F6D11AF101000CD0002E24F4C06451
:104E200019DD600614D5BAF12B0F09D0BAF12D0F98
:104E30000ED103E0584604B0BDE8F09F44F480640E
:104E4000A96901987F1C8847761E8246002E02DDE4
:104E5000BAF1300F03D0B9F1000F26D032E0A969C2
:104E6000761E01987F1C44F400748847002E824609
:104E700005DDBAF1780F06D0BAF1580F03D0B9F1B9
:104E8000000F10D01EE0B9F1000F02D0B9F1100FE1
:104E900018D1A969761E01987F1C24F400748847F4
:104EA0008246102002E0082000E00A20814609E046
:104EB000A96908FB0908761E01987F1C44F4007458
:104EC00088478246002E05DD4946504600F07CFBAF
:104ED0000028EDDAE96901988847A00502D46FF04F
:104EE0000100A8E7E00727D1600614D5600502D5C8
:104EF000C8F1000000E04046296801F104022A6080
:104F00000968220501D5087016E0220701D508803E
:104F100012E0086010E0286800F1040129600068D0
:104F2000210502D580F8008006E0210702D5A0F80F
:104F3000008001E0C0F8008038467CE72DE9FF5F83
:104F40004FF000089946144646469169D2E901A7F8
:104F5000DDF838B001988847054659EA0B0005D0BE
:104F600009E0A1690198761C88470546216A284610
:104F700088470028F5D1681C03D05FEACA7005D0C5
:104F800015E04FF0FF3004B0BDE8F09F2068011D30
:104F90002160D0F800800AE05FEACA7001D108F809
:104FA000015BA1697F1E0198761C88470546002F8A
:104FB0001ADD681C18D0B9F1000F0DD0E81705EB09
:104FC000D060421120F01F0059F822102A1A012047
:104FD00090400142E0D107E0BBF1000FDCD1284650
:104FE000216A88470028D7D0E169019888470AF0EC
:104FF000010050EA0B0002D1002188F80010A068DF
:10500000B84203DDBBF1000F03D017B16FF0010010
:10501000B9E73046B7E700004FF0013C50F8042BE9
:1050200051F8043B9A4221D1A2EB0C03934313EABB
:10503000CC1317D150F8042B51F8043B9A4215D1E8
:10504000A2EB0C03934313EACC130BD150F8042BBF
:1050500051F8043B9A4209D1A2EB0C03934313EAA3
:10506000CC13DBD04FF00000704700BFD01A01BA5C
:10507000B1FA81F101F0180122FA01F0CB40C1F13F
:105080002001DBB2C0B2C01A2CFA01F3D11A91434D
:1050900011EAC311E6D170477047704770477047F7
:1050A0002DE9F0470D4699469246044600F1240842
:1050B0000168880604D5E06921F01001216000E054
:1050C0000120A84202DDA0EB050700E00027A1694E
:1050D00007EB050202EB0900A1EB0000A0612078BC
:1050E000C00602D42046FFF75BFD002608E0D4E9A5
:1050F00001211AF806009047206A401C761C2062A5
:105100004E45F4DB2078C0060AD52046FFF748FD5F
:1051100006E0D4E9012130209047206A401C20623B
:10512000381EA7F10107F4DC07E0D4E9012118F8E3
:1051300005009047206A401C2062281EA5F1010549
:10514000F3DC2046FFF743FD2078000602D502205D
:10515000BDE8F0870120FBE770472DE9FF4F0C46C3
:105160001E464FF0FF378BB0D2E90001DDF86080BA
:105170000A908A46C1F30A5505B93D460021084602
:105180004FF00000BAF1000F00F4400005DA00EB28
:1051900080004FF4400101EA50004FEA9059B9F104
:1051A000010F00DDB9460A9850EA4A000ED044F6D5
:1051B0001050A5F2FF3545432F14B8F1000F1ED053
:1051C0007542291E1EDDC9F100021CE0B8F1010F75
:1051D0004FF0000001D0302103E0F24305E02154FC
:1051E000401CB042FBDB30460022002121540B99C9
:1051F000C1F80880C1E900200FB0BDE8F08FBD1BE9
:105200006D1CDEE74A4600DA694206A800F0AEFAF5
:1052100006AB07CB03AB07C350460A9900F05CFD11
:105220008DE80700A0F500501F3800900398002D6E
:1052300009DD42F21F014A46084403A9039068466B
:1052400000F0BBFF08E0A0F500504A461F3803A954
:105250000390684600F0C5FF8DE807000004000CCD
:1052600003D04FF0FF30410800E01046B8F1000FC6
:1052700003D00022009215461FE0751E06D400F0F0
:10528000C1F902F1300262556D1EF8D5B346012214
:10529000084302D000227F1C04E02078302801D18E
:1052A00000227F1E002A099787D01DE0112D07DA02
:1052B00000F0A8F9303262556D1C50EA0102F5D1B8
:1052C00008430FD10021681E05E0235C625C635433
:1052D000491C2254401E8142F7DBAB46A81B401EEE
:1052E000099001E0009848B1002004F80B000B98E9
:1052F000099AC0F80880C0E9002B7DE711264FF01D
:1053000000085AE72DE9F04F88460446D21D22F0E6
:10531000070191B0D1E90001CDE90A0101F097F848
:1053200002460B98C00F01D02D2007E020688107AE
:1053300001D52B2002E0202101EAC000032A0990B8
:1053400001D0072A05DB03464146204600F0B8F9A4
:105350000FE12078800601D5E06900E00620B8F171
:10536000650F814606D0B8F1660F18D0B8F1670F07
:1053700072D132E00020B9F1110F009001DB11234E
:1053800001E009F101030AAA01A90CA8FFF7E5FE53
:10539000DDE90C70002609F10105834648E0012093
:1053A0004B4600904FF000470AAA01A90CA8FFF74E
:1053B000D4FEDDE90DB00C995D46002618B909F15F
:1053C000010001EB0005B9EB050003D4C0F1FF3685
:1053D00009F10105A5EB09002BE0B9F1010F01DA94
:1053E0004FF001090020B9F1110F0090484601DD8E
:1053F000112300E003460AAA01A90CA8FFF7ADFE9D
:10540000DDE90C704D4600268346207800070AD45B
:10541000AB4500DA5D4601A8012D04DD411911F804
:10542000011C302907D04F4502DA17F1040F04DAC6
:105430000120824610E06D1EEEE7002F02DCED1B1E
:105440003E4403E0781CA84200DD0546A7EB0600B9
:1054500000F1010A4FF000472078000703D4AA4565
:1054600001DB4FF0FF3A0021B7F1004F0DF1430887
:105470008DF8431023D002202B23002F01DA7F4226
:105480002D234FF00A0C011EA0F1010000DC4FB1EA
:1054900097FBFCF10CFB11720F4602F1300208F889
:1054A000012DF0E7A8F1010003702188090501D55D
:1054B000452100E06521A0F1010800F8011C0998D0
:1054C0000FA9A1EB080707F1070700B1012000EBC6
:1054D000050101EBEA70A1693844A1EB0000A0F1DD
:1054E0000100A0612078C00602D42046FFF758FBD7
:1054F000099830B1D4E901219047206A00F10100F8
:1055000020622078C00620D52046FFF749FB1CE02A
:10551000002E04DBB34502DD01A8805D00E03020F1
:10552000D4E901219047206A761C401CBAF1010A97
:1055300020620AD100F062F8C0680168405CD4E9DA
:1055400001219047206A401C2062281EA5F1010518
:10555000DEDC07E0D4E9012118F8010B9047206A4E
:10556000401C2062381EA7F10107F3DC2046FFF73C
:105570002EFB022011B040E610B5436913B1AFF322
:10558000008001E0FFF735FB012010BD127800F12B
:1055900024010A7000224A700122EDE711684FF0E1
:1055A000FF32E9E7074B70B50D467B4400F075F814
:1055B0000446284600F070F910B14FF0FF3070BD7E
:1055C000204670BD43CCFFFF3A2800D2303820F08F
:1055D0002002412A01D3A2F13700884201D34FF0C3
:1055E000FF307047034B7B449361034B7B44D36193
:1055F00000F0ACB825CCFFFF630200000048704704
:105600002406002030B5B0F10A024FEA900E71F185
:1056100000034EEA817EB0EB0E0061EB91014FEA90
:10562000101E4EEA017E10EB0E0041EB11114FEA05
:10563000102E4EEA016E10EB0E0041EB11214FEAE5
:10564000104E4EEA014E10EB0E0041EB1141401896
:1056500041F100014FEAD00040EA41704FEAD10128
:1056600010EB80054FEA810444EA907444EB010496
:105670006D1944EB0404521BA3414FF0000348BFD3
:105680000A3200D530BD401C41F1000130BD0000A0
:1056900001694A1C02610878704700B58FB0CDE9F6
:1056A00001310021059105497944CDE903101146E6
:1056B0006846FFF703FB0FB000BD0000E5FFFFFFEA
:1056C0002DE9F0411F46044603260168072A01F42C
:1056D000006004DB08B116A505E016A503E008B1DB
:1056E00015A500E015A521F010002060A069C01EDE
:1056F000A0610FB1401EA0612046FFF751FA4FB1E3
:10570000D4E9012138469047206A401C2062C01C21
:10571000206206E0206AFAE7D4E9012115F8010BBE
:105720009047761EF8D22046FFF751FABDE8F08187
:105730004E414E006E616E00494E4600696E660035
:10574000026811441378016018467047D16005491A
:105750007944516104497944116200211161114673
:1057600000F0D0B8EDFFFFFF990100002DE9F047F0
:10577000814616468AB035487844D0E900238068CF
:105780000092CDE90130314878440C38D0E9022349
:10579000006903924FF03702CDE9043041F69B30A7
:1057A000014491FBF2F0A0F1800502FB10141B3CB8
:1057B00002D56442012000E00020DFF890A080467E
:1057C0000027FA44AAF1C60A0DE0E00709D03246E4
:1057D000684607EB47010AEB810100F002FD8DE806
:1057E000070064107F1C002CEFD1184F7F44B43F9A
:1057F00017E0E80713D007EB04100DF1180A90E842
:105800000E00AAE80E00C068F04201D19819089075
:10581000324606A903A800F0E4FC03AB07C36D10F1
:10582000641C002DE5D132466946B8F1000F03A88B
:1058300002D000F0C2FC01E000F0D3FCC9E9000195
:10584000C9F808200AB0BDE8F08700000C15000078
:10585000704710B54FF0FF34C1688A020FD5036B53
:1058600042689A420BD1014690F82520104600F07C
:1058700001FA401C01D1204610BD002010BD11F0DE
:10588000C00FF8D1026941689142F4D90268521CF4
:10589000491EC0E90021F0E7007B00F0800070475E
:1058A00000487047040600207546FFF7F9FFAE4632
:1058B00005006946534620F00700854618B020B51C
:1058C000FFF75EF8BDE820404FF000064FF00007FC
:1058D0004FF000084FF0000B21F00701AC46ACE898
:1058E000C009ACE8C009ACE8C009ACE8C0098D4605
:1058F000704710B5044600F0E7F90068005D00F05D
:10590000010010BD2DE9F34F4FF0000A0C4656463A
:105910008DB001200C9001F10C000B9062690B9886
:105920000121904705002DD0252D2CD0216A8847D4
:10593000C0B162690B9801219047216A884700280D
:10594000F7D16269411E0B98904700E0761CA1696F
:105950000D988847216A88470028F7D1E1690D989A
:105960008847DBE7A1690D988847A842074601D11F
:10597000761CD3E7E1690D9888477F1C02D1BAF104
:10598000000F6FD06AE162690B9800273D463946E7
:1059900090472A2804D162690B980121904701257C
:1059A000DFF8CC8262690B9801219047A0F13001A9
:1059B0000A290AD24745E5DC07EB870100EB4107DE
:1059C000303FDFD445F01005ECE7E90601D46FF075
:1059D00000476C280AD04C2814D0682815D06A28B3
:1059E0000DD074281CD07A281AD01DE062690B985B
:1059F000012190476C2802D045F0040514E045F0E1
:105A000002050DE045F020050AE062690B980121CE
:105A10009047682802D045F0080505E045F4006588
:105A200062690B9801219047C4E9015765283DD070
:105A300019DC582879D00CDC452837D004DC25281F
:105A400026D041289ED131E046282FD0472899D131
:105A50002CE05B287FD0612828D063287BD0642885
:105A600090D159E0F5E06F2847D008DC66281DD0BA
:105A700067281BD0692821D06E2816D127E070280E
:105A800044D0732867D0752846D078280DD14CE0D3
:105A9000A1690D988847252805463FF469AFE1695B
:105AA0000D9888476D1C3FF46AAFD7E00D992346E7
:105AB0006A466FF00100AFF30080C4E045F040009B
:105AC00023464FF000026060A80735D43DE020680F
:105AD00000F1040121600068290501D506701DE769
